{
  "abi": [
    {
      "inputs": [
        {
          "components": [
            {
              "internalType": "uint256",
              "name": "r",
              "type": "uint256"
            },
            {
              "internalType": "uint256",
              "name": "g",
              "type": "uint256"
            },
            {
              "internalType": "uint256",
              "name": "b",
              "type": "uint256"
            }
          ],
          "internalType": "struct Fossil.RGB[]",
          "name": "colors",
          "type": "tuple[]"
        }
      ],
      "name": "averageColors",
      "outputs": [
        {
          "components": [
            {
              "internalType": "uint256",
              "name": "r",
              "type": "uint256"
            },
            {
              "internalType": "uint256",
              "name": "g",
              "type": "uint256"
            },
            {
              "internalType": "uint256",
              "name": "b",
              "type": "uint256"
            }
          ],
          "internalType": "struct Fossil.RGB",
          "name": "",
          "type": "tuple"
        }
      ],
      "stateMutability": "pure",
      "type": "function"
    },
    {
      "inputs": [
        {
          "components": [
            {
              "internalType": "uint256",
              "name": "r",
              "type": "uint256"
            },
            {
              "internalType": "uint256",
              "name": "g",
              "type": "uint256"
            },
            {
              "internalType": "uint256",
              "name": "b",
              "type": "uint256"
            }
          ],
          "internalType": "struct Fossil.RGB",
          "name": "color",
          "type": "tuple"
        }
      ],
      "name": "averageWithWhite",
      "outputs": [
        {
          "components": [
            {
              "internalType": "uint256",
              "name": "r",
              "type": "uint256"
            },
            {
              "internalType": "uint256",
              "name": "g",
              "type": "uint256"
            },
            {
              "internalType": "uint256",
              "name": "b",
              "type": "uint256"
            }
          ],
          "internalType": "struct Fossil.RGB",
          "name": "",
          "type": "tuple"
        }
      ],
      "stateMutability": "pure",
      "type": "function"
    },
    {
      "inputs": [
        {
          "components": [
            {
              "internalType": "uint256",
              "name": "r",
              "type": "uint256"
            },
            {
              "internalType": "uint256",
              "name": "g",
              "type": "uint256"
            },
            {
              "internalType": "uint256",
              "name": "b",
              "type": "uint256"
            }
          ],
          "internalType": "struct Fossil.RGB",
          "name": "color",
          "type": "tuple"
        }
      ],
      "name": "complementaryColor",
      "outputs": [
        {
          "components": [
            {
              "internalType": "uint256",
              "name": "r",
              "type": "uint256"
            },
            {
              "internalType": "uint256",
              "name": "g",
              "type": "uint256"
            },
            {
              "internalType": "uint256",
              "name": "b",
              "type": "uint256"
            }
          ],
          "internalType": "struct Fossil.RGB",
          "name": "",
          "type": "tuple"
        }
      ],
      "stateMutability": "pure",
      "type": "function"
    },
    {
      "inputs": [
        {
          "internalType": "uint256",
          "name": "seed",
          "type": "uint256"
        }
      ],
      "name": "constructImageURI",
      "outputs": [
        {
          "internalType": "string",
          "name": "",
          "type": "string"
        }
      ],
      "stateMutability": "view",
      "type": "function"
    },
    {
      "inputs": [
        {
          "components": [
            {
              "internalType": "uint256",
              "name": "r",
              "type": "uint256"
            },
            {
              "internalType": "uint256",
              "name": "g",
              "type": "uint256"
            },
            {
              "internalType": "uint256",
              "name": "b",
              "type": "uint256"
            }
          ],
          "internalType": "struct Fossil.RGB[]",
          "name": "colors",
          "type": "tuple[]"
        }
      ],
      "name": "createRectsForColors",
      "outputs": [
        {
          "internalType": "string",
          "name": "",
          "type": "string"
        }
      ],
      "stateMutability": "pure",
      "type": "function"
    },
    {
      "inputs": [
        {
          "internalType": "uint256",
          "name": "input",
          "type": "uint256"
        },
        {
          "internalType": "uint256",
          "name": "divisor",
          "type": "uint256"
        },
        {
          "internalType": "uint256",
          "name": "decimalPlaces",
          "type": "uint256"
        }
      ],
      "name": "divideAndFormat",
      "outputs": [
        {
          "internalType": "string",
          "name": "",
          "type": "string"
        }
      ],
      "stateMutability": "view",
      "type": "function"
    },
    {
      "inputs": [
        {
          "internalType": "uint256",
          "name": "seed",
          "type": "uint256"
        }
      ],
      "name": "generateAnalogousColorPalette",
      "outputs": [
        {
          "components": [
            {
              "internalType": "uint256",
              "name": "r",
              "type": "uint256"
            },
            {
              "internalType": "uint256",
              "name": "g",
              "type": "uint256"
            },
            {
              "internalType": "uint256",
              "name": "b",
              "type": "uint256"
            }
          ],
          "internalType": "struct Fossil.RGB[]",
          "name": "",
          "type": "tuple[]"
        }
      ],
      "stateMutability": "view",
      "type": "function"
    },
    {
      "inputs": [
        {
          "internalType": "uint256",
          "name": "tokenId",
          "type": "uint256"
        }
      ],
      "name": "generateComponentTransfer",
      "outputs": [
        {
          "internalType": "string",
          "name": "",
          "type": "string"
        }
      ],
      "stateMutability": "view",
      "type": "function"
    },
    {
      "inputs": [
        {
          "internalType": "uint256",
          "name": "tokenId",
          "type": "uint256"
        },
        {
          "components": [
            {
              "internalType": "uint256",
              "name": "r",
              "type": "uint256"
            },
            {
              "internalType": "uint256",
              "name": "g",
              "type": "uint256"
            },
            {
              "internalType": "uint256",
              "name": "b",
              "type": "uint256"
            }
          ],
          "internalType": "struct Fossil.RGB[]",
          "name": "colors",
          "type": "tuple[]"
        }
      ],
      "name": "generateComponentTransfer",
      "outputs": [
        {
          "internalType": "string",
          "name": "",
          "type": "string"
        }
      ],
      "stateMutability": "view",
      "type": "function"
    },
    {
      "inputs": [
        {
          "internalType": "uint256",
          "name": "tokenId",
          "type": "uint256"
        },
        {
          "internalType": "bool",
          "name": "isFractalNoise",
          "type": "bool"
        }
      ],
      "name": "generateFrequency",
      "outputs": [
        {
          "internalType": "uint256",
          "name": "",
          "type": "uint256"
        },
        {
          "internalType": "string",
          "name": "",
          "type": "string"
        }
      ],
      "stateMutability": "view",
      "type": "function"
    },
    {
      "inputs": [
        {
          "internalType": "uint256",
          "name": "seed",
          "type": "uint256"
        }
      ],
      "name": "generateGradient",
      "outputs": [
        {
          "internalType": "string",
          "name": "",
          "type": "string"
        }
      ],
      "stateMutability": "view",
      "type": "function"
    },
    {
      "inputs": [
        {
          "internalType": "uint256",
          "name": "seed",
          "type": "uint256"
        }
      ],
      "name": "generateMonochromaticColorPalette",
      "outputs": [
        {
          "components": [
            {
              "internalType": "uint256",
              "name": "r",
              "type": "uint256"
            },
            {
              "internalType": "uint256",
              "name": "g",
              "type": "uint256"
            },
            {
              "internalType": "uint256",
              "name": "b",
              "type": "uint256"
            }
          ],
          "internalType": "struct Fossil.RGB[]",
          "name": "",
          "type": "tuple[]"
        }
      ],
      "stateMutability": "view",
      "type": "function"
    },
    {
      "inputs": [
        {
          "internalType": "uint256",
          "name": "tokenId",
          "type": "uint256"
        },
        {
          "internalType": "bool",
          "name": "isFractalNoise",
          "type": "bool"
        },
        {
          "internalType": "uint256",
          "name": "frequency",
          "type": "uint256"
        }
      ],
      "name": "generateOctaves",
      "outputs": [
        {
          "internalType": "string",
          "name": "",
          "type": "string"
        }
      ],
      "stateMutability": "view",
      "type": "function"
    },
    {
      "inputs": [
        {
          "internalType": "uint256",
          "name": "seed",
          "type": "uint256"
        }
      ],
      "name": "generateRandomColorPalette",
      "outputs": [
        {
          "components": [
            {
              "internalType": "uint256",
              "name": "r",
              "type": "uint256"
            },
            {
              "internalType": "uint256",
              "name": "g",
              "type": "uint256"
            },
            {
              "internalType": "uint256",
              "name": "b",
              "type": "uint256"
            }
          ],
          "internalType": "struct Fossil.RGB[]",
          "name": "",
          "type": "tuple[]"
        }
      ],
      "stateMutability": "view",
      "type": "function"
    },
    {
      "inputs": [
        {
          "internalType": "uint256",
          "name": "seed",
          "type": "uint256"
        }
      ],
      "name": "generateSVG",
      "outputs": [
        {
          "internalType": "string",
          "name": "",
          "type": "string"
        }
      ],
      "stateMutability": "view",
      "type": "function"
    },
    {
      "inputs": [
        {
          "internalType": "uint256",
          "name": "tokenId",
          "type": "uint256"
        },
        {
          "internalType": "bool",
          "name": "isFractalNoise",
          "type": "bool"
        },
        {
          "internalType": "uint256",
          "name": "frequency",
          "type": "uint256"
        }
      ],
      "name": "generateScale",
      "outputs": [
        {
          "internalType": "string",
          "name": "",
          "type": "string"
        }
      ],
      "stateMutability": "view",
      "type": "function"
    },
    {
      "inputs": [
        {
          "internalType": "uint256",
          "name": "tokenId",
          "type": "uint256"
        },
        {
          "internalType": "bool",
          "name": "isFractalNoise",
          "type": "bool"
        }
      ],
      "name": "generateSpecularLighting",
      "outputs": [
        {
          "internalType": "string",
          "name": "",
          "type": "string"
        }
      ],
      "stateMutability": "view",
      "type": "function"
    },
    {
      "inputs": [
        {
          "internalType": "uint256",
          "name": "seed",
          "type": "uint256"
        }
      ],
      "name": "generateTetradicAnalogousColorPalette",
      "outputs": [
        {
          "components": [
            {
              "internalType": "uint256",
              "name": "r",
              "type": "uint256"
            },
            {
              "internalType": "uint256",
              "name": "g",
              "type": "uint256"
            },
            {
              "internalType": "uint256",
              "name": "b",
              "type": "uint256"
            }
          ],
          "internalType": "struct Fossil.RGB[]",
          "name": "",
          "type": "tuple[]"
        }
      ],
      "stateMutability": "view",
      "type": "function"
    },
    {
      "inputs": [
        {
          "internalType": "uint256",
          "name": "seed",
          "type": "uint256"
        }
      ],
      "name": "generateTetradicColorPalette",
      "outputs": [
        {
          "components": [
            {
              "internalType": "uint256",
              "name": "r",
              "type": "uint256"
            },
            {
              "internalType": "uint256",
              "name": "g",
              "type": "uint256"
            },
            {
              "internalType": "uint256",
              "name": "b",
              "type": "uint256"
            }
          ],
          "internalType": "struct Fossil.RGB[]",
          "name": "",
          "type": "tuple[]"
        }
      ],
      "stateMutability": "view",
      "type": "function"
    },
    {
      "inputs": [
        {
          "components": [
            {
              "internalType": "uint256",
              "name": "hue",
              "type": "uint256"
            },
            {
              "internalType": "uint256",
              "name": "saturation",
              "type": "uint256"
            },
            {
              "internalType": "uint256",
              "name": "lightness",
              "type": "uint256"
            }
          ],
          "internalType": "struct Fossil.HSL",
          "name": "color",
          "type": "tuple"
        }
      ],
      "name": "toColorRGB",
      "outputs": [
        {
          "components": [
            {
              "internalType": "uint256",
              "name": "r",
              "type": "uint256"
            },
            {
              "internalType": "uint256",
              "name": "g",
              "type": "uint256"
            },
            {
              "internalType": "uint256",
              "name": "b",
              "type": "uint256"
            }
          ],
          "internalType": "struct Fossil.RGB",
          "name": "",
          "type": "tuple"
        }
      ],
      "stateMutability": "pure",
      "type": "function"
    }
  ],
  "bytecode": {
    "object": "0x6080806040523461001657612ef6908161001c8239f35b600080fdfe6040608081526004908136101561001557600080fd5b60009160e0908335821c918263167feb30146110205782633664814d14610e13578263385f81b014610ca857826339b35fd714610c8657826363d265a114610c5f578263687524a814610b1c575081636dcee4ca14610afb5781637486c45114610ad15781638df4db16146107d8578163919f96501461070d578163a71a0bfd146106b3578163a929e684146105dc578163aa96a90a146103ac578163b7eb3f7514610385578163d284f2f714610346578163d5c6818114610309578163e73eeb40146102b9578163ed5d84631461028a578163ed7ca60e1461014d575063f5773d261461010257600080fd5b346101495760603660031901126101495760609061014761012a610125366112de565b6119d7565b915180926040809180518452602081015160208501520151910152565bf35b5080fd5b83915034610149578260031936011261014957803561016a61121f565b156102495761017890611760565b915b50606482106101b157506101ad610198610193836115b5565b61157a565b8351938493845280602085015283019061119e565b0390f35b600a821061020357506101ad6101c6826115b5565b6101fe602385518093620302e360ec1b60208301526101ee815180926020868601910161117b565b81010360038101845201826112bd565b610198565b6101ad906101fe6024610215856115b5565b9286518094630302e30360e41b602083015261023a815180926020878601910161117b565b810103908101845201826112bd565b602d908451602081019182526020815261026281611287565b51902006600f8101809111610277579161017a565b634e487b7160e01b835260118252602483fd5b8284346102b65760203660031901126102b657506102ab6101ad9235612060565b9051918291826111c3565b80fd5b8284346102b65760203660031901126102b6578235906001600160401b0382116102b657506102f16101ad936102f69236910161130e565b612daf565b905191829160208352602083019061119e565b8284346102b657816003193601126102b657602435906001600160401b0382116102b657506103416101ad936102f69236910161130e565b611e46565b8284346102b65760203660031901126102b6578235906001600160401b0382116102b6575061012a6103806060946101479336910161130e565b6122a8565b5050346101495780600319360112610149576101ad906103a361121f565b506102f66117ef565b838334610149576020806003193601126105d857833592600191828501948581116105c5576103da866116f8565b600282018088116105b2576103f0600391611734565b92018088116105b257603290875185810191825285815261041081611287565b519020069360199384860180961161059f5761044f88519661043188611256565b848852828801958087528a89019582875261044a612224565b612243565b87519860a08a018a81106001600160401b0382111761058c5789528a8a5281835b60808110610575575050610483876119d7565b61048c8b611d9a565b526104968a611d9a565b5087805b6104ac575b8951806101ad8d826111c3565b8a51811015610570578751605a810180911161055d57610168900688526104db6104d682846113bf565b611734565b86526104e781836113bf565b89810180911161055d57604b908b5185810191825285815261050881611287565b5190200687810180911161055d578161054f8b9594938e610536858e610555978d52518d519061044a612224565b61053f8d6119d7565b6105498383611da7565b52611da7565b50611d62565b90919261049a565b634e487b7160e01b855260118d52602485fd5b61049f565b8b8282610580611960565b92010152018290610470565b634e487b7160e01b845260418c52602484fd5b634e487b7160e01b825260118a52602482fd5b634e487b7160e01b855260118952602485fd5b634e487b7160e01b835260118752602483fd5b8280fd5b9050346105d857602091826003193601126106af576105fe6101ad92356125cc565b938061060986611434565b9561065a603a855180997f646174613a696d6167652f7376672b786d6c3b6261736536342c0000000000008a83015261064a815180928c868601910161117b565b810103601a81018a5201886112bd565b835161068f816106818982019463104c13eb60e21b86528a6024840152604483019061119e565b03601f1981018352826112bd565b51906a636f6e736f6c652e6c6f675afa505192828493845283019061119e565b8380fd5b8284346102b65760016106c536611233565b5050835160208101918252602081526106dd81611287565b5190201692600284018094116106fa576101ad836102f6866115b5565b634e487b7160e01b825260119052602490fd5b83833461014957606036600319011261014957610729366112de565b610731611960565b50815161073d81611256565b60ff815282602082019160ff8352019060ff825282519460ff86018096116107c5576060866101478787610788888361077d8a60208601519051906113bf565b9301519051906113bf565b60011c9082519461079886611256565b60011c855260011c6020850152818401525180926040809180518452602081015160208501520151910152565b634e487b7160e01b815260118752602490fd5b83833461014957602092836003193601126105d8573591600191828151926107ff84611256565b805b60608082101561081657858201528701610801565b505085879495825b600381106109985787876101ad8861098960da855183868801519701519684519788927f3c6665436f6d706f6e656e745472616e7366657220726573756c743d2272657389850152653ab63a19111f60d11b878501527f3c666546756e635220747970653d22646973637265746522207461626c655661604685015265363ab2b99e9160d11b908160668601526108be815180928c606c8901910161117b565b840192631110179f60e11b9384606c8201527f3c666546756e634720747970653d22646973637265746522207461626c655661607082015282609082015261090f825180938d60968501910161117b565b01908360968301527f3c666546756e634220747970653d22646973637265746522207461626c655661609a83015260ba820152610955825180938b60c08501910161117b565b019060c0820152751e17b332a1b7b6b837b732b73a2a3930b739b332b91f60511b60c48201520360ba8101875201856112bd565b5192828493845283019061119e565b85516109a381611287565b858152600360fc1b88820152845b60028110610a0f575090610a0a916109f560228951836109db8d839651928184928601910161117b565b810161203160f01b8d8201520360028101845201826112bd565b6109ff828b61204f565b5261054f818a61204f565b61081e565b9295919798969490610aa9610aaf91610a2889886113bf565b8c8951818101928352818152610a3d81611287565b600a92839151902006918214600014610abc57610aa39150610a5d6117d2565b925b8a519381610a76869351809286808701910161117b565b8201600160fd1b84820152610a9582518093602196878501910161117b565b0103878101845201826112bd565b97611d62565b93611d62565b98979195909496986109b1565b610acb610193610aa3936115b5565b92610a5f565b5050346101495760603660031901126101495760609061014761012a610af6366112de565b612355565b8284346102b65760203660031901126102b657506102f66101ad92356125cc565b8385346102b6576020806003193601126101495784359183519461010086018681106001600160401b03821117610c4c5785526007865282825b828110610c3657505050610b69836116f8565b956001938481018091116102775760146064918751868101918252868152610b9081611287565b5190200693865198610ba18a611256565b8952880152848701928352610bb5876119d7565b908651908115610c2357506064049190845b610bd9575b8551806101ad89826111c3565b8651821015610c1e57610bec8288611da7565b52610bf78187611da7565b50610c038284516113bf565b8352610c17610c11886119d7565b91611d62565b9084610bc7565b610bcc565b634e487b7160e01b845260129052602483fd5b610c3e611960565b82828a010152018390610b56565b634e487b7160e01b835260418852602483fd5b50505034610149576101ad906102f6610c81610c7a36611233565b5050611734565b6115b5565b508284346102b65760203660031901126102b657506102f66101ad9235612396565b508284346102b657602090816003193601126102b6578335819282935b606051851015610dad57610cea610ce582610ce088876113bf565b6113bf565b61171a565b610cf486856113bf565b60018101809111610d9a57610ce583610d0c926113bf565b610d1687866113bf565b60028101809111610d8757610ce584610d2e926113bf565b90885192610d3b84611256565b83528483015287820152610d4e86611d71565b52610d5885611d71565b5060038101809111610d7457610d6e9094611d62565b93610cc5565b634e487b7160e01b845260118752602484fd5b634e487b7160e01b875260118a52602487fd5b634e487b7160e01b865260118952602486fd5b5084518181526060805182840181905291928392838901926080929088905b838210610dd95786860387f35b918496508286610e0360019496988498516040809180518452602081015160208501520151910152565b0196019201869594929391610dcc565b5083833461014957602091826003193601126102b657833590610e35826116f8565b9060019283810180821161100d57610e569086519088820152878152611287565b60029081810180911161100d57610e769086519088820152878152611287565b845192610e8284611256565b83528583016064815285840196603288528651976101a089018981106001600160401b03821117610ffa578852600c895281855b6101808110610fe45750508685905b610ed7575b8851806101ad8c826111c3565b8951811015610fdf57610ee9876119d7565b610ef3828c611da7565b52610efe818b611da7565b508651601d198101908111610fb957610f319085518451908c5192610f2284611256565b8352868301528b8201526119d7565b88820190818311610fcc5790610f5291610f4b828e611da7565b528b611da7565b508651601e8101809111610fb957610f759085518451908c5192610f2284611256565b858201809211610fb957610f89828c611da7565b52610f94818b611da7565b508651605a8101809111610fb9578891610168610fb392068952611d62565b90610ec5565b634e487b7160e01b875260118c52602487fd5b634e487b7160e01b885260118d52602488fd5b610eca565b610fec611960565b82828d010152018290610eb6565b634e487b7160e01b865260418b52602486fd5b634e487b7160e01b835260118852602483fd5b83858334610149576060366003190112610149578035906024803560443561104882866113e2565b9482156111695782900690604d811161115757600a0a908181029181830414901517156111455790611079916113e2565b936005851015611121575b600a85146110ef575b5050506110a561109f6101ad926115b5565b926115b5565b9261098960218251809686516110c3816020998a808701910161117b565b8201601760f91b888201526110e0825180938a878501910161117b565b010360018101875201856112bd565b80919294509360018401809411611111575050506110a561109f6101ad61108d565b634e487b7160e01b825260119052fd5b93600181018091116111335793611084565b50634e487b7160e01b84526011825283fd5b634e487b7160e01b8652601184528286fd5b634e487b7160e01b8752601185528387fd5b634e487b7160e01b8752601285528387fd5b60005b83811061118e5750506000910152565b818101518382015260200161117e565b906020916111b78151809281855285808601910161117b565b601f01601f1916010190565b6020908160408183019282815285518094520193019160005b8281106111ea575050505090565b909192938260608261121360019489516040809180518452602081015160208501520151910152565b019501939291016111dc565b60243590811515820361122e57565b600080fd5b606090600319011261122e5760043590602435801515810361122e579060443590565b606081019081106001600160401b0382111761127157604052565b634e487b7160e01b600052604160045260246000fd5b604081019081106001600160401b0382111761127157604052565b602081019081106001600160401b0382111761127157604052565b90601f801991011681019081106001600160401b0382111761127157604052565b606090600319011261122e57604051906112f782611256565b600435825260243560208301526044356040830152565b81601f8201121561122e578035906001600160401b038211611271576040805193602091611341838660051b01876112bd565b848652828601918360608097028601019481861161122e578401925b85841061136e575050505050505090565b868483031261122e57848791845161138581611256565b863581528287013583820152858701358682015281520193019261135d565b6001600160401b03811161127157601f01601f191660200190565b919082018092116113cc57565b634e487b7160e01b600052601160045260246000fd5b81156113ec570490565b634e487b7160e01b600052601260045260246000fd5b9061140c826113a4565b61141960405191826112bd565b828152809261142a601f19916113a4565b0190602036910137565b8051156115665760405161144781611256565b604081527f4142434445464748494a4b4c4d4e4f505152535455565758595a61626364656660208201527f6768696a6b6c6d6e6f707172737475767778797a303132333435363738392b2f604082015281516002928382018092116113cc576003918290046001600160fe1b03811681036113cc576114c9908594951b611402565b936020850193829183518401925b8381106115155750505050510680600114611502576002146114f7575090565b603d90600019015390565b50603d9081600019820153600119015390565b85600491979293949701918251600190603f9082828260121c16880101518453828282600c1c16880101518385015382828260061c16880101518885015316850101518782015301959291906114d7565b50604051611573816112a2565b6000815290565b906115b36022604051809461181760f11b60208301526115a3815180926020868601910161117b565b81010360028101855201836112bd565b565b806000917a184f03e93ff9f4daa797ed6e38ed64bf6a1f010000000000000000808210156116ea575b506d04ee2d6d415b85acef8100000000808310156116db575b50662386f26fc10000808310156116cc575b506305f5e100808310156116bd575b50612710808310156116ae575b50606482101561169e575b600a80921015611694575b60019081602161164c828701611402565b95860101905b61165e575b5050505090565b600019019083906f181899199a1a9b1b9c1cb0b131b232b360811b8282061a83530491821561168f57919082611652565b611657565b916001019161163b565b9190606460029104910191611630565b60049193920491019138611625565b60089193920491019138611618565b60109193920491019138611609565b602091939204910191386115f7565b6040935081049150386115de565b61016890604051602081019182526020815261171381611287565b5190200690565b60ff90604051602081019182526020815261171381611287565b603290604051602081019182526020815261174e81611287565b51902006603281018091116113cc5790565b603c90604051602081019182526020815261177a81611287565b51902006601e81018091116113cc5790565b606490604051602081019182526020815261171381611287565b60019060405160208101918252602081526117c081611287565b51902016600281018091116113cc5790565b604051906117df82611287565b60018252603160f81b6020830152565b61187b61195d60ea60405161180381611287565b6002815260208101612d3560f01b815261181b6117d2565b906040519586937f3c666553706563756c61724c69676874696e67206c69676874696e672d636f6c60208601527f6f723d22236666666666662220737572666163655363616c653d2200000000006040860152518092605b86019061117b565b82017f2220726573756c743d227234222073706563756c6172436f6e7374616e743d22605b8201526118b7825180936020607b8501910161117b565b017f222073706563756c61724578706f6e656e743d22312220696e3d227232223e00607b8201527f3c666544697374616e744c6967687420656c65766174696f6e3d22302220617a609a8201526934b6baba341e9118111f60b11b60ba820152701e17b332a234b9ba30b73a2634b3b43a1f60791b60c4820152741e17b332a9b832b1bab630b92634b3b43a34b7339f60591b60d58201520360ca8101845201826112bd565b90565b6040519061196d82611256565b60006040838281528260208201520152565b919091600083820193841291129080158216911516176113cc57565b818102929160008212600160ff1b8214166113cc5781840514901517156113cc57565b818103929160001380158285131691841216176113cc57565b6119df611960565b5060008151906127109182810290808204841490151715611b2b57610168900490602084015193606485029480860460641490151715611b2b576040015193606485029480860460641490151715611b2b5780611a845750505081825b60ff9184830294838604036113cc5781830291838304036113cc57808302928304036113cc5782908160405195611a7287611256565b04855204602084015204604082015290565b919391611388831215611b3f57808401908112600116611b2b57611aa984918461199b565b05915b8060011b906002820503611b2b5782611ac4916119be565b90610d0590818601918212818712908015821691151617611b175750611aeb908383611b65565b93611af7818484611b65565b92610d041982019182136001166113cc57611b1192611b65565b90611a3c565b634e487b7160e01b81526011600452602490fd5b634e487b7160e01b82526011600452602482fd5b8084611b58611b51611b5f948761197f565b928661199b565b05906119be565b91611aac565b9092919260009384811280611c6b575b5061271091828213611c54575b6106828212611c1d576113888212611c1657611a0a90818312611ba85750929450505050565b84611bb2916119be565b90868382039312818412811691841390151617611c025790611bd39161199b565b059081600602916006830503611bee5761195d92935061197f565b634e487b7160e01b84526011600452602484fd5b634e487b7160e01b86526011600452602486fd5b9450505050565b83611c2a919692966119be565b90600682029180830560061490151715611b17575061195d9394611c4d9161199b565b059061197f565b9061270f198101908113600116611c025790611b82565b6127108092019182128015821691151617611c865738611b75565b634e487b7160e01b85526011600452602485fd5b60ff8160081c9116600a810290808204600a14901517156113cc5760081c906005821015611d50575b600a8214611d2b575b6021611ce3611cdd61195d936115b5565b936115b5565b926040519381611cfd86935180926020808701910161117b565b8201601760f91b6020820152611d1c825180936020878501910161117b565b010360018101845201826112bd565b90506000906001810180911115611ccc57634e487b7160e01b82526011600452602482fd5b90600181018091116113cc5790611cc3565b60001981146113cc5760010190565b606051811015611d845760051b60800190565b634e487b7160e01b600052603260045260246000fd5b805115611d845760200190565b8051821015611d845760209160051b010190565b60216115b3919392936040519481611ddd87935180926020808701910161117b565b8201611df2825180936020808501910161117b565b01600160fd1b60208201520360018101855201836112bd565b906115b3602460405184611e2982965180926020808601910161117b565b8101631110179f60e11b60208201520360048101855201836112bd565b906040805192611e5584611256565b602f8452602092838501937f3c6665436f6d706f6e656e745472616e736665722069643d2270616c6574746585526e11103932b9bab63a1e913931ba111f60891b84870152835192611ea684611256565b602384527f3c666546756e635220747970653d227461626c6522207461626c6556616c75658285015262399e9160e91b938486820152928551611ee881611256565b602381527f3c666546756e634720747970653d227461626c6522207461626c6556616c756584820152858782015294865190611f2382611256565b602382527f3c666546756e634220747970653d227461626c6522207461626c6556616c75658583015287820152976000985b83518a1015611fb057611fa1611fa791611f868a611f99611f8c8f611f7a908b611da7565b519b611f868d51611c9a565b90611dbb565b9b611f868b8d0151611c9a565b990151611c9a565b99611d62565b98959495611f55565b909461195d97929950751e17b332a1b7b6b837b732b73a2a3930b739b332b91f60511b93509561200298611ff1611feb611feb60369a611e0b565b93611e0b565b9351998a97518092888a019061117b565b86016120168251809388808501910161117b565b016120298251809387808501910161117b565b0161203c8251809386808501910161117b565b01918201520360168101845201826112bd565b906003811015611d845760051b0190565b604080519160c083018381106001600160401b038211176112715782526005835260005b60a0811061220d57508151906020820191818352602081526120a581611287565b61016892839151902006906001928382018083116113cc576120c690611734565b600283018084116113cc576120da90611734565b9086516120e681611256565b858152602081019582875288820198848a5280519161210483611256565b8252602082019384528101938452895180156113ec5785046000895b612133575b505050505050505050505090565b8b51811015612208578b6121508261214a876119d7565b92611da7565b5261215b818d611da7565b50866121688386516113bf565b0684528b5160001981019081116113cc5781146121e55761218981896113bf565b600381018091116113cc5761219d9061178c565b89526121a981896113bf565b60048082018092116121d05750906121c36121ca9261178c565b8c52611d62565b89612120565b601190634e487b7160e01b6000525260246000fd5b82519060b482018092116113cc57876121ca9206855285518a5286518c52611d62565b612125565b602090612218611960565b82828701015201612084565b6040519061223182611287565b60038252621a1cdb60ea1b6020830152565b909261229560009493859460405193849261227760208501976304772b3360e11b89526080602487015260a486019061119e565b9260448501526064840152608483015203601f1981018352826112bd565b51906a636f6e736f6c652e6c6f675afa50565b6122b0611960565b506000908180805b8351851015612311576123036122f66122e0612309936122d88989611da7565b5151906113bf565b9360206122ed8989611da7565b510151906113bf565b9360406122ed8888611da7565b94611d62565b9391906122b8565b61233892919450612327612330918551906113e2565b948451906113e2565b9251906113e2565b906040519261234684611256565b83526020830152604082015290565b61235d611960565b50805160ff908103918183116113cc5760208101518203908282116113cc576040015182039182116113cc576040519261234684611256565b6040908151605a602091828101908482528381526123b381611287565b519020066060926001908181018091116113cc576123d0906117a6565b60009160001982018281119291905b8285106124b55750505050509261195d9260789261248c6124207f6e74313432373722206772616469656e745472616e73666f726d3d22726f7461976115b5565b84519788957f3c6c696e6561724772616469656e742069643d226c696e65617247726164696585880152860152620e8ca560eb1b606086015261246c815180928560638901910161117b565b840191631491101f60e11b6063840152835193849160678501910161117b565b01701e17b634b732b0b923b930b234b2b73a1f60791b60678201520360588101845201826112bd565b90919293966064908189029189830414891517156113cc57856113cc57610aa38a6124e38561259d956113e2565b928b87166125a6578a61251183516124fa81611287565b6005815264776869746560d81b83820152956115b5565b9483519583612529889551809286808901910161117b565b84016d1e39ba37b81037b33339b2ba1e9160911b8482015281519061255682602e9487868501910161117b565b01906e12911039ba37b816b1b7b637b91e9160891b9082015261258382518093603d95868501910161117b565b6211179f60e91b910191820152038a8101845201826112bd565b939291906123df565b8a61251183516125b581611287565b6005815264626c61636b60d81b83820152956115b5565b604051906125d982611287565b600c8252602080918184016b6672616374616c4e6f69736560a01b81526125ff82611760565b60648110612c8857610193612613916115b5565b905b61261e836117a6565b612627906115b5565b9061263184611734565b61263a906115b5565b61264385612060565b9161264d836122a8565b9361265784611e46565b9161266185612daf565b9761266b90612396565b9a6126746117ef565b9661267e90612355565b61268790612d07565b9561269190611d9a565b5161269b90612d07565b978a6040519d8e9d8e017f3c7376672077696474683d2235303022206865696768743d223530302220766990528d604081017f6577426f783d223020302035303020353030222076657273696f6e3d22312e3190526060017f2220786d6c6e733d22687474703a2f2f7777772e77332e6f72672f323030302f90528d6439bb33911f60d91b6080820152608501651e3232b3399f60d11b90528d815192608b8492019201916127499261117b565b7f3c66696c7465722069643d22637261636b65642d6c6176612220636f6c6f722d608b918e01918201527f696e746572706f6c6174696f6e2d66696c746572733d2273524742223e00000060ab8201527f3c666554757262756c656e636520626173654672657175656e63793d2200000060c88201528151916127d490839060e58401908f0161117b565b01906711103a3cb8329e9160c11b60e583015251918260ed83016127f79261117b565b016d1110373ab6a7b1ba30bb32b99e9160911b60ed820152815191828a60fb84019201916128249261117b565b7f2220726573756c743d2272312220696e3d22536f75726365477261706869632260fb92909101918201526210179f60e91b61011b8201527f3c6665446973706c6163656d656e744d617020726573756c743d22723522207861011e8201527f4368616e6e656c53656c6563746f723d22522220696e323d2272312220696e3d61013e8201527f2272312220794368616e6e656c53656c6563746f723d224722207363616c653d61015e820152601160f91b61017e820152825161017f939091906128f6908390868401908c0161117b565b631110179f60e11b91019283018190527f3c6665436f6d706f7369746520726573756c743d22723222206f70657261746f6101838401527f723d22696e2220696e3d22536f75726365477261706869632220696e323d22726101a3840152641a9110179f60d91b6101c38401528451909485936101c8929161297f908390858401908d0161117b565b7f3c6665436f6d706f73697465206b313d22302e3522206b333d223122206b323d9101918201527f222d302e352220696e323d2272322220696e3d22723422206f70657261746f726101e88201527f3d2261726974686d657469632220726573756c743d2272393122206b343d223061020882015261022881018390527f3c6665436f6d706f7369746520696e3d227239312220726573756c743d22723461022c8201527f22206f70657261746f723d2261726974686d6574696322206b323d223022206b61024c8201527f333d22342220696e323d2272393122206b313d223022206b343d222d3022202f61026c820152601f60f91b61028c820152815161028d92909190612a96908390858401908c0161117b565b019081017f3c6665466c6f6f6420726573756c743d22726573756c74312220666c6f6f642d90526631b7b637b91e9160c91b6102ad8201528251906102b4938289868401920191612ae69261117b565b01918201527f3c6665426c656e64206d6f64653d226e6f726d616c2220696e3d2272637422206102b88201526f34b7191e913932b9bab63a189110179f60811b6102d8820152681e17b334b63a32b91f60b91b6102e8820152661e17b232b3399f60c91b6102f18201527f3c726563742077696474683d2235303022206865696768743d223530302220666102f88201527f696c6c3d2275726c28236c696e6561724772616469656e7431343237372922206103188201527f66696c7465723d2275726c2823637261636b65642d6c6176612922207374796c6103388201527f653d2266696c7465723a75726c2823637261636b65642d6c6176612922202f3e6103588201527f3c726563742077696474683d22353022206865696768743d2235302220783d226103788201526e1811103c9e911811103334b6361e9160891b61039882015282516103a793909190612c4690839086840190890161117b565b0191820152815191826103ab94858401920191612c629261117b565b01908101651e17b9bb339f60d11b905203610391810182526103b10161195d90826112bd565b600a8110612cc657612c99906115b5565b612cc060236040518093620302e360ec1b888301526101ee815180928a868601910161117b565b90612615565b612ccf906115b5565b612cc060246040518093630302e30360e41b88830152612cf7815180928a868601910161117b565b81010360048101845201826112bd565b61195d6029612d1683516115b5565b612d306040612d2860208701516115b5565b9501516115b5565b604051948592630e4cec4560e31b6020850152612d5781518092602060248801910161117b565b83019061016160f51b91826024820152612d7b82518093602060268501910161117b565b01906026820152612d9682518093602060288501910161117b565b01602960f81b60288201520360098101845201826112bd565b906040805192612dbe846112a2565b60009384815284905b8251821015611c16576032808302838104821484151715612eac576052612ea69392612df5610c11936115b5565b93612e09612e03888a611da7565b51612d07565b948951958287935192612e608d85612e2a602097889687808c01910161117b565b8701927f3c726563742077696474683d22353022206865696768743d2235302220783d228585015280519485928501910161117b565b016d11103c9e911811103334b6361e9160911b8c820152612e8b82518093604e95868501910161117b565b631110179f60e11b91019182015203908101845201826112bd565b90612dc7565b634e487b7160e01b88526011600452602488fdfea26469706673582212202d479f245ad6a2603738ae309197e14bd166f5d9dc0d038abf915d3ab396303464736f6c63430008110033",
    "linkReferences": {}
  },
  "methodIdentifiers": {
    "averageColors((uint256,uint256,uint256)[])": "d284f2f7",
    "averageWithWhite((uint256,uint256,uint256))": "919f9650",
    "complementaryColor((uint256,uint256,uint256))": "7486c451",
    "constructImageURI(uint256)": "a929e684",
    "createRectsForColors((uint256,uint256,uint256)[])": "e73eeb40",
    "divideAndFormat(uint256,uint256,uint256)": "167feb30",
    "generateAnalogousColorPalette(uint256)": "ed5d8463",
    "generateComponentTransfer(uint256)": "8df4db16",
    "generateComponentTransfer(uint256,(uint256,uint256,uint256)[])": "d5c68181",
    "generateFrequency(uint256,bool)": "ed7ca60e",
    "generateGradient(uint256)": "39b35fd7",
    "generateMonochromaticColorPalette(uint256)": "687524a8",
    "generateOctaves(uint256,bool,uint256)": "a71a0bfd",
    "generateRandomColorPalette(uint256)": "385f81b0",
    "generateSVG(uint256)": "6dcee4ca",
    "generateScale(uint256,bool,uint256)": "63d265a1",
    "generateSpecularLighting(uint256,bool)": "b7eb3f75",
    "generateTetradicAnalogousColorPalette(uint256)": "3664814d",
    "generateTetradicColorPalette(uint256)": "aa96a90a",
    "toColorRGB((uint256,uint256,uint256))": "f5773d26"
  },
  "id": 28
}