{
  "abi": [
    {
      "inputs": [
        {
          "internalType": "uint256",
          "name": "seed",
          "type": "uint256"
        }
      ],
      "name": "constructImageURI",
      "outputs": [
        {
          "internalType": "string",
          "name": "",
          "type": "string"
        }
      ],
      "stateMutability": "view",
      "type": "function"
    },
    {
      "inputs": [
        {
          "internalType": "uint256",
          "name": "input",
          "type": "uint256"
        },
        {
          "internalType": "uint256",
          "name": "divisor",
          "type": "uint256"
        },
        {
          "internalType": "uint256",
          "name": "decimalPlaces",
          "type": "uint256"
        }
      ],
      "name": "divideAndFormat",
      "outputs": [
        {
          "internalType": "string",
          "name": "",
          "type": "string"
        }
      ],
      "stateMutability": "view",
      "type": "function"
    },
    {
      "inputs": [
        {
          "internalType": "uint256",
          "name": "seed",
          "type": "uint256"
        }
      ],
      "name": "generateColorPalette",
      "outputs": [
        {
          "components": [
            {
              "internalType": "uint256",
              "name": "r",
              "type": "uint256"
            },
            {
              "internalType": "uint256",
              "name": "g",
              "type": "uint256"
            },
            {
              "internalType": "uint256",
              "name": "b",
              "type": "uint256"
            }
          ],
          "internalType": "struct Fossil.RGB[5]",
          "name": "",
          "type": "tuple[5]"
        }
      ],
      "stateMutability": "view",
      "type": "function"
    },
    {
      "inputs": [
        {
          "internalType": "uint256",
          "name": "tokenId",
          "type": "uint256"
        },
        {
          "components": [
            {
              "internalType": "uint256",
              "name": "r",
              "type": "uint256"
            },
            {
              "internalType": "uint256",
              "name": "g",
              "type": "uint256"
            },
            {
              "internalType": "uint256",
              "name": "b",
              "type": "uint256"
            }
          ],
          "internalType": "struct Fossil.RGB[5]",
          "name": "colors",
          "type": "tuple[5]"
        }
      ],
      "name": "generateComponentTransfer",
      "outputs": [
        {
          "internalType": "string",
          "name": "",
          "type": "string"
        }
      ],
      "stateMutability": "view",
      "type": "function"
    },
    {
      "inputs": [
        {
          "internalType": "uint256",
          "name": "tokenId",
          "type": "uint256"
        },
        {
          "internalType": "bool",
          "name": "turbulenceType",
          "type": "bool"
        }
      ],
      "name": "generateFrequency",
      "outputs": [
        {
          "internalType": "uint256",
          "name": "",
          "type": "uint256"
        },
        {
          "internalType": "string",
          "name": "",
          "type": "string"
        }
      ],
      "stateMutability": "view",
      "type": "function"
    },
    {
      "inputs": [
        {
          "internalType": "uint256",
          "name": "tokenId",
          "type": "uint256"
        },
        {
          "internalType": "bool",
          "name": "isFractalNoise",
          "type": "bool"
        },
        {
          "internalType": "uint256",
          "name": "frequency",
          "type": "uint256"
        }
      ],
      "name": "generateOctaves",
      "outputs": [
        {
          "internalType": "string",
          "name": "",
          "type": "string"
        }
      ],
      "stateMutability": "view",
      "type": "function"
    },
    {
      "inputs": [
        {
          "internalType": "uint256",
          "name": "seed",
          "type": "uint256"
        }
      ],
      "name": "generateSVG",
      "outputs": [
        {
          "internalType": "string",
          "name": "",
          "type": "string"
        }
      ],
      "stateMutability": "view",
      "type": "function"
    },
    {
      "inputs": [
        {
          "internalType": "uint256",
          "name": "tokenId",
          "type": "uint256"
        },
        {
          "internalType": "bool",
          "name": "isFractalNoise",
          "type": "bool"
        },
        {
          "internalType": "uint256",
          "name": "frequency",
          "type": "uint256"
        }
      ],
      "name": "generateScale",
      "outputs": [
        {
          "internalType": "string",
          "name": "",
          "type": "string"
        }
      ],
      "stateMutability": "view",
      "type": "function"
    },
    {
      "inputs": [
        {
          "internalType": "uint256",
          "name": "tokenId",
          "type": "uint256"
        },
        {
          "internalType": "bool",
          "name": "isFractalNoise",
          "type": "bool"
        }
      ],
      "name": "generateSpecularLighting",
      "outputs": [
        {
          "internalType": "string",
          "name": "",
          "type": "string"
        }
      ],
      "stateMutability": "view",
      "type": "function"
    }
  ],
  "bytecode": {
    "object": "0x608060405234801561001057600080fd5b50611f15806100206000396000f3fe608060405234801561001057600080fd5b50600436106100935760003560e01c80636dcee4ca116100665780636dcee4ca14610107578063a71a0bfd1461011a578063a929e6841461012d578063b7eb3f7514610140578063ed7ca60e1461015357600080fd5b8063167feb301461009857806336341149146100c1578063547fe360146100e157806363d265a1146100f4575b600080fd5b6100ab6100a6366004610f37565b610174565b6040516100b89190610fb3565b60405180910390f35b6100d46100cf366004610fc6565b61020b565b6040516100b89190610fdf565b6100ab6100ef36600461108c565b6102be565b6100ab61010236600461113d565b6104a9565b6100ab610115366004610fc6565b61051d565b6100ab61012836600461113d565b610687565b6100ab61013b366004610fc6565b61070d565b6100ab61014e366004611172565b610785565b610166610161366004611172565b610872565b6040516100b892919061119e565b6060600061018284866111e3565b9050600061019085876111f7565b90506000856101a086600a6112ef565b6101aa90846112fb565b6101b491906111e3565b9050600581106101cc576101c9816001611312565b90505b6101d583610932565b6101de82610932565b6040516020016101ef929190611341565b60405160208183030381529060405293505050505b9392505050565b610213610eee565b61021b610eee565b60005b60058110156102b757604051806060016040528061024a600060ff85896102459190611312565b6109c5565b815260200161026b600060ff610260868a611312565b610245906001611312565b815260200161028c600060ff610281868a611312565b610245906002611312565b90528282600581106102a0576102a061137d565b6020020152806102af81611393565b91505061021e565b5092915050565b60606000604051806060016040528060228152602001611df56022913990506000604051806060016040528060238152602001611e9a6023913990506000604051806060016040528060238152602001611ebd6023913990506000604051806060016040528060238152602001611e1760239139905060005b600581101561040e5760008782600581106103545761035461137d565b602002015190508461036e82600001516101006002610174565b60405160200161037f9291906113ac565b6040516020818303038152906040529450836103a382602001516101006002610174565b6040516020016103b49291906113ac565b6040516020818303038152906040529350826103d882604001516101006002610174565b6040516020016103e99291906113ac565b604051602081830303815290604052925050808061040690611393565b915050610337565b508260405160200161042091906113e7565b60405160208183030381529060405292508160405160200161044291906113e7565b60405160208183030381529060405291508060405160200161046491906113e7565b60405160208183030381529060405290508383838360405160200161048c949392919061140f565b60408051601f198184030181529190529450505050505b92915050565b606082156105055760968211156104d6576104cf6104ca60006019876109c5565b610932565b9050610204565b60328211156104ef576104cf6104ca6019604b876109c5565b8115610505576104cf6104ca60326064876109c5565b6105156104ca60006050876109c5565b949350505050565b6060600061052a83610ab9565b905061055d6040518060400160405280600f81526020016e3130b1b5b3b937bab73221b7b637b960891b81525082610afa565b60408051808201909152600c81526b6672616374616c4e6f69736560a01b60208201526001906000806105908785610872565b9150915060006105a1888685610687565b905060006105b08987866104a9565b905060006105bd8a61020b565b905060006105cb8b836102be565b9050610602604051806040016040528060138152602001723332a1b7b6b837b732b73a2a3930b739b332b960691b81525082610afa565b848785856106108f8d610785565b856106228860005b6020020151610b43565b61062d896001610618565b6106388a6002610618565b6106438b6003610618565b61064e8c6004610618565b6040516020016106689b9a99989796959493929190611487565b6040516020818303038152906040529950505050505050505050919050565b6060600083156106f457606483106106a1575060016106e3565b603283106106bd576106b660026005876109c5565b90506106e3565b60148311156106d3576106b660036005876109c5565b6106e060046008876109c5565b90505b6106ec81610932565b915050610204565b6107046104ca60026005886109c5565b95945050505050565b6060600061071a8361051d565b905061072581610b7e565b600061073082610bc4565b90506000816040516020016107459190611aae565b60408051601f198184030181528282019091526015825274656e6420636f6e737472756374496d61676555524960581b6020830152915061051590610b7e565b606060006107996104ca60026004876109c5565b6040516020016107a99190611af3565b604051602081830303815290604052905060006107cc6104ca60006063886109c5565b6040516020016107dc9190611b1c565b60408051601f19818403018152828201909152600c82526b737572666163655363616c6560a01b602083015291506108149083610afa565b6108466040518060400160405280601081526020016f1cdc1958dd5b185c90dbdb9cdd185b9d60821b81525082610afa565b8181604051602001610859929190611b46565b6040516020818303038152906040529250505092915050565b60006060600083156108925761088b60146096876109c5565b90506108a2565b61089f6001603c876109c5565b90505b6060606482106108db576108b582610932565b6040516020016108c59190611c9c565b6040516020818303038152906040529050610927565b600a82106108fc576108ec82610932565b6040516020016108c59190611cb9565b61090582610932565b6040516020016109159190611ce4565b60405160208183030381529060405290505b909590945092505050565b6060600061093f83610d17565b600101905060008167ffffffffffffffff81111561095f5761095f61102a565b6040519080825280601f01601f191660200182016040528015610989576020820181803683370190505b5090508181016020015b600019016f181899199a1a9b1b9c1cb0b131b232b360811b600a86061a8153600a850494508461099357509392505050565b6000838311610a1b5760405162461bcd60e51b815260206004820152601c60248201527f6d6178206d7573742062652067726561746572207468616e206d696e0000000060448201526064015b60405180910390fd5b82600003610a6b5760405162461bcd60e51b815260206004820152601a60248201527f6d6178206d7573742062652067726561746572207468616e20300000000000006044820152606401610a12565b600082604051602001610a8091815260200190565b60408051601f198184030181529190528051602090910120905084610aa58186611d10565b610aaf90836111f7565b6107049190611312565b6060610ad4610acd600062ffffff856109c5565b6003610def565b604051602001610ae49190611d23565b6040516020818303038152906040529050919050565b610b3f8282604051602401610b10929190611d3f565b60408051601f198184030181529190526020810180516001600160e01b0316634b5c427760e01b179052610ecd565b5050565b6060610b528260000151610932565b610b5f8360200151610932565b610b6c8460400151610932565b604051602001610ae493929190611d64565b610bc181604051602401610b929190610fb3565b60408051601f198184030181529190526020810180516001600160e01b031663104c13eb60e21b179052610ecd565b50565b60608151600003610be357505060408051602081019091526000815290565b6000604051806060016040528060408152602001611e3a6040913990506000600384516002610c129190611312565b610c1c91906111e3565b610c279060046112fb565b67ffffffffffffffff811115610c3f57610c3f61102a565b6040519080825280601f01601f191660200182016040528015610c69576020820181803683370190505b509050600182016020820185865187015b80821015610cd5576003820191508151603f8160121c168501518453600184019350603f81600c1c168501518453600184019350603f8160061c168501518453600184019350603f8116850151845350600183019250610c7a565b5050600386510660018114610cf15760028114610d0457610d0c565b603d6001830353603d6002830353610d0c565b603d60018303535b509195945050505050565b60008072184f03e93ff9f4daa797ed6e38ed64bf6a1f0160401b8310610d565772184f03e93ff9f4daa797ed6e38ed64bf6a1f0160401b830492506040015b6d04ee2d6d415b85acef81000000008310610d82576d04ee2d6d415b85acef8100000000830492506020015b662386f26fc100008310610da057662386f26fc10000830492506010015b6305f5e1008310610db8576305f5e100830492506008015b6127108310610dcc57612710830492506004015b60648310610dde576064830492506002015b600a83106104a35760010192915050565b60606000610dfe8360026112fb565b67ffffffffffffffff811115610e1657610e1661102a565b6040519080825280601f01601f191660200182016040528015610e40576020820181803683370190505b5080519091505b8015610ec5576f181899199a1a9b1b9c1cb0b131b232b360811b85600f1660108110610e7557610e7561137d565b1a60f81b82610e85600184611d10565b81518110610e9557610e9561137d565b60200101906001600160f81b031916908160001a90535060049490941c9380610ebd81611ddd565b915050610e47565b509392505050565b80516a636f6e736f6c652e6c6f67602083016000808483855afa5050505050565b6040518060a001604052806005905b610f2160405180606001604052806000815260200160008152602001600081525090565b815260200190600190039081610efd5790505090565b600080600060608486031215610f4c57600080fd5b505081359360208301359350604090920135919050565b60005b83811015610f7e578181015183820152602001610f66565b50506000910152565b60008151808452610f9f816020860160208601610f63565b601f01601f19169290920160200192915050565b6020815260006102046020830184610f87565b600060208284031215610fd857600080fd5b5035919050565b6101e08101818360005b600581101561102157815180518452602080820151818601526040918201519185019190915260609093019290910190600101610fe9565b50505092915050565b634e487b7160e01b600052604160045260246000fd5b60405160a0810167ffffffffffffffff811182821017156110635761106361102a565b60405290565b6040516060810167ffffffffffffffff811182821017156110635761106361102a565b6000806102008084860312156110a157600080fd5b83359250602085603f8601126110b657600080fd5b6110be611040565b9185019180878411156110d057600080fd5b8287015b84811015611119576060818a0312156110ed5760008081fd5b6110f5611069565b813581528482013585820152604080830135908201528352918301916060016110d4565b50809450505050509250929050565b8035801515811461113857600080fd5b919050565b60008060006060848603121561115257600080fd5b8335925061116260208501611128565b9150604084013590509250925092565b6000806040838503121561118557600080fd5b8235915061119560208401611128565b90509250929050565b8281526040602082015260006105156040830184610f87565b634e487b7160e01b600052601260045260246000fd5b634e487b7160e01b600052601160045260246000fd5b6000826111f2576111f26111b7565b500490565b600082611206576112066111b7565b500690565b600181815b8085111561124657816000190482111561122c5761122c6111cd565b8085161561123957918102915b93841c9390800290611210565b509250929050565b60008261125d575060016104a3565b8161126a575060006104a3565b8160018114611280576002811461128a576112a6565b60019150506104a3565b60ff84111561129b5761129b6111cd565b50506001821b6104a3565b5060208310610133831016604e8410600b84101617156112c9575081810a6104a3565b6112d3838361120b565b80600019048211156112e7576112e76111cd565b029392505050565b6000610204838361124e565b80820281158282048414176104a3576104a36111cd565b808201808211156104a3576104a36111cd565b60008151611337818560208601610f63565b9290920192915050565b60008351611353818460208801610f63565b601760f91b9083019081528351611371816001840160208801610f63565b01600101949350505050565b634e487b7160e01b600052603260045260246000fd5b6000600182016113a5576113a56111cd565b5060010190565b600083516113be818460208801610f63565b8351908301906113d2818360208801610f63565b600160fd1b9101908152600101949350505050565b600082516113f9818460208701610f63565b631110179f60e11b920191825250600401919050565b60008551611421818460208a01610f63565b855190830190611435818360208a01610f63565b8551910190611448818360208901610f63565b845191019061145b818360208801610f63565b751e17b332a1b7b6b837b732b73a2a3930b739b332b91f60511b91019081526016019695505050505050565b7f3c7376672077696474683d2235303022206865696768743d223530302220766981527f6577426f783d223020302035303020353030222076657273696f6e3d22312e3160208201527f2220786d6c6e733d22687474703a2f2f7777772e77332e6f72672f323030302f60408201526439bb33911f60d91b6060820152600060658201651e3232b3399f60d11b81527f3c66696c7465722069643d22637261636b65642d6c6176612220636f6c6f722d60068201527f696e746572706f6c6174696f6e2d66696c746572733d2273524742223e00000060268201526115b8604382017f3c6665466c6f6f6420666c6f6f642d636f6c6f723d22726762283135322c313581527f322c313532292220726573756c743d2272313522202f3e000000000000000000602082015260370190565b7f3c666554757262756c656e636520626173654672657175656e63793d22000000815290506115ea601d82018f611325565b6711103a3cb8329e9160c11b81529050611607600882018e611325565b6d1110373ab6a7b1ba30bb32b99e9160911b8152905061162a600e82018d611325565b6f11103932b9bab63a1e9139189110179f60811b815290507f3c6665446973706c6163656d656e744d617020726573756c743d22723522207860108201527f4368616e6e656c53656c6563746f723d22522220696e323d2272312220696e3d60308201527f2272312220794368616e6e656c53656c6563746f723d224722207363616c653d6050820152601160f91b60708201526116cb607182018c611325565b631110179f60e11b81529050600461185e6118586117c861174061173a8587017f3c6665436f6d706f7369746520726573756c743d22723222206f70657261746f81527f723d22696e2220696e3d227231352220696e323d22723522202f3e00000000006020820152603b0190565b8f611325565b7f3c6665436f6d706f73697465206b313d22302e3338373430393222206b333d2281527f3122206b323d222d302e352220696e323d2272322220696e3d22723422206f7060208201527f657261746f723d2261726974686d657469632220726573756c743d227239312260408201526910359a1e91181110179f60b11b6060820152606a0190565b7f3c6665436f6d706f7369746520696e3d227239312220726573756c743d22723481527f22206f70657261746f723d2261726974686d6574696322206b323d223222206b60208201527f333d22332e393737393433342220696e323d2272393122206b313d223022206b6040820152711a1e911698171a9b98991b9b991a1110179f60711b606082015260720190565b8b611325565b681e17b334b63a32b91f60b91b8152661e17b232b3399f60c91b60098201527f3c726563742077696474683d2235303022206865696768743d2235303022206660108201527f696c7465723d2275726c2823637261636b65642d6c6176612922207374796c6560308201527f3d2266696c6c3a236334633462633b66696c6c2d6f7061636974793a313b666960508201527f6c7465723a75726c2823637261636b65642d6c6176612922202f3e00000000006070820152600080516020611e7a833981519152608b8201526e1811103c9e911811103334b6361e9160891b60ab820152915061195060ba83018a611325565b631110179f60e11b8152915061199b611995828401600080516020611e7a83398151915281526f1a9811103c9e911811103334b6361e9160811b602082015260300190565b89611325565b631110179f60e11b815291506119e76119e1828401600080516020611e7a83398151915281527018981811103c9e911811103334b6361e9160791b602082015260310190565b88611325565b631110179f60e11b81529150611a33611a2d828401600080516020611e7a833981519152815270189a9811103c9e911811103334b6361e9160791b602082015260310190565b87611325565b631110179f60e11b81529150611a7f611a79828401600080516020611e7a83398151915281527019181811103c9e911811103334b6361e9160791b602082015260310190565b86611325565b631110179f60e11b81529150651e17b9bb339f60d11b8282015250600a019d9c50505050505050505050505050565b7f646174613a696d6167652f7376672b786d6c3b6261736536342c000000000000815260008251611ae681601a850160208701610f63565b91909101601a0192915050565b602d60f81b815260008251611b0f816001850160208701610f63565b9190910160010192915050565b61189760f11b815260008251611b39816002850160208701610f63565b9190910160020192915050565b7f3c666553706563756c61724c69676874696e67206c69676874696e672d636f6c81527f6f723d22236666666666662220737572666163655363616c653d220000000000602082015260008351611ba481603b850160208801610f63565b7f2220726573756c743d227234222073706563756c6172436f6e7374616e743d22603b918401918201528351611be181605b840160208801610f63565b7f222073706563756c61724578706f6e656e743d2231352e313937353334353622605b9290910191820152681034b71e913919111f60b91b607b8201527f3c666544697374616e744c6967687420656c65766174696f6e3d22363022206160848201526b3d34b6baba341e911b18111f60a11b60a4820152701e17b332a234b9ba30b73a2634b3b43a1f60791b60b0820152741e17b332a9b832b1bab630b92634b3b43a34b7339f60591b60c182015260d601949350505050565b61181760f11b815260008251611b39816002850160208701610f63565b620302e360ec1b815260008251611cd7816003850160208701610f63565b9190910160030192915050565b630302e30360e41b815260008251611d03816004850160208701610f63565b9190910160040192915050565b818103818111156104a3576104a36111cd565b602360f81b815260008251611b0f816001850160208701610f63565b604081526000611d526040830185610f87565b82810360208401526107048185610f87565b630e4cec4560e31b815260008451611d83816004850160208901610f63565b808301905061016160f51b8060048301528551611da7816006850160208a01610f63565b60069201918201528351611dc2816008840160208801610f63565b602960f81b6008929091019182015260090195945050505050565b600081611dec57611dec6111cd565b50600019019056fe3c6665436f6d706f6e656e745472616e736665722069643d2270616c65747465223e3c666546756e634220747970653d227461626c6522207461626c6556616c7565733d224142434445464748494a4b4c4d4e4f505152535455565758595a6162636465666768696a6b6c6d6e6f707172737475767778797a303132333435363738392b2f3c726563742077696474683d22353022206865696768743d2235302220783d223c666546756e635220747970653d227461626c6522207461626c6556616c7565733d223c666546756e634720747970653d227461626c6522207461626c6556616c7565733d22a26469706673582212207826f098ce7b1a7ca87237fb9e932f5b7a98a6f342a0c4f8bcdd2e60be4fcb5564736f6c63430008110033",
    "linkReferences": {}
  },
  "methodIdentifiers": {
    "constructImageURI(uint256)": "a929e684",
    "divideAndFormat(uint256,uint256,uint256)": "167feb30",
    "generateColorPalette(uint256)": "36341149",
    "generateComponentTransfer(uint256,(uint256,uint256,uint256)[5])": "547fe360",
    "generateFrequency(uint256,bool)": "ed7ca60e",
    "generateOctaves(uint256,bool,uint256)": "a71a0bfd",
    "generateSVG(uint256)": "6dcee4ca",
    "generateScale(uint256,bool,uint256)": "63d265a1",
    "generateSpecularLighting(uint256,bool)": "b7eb3f75"
  },
  "id": 28
}