{
  "abi": [
    {
      "inputs": [
        {
          "components": [
            {
              "internalType": "uint256",
              "name": "r",
              "type": "uint256"
            },
            {
              "internalType": "uint256",
              "name": "g",
              "type": "uint256"
            },
            {
              "internalType": "uint256",
              "name": "b",
              "type": "uint256"
            }
          ],
          "internalType": "struct Fossil.RGB[]",
          "name": "colors",
          "type": "tuple[]"
        }
      ],
      "name": "averageColors",
      "outputs": [
        {
          "components": [
            {
              "internalType": "uint256",
              "name": "r",
              "type": "uint256"
            },
            {
              "internalType": "uint256",
              "name": "g",
              "type": "uint256"
            },
            {
              "internalType": "uint256",
              "name": "b",
              "type": "uint256"
            }
          ],
          "internalType": "struct Fossil.RGB",
          "name": "",
          "type": "tuple"
        }
      ],
      "stateMutability": "pure",
      "type": "function"
    },
    {
      "inputs": [
        {
          "components": [
            {
              "internalType": "uint256",
              "name": "r",
              "type": "uint256"
            },
            {
              "internalType": "uint256",
              "name": "g",
              "type": "uint256"
            },
            {
              "internalType": "uint256",
              "name": "b",
              "type": "uint256"
            }
          ],
          "internalType": "struct Fossil.RGB",
          "name": "color",
          "type": "tuple"
        }
      ],
      "name": "averageWithWhite",
      "outputs": [
        {
          "components": [
            {
              "internalType": "uint256",
              "name": "r",
              "type": "uint256"
            },
            {
              "internalType": "uint256",
              "name": "g",
              "type": "uint256"
            },
            {
              "internalType": "uint256",
              "name": "b",
              "type": "uint256"
            }
          ],
          "internalType": "struct Fossil.RGB",
          "name": "",
          "type": "tuple"
        }
      ],
      "stateMutability": "pure",
      "type": "function"
    },
    {
      "inputs": [
        {
          "components": [
            {
              "internalType": "uint256",
              "name": "r",
              "type": "uint256"
            },
            {
              "internalType": "uint256",
              "name": "g",
              "type": "uint256"
            },
            {
              "internalType": "uint256",
              "name": "b",
              "type": "uint256"
            }
          ],
          "internalType": "struct Fossil.RGB",
          "name": "color",
          "type": "tuple"
        }
      ],
      "name": "complementaryColor",
      "outputs": [
        {
          "components": [
            {
              "internalType": "uint256",
              "name": "r",
              "type": "uint256"
            },
            {
              "internalType": "uint256",
              "name": "g",
              "type": "uint256"
            },
            {
              "internalType": "uint256",
              "name": "b",
              "type": "uint256"
            }
          ],
          "internalType": "struct Fossil.RGB",
          "name": "",
          "type": "tuple"
        }
      ],
      "stateMutability": "pure",
      "type": "function"
    },
    {
      "inputs": [
        {
          "internalType": "uint256",
          "name": "seed",
          "type": "uint256"
        }
      ],
      "name": "constructImageURI",
      "outputs": [
        {
          "internalType": "string",
          "name": "",
          "type": "string"
        }
      ],
      "stateMutability": "view",
      "type": "function"
    },
    {
      "inputs": [
        {
          "components": [
            {
              "internalType": "uint256",
              "name": "r",
              "type": "uint256"
            },
            {
              "internalType": "uint256",
              "name": "g",
              "type": "uint256"
            },
            {
              "internalType": "uint256",
              "name": "b",
              "type": "uint256"
            }
          ],
          "internalType": "struct Fossil.RGB[]",
          "name": "colors",
          "type": "tuple[]"
        }
      ],
      "name": "createRectsForColors",
      "outputs": [
        {
          "internalType": "string",
          "name": "",
          "type": "string"
        }
      ],
      "stateMutability": "pure",
      "type": "function"
    },
    {
      "inputs": [
        {
          "internalType": "uint256",
          "name": "input",
          "type": "uint256"
        },
        {
          "internalType": "uint256",
          "name": "divisor",
          "type": "uint256"
        },
        {
          "internalType": "uint256",
          "name": "decimalPlaces",
          "type": "uint256"
        }
      ],
      "name": "divideAndFormat",
      "outputs": [
        {
          "internalType": "string",
          "name": "",
          "type": "string"
        }
      ],
      "stateMutability": "view",
      "type": "function"
    },
    {
      "inputs": [
        {
          "internalType": "uint256",
          "name": "seed",
          "type": "uint256"
        }
      ],
      "name": "generateAnalogousColorPalette",
      "outputs": [
        {
          "components": [
            {
              "internalType": "uint256",
              "name": "r",
              "type": "uint256"
            },
            {
              "internalType": "uint256",
              "name": "g",
              "type": "uint256"
            },
            {
              "internalType": "uint256",
              "name": "b",
              "type": "uint256"
            }
          ],
          "internalType": "struct Fossil.RGB[]",
          "name": "",
          "type": "tuple[]"
        }
      ],
      "stateMutability": "view",
      "type": "function"
    },
    {
      "inputs": [
        {
          "internalType": "uint256",
          "name": "tokenId",
          "type": "uint256"
        }
      ],
      "name": "generateComponentTransfer",
      "outputs": [
        {
          "internalType": "string",
          "name": "",
          "type": "string"
        }
      ],
      "stateMutability": "view",
      "type": "function"
    },
    {
      "inputs": [
        {
          "internalType": "uint256",
          "name": "tokenId",
          "type": "uint256"
        },
        {
          "components": [
            {
              "internalType": "uint256",
              "name": "r",
              "type": "uint256"
            },
            {
              "internalType": "uint256",
              "name": "g",
              "type": "uint256"
            },
            {
              "internalType": "uint256",
              "name": "b",
              "type": "uint256"
            }
          ],
          "internalType": "struct Fossil.RGB[]",
          "name": "colors",
          "type": "tuple[]"
        }
      ],
      "name": "generateComponentTransfer",
      "outputs": [
        {
          "internalType": "string",
          "name": "",
          "type": "string"
        }
      ],
      "stateMutability": "view",
      "type": "function"
    },
    {
      "inputs": [
        {
          "internalType": "uint256",
          "name": "tokenId",
          "type": "uint256"
        },
        {
          "internalType": "bool",
          "name": "isFractalNoise",
          "type": "bool"
        }
      ],
      "name": "generateFrequency",
      "outputs": [
        {
          "internalType": "uint256",
          "name": "",
          "type": "uint256"
        },
        {
          "internalType": "string",
          "name": "",
          "type": "string"
        }
      ],
      "stateMutability": "view",
      "type": "function"
    },
    {
      "inputs": [
        {
          "internalType": "uint256",
          "name": "seed",
          "type": "uint256"
        }
      ],
      "name": "generateMonochromaticColorPalette",
      "outputs": [
        {
          "components": [
            {
              "internalType": "uint256",
              "name": "r",
              "type": "uint256"
            },
            {
              "internalType": "uint256",
              "name": "g",
              "type": "uint256"
            },
            {
              "internalType": "uint256",
              "name": "b",
              "type": "uint256"
            }
          ],
          "internalType": "struct Fossil.RGB[]",
          "name": "",
          "type": "tuple[]"
        }
      ],
      "stateMutability": "view",
      "type": "function"
    },
    {
      "inputs": [
        {
          "internalType": "uint256",
          "name": "tokenId",
          "type": "uint256"
        },
        {
          "internalType": "bool",
          "name": "isFractalNoise",
          "type": "bool"
        },
        {
          "internalType": "uint256",
          "name": "frequency",
          "type": "uint256"
        }
      ],
      "name": "generateOctaves",
      "outputs": [
        {
          "internalType": "string",
          "name": "",
          "type": "string"
        }
      ],
      "stateMutability": "view",
      "type": "function"
    },
    {
      "inputs": [
        {
          "internalType": "uint256",
          "name": "seed",
          "type": "uint256"
        }
      ],
      "name": "generateRandomColorPalette",
      "outputs": [
        {
          "components": [
            {
              "internalType": "uint256",
              "name": "r",
              "type": "uint256"
            },
            {
              "internalType": "uint256",
              "name": "g",
              "type": "uint256"
            },
            {
              "internalType": "uint256",
              "name": "b",
              "type": "uint256"
            }
          ],
          "internalType": "struct Fossil.RGB[]",
          "name": "",
          "type": "tuple[]"
        }
      ],
      "stateMutability": "view",
      "type": "function"
    },
    {
      "inputs": [
        {
          "internalType": "uint256",
          "name": "seed",
          "type": "uint256"
        }
      ],
      "name": "generateSVG",
      "outputs": [
        {
          "internalType": "string",
          "name": "",
          "type": "string"
        }
      ],
      "stateMutability": "view",
      "type": "function"
    },
    {
      "inputs": [
        {
          "internalType": "uint256",
          "name": "tokenId",
          "type": "uint256"
        },
        {
          "internalType": "bool",
          "name": "isFractalNoise",
          "type": "bool"
        },
        {
          "internalType": "uint256",
          "name": "frequency",
          "type": "uint256"
        }
      ],
      "name": "generateScale",
      "outputs": [
        {
          "internalType": "string",
          "name": "",
          "type": "string"
        }
      ],
      "stateMutability": "view",
      "type": "function"
    },
    {
      "inputs": [
        {
          "internalType": "uint256",
          "name": "tokenId",
          "type": "uint256"
        },
        {
          "internalType": "bool",
          "name": "isFractalNoise",
          "type": "bool"
        }
      ],
      "name": "generateSpecularLighting",
      "outputs": [
        {
          "internalType": "string",
          "name": "",
          "type": "string"
        }
      ],
      "stateMutability": "view",
      "type": "function"
    },
    {
      "inputs": [
        {
          "internalType": "uint256",
          "name": "seed",
          "type": "uint256"
        }
      ],
      "name": "generateTetradicColorPalette",
      "outputs": [
        {
          "components": [
            {
              "internalType": "uint256",
              "name": "r",
              "type": "uint256"
            },
            {
              "internalType": "uint256",
              "name": "g",
              "type": "uint256"
            },
            {
              "internalType": "uint256",
              "name": "b",
              "type": "uint256"
            }
          ],
          "internalType": "struct Fossil.RGB[]",
          "name": "",
          "type": "tuple[]"
        }
      ],
      "stateMutability": "view",
      "type": "function"
    },
    {
      "inputs": [
        {
          "components": [
            {
              "internalType": "uint256",
              "name": "hue",
              "type": "uint256"
            },
            {
              "internalType": "uint256",
              "name": "saturation",
              "type": "uint256"
            },
            {
              "internalType": "uint256",
              "name": "lightness",
              "type": "uint256"
            }
          ],
          "internalType": "struct Fossil.HSL",
          "name": "color",
          "type": "tuple"
        }
      ],
      "name": "toColorRGB",
      "outputs": [
        {
          "components": [
            {
              "internalType": "uint256",
              "name": "r",
              "type": "uint256"
            },
            {
              "internalType": "uint256",
              "name": "g",
              "type": "uint256"
            },
            {
              "internalType": "uint256",
              "name": "b",
              "type": "uint256"
            }
          ],
          "internalType": "struct Fossil.RGB",
          "name": "",
          "type": "tuple"
        }
      ],
      "stateMutability": "pure",
      "type": "function"
    }
  ],
  "bytecode": {
    "object": "0x6080806040523461001657612a80908161001c8239f35b600080fdfe6040608081526004908136101561001557600080fd5b600091823560e01c908163167feb3014610ee8578163385f81b014610dd857816363d265a114610db2578163687524a814610d365781636dcee4ca14610d155781637486c45114610c635781638df4db1614610964578163919f965014610899578163a71a0bfd1461083f578163a929e68414610764578163aa96a90a1461040d578163b7eb3f75146103e6578163d284f2f7146103a6578163d5c6818114610368578163e73eeb4014610317578163ed5d846314610271578163ed7ca60e14610134575063f5773d26146100e957600080fd5b346101305760603660031901126101305760609061012e61011161010c366111af565b61187f565b915180926040809180518452602081015160208501520151910152565bf35b5080fd5b8391503461013057826003193601126101305780356101516110ec565b156102305761015f9061164e565b915b5060648210610198575061019461017f61017a83611488565b61144d565b83519384938452806020850152830190611066565b0390f35b600a82106101ea57506101946101ad82611488565b6101e5602385518093620302e360ec1b60208301526101d58151809260208686019101611043565b810103600381018452018261118d565b61017f565b610194906101e560246101fc85611488565b9286518094630302e30360e41b60208301526102218151809260208786019101611043565b8101039081018452018261118d565b602d908451602081019182526020815261024981611155565b51902006600f810180911161025e5791610161565b634e487b7160e01b835260118252602483fd5b8284346103145760203660031901126103145761028e8335611618565b9082519161029b83611123565b825260646020830152603283830152805b606051811015610308576102bf8361187f565b6102c882611c19565b526102d281611c19565b508251601e81018091116102f557906101686102f092068452611c0a565b6102ac565b634e487b7160e01b835260118652602483fd5b8351806101948161108b565b80fd5b8284346103145760203660031901126103145782359067ffffffffffffffff8211610314575061035061019493610355923691016111df565b612939565b9051918291602083526020830190611066565b8284346103145781600319360112610314576024359067ffffffffffffffff821161031457506103a161019493610355923691016111df565b611d1e565b8284346103145760203660031901126103145782359067ffffffffffffffff821161031457506101116103e160609461012e933691016111df565b612042565b505034610130578060031936011261013057610194906104046110ec565b50610355611697565b828434610314576020928360031936011261013057803561042d81611618565b94600182018083116107515761044290611633565b6002830180841161073e57858091885185810191825285815261046481611155565b519020601990069288519361047885611123565b8a85528186860152808a86015289519061049182611155565b60038252868201621a1cdb60ea1b90528a5191829188830194631e2b5e8360e21b865260249e8f85015260448401526064830152608482016080905260a482016104da91611066565b03601f19810182526104ec908261118d565b51905a6a636f6e736f6c652e6c6f6790fa506105078161187f565b61050f611c42565b52610518611c42565b50805190605a820180921161072c576003840180851161071a5761053b90611633565b85850180861161070857601990895186810191825286815261055c81611155565b519020066019810180911161070857906105919189519161057c83611123565b6101688096068352868301528982015261187f565b610599611c4f565b526105a2611c4f565b50805160b4810180911161071a5760058501808611610708576105c490611633565b600686018087116106f6576019908a518781019182528781526105e681611155565b5190200690603282018092116106f657906106199291858b519361060985611123565b068352868301528982015261187f565b610621611c5f565b5261062a611c5f565b50519461010e86018096116106e457600784018085116106d25761064d90611633565b93600881018091116106d257601990885185810191825285815261067081611155565b5190200694604b86018096116106c0575050856106a3969750519461069486611123565b0684528301528382015261187f565b6106ab611c6f565b526106b4611c6f565b5051806101948161108b565b634e487b7160e01b8252601190528790fd5b634e487b7160e01b8252601186528882fd5b634e487b7160e01b8152601185528790fd5b634e487b7160e01b8952601188528a89fd5b634e487b7160e01b8852601187528988fd5b634e487b7160e01b8752601186528887fd5b634e487b7160e01b8652601185528786fd5b634e487b7160e01b865260118552602486fd5b634e487b7160e01b855260118452602485fd5b90503461083b57602091826003193601126108375761078661019492356120ef565b938061079186611307565b956107e2603a855180997f646174613a696d6167652f7376672b786d6c3b6261736536342c0000000000008a8301526107d2815180928c8686019101611043565b810103601a81018a52018861118d565b8351610817816108098982019463104c13eb60e21b86528a60248401526044830190611066565b03601f19810183528261118d565b51906a636f6e736f6c652e6c6f675afa5051928284938452830190611066565b8380fd5b8280fd5b82843461031457600161085136611100565b50508351602081019182526020815261086981611155565b519020169260028401809411610886576101948361035586611488565b634e487b7160e01b825260119052602490fd5b838334610130576060366003190112610130576108b5366111af565b6108bd611808565b5081516108c981611123565b60ff815282602082019160ff8352019060ff825282519460ff86018096116109515760608661012e878761091488836109098a6020860151905190611292565b930151905190611292565b60011c9082519461092486611123565b60011c855260011c6020850152818401525180926040809180518452602081015160208501520151910152565b634e487b7160e01b815260118752602490fd5b838334610130576020928360031936011261083b5735916001918281519261098b84611123565b805b6060808210156109a25785820152870161098d565b505085879495825b60038110610b2457878761019488610b1560da855183868801519701519684519788927f3c6665436f6d706f6e656e745472616e7366657220726573756c743d2272657389850152653ab63a19111f60d11b878501527f3c666546756e635220747970653d22646973637265746522207461626c655661604685015265363ab2b99e9160d11b90816066860152610a4a815180928c606c89019101611043565b840192631110179f60e11b9384606c8201527f3c666546756e634720747970653d22646973637265746522207461626c6556616070820152826090820152610a9b825180938d609685019101611043565b01908360968301527f3c666546756e634220747970653d22646973637265746522207461626c655661609a83015260ba820152610ae1825180938b60c085019101611043565b019060c0820152751e17b332a1b7b6b837b732b73a2a3930b739b332b91f60511b60c48201520360ba81018752018561118d565b51928284938452830190611066565b8551610b2f81611155565b858152600360fc1b88820152845b60028110610ba1575090610b9c91610b816022895183610b678d8396519281849286019101611043565b810161203160f01b8d82015203600281018452018261118d565b610b8b828b611f27565b52610b96818a611f27565b50611c0a565b6109aa565b9295919798969490610c3b610c4191610bba8988611292565b8c8951818101928352818152610bcf81611155565b600a92839151902006918214600014610c4e57610c359150610bef61167a565b925b8a519381610c088693518092868087019101611043565b8201600160fd1b84820152610c27825180936021968785019101611043565b01038781018452018261118d565b97611c0a565b93611c0a565b9897919590949698610b3d565b610c5d61017a610c3593611488565b92610bf1565b83833461013057606036600319011261013057610c7f366111af565b610c87611808565b5080519060ff91820393828511610cef576020820151830391838311610d02578401518303928311610cef5760608561012e868686825194610cc886611123565b85526020850152818401525180926040809180518452602081015160208501520151910152565b634e487b7160e01b815260118652602490fd5b634e487b7160e01b825260118752602482fd5b828434610314576020366003190112610314575061035561019492356120ef565b838334610130576020928360031936011261083b5790610d57849235611f38565b908051928080850192818652845180945285019301945b828110610d7b5784840385f35b90919282606082610da36001948a516040809180518452602081015160208501520151910152565b01960191019492919094610d6e565b5050346101305761019490610355610dd3610dcc36611100565b50506115ec565b611488565b8284346103145760209081600319360112610314578335819282935b606051851015610edc57610e19610e1482610e0f8887611292565b611292565b6115cb565b610e238685611292565b60018101809111610ec957610e1483610e3b92611292565b610e458786611292565b60028101809111610eb657610e1484610e5d92611292565b90885192610e6a84611123565b83528483015287820152610e7d86611c19565b52610e8785611c19565b5060038101809111610ea357610e9d9094611c0a565b93610df4565b634e487b7160e01b845260118752602484fd5b634e487b7160e01b875260118a52602487fd5b634e487b7160e01b865260118952602486fd5b8551806101948161108b565b839150346101305760603660031901126101305780359060248035604435610f1082866112b5565b9482156110315782900690604d811161101f57600a0a9081810291818304149015171561100d5790610f41916112b5565b936005851015610fe9575b600a8514610fb7575b505050610f6d610f6761019492611488565b92611488565b92610b156021825180968651610f8b816020998a8087019101611043565b8201601760f91b88820152610fa8825180938a8785019101611043565b0103600181018752018561118d565b80919294509360018401809411610fd957505050610f6d610f67610194610f55565b634e487b7160e01b825260119052fd5b9360018101809111610ffb5793610f4c565b50634e487b7160e01b84526011825283fd5b634e487b7160e01b8652601184528286fd5b634e487b7160e01b8752601185528387fd5b634e487b7160e01b8752601285528387fd5b60005b8381106110565750506000910152565b8181015183820152602001611046565b9060209161107f81518092818552858086019101611043565b601f01601f1916010190565b6020908181018282526040606092835180935201926080926000905b8382106110b657505050505090565b90919293948382826110df6001948a516040809180518452602081015160208501520151910152565b01960194939201906110a7565b6024359081151582036110fb57565b600080fd5b60609060031901126110fb576004359060243580151581036110fb579060443590565b6060810190811067ffffffffffffffff82111761113f57604052565b634e487b7160e01b600052604160045260246000fd5b6040810190811067ffffffffffffffff82111761113f57604052565b6020810190811067ffffffffffffffff82111761113f57604052565b90601f8019910116810190811067ffffffffffffffff82111761113f57604052565b60609060031901126110fb57604051906111c882611123565b600435825260243560208301526044356040830152565b81601f820112156110fb5780359067ffffffffffffffff821161113f576040805193602091611213838660051b018761118d565b84865282860191836060809702860101948186116110fb578401925b858410611240575050505050505090565b86848303126110fb57848791845161125781611123565b863581528287013583820152858701358682015281520193019261122f565b67ffffffffffffffff811161113f57601f01601f191660200190565b9190820180921161129f57565b634e487b7160e01b600052601160045260246000fd5b81156112bf570490565b634e487b7160e01b600052601260045260246000fd5b906112df82611276565b6112ec604051918261118d565b82815280926112fd601f1991611276565b0190602036910137565b8051156114395760405161131a81611123565b604081527f4142434445464748494a4b4c4d4e4f505152535455565758595a61626364656660208201527f6768696a6b6c6d6e6f707172737475767778797a303132333435363738392b2f6040820152815160029283820180921161129f576003918290046001600160fe1b038116810361129f5761139c908594951b6112d5565b936020850193829183518401925b8381106113e857505050505106806001146113d5576002146113ca575090565b603d90600019015390565b50603d9081600019820153600119015390565b85600491979293949701918251600190603f9082828260121c16880101518453828282600c1c16880101518385015382828260061c16880101518885015316850101518782015301959291906113aa565b5060405161144681611171565b6000815290565b906114866022604051809461181760f11b60208301526114768151809260208686019101611043565b810103600281018552018361118d565b565b806000917a184f03e93ff9f4daa797ed6e38ed64bf6a1f010000000000000000808210156115bd575b506d04ee2d6d415b85acef8100000000808310156115ae575b50662386f26fc100008083101561159f575b506305f5e10080831015611590575b5061271080831015611581575b506064821015611571575b600a80921015611567575b60019081602161151f8287016112d5565b95860101905b611531575b5050505090565b600019019083906f181899199a1a9b1b9c1cb0b131b232b360811b8282061a83530491821561156257919082611525565b61152a565b916001019161150e565b9190606460029104910191611503565b600491939204910191386114f8565b600891939204910191386114eb565b601091939204910191386114dc565b602091939204910191386114ca565b6040935081049150386114b1565b60ff9060405160208101918252602081526115e581611155565b5190200690565b603290604051602081019182526020815261160681611155565b519020066032810180911161129f5790565b6101689060405160208101918252602081526115e581611155565b6116499060405190602082015260208152611155565b606490565b603c90604051602081019182526020815261166881611155565b51902006601e810180911161129f5790565b6040519061168782611155565b60018252603160f81b6020830152565b61172361180560ea6040516116ab81611155565b6002815260208101612d3560f01b81526116c361167a565b906040519586937f3c666553706563756c61724c69676874696e67206c69676874696e672d636f6c60208601527f6f723d22236666666666662220737572666163655363616c653d2200000000006040860152518092605b860190611043565b82017f2220726573756c743d227234222073706563756c6172436f6e7374616e743d22605b82015261175f825180936020607b85019101611043565b017f222073706563756c61724578706f6e656e743d22312220696e3d227232223e00607b8201527f3c666544697374616e744c6967687420656c65766174696f6e3d22302220617a609a8201526934b6baba341e9118111f60b11b60ba820152701e17b332a234b9ba30b73a2634b3b43a1f60791b60c4820152741e17b332a9b832b1bab630b92634b3b43a34b7339f60591b60d58201520360ca81018452018261118d565b90565b6040519061181582611123565b60006040838281528260208201520152565b9190916000838201938412911290801582169115161761129f57565b818102929160008212600160ff1b82141661129f57818405149015171561129f57565b8181039291600013801582851316918412161761129f57565b611887611808565b50600081519061271091828102908082048414901517156119d3576101689004906020840151936064850294808604606414901517156119d35760400151936064850294808604606414901517156119d3578061192c5750505081825b60ff91848302948386040361129f57818302918383040361129f578083029283040361129f578290816040519561191a87611123565b04855204602084015204604082015290565b9193916113888312156119e7578084019081126001166119d357611951849184611843565b05915b8060011b9060028205036119d3578261196c91611866565b90610d05908186019182128187129080158216911516176119bf5750611993908383611a0d565b9361199f818484611a0d565b92610d0419820191821360011661129f576119b992611a0d565b906118e4565b634e487b7160e01b81526011600452602490fd5b634e487b7160e01b82526011600452602482fd5b8084611a006119f9611a079487611827565b9286611843565b0590611866565b91611954565b9092919260009384811280611b13575b5061271091828213611afc575b6106828212611ac5576113888212611abe57611a0a90818312611a505750929450505050565b84611a5a91611866565b90868382039312818412811691841390151617611aaa5790611a7b91611843565b059081600602916006830503611a9657611805929350611827565b634e487b7160e01b84526011600452602484fd5b634e487b7160e01b86526011600452602486fd5b9450505050565b83611ad291969296611866565b906006820291808305600614901517156119bf57506118059394611af591611843565b0590611827565b9061270f198101908113600116611aaa5790611a2a565b6127108092019182128015821691151617611b2e5738611a1d565b634e487b7160e01b85526011600452602485fd5b60ff8160081c9116600a810290808204600a149015171561129f5760081c906005821015611bf8575b600a8214611bd3575b6021611b8b611b8561180593611488565b93611488565b926040519381611ba5869351809260208087019101611043565b8201601760f91b6020820152611bc48251809360208785019101611043565b0103600181018452018261118d565b90506000906001810180911115611b7457634e487b7160e01b82526011600452602482fd5b906001810180911161129f5790611b6b565b600019811461129f5760010190565b606051811015611c2c5760051b60800190565b634e487b7160e01b600052603260045260246000fd5b60605115611c2c57608090565b60605160011015611c2c5760a090565b60605160021015611c2c5760c090565b60605160031015611c2c5760e090565b8051821015611c2c5760209160051b010190565b6021611486919392936040519481611cb5879351809260208087019101611043565b8201611cca8251809360208085019101611043565b01600160fd1b602082015203600181018552018361118d565b90611486602460405184611d01829651809260208086019101611043565b8101631110179f60e11b602082015203600481018552018361118d565b906040805192611d2d84611123565b602f8452602092838501937f3c6665436f6d706f6e656e745472616e736665722069643d2270616c6574746585526e11103932b9bab63a1e913931ba111f60891b84870152835192611d7e84611123565b602384527f3c666546756e635220747970653d227461626c6522207461626c6556616c75658285015262399e9160e91b938486820152928551611dc081611123565b602381527f3c666546756e634720747970653d227461626c6522207461626c6556616c756584820152858782015294865190611dfb82611123565b602382527f3c666546756e634220747970653d227461626c6522207461626c6556616c75658583015287820152976000985b83518a1015611e8857611e79611e7f91611e5e8a611e71611e648f611e52908b611c7f565b519b611e5e8d51611b42565b90611c93565b9b611e5e8b8d0151611b42565b990151611b42565b99611c0a565b98959495611e2d565b909461180597929950751e17b332a1b7b6b837b732b73a2a3930b739b332b91f60511b935095611eda98611ec9611ec3611ec360369a611ce3565b93611ce3565b9351998a97518092888a0190611043565b8601611eee82518093888085019101611043565b01611f0182518093878085019101611043565b01611f1482518093868085019101611043565b019182015203601681018452018261118d565b906003811015611c2c5760051b0190565b60405190610100820182811067ffffffffffffffff82111761113f576040526007825260005b60e0811061202b5750611f7081611618565b9060019081810180911161129f576014906040516020810191825260208152611f9881611155565b5190200660405192611fa984611123565b83526064602084015260408301908152611fc28361187f565b845180156112bf5760640490600090845b611fe1575b50505050505090565b865182101561202657611ff48288611c7f565b52611fff8187611c7f565b5061200b828451611292565b835261201f6120198661187f565b91611c0a565b9084611fd3565b611fd8565b602090612036611808565b82828601015201611f5e565b61204a611808565b506000908180805b83518510156120ab5761209d61209061207a6120a3936120728989611c7f565b515190611292565b9360206120878989611c7f565b51015190611292565b9360406120878888611c7f565b94611c0a565b939190612052565b6120d2929194506120c16120ca918551906112b5565b948451906112b5565b9251906112b5565b90604051926120e084611123565b83526020830152604082015290565b6040908151916120fe83611155565b600c8352602090818401906b6672616374616c4e6f69736560a01b82526121248461164e565b606481106128145761017a61213891611488565b935b600182518581019083825286815261215181611155565b519020166002810180911161129f5761216990611488565b61217e612178610dd3846115ec565b92611f38565b61218781612042565b5061219181611d1e565b9161219b82612939565b956121a4611697565b92805115611c2c578801516121b890612891565b86517f3c7376672077696474683d2235303022206865696768743d22353030222076698a8201527f6577426f783d223020302035303020353030222076657273696f6e3d22312e31978101979097527f2220786d6c6e733d22687474703a2f2f7777772e77332e6f72672f323030302f60608801526439bb33911f60d91b6080880152651e3232b3399f60d11b60858801527f3c6c696e6561724772616469656e742069643d226c696e656172477261646965608b88015268373a189a191b9b911f60b91b60ab8801527f3c73746f702073746f702d636f6c6f723d22626c61636b22206f66667365743d60b4880152731118111034b21e9139ba37b8189a191b9991179f60611b60d48801527f3c73746f702073746f702d636f6c6f723d22776869746522206f66667365743d60e8880152731118911034b21e9139ba37b8189a191b9a91179f60611b610108880152701e17b634b732b0b923b930b234b2b73a1f60791b61011c8801527f3c66696c7465722069643d22637261636b65642d6c6176612220636f6c6f722d61012d8801527f696e746572706f6c6174696f6e2d66696c746572733d2273524742223e00000061014d8801527f3c666554757262756c656e636520626173654672657175656e63793d2200000061016a8801528951969a8b9a9197610187926123b6908290858f01908e01611043565b8b01916711103a3cb8329e9160c11b90830152519061018f92828483016123dc92611043565b01906d1110373ab6a7b1ba30bb32b99e9160911b9082015281519061019d92828a85840192019161240c92611043565b7f2220726573756c743d2272312220696e3d22536f7572636547726170686963229101918201526210179f60e91b6101bd8201527f3c6665446973706c6163656d656e744d617020726573756c743d2272352220786101c08201527f4368616e6e656c53656c6563746f723d22522220696e323d2272312220696e3d6101e08201527f2272312220794368616e6e656c53656c6563746f723d224722207363616c653d610200820152601160f91b6102208201528351610221949091906124da908390878401908b01611043565b631110179f60e11b91019384018190527f3c6665436f6d706f7369746520726573756c743d22723222206f70657261746f6102258501527f723d22696e2220696e3d22536f75726365477261706869632220696e323d2272610245850152641a9110179f60d91b6102658501528151909361026a92612560908390858401908b01611043565b7f3c6665436f6d706f73697465206b313d22302e3522206b333d223122206b323d9101918201527f222d302e352220696e323d2272322220696e3d22723422206f70657261746f7261028a8201527f3d2261726974686d657469632220726573756c743d2272393122206b343d22306102aa8201526102ca81018390527f3c6665436f6d706f7369746520696e3d227239312220726573756c743d2272346102ce8201527f22206f70657261746f723d2261726974686d6574696322206b323d223022206b6102ee8201527f333d22342220696e323d2272393122206b313d223022206b343d222d3022202f61030e820152601f60f91b61032e820152815161032f92909190612677908390858401908a01611043565b7f3c6665426c656e64206d6f64653d226e6f726d616c2220696e3d2272637422209101918201526f34b7191e913932b9bab63a189110179f60811b61034f820152681e17b334b63a32b91f60b91b61035f820152661e17b232b3399f60c91b6103688201527f3c726563742077696474683d2235303022206865696768743d2235303022206661036f8201527f696c6c3d2275726c28236c696e6561724772616469656e74313432373729222061038f8201527f66696c7465723d2275726c2823637261636b65642d6c6176612922207374796c6103af8201527f653d2266696c7465723a75726c2823637261636b65642d6c6176612922202f3e6103cf8201527f3c726563742077696474683d22353022206865696768743d2235302220783d226103ef8201526e1811103c9e911811103334b6361e9160891b61040f820152825161041e939091906127d2908390868401908901611043565b019182015281519182610422948584019201916127ee92611043565b01908101651e17b9bb339f60d11b9052036104088101825261042801611805908261118d565b600a81106128515761282590611488565b61284b602383518093620302e360ec1b888301526101d5815180928a8686019101611043565b9361213a565b61285a90611488565b61284b602483518093630302e30360e41b88830152612881815180928a8686019101611043565b810103600481018452018261118d565b61180560296128a08351611488565b6128ba60406128b26020870151611488565b950151611488565b604051948592630e4cec4560e31b60208501526128e1815180926020602488019101611043565b83019061016160f51b91826024820152612905825180936020602685019101611043565b01906026820152612920825180936020602885019101611043565b01602960f81b602882015203600981018452018261118d565b90604080519261294884611171565b60009384815284905b8251821015611abe576032808302838104821484151715612a36576052612a30939261297f61201993611488565b9361299361298d888a611c7f565b51612891565b9489519582879351926129ea8d856129b4602097889687808c019101611043565b8701927f3c726563742077696474683d22353022206865696768743d2235302220783d2285850152805194859285019101611043565b016d11103c9e911811103334b6361e9160911b8c820152612a1582518093604e958685019101611043565b631110179f60e11b910191820152039081018452018261118d565b90612951565b634e487b7160e01b88526011600452602488fdfea2646970667358221220c03ca58756de9963ab69cf72481732457375c41e0e087813e33dc543901e09fe64736f6c63430008110033",
    "linkReferences": {}
  },
  "methodIdentifiers": {
    "averageColors((uint256,uint256,uint256)[])": "d284f2f7",
    "averageWithWhite((uint256,uint256,uint256))": "919f9650",
    "complementaryColor((uint256,uint256,uint256))": "7486c451",
    "constructImageURI(uint256)": "a929e684",
    "createRectsForColors((uint256,uint256,uint256)[])": "e73eeb40",
    "divideAndFormat(uint256,uint256,uint256)": "167feb30",
    "generateAnalogousColorPalette(uint256)": "ed5d8463",
    "generateComponentTransfer(uint256)": "8df4db16",
    "generateComponentTransfer(uint256,(uint256,uint256,uint256)[])": "d5c68181",
    "generateFrequency(uint256,bool)": "ed7ca60e",
    "generateMonochromaticColorPalette(uint256)": "687524a8",
    "generateOctaves(uint256,bool,uint256)": "a71a0bfd",
    "generateRandomColorPalette(uint256)": "385f81b0",
    "generateSVG(uint256)": "6dcee4ca",
    "generateScale(uint256,bool,uint256)": "63d265a1",
    "generateSpecularLighting(uint256,bool)": "b7eb3f75",
    "generateTetradicColorPalette(uint256)": "aa96a90a",
    "toColorRGB((uint256,uint256,uint256))": "f5773d26"
  },
  "id": 28
}