{
  "abi": [
    {
      "inputs": [
        {
          "components": [
            {
              "internalType": "uint256",
              "name": "r",
              "type": "uint256"
            },
            {
              "internalType": "uint256",
              "name": "g",
              "type": "uint256"
            },
            {
              "internalType": "uint256",
              "name": "b",
              "type": "uint256"
            }
          ],
          "internalType": "struct Fossil.RGB[4]",
          "name": "colors",
          "type": "tuple[4]"
        }
      ],
      "name": "averageColors",
      "outputs": [
        {
          "components": [
            {
              "internalType": "uint256",
              "name": "r",
              "type": "uint256"
            },
            {
              "internalType": "uint256",
              "name": "g",
              "type": "uint256"
            },
            {
              "internalType": "uint256",
              "name": "b",
              "type": "uint256"
            }
          ],
          "internalType": "struct Fossil.RGB",
          "name": "",
          "type": "tuple"
        }
      ],
      "stateMutability": "pure",
      "type": "function"
    },
    {
      "inputs": [
        {
          "components": [
            {
              "internalType": "uint256",
              "name": "r",
              "type": "uint256"
            },
            {
              "internalType": "uint256",
              "name": "g",
              "type": "uint256"
            },
            {
              "internalType": "uint256",
              "name": "b",
              "type": "uint256"
            }
          ],
          "internalType": "struct Fossil.RGB",
          "name": "color",
          "type": "tuple"
        }
      ],
      "name": "averageWithWhite",
      "outputs": [
        {
          "components": [
            {
              "internalType": "uint256",
              "name": "r",
              "type": "uint256"
            },
            {
              "internalType": "uint256",
              "name": "g",
              "type": "uint256"
            },
            {
              "internalType": "uint256",
              "name": "b",
              "type": "uint256"
            }
          ],
          "internalType": "struct Fossil.RGB",
          "name": "",
          "type": "tuple"
        }
      ],
      "stateMutability": "pure",
      "type": "function"
    },
    {
      "inputs": [
        {
          "components": [
            {
              "internalType": "uint256",
              "name": "r",
              "type": "uint256"
            },
            {
              "internalType": "uint256",
              "name": "g",
              "type": "uint256"
            },
            {
              "internalType": "uint256",
              "name": "b",
              "type": "uint256"
            }
          ],
          "internalType": "struct Fossil.RGB",
          "name": "color",
          "type": "tuple"
        }
      ],
      "name": "complementaryColor",
      "outputs": [
        {
          "components": [
            {
              "internalType": "uint256",
              "name": "r",
              "type": "uint256"
            },
            {
              "internalType": "uint256",
              "name": "g",
              "type": "uint256"
            },
            {
              "internalType": "uint256",
              "name": "b",
              "type": "uint256"
            }
          ],
          "internalType": "struct Fossil.RGB",
          "name": "",
          "type": "tuple"
        }
      ],
      "stateMutability": "pure",
      "type": "function"
    },
    {
      "inputs": [
        {
          "internalType": "uint256",
          "name": "seed",
          "type": "uint256"
        }
      ],
      "name": "constructImageURI",
      "outputs": [
        {
          "internalType": "string",
          "name": "",
          "type": "string"
        }
      ],
      "stateMutability": "view",
      "type": "function"
    },
    {
      "inputs": [
        {
          "internalType": "uint256",
          "name": "input",
          "type": "uint256"
        },
        {
          "internalType": "uint256",
          "name": "divisor",
          "type": "uint256"
        },
        {
          "internalType": "uint256",
          "name": "decimalPlaces",
          "type": "uint256"
        }
      ],
      "name": "divideAndFormat",
      "outputs": [
        {
          "internalType": "string",
          "name": "",
          "type": "string"
        }
      ],
      "stateMutability": "view",
      "type": "function"
    },
    {
      "inputs": [
        {
          "internalType": "uint256",
          "name": "seed",
          "type": "uint256"
        }
      ],
      "name": "generateAnalogousColorPalette",
      "outputs": [
        {
          "components": [
            {
              "internalType": "uint256",
              "name": "r",
              "type": "uint256"
            },
            {
              "internalType": "uint256",
              "name": "g",
              "type": "uint256"
            },
            {
              "internalType": "uint256",
              "name": "b",
              "type": "uint256"
            }
          ],
          "internalType": "struct Fossil.RGB[4]",
          "name": "",
          "type": "tuple[4]"
        }
      ],
      "stateMutability": "view",
      "type": "function"
    },
    {
      "inputs": [
        {
          "components": [
            {
              "internalType": "uint256",
              "name": "hue",
              "type": "uint256"
            },
            {
              "internalType": "uint256",
              "name": "saturation",
              "type": "uint256"
            },
            {
              "internalType": "uint256",
              "name": "lightness",
              "type": "uint256"
            }
          ],
          "internalType": "struct Fossil.HSL",
          "name": "hsl",
          "type": "tuple"
        }
      ],
      "name": "generateAnalogousColors",
      "outputs": [
        {
          "components": [
            {
              "internalType": "uint256",
              "name": "hue",
              "type": "uint256"
            },
            {
              "internalType": "uint256",
              "name": "saturation",
              "type": "uint256"
            },
            {
              "internalType": "uint256",
              "name": "lightness",
              "type": "uint256"
            }
          ],
          "internalType": "struct Fossil.HSL[2]",
          "name": "",
          "type": "tuple[2]"
        }
      ],
      "stateMutability": "view",
      "type": "function"
    },
    {
      "inputs": [
        {
          "internalType": "uint256",
          "name": "seed",
          "type": "uint256"
        }
      ],
      "name": "generateColorsNovelApproach",
      "outputs": [
        {
          "components": [
            {
              "internalType": "uint256",
              "name": "r",
              "type": "uint256"
            },
            {
              "internalType": "uint256",
              "name": "g",
              "type": "uint256"
            },
            {
              "internalType": "uint256",
              "name": "b",
              "type": "uint256"
            }
          ],
          "internalType": "struct Fossil.RGB[4]",
          "name": "",
          "type": "tuple[4]"
        }
      ],
      "stateMutability": "view",
      "type": "function"
    },
    {
      "inputs": [
        {
          "internalType": "uint256",
          "name": "tokenId",
          "type": "uint256"
        }
      ],
      "name": "generateComponentTransfer",
      "outputs": [
        {
          "internalType": "string",
          "name": "",
          "type": "string"
        }
      ],
      "stateMutability": "view",
      "type": "function"
    },
    {
      "inputs": [
        {
          "internalType": "uint256",
          "name": "tokenId",
          "type": "uint256"
        },
        {
          "components": [
            {
              "internalType": "uint256",
              "name": "r",
              "type": "uint256"
            },
            {
              "internalType": "uint256",
              "name": "g",
              "type": "uint256"
            },
            {
              "internalType": "uint256",
              "name": "b",
              "type": "uint256"
            }
          ],
          "internalType": "struct Fossil.RGB[4]",
          "name": "colors",
          "type": "tuple[4]"
        }
      ],
      "name": "generateComponentTransfer",
      "outputs": [
        {
          "internalType": "string",
          "name": "",
          "type": "string"
        }
      ],
      "stateMutability": "view",
      "type": "function"
    },
    {
      "inputs": [
        {
          "internalType": "uint256",
          "name": "tokenId",
          "type": "uint256"
        },
        {
          "internalType": "bool",
          "name": "isFractalNoise",
          "type": "bool"
        }
      ],
      "name": "generateFrequency",
      "outputs": [
        {
          "internalType": "uint256",
          "name": "",
          "type": "uint256"
        },
        {
          "internalType": "string",
          "name": "",
          "type": "string"
        }
      ],
      "stateMutability": "view",
      "type": "function"
    },
    {
      "inputs": [
        {
          "internalType": "uint256",
          "name": "tokenId",
          "type": "uint256"
        },
        {
          "internalType": "bool",
          "name": "isFractalNoise",
          "type": "bool"
        },
        {
          "internalType": "uint256",
          "name": "frequency",
          "type": "uint256"
        }
      ],
      "name": "generateOctaves",
      "outputs": [
        {
          "internalType": "string",
          "name": "",
          "type": "string"
        }
      ],
      "stateMutability": "view",
      "type": "function"
    },
    {
      "inputs": [
        {
          "internalType": "uint256",
          "name": "seed",
          "type": "uint256"
        }
      ],
      "name": "generateRandomColorPalette",
      "outputs": [
        {
          "components": [
            {
              "internalType": "uint256",
              "name": "r",
              "type": "uint256"
            },
            {
              "internalType": "uint256",
              "name": "g",
              "type": "uint256"
            },
            {
              "internalType": "uint256",
              "name": "b",
              "type": "uint256"
            }
          ],
          "internalType": "struct Fossil.RGB[4]",
          "name": "",
          "type": "tuple[4]"
        }
      ],
      "stateMutability": "view",
      "type": "function"
    },
    {
      "inputs": [
        {
          "internalType": "uint256",
          "name": "seed",
          "type": "uint256"
        }
      ],
      "name": "generateSVG",
      "outputs": [
        {
          "internalType": "string",
          "name": "",
          "type": "string"
        }
      ],
      "stateMutability": "view",
      "type": "function"
    },
    {
      "inputs": [
        {
          "internalType": "uint256",
          "name": "tokenId",
          "type": "uint256"
        },
        {
          "internalType": "bool",
          "name": "isFractalNoise",
          "type": "bool"
        },
        {
          "internalType": "uint256",
          "name": "frequency",
          "type": "uint256"
        }
      ],
      "name": "generateScale",
      "outputs": [
        {
          "internalType": "string",
          "name": "",
          "type": "string"
        }
      ],
      "stateMutability": "view",
      "type": "function"
    },
    {
      "inputs": [
        {
          "internalType": "uint256",
          "name": "tokenId",
          "type": "uint256"
        },
        {
          "internalType": "bool",
          "name": "isFractalNoise",
          "type": "bool"
        }
      ],
      "name": "generateSpecularLighting",
      "outputs": [
        {
          "internalType": "string",
          "name": "",
          "type": "string"
        }
      ],
      "stateMutability": "view",
      "type": "function"
    },
    {
      "inputs": [
        {
          "internalType": "uint256",
          "name": "seed",
          "type": "uint256"
        }
      ],
      "name": "generateTetradicColorPalette",
      "outputs": [
        {
          "components": [
            {
              "internalType": "uint256",
              "name": "r",
              "type": "uint256"
            },
            {
              "internalType": "uint256",
              "name": "g",
              "type": "uint256"
            },
            {
              "internalType": "uint256",
              "name": "b",
              "type": "uint256"
            }
          ],
          "internalType": "struct Fossil.RGB[4]",
          "name": "",
          "type": "tuple[4]"
        }
      ],
      "stateMutability": "view",
      "type": "function"
    },
    {
      "inputs": [
        {
          "components": [
            {
              "internalType": "uint256",
              "name": "hue",
              "type": "uint256"
            },
            {
              "internalType": "uint256",
              "name": "saturation",
              "type": "uint256"
            },
            {
              "internalType": "uint256",
              "name": "lightness",
              "type": "uint256"
            }
          ],
          "internalType": "struct Fossil.HSL",
          "name": "color",
          "type": "tuple"
        }
      ],
      "name": "toColorRGB",
      "outputs": [
        {
          "components": [
            {
              "internalType": "uint256",
              "name": "r",
              "type": "uint256"
            },
            {
              "internalType": "uint256",
              "name": "g",
              "type": "uint256"
            },
            {
              "internalType": "uint256",
              "name": "b",
              "type": "uint256"
            }
          ],
          "internalType": "struct Fossil.RGB",
          "name": "",
          "type": "tuple"
        }
      ],
      "stateMutability": "pure",
      "type": "function"
    }
  ],
  "bytecode": {
    "object": "0x6080806040523461001657612bb5908161001c8239f35b600080fdfe6040608081526004908136101561001557600080fd5b600091823560e01c908163167feb3014611059578163382612e614610feb578163385f81b014610eca57816363d265a114610ea45781636dcee4ca14610e835781637486c45114610e595781638df4db1614610b5a578163919f965014610a8f5781639eb6e09314610a27578163a366659b14610925578163a71a0bfd146108cb578163a929e684146107f8578163aa96a90a146104bf578163b7eb3f7514610485578163daa0e974146102a0578163ed5d846314610271578163ed7ca60e14610134575063f5773d26146100e957600080fd5b346101305760603660031901126101305760609061012e61011161010c36611278565b611976565b915180926040809180518452602081015160208501520151910152565bf35b5080fd5b83915034610130578260031936011261013057803561015161132a565b156102305761015f90611745565b915b5060648210610198575061019461017f61017a8361157f565b611544565b835193849384528060208501528301906111c7565b0390f35b600a82106101ea57506101946101ad8261157f565b6101e5602385518093620302e360ec1b60208301526101d581518092602086860191016111a4565b8101036003810184520182611256565b61017f565b610194906101e560246101fc8561157f565b9286518094630302e30360e41b602083015261022181518092602087860191016111a4565b81010390810184520182611256565b602d90845160208101918252602081526102498161123a565b51902006600f810180911161025e5791610161565b634e487b7160e01b835260118252602483fd5b82843461029d57602036600319011261029d57506102926101949235612009565b9051918291826112df565b80fd5b9050823461029d57602092836003193601126101305782356102c0611fd7565b506102ca816116c2565b60018201808311610472576102de906116c2565b9160028101809111610472576102f3906116c2565b9583516102ff816111ec565b82815281810193845284810197885260ff9283039280841161045f578451810381811161044c578951820391821161044c5786519461033d866111ec565b85528385015285840152805193605590818601861161044c578051918083018311610439578a51818101811161042657819089519861037b8a6111ec565b82610100968780968194088c5208878a01520887870152825160aa91828201821161042657519a828c018c1161042657519082820182116104265782899a9b9c858281946103cb9d519d8e6111ec565b088b5208858901520886860152855196608088019088821067ffffffffffffffff831117610413575061019498508652865285015282840152606083015251918291826112df565b634e487b7160e01b815260418a52602490fd5b634e487b7160e01b8a5260118b5260248afd5b634e487b7160e01b895260118a52602489fd5b634e487b7160e01b885260118952602488fd5b634e487b7160e01b875260118852602487fd5b634e487b7160e01b855260118652602485fd5b505034610130578060031936011261013057610194906104a361132a565b506104ac61178e565b90519182916020835260208301906111c7565b919050346107f457602091826003193601126107f05780356104df611fd7565b506104e98161170f565b93600182018083116107dd576104fe9061172a565b600283018084116107ca5787809187518581019182528581526105208161123a565b5190206019900692875193610534856111ec565b8985528186860152808986015288519061054d8261123a565b60038252868201621a1cdb60ea1b9052895191829188830194631e2b5e8360e21b865260249d8e85015260448401526064830152608482016080905260a48201610596916111c7565b03601f19810182526105a89082611256565b51905a6a636f6e736f6c652e6c6f6790fa506105c2611fd7565b956105cc82611976565b8752815191605a83018093116107b857600385018086116107a6576105f09061172a565b8686018087116107945760199089518781019182528781526106118161123a565b5190200660198101809111610794579061064691895191610631836111ec565b61016880970683528783015289820152611976565b84890152805160b481018091116107a657600586018087116107945761066b9061172a565b60068701808811610782576019908a5188810191825288815261068d8161123a565b51902006906032820180921161078257906106c09291868b51936106b0856111ec565b0683528783015289820152611976565b87890152519761010e89018099116107725760078501808611610761576106e69061172a565b94600881018091116107615760199088518681019182528681526107098161123a565b5190200695604b8701809711610751575050509161074293916101949793865194610733866111ec565b06845283015283820152611976565b606083015251918291826112df565b634e487b7160e01b825260119052fd5b50634e487b7160e01b815260118652fd5b634e487b7160e01b815260118652fd5b634e487b7160e01b8c5260118952848cfd5b634e487b7160e01b8b5260118852838bfd5b634e487b7160e01b8a5260118752828afd5b50634e487b7160e01b88526011855287fd5b634e487b7160e01b885260118552602488fd5b634e487b7160e01b875260118452602487fd5b8380fd5b8280fd5b9050346107f457602091826003193601126107f05761081a61019492356121f5565b9380610825866113ed565b95610876603a855180997f646174613a696d6167652f7376672b786d6c3b6261736536342c0000000000008a830152610866815180928c86860191016111a4565b810103601a81018a520188611256565b83516108ab8161089d8982019463104c13eb60e21b86528a602484015260448301906111c7565b03601f198101835282611256565b51906a636f6e736f6c652e6c6f675afa50519282849384528301906111c7565b82843461029d5760016108dd36611339565b5050835160208101918252602081526108f58161123a565b51902016926002840180941161091257610194836104ac8661157f565b634e487b7160e01b825260119052602490fd5b919050346107f4576060928360031936011261029d5761094436611278565b9161094d6120e4565b506109566120e4565b938351600e198101908111610a14576020948581019081519285820193845190875192610982846111ec565b8352898301528682015288525192600f8401809411610a015750959395519051908351926109af846111ec565b83528583015282820152838301525193849193915b600283106109d15760c086f35b8382826109f560019489516040809180518452602081015160208501520151910152565b019501920191936109c4565b634e487b7160e01b865260119052602485fd5b634e487b7160e01b845260118252602484fd5b505034610130576101a036600319011261013057366043121561013057805191610a508361121e565b826101a49136831161029d57506024905b828210610a7557610194846104ac87611dc2565b6020606091610a8436856112ad565b815201910190610a61565b83833461013057606036600319011261013057610aab36611278565b610ab36118ff565b508151610abf816111ec565b60ff815282602082019160ff8352019060ff825282519460ff8601809611610b475760608661012e8787610b0a8883610aff8a6020860151905190611378565b930151905190611378565b60011c90825194610b1a866111ec565b60011c855260011c6020850152818401525180926040809180518452602081015160208501520151910152565b634e487b7160e01b815260118752602490fd5b83833461013057602092836003193601126107f457359160019182815192610b81846111ec565b805b606080821015610b9857858201528701610b83565b505085879495825b60038110610d1a57878761019488610d0b60da855183868801519701519684519788927f3c6665436f6d706f6e656e745472616e7366657220726573756c743d2272657389850152653ab63a19111f60d11b878501527f3c666546756e635220747970653d22646973637265746522207461626c655661604685015265363ab2b99e9160d11b90816066860152610c40815180928c606c890191016111a4565b840192631110179f60e11b9384606c8201527f3c666546756e634720747970653d22646973637265746522207461626c6556616070820152826090820152610c91825180938d6096850191016111a4565b01908360968301527f3c666546756e634220747970653d22646973637265746522207461626c655661609a83015260ba820152610cd7825180938b60c0850191016111a4565b019060c0820152751e17b332a1b7b6b837b732b73a2a3930b739b332b91f60511b60c48201520360ba810187520185611256565b519282849384528301906111c7565b8551610d258161123a565b858152600360fc1b88820152845b60028110610d97575090610d9291610d776022895183610d5d8d83965192818492860191016111a4565b810161203160f01b8d820152036002810184520182611256565b610d81828b611fc6565b52610d8c818a611fc6565b50611d01565b610ba0565b9295919798969490610e31610e3791610db08988611378565b8c8951818101928352818152610dc58161123a565b600a92839151902006918214600014610e4457610e2b9150610de5611771565b925b8a519381610dfe86935180928680870191016111a4565b8201600160fd1b84820152610e1d8251809360219687850191016111a4565b010387810184520182611256565b97611d01565b93611d01565b9897919590949698610d33565b610e5361017a610e2b9361157f565b92610de7565b5050346101305760603660031901126101305760609061012e610111610e7e36611278565b6121a5565b82843461029d57602036600319011261029d57506104ac61019492356121f5565b50503461013057610194906104ac610ec5610ebe36611339565b50506116e3565b61157f565b838334610130576020806003193601126107f457833592610ee9611fd7565b5080610ef3611fd7565b9481925b878410610f0b5785518061019489826112df565b610f26610f2182610f1c8786611378565b611378565b6116c2565b610f308584611378565b60018101809111610fd857610f2183610f4892611378565b610f528685611378565b60028101809111610fc557610f2184610f6a92611378565b90885192610f77846111ec565b83528783015287820152610f8b8589611d10565b52610f968488611d10565b5060038101809111610fb257610fac9093611d01565b92610ef7565b634e487b7160e01b835260118852602483fd5b634e487b7160e01b865260118b52602486fd5b634e487b7160e01b855260118a52602485fd5b9050346107f4576101803660031901126107f45736602312156107f4578151906110148261121e565b81610184913683116110555760609550905b82821061103c5750505061011161012e91612118565b6020869161104a36856112ad565b815201910190611026565b8580fd5b839150346101305760603660031901126101305780359060248035604435611081828661139b565b9482156111925782900690604d811161118057600a0a9081810291818304149015171561116e57906110b29161139b565b93600585101561114a575b600a8514611128575b5050506110de6110d86101949261157f565b9261157f565b92610d0b60218251809686516110fc816020998a80870191016111a4565b8201601760f91b88820152611119825180938a87850191016111a4565b01036001810187520185611256565b80919294509360018401809411610751575050506110de6110d86101946110c6565b936001810180911161115c57936110bd565b50634e487b7160e01b84526011825283fd5b634e487b7160e01b8652601184528286fd5b634e487b7160e01b8752601185528387fd5b634e487b7160e01b8752601285528387fd5b60005b8381106111b75750506000910152565b81810151838201526020016111a7565b906020916111e0815180928185528580860191016111a4565b601f01601f1916010190565b6060810190811067ffffffffffffffff82111761120857604052565b634e487b7160e01b600052604160045260246000fd5b6080810190811067ffffffffffffffff82111761120857604052565b6040810190811067ffffffffffffffff82111761120857604052565b90601f8019910116810190811067ffffffffffffffff82111761120857604052565b60609060031901126112a85760405190611291826111ec565b600435825260243560208301526044356040830152565b600080fd5b91908260609103126112a8576040516112c5816111ec565b604080829480358452602081013560208501520135910152565b91906101808301926000905b600482106112f857505050565b602060608261131e60019487516040809180518452602081015160208501520151910152565b019301910190916112eb565b6024359081151582036112a857565b60609060031901126112a8576004359060243580151581036112a8579060443590565b67ffffffffffffffff811161120857601f01601f191660200190565b9190820180921161138557565b634e487b7160e01b600052601160045260246000fd5b81156113a5570490565b634e487b7160e01b600052601260045260246000fd5b906113c58261135c565b6113d26040519182611256565b82815280926113e3601f199161135c565b0190602036910137565b80511561151f57604051611400816111ec565b604081527f4142434445464748494a4b4c4d4e4f505152535455565758595a61626364656660208201527f6768696a6b6c6d6e6f707172737475767778797a303132333435363738392b2f60408201528151600292838201809211611385576003918290046001600160fe1b038116810361138557611482908594951b6113bb565b936020850193829183518401925b8381106114ce57505050505106806001146114bb576002146114b0575090565b603d90600019015390565b50603d9081600019820153600119015390565b85600491979293949701918251600190603f9082828260121c16880101518453828282600c1c16880101518385015382828260061c1688010151888501531685010151878201530195929190611490565b506040516020810181811067ffffffffffffffff821117611208576040526000815290565b9061157d6022604051809461181760f11b602083015261156d81518092602086860191016111a4565b8101036002810185520183611256565b565b806000917a184f03e93ff9f4daa797ed6e38ed64bf6a1f010000000000000000808210156116b4575b506d04ee2d6d415b85acef8100000000808310156116a5575b50662386f26fc1000080831015611696575b506305f5e10080831015611687575b5061271080831015611678575b506064821015611668575b600a8092101561165e575b6001908160216116168287016113bb565b95860101905b611628575b5050505090565b600019019083906f181899199a1a9b1b9c1cb0b131b232b360811b8282061a8353049182156116595791908261161c565b611621565b9160010191611605565b91906064600291049101916115fa565b600491939204910191386115ef565b600891939204910191386115e2565b601091939204910191386115d3565b602091939204910191386115c1565b6040935081049150386115a8565b60ff9060405160208101918252602081526116dc8161123a565b5190200690565b60329060405160208101918252602081526116fd8161123a565b51902006603281018091116113855790565b6101689060405160208101918252602081526116dc8161123a565b611740906040519060208201526020815261123a565b606490565b603c90604051602081019182526020815261175f8161123a565b51902006601e81018091116113855790565b6040519061177e8261123a565b60018252603160f81b6020830152565b61181a6118fc60ea6040516117a28161123a565b6002815260208101612d3560f01b81526117ba611771565b906040519586937f3c666553706563756c61724c69676874696e67206c69676874696e672d636f6c60208601527f6f723d22236666666666662220737572666163655363616c653d2200000000006040860152518092605b8601906111a4565b82017f2220726573756c743d227234222073706563756c6172436f6e7374616e743d22605b820152611856825180936020607b850191016111a4565b017f222073706563756c61724578706f6e656e743d22312220696e3d227232223e00607b8201527f3c666544697374616e744c6967687420656c65766174696f6e3d22302220617a609a8201526934b6baba341e9118111f60b11b60ba820152701e17b332a234b9ba30b73a2634b3b43a1f60791b60c4820152741e17b332a9b832b1bab630b92634b3b43a34b7339f60591b60d58201520360ca810184520182611256565b90565b6040519061190c826111ec565b60006040838281528260208201520152565b9190916000838201938412911290801582169115161761138557565b818102929160008212600160ff1b82141661138557818405149015171561138557565b8181039291600013801582851316918412161761138557565b61197e6118ff565b5060008151906127109182810290808204841490151715611aca57610168900490602084015193606485029480860460641490151715611aca576040015193606485029480860460641490151715611aca5780611a235750505081825b60ff91848302948386040361138557818302918383040361138557808302928304036113855782908160405195611a11876111ec565b04855204602084015204604082015290565b919391611388831215611ade57808401908112600116611aca57611a4884918461193a565b05915b8060011b906002820503611aca5782611a639161195d565b90610d0590818601918212818712908015821691151617611ab65750611a8a908383611b04565b93611a96818484611b04565b92610d0419820191821360011661138557611ab092611b04565b906119db565b634e487b7160e01b81526011600452602490fd5b634e487b7160e01b82526011600452602482fd5b8084611af7611af0611afe948761191e565b928661193a565b059061195d565b91611a4b565b9092919260009384811280611c0a575b5061271091828213611bf3575b6106828212611bbc576113888212611bb557611a0a90818312611b475750929450505050565b84611b519161195d565b90868382039312818412811691841390151617611ba15790611b729161193a565b059081600602916006830503611b8d576118fc92935061191e565b634e487b7160e01b84526011600452602484fd5b634e487b7160e01b86526011600452602486fd5b9450505050565b83611bc99196929661195d565b90600682029180830560061490151715611ab657506118fc9394611bec9161193a565b059061191e565b9061270f198101908113600116611ba15790611b21565b6127108092019182128015821691151617611c255738611b14565b634e487b7160e01b85526011600452602485fd5b60ff8160081c9116600a810290808204600a14901517156113855760081c906005821015611cef575b600a8214611cca575b6021611c82611c7c6118fc9361157f565b9361157f565b926040519381611c9c8693518092602080870191016111a4565b8201601760f91b6020820152611cbb82518093602087850191016111a4565b01036001810184520182611256565b90506000906001810180911115611c6b57634e487b7160e01b82526011600452602482fd5b90600181018091116113855790611c62565b60001981146113855760010190565b906004811015611d215760051b0190565b634e487b7160e01b600052603260045260246000fd5b602161157d919392936040519481611d598793518092602080870191016111a4565b8201611d6e82518093602080850191016111a4565b01600160fd1b6020820152036001810185520183611256565b9061157d602460405184611da58296518092602080860191016111a4565b8101631110179f60e11b6020820152036004810185520183611256565b604090815191611dd1836111ec565b602f83526020918284017f3c6665436f6d706f6e656e745472616e736665722069643d2270616c6574746581526e11103932b9bab63a1e913931ba111f60891b83860152825190611e21826111ec565b602382527f3c666546756e635220747970653d227461626c6522207461626c6556616c75658583015262399e9160e91b9182858201528451611e62816111ec565b602381527f3c666546756e634720747970653d227461626c6522207461626c6556616c756587820152838682015292855190611e9d826111ec565b602382527f3c666546756e634220747970653d227461626c6522207461626c6556616c75658883015286820152936000905b60048210611f7457505093611f2796936118fc9693751e17b332a1b7b6b837b732b73a2a3930b739b332b91f60511b93611f16611f10611f1060369a611d87565b93611d87565b9351998a97518092888a01906111a4565b8601611f3b825180938880850191016111a4565b01611f4e825180938780850191016111a4565b01611f61825180938680850191016111a4565b0191820152036016810184520182611256565b9094611fba611fc091611fa389611fb2611fa399611fa3611fa98f9a611f9a8f8c611d10565b519d8e51611c39565b90611d37565b998c0151611c39565b980151611c39565b95611d01565b90611ecf565b906003811015611d215760051b0190565b60405190611fe48261121e565b8160005b60808110611ff4575050565b602090611fff6118ff565b8184015201611fe8565b612011611fd7565b5061202361201d611fd7565b9161170f565b6040805191612031836111ec565b8252602082019160648352818101906032825261204d81611976565b85528051601e810180911161138557612081908551845190865192612071846111ec565b8352602083015285820152611976565b60208601528051603c8101809111611385576120a8908551845190865192612071846111ec565b838601525191605a8301809311611385576120dc93519151918151936120cd856111ec565b84526020840152820152611976565b606082015290565b6040908151916120f38361123a565b8260005b82811061210357505050565b60209061210e6118ff565b81840152016120f7565b6121206118ff565b5060009081829183905b6004821061215957505060405192612141846111ec565b60021c835260021c602083015260021c604082015290565b90929193610e3161219261217c61219f936121748887611d10565b515190611378565b9660206121898887611d10565b51015190611378565b9360406121898786611d10565b9061212a565b6121ad6118ff565b50805160ff908103918183116113855760208101518203908282116113855760400151820391821161138557604051926121e6846111ec565b83526020830152604082015290565b60408051916122038361123a565b600c8352602090818401936b6672616374616c4e6f69736560a01b855261222982611745565b60648110612a5a5761017a61223d9161157f565b945b60018551858101908582528681526122568161123a565b51902016600281018091116113855761226e9061157f565b612277846116e3565b6122809061157f565b9361228a90612009565b9161229483612118565b9061229e84611dc2565b956122a761178e565b926122b1906121a5565b6122ba90612ad7565b9385516122c690612ad7565b90898701516122d490612ad7565b938a8c8901516122e390612ad7565b98606001516122f190612ad7565b998d519e8f9e8f908482017f3c7376672077696474683d2235303022206865696768743d2235303022207669905281017f6577426f783d223020302035303020353030222076657273696f6e3d22312e319052606081017f2220786d6c6e733d22687474703a2f2f7777772e77332e6f72672f323030302f90526439bb33911f60d91b608082015260858101651e3232b3399f60d11b9052608b81017f3c6c696e6561724772616469656e742069643d226c696e656172477261646965905268373a189a191b9b911f60b91b60ab82015260b481017f3c73746f702073746f702d636f6c6f723d22626c61636b22206f66667365743d9052731118111034b21e9139ba37b8189a191b9991179f60611b60d482015260e881017f3c73746f702073746f702d636f6c6f723d22776869746522206f66667365743d9052731118911034b21e9139ba37b8189a191b9a91179f60611b61010882015261011c8101701e17b634b732b0b923b930b234b2b73a1f60791b905261012d81017f3c66696c7465722069643d22637261636b65642d6c6176612220636f6c6f722d905261014d81017f696e746572706f6c6174696f6e2d66696c746572733d2273524742223e000000905261016a81017f3c666554757262756c656e636520626173654672657175656e63793d22000000905281519182610187958684019201916124f6926111a4565b01916711103a3cb8329e9160c11b90830152519061018f928284830161251b926111a4565b01906d1110373ab6a7b1ba30bb32b99e9160911b9082015281519061019d92828d85840192019161254b926111a4565b7f2220726573756c743d2272312220696e3d22536f7572636547726170686963229101918201526210179f60e91b6101bd8201527f3c6665446973706c6163656d656e744d617020726573756c743d2272352220786101c08201527f4368616e6e656c53656c6563746f723d22522220696e323d2272312220696e3d6101e08201527f2272312220794368616e6e656c53656c6563746f723d224722207363616c653d610200820152601160f91b610220820152825161022193909190612619908390868401908e016111a4565b631110179f60e11b91019283018190527f3c6665436f6d706f7369746520726573756c743d22723222206f70657261746f6102258401527f723d22696e2220696e3d22536f75726365477261706869632220696e323d2272610245840152641a9110179f60d91b610265840152845190988995869485938d939261026a92906126a99083908584019088016111a4565b7f3c6665436f6d706f73697465206b313d22302e3522206b333d223122206b323d9101918201527f222d302e352220696e323d2272322220696e3d22723422206f70657261746f7261028a8201527f3d2261726974686d657469632220726573756c743d2272393122206b343d22306102aa8201526102ca81018490527f3c6665436f6d706f7369746520696e3d227239312220726573756c743d2272346102ce8201527f22206f70657261746f723d2261726974686d6574696322206b323d223022206b6102ee8201527f333d22342220696e323d2272393122206b313d223022206b343d222d3022202f61030e820152601f60f91b61032e820152815161032f9390926127be91849186850191016111a4565b019081017f3c6665466c6f6f6420726573756c743d22726573756c74312220666c6f6f642d90526631b7b637b91e9160c91b61034f82015286519061035697828d8a840192019161280e926111a4565b01958601527f3c6665426c656e64206d6f64653d226e6f726d616c2220696e3d22726374222061035a8601526f34b7191e913932b9bab63a189110179f60811b61037a860152681e17b334b63a32b91f60b91b61038a860152661e17b232b3399f60c91b6103938601527f3c726563742077696474683d2235303022206865696768743d2235303022206661039a8601527f696c6c3d2275726c28236c696e6561724772616469656e7431343237372922206103ba8601527f66696c7465723d2275726c2823637261636b65642d6c6176612922207374796c6103da8601527f653d2266696c7465723a75726c2823637261636b65642d6c6176612922202f3e6103fa8601527f3c726563742077696474683d22353022206865696768743d2235302220783d2261041a86018190526e1811103c9e911811103334b6361e9160891b61043a870152815190956104499284929190612973908390868401908f016111a4565b01918201528461044d8201526f1a9811103c9e911811103334b6361e9160811b61046d82015282519061047d93828b8684019201916129b1926111a4565b0191820152826104818201527018981811103c9e911811103334b6361e9160791b6104a18201528351906104b29482898784019201916129f0926111a4565b01928301526104b682015270189a9811103c9e911811103334b6361e9160791b6104d682015281516104e7949092612a2e91849187850191016111a4565b01918201526104eb8101651e17b9bb339f60d11b9052036104d1810182526104f1016118fc9082611256565b600a8110612a9757612a6b9061157f565b612a91602386518093620302e360ec1b888301526101d5815180928a86860191016111a4565b9461223f565b612aa09061157f565b612a91602486518093630302e30360e41b88830152612ac7815180928a86860191016111a4565b8101036004810184520182611256565b6118fc6029612ae6835161157f565b612b006040612af8602087015161157f565b95015161157f565b604051948592630e4cec4560e31b6020850152612b278151809260206024880191016111a4565b83019061016160f51b91826024820152612b4b8251809360206026850191016111a4565b01906026820152612b668251809360206028850191016111a4565b01602960f81b602882015203600981018452018261125656fea26469706673582212202d66152f0ef47b95d0f55ddeb9bb0fcf538be5f90960e537f456c343ac9fee8664736f6c63430008110033",
    "linkReferences": {}
  },
  "methodIdentifiers": {
    "averageColors((uint256,uint256,uint256)[4])": "382612e6",
    "averageWithWhite((uint256,uint256,uint256))": "919f9650",
    "complementaryColor((uint256,uint256,uint256))": "7486c451",
    "constructImageURI(uint256)": "a929e684",
    "divideAndFormat(uint256,uint256,uint256)": "167feb30",
    "generateAnalogousColorPalette(uint256)": "ed5d8463",
    "generateAnalogousColors((uint256,uint256,uint256))": "a366659b",
    "generateColorsNovelApproach(uint256)": "daa0e974",
    "generateComponentTransfer(uint256)": "8df4db16",
    "generateComponentTransfer(uint256,(uint256,uint256,uint256)[4])": "9eb6e093",
    "generateFrequency(uint256,bool)": "ed7ca60e",
    "generateOctaves(uint256,bool,uint256)": "a71a0bfd",
    "generateRandomColorPalette(uint256)": "385f81b0",
    "generateSVG(uint256)": "6dcee4ca",
    "generateScale(uint256,bool,uint256)": "63d265a1",
    "generateSpecularLighting(uint256,bool)": "b7eb3f75",
    "generateTetradicColorPalette(uint256)": "aa96a90a",
    "toColorRGB((uint256,uint256,uint256))": "f5773d26"
  },
  "id": 28
}