{
  "abi": [
    {
      "inputs": [
        {
          "internalType": "uint256",
          "name": "seed",
          "type": "uint256"
        }
      ],
      "name": "constructImageURI",
      "outputs": [
        {
          "internalType": "string",
          "name": "",
          "type": "string"
        }
      ],
      "stateMutability": "view",
      "type": "function"
    },
    {
      "inputs": [
        {
          "internalType": "uint256",
          "name": "random",
          "type": "uint256"
        }
      ],
      "name": "example",
      "outputs": [
        {
          "internalType": "string",
          "name": "",
          "type": "string"
        }
      ],
      "stateMutability": "view",
      "type": "function"
    },
    {
      "inputs": [
        {
          "internalType": "uint256",
          "name": "tokenId",
          "type": "uint256"
        }
      ],
      "name": "generateBackgroundColor",
      "outputs": [
        {
          "internalType": "string",
          "name": "",
          "type": "string"
        }
      ],
      "stateMutability": "view",
      "type": "function"
    },
    {
      "inputs": [
        {
          "internalType": "uint256",
          "name": "color",
          "type": "uint256"
        }
      ],
      "name": "generateComplementaryColor",
      "outputs": [
        {
          "internalType": "uint256",
          "name": "",
          "type": "uint256"
        }
      ],
      "stateMutability": "pure",
      "type": "function"
    },
    {
      "inputs": [
        {
          "internalType": "uint256",
          "name": "tokenId",
          "type": "uint256"
        },
        {
          "internalType": "string",
          "name": "lightingColor",
          "type": "string"
        }
      ],
      "name": "generateFilters",
      "outputs": [
        {
          "internalType": "string",
          "name": "",
          "type": "string"
        }
      ],
      "stateMutability": "view",
      "type": "function"
    },
    {
      "inputs": [
        {
          "internalType": "uint256",
          "name": "tokenId",
          "type": "uint256"
        }
      ],
      "name": "generateFrequency",
      "outputs": [
        {
          "internalType": "string",
          "name": "",
          "type": "string"
        }
      ],
      "stateMutability": "view",
      "type": "function"
    },
    {
      "inputs": [
        {
          "internalType": "uint256",
          "name": "tokenId",
          "type": "uint256"
        }
      ],
      "name": "generateOctaves",
      "outputs": [
        {
          "internalType": "string",
          "name": "",
          "type": "string"
        }
      ],
      "stateMutability": "view",
      "type": "function"
    },
    {
      "inputs": [
        {
          "internalType": "uint256",
          "name": "tokenId",
          "type": "uint256"
        }
      ],
      "name": "generatePrimaryColor",
      "outputs": [
        {
          "internalType": "uint256",
          "name": "",
          "type": "uint256"
        }
      ],
      "stateMutability": "view",
      "type": "function"
    },
    {
      "inputs": [
        {
          "internalType": "uint256",
          "name": "tokenId",
          "type": "uint256"
        }
      ],
      "name": "generateScale",
      "outputs": [
        {
          "internalType": "string",
          "name": "",
          "type": "string"
        }
      ],
      "stateMutability": "view",
      "type": "function"
    },
    {
      "inputs": [
        {
          "internalType": "uint256",
          "name": "tokenId",
          "type": "uint256"
        },
        {
          "internalType": "string",
          "name": "backgroundColor",
          "type": "string"
        },
        {
          "internalType": "string",
          "name": "color",
          "type": "string"
        }
      ],
      "name": "generateStyles",
      "outputs": [
        {
          "internalType": "string",
          "name": "",
          "type": "string"
        }
      ],
      "stateMutability": "view",
      "type": "function"
    },
    {
      "inputs": [
        {
          "internalType": "uint256",
          "name": "tokenId",
          "type": "uint256"
        }
      ],
      "name": "generateTurbulenceType",
      "outputs": [
        {
          "internalType": "string",
          "name": "",
          "type": "string"
        }
      ],
      "stateMutability": "view",
      "type": "function"
    },
    {
      "inputs": [
        {
          "internalType": "uint256",
          "name": "_tokenId",
          "type": "uint256"
        }
      ],
      "name": "render",
      "outputs": [
        {
          "internalType": "string",
          "name": "",
          "type": "string"
        }
      ],
      "stateMutability": "view",
      "type": "function"
    },
    {
      "inputs": [
        {
          "internalType": "uint256",
          "name": "colorInt",
          "type": "uint256"
        }
      ],
      "name": "toHexColor",
      "outputs": [
        {
          "internalType": "string",
          "name": "",
          "type": "string"
        }
      ],
      "stateMutability": "view",
      "type": "function"
    }
  ],
  "bytecode": {
    "object": "0x608060405234801561001057600080fd5b50611898806100206000396000f3fe608060405234801561001057600080fd5b50600436106100cf5760003560e01c806381c5644e1161008c578063a929e68411610066578063a929e684146101a3578063c1652725146101b6578063c321118c146101eb578063fb0b3d8a146101fe57600080fd5b806381c5644e1461016a578063870794f71461017d57806398bc06f41461019057600080fd5b806307ecf2ae146100d45780633877ef41146100fd578063477e4a0214610110578063497d7a1714610123578063620ba6b8146101365780637166d41714610149575b600080fd5b6100e76100e2366004610ae9565b610211565b6040516100f49190610b7a565b60405180910390f35b6100e761010b366004610bad565b61023e565b6100e761011e366004610bad565b610271565b6100e7610131366004610bad565b610282565b6100e7610144366004610bad565b6102a5565b61015c610157366004610bad565b6102bc565b6040519081526020016100f4565b6100e7610178366004610bad565b6102f4565b6100e761018b366004610bc6565b610337565b6100e761019e366004610bad565b6103a3565b6100e76101b1366004610bad565b610423565b6100e76101c4366004610bad565b5060408051808201909152600c81526b113a3ab9313ab632b731b29160a11b602082015290565b6100e76101f9366004610bad565b6104d9565b61015c61020c366004610bad565b610591565b60608282604051602001610226929190610c29565b60405160208183030381529060405290509392505050565b606061024b8260036105e4565b60405160200161025b9190610ce4565b6040516020818303038152906040529050919050565b606061027c826104d9565b92915050565b6060600061029360016005856106c2565b905061029e81610721565b9392505050565b606061027c6102b760006050856106c2565b610721565b60408051602080820184905260008284018190528351808403850181526060909301909352815191012061029e8262ffffff836106c2565b606060006103096102b76000610100866106c2565b905080818260405160200161032093929190610d0d565b604051602081830303815290604052915050919050565b6060610342836103a3565b60408051808201909152600c81526b113a3ab9313ab632b731b29160a11b602082015261036e85610282565b610377866102a5565b8560405160200161038c959493929190610d85565b604051602081830303815290604052905092915050565b606060006103b460016032856106c2565b9050606060648210156103f0576103ca82610721565b6040516020016103da919061145f565b604051602081830303815290604052905061029e565b600a8210156104125761040282610721565b6040516020016103da919061147b565b61041b82610721565b949350505050565b60606104636040518060400160405280601781526020017f737461727420636f6e737472756374496d6167655552490000000000000000008152506107b4565b600061046e836104d9565b9050610479816107b4565b6000610484826107fa565b905060008160405160200161049991906114a5565b60408051601f198184030181528282019091526015825274656e6420636f6e737472756374496d61676555524960581b6020830152915061041b906107b4565b606060006104e6836102f4565b905060006104f3846102bc565b9050600061050082610591565b9050600061050d8361023e565b9050600061051a8361023e565b90506000610529888785610211565b60408051808201909152600381526203530360ec1b602082015290915080806105528b86610337565b84848586878e8c8c6040516020016105749b9a999897969594939291906114ea565b604051602081830303815290604052975050505050505050919050565b6000601082901c60ff600884901c811690808516906105b190849061177a565b92506105be8260ff61177a565b91506105cb8160ff61177a565b905080600883901b601085901b17179350505050919050565b606060006105f383600261178d565b67ffffffffffffffff81111561060b5761060b610a46565b6040519080825280601f01601f191660200182016040528015610635576020820181803683370190505b5080519091505b80156106ba576f181899199a1a9b1b9c1cb0b131b232b360811b85600f166010811061066a5761066a6117a4565b1a60f81b8261067a60018461177a565b8151811061068a5761068a6117a4565b60200101906001600160f81b031916908160001a90535060049490941c93806106b2816117ba565b91505061063c565b509392505050565b60006106ce848461177a565b6106d99060016117d1565b6040805160208101859052908101869052606081018590526080016040516020818303038152906040528051906020012060001c61071791906117fa565b61041b90856117d1565b6060600061072e8361094d565b600101905060008167ffffffffffffffff81111561074e5761074e610a46565b6040519080825280601f01601f191660200182016040528015610778576020820181803683370190505b5090508181016020015b600019016f181899199a1a9b1b9c1cb0b131b232b360811b600a86061a8153600a850494508461078257509392505050565b6107f7816040516024016107c89190610b7a565b60408051601f198184030181529190526020810180516001600160e01b031663104c13eb60e21b179052610a25565b50565b6060815160000361081957505060408051602081019091526000815290565b6000604051806060016040528060408152602001611823604091399050600060038451600261084891906117d1565b610852919061180e565b61085d90600461178d565b67ffffffffffffffff81111561087557610875610a46565b6040519080825280601f01601f19166020018201604052801561089f576020820181803683370190505b509050600182016020820185865187015b8082101561090b576003820191508151603f8160121c168501518453600184019350603f81600c1c168501518453600184019350603f8160061c168501518453600184019350603f81168501518453506001830192506108b0565b5050600386510660018114610927576002811461093a57610942565b603d6001830353603d6002830353610942565b603d60018303535b509195945050505050565b60008072184f03e93ff9f4daa797ed6e38ed64bf6a1f0160401b831061098c5772184f03e93ff9f4daa797ed6e38ed64bf6a1f0160401b830492506040015b6d04ee2d6d415b85acef810000000083106109b8576d04ee2d6d415b85acef8100000000830492506020015b662386f26fc1000083106109d657662386f26fc10000830492506010015b6305f5e10083106109ee576305f5e100830492506008015b6127108310610a0257612710830492506004015b60648310610a14576064830492506002015b600a831061027c5760010192915050565b80516a636f6e736f6c652e6c6f67602083016000808483855afa5050505050565b634e487b7160e01b600052604160045260246000fd5b600082601f830112610a6d57600080fd5b813567ffffffffffffffff80821115610a8857610a88610a46565b604051601f8301601f19908116603f01168101908282118183101715610ab057610ab0610a46565b81604052838152866020858801011115610ac957600080fd5b836020870160208301376000602085830101528094505050505092915050565b600080600060608486031215610afe57600080fd5b83359250602084013567ffffffffffffffff80821115610b1d57600080fd5b610b2987838801610a5c565b93506040860135915080821115610b3f57600080fd5b50610b4c86828701610a5c565b9150509250925092565b60005b83811015610b71578181015183820152602001610b59565b50506000910152565b6020815260008251806020840152610b99816040850160208701610b56565b601f01601f19169190910160400192915050565b600060208284031215610bbf57600080fd5b5035919050565b60008060408385031215610bd957600080fd5b82359150602083013567ffffffffffffffff811115610bf757600080fd5b610c0385828601610a5c565b9150509250929050565b60008151610c1f818560208601610b56565b9290920192915050565b661e39ba3cb6329f60c91b81526e0173932b1ba18103d903334b6361d1608d1b600782015260008351610c63816016850160208801610b56565b61207d60f01b6016918401918201526e0173932b1ba18903d903334b6361d1608d1b60188201528351610c9d816027840160208801610b56565b7f3b2066696c7465723a2075726c2823637261636b65642d6c61766129207d000060279290910191820152671e17b9ba3cb6329f60c11b6045820152604d01949350505050565b602360f81b815260008251610d00816001850160208701610b56565b9190910160010192915050565b630e4cec4560e31b815260008451610d2c816004850160208901610b56565b8083019050600b60fa1b8060048301528551610d4f816005850160208a01610b56565b60059201918201528351610d6a816006840160208801610b56565b602960f81b6006929091019182015260070195945050505050565b7f3c66696c7465722069643d22637261636b65642d6c617661223e00000000000081527f3c666554757262756c656e636520626173654672657175656e63793d22302e00601a8201526000610ddd6039830188610c0d565b662220747970653d60c81b8152610df76007820188610c0d565b6c10373ab6a7b1ba30bb32b99e9160991b81529050610f39610f33610ed1610e5c610e25600d86018b610c0d565b7f2220726573756c743d227231222069643d22666554757262756c656e63653233815264199c11179f60d91b602082015260250190565b7f3c6665446973706c6163656d656e744d617020726573756c743d22723522207881527f4368616e6e656c53656c6563746f723d22522220696e323d2272312220696e3d60208201527f2272312220794368616e6e656c53656c6563746f723d2247223e0000000000006040820152605a0190565b7f3c616e696d617465206174747269627574654e616d653d227363616c6522206481527f75723d223130732220726570656174436f756e743d22696e646566696e69746560208201526911103b30b63ab2b99e9160b11b6040820152604a0190565b86610c0d565b661d981d9110179f60c91b8152731e17b332a234b9b83630b1b2b6b2b73a26b0b81f60611b60078201527f3c6665436f6d706f7369746520726573756c743d22723222206f70657261746f601b8201527f723d22696e2220696e323d2272352220696e3d22536f75726365477261706869603b820152633191179f60e11b605b8201527f3c666553706563756c61724c69676874696e67206c69676874696e672d636f6c605f8201527f6f723d2277686974652220737572666163655363616c653d2232222072657375607f8201527f6c743d227234222073706563756c6172436f6e7374616e743d22322220737065609f8201527f63756c61724578706f6e656e743d2236352220696e3d227232223e000000000060bf8201527f3c666544697374616e744c6967687420656c65766174696f6e3d22363022206160da8201526a3d34b6baba341e9118111f60a91b60fa8201527f3c616e696d617465206174747269627574654e616d653d22617a696d757468226101058201527f2076616c7565733d22303b3336303b22206475723d2231307322207265706561610125820152743a21b7bab73a1e9134b73232b334b734ba3291179f60591b610145820152905061015a8101701e17b332a234b9ba30b73a2634b3b43a1f60791b81527f3c2f666553706563756c61724c69676874696e673e3c6665436f6d706f73697460118201527f65206b313d22322e3522206b333d223122206b323d222d302e352220696e323d60318201527f2272322220696e3d22723422206f70657261746f723d2261726974686d6574696051820152703191103932b9bab63a1e91391c9891179f60791b60718201527f3c6665426c656e6420726573756c743d226662536f757263654772617068696360828201527f22206d6f64653d226d756c7469706c792220696e323d22723931222f3e00000060a28201527f3c6665476175737369616e426c757220737464446576696174696f6e3d22322260bf8201527f20696e3d226662536f75726365477261706869632220726573756c743d22536f60df8201526d3ab931b2a3b930b83434b191179f60911b60ff8201527f3c666553706563756c61724c69676874696e6720696e3d22536f75726365477261010d8201527f61706869632220726573756c743d22723122206c69676874696e672d636f6c6f61012d82015262391e9160e91b61014d82015290506113546113146112c5610150840187610c0d565b7f2220737572666163655363616c653d2234222073706563756c6172436f6e737481527f616e743d22302e38222073706563756c61724578706f6e656e743d223135223e602082015260400190565b7f3c6665506f696e744c6967687420783d222d353030302220793d222d3130303081526d1811103d1e91191818181811179f60911b6020820152602e0190565b741e17b332a9b832b1bab630b92634b3b43a34b7339f60591b81527f3c6665436f6d706f7369746520696e323d226662536f7572636547726170686960158201527f632220696e3d2272312220726573756c743d2272323222206f70657261746f726035820152671e9137baba11179f60c11b60558201527f3c6665436f6d706f7369746520696e3d226662536f7572636547726170686963605d8201527f2220726573756c743d22723422206f70657261746f723d2261726974686d6574607d8201527f696322206b323d223222206b333d22322220696e323d22723232222f3e000000609d820152681e17b334b63a32b91f60b91b60ba82015260c30198975050505050505050565b600360fc1b815260008251610d00816001850160208701610b56565b61030360f41b815260008251611498816002850160208701610b56565b9190910160020192915050565b7f646174613a696d6167652f7376672b786d6c3b6261736536342c0000000000008152600082516114dd81601a850160208701610b56565b91909101601a0192915050565b7f3c73766720786d6c6e733d22687474703a2f2f7777772e77332e6f72672f323081526e181817b9bb3391103bb4b23a341e9160891b60208201526000611534602f83018e610c0d565b6911103432b4b3b43a1e9160b11b8152611551600a82018e610c0d565b61111f60f11b81529050651e3232b3399f60d11b6002820152611577600882018d610c0d565b661e17b232b3399f60c91b81529050611593600782018c610c0d565b7f3c7265637420636c6173733d227265637430222077696474683d220000000000815290506115c5601b82018b610c0d565b6911103432b4b3b43a1e9160b11b815290506115e4600a82018a610c0d565b6211179f60e91b815290507f3c7265637420636c6173733d227265637431222077696474683d2200000000006003820152611622601e820189610c0d565b6911103432b4b3b43a1e9160b11b81529050611641600a820188610c0d565b6211179f60e91b815290506b1e3932b1ba103334b6361e9160a11b600382015261166e600f820187610c0d565b7f222077696474683d22353022206865696768743d2235302220783d2230222f3e815290506b1e3932b1ba103334b6361e9160a11b60208201526116eb6116b8602c830187610c0d565b7f222077696474683d22353022206865696768743d2235302220783d223530222f8152601f60f91b602082015260210190565b6b1e3932b1ba103334b6361e9160a11b8152905061174361170f600c830186610c0d565b7f222077696474683d22353022206865696768743d2235302220783d2231303022815261179f60f11b602082015260220190565b651e17b9bb339f60d11b81526006019e9d5050505050505050505050505050565b634e487b7160e01b600052601160045260246000fd5b8181038181111561027c5761027c611764565b808202811582820484141761027c5761027c611764565b634e487b7160e01b600052603260045260246000fd5b6000816117c9576117c9611764565b506000190190565b8082018082111561027c5761027c611764565b634e487b7160e01b600052601260045260246000fd5b600082611809576118096117e4565b500690565b60008261181d5761181d6117e4565b50049056fe4142434445464748494a4b4c4d4e4f505152535455565758595a6162636465666768696a6b6c6d6e6f707172737475767778797a303132333435363738392b2fa2646970667358221220e1b5c735641cb712a594629a971336db99ce44ca077a5a57004944201b4a023764736f6c63430008110033",
    "linkReferences": {}
  },
  "methodIdentifiers": {
    "constructImageURI(uint256)": "a929e684",
    "example(uint256)": "477e4a02",
    "generateBackgroundColor(uint256)": "81c5644e",
    "generateComplementaryColor(uint256)": "fb0b3d8a",
    "generateFilters(uint256,string)": "870794f7",
    "generateFrequency(uint256)": "98bc06f4",
    "generateOctaves(uint256)": "497d7a17",
    "generatePrimaryColor(uint256)": "7166d417",
    "generateScale(uint256)": "620ba6b8",
    "generateStyles(uint256,string,string)": "07ecf2ae",
    "generateTurbulenceType(uint256)": "c1652725",
    "render(uint256)": "c321118c",
    "toHexColor(uint256)": "3877ef41"
  },
  "id": 28
}