{
  "abi": [
    {
      "inputs": [
        {
          "components": [
            {
              "internalType": "uint256",
              "name": "r",
              "type": "uint256"
            },
            {
              "internalType": "uint256",
              "name": "g",
              "type": "uint256"
            },
            {
              "internalType": "uint256",
              "name": "b",
              "type": "uint256"
            }
          ],
          "internalType": "struct Fossil.RGB[5]",
          "name": "colors",
          "type": "tuple[5]"
        }
      ],
      "name": "averageColors",
      "outputs": [
        {
          "components": [
            {
              "internalType": "uint256",
              "name": "r",
              "type": "uint256"
            },
            {
              "internalType": "uint256",
              "name": "g",
              "type": "uint256"
            },
            {
              "internalType": "uint256",
              "name": "b",
              "type": "uint256"
            }
          ],
          "internalType": "struct Fossil.RGB",
          "name": "",
          "type": "tuple"
        }
      ],
      "stateMutability": "pure",
      "type": "function"
    },
    {
      "inputs": [
        {
          "components": [
            {
              "internalType": "uint256",
              "name": "r",
              "type": "uint256"
            },
            {
              "internalType": "uint256",
              "name": "g",
              "type": "uint256"
            },
            {
              "internalType": "uint256",
              "name": "b",
              "type": "uint256"
            }
          ],
          "internalType": "struct Fossil.RGB",
          "name": "color",
          "type": "tuple"
        }
      ],
      "name": "averageWithWhite",
      "outputs": [
        {
          "components": [
            {
              "internalType": "uint256",
              "name": "r",
              "type": "uint256"
            },
            {
              "internalType": "uint256",
              "name": "g",
              "type": "uint256"
            },
            {
              "internalType": "uint256",
              "name": "b",
              "type": "uint256"
            }
          ],
          "internalType": "struct Fossil.RGB",
          "name": "",
          "type": "tuple"
        }
      ],
      "stateMutability": "pure",
      "type": "function"
    },
    {
      "inputs": [
        {
          "components": [
            {
              "internalType": "uint256",
              "name": "r",
              "type": "uint256"
            },
            {
              "internalType": "uint256",
              "name": "g",
              "type": "uint256"
            },
            {
              "internalType": "uint256",
              "name": "b",
              "type": "uint256"
            }
          ],
          "internalType": "struct Fossil.RGB",
          "name": "color",
          "type": "tuple"
        }
      ],
      "name": "complementaryColor",
      "outputs": [
        {
          "components": [
            {
              "internalType": "uint256",
              "name": "r",
              "type": "uint256"
            },
            {
              "internalType": "uint256",
              "name": "g",
              "type": "uint256"
            },
            {
              "internalType": "uint256",
              "name": "b",
              "type": "uint256"
            }
          ],
          "internalType": "struct Fossil.RGB",
          "name": "",
          "type": "tuple"
        }
      ],
      "stateMutability": "pure",
      "type": "function"
    },
    {
      "inputs": [
        {
          "internalType": "uint256",
          "name": "seed",
          "type": "uint256"
        }
      ],
      "name": "constructImageURI",
      "outputs": [
        {
          "internalType": "string",
          "name": "",
          "type": "string"
        }
      ],
      "stateMutability": "view",
      "type": "function"
    },
    {
      "inputs": [
        {
          "internalType": "uint256",
          "name": "input",
          "type": "uint256"
        },
        {
          "internalType": "uint256",
          "name": "divisor",
          "type": "uint256"
        },
        {
          "internalType": "uint256",
          "name": "decimalPlaces",
          "type": "uint256"
        }
      ],
      "name": "divideAndFormat",
      "outputs": [
        {
          "internalType": "string",
          "name": "",
          "type": "string"
        }
      ],
      "stateMutability": "view",
      "type": "function"
    },
    {
      "inputs": [
        {
          "internalType": "uint256",
          "name": "tokenId",
          "type": "uint256"
        },
        {
          "components": [
            {
              "internalType": "uint256",
              "name": "r",
              "type": "uint256"
            },
            {
              "internalType": "uint256",
              "name": "g",
              "type": "uint256"
            },
            {
              "internalType": "uint256",
              "name": "b",
              "type": "uint256"
            }
          ],
          "internalType": "struct Fossil.RGB[5]",
          "name": "colors",
          "type": "tuple[5]"
        }
      ],
      "name": "generateComponentTransfer",
      "outputs": [
        {
          "internalType": "string",
          "name": "",
          "type": "string"
        }
      ],
      "stateMutability": "view",
      "type": "function"
    },
    {
      "inputs": [
        {
          "internalType": "uint256",
          "name": "tokenId",
          "type": "uint256"
        }
      ],
      "name": "generateComponentTransfer",
      "outputs": [
        {
          "internalType": "string",
          "name": "",
          "type": "string"
        }
      ],
      "stateMutability": "view",
      "type": "function"
    },
    {
      "inputs": [
        {
          "internalType": "uint256",
          "name": "tokenId",
          "type": "uint256"
        },
        {
          "internalType": "bool",
          "name": "isFractalNoise",
          "type": "bool"
        }
      ],
      "name": "generateFrequency",
      "outputs": [
        {
          "internalType": "uint256",
          "name": "",
          "type": "uint256"
        },
        {
          "internalType": "string",
          "name": "",
          "type": "string"
        }
      ],
      "stateMutability": "view",
      "type": "function"
    },
    {
      "inputs": [
        {
          "internalType": "uint256",
          "name": "tokenId",
          "type": "uint256"
        },
        {
          "internalType": "bool",
          "name": "isFractalNoise",
          "type": "bool"
        },
        {
          "internalType": "uint256",
          "name": "frequency",
          "type": "uint256"
        }
      ],
      "name": "generateOctaves",
      "outputs": [
        {
          "internalType": "string",
          "name": "",
          "type": "string"
        }
      ],
      "stateMutability": "view",
      "type": "function"
    },
    {
      "inputs": [
        {
          "internalType": "uint256",
          "name": "seed",
          "type": "uint256"
        }
      ],
      "name": "generateRandomColorPalette",
      "outputs": [
        {
          "components": [
            {
              "internalType": "uint256",
              "name": "r",
              "type": "uint256"
            },
            {
              "internalType": "uint256",
              "name": "g",
              "type": "uint256"
            },
            {
              "internalType": "uint256",
              "name": "b",
              "type": "uint256"
            }
          ],
          "internalType": "struct Fossil.RGB[5]",
          "name": "",
          "type": "tuple[5]"
        }
      ],
      "stateMutability": "view",
      "type": "function"
    },
    {
      "inputs": [
        {
          "internalType": "uint256",
          "name": "seed",
          "type": "uint256"
        }
      ],
      "name": "generateSVG",
      "outputs": [
        {
          "internalType": "string",
          "name": "",
          "type": "string"
        }
      ],
      "stateMutability": "view",
      "type": "function"
    },
    {
      "inputs": [
        {
          "internalType": "uint256",
          "name": "tokenId",
          "type": "uint256"
        },
        {
          "internalType": "bool",
          "name": "isFractalNoise",
          "type": "bool"
        },
        {
          "internalType": "uint256",
          "name": "frequency",
          "type": "uint256"
        }
      ],
      "name": "generateScale",
      "outputs": [
        {
          "internalType": "string",
          "name": "",
          "type": "string"
        }
      ],
      "stateMutability": "view",
      "type": "function"
    },
    {
      "inputs": [
        {
          "internalType": "uint256",
          "name": "tokenId",
          "type": "uint256"
        },
        {
          "internalType": "bool",
          "name": "isFractalNoise",
          "type": "bool"
        }
      ],
      "name": "generateSpecularLighting",
      "outputs": [
        {
          "internalType": "string",
          "name": "",
          "type": "string"
        }
      ],
      "stateMutability": "view",
      "type": "function"
    },
    {
      "inputs": [
        {
          "internalType": "uint256",
          "name": "seed",
          "type": "uint256"
        }
      ],
      "name": "generateTriadicColors",
      "outputs": [
        {
          "components": [
            {
              "internalType": "uint256",
              "name": "r",
              "type": "uint256"
            },
            {
              "internalType": "uint256",
              "name": "g",
              "type": "uint256"
            },
            {
              "internalType": "uint256",
              "name": "b",
              "type": "uint256"
            }
          ],
          "internalType": "struct Fossil.RGB[5]",
          "name": "",
          "type": "tuple[5]"
        }
      ],
      "stateMutability": "view",
      "type": "function"
    },
    {
      "inputs": [
        {
          "components": [
            {
              "internalType": "uint256",
              "name": "r",
              "type": "uint256"
            },
            {
              "internalType": "uint256",
              "name": "g",
              "type": "uint256"
            },
            {
              "internalType": "uint256",
              "name": "b",
              "type": "uint256"
            }
          ],
          "internalType": "struct Fossil.RGB",
          "name": "color1",
          "type": "tuple"
        },
        {
          "components": [
            {
              "internalType": "uint256",
              "name": "r",
              "type": "uint256"
            },
            {
              "internalType": "uint256",
              "name": "g",
              "type": "uint256"
            },
            {
              "internalType": "uint256",
              "name": "b",
              "type": "uint256"
            }
          ],
          "internalType": "struct Fossil.RGB",
          "name": "color2",
          "type": "tuple"
        },
        {
          "components": [
            {
              "internalType": "uint256",
              "name": "r",
              "type": "uint256"
            },
            {
              "internalType": "uint256",
              "name": "g",
              "type": "uint256"
            },
            {
              "internalType": "uint256",
              "name": "b",
              "type": "uint256"
            }
          ],
          "internalType": "struct Fossil.RGB",
          "name": "color3",
          "type": "tuple"
        },
        {
          "internalType": "uint256",
          "name": "greyControl",
          "type": "uint256"
        }
      ],
      "name": "randomMix",
      "outputs": [
        {
          "components": [
            {
              "internalType": "uint256",
              "name": "r",
              "type": "uint256"
            },
            {
              "internalType": "uint256",
              "name": "g",
              "type": "uint256"
            },
            {
              "internalType": "uint256",
              "name": "b",
              "type": "uint256"
            }
          ],
          "internalType": "struct Fossil.RGB",
          "name": "",
          "type": "tuple"
        }
      ],
      "stateMutability": "view",
      "type": "function"
    }
  ],
  "bytecode": {
    "object": "0x60808060405234610016576125e4908161001c8239f35b600080fdfe60406080815260048036101561001457600080fd5b600090813560e01c8063167feb3014610d3b578063385f81b014610c1e578063547fe36014610bb657806363d265a114610b905780636dcee4ca14610b6e5780637486c45114610b44578063754f4dec146107fc5780638df4db16146104fd578063919f965014610432578063a71a0bfd146103d7578063a929e684146102ff578063b7eb3f75146102c5578063ddede35914610295578063ea44b3ac146102035763ed7ca60e146100c557600080fd5b346101ff57826003193601126101ff5780356100df610fda565b156101be576100ed906113dc565b915b5060648210610126575061012261010d61010883611242565b611207565b83519384938452806020850152830190610e77565b0390f35b600a8210610178575061012261013b82611242565b610173602385518093620302e360ec1b60208301526101638151809260208686019101610e54565b8101036003810184520182610f51565b61010d565b61012290610173602461018a85611242565b9286518094630302e30360e41b60208301526101af8151809260208786019101610e54565b81010390810184520182610f51565b602d90845160208101918252602081526101d781610f35565b51902006600f81018091116101ec57916100ef565b634e487b7160e01b835260118252602483fd5b5080fd5b50829034610291576101e03660031901126102915736602312156102915781519061022d82610f19565b816101e49136831161028d5760609550905b8282106102745750505061025561027291611bd2565b915180926040809180518452602081015160208501520151910152565bf35b602086916102823685610fa8565b81520191019061023f565b8580fd5b8280fd5b509190346102c25760203660031901126102c257506102b76101229235611a5b565b905191829182610e9c565b80fd5b8284346101ff57806003193601126101ff57610122906102e3610fda565b506102ec611425565b9051918291602083526020830190610e77565b5082903461029157602091826003193601126103d3576103226101229235611cb1565b938061032d866110b0565b9561037e603a855180997f646174613a696d6167652f7376672b786d6c3b6261736536342c0000000000008a83015261036e815180928c8686019101610e54565b810103601a81018a520188610f51565b83516103b3816103a58982019463104c13eb60e21b86528a60248401526044830190610e77565b03601f198101835282610f51565b51906a636f6e736f6c652e6c6f675afa5051928284938452830190610e77565b8380fd5b509190346102c25760016103ea36610fe9565b50508351602081019182526020815261040281610f35565b51902016926002840180941161041f57610122836102ec86611242565b634e487b7160e01b825260119052602490fd5b5091346101ff5760603660031901126101ff5761044e36610f73565b610456611596565b50815161046281610ee7565b60ff815282602082019160ff8352019060ff825282519460ff86018096116104ea5760608661027287876104ad88836104a28a6020860151905190611028565b930151905190611028565b60011c908251946104bd86610ee7565b60011c855260011c6020850152818401525180926040809180518452602081015160208501520151910152565b634e487b7160e01b815260118752602490fd5b5091346101ff57602092836003193601126102915735916001918281519261052484610ee7565b805b60608082101561053b57858201528701610526565b505085879495825b600381106106bd578787610122886106ae60da855183868801519701519684519788927f3c6665436f6d706f6e656e745472616e7366657220726573756c743d2272657389850152653ab63a19111f60d11b878501527f3c666546756e635220747970653d22646973637265746522207461626c655661604685015265363ab2b99e9160d11b908160668601526105e3815180928c606c89019101610e54565b840192631110179f60e11b9384606c8201527f3c666546756e634720747970653d22646973637265746522207461626c6556616070820152826090820152610634825180938d609685019101610e54565b01908360968301527f3c666546756e634220747970653d22646973637265746522207461626c655661609a83015260ba82015261067a825180938b60c085019101610e54565b019060c0820152751e17b332a1b7b6b837b732b73a2a3930b739b332b91f60511b60c48201520360ba810187520185610f51565b51928284938452830190610e77565b85516106c881610f35565b858152600360fc1b88820152845b6002811061073a5750906107359161071a60228951836107008d8396519281849286019101610e54565b810161203160f01b8d820152036002810184520182610f51565b610724828b611a18565b5261072f818a611a18565b5061167d565b610543565b92959197989694906107d46107da916107538988611028565b8c895181810192835281815261076881610f35565b600a928391519020069182146000146107e7576107ce9150610788611408565b925b8a5193816107a18693518092868087019101610e54565b8201600160fd1b848201526107c0825180936021968785019101610e54565b010387810184520182610f51565b9761167d565b9361167d565b98979195909496986106d6565b6107f66101086107ce93611242565b9261078a565b50829034610291576101403660031901126102915761081a36610f73565b9260603660631901126102c25782519361083385610ee7565b60643585526020918286019360843585528587019260a4358452606060c3193601126102915786519461086586610ee7565b60c435865280860160e4358152888701976101043589526101243594610889611596565b5060038b51858101904282528d44908201528d81526108a781610ee7565b519020069586610b1e578b51858101904282528d44908201528d81526108cc81610ee7565b5190206001820190818311610aa957906108e591611385565b905b8c60018903610af6578051878101914283524481830152815261090981610ee7565b5190206001820190818311610ae35760029161092491611385565b985b03610abc578c8051878101914283524481830152815261094581610ee7565b51902060018201809211610aa9579061095d91611385565b975b6109728961096d8a85611028565b611028565b9260ff92838102908082048514901517156101ec57846109919161104b565b98838102908082048514901517156101ec57846109ad9161104b565b9983810293818504149015171561041f5750508b95949392916109cf9161104b565b986109d8611596565b9c85516109e5908961106b565b90516109f1908a61106b565b6109fa91611028565b9051610a06908b61106b565b610a0f91611028565b8c5282840151610a1f908761106b565b9051610a2b908861106b565b610a3491611028565b9051610a40908961106b565b610a4991611028565b908a01520151610a589161106b565b9151610a639161106b565b610a6c91611028565b9151610a779161106b565b610a8091611028565b81830152519081610aa4916040809180518452602081015160208501520151910152565b606090f35b634e487b7160e01b8a526011845260248afd5b5060ff8c80518781019142835244818301528152610ad981610ee7565b519020169761095f565b634e487b7160e01b8b526011855260248bfd5b60ff81600292518981019142835244818301528152610b1481610ee7565b5190201698610926565b60ff8c80518781019142835244818301528152610b3a81610ee7565b51902016906108e7565b8284346101ff5760603660031901126101ff57606090610272610255610b6936610f73565b611c61565b509190346102c25760203660031901126102c257506102ec6101229235611cb1565b8284346101ff57610122906102ec610bb1610baa36610fe9565b50506113b0565b611242565b8284346101ff576102003660031901126101ff5736604312156101ff57805191610bdf83610f19565b82610204913683116102c257506024905b828210610c0457610122846102ec8761173e565b6020606091610c133685610fa8565b815201910190610bf0565b5091346101ff5760208060031936011261029157833592610c3d611a29565b5080610c47611a29565b9481925b60058410610c60578551806101228982610e9c565b610c76610c718261096d8786611028565b61138f565b610c808584611028565b60018101809111610d2857610c7183610c9892611028565b610ca28685611028565b60028101809111610d1557610c7184610cba92611028565b90885192610cc784610ee7565b83528783015287820152610cdb858961168c565b52610ce6848861168c565b5060038101809111610d0257610cfc909361167d565b92610c4b565b634e487b7160e01b835260118852602483fd5b634e487b7160e01b865260118b52602486fd5b634e487b7160e01b855260118a52602485fd5b50346101ff5760603660031901126101ff57803590602435604435610d6a82610d64818761104b565b95611385565b90604d8111610e4157610d8a9291610d8591600a0a9061106b565b61104b565b926005841015610e1c575b600a8414610dff575b5050610db5610daf61012292611242565b92611242565b926106ae6021825180968651610dd3816020998a8087019101610e54565b8201601760f91b88820152610df0825180938a8785019101610e54565b01036001810187520185610f51565b80919350926001830180931161041f575050610db5610daf610d9e565b9260018101809111610e2e5792610d95565b634e487b7160e01b845260118252602484fd5b634e487b7160e01b865260118452602486fd5b60005b838110610e675750506000910152565b8181015183820152602001610e57565b90602091610e9081518092818552858086019101610e54565b601f01601f1916010190565b91906101e08301926000905b60058210610eb557505050565b6020606082610edb60019487516040809180518452602081015160208501520151910152565b01930191019091610ea8565b6060810190811067ffffffffffffffff821117610f0357604052565b634e487b7160e01b600052604160045260246000fd5b60a0810190811067ffffffffffffffff821117610f0357604052565b6040810190811067ffffffffffffffff821117610f0357604052565b90601f8019910116810190811067ffffffffffffffff821117610f0357604052565b6060906003190112610fa35760405190610f8c82610ee7565b600435825260243560208301526044356040830152565b600080fd5b9190826060910312610fa357604051610fc081610ee7565b604080829480358452602081013560208501520135910152565b602435908115158203610fa357565b6060906003190112610fa357600435906024358015158103610fa3579060443590565b67ffffffffffffffff8111610f0357601f01601f191660200190565b9190820180921161103557565b634e487b7160e01b600052601160045260246000fd5b8115611055570490565b634e487b7160e01b600052601260045260246000fd5b8181029291811591840414171561103557565b906110888261100c565b6110956040519182610f51565b82815280926110a6601f199161100c565b0190602036910137565b8051156111e2576040516110c381610ee7565b604081527f4142434445464748494a4b4c4d4e4f505152535455565758595a61626364656660208201527f6768696a6b6c6d6e6f707172737475767778797a303132333435363738392b2f60408201528151600292838201809211611035576003918290046001600160fe1b038116810361103557611145908594951b61107e565b936020850193829183518401925b838110611191575050505051068060011461117e57600214611173575090565b603d90600019015390565b50603d9081600019820153600119015390565b85600491979293949701918251600190603f9082828260121c16880101518453828282600c1c16880101518385015382828260061c1688010151888501531685010151878201530195929190611153565b506040516020810181811067ffffffffffffffff821117610f03576040526000815290565b906112406022604051809461181760f11b60208301526112308151809260208686019101610e54565b8101036002810185520183610f51565b565b806000917a184f03e93ff9f4daa797ed6e38ed64bf6a1f01000000000000000080821015611377575b506d04ee2d6d415b85acef810000000080831015611368575b50662386f26fc1000080831015611359575b506305f5e1008083101561134a575b506127108083101561133b575b50606482101561132b575b600a80921015611321575b6001908160216112d982870161107e565b95860101905b6112eb575b5050505090565b600019019083906f181899199a1a9b1b9c1cb0b131b232b360811b8282061a83530491821561131c579190826112df565b6112e4565b91600101916112c8565b91906064600291049101916112bd565b600491939204910191386112b2565b600891939204910191386112a5565b60109193920491019138611296565b60209193920491019138611284565b60409350810491503861126b565b8115611055570690565b60ff9060405160208101918252602081526113a981610f35565b5190200690565b60329060405160208101918252602081526113ca81610f35565b51902006603281018091116110355790565b603c9060405160208101918252602081526113f681610f35565b51902006601e81018091116110355790565b6040519061141582610f35565b60018252603160f81b6020830152565b6114b161159360ea60405161143981610f35565b6002815260208101612d3560f01b8152611451611408565b906040519586937f3c666553706563756c61724c69676874696e67206c69676874696e672d636f6c60208601527f6f723d22236666666666662220737572666163655363616c653d2200000000006040860152518092605b860190610e54565b82017f2220726573756c743d227234222073706563756c6172436f6e7374616e743d22605b8201526114ed825180936020607b85019101610e54565b017f222073706563756c61724578706f6e656e743d22312220696e3d227232223e00607b8201527f3c666544697374616e744c6967687420656c65766174696f6e3d22302220617a609a8201526934b6baba341e9118111f60b11b60ba820152701e17b332a234b9ba30b73a2634b3b43a1f60791b60c4820152741e17b332a9b832b1bab630b92634b3b43a34b7339f60591b60d58201520360ca810184520182610f51565b90565b604051906115a382610ee7565b60006040838281528260208201520152565b60ff8160081c9116600a810290808204600a14901517156110355760081c90600582101561166b575b600a8214611646575b60216115fe6115f861159393611242565b93611242565b926040519381611618869351809260208087019101610e54565b8201601760f91b60208201526116378251809360208785019101610e54565b01036001810184520182610f51565b905060009060018101809111156115e757634e487b7160e01b82526011600452602482fd5b906001810180911161103557906115de565b60001981146110355760010190565b90600581101561169d5760051b0190565b634e487b7160e01b600052603260045260246000fd5b60216112409193929360405194816116d5879351809260208087019101610e54565b82016116ea8251809360208085019101610e54565b01600160fd1b6020820152036001810185520183610f51565b90611240602460405184611721829651809260208086019101610e54565b8101631110179f60e11b6020820152036004810185520183610f51565b90604080519161174d83610ee7565b602f83526020808401947f3c6665436f6d706f6e656e745472616e736665722069643d2270616c6574746586526e11103932b9bab63a1e913931ba111f60891b8486015283519061179d82610ee7565b602582527f3c666546756e635220747970653d227461626c6522207461626c6556616c756583830152640399e9118160dd1b9182868201529085516117e181610ee7565b602581527f3c666546756e634720747970653d227461626c6522207461626c6556616c75658582015283878201529286519061181c82610ee7565b602582527f3c666546756e634220747970653d227461626c6522207461626c6556616c75658683015287820152946000955b60059081881015611977578861188961187c61186a8b8861168c565b519761187689516115b5565b906116b3565b976118768a8901516115b5565b95015160089060ff81831c9116600a9081810290808204831490151715611035578a931c94851015611961575b8414611935575b9161192161192c94926118db6118d561192696611242565b94611242565b938d5194816118f38793518092868087019101610e54565b8201601760f91b84820152611912825180936021968785019101610e54565b01036001810185520183610f51565b6116b3565b9661167d565b9593929361184e565b9250506000916001810180911161194d5787906118bd565b634e487b7160e01b83526011600452602483fd5b93915060018201809211611035578891936118b6565b9199603697506115939893506119cb99969591506119ba6119b46119b4751e17b332a1b7b6b837b732b73a2a3930b739b332b91f60511b97611703565b93611703565b9351998a97518092888a0190610e54565b86016119df82518093888085019101610e54565b016119f282518093878085019101610e54565b01611a0582518093868085019101610e54565b0191820152036016810184520182610f51565b90600381101561169d5760051b0190565b60405190611a3682610f19565b8160005b60a08110611a46575050565b602090611a51611596565b8184015201611a3a565b611a63611a29565b50611a6d8161138f565b906001810180821161103557611a829061138f565b906002810180911161103557611a979061138f565b916040805191611aa683610ee7565b80835260209283810194855282810195865260ff91820395828711611035578551830395838711611035578151840393841161103557845197611ae889610ee7565b885285880196875284880193845282519060559081830183116110355780519180830183116110355784518181018111611035578190895195611b2a87610ee7565b82610100968780968194088952088b870152088784015284519360aa918286018611611035575190828201821161103557519082820182116110355782849182828c5199611b778b610ee7565b0888520889860152088583015284519760a0890189811067ffffffffffffffff821117610f0357865283895286890152848801526060870152519351905192825194611bc286610ee7565b8552840152820152608082015290565b611bda611596565b5060008091819082905b60058210611c1357505060058092938160405195611c0187610ee7565b04855204602084015204604082015290565b90926107d4611c4a611c34611c5793611c2c888761168c565b515190611028565b966020611c41888761168c565b51015190611028565b936040611c41878661168c565b9093929193611be4565b611c69611596565b50805160ff90810391818311611035576020810151820390828211611035576040015182039182116110355760405192611ca284610ee7565b83526020830152604082015290565b60405190611cbe82610f35565b600c82526b6672616374616c4e6f69736560a01b6020830152611ce0816113dc565b6064811061248357610108611cf491611242565b905b6001604051602081019083825260208152611d1081610f35565b519020166002810180911161103557611d2890611242565b90611d32816113b0565b611d3b90611242565b90611d4590611a5b565b611d4e81611bd2565b91611d588261173e565b92611d61611425565b90611d6b90611c61565b611d7490612506565b918351611d8090612506565b6020850151611d8e90612506565b6040860151611d9c90612506565b926060870151611dab90612506565b9660800151611db990612506565b986040519b8c809c602082017f3c7376672077696474683d2235303022206865696768743d22353030222076699052604082017f6577426f783d223020302035303020353030222076657273696f6e3d22312e319052606082017f2220786d6c6e733d22687474703a2f2f7777772e77332e6f72672f323030302f90526439bb33911f60d91b608083015260858201651e3232b3399f60d11b9052608b82017f3c66696c7465722069643d22637261636b65642d6c6176612220636f6c6f722d905260ab82017f696e746572706f6c6174696f6e2d66696c746572733d2273524742223e000000905260c882017f3c6665466c6f6f6420666c6f6f642d636f6c6f723d222335413541354122207290526d32b9bab63a1e9139189a9110179f60911b60e883015260f682017f3c666554757262756c656e636520626173654672657175656e63793d220000009052805190816101138094019160200191611f1f92610e54565b8d01906711103a3cb8329e9160c11b9082015281519061011b92828483019160200191611f4b92610e54565b01906d1110373ab6a7b1ba30bb32b99e9160911b9082015281519061012992828483019160200191611f7c92610e54565b6f11103932b9bab63a1e9139189110179f60811b9101918201527f3c6665446973706c6163656d656e744d617020726573756c743d2272352220786101398201527f4368616e6e656c53656c6563746f723d22522220696e323d2272312220696e3d6101598201527f2272312220794368616e6e656c53656c6563746f723d224722207363616c653d610179820152601160f91b610199820152815161019a9290919061203190839085840190602001610e54565b0192631110179f60e11b8099819786838098968197015261019e81017f3c6665436f6d706f7369746520726573756c743d22723222206f70657261746f90526101be81017f723d22696e2220696e3d227231352220696e323d22723522202f3e000000000090528151906101d9928284830191602001916120b192610e54565b7f3c6665436f6d706f73697465206b313d22302e3522206b333d223122206b323d9101918201527f222d302e352220696e323d2272322220696e3d22723422206f70657261746f726101f98201527f3d2261726974686d657469632220726573756c743d2272393122206b343d223061021982015261023981018390527f3c6665436f6d706f7369746520696e3d227239312220726573756c743d22723461023d8201527f22206f70657261746f723d2261726974686d6574696322206b323d223022206b61025d8201527f333d22342220696e323d2272393122206b313d223022206b343d222d3022202f61027d820152601f60f91b61029d820152815161029e929091906121c990839085840190602001610e54565b019081017f3c6665466c6f6f6420726573756c743d22726573756c74312220666c6f6f642d90526631b7b637b91e9160c91b6102be8201528851906102c599828b8301916020019161221a92610e54565b01978801527f3c6665426c656e64206d6f64653d226e6f726d616c2220696e3d2272637422206102c98801526f34b7191e913932b9bab63a189110179f60811b6102e9880152681e17b334b63a32b91f60b91b6102f9880152661e17b232b3399f60c91b6103028801527f3c726563742077696474683d2235303022206865696768743d223530302220666103098801527f696c7465723d2275726c2823637261636b65642d6c6176612922207374796c656103298801527f3d2266696c7465723a75726c2823637261636b65642d6c6176612922202f3e006103498801527f3c726563742077696474683d22353022206865696768743d2235302220783d2261036888018190526e1811103c9e911811103334b6361e9160891b61038889015281519097610397928492919061235990839086840190602001610e54565b01918201528661039b8201526f1a9811103c9e911811103334b6361e9160811b6103bb8201528251906103cb9382858301916020019161239892610e54565b0191820152846103cf8201527018981811103c9e911811103334b6361e9160791b6103ef820152825190610400938285830191602001916123d892610e54565b01918201528261040482015270189a9811103c9e911811103334b6361e9160791b6104248201528351906104359482868301916020019161241892610e54565b01928301526104398201527019181811103c9e911811103334b6361e9160791b61045982015282519061046a9382858301916020019161245792610e54565b019182015261046e8101651e17b9bb339f60d11b90520361045481018252610474016115939082610f51565b600a81106124c35761249490611242565b6124bd60236040518093620302e360ec1b60208301526101638151809260208686019101610e54565b90611cf6565b6124cc90611242565b6124bd60246040518093630302e30360e41b60208301526124f68151809260208686019101610e54565b8101036004810184520182610f51565b61159360296125158351611242565b61252f60406125276020870151611242565b950151611242565b604051948592630e4cec4560e31b6020850152612556815180926020602488019101610e54565b83019061016160f51b9182602482015261257a825180936020602685019101610e54565b01906026820152612595825180936020602885019101610e54565b01602960f81b6028820152036009810184520182610f5156fea264697066735822122016876c84fc2b6dd629df48c7393704d6f412849749dd63cf62e8b9fc5977654f64736f6c63430008110033",
    "linkReferences": {}
  },
  "methodIdentifiers": {
    "averageColors((uint256,uint256,uint256)[5])": "ea44b3ac",
    "averageWithWhite((uint256,uint256,uint256))": "919f9650",
    "complementaryColor((uint256,uint256,uint256))": "7486c451",
    "constructImageURI(uint256)": "a929e684",
    "divideAndFormat(uint256,uint256,uint256)": "167feb30",
    "generateComponentTransfer(uint256)": "8df4db16",
    "generateComponentTransfer(uint256,(uint256,uint256,uint256)[5])": "547fe360",
    "generateFrequency(uint256,bool)": "ed7ca60e",
    "generateOctaves(uint256,bool,uint256)": "a71a0bfd",
    "generateRandomColorPalette(uint256)": "385f81b0",
    "generateSVG(uint256)": "6dcee4ca",
    "generateScale(uint256,bool,uint256)": "63d265a1",
    "generateSpecularLighting(uint256,bool)": "b7eb3f75",
    "generateTriadicColors(uint256)": "ddede359",
    "randomMix((uint256,uint256,uint256),(uint256,uint256,uint256),(uint256,uint256,uint256),uint256)": "754f4dec"
  },
  "id": 28
}