{
  "abi": [
    {
      "inputs": [
        {
          "internalType": "uint256",
          "name": "seed",
          "type": "uint256"
        }
      ],
      "name": "constructImageURI",
      "outputs": [
        {
          "internalType": "string",
          "name": "",
          "type": "string"
        }
      ],
      "stateMutability": "view",
      "type": "function"
    },
    {
      "inputs": [
        {
          "internalType": "uint256",
          "name": "input",
          "type": "uint256"
        },
        {
          "internalType": "uint256",
          "name": "divisor",
          "type": "uint256"
        },
        {
          "internalType": "uint256",
          "name": "decimalPlaces",
          "type": "uint256"
        }
      ],
      "name": "divideAndFormat",
      "outputs": [
        {
          "internalType": "string",
          "name": "",
          "type": "string"
        }
      ],
      "stateMutability": "view",
      "type": "function"
    },
    {
      "inputs": [
        {
          "internalType": "uint256",
          "name": "seed",
          "type": "uint256"
        }
      ],
      "name": "generateColorPalette",
      "outputs": [
        {
          "components": [
            {
              "internalType": "uint256",
              "name": "r",
              "type": "uint256"
            },
            {
              "internalType": "uint256",
              "name": "g",
              "type": "uint256"
            },
            {
              "internalType": "uint256",
              "name": "b",
              "type": "uint256"
            }
          ],
          "internalType": "struct Fossil.RGB[5]",
          "name": "",
          "type": "tuple[5]"
        }
      ],
      "stateMutability": "view",
      "type": "function"
    },
    {
      "inputs": [
        {
          "internalType": "uint256",
          "name": "tokenId",
          "type": "uint256"
        },
        {
          "components": [
            {
              "internalType": "uint256",
              "name": "r",
              "type": "uint256"
            },
            {
              "internalType": "uint256",
              "name": "g",
              "type": "uint256"
            },
            {
              "internalType": "uint256",
              "name": "b",
              "type": "uint256"
            }
          ],
          "internalType": "struct Fossil.RGB[5]",
          "name": "colors",
          "type": "tuple[5]"
        }
      ],
      "name": "generateComponentTransfer",
      "outputs": [
        {
          "internalType": "string",
          "name": "",
          "type": "string"
        }
      ],
      "stateMutability": "view",
      "type": "function"
    },
    {
      "inputs": [
        {
          "internalType": "uint256",
          "name": "tokenId",
          "type": "uint256"
        }
      ],
      "name": "generateComponentTransfer",
      "outputs": [
        {
          "internalType": "string",
          "name": "",
          "type": "string"
        }
      ],
      "stateMutability": "view",
      "type": "function"
    },
    {
      "inputs": [
        {
          "internalType": "uint256",
          "name": "tokenId",
          "type": "uint256"
        },
        {
          "internalType": "bool",
          "name": "turbulenceType",
          "type": "bool"
        }
      ],
      "name": "generateFrequency",
      "outputs": [
        {
          "internalType": "uint256",
          "name": "",
          "type": "uint256"
        },
        {
          "internalType": "string",
          "name": "",
          "type": "string"
        }
      ],
      "stateMutability": "view",
      "type": "function"
    },
    {
      "inputs": [
        {
          "internalType": "uint256",
          "name": "tokenId",
          "type": "uint256"
        },
        {
          "internalType": "bool",
          "name": "isFractalNoise",
          "type": "bool"
        },
        {
          "internalType": "uint256",
          "name": "frequency",
          "type": "uint256"
        }
      ],
      "name": "generateOctaves",
      "outputs": [
        {
          "internalType": "string",
          "name": "",
          "type": "string"
        }
      ],
      "stateMutability": "view",
      "type": "function"
    },
    {
      "inputs": [
        {
          "internalType": "uint256",
          "name": "seed",
          "type": "uint256"
        }
      ],
      "name": "generateSVG",
      "outputs": [
        {
          "internalType": "string",
          "name": "",
          "type": "string"
        }
      ],
      "stateMutability": "view",
      "type": "function"
    },
    {
      "inputs": [
        {
          "internalType": "uint256",
          "name": "tokenId",
          "type": "uint256"
        },
        {
          "internalType": "bool",
          "name": "isFractalNoise",
          "type": "bool"
        },
        {
          "internalType": "uint256",
          "name": "frequency",
          "type": "uint256"
        }
      ],
      "name": "generateScale",
      "outputs": [
        {
          "internalType": "string",
          "name": "",
          "type": "string"
        }
      ],
      "stateMutability": "view",
      "type": "function"
    },
    {
      "inputs": [
        {
          "internalType": "uint256",
          "name": "tokenId",
          "type": "uint256"
        },
        {
          "internalType": "bool",
          "name": "isFractalNoise",
          "type": "bool"
        }
      ],
      "name": "generateSpecularLighting",
      "outputs": [
        {
          "internalType": "string",
          "name": "",
          "type": "string"
        }
      ],
      "stateMutability": "view",
      "type": "function"
    }
  ],
  "bytecode": {
    "object": "0x608060405234801561001057600080fd5b50611f9e806100206000396000f3fe608060405234801561001057600080fd5b506004361061009e5760003560e01c80638df4db16116100665780638df4db1614610125578063a71a0bfd14610138578063a929e6841461014b578063b7eb3f751461015e578063ed7ca60e1461017157600080fd5b8063167feb30146100a357806336341149146100cc578063547fe360146100ec57806363d265a1146100ff5780636dcee4ca14610112575b600080fd5b6100b66100b136600461105e565b610192565b6040516100c391906110da565b60405180910390f35b6100df6100da3660046110ed565b610229565b6040516100c39190611106565b6100b66100fa3660046111b3565b6102dc565b6100b661010d366004611264565b6104c7565b6100b66101203660046110ed565b61053b565b6100b66101333660046110ed565b610658565b6100b6610146366004611264565b6107c2565b6100b66101593660046110ed565b610848565b6100b661016c366004611299565b6108c0565b61018461017f366004611299565b6109ad565b6040516100c39291906112c5565b606060006101a0848661130a565b905060006101ae858761131e565b90506000856101be86600a611416565b6101c89084611422565b6101d2919061130a565b9050600581106101ea576101e7816001611439565b90505b6101f383610a6d565b6101fc82610a6d565b60405160200161020d929190611468565b60405160208183030381529060405293505050505b9392505050565b610231610fee565b610239610fee565b60005b60058110156102d5576040518060600160405280610268600060ff85896102639190611439565b610b00565b8152602001610289600060ff61027e868a611439565b610263906001611439565b81526020016102aa600060ff61029f868a611439565b610263906002611439565b90528282600581106102be576102be6114a4565b6020020152806102cd816114ba565b91505061023c565b5092915050565b60606000604051806060016040528060228152602001611e9e6022913990506000604051806060016040528060238152602001611f236023913990506000604051806060016040528060238152602001611f466023913990506000604051806060016040528060238152602001611ec060239139905060005b600581101561042c576000878260058110610372576103726114a4565b602002015190508461038c82600001516101006002610192565b60405160200161039d9291906114d3565b6040516020818303038152906040529450836103c182602001516101006002610192565b6040516020016103d29291906114d3565b6040516020818303038152906040529350826103f682604001516101006002610192565b6040516020016104079291906114d3565b6040516020818303038152906040529250508080610424906114ba565b915050610355565b508260405160200161043e919061150e565b604051602081830303815290604052925081604051602001610460919061150e565b604051602081830303815290604052915080604051602001610482919061150e565b6040516020818303038152906040529050838383836040516020016104aa9493929190611536565b60408051601f198184030181529190529450505050505b92915050565b606082156105235760968211156104f4576104ed6104e86000601987610b00565b610a6d565b9050610222565b603282111561050d576104ed6104e86019604b87610b00565b8115610523576104ed6104e86032606487610b00565b6105336104e86000605087610b00565b949350505050565b6060600061054883610bf4565b905061057b6040518060400160405280600f81526020016e3130b1b5b3b937bab73221b7b637b960891b81525082610c35565b60408051808201909152600c81526b6672616374616c4e6f69736560a01b60208201526001906000806105ae87856109ad565b9150915060006105bf8886856107c2565b905060006105ce8987866104c7565b905060006105df8a6100fa8c610229565b9050610616604051806040016040528060138152602001723332a1b7b6b837b732b73a2a3930b739b332b960691b81525082610c35565b838684846106248e8c6108c0565b8560405160200161063a969594939291906115ae565b60405160208183030381529060405298505050505050505050919050565b60606001610664611037565b60005b600381101561078e576040805180820190915260018152600360fc1b602082015260005b60028110156107435760006106a681600a610263898c611439565b9050600081600a146106df576106bb82610a6d565b6040516020016106cb9190611a25565b6040516020818303038152906040526106fa565b604051806040016040528060018152602001603160f81b8152505b9050838160405160200161070f929190611a4f565b6040516020818303038152906040529350868061072b906114ba565b9750505050808061073b906114ba565b91505061068b565b50806040516020016107559190611a7f565b604051602081830303815290604052838360038110610776576107766114a4565b60200201525080610786816114ba565b915050610667565b50805160208083015160408085015190516107aa949301611aa5565b60405160208183030381529060405292505050919050565b60606000831561082f57606483106107dc5750600161081e565b603283106107f8576107f16002600587610b00565b905061081e565b601483111561080e576107f16003600587610b00565b61081b6004600887610b00565b90505b61082781610a6d565b915050610222565b61083f6104e86002600588610b00565b95945050505050565b606060006108558361053b565b905061086081610c7e565b600061086b82610cc4565b90506000816040516020016108809190611bfa565b60408051601f198184030181528282019091526015825274656e6420636f6e737472756374496d61676555524960581b6020830152915061053390610c7e565b606060006108d46104e86002600487610b00565b6040516020016108e49190611c3f565b604051602081830303815290604052905060006109076104e86000606388610b00565b6040516020016109179190611c68565b60408051601f19818403018152828201909152600c82526b737572666163655363616c6560a01b6020830152915061094f9083610c35565b6109816040518060400160405280601081526020016f1cdc1958dd5b185c90dbdb9cdd185b9d60821b81525082610c35565b8181604051602001610994929190611c85565b6040516020818303038152906040529250505092915050565b60006060600083156109cd576109c66014609687610b00565b90506109dd565b6109da6001603c87610b00565b90505b606060648210610a16576109f082610a6d565b604051602001610a009190611a25565b6040516020818303038152906040529050610a62565b600a8210610a3757610a2782610a6d565b604051602001610a009190611ddb565b610a4082610a6d565b604051602001610a509190611e06565b60405160208183030381529060405290505b909590945092505050565b60606000610a7a83610e17565b600101905060008167ffffffffffffffff811115610a9a57610a9a611151565b6040519080825280601f01601f191660200182016040528015610ac4576020820181803683370190505b5090508181016020015b600019016f181899199a1a9b1b9c1cb0b131b232b360811b600a86061a8153600a8504945084610ace57509392505050565b6000838311610b565760405162461bcd60e51b815260206004820152601c60248201527f6d6178206d7573742062652067726561746572207468616e206d696e0000000060448201526064015b60405180910390fd5b82600003610ba65760405162461bcd60e51b815260206004820152601a60248201527f6d6178206d7573742062652067726561746572207468616e20300000000000006044820152606401610b4d565b600082604051602001610bbb91815260200190565b60408051601f198184030181529190528051602090910120905084610be08186611e32565b610bea908361131e565b61083f9190611439565b6060610c0f610c08600062ffffff85610b00565b6003610eef565b604051602001610c1f9190611e45565b6040516020818303038152906040529050919050565b610c7a8282604051602401610c4b929190611e61565b60408051601f198184030181529190526020810180516001600160e01b0316634b5c427760e01b179052610fcd565b5050565b610cc181604051602401610c9291906110da565b60408051601f198184030181529190526020810180516001600160e01b031663104c13eb60e21b179052610fcd565b50565b60608151600003610ce357505060408051602081019091526000815290565b6000604051806060016040528060408152602001611ee36040913990506000600384516002610d129190611439565b610d1c919061130a565b610d27906004611422565b67ffffffffffffffff811115610d3f57610d3f611151565b6040519080825280601f01601f191660200182016040528015610d69576020820181803683370190505b509050600182016020820185865187015b80821015610dd5576003820191508151603f8160121c168501518453600184019350603f81600c1c168501518453600184019350603f8160061c168501518453600184019350603f8116850151845350600183019250610d7a565b5050600386510660018114610df15760028114610e0457610e0c565b603d6001830353603d6002830353610e0c565b603d60018303535b509195945050505050565b60008072184f03e93ff9f4daa797ed6e38ed64bf6a1f0160401b8310610e565772184f03e93ff9f4daa797ed6e38ed64bf6a1f0160401b830492506040015b6d04ee2d6d415b85acef81000000008310610e82576d04ee2d6d415b85acef8100000000830492506020015b662386f26fc100008310610ea057662386f26fc10000830492506010015b6305f5e1008310610eb8576305f5e100830492506008015b6127108310610ecc57612710830492506004015b60648310610ede576064830492506002015b600a83106104c15760010192915050565b60606000610efe836002611422565b67ffffffffffffffff811115610f1657610f16611151565b6040519080825280601f01601f191660200182016040528015610f40576020820181803683370190505b5080519091505b8015610fc5576f181899199a1a9b1b9c1cb0b131b232b360811b85600f1660108110610f7557610f756114a4565b1a60f81b82610f85600184611e32565b81518110610f9557610f956114a4565b60200101906001600160f81b031916908160001a90535060049490941c9380610fbd81611e86565b915050610f47565b509392505050565b80516a636f6e736f6c652e6c6f67602083016000808483855afa5050505050565b6040518060a001604052806005905b61102160405180606001604052806000815260200160008152602001600081525090565b815260200190600190039081610ffd5790505090565b60405180606001604052806003905b60608152602001906001900390816110465790505090565b60008060006060848603121561107357600080fd5b505081359360208301359350604090920135919050565b60005b838110156110a557818101518382015260200161108d565b50506000910152565b600081518084526110c681602086016020860161108a565b601f01601f19169290920160200192915050565b60208152600061022260208301846110ae565b6000602082840312156110ff57600080fd5b5035919050565b6101e08101818360005b600581101561114857815180518452602080820151818601526040918201519185019190915260609093019290910190600101611110565b50505092915050565b634e487b7160e01b600052604160045260246000fd5b60405160a0810167ffffffffffffffff8111828210171561118a5761118a611151565b60405290565b6040516060810167ffffffffffffffff8111828210171561118a5761118a611151565b6000806102008084860312156111c857600080fd5b83359250602085603f8601126111dd57600080fd5b6111e5611167565b9185019180878411156111f757600080fd5b8287015b84811015611240576060818a0312156112145760008081fd5b61121c611190565b813581528482013585820152604080830135908201528352918301916060016111fb565b50809450505050509250929050565b8035801515811461125f57600080fd5b919050565b60008060006060848603121561127957600080fd5b833592506112896020850161124f565b9150604084013590509250925092565b600080604083850312156112ac57600080fd5b823591506112bc6020840161124f565b90509250929050565b82815260406020820152600061053360408301846110ae565b634e487b7160e01b600052601260045260246000fd5b634e487b7160e01b600052601160045260246000fd5b600082611319576113196112de565b500490565b60008261132d5761132d6112de565b500690565b600181815b8085111561136d578160001904821115611353576113536112f4565b8085161561136057918102915b93841c9390800290611337565b509250929050565b600082611384575060016104c1565b81611391575060006104c1565b81600181146113a757600281146113b1576113cd565b60019150506104c1565b60ff8411156113c2576113c26112f4565b50506001821b6104c1565b5060208310610133831016604e8410600b84101617156113f0575081810a6104c1565b6113fa8383611332565b806000190482111561140e5761140e6112f4565b029392505050565b60006102228383611375565b80820281158282048414176104c1576104c16112f4565b808201808211156104c1576104c16112f4565b6000815161145e81856020860161108a565b9290920192915050565b6000835161147a81846020880161108a565b601760f91b908301908152835161149881600184016020880161108a565b01600101949350505050565b634e487b7160e01b600052603260045260246000fd5b6000600182016114cc576114cc6112f4565b5060010190565b600083516114e581846020880161108a565b8351908301906114f981836020880161108a565b600160fd1b9101908152600101949350505050565b6000825161152081846020870161108a565b631110179f60e11b920191825250600401919050565b60008551611548818460208a0161108a565b85519083019061155c818360208a0161108a565b855191019061156f81836020890161108a565b845191019061158281836020880161108a565b751e17b332a1b7b6b837b732b73a2a3930b739b332b91f60511b91019081526016019695505050505050565b7f3c7376672077696474683d2235303022206865696768743d223530302220766981527f6577426f783d223020302035303020353030222076657273696f6e3d22312e3160208201527f2220786d6c6e733d22687474703a2f2f7777772e77332e6f72672f323030302f60408201526439bb33911f60d91b6060820152651e3232b3399f60d11b60658201527f3c66696c7465722069643d22637261636b65642d6c617661223e000000000000606b8201527f3c6665466c6f6f6420666c6f6f642d636f6c6f723d22726762283135322c313560858201527f322c313532292220726573756c743d2272313522202f3e00000000000000000060a5820152600060bc82017f3c666554757262756c656e636520626173654672657175656e63793d2200000081526116e2601d82018a61144c565b6711103a3cb8329e9160c11b815290506116ff600882018961144c565b6d1110373ab6a7b1ba30bb32b99e9160911b81529050611722600e82018861144c565b6f11103932b9bab63a1e9139189110179f60811b815290507f3c6665446973706c6163656d656e744d617020726573756c743d22723522207860108201527f4368616e6e656c53656c6563746f723d22522220696e323d2272312220696e3d60308201527f2272312220794368616e6e656c53656c6563746f723d224722207363616c653d6050820152601160f91b60708201526117c3607182018761144c565b631110179f60e11b815290507f3c6665436f6d706f7369746520726573756c743d22723222206f70657261746f60048201527f723d22696e2220696e3d227231352220696e323d22723522202f3e0000000000602482015261194f6119496118b9611831603f85018961144c565b7f3c6665436f6d706f73697465206b313d22302e3338373430393222206b333d2281527f3122206b323d222d302e352220696e323d2272322220696e3d22723422206f7060208201527f657261746f723d2261726974686d657469632220726573756c743d227239312260408201526910359a1e91181110179f60b11b6060820152606a0190565b7f3c6665436f6d706f7369746520696e3d227239312220726573756c743d22723481527f22206f70657261746f723d2261726974686d6574696322206b323d223222206b60208201527f333d22332e393737393433342220696e323d2272393122206b313d223022206b6040820152711a1e911698171a9b98991b9b991a1110179f60711b606082015260720190565b8561144c565b681e17b334b63a32b91f60b91b8152661e17b232b3399f60c91b60098201527f3c726563742077696474683d2235303022206865696768743d2235303022206660108201527f696c7465723d2275726c2823637261636b65642d6c6176612922207374796c6560308201527f3d2266696c6c3a236334633462633b66696c6c2d6f7061636974793a313b666960508201527f6c7465723a75726c2823637261636b65642d6c6176612922202f3e00000000006070820152651e17b9bb339f60d11b608b8201526091019998505050505050505050565b61181760f11b815260008251611a4281600285016020870161108a565b9190910160020192915050565b60008351611a6181846020880161108a565b600160fd1b908301908152835161149881600184016020880161108a565b60008251611a9181846020870161108a565b61203160f01b920191825250600201919050565b7f3c6665436f6d706f6e656e745472616e7366657220726573756c743d227265738152653ab63a19111f60d11b60208201527f3c666546756e635220747970653d227461626c6522207461626c6556616c75656026820152600062399e9160e91b8060468401528551611b1f816049860160208a0161108a565b631110179f60e11b6049918501918201527f3c666546756e634720747970653d227461626c6522207461626c6556616c7565604d820152606d810191909152845190611b7282607083016020890161108a565b01611b8660708201631110179f60e11b9052565b7f3c666546756e634220747970653d227461626c6522207461626c6556616c7565607482015262399e9160e91b6094820152611bc460978201611949565b631110179f60e11b8152751e17b332a1b7b6b837b732b73a2a3930b739b332b91f60511b6004820152601a019695505050505050565b7f646174613a696d6167652f7376672b786d6c3b6261736536342c000000000000815260008251611c3281601a85016020870161108a565b91909101601a0192915050565b602d60f81b815260008251611c5b81600185016020870161108a565b9190910160010192915050565b61189760f11b815260008251611a4281600285016020870161108a565b7f3c666553706563756c61724c69676874696e67206c69676874696e672d636f6c81527f6f723d22236666666666662220737572666163655363616c653d220000000000602082015260008351611ce381603b85016020880161108a565b7f2220726573756c743d227234222073706563756c6172436f6e7374616e743d22603b918401918201528351611d2081605b84016020880161108a565b7f222073706563756c61724578706f6e656e743d2231352e313937353334353622605b9290910191820152681034b71e913919111f60b91b607b8201527f3c666544697374616e744c6967687420656c65766174696f6e3d22363022206160848201526b3d34b6baba341e911b18111f60a11b60a4820152701e17b332a234b9ba30b73a2634b3b43a1f60791b60b0820152741e17b332a9b832b1bab630b92634b3b43a34b7339f60591b60c182015260d601949350505050565b620302e360ec1b815260008251611df981600385016020870161108a565b9190910160030192915050565b630302e30360e41b815260008251611e2581600485016020870161108a565b9190910160040192915050565b818103818111156104c1576104c16112f4565b602360f81b815260008251611c5b81600185016020870161108a565b604081526000611e7460408301856110ae565b828103602084015261083f81856110ae565b600081611e9557611e956112f4565b50600019019056fe3c6665436f6d706f6e656e745472616e736665722069643d2270616c65747465223e3c666546756e634220747970653d227461626c6522207461626c6556616c7565733d224142434445464748494a4b4c4d4e4f505152535455565758595a6162636465666768696a6b6c6d6e6f707172737475767778797a303132333435363738392b2f3c666546756e635220747970653d227461626c6522207461626c6556616c7565733d223c666546756e634720747970653d227461626c6522207461626c6556616c7565733d22a26469706673582212206cb9301aac8ff6677975cc8184a8b9f83c51ea5372804a8c8f94242ec79678c664736f6c63430008110033",
    "linkReferences": {}
  },
  "methodIdentifiers": {
    "constructImageURI(uint256)": "a929e684",
    "divideAndFormat(uint256,uint256,uint256)": "167feb30",
    "generateColorPalette(uint256)": "36341149",
    "generateComponentTransfer(uint256)": "8df4db16",
    "generateComponentTransfer(uint256,(uint256,uint256,uint256)[5])": "547fe360",
    "generateFrequency(uint256,bool)": "ed7ca60e",
    "generateOctaves(uint256,bool,uint256)": "a71a0bfd",
    "generateSVG(uint256)": "6dcee4ca",
    "generateScale(uint256,bool,uint256)": "63d265a1",
    "generateSpecularLighting(uint256,bool)": "b7eb3f75"
  },
  "id": 28
}