{
  "abi": [
    {
      "inputs": [
        {
          "components": [
            {
              "internalType": "uint256",
              "name": "r",
              "type": "uint256"
            },
            {
              "internalType": "uint256",
              "name": "g",
              "type": "uint256"
            },
            {
              "internalType": "uint256",
              "name": "b",
              "type": "uint256"
            }
          ],
          "internalType": "struct Fossil.RGB[5]",
          "name": "colors",
          "type": "tuple[5]"
        }
      ],
      "name": "averageColors",
      "outputs": [
        {
          "components": [
            {
              "internalType": "uint256",
              "name": "r",
              "type": "uint256"
            },
            {
              "internalType": "uint256",
              "name": "g",
              "type": "uint256"
            },
            {
              "internalType": "uint256",
              "name": "b",
              "type": "uint256"
            }
          ],
          "internalType": "struct Fossil.RGB",
          "name": "",
          "type": "tuple"
        }
      ],
      "stateMutability": "pure",
      "type": "function"
    },
    {
      "inputs": [
        {
          "components": [
            {
              "internalType": "uint256",
              "name": "r",
              "type": "uint256"
            },
            {
              "internalType": "uint256",
              "name": "g",
              "type": "uint256"
            },
            {
              "internalType": "uint256",
              "name": "b",
              "type": "uint256"
            }
          ],
          "internalType": "struct Fossil.RGB",
          "name": "color",
          "type": "tuple"
        }
      ],
      "name": "averageWithWhite",
      "outputs": [
        {
          "components": [
            {
              "internalType": "uint256",
              "name": "r",
              "type": "uint256"
            },
            {
              "internalType": "uint256",
              "name": "g",
              "type": "uint256"
            },
            {
              "internalType": "uint256",
              "name": "b",
              "type": "uint256"
            }
          ],
          "internalType": "struct Fossil.RGB",
          "name": "",
          "type": "tuple"
        }
      ],
      "stateMutability": "pure",
      "type": "function"
    },
    {
      "inputs": [
        {
          "components": [
            {
              "internalType": "uint256",
              "name": "r",
              "type": "uint256"
            },
            {
              "internalType": "uint256",
              "name": "g",
              "type": "uint256"
            },
            {
              "internalType": "uint256",
              "name": "b",
              "type": "uint256"
            }
          ],
          "internalType": "struct Fossil.RGB",
          "name": "color",
          "type": "tuple"
        }
      ],
      "name": "complementaryColor",
      "outputs": [
        {
          "components": [
            {
              "internalType": "uint256",
              "name": "r",
              "type": "uint256"
            },
            {
              "internalType": "uint256",
              "name": "g",
              "type": "uint256"
            },
            {
              "internalType": "uint256",
              "name": "b",
              "type": "uint256"
            }
          ],
          "internalType": "struct Fossil.RGB",
          "name": "",
          "type": "tuple"
        }
      ],
      "stateMutability": "pure",
      "type": "function"
    },
    {
      "inputs": [
        {
          "internalType": "uint256",
          "name": "seed",
          "type": "uint256"
        }
      ],
      "name": "constructImageURI",
      "outputs": [
        {
          "internalType": "string",
          "name": "",
          "type": "string"
        }
      ],
      "stateMutability": "view",
      "type": "function"
    },
    {
      "inputs": [
        {
          "internalType": "uint256",
          "name": "input",
          "type": "uint256"
        },
        {
          "internalType": "uint256",
          "name": "divisor",
          "type": "uint256"
        },
        {
          "internalType": "uint256",
          "name": "decimalPlaces",
          "type": "uint256"
        }
      ],
      "name": "divideAndFormat",
      "outputs": [
        {
          "internalType": "string",
          "name": "",
          "type": "string"
        }
      ],
      "stateMutability": "view",
      "type": "function"
    },
    {
      "inputs": [
        {
          "internalType": "uint256",
          "name": "tokenId",
          "type": "uint256"
        },
        {
          "components": [
            {
              "internalType": "uint256",
              "name": "r",
              "type": "uint256"
            },
            {
              "internalType": "uint256",
              "name": "g",
              "type": "uint256"
            },
            {
              "internalType": "uint256",
              "name": "b",
              "type": "uint256"
            }
          ],
          "internalType": "struct Fossil.RGB[5]",
          "name": "colors",
          "type": "tuple[5]"
        }
      ],
      "name": "generateComponentTransfer",
      "outputs": [
        {
          "internalType": "string",
          "name": "",
          "type": "string"
        }
      ],
      "stateMutability": "view",
      "type": "function"
    },
    {
      "inputs": [
        {
          "internalType": "uint256",
          "name": "tokenId",
          "type": "uint256"
        }
      ],
      "name": "generateComponentTransfer",
      "outputs": [
        {
          "internalType": "string",
          "name": "",
          "type": "string"
        }
      ],
      "stateMutability": "view",
      "type": "function"
    },
    {
      "inputs": [
        {
          "internalType": "uint256",
          "name": "tokenId",
          "type": "uint256"
        },
        {
          "internalType": "bool",
          "name": "isFractalNoise",
          "type": "bool"
        }
      ],
      "name": "generateFrequency",
      "outputs": [
        {
          "internalType": "uint256",
          "name": "",
          "type": "uint256"
        },
        {
          "internalType": "string",
          "name": "",
          "type": "string"
        }
      ],
      "stateMutability": "view",
      "type": "function"
    },
    {
      "inputs": [
        {
          "internalType": "uint256",
          "name": "tokenId",
          "type": "uint256"
        },
        {
          "internalType": "bool",
          "name": "isFractalNoise",
          "type": "bool"
        },
        {
          "internalType": "uint256",
          "name": "frequency",
          "type": "uint256"
        }
      ],
      "name": "generateOctaves",
      "outputs": [
        {
          "internalType": "string",
          "name": "",
          "type": "string"
        }
      ],
      "stateMutability": "view",
      "type": "function"
    },
    {
      "inputs": [
        {
          "internalType": "uint256",
          "name": "seed",
          "type": "uint256"
        }
      ],
      "name": "generateRandomColorPalette",
      "outputs": [
        {
          "components": [
            {
              "internalType": "uint256",
              "name": "r",
              "type": "uint256"
            },
            {
              "internalType": "uint256",
              "name": "g",
              "type": "uint256"
            },
            {
              "internalType": "uint256",
              "name": "b",
              "type": "uint256"
            }
          ],
          "internalType": "struct Fossil.RGB[5]",
          "name": "",
          "type": "tuple[5]"
        }
      ],
      "stateMutability": "view",
      "type": "function"
    },
    {
      "inputs": [
        {
          "internalType": "uint256",
          "name": "seed",
          "type": "uint256"
        }
      ],
      "name": "generateSVG",
      "outputs": [
        {
          "internalType": "string",
          "name": "",
          "type": "string"
        }
      ],
      "stateMutability": "view",
      "type": "function"
    },
    {
      "inputs": [
        {
          "internalType": "uint256",
          "name": "tokenId",
          "type": "uint256"
        },
        {
          "internalType": "bool",
          "name": "isFractalNoise",
          "type": "bool"
        },
        {
          "internalType": "uint256",
          "name": "frequency",
          "type": "uint256"
        }
      ],
      "name": "generateScale",
      "outputs": [
        {
          "internalType": "string",
          "name": "",
          "type": "string"
        }
      ],
      "stateMutability": "view",
      "type": "function"
    },
    {
      "inputs": [
        {
          "internalType": "uint256",
          "name": "tokenId",
          "type": "uint256"
        },
        {
          "internalType": "bool",
          "name": "isFractalNoise",
          "type": "bool"
        }
      ],
      "name": "generateSpecularLighting",
      "outputs": [
        {
          "internalType": "string",
          "name": "",
          "type": "string"
        }
      ],
      "stateMutability": "view",
      "type": "function"
    },
    {
      "inputs": [
        {
          "internalType": "uint256",
          "name": "seed",
          "type": "uint256"
        }
      ],
      "name": "generateTriadicColors",
      "outputs": [
        {
          "components": [
            {
              "internalType": "uint256",
              "name": "r",
              "type": "uint256"
            },
            {
              "internalType": "uint256",
              "name": "g",
              "type": "uint256"
            },
            {
              "internalType": "uint256",
              "name": "b",
              "type": "uint256"
            }
          ],
          "internalType": "struct Fossil.RGB[5]",
          "name": "",
          "type": "tuple[5]"
        }
      ],
      "stateMutability": "view",
      "type": "function"
    },
    {
      "inputs": [
        {
          "components": [
            {
              "internalType": "uint256",
              "name": "r",
              "type": "uint256"
            },
            {
              "internalType": "uint256",
              "name": "g",
              "type": "uint256"
            },
            {
              "internalType": "uint256",
              "name": "b",
              "type": "uint256"
            }
          ],
          "internalType": "struct Fossil.RGB",
          "name": "color1",
          "type": "tuple"
        },
        {
          "components": [
            {
              "internalType": "uint256",
              "name": "r",
              "type": "uint256"
            },
            {
              "internalType": "uint256",
              "name": "g",
              "type": "uint256"
            },
            {
              "internalType": "uint256",
              "name": "b",
              "type": "uint256"
            }
          ],
          "internalType": "struct Fossil.RGB",
          "name": "color2",
          "type": "tuple"
        },
        {
          "components": [
            {
              "internalType": "uint256",
              "name": "r",
              "type": "uint256"
            },
            {
              "internalType": "uint256",
              "name": "g",
              "type": "uint256"
            },
            {
              "internalType": "uint256",
              "name": "b",
              "type": "uint256"
            }
          ],
          "internalType": "struct Fossil.RGB",
          "name": "color3",
          "type": "tuple"
        },
        {
          "internalType": "uint256",
          "name": "greyControl",
          "type": "uint256"
        }
      ],
      "name": "randomMix",
      "outputs": [
        {
          "components": [
            {
              "internalType": "uint256",
              "name": "r",
              "type": "uint256"
            },
            {
              "internalType": "uint256",
              "name": "g",
              "type": "uint256"
            },
            {
              "internalType": "uint256",
              "name": "b",
              "type": "uint256"
            }
          ],
          "internalType": "struct Fossil.RGB",
          "name": "",
          "type": "tuple"
        }
      ],
      "stateMutability": "view",
      "type": "function"
    }
  ],
  "bytecode": {
    "object": "0x6080806040523461001657612539908161001c8239f35b600080fdfe60406080815260048036101561001457600080fd5b600090813560e01c8063167feb3014610d4a578063385f81b014610c2d578063547fe36014610bc557806363d265a114610b9f5780636dcee4ca14610b7d5780637486c45114610b53578063754f4dec1461080b5780638df4db16146104fd578063919f965014610432578063a71a0bfd146103d7578063a929e684146102ff578063b7eb3f75146102c5578063ddede35914610295578063ea44b3ac146102035763ed7ca60e146100c557600080fd5b346101ff57826003193601126101ff5780356100df610fe9565b156101be576100ed906113eb565b915b5060648210610126575061012261010d61010883611251565b611216565b83519384938452806020850152830190610e86565b0390f35b600a8210610178575061012261013b82611251565b610173602385518093620302e360ec1b60208301526101638151809260208686019101610e63565b8101036003810184520182610f60565b61010d565b61012290610173602461018a85611251565b9286518094630302e30360e41b60208301526101af8151809260208786019101610e63565b81010390810184520182610f60565b602d90845160208101918252602081526101d781610f44565b51902006600f81018091116101ec57916100ef565b634e487b7160e01b835260118252602483fd5b5080fd5b50829034610291576101e03660031901126102915736602312156102915781519061022d82610f28565b816101e49136831161028d5760609550905b8282106102745750505061025561027291611b25565b915180926040809180518452602081015160208501520151910152565bf35b602086916102823685610fb7565b81520191019061023f565b8580fd5b8280fd5b509190346102c25760203660031901126102c257506102b761012292356119ae565b905191829182610eab565b80fd5b8284346101ff57806003193601126101ff57610122906102e3610fe9565b506102ec611417565b9051918291602083526020830190610e86565b5082903461029157602091826003193601126103d3576103226101229235611c04565b938061032d866110bf565b9561037e603a855180997f646174613a696d6167652f7376672b786d6c3b6261736536342c0000000000008a83015261036e815180928c8686019101610e63565b810103601a81018a520188610f60565b83516103b3816103a58982019463104c13eb60e21b86528a60248401526044830190610e86565b03601f198101835282610f60565b51906a636f6e736f6c652e6c6f675afa5051928284938452830190610e86565b8380fd5b509190346102c25760016103ea36610ff8565b50508351602081019182526020815261040281610f44565b51902016926002840180941161041f57610122836102ec86611251565b634e487b7160e01b825260119052602490fd5b5091346101ff5760603660031901126101ff5761044e36610f82565b6104566115bd565b50815161046281610ef6565b60ff815282602082019160ff8352019060ff825282519460ff86018096116104ea5760608661027287876104ad88836104a28a6020860151905190611037565b930151905190611037565b60011c908251946104bd86610ef6565b60011c855260011c6020850152818401525180926040809180518452602081015160208501520151910152565b634e487b7160e01b815260118752602490fd5b5091346101ff57602092836003193601126102915735916001918281519261052484610ef6565b805b60608082101561053b57858201528701610526565b505085879495825b600381106106bd578787610122886106ae60da855183868801519701519684519788927f3c6665436f6d706f6e656e745472616e7366657220726573756c743d2272657389850152653ab63a19111f60d11b878501527f3c666546756e635220747970653d22646973637265746522207461626c655661604685015265363ab2b99e9160d11b908160668601526105e3815180928c606c89019101610e63565b840192631110179f60e11b9384606c8201527f3c666546756e634720747970653d22646973637265746522207461626c6556616070820152826090820152610634825180938d609685019101610e63565b01908360968301527f3c666546756e634220747970653d22646973637265746522207461626c655661609a83015260ba82015261067a825180938b60c085019101610e63565b019060c0820152751e17b332a1b7b6b837b732b73a2a3930b739b332b91f60511b60c48201520360ba810187520185610f60565b51928284938452830190610e86565b85516106c881610f44565b858152600360fc1b88820152845b6002811061073a5750906107359161071a60228951836107008d8396519281849286019101610e63565b810161203160f01b8d820152036002810184520182610f60565b610724828b61196b565b5261072f818a61196b565b506116a4565b610543565b92959197989694906107e36107e9916107538988611037565b8c895181810192835281815261076881610f44565b600a928391519020069182146000146107f6576107dd9150895161078b81610f44565b878152603160f81b82820152925b8a5193816107b08693518092868087019101610e63565b8201600160fd1b848201526107cf825180936021968785019101610e63565b010387810184520182610f60565b976116a4565b936116a4565b98979195909496986106d6565b6108056101086107dd93611251565b92610799565b50829034610291576101403660031901126102915761082936610f82565b9260603660631901126102c25782519361084285610ef6565b60643585526020918286019360843585528587019260a4358452606060c3193601126102915786519461087486610ef6565b60c435865280860160e43581528887019761010435895261012435946108986115bd565b5060038b51858101904282528d44908201528d81526108b681610ef6565b519020069586610b2d578b51858101904282528d44908201528d81526108db81610ef6565b5190206001820190818311610ab857906108f491611394565b905b8c60018903610b05578051878101914283524481830152815261091881610ef6565b5190206001820190818311610af25760029161093391611394565b985b03610acb578c8051878101914283524481830152815261095481610ef6565b51902060018201809211610ab8579061096c91611394565b975b6109818961097c8a85611037565b611037565b9260ff92838102908082048514901517156101ec57846109a09161105a565b98838102908082048514901517156101ec57846109bc9161105a565b9983810293818504149015171561041f5750508b95949392916109de9161105a565b986109e76115bd565b9c85516109f4908961107a565b9051610a00908a61107a565b610a0991611037565b9051610a15908b61107a565b610a1e91611037565b8c5282840151610a2e908761107a565b9051610a3a908861107a565b610a4391611037565b9051610a4f908961107a565b610a5891611037565b908a01520151610a679161107a565b9151610a729161107a565b610a7b91611037565b9151610a869161107a565b610a8f91611037565b81830152519081610ab3916040809180518452602081015160208501520151910152565b606090f35b634e487b7160e01b8a526011845260248afd5b5060ff8c80518781019142835244818301528152610ae881610ef6565b519020169761096e565b634e487b7160e01b8b526011855260248bfd5b60ff81600292518981019142835244818301528152610b2381610ef6565b5190201698610935565b60ff8c80518781019142835244818301528152610b4981610ef6565b51902016906108f6565b8284346101ff5760603660031901126101ff57606090610272610255610b7836610f82565b611bb4565b509190346102c25760203660031901126102c257506102ec6101229235611c04565b8284346101ff57610122906102ec610bc0610bb936610ff8565b50506113bf565b611251565b8284346101ff576102003660031901126101ff5736604312156101ff57805191610bee83610f28565b82610204913683116102c257506024905b828210610c1357610122846102ec87611765565b6020606091610c223685610fb7565b815201910190610bff565b5091346101ff5760208060031936011261029157833592610c4c61197c565b5080610c5661197c565b9481925b60058410610c6f578551806101228982610eab565b610c85610c808261097c8786611037565b61139e565b610c8f8584611037565b60018101809111610d3757610c8083610ca792611037565b610cb18685611037565b60028101809111610d2457610c8084610cc992611037565b90885192610cd684610ef6565b83528783015287820152610cea85896116b3565b52610cf584886116b3565b5060038101809111610d1157610d0b90936116a4565b92610c5a565b634e487b7160e01b835260118852602483fd5b634e487b7160e01b865260118b52602486fd5b634e487b7160e01b855260118a52602485fd5b50346101ff5760603660031901126101ff57803590602435604435610d7982610d73818761105a565b95611394565b90604d8111610e5057610d999291610d9491600a0a9061107a565b61105a565b926005841015610e2b575b600a8414610e0e575b5050610dc4610dbe61012292611251565b92611251565b926106ae6021825180968651610de2816020998a8087019101610e63565b8201601760f91b88820152610dff825180938a8785019101610e63565b01036001810187520185610f60565b80919350926001830180931161041f575050610dc4610dbe610dad565b9260018101809111610e3d5792610da4565b634e487b7160e01b845260118252602484fd5b634e487b7160e01b865260118452602486fd5b60005b838110610e765750506000910152565b8181015183820152602001610e66565b90602091610e9f81518092818552858086019101610e63565b601f01601f1916010190565b91906101e08301926000905b60058210610ec457505050565b6020606082610eea60019487516040809180518452602081015160208501520151910152565b01930191019091610eb7565b6060810190811067ffffffffffffffff821117610f1257604052565b634e487b7160e01b600052604160045260246000fd5b60a0810190811067ffffffffffffffff821117610f1257604052565b6040810190811067ffffffffffffffff821117610f1257604052565b90601f8019910116810190811067ffffffffffffffff821117610f1257604052565b6060906003190112610fb25760405190610f9b82610ef6565b600435825260243560208301526044356040830152565b600080fd5b9190826060910312610fb257604051610fcf81610ef6565b604080829480358452602081013560208501520135910152565b602435908115158203610fb257565b6060906003190112610fb257600435906024358015158103610fb2579060443590565b67ffffffffffffffff8111610f1257601f01601f191660200190565b9190820180921161104457565b634e487b7160e01b600052601160045260246000fd5b8115611064570490565b634e487b7160e01b600052601260045260246000fd5b8181029291811591840414171561104457565b906110978261101b565b6110a46040519182610f60565b82815280926110b5601f199161101b565b0190602036910137565b8051156111f1576040516110d281610ef6565b604081527f4142434445464748494a4b4c4d4e4f505152535455565758595a61626364656660208201527f6768696a6b6c6d6e6f707172737475767778797a303132333435363738392b2f60408201528151600292838201809211611044576003918290046001600160fe1b038116810361104457611154908594951b61108d565b936020850193829183518401925b8381106111a0575050505051068060011461118d57600214611182575090565b603d90600019015390565b50603d9081600019820153600119015390565b85600491979293949701918251600190603f9082828260121c16880101518453828282600c1c16880101518385015382828260061c1688010151888501531685010151878201530195929190611162565b506040516020810181811067ffffffffffffffff821117610f12576040526000815290565b9061124f6022604051809461181760f11b602083015261123f8151809260208686019101610e63565b8101036002810185520183610f60565b565b806000917a184f03e93ff9f4daa797ed6e38ed64bf6a1f01000000000000000080821015611386575b506d04ee2d6d415b85acef810000000080831015611377575b50662386f26fc1000080831015611368575b506305f5e10080831015611359575b506127108083101561134a575b50606482101561133a575b600a80921015611330575b6001908160216112e882870161108d565b95860101905b6112fa575b5050505090565b600019019083906f181899199a1a9b1b9c1cb0b131b232b360811b8282061a83530491821561132b579190826112ee565b6112f3565b91600101916112d7565b91906064600291049101916112cc565b600491939204910191386112c1565b600891939204910191386112b4565b601091939204910191386112a5565b60209193920491019138611293565b60409350810491503861127a565b8115611064570690565b60ff9060405160208101918252602081526113b881610f44565b5190200690565b60329060405160208101918252602081526113d981610f44565b51902006603281018091116110445790565b603c90604051602081019182526020815261140581610f44565b51902006601e81018091116110445790565b6114cb6115ba60f560405161142b81610f44565b600b8152602081016a2d332e313031333131323160a81b815260405161145081610f44565b600a8152611501602082019269322e313337303834323560b01b84526040519788957f3c666553706563756c61724c69676874696e67206c69676874696e672d636f6c60208801527f6f723d22236666666666662220737572666163655363616c653d2200000000006040880152518092605b880190610e63565b8401917f2220726573756c743d227234222073706563756c6172436f6e7374616e743d22605b840152518093607b840190610e63565b017f222073706563756c61724578706f6e656e743d2231352e313937353334353622607b820152681034b71e913919111f60b91b609b8201527f3c666544697374616e744c6967687420656c65766174696f6e3d22363022206160a48201526a3d34b6baba341e9118111f60a91b60c4820152701e17b332a234b9ba30b73a2634b3b43a1f60791b60cf820152741e17b332a9b832b1bab630b92634b3b43a34b7339f60591b60e08201520360d5810184520182610f60565b90565b604051906115ca82610ef6565b60006040838281528260208201520152565b60ff8160081c9116600a810290808204600a14901517156110445760081c906005821015611692575b600a821461166d575b602161162561161f6115ba93611251565b93611251565b92604051938161163f869351809260208087019101610e63565b8201601760f91b602082015261165e8251809360208785019101610e63565b01036001810184520182610f60565b9050600090600181018091111561160e57634e487b7160e01b82526011600452602482fd5b90600181018091116110445790611605565b60001981146110445760010190565b9060058110156116c45760051b0190565b634e487b7160e01b600052603260045260246000fd5b602161124f9193929360405194816116fc879351809260208087019101610e63565b82016117118251809360208085019101610e63565b01600160fd1b6020820152036001810185520183610f60565b9061124f602460405184611748829651809260208086019101610e63565b8101631110179f60e11b6020820152036004810185520183610f60565b60409081519161177483610ef6565b602f83526020918284017f3c6665436f6d706f6e656e745472616e736665722069643d2270616c6574746581526e11103932b9bab63a1e913931ba111f60891b838601528251906117c482610ef6565b602582527f3c666546756e635220747970653d227461626c6522207461626c6556616c756585830152640399e9118160dd1b918285820152845161180781610ef6565b602581527f3c666546756e634720747970653d227461626c6522207461626c6556616c75658782015283868201529285519061184282610ef6565b602582527f3c666546756e634220747970653d227461626c6522207461626c6556616c75658883015286820152936000905b60058210611919575050936118cc96936115ba9693751e17b332a1b7b6b837b732b73a2a3930b739b332b91f60511b936118bb6118b56118b560369a61172a565b9361172a565b9351998a97518092888a0190610e63565b86016118e082518093888085019101610e63565b016118f382518093878085019101610e63565b0161190682518093868085019101610e63565b0191820152036016810184520182610f60565b909461195f61196591611948896119576119489961194861194e8f9a61193f8f8c6116b3565b519d8e516115dc565b906116da565b998c01516115dc565b9801516115dc565b956116a4565b90611874565b9060038110156116c45760051b0190565b6040519061198982610f28565b8160005b60a08110611999575050565b6020906119a46115bd565b818401520161198d565b6119b661197c565b506119c08161139e565b9060018101808211611044576119d59061139e565b9060028101809111611044576119ea9061139e565b9160408051916119f983610ef6565b80835260209283810194855282810195865260ff91820395828711611044578551830395838711611044578151840393841161104457845197611a3b89610ef6565b885285880196875284880193845282519060559081830183116110445780519180830183116110445784518181018111611044578190895195611a7d87610ef6565b82610100968780968194088952088b870152088784015284519360aa918286018611611044575190828201821161104457519082820182116110445782849182828c5199611aca8b610ef6565b0888520889860152088583015284519760a0890189811067ffffffffffffffff821117610f1257865283895286890152848801526060870152519351905192825194611b1586610ef6565b8552840152820152608082015290565b611b2d6115bd565b5060008091819082905b60058210611b6657505060058092938160405195611b5487610ef6565b04855204602084015204604082015290565b90926107e3611b9d611b87611baa93611b7f88876116b3565b515190611037565b966020611b9488876116b3565b51015190611037565b936040611b9487866116b3565b9093929193611b37565b611bbc6115bd565b50805160ff90810391818311611044576020810151820390828211611044576040015182039182116110445760405192611bf584610ef6565b83526020830152604082015290565b60405190611c1182610f44565b600c82526b6672616374616c4e6f69736560a01b6020830152611c33816113eb565b606481106123d857610108611c4791611251565b905b6001604051602081019083825260208152611c6381610f44565b519020166002810180911161104457611c7b90611251565b90611c85816113bf565b611c8e90611251565b90611c98906119ae565b611ca181611b25565b91611cab82611765565b92611cb4611417565b90611cbe90611bb4565b611cc79061245b565b918351611cd39061245b565b6020850151611ce19061245b565b6040860151611cef9061245b565b926060870151611cfe9061245b565b9660800151611d0c9061245b565b986040519b8c809c602082017f3c7376672077696474683d2235303022206865696768743d22353030222076699052604082017f6577426f783d223020302035303020353030222076657273696f6e3d22312e319052606082017f2220786d6c6e733d22687474703a2f2f7777772e77332e6f72672f323030302f90526439bb33911f60d91b608083015260858201651e3232b3399f60d11b9052608b82017f3c66696c7465722069643d22637261636b65642d6c6176612220636f6c6f722d905260ab82017f696e746572706f6c6174696f6e2d66696c746572733d2273524742223e000000905260c882017f3c6665466c6f6f6420666c6f6f642d636f6c6f723d222334413441344122207290526d32b9bab63a1e9139189a9110179f60911b60e883015260f682017f3c666554757262756c656e636520626173654672657175656e63793d220000009052805190816101138094019160200191611e7292610e63565b8d01906711103a3cb8329e9160c11b9082015281519061011b92828483019160200191611e9e92610e63565b01906d1110373ab6a7b1ba30bb32b99e9160911b9082015281519061012992828483019160200191611ecf92610e63565b6f11103932b9bab63a1e9139189110179f60811b9101918201527f3c6665446973706c6163656d656e744d617020726573756c743d2272352220786101398201527f4368616e6e656c53656c6563746f723d22522220696e323d2272312220696e3d6101598201527f2272312220794368616e6e656c53656c6563746f723d224722207363616c653d610179820152601160f91b610199820152815161019a92909190611f8490839085840190602001610e63565b0192631110179f60e11b8099819786838098968197015261019e81017f3c6665436f6d706f7369746520726573756c743d22723222206f70657261746f90526101be81017f723d22696e2220696e3d227231352220696e323d22723522202f3e000000000090528151906101d99282848301916020019161200492610e63565b7f3c6665436f6d706f73697465206b313d22302e3522206b333d223122206b323d9101918201527f222d302e352220696e323d2272322220696e3d22723422206f70657261746f726101f98201527f3d2261726974686d657469632220726573756c743d2272393122206b343d223061021982015261023981018390527f3c6665436f6d706f7369746520696e3d227239312220726573756c743d22723461023d8201527f22206f70657261746f723d2261726974686d6574696322206b323d223222206b61025d8201527f333d22342220696e323d2272393122206b313d223022206b343d222d302e352261027d8201526210179f60e91b61029d82015281516102a09290919061211e90839085840190602001610e63565b019081017f3c6665466c6f6f6420726573756c743d22726573756c74312220666c6f6f642d90526631b7b637b91e9160c91b6102c08201528851906102c799828b8301916020019161216f92610e63565b01978801527f3c6665426c656e64206d6f64653d226e6f726d616c2220696e3d2272637422206102cb8801526f34b7191e913932b9bab63a189110179f60811b6102eb880152681e17b334b63a32b91f60b91b6102fb880152661e17b232b3399f60c91b6103048801527f3c726563742077696474683d2235303022206865696768743d2235303022206661030b8801527f696c7465723d2275726c2823637261636b65642d6c6176612922207374796c6561032b8801527f3d2266696c7465723a75726c2823637261636b65642d6c6176612922202f3e0061034b8801527f3c726563742077696474683d22353022206865696768743d2235302220783d2261036a88018190526e1811103c9e911811103334b6361e9160891b61038a8901528151909761039992849291906122ae90839086840190602001610e63565b01918201528661039d8201526f1a9811103c9e911811103334b6361e9160811b6103bd8201528251906103cd938285830191602001916122ed92610e63565b0191820152846103d18201527018981811103c9e911811103334b6361e9160791b6103f18201528251906104029382858301916020019161232d92610e63565b01918201528261040682015270189a9811103c9e911811103334b6361e9160791b6104268201528351906104379482868301916020019161236d92610e63565b019283015261043b8201527019181811103c9e911811103334b6361e9160791b61045b82015282519061046c938285830191602001916123ac92610e63565b01918201526104708101651e17b9bb339f60d11b90520361045681018252610476016115ba9082610f60565b600a8110612418576123e990611251565b61241260236040518093620302e360ec1b60208301526101638151809260208686019101610e63565b90611c49565b61242190611251565b61241260246040518093630302e30360e41b602083015261244b8151809260208686019101610e63565b8101036004810184520182610f60565b6115ba602961246a8351611251565b612484604061247c6020870151611251565b950151611251565b604051948592630e4cec4560e31b60208501526124ab815180926020602488019101610e63565b83019061016160f51b918260248201526124cf825180936020602685019101610e63565b019060268201526124ea825180936020602885019101610e63565b01602960f81b6028820152036009810184520182610f6056fea2646970667358221220a4d235fd170539727761d6087533373dc8b0f83cd0a3acd5b03dc731230fec8264736f6c63430008110033",
    "linkReferences": {}
  },
  "methodIdentifiers": {
    "averageColors((uint256,uint256,uint256)[5])": "ea44b3ac",
    "averageWithWhite((uint256,uint256,uint256))": "919f9650",
    "complementaryColor((uint256,uint256,uint256))": "7486c451",
    "constructImageURI(uint256)": "a929e684",
    "divideAndFormat(uint256,uint256,uint256)": "167feb30",
    "generateComponentTransfer(uint256)": "8df4db16",
    "generateComponentTransfer(uint256,(uint256,uint256,uint256)[5])": "547fe360",
    "generateFrequency(uint256,bool)": "ed7ca60e",
    "generateOctaves(uint256,bool,uint256)": "a71a0bfd",
    "generateRandomColorPalette(uint256)": "385f81b0",
    "generateSVG(uint256)": "6dcee4ca",
    "generateScale(uint256,bool,uint256)": "63d265a1",
    "generateSpecularLighting(uint256,bool)": "b7eb3f75",
    "generateTriadicColors(uint256)": "ddede359",
    "randomMix((uint256,uint256,uint256),(uint256,uint256,uint256),(uint256,uint256,uint256),uint256)": "754f4dec"
  },
  "id": 28
}