{
  "abi": [
    {
      "inputs": [],
      "stateMutability": "nonpayable",
      "type": "constructor"
    },
    {
      "anonymous": false,
      "inputs": [
        {
          "indexed": true,
          "internalType": "address",
          "name": "owner",
          "type": "address"
        },
        {
          "indexed": true,
          "internalType": "address",
          "name": "approved",
          "type": "address"
        },
        {
          "indexed": true,
          "internalType": "uint256",
          "name": "tokenId",
          "type": "uint256"
        }
      ],
      "name": "Approval",
      "type": "event"
    },
    {
      "anonymous": false,
      "inputs": [
        {
          "indexed": true,
          "internalType": "address",
          "name": "owner",
          "type": "address"
        },
        {
          "indexed": true,
          "internalType": "address",
          "name": "operator",
          "type": "address"
        },
        {
          "indexed": false,
          "internalType": "bool",
          "name": "approved",
          "type": "bool"
        }
      ],
      "name": "ApprovalForAll",
      "type": "event"
    },
    {
      "anonymous": false,
      "inputs": [
        {
          "indexed": true,
          "internalType": "address",
          "name": "from",
          "type": "address"
        },
        {
          "indexed": true,
          "internalType": "address",
          "name": "to",
          "type": "address"
        },
        {
          "indexed": true,
          "internalType": "uint256",
          "name": "tokenId",
          "type": "uint256"
        }
      ],
      "name": "Transfer",
      "type": "event"
    },
    {
      "inputs": [],
      "name": "_tokenIds",
      "outputs": [
        {
          "internalType": "uint256",
          "name": "_value",
          "type": "uint256"
        }
      ],
      "stateMutability": "view",
      "type": "function"
    },
    {
      "inputs": [
        {
          "internalType": "address",
          "name": "to",
          "type": "address"
        },
        {
          "internalType": "uint256",
          "name": "tokenId",
          "type": "uint256"
        }
      ],
      "name": "approve",
      "outputs": [],
      "stateMutability": "nonpayable",
      "type": "function"
    },
    {
      "inputs": [
        {
          "internalType": "address",
          "name": "owner",
          "type": "address"
        }
      ],
      "name": "balanceOf",
      "outputs": [
        {
          "internalType": "uint256",
          "name": "",
          "type": "uint256"
        }
      ],
      "stateMutability": "view",
      "type": "function"
    },
    {
      "inputs": [
        {
          "internalType": "uint256",
          "name": "seed",
          "type": "uint256"
        }
      ],
      "name": "constructImageURI",
      "outputs": [
        {
          "internalType": "string",
          "name": "",
          "type": "string"
        }
      ],
      "stateMutability": "view",
      "type": "function"
    },
    {
      "inputs": [
        {
          "internalType": "uint256",
          "name": "seed",
          "type": "uint256"
        }
      ],
      "name": "constructTokenURI",
      "outputs": [
        {
          "internalType": "string",
          "name": "",
          "type": "string"
        }
      ],
      "stateMutability": "view",
      "type": "function"
    },
    {
      "inputs": [
        {
          "internalType": "uint256",
          "name": "tokenId",
          "type": "uint256"
        }
      ],
      "name": "generateBackgroundColor",
      "outputs": [
        {
          "internalType": "string",
          "name": "",
          "type": "string"
        }
      ],
      "stateMutability": "view",
      "type": "function"
    },
    {
      "inputs": [
        {
          "internalType": "uint256",
          "name": "tokenId",
          "type": "uint256"
        }
      ],
      "name": "generateFilters",
      "outputs": [
        {
          "internalType": "string",
          "name": "",
          "type": "string"
        }
      ],
      "stateMutability": "view",
      "type": "function"
    },
    {
      "inputs": [
        {
          "internalType": "uint256",
          "name": "tokenId",
          "type": "uint256"
        }
      ],
      "name": "generateFrequency",
      "outputs": [
        {
          "internalType": "string",
          "name": "",
          "type": "string"
        }
      ],
      "stateMutability": "view",
      "type": "function"
    },
    {
      "inputs": [
        {
          "internalType": "uint256",
          "name": "tokenId",
          "type": "uint256"
        }
      ],
      "name": "generateLightingColor",
      "outputs": [
        {
          "internalType": "string",
          "name": "",
          "type": "string"
        }
      ],
      "stateMutability": "view",
      "type": "function"
    },
    {
      "inputs": [
        {
          "internalType": "uint256",
          "name": "tokenId",
          "type": "uint256"
        }
      ],
      "name": "generateOctaves",
      "outputs": [
        {
          "internalType": "string",
          "name": "",
          "type": "string"
        }
      ],
      "stateMutability": "view",
      "type": "function"
    },
    {
      "inputs": [
        {
          "internalType": "uint256",
          "name": "tokenId",
          "type": "uint256"
        }
      ],
      "name": "generateScale",
      "outputs": [
        {
          "internalType": "string",
          "name": "",
          "type": "string"
        }
      ],
      "stateMutability": "view",
      "type": "function"
    },
    {
      "inputs": [
        {
          "internalType": "uint256",
          "name": "tokenId",
          "type": "uint256"
        }
      ],
      "name": "generateStyles",
      "outputs": [
        {
          "internalType": "string",
          "name": "",
          "type": "string"
        }
      ],
      "stateMutability": "view",
      "type": "function"
    },
    {
      "inputs": [
        {
          "internalType": "uint256",
          "name": "tokenId",
          "type": "uint256"
        }
      ],
      "name": "generateTurbulenceType",
      "outputs": [
        {
          "internalType": "string",
          "name": "",
          "type": "string"
        }
      ],
      "stateMutability": "view",
      "type": "function"
    },
    {
      "inputs": [
        {
          "internalType": "uint256",
          "name": "tokenId",
          "type": "uint256"
        }
      ],
      "name": "getApproved",
      "outputs": [
        {
          "internalType": "address",
          "name": "",
          "type": "address"
        }
      ],
      "stateMutability": "view",
      "type": "function"
    },
    {
      "inputs": [
        {
          "internalType": "address",
          "name": "owner",
          "type": "address"
        },
        {
          "internalType": "address",
          "name": "operator",
          "type": "address"
        }
      ],
      "name": "isApprovedForAll",
      "outputs": [
        {
          "internalType": "bool",
          "name": "",
          "type": "bool"
        }
      ],
      "stateMutability": "view",
      "type": "function"
    },
    {
      "inputs": [
        {
          "internalType": "address",
          "name": "to",
          "type": "address"
        }
      ],
      "name": "mint",
      "outputs": [],
      "stateMutability": "nonpayable",
      "type": "function"
    },
    {
      "inputs": [],
      "name": "name",
      "outputs": [
        {
          "internalType": "string",
          "name": "",
          "type": "string"
        }
      ],
      "stateMutability": "view",
      "type": "function"
    },
    {
      "inputs": [],
      "name": "nextToken",
      "outputs": [
        {
          "internalType": "string",
          "name": "",
          "type": "string"
        }
      ],
      "stateMutability": "view",
      "type": "function"
    },
    {
      "inputs": [
        {
          "internalType": "uint256",
          "name": "tokenId",
          "type": "uint256"
        }
      ],
      "name": "ownerOf",
      "outputs": [
        {
          "internalType": "address",
          "name": "",
          "type": "address"
        }
      ],
      "stateMutability": "view",
      "type": "function"
    },
    {
      "inputs": [
        {
          "internalType": "uint256",
          "name": "_tokenId",
          "type": "uint256"
        }
      ],
      "name": "render",
      "outputs": [
        {
          "internalType": "string",
          "name": "",
          "type": "string"
        }
      ],
      "stateMutability": "view",
      "type": "function"
    },
    {
      "inputs": [
        {
          "internalType": "address",
          "name": "from",
          "type": "address"
        },
        {
          "internalType": "address",
          "name": "to",
          "type": "address"
        },
        {
          "internalType": "uint256",
          "name": "tokenId",
          "type": "uint256"
        }
      ],
      "name": "safeTransferFrom",
      "outputs": [],
      "stateMutability": "nonpayable",
      "type": "function"
    },
    {
      "inputs": [
        {
          "internalType": "address",
          "name": "from",
          "type": "address"
        },
        {
          "internalType": "address",
          "name": "to",
          "type": "address"
        },
        {
          "internalType": "uint256",
          "name": "tokenId",
          "type": "uint256"
        },
        {
          "internalType": "bytes",
          "name": "data",
          "type": "bytes"
        }
      ],
      "name": "safeTransferFrom",
      "outputs": [],
      "stateMutability": "nonpayable",
      "type": "function"
    },
    {
      "inputs": [
        {
          "internalType": "address",
          "name": "operator",
          "type": "address"
        },
        {
          "internalType": "bool",
          "name": "approved",
          "type": "bool"
        }
      ],
      "name": "setApprovalForAll",
      "outputs": [],
      "stateMutability": "nonpayable",
      "type": "function"
    },
    {
      "inputs": [
        {
          "internalType": "bytes4",
          "name": "interfaceId",
          "type": "bytes4"
        }
      ],
      "name": "supportsInterface",
      "outputs": [
        {
          "internalType": "bool",
          "name": "",
          "type": "bool"
        }
      ],
      "stateMutability": "view",
      "type": "function"
    },
    {
      "inputs": [],
      "name": "symbol",
      "outputs": [
        {
          "internalType": "string",
          "name": "",
          "type": "string"
        }
      ],
      "stateMutability": "view",
      "type": "function"
    },
    {
      "inputs": [
        {
          "internalType": "uint256",
          "name": "tokenId",
          "type": "uint256"
        }
      ],
      "name": "tokenURI",
      "outputs": [
        {
          "internalType": "string",
          "name": "",
          "type": "string"
        }
      ],
      "stateMutability": "view",
      "type": "function"
    },
    {
      "inputs": [
        {
          "internalType": "address",
          "name": "from",
          "type": "address"
        },
        {
          "internalType": "address",
          "name": "to",
          "type": "address"
        },
        {
          "internalType": "uint256",
          "name": "tokenId",
          "type": "uint256"
        }
      ],
      "name": "transferFrom",
      "outputs": [],
      "stateMutability": "nonpayable",
      "type": "function"
    }
  ],
  "bytecode": {
    "object": "0x60806040523480156200001157600080fd5b5060405180604001604052806006815260200165119bdcdcda5b60d21b815250604051806040016040528060068152602001651193d4d4d25360d21b81525081600090816200006191906200011e565b5060016200007082826200011e565b505050620001ea565b634e487b7160e01b600052604160045260246000fd5b600181811c90821680620000a457607f821691505b602082108103620000c557634e487b7160e01b600052602260045260246000fd5b50919050565b601f8211156200011957600081815260208120601f850160051c81016020861015620000f45750805b601f850160051c820191505b81811015620001155782815560010162000100565b5050505b505050565b81516001600160401b038111156200013a576200013a62000079565b62000152816200014b84546200008f565b84620000cb565b602080601f8311600181146200018a5760008415620001715750858301515b600019600386901b1c1916600185901b17855562000115565b600085815260208120601f198616915b82811015620001bb578886015182559484019460019091019084016200019a565b5085821015620001da5787850151600019600388901b60f8161c191681555b5050505050600190811b01905550565b6127a380620001fa6000396000f3fe608060405234801561001057600080fd5b50600436106101a95760003560e01c806383e96763116100f9578063aa46a40011610097578063c29bdc6111610071578063c29bdc61146103f1578063c321118c14610404578063c87b56dd14610417578063e985e9c51461042a57600080fd5b8063aa46a400146103a1578063b88d4fde146103ab578063c1652725146103be57600080fd5b806395d89b41116100d357806395d89b411461036057806398bc06f414610368578063a22cb4651461037b578063a929e6841461038e57600080fd5b806383e96763146102fe578063894b4c2e1461032c5780639499ac541461033f57600080fd5b8063497d7a17116101665780636a627842116101405780636a6278421461028a57806370a082311461029d57806381c5644e146102be57806381ec55a4146102eb57600080fd5b8063497d7a1714610251578063620ba6b8146102645780636352211e1461027757600080fd5b806301ffc9a7146101ae57806306fdde03146101d6578063081812fc146101eb578063095ea7b31461021657806323b872dd1461022b57806342842e0e1461023e575b600080fd5b6101c16101bc3660046115a3565b61043d565b60405190151581526020015b60405180910390f35b6101de61048f565b6040516101cd9190611610565b6101fe6101f9366004611623565b610521565b6040516001600160a01b0390911681526020016101cd565b610229610224366004611658565b610548565b005b610229610239366004611682565b610662565b61022961024c366004611682565b610693565b6101de61025f366004611623565b6106ae565b6101de610272366004611623565b6106d1565b6101fe610285366004611623565b6106e8565b6102296102983660046116be565b610748565b6102b06102ab3660046116be565b610789565b6040519081526020016101cd565b6101de6102cc366004611623565b50604080518082019091526004815263626c756560e01b602082015290565b6101de6102f9366004611623565b61080f565b6101de61030c366004611623565b50604080518082019091526005815264626c61636b60d81b602082015290565b6101de61033a366004611623565b610871565b60408051808201909152600581526466616c736560d81b60208201526101de565b6101de6108e0565b6101de610376366004611623565b6108ef565b6102296103893660046116d9565b61096f565b6101de61039c366004611623565b61097a565b6006546102b09081565b6102296103b936600461172b565b6109b2565b6101de6103cc366004611623565b5060408051808201909152600a81526974757262756c656e636560b01b602082015290565b6101de6103ff366004611623565b6109ea565b6101de610412366004611623565b610a3a565b6101de610425366004611623565b610a5f565b6101c1610438366004611807565b610ad2565b60006001600160e01b031982166380ac58cd60e01b148061046e57506001600160e01b03198216635b5e139f60e01b145b8061048957506301ffc9a760e01b6001600160e01b03198316145b92915050565b60606000805461049e9061183a565b80601f01602080910402602001604051908101604052809291908181526020018280546104ca9061183a565b80156105175780601f106104ec57610100808354040283529160200191610517565b820191906000526020600020905b8154815290600101906020018083116104fa57829003601f168201915b5050505050905090565b600061052c82610b00565b506000908152600460205260409020546001600160a01b031690565b6000610553826106e8565b9050806001600160a01b0316836001600160a01b0316036105c55760405162461bcd60e51b815260206004820152602160248201527f4552433732313a20617070726f76616c20746f2063757272656e74206f776e656044820152603960f91b60648201526084015b60405180910390fd5b336001600160a01b03821614806105e157506105e18133610ad2565b6106535760405162461bcd60e51b815260206004820152603d60248201527f4552433732313a20617070726f76652063616c6c6572206973206e6f7420746f60448201527f6b656e206f776e6572206f7220617070726f76656420666f7220616c6c00000060648201526084016105bc565b61065d8383610b62565b505050565b61066c3382610bd0565b6106885760405162461bcd60e51b81526004016105bc90611874565b61065d838383610c2e565b61065d838383604051806020016040528060008152506109b2565b606060006106bf6001600585610d9f565b90506106ca81610dfe565b9392505050565b60606104896106e36000605085610d9f565b610dfe565b6000818152600260205260408120546001600160a01b0316806104895760405162461bcd60e51b8152602060048201526018602482015277115490cdcc8c4e881a5b9d985b1a59081d1bdad95b88125160421b60448201526064016105bc565b610756600680546001019055565b600061076160065490565b905061076c81610e91565b6000828152600760205260409020556107858282610edb565b5050565b60006001600160a01b0382166107f35760405162461bcd60e51b815260206004820152602960248201527f4552433732313a2061646472657373207a65726f206973206e6f7420612076616044820152683634b21037bbb732b960b91b60648201526084016105bc565b506001600160a01b031660009081526003602052604090205490565b606061081a826108ef565b610823836106ae565b61082c846106d1565b604080518082019091526005815264626c61636b60d81b602082015260405160200161085b94939291906118dd565b6040516020818303038152906040529050919050565b6060600061087e83610a3a565b905060006108b261088e83611074565b60405160200161089e9190612241565b604051602081830303815290604052611074565b90506000816040516020016108c791906122ec565b60408051601f1981840301815291905295945050505050565b60606001805461049e9061183a565b606060006109006001603285610d9f565b90506060606482101561093c5761091682610dfe565b6040516020016109269190612331565b60405160208183030381529060405290506106ca565b600a82101561095e5761094e82610dfe565b604051602001610926919061235a565b61096782610dfe565b949350505050565b6107853383836111c7565b6060600061098783610a3a565b905061099281611295565b600061099d82611074565b90506000816040516020016108c79190612384565b6109bc3383610bd0565b6109d85760405162461bcd60e51b81526004016105bc90611874565b6109e4848484846112d8565b50505050565b6060610a0d604080518082019091526004815263626c756560e01b602082015290565b60408051808201909152600581526433b932b2b760d91b602082015260405160200161085b9291906123c9565b6060610a458261080f565b610a4e836109ea565b60405160200161085b929190612484565b6000818152600260205260409020546060906001600160a01b0316610aba5760405162461bcd60e51b81526020600482015260116024820152702737b732bc34b9ba32b73a103a37b5b2b760791b60448201526064016105bc565b60008281526007602052604090205461048990610871565b6001600160a01b03918216600090815260056020908152604080832093909416825291909152205460ff1690565b6000818152600260205260409020546001600160a01b0316610b5f5760405162461bcd60e51b8152602060048201526018602482015277115490cdcc8c4e881a5b9d985b1a59081d1bdad95b88125160421b60448201526064016105bc565b50565b600081815260046020526040902080546001600160a01b0319166001600160a01b0384169081179091558190610b97826106e8565b6001600160a01b03167f8c5be1e5ebec7d5bd14f71427d1e84f3dd0314c0f7b2291e5b200ac8c7c3b92560405160405180910390a45050565b600080610bdc836106e8565b9050806001600160a01b0316846001600160a01b03161480610c035750610c038185610ad2565b806109675750836001600160a01b0316610c1c84610521565b6001600160a01b031614949350505050565b826001600160a01b0316610c41826106e8565b6001600160a01b031614610c675760405162461bcd60e51b81526004016105bc906125ab565b6001600160a01b038216610cc95760405162461bcd60e51b8152602060048201526024808201527f4552433732313a207472616e7366657220746f20746865207a65726f206164646044820152637265737360e01b60648201526084016105bc565b610cd6838383600161130b565b826001600160a01b0316610ce9826106e8565b6001600160a01b031614610d0f5760405162461bcd60e51b81526004016105bc906125ab565b600081815260046020908152604080832080546001600160a01b03199081169091556001600160a01b0387811680865260038552838620805460001901905590871680865283862080546001019055868652600290945282852080549092168417909155905184937fddf252ad1be2c89b69c2b068fc378daa952ba7f163c4a11628f55a4df523b3ef91a4505050565b6000610dab8484612606565b610db6906001612619565b6040805160208101859052908101869052606081018590526080016040516020818303038152906040528051906020012060001c610df49190612642565b6109679085612619565b60606000610e0b83611393565b600101905060008167ffffffffffffffff811115610e2b57610e2b611715565b6040519080825280601f01601f191660200182016040528015610e55576020820181803683370190505b5090508181016020015b600019016f181899199a1a9b1b9c1cb0b131b232b360811b600a86061a8153600a8504945084610e5f57509392505050565b60006005610ea0600143612606565b610eaa9190612656565b6040805191406020830152810183905260600160408051601f19818403018152919052805160209091012092915050565b6001600160a01b038216610f315760405162461bcd60e51b815260206004820181905260248201527f4552433732313a206d696e7420746f20746865207a65726f206164647265737360448201526064016105bc565b6000818152600260205260409020546001600160a01b031615610f965760405162461bcd60e51b815260206004820152601c60248201527f4552433732313a20746f6b656e20616c7265616479206d696e7465640000000060448201526064016105bc565b610fa460008383600161130b565b6000818152600260205260409020546001600160a01b0316156110095760405162461bcd60e51b815260206004820152601c60248201527f4552433732313a20746f6b656e20616c7265616479206d696e7465640000000060448201526064016105bc565b6001600160a01b038216600081815260036020908152604080832080546001019055848352600290915280822080546001600160a01b0319168417905551839291907fddf252ad1be2c89b69c2b068fc378daa952ba7f163c4a11628f55a4df523b3ef908290a45050565b6060815160000361109357505060408051602081019091526000815290565b600060405180606001604052806040815260200161272e60409139905060006003845160026110c29190612619565b6110cc9190612656565b6110d790600461266a565b67ffffffffffffffff8111156110ef576110ef611715565b6040519080825280601f01601f191660200182016040528015611119576020820181803683370190505b509050600182016020820185865187015b80821015611185576003820191508151603f8160121c168501518453600184019350603f81600c1c168501518453600184019350603f8160061c168501518453600184019350603f811685015184535060018301925061112a565b50506003865106600181146111a157600281146111b4576111bc565b603d6001830353603d60028303536111bc565b603d60018303535b509195945050505050565b816001600160a01b0316836001600160a01b0316036112285760405162461bcd60e51b815260206004820152601960248201527f4552433732313a20617070726f766520746f2063616c6c65720000000000000060448201526064016105bc565b6001600160a01b03838116600081815260056020908152604080832094871680845294825291829020805460ff191686151590811790915591519182527f17307eab39ab6107e8899845ad3d59bd9653f200f220920489ca2b5937696c31910160405180910390a3505050565b610b5f816040516024016112a99190611610565b60408051601f198184030181529190526020810180516001600160e01b031663104c13eb60e21b17905261146b565b6112e3848484610c2e565b6112ef8484848461148c565b6109e45760405162461bcd60e51b81526004016105bc90612681565b60018111156109e4576001600160a01b03841615611351576001600160a01b0384166000908152600360205260408120805483929061134b908490612606565b90915550505b6001600160a01b038316156109e4576001600160a01b03831660009081526003602052604081208054839290611388908490612619565b909155505050505050565b60008072184f03e93ff9f4daa797ed6e38ed64bf6a1f0160401b83106113d25772184f03e93ff9f4daa797ed6e38ed64bf6a1f0160401b830492506040015b6d04ee2d6d415b85acef810000000083106113fe576d04ee2d6d415b85acef8100000000830492506020015b662386f26fc10000831061141c57662386f26fc10000830492506010015b6305f5e1008310611434576305f5e100830492506008015b612710831061144857612710830492506004015b6064831061145a576064830492506002015b600a83106104895760010192915050565b80516a636f6e736f6c652e6c6f67602083016000808483855afa5050505050565b60006001600160a01b0384163b1561158257604051630a85bd0160e11b81526001600160a01b0385169063150b7a02906114d09033908990889088906004016126d3565b6020604051808303816000875af192505050801561150b575060408051601f3d908101601f1916820190925261150891810190612710565b60015b611568573d808015611539576040519150601f19603f3d011682016040523d82523d6000602084013e61153e565b606091505b5080516000036115605760405162461bcd60e51b81526004016105bc90612681565b805181602001fd5b6001600160e01b031916630a85bd0160e11b149050610967565b506001949350505050565b6001600160e01b031981168114610b5f57600080fd5b6000602082840312156115b557600080fd5b81356106ca8161158d565b60005b838110156115db5781810151838201526020016115c3565b50506000910152565b600081518084526115fc8160208601602086016115c0565b601f01601f19169290920160200192915050565b6020815260006106ca60208301846115e4565b60006020828403121561163557600080fd5b5035919050565b80356001600160a01b038116811461165357600080fd5b919050565b6000806040838503121561166b57600080fd5b6116748361163c565b946020939093013593505050565b60008060006060848603121561169757600080fd5b6116a08461163c565b92506116ae6020850161163c565b9150604084013590509250925092565b6000602082840312156116d057600080fd5b6106ca8261163c565b600080604083850312156116ec57600080fd5b6116f58361163c565b91506020830135801515811461170a57600080fd5b809150509250929050565b634e487b7160e01b600052604160045260246000fd5b6000806000806080858703121561174157600080fd5b61174a8561163c565b93506117586020860161163c565b925060408501359150606085013567ffffffffffffffff8082111561177c57600080fd5b818701915087601f83011261179057600080fd5b8135818111156117a2576117a2611715565b604051601f8201601f19908116603f011681019083821181831017156117ca576117ca611715565b816040528281528a60208487010111156117e357600080fd5b82602086016020830137600060208483010152809550505050505092959194509250565b6000806040838503121561181a57600080fd5b6118238361163c565b91506118316020840161163c565b90509250929050565b600181811c9082168061184e57607f821691505b60208210810361186e57634e487b7160e01b600052602260045260246000fd5b50919050565b6020808252602d908201527f4552433732313a2063616c6c6572206973206e6f7420746f6b656e206f776e6560408201526c1c881bdc88185c1c1c9bdd9959609a1b606082015260800190565b600081516118d38185602086016115c0565b9290920192915050565b7f3c66696c7465722069643d22637261636b65642d6c617661223e00000000000081527f3c6665476175737369616e426c757220726573756c743d22726573756c743022601a8201527f20696e3d22536f75726365477261706869632220737464446576696174696f6e603a8201527f3d22302e35222069643d226665476175737369616e426c757232333336222f3e605a8201527f3c666554757262756c656e636520626173654672657175656e63793d22302e00607a82015260006119a760998301876118c1565b73011103a3cb8329e913a3ab9313ab632b731b291160651b81527f736565643d2234383822206e756d4f6374617665733d220000000000000000006014820152611ca1611c43611b75611b00611a9a611a94611a45611a09602b89018e6118c1565b7f2220726573756c743d22726573756c7431222069643d22666554757262756c658152693731b29919999c11179f60b11b6020820152602a0190565b7f3c6665446973706c6163656d656e744d617020726573756c743d22726573756c81527f74352220784368616e6e656c53656c6563746f723d225222207363616c653d22602082015260400190565b8a6118c1565b7f2220696e323d22726573756c74312220696e3d22726573756c7431222079436881527f616e6e656c53656c6563746f723d2247222069643d226665446973706c61636560208201526d36b2b73a26b0b819199a1811179f60911b6040820152604e0190565b7f3c6665436f6d706f7369746520726573756c743d22726573756c743222206f7081527f657261746f723d22696e2220696e323d22726573756c74352220696e3d22726560208201527f73756c7430222069643d226665436f6d706f7369746532333432222f3e0000006040820152605d0190565b7f3c666553706563756c61724c69676874696e67206c69676874696e672d636f6c81527f6f723d2234643464346466662220737572666163655363616c653d223222207260208201527f6573756c743d22726573756c7434222073706563756c6172436f6e7374616e7460408201527f3d2232222073706563756c61724578706f6e656e743d2236352220696e3d227260608201527f6573756c7432222069643d22666553706563756c61724c69676874696e6732336080820152631a1b111f60e11b60a082015260a40190565b7f3c666544697374616e744c6967687420656c65766174696f6e3d22363222206181527f7a696d7574683d22323235222069643d22666544697374616e744c6967687432602082015265199a1a11179f60d11b604082015260460190565b741e17b332a9b832b1bab630b92634b3b43a34b7339f60591b81527f3c6665436f6d706f73697465206b313d22322e3522206b333d223122206b323d60158201527f222d302e352220696e323d22726573756c74322220696e3d22726573756c743460358201527f22206f70657261746f723d2261726974686d657469632220726573756c743d2260558201527f726573756c743931222069643d226665436f6d706f7369746532333438222f3e60758201527f3c6665426c656e6420726573756c743d226662536f757263654772617068696360958201527f22206d6f64653d226d756c7469706c792220696e323d22726573756c7439312260b5820152721034b21e913332a13632b73219199a9811179f60691b60d58201527f3c6665436f6c6f724d61747269782076616c7565733d223120302030202d312060e88201527f30203120302031202d312030203120302030202d312030202d32202d302e35206101088201527f302035202d322220696e3d226662536f757263654772617068696322207265736101288201527f756c743d226662536f7572636547726170686963416c706861222069643d22666101488201527232a1b7b637b926b0ba3934bc19199a9911179f60691b6101688201527f3c6665476175737369616e426c757220737464446576696174696f6e3d22382261017b8201527f20696e3d226662536f7572636547726170686963416c7068612220726573756c61019b8201527f743d22726573756c7430222069643d226665476175737369616e426c757232336101bb820152641a9a11179f60d91b6101db8201527f3c66654f66667365742064783d2232222064793d22322220696e3d22726573756101e08201527f6c74302220726573756c743d22726573756c7433222069643d2266654f6666736102008201526832ba19199a9b11179f60b91b6102208201527f3c666553706563756c61724c69676874696e6720696e3d22726573756c7430226102298201527f20726573756c743d22726573756c743122206c69676874696e672d636f6c6f72610249820152611e9160f11b610269820152905061209a61203e611fc961026b8401876118c1565b7f2220737572666163655363616c653d2234222073706563756c6172436f6e737481527f616e743d22302e38222073706563756c61724578706f6e656e743d223135222060208201527f69643d22666553706563756c61724c69676874696e6732333630223e000000006040820152605c0190565b7f3c6665506f696e744c6967687420783d222d353030302220793d222d3130303081527f3022207a3d223230303030222069643d226665506f696e744c696768743233356020820152631c11179f60e11b604082015260440190565b741e17b332a9b832b1bab630b92634b3b43a34b7339f60591b81527f3c6665436f6d706f7369746520696e323d226662536f7572636547726170686960158201527f63416c7068612220696e3d22726573756c74312220726573756c743d2272657360358201527f756c743222206f70657261746f723d22696e222069643d226665436f6d706f7360558201526934ba3299199b1911179f60b11b60758201527f3c6665436f6d706f7369746520696e3d226662536f7572636547726170686963607f8201527f2220726573756c743d22726573756c743422206f70657261746f723d22617269609f8201527f74686d6574696322206b323d223222206b333d22322220696e323d227265737560bf8201527f6c7432222069643d226665436f6d706f7369746532333634222f3e000000000060df8201527f3c6665426c656e64206d6f64653d226461726b656e2220696e323d227265737560fa8201527f6c7434222069643d226665426c656e6432333636222f3e00000000000000000061011a820152681e17b334b63a32b91f60b91b61013182015261013a01979650505050505050565b717b226e616d65223a2022466f7373696c202360701b815261088b60f21b60128201527f226465736372697074696f6e223a202247656e6572617469766520617274000060148201527f22696d616765223a2022646174613a696d6167652f7376672b786d6c3b626173603282015263194d8d0b60e21b605282015281516000906122d38160568501602087016115c0565b61227d60f01b6056939091019283015250605801919050565b7f646174613a6170706c69636174696f6e2f6a736f6e3b6261736536342c00000081526000825161232481601d8501602087016115c0565b91909101601d0192915050565b600360fc1b81526000825161234d8160018501602087016115c0565b9190910160010192915050565b61030360f41b8152600082516123778160028501602087016115c0565b9190910160020192915050565b7f646174613a696d6167652f7376672b786d6c3b6261736536342c0000000000008152600082516123bc81601a8501602087016115c0565b91909101601a0192915050565b661e39ba3cb6329f60c91b81526e0173932b1ba18103d903334b6361d1608d1b6007820152600083516124038160168501602088016115c0565b61207d60f01b6016918401918201526e0173932b1ba18903d903334b6361d1608d1b6018820152835161243d8160278401602088016115c0565b7f3b2066696c7465723a2075726c2823637261636b65642d6c61766129207d000060279290910191820152671e17b9ba3cb6329f60c11b6045820152604d01949350505050565b7f3c73766720786d6c6e733d22687474703a2f2f7777772e77332e6f72672f323081527f30302f737667222077696474683d2235303022206865696768743d22353030226020820152601f60f91b6040820152651e3232b3399f60d11b6041820152600083516124fb8160478501602088016115c0565b661e17b232b3399f60c91b604791840191820152835161252281604e8401602088016115c0565b7f3c7265637420636c6173733d227265637430222077696474683d2235303022209101604e8101919091526d3432b4b3b43a1e911a981811179f60911b606e82018190527f3c7265637420636c6173733d227265637431222077696474683d223530302220607c830152609c820152651e17b9bb339f60d11b60aa82015260b001949350505050565b60208082526025908201527f4552433732313a207472616e736665722066726f6d20696e636f72726563742060408201526437bbb732b960d91b606082015260800190565b634e487b7160e01b600052601160045260246000fd5b81810381811115610489576104896125f0565b80820180821115610489576104896125f0565b634e487b7160e01b600052601260045260246000fd5b6000826126515761265161262c565b500690565b6000826126655761266561262c565b500490565b8082028115828204841417610489576104896125f0565b60208082526032908201527f4552433732313a207472616e7366657220746f206e6f6e20455243373231526560408201527131b2b4bb32b91034b6b83632b6b2b73a32b960711b606082015260800190565b6001600160a01b0385811682528416602082015260408101839052608060608201819052600090612706908301846115e4565b9695505050505050565b60006020828403121561272257600080fd5b81516106ca8161158d56fe4142434445464748494a4b4c4d4e4f505152535455565758595a6162636465666768696a6b6c6d6e6f707172737475767778797a303132333435363738392b2fa26469706673582212206d63575687b9d077847fece32f2e24abf1f9afee5b541e2faf62f60ac653f1d264736f6c63430008110033",
    "linkReferences": {}
  },
  "methodIdentifiers": {
    "_tokenIds()": "aa46a400",
    "approve(address,uint256)": "095ea7b3",
    "balanceOf(address)": "70a08231",
    "constructImageURI(uint256)": "a929e684",
    "constructTokenURI(uint256)": "894b4c2e",
    "generateBackgroundColor(uint256)": "81c5644e",
    "generateFilters(uint256)": "81ec55a4",
    "generateFrequency(uint256)": "98bc06f4",
    "generateLightingColor(uint256)": "83e96763",
    "generateOctaves(uint256)": "497d7a17",
    "generateScale(uint256)": "620ba6b8",
    "generateStyles(uint256)": "c29bdc61",
    "generateTurbulenceType(uint256)": "c1652725",
    "getApproved(uint256)": "081812fc",
    "isApprovedForAll(address,address)": "e985e9c5",
    "mint(address)": "6a627842",
    "name()": "06fdde03",
    "nextToken()": "9499ac54",
    "ownerOf(uint256)": "6352211e",
    "render(uint256)": "c321118c",
    "safeTransferFrom(address,address,uint256)": "42842e0e",
    "safeTransferFrom(address,address,uint256,bytes)": "b88d4fde",
    "setApprovalForAll(address,bool)": "a22cb465",
    "supportsInterface(bytes4)": "01ffc9a7",
    "symbol()": "95d89b41",
    "tokenURI(uint256)": "c87b56dd",
    "transferFrom(address,address,uint256)": "23b872dd"
  },
  "id": 28
}