{
  "abi": [
    {
      "inputs": [
        {
          "components": [
            {
              "internalType": "uint256",
              "name": "r",
              "type": "uint256"
            },
            {
              "internalType": "uint256",
              "name": "g",
              "type": "uint256"
            },
            {
              "internalType": "uint256",
              "name": "b",
              "type": "uint256"
            }
          ],
          "internalType": "struct Fossil.RGB[4]",
          "name": "colors",
          "type": "tuple[4]"
        }
      ],
      "name": "averageColors",
      "outputs": [
        {
          "components": [
            {
              "internalType": "uint256",
              "name": "r",
              "type": "uint256"
            },
            {
              "internalType": "uint256",
              "name": "g",
              "type": "uint256"
            },
            {
              "internalType": "uint256",
              "name": "b",
              "type": "uint256"
            }
          ],
          "internalType": "struct Fossil.RGB",
          "name": "",
          "type": "tuple"
        }
      ],
      "stateMutability": "pure",
      "type": "function"
    },
    {
      "inputs": [
        {
          "components": [
            {
              "internalType": "uint256",
              "name": "r",
              "type": "uint256"
            },
            {
              "internalType": "uint256",
              "name": "g",
              "type": "uint256"
            },
            {
              "internalType": "uint256",
              "name": "b",
              "type": "uint256"
            }
          ],
          "internalType": "struct Fossil.RGB",
          "name": "color",
          "type": "tuple"
        }
      ],
      "name": "averageWithWhite",
      "outputs": [
        {
          "components": [
            {
              "internalType": "uint256",
              "name": "r",
              "type": "uint256"
            },
            {
              "internalType": "uint256",
              "name": "g",
              "type": "uint256"
            },
            {
              "internalType": "uint256",
              "name": "b",
              "type": "uint256"
            }
          ],
          "internalType": "struct Fossil.RGB",
          "name": "",
          "type": "tuple"
        }
      ],
      "stateMutability": "pure",
      "type": "function"
    },
    {
      "inputs": [
        {
          "components": [
            {
              "internalType": "uint256",
              "name": "r",
              "type": "uint256"
            },
            {
              "internalType": "uint256",
              "name": "g",
              "type": "uint256"
            },
            {
              "internalType": "uint256",
              "name": "b",
              "type": "uint256"
            }
          ],
          "internalType": "struct Fossil.RGB",
          "name": "color",
          "type": "tuple"
        }
      ],
      "name": "complementaryColor",
      "outputs": [
        {
          "components": [
            {
              "internalType": "uint256",
              "name": "r",
              "type": "uint256"
            },
            {
              "internalType": "uint256",
              "name": "g",
              "type": "uint256"
            },
            {
              "internalType": "uint256",
              "name": "b",
              "type": "uint256"
            }
          ],
          "internalType": "struct Fossil.RGB",
          "name": "",
          "type": "tuple"
        }
      ],
      "stateMutability": "pure",
      "type": "function"
    },
    {
      "inputs": [
        {
          "internalType": "uint256",
          "name": "seed",
          "type": "uint256"
        }
      ],
      "name": "constructImageURI",
      "outputs": [
        {
          "internalType": "string",
          "name": "",
          "type": "string"
        }
      ],
      "stateMutability": "view",
      "type": "function"
    },
    {
      "inputs": [
        {
          "internalType": "uint256",
          "name": "input",
          "type": "uint256"
        },
        {
          "internalType": "uint256",
          "name": "divisor",
          "type": "uint256"
        },
        {
          "internalType": "uint256",
          "name": "decimalPlaces",
          "type": "uint256"
        }
      ],
      "name": "divideAndFormat",
      "outputs": [
        {
          "internalType": "string",
          "name": "",
          "type": "string"
        }
      ],
      "stateMutability": "view",
      "type": "function"
    },
    {
      "inputs": [
        {
          "internalType": "uint256",
          "name": "seed",
          "type": "uint256"
        }
      ],
      "name": "generateColorsNovelApproach",
      "outputs": [
        {
          "components": [
            {
              "internalType": "uint256",
              "name": "r",
              "type": "uint256"
            },
            {
              "internalType": "uint256",
              "name": "g",
              "type": "uint256"
            },
            {
              "internalType": "uint256",
              "name": "b",
              "type": "uint256"
            }
          ],
          "internalType": "struct Fossil.RGB[4]",
          "name": "",
          "type": "tuple[4]"
        }
      ],
      "stateMutability": "view",
      "type": "function"
    },
    {
      "inputs": [
        {
          "internalType": "uint256",
          "name": "tokenId",
          "type": "uint256"
        }
      ],
      "name": "generateComponentTransfer",
      "outputs": [
        {
          "internalType": "string",
          "name": "",
          "type": "string"
        }
      ],
      "stateMutability": "view",
      "type": "function"
    },
    {
      "inputs": [
        {
          "internalType": "uint256",
          "name": "tokenId",
          "type": "uint256"
        },
        {
          "components": [
            {
              "internalType": "uint256",
              "name": "r",
              "type": "uint256"
            },
            {
              "internalType": "uint256",
              "name": "g",
              "type": "uint256"
            },
            {
              "internalType": "uint256",
              "name": "b",
              "type": "uint256"
            }
          ],
          "internalType": "struct Fossil.RGB[4]",
          "name": "colors",
          "type": "tuple[4]"
        }
      ],
      "name": "generateComponentTransfer",
      "outputs": [
        {
          "internalType": "string",
          "name": "",
          "type": "string"
        }
      ],
      "stateMutability": "view",
      "type": "function"
    },
    {
      "inputs": [
        {
          "internalType": "uint256",
          "name": "tokenId",
          "type": "uint256"
        },
        {
          "internalType": "bool",
          "name": "isFractalNoise",
          "type": "bool"
        }
      ],
      "name": "generateFrequency",
      "outputs": [
        {
          "internalType": "uint256",
          "name": "",
          "type": "uint256"
        },
        {
          "internalType": "string",
          "name": "",
          "type": "string"
        }
      ],
      "stateMutability": "view",
      "type": "function"
    },
    {
      "inputs": [
        {
          "internalType": "uint256",
          "name": "tokenId",
          "type": "uint256"
        },
        {
          "internalType": "bool",
          "name": "isFractalNoise",
          "type": "bool"
        },
        {
          "internalType": "uint256",
          "name": "frequency",
          "type": "uint256"
        }
      ],
      "name": "generateOctaves",
      "outputs": [
        {
          "internalType": "string",
          "name": "",
          "type": "string"
        }
      ],
      "stateMutability": "view",
      "type": "function"
    },
    {
      "inputs": [
        {
          "internalType": "uint256",
          "name": "seed",
          "type": "uint256"
        }
      ],
      "name": "generateRandomColorPalette",
      "outputs": [
        {
          "components": [
            {
              "internalType": "uint256",
              "name": "r",
              "type": "uint256"
            },
            {
              "internalType": "uint256",
              "name": "g",
              "type": "uint256"
            },
            {
              "internalType": "uint256",
              "name": "b",
              "type": "uint256"
            }
          ],
          "internalType": "struct Fossil.RGB[4]",
          "name": "",
          "type": "tuple[4]"
        }
      ],
      "stateMutability": "view",
      "type": "function"
    },
    {
      "inputs": [
        {
          "internalType": "uint256",
          "name": "seed",
          "type": "uint256"
        }
      ],
      "name": "generateSVG",
      "outputs": [
        {
          "internalType": "string",
          "name": "",
          "type": "string"
        }
      ],
      "stateMutability": "view",
      "type": "function"
    },
    {
      "inputs": [
        {
          "internalType": "uint256",
          "name": "tokenId",
          "type": "uint256"
        },
        {
          "internalType": "bool",
          "name": "isFractalNoise",
          "type": "bool"
        },
        {
          "internalType": "uint256",
          "name": "frequency",
          "type": "uint256"
        }
      ],
      "name": "generateScale",
      "outputs": [
        {
          "internalType": "string",
          "name": "",
          "type": "string"
        }
      ],
      "stateMutability": "view",
      "type": "function"
    },
    {
      "inputs": [
        {
          "internalType": "uint256",
          "name": "tokenId",
          "type": "uint256"
        },
        {
          "internalType": "bool",
          "name": "isFractalNoise",
          "type": "bool"
        }
      ],
      "name": "generateSpecularLighting",
      "outputs": [
        {
          "internalType": "string",
          "name": "",
          "type": "string"
        }
      ],
      "stateMutability": "view",
      "type": "function"
    },
    {
      "inputs": [
        {
          "internalType": "uint256",
          "name": "seed",
          "type": "uint256"
        }
      ],
      "name": "generateTetradicColorPalette",
      "outputs": [
        {
          "components": [
            {
              "internalType": "uint256",
              "name": "r",
              "type": "uint256"
            },
            {
              "internalType": "uint256",
              "name": "g",
              "type": "uint256"
            },
            {
              "internalType": "uint256",
              "name": "b",
              "type": "uint256"
            }
          ],
          "internalType": "struct Fossil.RGB[4]",
          "name": "",
          "type": "tuple[4]"
        }
      ],
      "stateMutability": "view",
      "type": "function"
    },
    {
      "inputs": [
        {
          "components": [
            {
              "internalType": "uint256",
              "name": "hue",
              "type": "uint256"
            },
            {
              "internalType": "uint256",
              "name": "saturation",
              "type": "uint256"
            },
            {
              "internalType": "uint256",
              "name": "lightness",
              "type": "uint256"
            }
          ],
          "internalType": "struct Fossil.HSL",
          "name": "color",
          "type": "tuple"
        }
      ],
      "name": "toColorRGB",
      "outputs": [
        {
          "components": [
            {
              "internalType": "uint256",
              "name": "r",
              "type": "uint256"
            },
            {
              "internalType": "uint256",
              "name": "g",
              "type": "uint256"
            },
            {
              "internalType": "uint256",
              "name": "b",
              "type": "uint256"
            }
          ],
          "internalType": "struct Fossil.RGB",
          "name": "",
          "type": "tuple"
        }
      ],
      "stateMutability": "pure",
      "type": "function"
    }
  ],
  "bytecode": {
    "object": "0x6080806040523461001657612868908161001c8239f35b600080fdfe6040608081526004908136101561001557600080fd5b600091823560e01c908163167feb3014610c10578163382612e614610ba2578163385f81b014610a8157816363d265a114610a5b5781636dcee4ca14610a3a5781637486c45114610a105781638df4db1614610711578163919f9650146106465781639eb6e093146105de578163a71a0bfd14610584578163a929e684146104a9578163aa96a90a1461047d578163b7eb3f7514610443578163daa0e9741461025b578163ed7ca60e1461011e575063f5773d26146100d357600080fd5b3461011a57606036600319011261011a576060906101186100fb6100f636610e3f565b61154d565b915180926040809180518452602081015160208501520151910152565bf35b5080fd5b8391503461011a578260031936011261011a57803561013b610ef1565b1561021a57610149906112d6565b915b5060648210610182575061017e61016961016483611146565b61110b565b83519384938452806020850152830190610d8e565b0390f35b600a82106101d4575061017e61019782611146565b6101cf602385518093620302e360ec1b60208301526101bf8151809260208686019101610d6b565b8101036003810184520182610e1d565b610169565b61017e906101cf60246101e685611146565b9286518094630302e30360e41b602083015261020b8151809260208786019101610d6b565b81010390810184520182610e1d565b602d908451602081019182526020815261023381610e01565b51902006600f8101809111610248579161014b565b634e487b7160e01b835260118252602483fd5b90508234610440576020928360031936011261011a57823561027b611bb0565b5061028581611289565b6001820180831161042d5761029990611289565b916002810180911161042d576102ae90611289565b9583516102ba81610db3565b82815281810193845284810197885260ff9283039280841161041a57845181038181116104075789518203918211610407578651946102f886610db3565b8552838501528584015280519360559081860186116104075780519180830183116103f4578a5181810181116103e15781908951986103368a610db3565b82610100968780968194088c5208878a01520887870152825160aa9182820182116103e157519a828c018c116103e157519082820182116103e15782899a9b9c858281946103869d519d8e610db3565b088b5208858901520886860152855196608088019088821067ffffffffffffffff8311176103ce575061017e9850865286528501528284015260608301525191829182610ea6565b634e487b7160e01b815260418a52602490fd5b634e487b7160e01b8a5260118b5260248afd5b634e487b7160e01b895260118a52602489fd5b634e487b7160e01b885260118952602488fd5b634e487b7160e01b875260118852602487fd5b634e487b7160e01b855260118652602485fd5b80fd5b50503461011a578060031936011261011a5761017e90610461610ef1565b5061046a611365565b9051918291602083526020830190610d8e565b828434610440576020366003190112610440575061049e61017e9235611be2565b905191829182610ea6565b905034610580576020918260031936011261057c576104cb61017e9235611ea8565b93806104d686610fb4565b95610527603a855180997f646174613a696d6167652f7376672b786d6c3b6261736536342c0000000000008a830152610517815180928c8686019101610d6b565b810103601a81018a520188610e1d565b835161055c8161054e8982019463104c13eb60e21b86528a60248401526044830190610d8e565b03601f198101835282610e1d565b51906a636f6e736f6c652e6c6f675afa5051928284938452830190610d8e565b8380fd5b8280fd5b82843461044057600161059636610f00565b5050835160208101918252602081526105ae81610e01565b5190201692600284018094116105cb5761017e8361046a86611146565b634e487b7160e01b825260119052602490fd5b50503461011a576101a036600319011261011a57366043121561011a5780519161060783610de5565b826101a49136831161044057506024905b82821061062c5761017e8461046a87611999565b602060609161063b3685610e74565b815201910190610618565b83833461011a57606036600319011261011a5761066236610e3f565b61066a6114d6565b50815161067681610db3565b60ff815282602082019160ff8352019060ff825282519460ff86018096116106fe5760608661011887876106c188836106b68a6020860151905190610f3f565b930151905190610f3f565b60011c908251946106d186610db3565b60011c855260011c6020850152818401525180926040809180518452602081015160208501520151910152565b634e487b7160e01b815260118752602490fd5b83833461011a57602092836003193601126105805735916001918281519261073884610db3565b805b60608082101561074f5785820152870161073a565b505085879495825b600381106108d157878761017e886108c260da855183868801519701519684519788927f3c6665436f6d706f6e656e745472616e7366657220726573756c743d2272657389850152653ab63a19111f60d11b878501527f3c666546756e635220747970653d22646973637265746522207461626c655661604685015265363ab2b99e9160d11b908160668601526107f7815180928c606c89019101610d6b565b840192631110179f60e11b9384606c8201527f3c666546756e634720747970653d22646973637265746522207461626c6556616070820152826090820152610848825180938d609685019101610d6b565b01908360968301527f3c666546756e634220747970653d22646973637265746522207461626c655661609a83015260ba82015261088e825180938b60c085019101610d6b565b019060c0820152751e17b332a1b7b6b837b732b73a2a3930b739b332b91f60511b60c48201520360ba810187520185610e1d565b51928284938452830190610d8e565b85516108dc81610e01565b858152600360fc1b88820152845b6002811061094e5750906109499161092e60228951836109148d8396519281849286019101610d6b565b810161203160f01b8d820152036002810184520182610e1d565b610938828b611b9f565b52610943818a611b9f565b506118d8565b610757565b92959197989694906109e86109ee916109678988610f3f565b8c895181810192835281815261097c81610e01565b600a928391519020069182146000146109fb576109e2915061099c611348565b925b8a5193816109b58693518092868087019101610d6b565b8201600160fd1b848201526109d4825180936021968785019101610d6b565b010387810184520182610e1d565b976118d8565b936118d8565b98979195909496986108ea565b610a0a6101646109e293611146565b9261099e565b50503461011a57606036600319011261011a576060906101186100fb610a3536610e3f565b611e58565b828434610440576020366003190112610440575061046a61017e9235611ea8565b50503461011a5761017e9061046a610a7c610a7536610f00565b50506112aa565b611146565b83833461011a5760208060031936011261058057833592610aa0611bb0565b5080610aaa611bb0565b9481925b878410610ac25785518061017e8982610ea6565b610add610ad882610ad38786610f3f565b610f3f565b611289565b610ae78584610f3f565b60018101809111610b8f57610ad883610aff92610f3f565b610b098685610f3f565b60028101809111610b7c57610ad884610b2192610f3f565b90885192610b2e84610db3565b83528783015287820152610b4285896118e7565b52610b4d84886118e7565b5060038101809111610b6957610b6390936118d8565b92610aae565b634e487b7160e01b835260118852602483fd5b634e487b7160e01b865260118b52602486fd5b634e487b7160e01b855260118a52602485fd5b9050346105805761018036600319011261058057366023121561058057815190610bcb82610de5565b8161018491368311610c0c5760609550905b828210610bf3575050506100fb61011891611dcb565b60208691610c013685610e74565b815201910190610bdd565b8580fd5b8391503461011a57606036600319011261011a5780359060248035604435610c388286610f62565b948215610d595782900690604d8111610d4757600a0a90818102918183041490151715610d355790610c6991610f62565b936005851015610d11575b600a8514610cdf575b505050610c95610c8f61017e92611146565b92611146565b926108c26021825180968651610cb3816020998a8087019101610d6b565b8201601760f91b88820152610cd0825180938a8785019101610d6b565b01036001810187520185610e1d565b80919294509360018401809411610d0157505050610c95610c8f61017e610c7d565b634e487b7160e01b825260119052fd5b9360018101809111610d235793610c74565b50634e487b7160e01b84526011825283fd5b634e487b7160e01b8652601184528286fd5b634e487b7160e01b8752601185528387fd5b634e487b7160e01b8752601285528387fd5b60005b838110610d7e5750506000910152565b8181015183820152602001610d6e565b90602091610da781518092818552858086019101610d6b565b601f01601f1916010190565b6060810190811067ffffffffffffffff821117610dcf57604052565b634e487b7160e01b600052604160045260246000fd5b6080810190811067ffffffffffffffff821117610dcf57604052565b6040810190811067ffffffffffffffff821117610dcf57604052565b90601f8019910116810190811067ffffffffffffffff821117610dcf57604052565b6060906003190112610e6f5760405190610e5882610db3565b600435825260243560208301526044356040830152565b600080fd5b9190826060910312610e6f57604051610e8c81610db3565b604080829480358452602081013560208501520135910152565b91906101808301926000905b60048210610ebf57505050565b6020606082610ee560019487516040809180518452602081015160208501520151910152565b01930191019091610eb2565b602435908115158203610e6f57565b6060906003190112610e6f57600435906024358015158103610e6f579060443590565b67ffffffffffffffff8111610dcf57601f01601f191660200190565b91908201809211610f4c57565b634e487b7160e01b600052601160045260246000fd5b8115610f6c570490565b634e487b7160e01b600052601260045260246000fd5b90610f8c82610f23565b610f996040519182610e1d565b8281528092610faa601f1991610f23565b0190602036910137565b8051156110e657604051610fc781610db3565b604081527f4142434445464748494a4b4c4d4e4f505152535455565758595a61626364656660208201527f6768696a6b6c6d6e6f707172737475767778797a303132333435363738392b2f60408201528151600292838201809211610f4c576003918290046001600160fe1b0381168103610f4c57611049908594951b610f82565b936020850193829183518401925b838110611095575050505051068060011461108257600214611077575090565b603d90600019015390565b50603d9081600019820153600119015390565b85600491979293949701918251600190603f9082828260121c16880101518453828282600c1c16880101518385015382828260061c1688010151888501531685010151878201530195929190611057565b506040516020810181811067ffffffffffffffff821117610dcf576040526000815290565b906111446022604051809461181760f11b60208301526111348151809260208686019101610d6b565b8101036002810185520183610e1d565b565b806000917a184f03e93ff9f4daa797ed6e38ed64bf6a1f0100000000000000008082101561127b575b506d04ee2d6d415b85acef81000000008083101561126c575b50662386f26fc100008083101561125d575b506305f5e1008083101561124e575b506127108083101561123f575b50606482101561122f575b600a80921015611225575b6001908160216111dd828701610f82565b95860101905b6111ef575b5050505090565b600019019083906f181899199a1a9b1b9c1cb0b131b232b360811b8282061a835304918215611220579190826111e3565b6111e8565b91600101916111cc565b91906064600291049101916111c1565b600491939204910191386111b6565b600891939204910191386111a9565b6010919392049101913861119a565b60209193920491019138611188565b60409350810491503861116f565b60ff9060405160208101918252602081526112a381610e01565b5190200690565b60329060405160208101918252602081526112c481610e01565b5190200660328101809111610f4c5790565b603c9060405160208101918252602081526112f081610e01565b51902006601e8101809111610f4c5790565b603290604051602081019182526020815261131c81610e01565b5190200660198101809111610f4c5790565b60649060405160208101918252602081526112a381610e01565b6040519061135582610e01565b60018252603160f81b6020830152565b6113f16114d360ea60405161137981610e01565b6002815260208101612d3560f01b8152611391611348565b906040519586937f3c666553706563756c61724c69676874696e67206c69676874696e672d636f6c60208601527f6f723d22236666666666662220737572666163655363616c653d2200000000006040860152518092605b860190610d6b565b82017f2220726573756c743d227234222073706563756c6172436f6e7374616e743d22605b82015261142d825180936020607b85019101610d6b565b017f222073706563756c61724578706f6e656e743d22312220696e3d227232223e00607b8201527f3c666544697374616e744c6967687420656c65766174696f6e3d22302220617a609a8201526934b6baba341e9118111f60b11b60ba820152701e17b332a234b9ba30b73a2634b3b43a1f60791b60c4820152741e17b332a9b832b1bab630b92634b3b43a34b7339f60591b60d58201520360ca810184520182610e1d565b90565b604051906114e382610db3565b60006040838281528260208201520152565b91909160008382019384129112908015821691151617610f4c57565b818102929160008212600160ff1b821416610f4c578184051490151715610f4c57565b81810392916000138015828513169184121617610f4c57565b6115556114d6565b50600081519061271091828102908082048414901517156116a1576101689004906020840151936064850294808604606414901517156116a15760400151936064850294808604606414901517156116a157806115fa5750505081825b60ff918483029483860403610f4c578183029183830403610f4c5780830292830403610f4c57829081604051956115e887610db3565b04855204602084015204604082015290565b9193916113888312156116b5578084019081126001166116a15761161f849184611511565b05915b8060011b9060028205036116a1578261163a91611534565b90610d059081860191821281871290801582169115161761168d57506116619083836116db565b9361166d8184846116db565b92610d04198201918213600116610f4c57611687926116db565b906115b2565b634e487b7160e01b81526011600452602490fd5b634e487b7160e01b82526011600452602482fd5b80846116ce6116c76116d594876114f5565b9286611511565b0590611534565b91611622565b90929192600093848112806117e1575b50612710918282136117ca575b610682821261179357611388821261178c57611a0a9081831261171e5750929450505050565b8461172891611534565b90868382039312818412811691841390151617611778579061174991611511565b059081600602916006830503611764576114d39293506114f5565b634e487b7160e01b84526011600452602484fd5b634e487b7160e01b86526011600452602486fd5b9450505050565b836117a091969296611534565b9060068202918083056006149015171561168d57506114d393946117c391611511565b05906114f5565b9061270f19810190811360011661177857906116f8565b61271080920191821280158216911516176117fc57386116eb565b634e487b7160e01b85526011600452602485fd5b60ff8160081c9116600a810290808204600a1490151715610f4c5760081c9060058210156118c6575b600a82146118a1575b60216118596118536114d393611146565b93611146565b926040519381611873869351809260208087019101610d6b565b8201601760f91b60208201526118928251809360208785019101610d6b565b01036001810184520182610e1d565b9050600090600181018091111561184257634e487b7160e01b82526011600452602482fd5b9060018101809111610f4c5790611839565b6000198114610f4c5760010190565b9060048110156118f85760051b0190565b634e487b7160e01b600052603260045260246000fd5b6021611144919392936040519481611930879351809260208087019101610d6b565b82016119458251809360208085019101610d6b565b01600160fd1b6020820152036001810185520183610e1d565b9061114460246040518461197c829651809260208086019101610d6b565b8101631110179f60e11b6020820152036004810185520183610e1d565b6040908151916119a883610db3565b602f83526020918284017f3c6665436f6d706f6e656e745472616e736665722069643d2270616c6574746581526e11103932b9bab63a1e913931ba111f60891b838601528251906119f882610db3565b602582527f3c666546756e635220747970653d227461626c6522207461626c6556616c756585830152640399e9118160dd1b9182858201528451611a3b81610db3565b602581527f3c666546756e634720747970653d227461626c6522207461626c6556616c756587820152838682015292855190611a7682610db3565b602582527f3c666546756e634220747970653d227461626c6522207461626c6556616c75658883015286820152936000905b60048210611b4d57505093611b0096936114d39693751e17b332a1b7b6b837b732b73a2a3930b739b332b91f60511b93611aef611ae9611ae960369a61195e565b9361195e565b9351998a97518092888a0190610d6b565b8601611b1482518093888085019101610d6b565b01611b2782518093878085019101610d6b565b01611b3a82518093868085019101610d6b565b0191820152036016810184520182610e1d565b9094611b93611b9991611b7c89611b8b611b7c99611b7c611b828f9a611b738f8c6118e7565b519d8e51611810565b9061190e565b998c0151611810565b980151611810565b956118d8565b90611aa8565b9060038110156118f85760051b0190565b60405190611bbd82610de5565b8160005b60808110611bcd575050565b602090611bd86114d6565b8184015201611bc1565b90611beb611bb0565b506040805160209081810190858252828152611c0681610e01565b610168918291519020069260018601808711610f4c57611c2590611302565b60028701808811610f4c57611c3990611302565b90825195611c4687610db3565b86528486015281850152611c58611bb0565b93611c628161154d565b8552805190605a8201809211610f4c5760038801808911610f4c57611c869061132e565b91600492838a01808b11611da15790611ca2611cc0939261132e565b9087875193611cb085610db3565b068352888301528582015261154d565b85870152805160b48101809111611d775760058901808a11611db657611ce59061132e565b60068a01808b11611da15790611ca2611cfe939261132e565b83870152519361010e8501809511611d8c5760078801808911611d7757611d249061132e565b9160088901809911611d625750611d3f611d5a96979861132e565b93835195611d4c87610db3565b06855284015282015261154d565b606082015290565b601190634e487b7160e01b6000525260246000fd5b601183634e487b7160e01b6000525260246000fd5b601182634e487b7160e01b6000525260246000fd5b601185634e487b7160e01b6000525260246000fd5b601184634e487b7160e01b6000525260246000fd5b611dd36114d6565b5060009081829183905b60048210611e0c57505060405192611df484610db3565b60021c835260021c602083015260021c604082015290565b909291936109e8611e45611e2f611e5293611e2788876118e7565b515190610f3f565b966020611e3c88876118e7565b51015190610f3f565b936040611e3c87866118e7565b90611ddd565b611e606114d6565b50805160ff90810391818311610f4c576020810151820390828211610f4c57604001518203918211610f4c5760405192611e9984610db3565b83526020830152604082015290565b6040805191611eb683610e01565b600c8352602090818401936b6672616374616c4e6f69736560a01b8552611edc826112d6565b6064811061270d57610164611ef091611146565b945b6001855185810190858252868152611f0981610e01565b5190201660028101809111610f4c57611f2190611146565b611f2a846112aa565b611f3390611146565b93611f3d90611be2565b91611f4783611dcb565b90611f5184611999565b95611f5a611365565b92611f6490611e58565b611f6d9061278a565b938551611f799061278a565b9089870151611f879061278a565b938a8c890151611f969061278a565b9860600151611fa49061278a565b998d519e8f9e8f908482017f3c7376672077696474683d2235303022206865696768743d2235303022207669905281017f6577426f783d223020302035303020353030222076657273696f6e3d22312e319052606081017f2220786d6c6e733d22687474703a2f2f7777772e77332e6f72672f323030302f90526439bb33911f60d91b608082015260858101651e3232b3399f60d11b9052608b81017f3c6c696e6561724772616469656e742069643d226c696e656172477261646965905268373a189a191b9b911f60b91b60ab82015260b481017f3c73746f702073746f702d636f6c6f723d22626c61636b22206f66667365743d9052731118111034b21e9139ba37b8189a191b9991179f60611b60d482015260e881017f3c73746f702073746f702d636f6c6f723d22776869746522206f66667365743d9052731118911034b21e9139ba37b8189a191b9a91179f60611b61010882015261011c8101701e17b634b732b0b923b930b234b2b73a1f60791b905261012d81017f3c66696c7465722069643d22637261636b65642d6c6176612220636f6c6f722d905261014d81017f696e746572706f6c6174696f6e2d66696c746572733d2273524742223e000000905261016a81017f3c666554757262756c656e636520626173654672657175656e63793d22000000905281519182610187958684019201916121a992610d6b565b01916711103a3cb8329e9160c11b90830152519061018f92828483016121ce92610d6b565b01906d1110373ab6a7b1ba30bb32b99e9160911b9082015281519061019d92828d8584019201916121fe92610d6b565b7f2220726573756c743d2272312220696e3d22536f7572636547726170686963229101918201526210179f60e91b6101bd8201527f3c6665446973706c6163656d656e744d617020726573756c743d2272352220786101c08201527f4368616e6e656c53656c6563746f723d22522220696e323d2272312220696e3d6101e08201527f2272312220794368616e6e656c53656c6563746f723d224722207363616c653d610200820152601160f91b6102208201528251610221939091906122cc908390868401908e01610d6b565b631110179f60e11b91019283018190527f3c6665436f6d706f7369746520726573756c743d22723222206f70657261746f6102258401527f723d22696e2220696e3d22536f75726365477261706869632220696e323d2272610245840152641a9110179f60d91b610265840152845190988995869485938d939261026a929061235c908390858401908801610d6b565b7f3c6665436f6d706f73697465206b313d22302e3522206b333d223122206b323d9101918201527f222d302e352220696e323d2272322220696e3d22723422206f70657261746f7261028a8201527f3d2261726974686d657469632220726573756c743d2272393122206b343d22306102aa8201526102ca81018490527f3c6665436f6d706f7369746520696e3d227239312220726573756c743d2272346102ce8201527f22206f70657261746f723d2261726974686d6574696322206b323d223022206b6102ee8201527f333d22342220696e323d2272393122206b313d223022206b343d222d3022202f61030e820152601f60f91b61032e820152815161032f9390926124719184918685019101610d6b565b019081017f3c6665466c6f6f6420726573756c743d22726573756c74312220666c6f6f642d90526631b7b637b91e9160c91b61034f82015286519061035697828d8a84019201916124c192610d6b565b01958601527f3c6665426c656e64206d6f64653d226e6f726d616c2220696e3d22726374222061035a8601526f34b7191e913932b9bab63a189110179f60811b61037a860152681e17b334b63a32b91f60b91b61038a860152661e17b232b3399f60c91b6103938601527f3c726563742077696474683d2235303022206865696768743d2235303022206661039a8601527f696c6c3d2275726c28236c696e6561724772616469656e7431343237372922206103ba8601527f66696c7465723d2275726c2823637261636b65642d6c6176612922207374796c6103da8601527f653d2266696c7465723a75726c2823637261636b65642d6c6176612922202f3e6103fa8601527f3c726563742077696474683d22353022206865696768743d2235302220783d2261041a86018190526e1811103c9e911811103334b6361e9160891b61043a870152815190956104499284929190612626908390868401908f01610d6b565b01918201528461044d8201526f1a9811103c9e911811103334b6361e9160811b61046d82015282519061047d93828b86840192019161266492610d6b565b0191820152826104818201527018981811103c9e911811103334b6361e9160791b6104a18201528351906104b29482898784019201916126a392610d6b565b01928301526104b682015270189a9811103c9e911811103334b6361e9160791b6104d682015281516104e79490926126e19184918785019101610d6b565b01918201526104eb8101651e17b9bb339f60d11b9052036104d1810182526104f1016114d39082610e1d565b600a811061274a5761271e90611146565b612744602386518093620302e360ec1b888301526101bf815180928a8686019101610d6b565b94611ef2565b61275390611146565b612744602486518093630302e30360e41b8883015261277a815180928a8686019101610d6b565b8101036004810184520182610e1d565b6114d360296127998351611146565b6127b360406127ab6020870151611146565b950151611146565b604051948592630e4cec4560e31b60208501526127da815180926020602488019101610d6b565b83019061016160f51b918260248201526127fe825180936020602685019101610d6b565b01906026820152612819825180936020602885019101610d6b565b01602960f81b6028820152036009810184520182610e1d56fea2646970667358221220076ae5b0a5859440b2b65de31f89c7b093b8ce763fe18ca1dedc9e3a107bc76a64736f6c63430008110033",
    "linkReferences": {}
  },
  "methodIdentifiers": {
    "averageColors((uint256,uint256,uint256)[4])": "382612e6",
    "averageWithWhite((uint256,uint256,uint256))": "919f9650",
    "complementaryColor((uint256,uint256,uint256))": "7486c451",
    "constructImageURI(uint256)": "a929e684",
    "divideAndFormat(uint256,uint256,uint256)": "167feb30",
    "generateColorsNovelApproach(uint256)": "daa0e974",
    "generateComponentTransfer(uint256)": "8df4db16",
    "generateComponentTransfer(uint256,(uint256,uint256,uint256)[4])": "9eb6e093",
    "generateFrequency(uint256,bool)": "ed7ca60e",
    "generateOctaves(uint256,bool,uint256)": "a71a0bfd",
    "generateRandomColorPalette(uint256)": "385f81b0",
    "generateSVG(uint256)": "6dcee4ca",
    "generateScale(uint256,bool,uint256)": "63d265a1",
    "generateSpecularLighting(uint256,bool)": "b7eb3f75",
    "generateTetradicColorPalette(uint256)": "aa96a90a",
    "toColorRGB((uint256,uint256,uint256))": "f5773d26"
  },
  "id": 28
}