{
  "abi": [
    {
      "inputs": [
        {
          "components": [
            {
              "internalType": "uint256",
              "name": "r",
              "type": "uint256"
            },
            {
              "internalType": "uint256",
              "name": "g",
              "type": "uint256"
            },
            {
              "internalType": "uint256",
              "name": "b",
              "type": "uint256"
            }
          ],
          "internalType": "struct Fossil.RGB",
          "name": "color",
          "type": "tuple"
        }
      ],
      "name": "averageWithWhite",
      "outputs": [
        {
          "components": [
            {
              "internalType": "uint256",
              "name": "r",
              "type": "uint256"
            },
            {
              "internalType": "uint256",
              "name": "g",
              "type": "uint256"
            },
            {
              "internalType": "uint256",
              "name": "b",
              "type": "uint256"
            }
          ],
          "internalType": "struct Fossil.RGB",
          "name": "",
          "type": "tuple"
        }
      ],
      "stateMutability": "pure",
      "type": "function"
    },
    {
      "inputs": [
        {
          "internalType": "uint256",
          "name": "seed",
          "type": "uint256"
        }
      ],
      "name": "constructImageURI",
      "outputs": [
        {
          "internalType": "string",
          "name": "",
          "type": "string"
        }
      ],
      "stateMutability": "view",
      "type": "function"
    },
    {
      "inputs": [
        {
          "internalType": "uint256",
          "name": "input",
          "type": "uint256"
        },
        {
          "internalType": "uint256",
          "name": "divisor",
          "type": "uint256"
        },
        {
          "internalType": "uint256",
          "name": "decimalPlaces",
          "type": "uint256"
        }
      ],
      "name": "divideAndFormat",
      "outputs": [
        {
          "internalType": "string",
          "name": "",
          "type": "string"
        }
      ],
      "stateMutability": "view",
      "type": "function"
    },
    {
      "inputs": [
        {
          "internalType": "uint256",
          "name": "tokenId",
          "type": "uint256"
        },
        {
          "components": [
            {
              "internalType": "uint256",
              "name": "r",
              "type": "uint256"
            },
            {
              "internalType": "uint256",
              "name": "g",
              "type": "uint256"
            },
            {
              "internalType": "uint256",
              "name": "b",
              "type": "uint256"
            }
          ],
          "internalType": "struct Fossil.RGB[5]",
          "name": "colors",
          "type": "tuple[5]"
        }
      ],
      "name": "generateComponentTransfer",
      "outputs": [
        {
          "internalType": "string",
          "name": "",
          "type": "string"
        }
      ],
      "stateMutability": "view",
      "type": "function"
    },
    {
      "inputs": [
        {
          "internalType": "uint256",
          "name": "tokenId",
          "type": "uint256"
        }
      ],
      "name": "generateComponentTransfer",
      "outputs": [
        {
          "internalType": "string",
          "name": "",
          "type": "string"
        }
      ],
      "stateMutability": "view",
      "type": "function"
    },
    {
      "inputs": [
        {
          "internalType": "uint256",
          "name": "tokenId",
          "type": "uint256"
        },
        {
          "internalType": "bool",
          "name": "turbulenceType",
          "type": "bool"
        }
      ],
      "name": "generateFrequency",
      "outputs": [
        {
          "internalType": "uint256",
          "name": "",
          "type": "uint256"
        },
        {
          "internalType": "string",
          "name": "",
          "type": "string"
        }
      ],
      "stateMutability": "view",
      "type": "function"
    },
    {
      "inputs": [
        {
          "internalType": "uint256",
          "name": "tokenId",
          "type": "uint256"
        },
        {
          "internalType": "bool",
          "name": "isFractalNoise",
          "type": "bool"
        },
        {
          "internalType": "uint256",
          "name": "frequency",
          "type": "uint256"
        }
      ],
      "name": "generateOctaves",
      "outputs": [
        {
          "internalType": "string",
          "name": "",
          "type": "string"
        }
      ],
      "stateMutability": "view",
      "type": "function"
    },
    {
      "inputs": [
        {
          "internalType": "uint256",
          "name": "seed",
          "type": "uint256"
        }
      ],
      "name": "generateRandomColorPalette",
      "outputs": [
        {
          "components": [
            {
              "internalType": "uint256",
              "name": "r",
              "type": "uint256"
            },
            {
              "internalType": "uint256",
              "name": "g",
              "type": "uint256"
            },
            {
              "internalType": "uint256",
              "name": "b",
              "type": "uint256"
            }
          ],
          "internalType": "struct Fossil.RGB[5]",
          "name": "",
          "type": "tuple[5]"
        }
      ],
      "stateMutability": "view",
      "type": "function"
    },
    {
      "inputs": [
        {
          "internalType": "uint256",
          "name": "seed",
          "type": "uint256"
        }
      ],
      "name": "generateSVG",
      "outputs": [
        {
          "internalType": "string",
          "name": "",
          "type": "string"
        }
      ],
      "stateMutability": "view",
      "type": "function"
    },
    {
      "inputs": [
        {
          "internalType": "uint256",
          "name": "tokenId",
          "type": "uint256"
        },
        {
          "internalType": "bool",
          "name": "isFractalNoise",
          "type": "bool"
        },
        {
          "internalType": "uint256",
          "name": "frequency",
          "type": "uint256"
        }
      ],
      "name": "generateScale",
      "outputs": [
        {
          "internalType": "string",
          "name": "",
          "type": "string"
        }
      ],
      "stateMutability": "view",
      "type": "function"
    },
    {
      "inputs": [
        {
          "internalType": "uint256",
          "name": "tokenId",
          "type": "uint256"
        },
        {
          "internalType": "bool",
          "name": "isFractalNoise",
          "type": "bool"
        }
      ],
      "name": "generateSpecularLighting",
      "outputs": [
        {
          "internalType": "string",
          "name": "",
          "type": "string"
        }
      ],
      "stateMutability": "view",
      "type": "function"
    },
    {
      "inputs": [
        {
          "internalType": "uint256",
          "name": "seed",
          "type": "uint256"
        }
      ],
      "name": "generateTriadicColors",
      "outputs": [
        {
          "components": [
            {
              "internalType": "uint256",
              "name": "r",
              "type": "uint256"
            },
            {
              "internalType": "uint256",
              "name": "g",
              "type": "uint256"
            },
            {
              "internalType": "uint256",
              "name": "b",
              "type": "uint256"
            }
          ],
          "internalType": "struct Fossil.RGB[5]",
          "name": "",
          "type": "tuple[5]"
        }
      ],
      "stateMutability": "view",
      "type": "function"
    },
    {
      "inputs": [
        {
          "components": [
            {
              "internalType": "uint256",
              "name": "r",
              "type": "uint256"
            },
            {
              "internalType": "uint256",
              "name": "g",
              "type": "uint256"
            },
            {
              "internalType": "uint256",
              "name": "b",
              "type": "uint256"
            }
          ],
          "internalType": "struct Fossil.RGB",
          "name": "color1",
          "type": "tuple"
        },
        {
          "components": [
            {
              "internalType": "uint256",
              "name": "r",
              "type": "uint256"
            },
            {
              "internalType": "uint256",
              "name": "g",
              "type": "uint256"
            },
            {
              "internalType": "uint256",
              "name": "b",
              "type": "uint256"
            }
          ],
          "internalType": "struct Fossil.RGB",
          "name": "color2",
          "type": "tuple"
        },
        {
          "components": [
            {
              "internalType": "uint256",
              "name": "r",
              "type": "uint256"
            },
            {
              "internalType": "uint256",
              "name": "g",
              "type": "uint256"
            },
            {
              "internalType": "uint256",
              "name": "b",
              "type": "uint256"
            }
          ],
          "internalType": "struct Fossil.RGB",
          "name": "color3",
          "type": "tuple"
        },
        {
          "internalType": "uint256",
          "name": "greyControl",
          "type": "uint256"
        }
      ],
      "name": "randomMix",
      "outputs": [
        {
          "components": [
            {
              "internalType": "uint256",
              "name": "r",
              "type": "uint256"
            },
            {
              "internalType": "uint256",
              "name": "g",
              "type": "uint256"
            },
            {
              "internalType": "uint256",
              "name": "b",
              "type": "uint256"
            }
          ],
          "internalType": "struct Fossil.RGB",
          "name": "",
          "type": "tuple"
        }
      ],
      "stateMutability": "view",
      "type": "function"
    }
  ],
  "bytecode": {
    "object": "0x6080806040523461001657612041908161001c8239f35b600080fdfe60406080815260048036101561001457600080fd5b600090813560e01c8063167feb3014610daf578063385f81b014610c92578063547fe360146109fc57806363d265a1146109d65780636dcee4ca146109b4578063754f4dec1461066c5780638df4db161461064a578063919f96501461057d578063a71a0bfd1461051f578063a929e68414610447578063b7eb3f751461040d578063ddede359146101ed5763ed7ca60e146100af57600080fd5b346101e957826003193601126101e95780356100c9610fe9565b156101a8576100d7906113d9565b915b5060648210610110575061010c6100f76100f283611251565b611216565b83519384938452806020850152830190610eb8565b0390f35b600a8210610162575061010c61012582611251565b61015d602385518093620302e360ec1b602083015261014d8151809260208686019101610e95565b8101036003810184520182610f92565b6100f7565b61010c9061015d602461017485611251565b9286518094630302e30360e41b60208301526101998151809260208786019101610e95565b81010390810184520182610f92565b602d90845160208101918252602081526101c181610f76565b51902006600f81018091116101d657916100d9565b634e487b7160e01b835260118252602483fd5b5080fd5b5091346101e9576020806003193601126104095783359061020c611a14565b506102168261139e565b600183018084116103f65761022a9061139e565b92600281018091116103f65761023f9061139e565b84519061024b82610f28565b82825283820194855285820190815260ff928303948386116103e35780518403958487116103d057825185039485116103d05787519061028a82610f28565b815285810196875287810194855283519160559081840184116103bd5780519180830183116103aa57855181810181116103965781908c51966102cc88610f28565b82610100968780968194088a52088b880152088a85015285519460aa918287018711610396575190828201821161039657519082820182116103965782849182828f519a6103198c610f28565b0889520889870152088884015287519860a08a01908a821067ffffffffffffffff831117610383575061010c9a5088528389528589015286880152606087015251925190519184519361036b85610f28565b84528301528282015260808301525191829182610edd565b634e487b7160e01b815260418c52602490fd5b50634e487b7160e01b8c5260118d5260248cfd5b634e487b7160e01b8c5260118d5260248cfd5b634e487b7160e01b8b5260118c5260248bfd5b634e487b7160e01b895260118a52602489fd5b634e487b7160e01b885260118952602488fd5b634e487b7160e01b865260118752602486fd5b8280fd5b8284346101e957806003193601126101e95761010c9061042b610fe9565b50610434611405565b9051918291602083526020830190610eb8565b50829034610409576020918260031936011261051b5761046a61010c9235611a46565b9380610475866110bf565b956104c6603a855180997f646174613a696d6167652f7376672b786d6c3b6261736536342c0000000000008a8301526104b6815180928c8686019101610e95565b810103601a81018a520188610f92565b83516104fb816104ed8982019463104c13eb60e21b86528a60248401526044830190610eb8565b03601f198101835282610f92565b51906a636f6e736f6c652e6c6f675afa5051928284938452830190610eb8565b8380fd5b5091903461057a57600161053236610ff8565b50508351602081019182526020815261054a81610f76565b5190201692600284018094116105675761010c8361043486611251565b634e487b7160e01b825260119052602490fd5b80fd5b5091346101e95760603660031901126101e95761059936610fb4565b6105a16115ab565b5081516105ad81610f28565b60ff815282602082019160ff8352019060ff825282519460ff86018096116106375760608661063587876105f888836105ed8a6020860151905190611037565b930151905190611037565b60011c9082519461060886610f28565b60011c855260011c6020850152818401525180926040809180518452602081015160208501520151910152565bf35b634e487b7160e01b815260118752602490fd5b5091903461057a57602036600319011261057a575061043461010c9235611735565b50829034610409576101403660031901126104095761068a36610fb4565b92606036606319011261057a578251936106a385610f28565b60643585526020918286019360843585528587019260a4358452606060c319360112610409578651946106d586610f28565b60c435865280860160e43581528887019761010435895261012435946106f96115ab565b5060038b51858101904282528d44908201528d815261071781610f28565b51902006958661098e578b51858101904282528d44908201528d815261073c81610f28565b5190206001820190818311610919579061075591611394565b905b8c60018903610966578051878101914283524481830152815261077981610f28565b51902060018201908183116109535760029161079491611394565b985b0361092c578c805187810191428352448183015281526107b581610f28565b5190206001820180921161091957906107cd91611394565b975b6107e2896107dd8a85611037565b611037565b9260ff92838102908082048514901517156101d657846108019161105a565b98838102908082048514901517156101d6578461081d9161105a565b998381029381850414901517156105675750508b959493929161083f9161105a565b986108486115ab565b9c8551610855908961107a565b9051610861908a61107a565b61086a91611037565b9051610876908b61107a565b61087f91611037565b8c528284015161088f908761107a565b905161089b908861107a565b6108a491611037565b90516108b0908961107a565b6108b991611037565b908a015201516108c89161107a565b91516108d39161107a565b6108dc91611037565b91516108e79161107a565b6108f091611037565b81830152519081610914916040809180518452602081015160208501520151910152565b606090f35b634e487b7160e01b8a526011845260248afd5b5060ff8c8051878101914283524481830152815261094981610f28565b51902016976107cf565b634e487b7160e01b8b526011855260248bfd5b60ff8160029251898101914283524481830152815261098481610f28565b5190201698610796565b60ff8c805187810191428352448183015281526109aa81610f28565b5190201690610757565b5091903461057a57602036600319011261057a575061043461010c9235611a46565b8284346101e95761010c906104346109f76109f036610ff8565b50506113bf565b611251565b50503461057a5761020036600319011261057a57366043121561057a578151610a2481610f5a565b6102048136821161051b576024905b828210610c5457505050825190610a4982610f28565b602f8252602092838301917f3c6665436f6d706f6e656e745472616e736665722069643d2270616c6574746583526e11103932b9bab63a1e913931ba111f60891b86850152855190610a9a82610f28565b602882527f3c666546756e635220747970653d22646973637265746522207461626c65566186830152670363ab2b99e9118160c51b918288820152908751610ae181610f28565b602881527f3c666546756e634720747970653d22646973637265746522207461626c65566188820152838982015292885190610b1c82610f28565b602882527f3c666546756e634220747970653d22646973637265746522207461626c655661898301528982015293905b60028210610c0257610b8c8861010c8b610bf360368c8c8c8c610b7a610b74610b748f6116e9565b926116e9565b9287519a8b955180928c880190610e95565b8401610ba0825180938c8085019101610e95565b01610bb3825180938b8085019101610e95565b01610bc6825180938a8085019101610e95565b01751e17b332a1b7b6b837b732b73a2a3930b739b332b91f60511b87820152036016810187520185610f92565b51928284938452830190610eb8565b9093610c48610c4e91610c318b610c408c9798610c31610c37610c258d8b611672565b519b610c318d516115ca565b90611699565b998b01516115ca565b9701516115ca565b94611663565b90610b4c565b606082360312610c8e578551606091610c6c82610f28565b8335825260209182850135838201528885013589820152815201910190610a33565b8480fd5b5091346101e95760208060031936011261040957833592610cb1611a14565b5080610cbb611a14565b9481925b60058410610cd45785518061010c8982610edd565b610cea610ce5826107dd8786611037565b61139e565b610cf48584611037565b60018101809111610d9c57610ce583610d0c92611037565b610d168685611037565b60028101809111610d8957610ce584610d2e92611037565b90885192610d3b84610f28565b83528783015287820152610d4f8589611672565b52610d5a8488611672565b5060038101809111610d7657610d709093611663565b92610cbf565b634e487b7160e01b835260118852602483fd5b634e487b7160e01b865260118b52602486fd5b634e487b7160e01b855260118a52602485fd5b50346101e95760603660031901126101e957803591602435604435610dde82610dd8818861105a565b96611394565b90604d8111610e8257610dfe9291610df991600a0a9061107a565b61105a565b916005831015610e6a575b848361010c610e20610e1a88611251565b92611251565b92610bf36021825180968651610e3e816020998a8087019101610e95565b8201601760f91b88820152610e5b825180938a8785019101610e95565b01036001810187520185610f92565b60018301809311610567575050610e20610e1a610e09565b634e487b7160e01b845260118552602484fd5b60005b838110610ea85750506000910152565b8181015183820152602001610e98565b90602091610ed181518092818552858086019101610e95565b601f01601f1916010190565b91906101e08301926000905b60058210610ef657505050565b6020606082610f1c60019487516040809180518452602081015160208501520151910152565b01930191019091610ee9565b6060810190811067ffffffffffffffff821117610f4457604052565b634e487b7160e01b600052604160045260246000fd5b60a0810190811067ffffffffffffffff821117610f4457604052565b6040810190811067ffffffffffffffff821117610f4457604052565b90601f8019910116810190811067ffffffffffffffff821117610f4457604052565b6060906003190112610fe45760405190610fcd82610f28565b600435825260243560208301526044356040830152565b600080fd5b602435908115158203610fe457565b6060906003190112610fe457600435906024358015158103610fe4579060443590565b67ffffffffffffffff8111610f4457601f01601f191660200190565b9190820180921161104457565b634e487b7160e01b600052601160045260246000fd5b8115611064570490565b634e487b7160e01b600052601260045260246000fd5b8181029291811591840414171561104457565b906110978261101b565b6110a46040519182610f92565b82815280926110b5601f199161101b565b0190602036910137565b8051156111f1576040516110d281610f28565b604081527f4142434445464748494a4b4c4d4e4f505152535455565758595a61626364656660208201527f6768696a6b6c6d6e6f707172737475767778797a303132333435363738392b2f60408201528151600292838201809211611044576003918290046001600160fe1b038116810361104457611154908594951b61108d565b936020850193829183518401925b8381106111a0575050505051068060011461118d57600214611182575090565b603d90600019015390565b50603d9081600019820153600119015390565b85600491979293949701918251600190603f9082828260121c16880101518453828282600c1c16880101518385015382828260061c1688010151888501531685010151878201530195929190611162565b506040516020810181811067ffffffffffffffff821117610f44576040526000815290565b9061124f6022604051809461181760f11b602083015261123f8151809260208686019101610e95565b8101036002810185520183610f92565b565b806000917a184f03e93ff9f4daa797ed6e38ed64bf6a1f01000000000000000080821015611386575b506d04ee2d6d415b85acef810000000080831015611377575b50662386f26fc1000080831015611368575b506305f5e10080831015611359575b506127108083101561134a575b50606482101561133a575b600a80921015611330575b6001908160216112e882870161108d565b95860101905b6112fa575b5050505090565b600019019083906f181899199a1a9b1b9c1cb0b131b232b360811b8282061a83530491821561132b579190826112ee565b6112f3565b91600101916112d7565b91906064600291049101916112cc565b600491939204910191386112c1565b600891939204910191386112b4565b601091939204910191386112a5565b60209193920491019138611293565b60409350810491503861127a565b8115611064570690565b60ff9060405160208101918252602081526113b881610f76565b5190200690565b60329060405160208101918252602081526113b881610f76565b60469060405160208101918252602081526113f381610f76565b51902006601e81018091116110445790565b6114b96115a860f560405161141981610f76565b600b8152602081016a2d332e313031333131323160a81b815260405161143e81610f76565b600a81526114ef602082019269322e313337303834323560b01b84526040519788957f3c666553706563756c61724c69676874696e67206c69676874696e672d636f6c60208801527f6f723d22236666666666662220737572666163655363616c653d2200000000006040880152518092605b880190610e95565b8401917f2220726573756c743d227234222073706563756c6172436f6e7374616e743d22605b840152518093607b840190610e95565b017f222073706563756c61724578706f6e656e743d2231352e313937353334353622607b820152681034b71e913919111f60b91b609b8201527f3c666544697374616e744c6967687420656c65766174696f6e3d22363022206160a48201526a3d34b6baba341e9118111f60a91b60c4820152701e17b332a234b9ba30b73a2634b3b43a1f60791b60cf820152741e17b332a9b832b1bab630b92634b3b43a34b7339f60591b60e08201520360d5810184520182610f92565b90565b604051906115b882610f28565b60006040838281528260208201520152565b60ff8116600a810290808204600a14901517156110445760081c906005821015611651575b60216116096116036115a89360081c611251565b93611251565b926040519381611623869351809260208087019101610e95565b8201601760f91b60208201526116428251809360208785019101610e95565b01036001810184520182610f92565b906001810180911161104457906115ef565b60001981146110445760010190565b9060058110156116835760051b0190565b634e487b7160e01b600052603260045260246000fd5b602161124f9193929360405194816116bb879351809260208087019101610e95565b82016116d08251809360208085019101610e95565b01600160fd1b6020820152036001810185520183610f92565b9061124f602460405184611707829651809260208086019101610e95565b8101631110179f60e11b6020820152036004810185520183610f92565b9060038110156116835760051b0190565b60018092604080519461174786610f28565b60005b606080821015611760578782015260200161174a565b5050919493909260005b600381106118d5575050505060d16115a89183519381602082015191015182519586937f3c6665436f6d706f6e656e745472616e7366657220726573756c743d227265736020860152653ab63a19111f861b908501527f3c666546756e635220747970653d227461626c6522207461626c6556616c7565604685015262399e9160e91b90816066860152611808815180926020606989019101610e95565b840192631110179f60e11b938460698201527f3c666546756e634720747970653d227461626c6522207461626c6556616c7565606d82015282608d82015261185a825180936020609085019101610e95565b01908360908301527f3c666546756e634220747970653d227461626c6522207461626c6556616c7565609483015260b48201526118a182518093602060b785019101610e95565b019060b7820152751e17b332a1b7b6b837b732b73a2a3930b739b332b91f60511b60bb8201520360b1810184520182610f92565b84516118e081610f76565b828152602090600360fc1b828201529060005b6002811061195857506119386022611953949361203160f01b938a5194826119248794518092858088019101610e95565b830191820152036002810184520182610f92565b6119428289611724565b5261194d8188611724565b50611663565b61176a565b95916119f56119fb9161196b8589611037565b8a5185810191825285815261197f81610f76565b519020600a90066009198101611a0057506119ef8a5161199e81610f76565b888152603160f81b868201525b8b51836119c182955180928a8086019101610e95565b8101600160fd1b888201528251906119e1826021958b8785019101610e95565b010389810184520182610f92565b93611663565b96611663565b6118f3565b611a0f6100f26119ef92611251565b6119ab565b60405190611a2182610f5a565b8160005b60a08110611a31575050565b602090611a3c6115ab565b8184015201611a25565b604090815190611a5582610f76565b600c8252602092838301936b6672616374616c4e6f69736560a01b8552611a7b836113d9565b60648110611f8e576100f2611a8f91611251565b945b6001835183810190868252848152611aa881610f76565b519020169260028401809411611044576115a89561031e957f3c6665436f6d706f73697465206b313d22302e3522206b333d223122206b323d681e17b334b63a32b91f60b91b94611b197f6577426f783d223020302035303020353030222076657273696f6e3d22312e3198611251565b90611b2f611b296109f7866113bf565b94611735565b95611b38611405565b9581519d8e9b8c937f3c7376672077696474683d2235303022206865696768743d22353030222076698d8601528401527f2220786d6c6e733d22687474703a2f2f7777772e77332e6f72672f323030302f60608401526439bb33911f60d91b6080840152651e3232b3399f60d11b60858401527f3c66696c7465722069643d22637261636b65642d6c6176612220636f6c6f722d608b8401527f696e746572706f6c6174696f6e2d66696c746572733d2273524742223e00000060ab8401527f3c6665466c6f6f6420666c6f6f642d636f6c6f723d22726762283135322c313560c88401527f322c313532292220726573756c743d2272313522202f3e00000000000000000060e88401527f3c666554757262756c656e636520626173654672657175656e63793d2200000060ff840152611c7e815180928d61011c8097019101610e95565b8b01916711103a3cb8329e9160c11b908301525190611ca4826101249485840190610e95565b01906d1110373ab6a7b1ba30bb32b99e9160911b90820152815190611cd282610132948b8685019101610e95565b01906f11103932b9bab63a1e9139189110179f60811b908201527f3c6665446973706c6163656d656e744d617020726573756c743d2272352220786101428201527f4368616e6e656c53656c6563746f723d22522220696e323d2272312220696e3d6101628201527f2272312220794368616e6e656c53656c6563746f723d224722207363616c653d610182820152601160f91b6101a2820152825190611d82826101a3958a8785019101610e95565b01631110179f60e11b80938201527f3c6665436f6d706f7369746520726573756c743d22723222206f70657261746f6101a78201527f723d22696e2220696e3d227231352220696e323d22723522202f3e00000000006101c7820152835190611df4826101e2968a8885019101610e95565b01928301527f222d302e352220696e323d2272322220696e3d22723422206f70657261746f726102028301527f3d2261726974686d657469632220726573756c743d2272393122206b343d22306102228301526102428201527f3c6665436f6d706f7369746520696e3d227239312220726573756c743d2272346102468201527f22206f70657261746f723d2261726974686d6574696322206b323d223222206b6102668201527f333d22342220696e323d2272393122206b313d223022206b343d222d302e35226102868201526210179f60e91b6102a6820152611ee4825180936102a9968785019101610e95565b0191820152661e17b232b3399f60c91b6102b28201527f3c726563742077696474683d2235303022206865696768743d223530302220666102b98201527f696c7465723d2275726c2823637261636b65642d6c6176612922207374796c656102d98201527f3d2266696c7465723a75726c2823637261636b65642d6c6176612922202f3e006102f9820152651e17b9bb339f60d11b610318820152036102fe810184520182610f92565b600a8110611fcb57611f9f90611251565b611fc5602384518093620302e360ec1b8683015261014d81518092888686019101610e95565b94611a91565b611fd490611251565b611fc5602484518093630302e30360e41b86830152611ffb81518092888686019101610e95565b8101036004810184520182610f9256fea264697066735822122073981d7edcfbeed2f3ae3adc8b3207fcc9fe0f49e4a1568fa843498590d151da64736f6c63430008110033",
    "linkReferences": {}
  },
  "methodIdentifiers": {
    "averageWithWhite((uint256,uint256,uint256))": "919f9650",
    "constructImageURI(uint256)": "a929e684",
    "divideAndFormat(uint256,uint256,uint256)": "167feb30",
    "generateComponentTransfer(uint256)": "8df4db16",
    "generateComponentTransfer(uint256,(uint256,uint256,uint256)[5])": "547fe360",
    "generateFrequency(uint256,bool)": "ed7ca60e",
    "generateOctaves(uint256,bool,uint256)": "a71a0bfd",
    "generateRandomColorPalette(uint256)": "385f81b0",
    "generateSVG(uint256)": "6dcee4ca",
    "generateScale(uint256,bool,uint256)": "63d265a1",
    "generateSpecularLighting(uint256,bool)": "b7eb3f75",
    "generateTriadicColors(uint256)": "ddede359",
    "randomMix((uint256,uint256,uint256),(uint256,uint256,uint256),(uint256,uint256,uint256),uint256)": "754f4dec"
  },
  "id": 28
}