{
  "abi": [
    {
      "inputs": [
        {
          "internalType": "uint256",
          "name": "seed",
          "type": "uint256"
        }
      ],
      "name": "constructImageURI",
      "outputs": [
        {
          "internalType": "string",
          "name": "",
          "type": "string"
        }
      ],
      "stateMutability": "view",
      "type": "function"
    },
    {
      "inputs": [
        {
          "internalType": "uint256",
          "name": "random",
          "type": "uint256"
        }
      ],
      "name": "example",
      "outputs": [
        {
          "internalType": "string",
          "name": "",
          "type": "string"
        }
      ],
      "stateMutability": "view",
      "type": "function"
    },
    {
      "inputs": [
        {
          "internalType": "uint256",
          "name": "tokenId",
          "type": "uint256"
        }
      ],
      "name": "generateBackgroundColor",
      "outputs": [
        {
          "internalType": "string",
          "name": "",
          "type": "string"
        }
      ],
      "stateMutability": "view",
      "type": "function"
    },
    {
      "inputs": [
        {
          "internalType": "uint256",
          "name": "tokenId",
          "type": "uint256"
        }
      ],
      "name": "generateFilters",
      "outputs": [
        {
          "internalType": "string",
          "name": "",
          "type": "string"
        }
      ],
      "stateMutability": "view",
      "type": "function"
    },
    {
      "inputs": [
        {
          "internalType": "uint256",
          "name": "tokenId",
          "type": "uint256"
        }
      ],
      "name": "generateFrequency",
      "outputs": [
        {
          "internalType": "string",
          "name": "",
          "type": "string"
        }
      ],
      "stateMutability": "view",
      "type": "function"
    },
    {
      "inputs": [
        {
          "internalType": "uint256",
          "name": "tokenId",
          "type": "uint256"
        }
      ],
      "name": "generateLightingColor",
      "outputs": [
        {
          "internalType": "string",
          "name": "",
          "type": "string"
        }
      ],
      "stateMutability": "view",
      "type": "function"
    },
    {
      "inputs": [
        {
          "internalType": "uint256",
          "name": "tokenId",
          "type": "uint256"
        }
      ],
      "name": "generateOctaves",
      "outputs": [
        {
          "internalType": "string",
          "name": "",
          "type": "string"
        }
      ],
      "stateMutability": "view",
      "type": "function"
    },
    {
      "inputs": [
        {
          "internalType": "uint256",
          "name": "tokenId",
          "type": "uint256"
        }
      ],
      "name": "generateScale",
      "outputs": [
        {
          "internalType": "string",
          "name": "",
          "type": "string"
        }
      ],
      "stateMutability": "view",
      "type": "function"
    },
    {
      "inputs": [
        {
          "internalType": "uint256",
          "name": "tokenId",
          "type": "uint256"
        }
      ],
      "name": "generateStyles",
      "outputs": [
        {
          "internalType": "string",
          "name": "",
          "type": "string"
        }
      ],
      "stateMutability": "view",
      "type": "function"
    },
    {
      "inputs": [
        {
          "internalType": "uint256",
          "name": "tokenId",
          "type": "uint256"
        }
      ],
      "name": "generateTurbulenceType",
      "outputs": [
        {
          "internalType": "string",
          "name": "",
          "type": "string"
        }
      ],
      "stateMutability": "view",
      "type": "function"
    },
    {
      "inputs": [
        {
          "internalType": "uint256",
          "name": "_tokenId",
          "type": "uint256"
        }
      ],
      "name": "render",
      "outputs": [
        {
          "internalType": "string",
          "name": "",
          "type": "string"
        }
      ],
      "stateMutability": "view",
      "type": "function"
    }
  ],
  "bytecode": {
    "object": "0x608060405234801561001057600080fd5b506116d7806100206000396000f3fe608060405234801561001057600080fd5b50600436106100a95760003560e01c806383e967631161007157806383e967631461012357806398bc06f414610136578063a929e68414610149578063c16527251461015c578063c29bdc6114610191578063c321118c146101a457600080fd5b8063477e4a02146100ae578063497d7a17146100d7578063620ba6b8146100ea57806381c5644e146100fd57806381ec55a414610110575b600080fd5b6100c16100bc366004610909565b6101b7565b6040516100ce9190610946565b60405180910390f35b6100c16100e5366004610909565b6101c8565b6100c16100f8366004610909565b6101eb565b6100c161010b366004610909565b610202565b6100c161011e366004610909565b610247565b6100c1610131366004610909565b6102ba565b6100c1610144366004610909565b6102db565b6100c1610157366004610909565b61035b565b6100c161016a366004610909565b5060408051808201909152600c81526b113a3ab9313ab632b731b29160a11b602082015290565b6100c161019f366004610909565b610411565b6100c16101b2366004610909565b610436565b60606101c282610436565b92915050565b606060006101d9600160058561045b565b90506101e4816104ba565b9392505050565b60606101c26101fd600060508561045b565b6104ba565b60606000826000604051602001610223929190918252602082015260400190565b6040516020818303038152906040528051906020012060001c90506101e48161054d565b6060610252826102db565b60408051808201909152600c81526b113a3ab9313ab632b731b29160a11b602082015261027e846101c8565b610287856101eb565b610290866102ba565b6040516020016102a4959493929190610995565b6040516020818303038152906040529050919050565b60606000826001604051602001610223929190918252602082015260400190565b606060006102ec600160328561045b565b90506060606482101561032857610302826104ba565b60405160200161031291906112f7565b60405160208183030381529060405290506101e4565b600a82101561034a5761033a826104ba565b6040516020016103129190611320565b610353826104ba565b949350505050565b606061039b6040518060400160405280601781526020017f737461727420636f6e737472756374496d616765555249000000000000000000815250610578565b60006103a683610436565b90506103b181610578565b60006103bc826105be565b90506000816040516020016103d1919061134a565b60408051601f198184030181528282019091526015825274656e6420636f6e737472756374496d61676555524960581b6020830152915061035390610578565b606061041c82610202565b61042583610711565b6040516020016102a492919061138f565b606061044182610247565b61044a83610411565b6040516020016102a492919061144a565b60006104678484611587565b61047290600161159a565b6040805160208101859052908101869052606081018590526080016040516020818303038152906040528051906020012060001c6104b091906115c3565b610353908561159a565b606060006104c783610732565b600101905060008167ffffffffffffffff8111156104e7576104e76115d7565b6040519080825280601f01601f191660200182016040528015610511576020820181803683370190505b5090508181016020015b600019016f181899199a1a9b1b9c1cb0b131b232b360811b600a86061a8153600a850494508461051b57509392505050565b6060610568610561600062ffffff8561045b565b600361080a565b6040516020016102a491906115ed565b6105bb8160405160240161058c9190610946565b60408051601f198184030181529190526020810180516001600160e01b031663104c13eb60e21b1790526108e8565b50565b606081516000036105dd57505060408051602081019091526000815290565b6000604051806060016040528060408152602001611662604091399050600060038451600261060c919061159a565b6106169190611609565b61062190600461161d565b67ffffffffffffffff811115610639576106396115d7565b6040519080825280601f01601f191660200182016040528015610663576020820181803683370190505b509050600182016020820185865187015b808210156106cf576003820191508151603f8160121c168501518453600184019350603f81600c1c168501518453600184019350603f8160061c168501518453600184019350603f8116850151845350600183019250610674565b50506003865106600181146106eb57600281146106fe57610706565b603d6001830353603d6002830353610706565b603d60018303535b509195945050505050565b60606000826002604051602001610223929190918252602082015260400190565b60008072184f03e93ff9f4daa797ed6e38ed64bf6a1f0160401b83106107715772184f03e93ff9f4daa797ed6e38ed64bf6a1f0160401b830492506040015b6d04ee2d6d415b85acef8100000000831061079d576d04ee2d6d415b85acef8100000000830492506020015b662386f26fc1000083106107bb57662386f26fc10000830492506010015b6305f5e10083106107d3576305f5e100830492506008015b61271083106107e757612710830492506004015b606483106107f9576064830492506002015b600a83106101c25760010192915050565b6060600061081983600261161d565b67ffffffffffffffff811115610831576108316115d7565b6040519080825280601f01601f19166020018201604052801561085b576020820181803683370190505b5080519091505b80156108e0576f181899199a1a9b1b9c1cb0b131b232b360811b85600f166010811061089057610890611634565b1a60f81b826108a0600184611587565b815181106108b0576108b0611634565b60200101906001600160f81b031916908160001a90535060049490941c93806108d88161164a565b915050610862565b509392505050565b80516a636f6e736f6c652e6c6f67602083016000808483855afa5050505050565b60006020828403121561091b57600080fd5b5035919050565b60005b8381101561093d578181015183820152602001610925565b50506000910152565b6020815260008251806020840152610965816040850160208701610922565b601f01601f19169190910160400192915050565b6000815161098b818560208601610922565b9290920192915050565b7f3c66696c7465722069643d22637261636b65642d6c617661223e00000000000081527f3c6665476175737369616e426c757220726573756c743d22726573756c743022601a8201527f20696e3d22536f75726365477261706869632220737464446576696174696f6e603a8201527f3d22302e35222069643d226665476175737369616e426c757232333336222f3e605a8201527f3c666554757262756c656e636520626173654672657175656e63793d22302e00607a8201526000610a5f6099830188610979565b662220747970653d60c81b8152610a796007820188610979565b7f20736565643d2234383822206e756d4f6374617665733d22000000000000000081529050610d55610cf7610c2c610bb7610b51610b4b610afc610ac0601889018e610979565b7f2220726573756c743d22726573756c7431222069643d22666554757262756c658152693731b29919999c11179f60b11b6020820152602a0190565b7f3c6665446973706c6163656d656e744d617020726573756c743d22726573756c81527f74352220784368616e6e656c53656c6563746f723d225222207363616c653d22602082015260400190565b8a610979565b7f2220696e323d22726573756c74312220696e3d22726573756c7431222079436881527f616e6e656c53656c6563746f723d2247222069643d226665446973706c61636560208201526d36b2b73a26b0b819199a1811179f60911b6040820152604e0190565b7f3c6665436f6d706f7369746520726573756c743d22726573756c743222206f7081527f657261746f723d22696e2220696e323d22726573756c74352220696e3d22726560208201527f73756c7430222069643d226665436f6d706f7369746532333432222f3e0000006040820152605d0190565b7f3c666553706563756c61724c69676874696e67206c69676874696e672d636f6c81527f6f723d2277686974652220737572666163655363616c653d223222207265737560208201527f6c743d22726573756c7434222073706563756c6172436f6e7374616e743d223260408201527f222073706563756c61724578706f6e656e743d2236352220696e3d227265737560608201527f6c7432222069643d22666553706563756c61724c69676874696e6732333436226080820152601f60f91b60a082015260a10190565b7f3c666544697374616e744c6967687420656c65766174696f6e3d22363222206181527f7a696d7574683d22323235222069643d22666544697374616e744c6967687432602082015265199a1a11179f60d11b604082015260460190565b741e17b332a9b832b1bab630b92634b3b43a34b7339f60591b81527f3c6665436f6d706f73697465206b313d22322e3522206b333d223122206b323d60158201527f222d302e352220696e323d22726573756c74322220696e3d22726573756c743460358201527f22206f70657261746f723d2261726974686d657469632220726573756c743d2260558201527f726573756c743931222069643d226665436f6d706f7369746532333438222f3e60758201527f3c6665426c656e6420726573756c743d226662536f757263654772617068696360958201527f22206d6f64653d226d756c7469706c792220696e323d22726573756c7439312260b5820152721034b21e913332a13632b73219199a9811179f60691b60d58201527f3c6665436f6c6f724d61747269782076616c7565733d223120302030202d312060e88201527f30203120302031202d312030203120302030202d312030202d32202d302e35206101088201527f302035202d322220696e3d226662536f757263654772617068696322207265736101288201527f756c743d226662536f7572636547726170686963416c706861222069643d22666101488201527232a1b7b637b926b0ba3934bc19199a9911179f60691b6101688201527f3c6665476175737369616e426c757220737464446576696174696f6e3d22382261017b8201527f20696e3d226662536f7572636547726170686963416c7068612220726573756c61019b8201527f743d22726573756c7430222069643d226665476175737369616e426c757232336101bb820152641a9a11179f60d91b6101db8201527f3c66654f66667365742064783d2232222064793d22322220696e3d22726573756101e08201527f6c74302220726573756c743d22726573756c7433222069643d2266654f6666736102008201526832ba19199a9b11179f60b91b6102208201527f3c666553706563756c61724c69676874696e6720696e3d22726573756c7430226102298201527f20726573756c743d22726573756c743122206c69676874696e672d636f6c6f72610249820152611e9160f11b610269820152905061114e6110f261107d61026b840187610979565b7f2220737572666163655363616c653d2234222073706563756c6172436f6e737481527f616e743d22302e38222073706563756c61724578706f6e656e743d223135222060208201527f69643d22666553706563756c61724c69676874696e6732333630223e000000006040820152605c0190565b7f3c6665506f696e744c6967687420783d222d353030302220793d222d3130303081527f3022207a3d223230303030222069643d226665506f696e744c696768743233356020820152631c11179f60e11b604082015260440190565b741e17b332a9b832b1bab630b92634b3b43a34b7339f60591b81527f3c6665436f6d706f7369746520696e323d226662536f7572636547726170686960158201527f63416c7068612220696e3d22726573756c74312220726573756c743d2272657360358201527f756c743222206f70657261746f723d226f7574222069643d226665436f6d706f60558201526a39b4ba3299199b1911179f60a91b60758201527f3c6665436f6d706f7369746520696e3d226662536f757263654772617068696360808201527f2220726573756c743d22726573756c743422206f70657261746f723d2261726960a08201527f74686d6574696322206b323d223222206b333d22322220696e323d227265737560c08201527f6c7432222069643d226665436f6d706f7369746532333634222f3e000000000060e08201527f3c6665426c656e64206d6f64653d226461726b656e2220696e323d227265737560fb8201527f6c7434222069643d226665426c656e6432333636222f3e00000000000000000061011b820152681e17b334b63a32b91f60b91b61013282015261013b0198975050505050505050565b600360fc1b815260008251611313816001850160208701610922565b9190910160010192915050565b61030360f41b81526000825161133d816002850160208701610922565b9190910160020192915050565b7f646174613a696d6167652f7376672b786d6c3b6261736536342c00000000000081526000825161138281601a850160208701610922565b91909101601a0192915050565b661e39ba3cb6329f60c91b81526e0173932b1ba18103d903334b6361d1608d1b6007820152600083516113c9816016850160208801610922565b61207d60f01b6016918401918201526e0173932b1ba18903d903334b6361d1608d1b60188201528351611403816027840160208801610922565b7f3b2066696c7465723a2075726c2823637261636b65642d6c61766129207d000060279290910191820152671e17b9ba3cb6329f60c11b6045820152604d01949350505050565b7f3c73766720786d6c6e733d22687474703a2f2f7777772e77332e6f72672f323081527f30302f737667222077696474683d2235303022206865696768743d22353030226020820152601f60f91b6040820152651e3232b3399f60d11b6041820152600083516114c1816047850160208801610922565b661e17b232b3399f60c91b60479184019182015283516114e881604e840160208801610922565b7f3c7265637420636c6173733d227265637430222077696474683d2235303022209101604e8101919091526d3432b4b3b43a1e911a981811179f60911b606e82018190527f3c7265637420636c6173733d227265637431222077696474683d223530302220607c830152609c820152651e17b9bb339f60d11b60aa82015260b001949350505050565b634e487b7160e01b600052601160045260246000fd5b818103818111156101c2576101c2611571565b808201808211156101c2576101c2611571565b634e487b7160e01b600052601260045260246000fd5b6000826115d2576115d26115ad565b500690565b634e487b7160e01b600052604160045260246000fd5b602360f81b815260008251611313816001850160208701610922565b600082611618576116186115ad565b500490565b80820281158282048414176101c2576101c2611571565b634e487b7160e01b600052603260045260246000fd5b60008161165957611659611571565b50600019019056fe4142434445464748494a4b4c4d4e4f505152535455565758595a6162636465666768696a6b6c6d6e6f707172737475767778797a303132333435363738392b2fa2646970667358221220c5685cabbf34329e3d6a02c9404fa59515be08c2a38e2ad67bccea3e859d4ef364736f6c63430008110033",
    "linkReferences": {}
  },
  "methodIdentifiers": {
    "constructImageURI(uint256)": "a929e684",
    "example(uint256)": "477e4a02",
    "generateBackgroundColor(uint256)": "81c5644e",
    "generateFilters(uint256)": "81ec55a4",
    "generateFrequency(uint256)": "98bc06f4",
    "generateLightingColor(uint256)": "83e96763",
    "generateOctaves(uint256)": "497d7a17",
    "generateScale(uint256)": "620ba6b8",
    "generateStyles(uint256)": "c29bdc61",
    "generateTurbulenceType(uint256)": "c1652725",
    "render(uint256)": "c321118c"
  },
  "id": 28
}