{
  "abi": [
    {
      "inputs": [
        {
          "internalType": "uint256",
          "name": "seed",
          "type": "uint256"
        }
      ],
      "name": "constructImageURI",
      "outputs": [
        {
          "internalType": "string",
          "name": "",
          "type": "string"
        }
      ],
      "stateMutability": "view",
      "type": "function"
    },
    {
      "inputs": [
        {
          "internalType": "uint256",
          "name": "tokenId",
          "type": "uint256"
        },
        {
          "internalType": "bool",
          "name": "turbulenceType",
          "type": "bool"
        }
      ],
      "name": "generateFrequency",
      "outputs": [
        {
          "internalType": "string",
          "name": "",
          "type": "string"
        }
      ],
      "stateMutability": "view",
      "type": "function"
    },
    {
      "inputs": [
        {
          "internalType": "uint256",
          "name": "tokenId",
          "type": "uint256"
        },
        {
          "internalType": "bool",
          "name": "turbulenceType",
          "type": "bool"
        }
      ],
      "name": "generateOctaves",
      "outputs": [
        {
          "internalType": "string",
          "name": "",
          "type": "string"
        }
      ],
      "stateMutability": "view",
      "type": "function"
    },
    {
      "inputs": [
        {
          "internalType": "uint256",
          "name": "seed",
          "type": "uint256"
        }
      ],
      "name": "generateSVG",
      "outputs": [
        {
          "internalType": "string",
          "name": "",
          "type": "string"
        }
      ],
      "stateMutability": "view",
      "type": "function"
    },
    {
      "inputs": [
        {
          "internalType": "uint256",
          "name": "tokenId",
          "type": "uint256"
        },
        {
          "internalType": "bool",
          "name": "turbulenceType",
          "type": "bool"
        }
      ],
      "name": "generateScale",
      "outputs": [
        {
          "internalType": "string",
          "name": "",
          "type": "string"
        }
      ],
      "stateMutability": "view",
      "type": "function"
    }
  ],
  "bytecode": {
    "object": "0x608060405234801561001057600080fd5b506112a9806100206000396000f3fe608060405234801561001057600080fd5b50600436106100575760003560e01c80635c6b358c1461005c5780636dcee4ca14610085578063a929e68414610098578063ec851e24146100ab578063ed7ca60e146100be575b600080fd5b61006f61006a366004610953565b6100d1565b60405161007c91906109d8565b60405180910390f35b61006f6100933660046109eb565b61010e565b61006f6100a63660046109eb565b6102ee565b61006f6100b9366004610953565b61036e565b61006f6100cc366004610953565b610396565b606081156100f5576100ee6100e96001603286610467565b6104c6565b9050610108565b6101056100e96000605086610467565b90505b92915050565b6060600061011b83610559565b90506101516040518060400160405280601281526020017103130b1b5b3b937bab7321031b7b637b91d160751b8152508261059a565b6000610166610161856001610a1a565b610559565b60408051808201909152600781526611b3333333333360c91b6020820152909150600160006040518060400160405280600c81526020016b6672616374616c4e6f69736560a01b815250905060006101be8884610396565b90506101eb604051806040016040528060098152602001686672657175656e637960b81b8152508261059a565b60006101f789856100d1565b905060006102058a8661036e565b90506102376040518060400160405280600e81526020016d3a3ab9313632b731b2aa3cb8329d60911b8152508561059a565b6102636040518060400160405280600a815260200169333932b8bab2b731bc9d60b11b8152508461059a565b61028b6040518060400160405280600681526020016539b1b0b6329d60d11b8152508361059a565b6102b56040518060400160405280600881526020016737b1ba30bb32b99d60c11b8152508261059a565b878383898b8b6040516020016102d096959493929190610a49565b60405160208183030381529060405298505050505050505050919050565b606060006102fb8361010e565b9050610306816105e3565b600061031182610629565b9050600081604051602001610326919061109e565b60408051601f198184030181528282019091526015825274656e6420636f6e737472756374496d61676555524960581b60208301529150610366906105e3565b949350505050565b60608115610386576100ee6100e96001600386610467565b6101056100e96002600586610467565b6060600082156103b4576103ad601e606386610467565b90506103f9565b6103e96040518060400160405280601481526020017374757262756c656e74206e6f697365206672657160601b8152506105e3565b6103f66001603c86610467565b90505b606060648210156104335761040d826104c6565b60405160200161041d91906110e3565b6040516020818303038152906040529050610366565b600a82101561045557610445826104c6565b60405160200161041d919061110e565b61045e826104c6565b95945050505050565b6000610473848461113a565b61047e906001610a1a565b6040805160208101859052908101869052606081018590526080016040516020818303038152906040528051906020012060001c6104bc9190611163565b6103669085610a1a565b606060006104d38361077c565b600101905060008167ffffffffffffffff8111156104f3576104f3611177565b6040519080825280601f01601f19166020018201604052801561051d576020820181803683370190505b5090508181016020015b600019016f181899199a1a9b1b9c1cb0b131b232b360811b600a86061a8153600a850494508461052757509392505050565b606061057461056d600062ffffff85610467565b6003610854565b604051602001610584919061118d565b6040516020818303038152906040529050919050565b6105df82826040516024016105b09291906111b6565b60408051601f198184030181529190526020810180516001600160e01b0316634b5c427760e01b179052610932565b5050565b610626816040516024016105f791906109d8565b60408051601f198184030181529190526020810180516001600160e01b031663104c13eb60e21b179052610932565b50565b6060815160000361064857505060408051602081019091526000815290565b600060405180606001604052806040815260200161123460409139905060006003845160026106779190610a1a565b61068191906111db565b61068c9060046111ef565b67ffffffffffffffff8111156106a4576106a4611177565b6040519080825280601f01601f1916602001820160405280156106ce576020820181803683370190505b509050600182016020820185865187015b8082101561073a576003820191508151603f8160121c168501518453600184019350603f81600c1c168501518453600184019350603f8160061c168501518453600184019350603f81168501518453506001830192506106df565b5050600386510660018114610756576002811461076957610771565b603d6001830353603d6002830353610771565b603d60018303535b509195945050505050565b60008072184f03e93ff9f4daa797ed6e38ed64bf6a1f0160401b83106107bb5772184f03e93ff9f4daa797ed6e38ed64bf6a1f0160401b830492506040015b6d04ee2d6d415b85acef810000000083106107e7576d04ee2d6d415b85acef8100000000830492506020015b662386f26fc10000831061080557662386f26fc10000830492506010015b6305f5e100831061081d576305f5e100830492506008015b612710831061083157612710830492506004015b60648310610843576064830492506002015b600a83106101085760010192915050565b606060006108638360026111ef565b67ffffffffffffffff81111561087b5761087b611177565b6040519080825280601f01601f1916602001820160405280156108a5576020820181803683370190505b5080519091505b801561092a576f181899199a1a9b1b9c1cb0b131b232b360811b85600f16601081106108da576108da611206565b1a60f81b826108ea60018461113a565b815181106108fa576108fa611206565b60200101906001600160f81b031916908160001a90535060049490941c93806109228161121c565b9150506108ac565b509392505050565b80516a636f6e736f6c652e6c6f67602083016000808483855afa5050505050565b6000806040838503121561096657600080fd5b823591506020830135801515811461097d57600080fd5b809150509250929050565b60005b838110156109a357818101518382015260200161098b565b50506000910152565b600081518084526109c4816020860160208601610988565b601f01601f19169290920160200192915050565b60208152600061010560208301846109ac565b6000602082840312156109fd57600080fd5b5035919050565b634e487b7160e01b600052601160045260246000fd5b8082018082111561010857610108610a04565b60008151610a3f818560208601610988565b9290920192915050565b7f3c7376672077696474683d2235303022206865696768743d223530302220766581527f7273696f6e3d22312e31222076696577426f783d22302030203530302035303060208201527f2220786d6c6e733d22687474703a2f2f7777772e77332e6f72672f323030302f60408201526439bb33911f60d91b6060820152600060658201651e3232b3399f60d11b81527f3c66696c7465722069643d22637261636b65642d6c617661223e0000000000006006820152751e3332a33637b7b210333637b7b216b1b7b637b91e9160511b6020820152610b2a603682018a610a2d565b6f11103932b9bab63a1e9139189a91179f60811b815290507f3c666554757262756c656e636520626173654672657175656e63793d220000006010820152610c48610c42610bc3610b7e602d85018c610a2d565b7f2220747970653d226672616374616c4e6f69736522206e756d4f6374617665738152721e911911103932b9bab63a1e9139189110179f60691b602082015260330190565b7f3c6665446973706c6163656d656e744d617020726573756c743d22723522207881527f4368616e6e656c53656c6563746f723d22522220696e323d2272312220696e3d60208201527f2272312220794368616e6e656c53656c6563746f723d224722207363616c653d6040820152601160f91b606082015260610190565b88610a2d565b7f2220626173654672657175656e63793d22302e30343122202f3e00000000000081527f3c6665436f6d706f7369746520726573756c743d22723222206f70657261746f601a8201527f723d22696e2220696e3d227231352220696e323d22723522202f3e0000000000603a8201527f3c666553706563756c61724c69676874696e67206c69676874696e672d636f6c60558201527f6f723d22236666666666662220737572666163655363616c653d222d332e313060758201527f3133313132312220726573756c743d227234222073706563756c6172436f6e7360958201527f74616e743d22322e3133373038343235222073706563756c61724578706f6e6560b58201527f6e743d2231352e31393735333435362220696e3d227232223e0000000000000060d58201527f3c666544697374616e744c6967687420656c65766174696f6e3d22363022206160ee8201526b3d34b6baba341e911811179f60a11b61010e820152741e17b332a9b832b1bab630b92634b3b43a34b7339f60591b61011a8201527f3c6665436f6d706f73697465206b313d22302e3522206b333d223122206b323d61012f8201527f222d302e352220696e323d2272322220696e3d22723422206f70657261746f7261014f8201527f3d2261726974686d657469632220726573756c743d2272393122206b343d223061016f820152631110179f60e11b61018f8201527f3c6665436f6d706f7369746520696e3d227239312220726573756c743d2272346101938201527f22206f70657261746f723d2261726974686d6574696322206b323d223222206b6101b38201527f333d22342220696e323d2272393122206b313d223022206b343d222d302e35226101d38201527f2069643d226665436f6d706f7369746539343922202f3e0000000000000000006101f3820152751e3332a33637b7b210333637b7b216b1b7b637b91e9160511b61020a82019081529150610f21906102200187610a2d565b7411103932b9bab63a1e913932b9bab63a189110179f60591b81527f3c6665426c656e64206d6f64653d226e6f726d616c2220696e323d227265737560158201526e363a18911034b71e91391a1110179f60891b6035820152681e17b334b63a32b91f60b91b6044820152661e17b232b3399f60c91b604d8201527f3c726563742077696474683d2235303022206865696768743d2235303022206660548201527f696c7465723d2275726c2823637261636b65642d6c6176612922202f3e00000060748201526b1e3932b1ba103334b6361e9160a11b60918201908152915061100e90609d0186610a2d565b7f222077696474683d22353022206865696768743d2235302220783d2230222f3e815290506b1e3932b1ba103334b6361e9160a11b6020820152611091611058602c830186610a2d565b7f222077696474683d22353022206865696768743d2235302220783d223530222f8152661f1e17b9bb339f60c91b602082015260270190565b9998505050505050505050565b7f646174613a696d6167652f7376672b786d6c3b6261736536342c0000000000008152600082516110d681601a850160208701610988565b91909101601a0192915050565b620302e360ec1b815260008251611101816003850160208701610988565b9190910160030192915050565b630302e30360e41b81526000825161112d816004850160208701610988565b9190910160040192915050565b8181038181111561010857610108610a04565b634e487b7160e01b600052601260045260246000fd5b6000826111725761117261114d565b500690565b634e487b7160e01b600052604160045260246000fd5b602360f81b8152600082516111a9816001850160208701610988565b9190910160010192915050565b6040815260006111c960408301856109ac565b828103602084015261045e81856109ac565b6000826111ea576111ea61114d565b500490565b808202811582820484141761010857610108610a04565b634e487b7160e01b600052603260045260246000fd5b60008161122b5761122b610a04565b50600019019056fe4142434445464748494a4b4c4d4e4f505152535455565758595a6162636465666768696a6b6c6d6e6f707172737475767778797a303132333435363738392b2fa2646970667358221220cf76aae4364f70fd1088ef983a8a0cd43b07e6e81e19fa2eb14695897cd29e0f64736f6c63430008110033",
    "linkReferences": {}
  },
  "methodIdentifiers": {
    "constructImageURI(uint256)": "a929e684",
    "generateFrequency(uint256,bool)": "ed7ca60e",
    "generateOctaves(uint256,bool)": "ec851e24",
    "generateSVG(uint256)": "6dcee4ca",
    "generateScale(uint256,bool)": "5c6b358c"
  },
  "id": 28
}