{
  "abi": [
    {
      "inputs": [
        {
          "components": [
            {
              "internalType": "uint256",
              "name": "r",
              "type": "uint256"
            },
            {
              "internalType": "uint256",
              "name": "g",
              "type": "uint256"
            },
            {
              "internalType": "uint256",
              "name": "b",
              "type": "uint256"
            }
          ],
          "internalType": "struct Fossil.RGB[]",
          "name": "colors",
          "type": "tuple[]"
        }
      ],
      "name": "averageColors",
      "outputs": [
        {
          "components": [
            {
              "internalType": "uint256",
              "name": "r",
              "type": "uint256"
            },
            {
              "internalType": "uint256",
              "name": "g",
              "type": "uint256"
            },
            {
              "internalType": "uint256",
              "name": "b",
              "type": "uint256"
            }
          ],
          "internalType": "struct Fossil.RGB",
          "name": "",
          "type": "tuple"
        }
      ],
      "stateMutability": "pure",
      "type": "function"
    },
    {
      "inputs": [
        {
          "components": [
            {
              "internalType": "uint256",
              "name": "r",
              "type": "uint256"
            },
            {
              "internalType": "uint256",
              "name": "g",
              "type": "uint256"
            },
            {
              "internalType": "uint256",
              "name": "b",
              "type": "uint256"
            }
          ],
          "internalType": "struct Fossil.RGB",
          "name": "color",
          "type": "tuple"
        }
      ],
      "name": "averageWithWhite",
      "outputs": [
        {
          "components": [
            {
              "internalType": "uint256",
              "name": "r",
              "type": "uint256"
            },
            {
              "internalType": "uint256",
              "name": "g",
              "type": "uint256"
            },
            {
              "internalType": "uint256",
              "name": "b",
              "type": "uint256"
            }
          ],
          "internalType": "struct Fossil.RGB",
          "name": "",
          "type": "tuple"
        }
      ],
      "stateMutability": "pure",
      "type": "function"
    },
    {
      "inputs": [
        {
          "components": [
            {
              "internalType": "uint256",
              "name": "r",
              "type": "uint256"
            },
            {
              "internalType": "uint256",
              "name": "g",
              "type": "uint256"
            },
            {
              "internalType": "uint256",
              "name": "b",
              "type": "uint256"
            }
          ],
          "internalType": "struct Fossil.RGB",
          "name": "color",
          "type": "tuple"
        }
      ],
      "name": "complementaryColor",
      "outputs": [
        {
          "components": [
            {
              "internalType": "uint256",
              "name": "r",
              "type": "uint256"
            },
            {
              "internalType": "uint256",
              "name": "g",
              "type": "uint256"
            },
            {
              "internalType": "uint256",
              "name": "b",
              "type": "uint256"
            }
          ],
          "internalType": "struct Fossil.RGB",
          "name": "",
          "type": "tuple"
        }
      ],
      "stateMutability": "pure",
      "type": "function"
    },
    {
      "inputs": [
        {
          "internalType": "uint256",
          "name": "seed",
          "type": "uint256"
        }
      ],
      "name": "constructImageURI",
      "outputs": [
        {
          "internalType": "string",
          "name": "",
          "type": "string"
        }
      ],
      "stateMutability": "view",
      "type": "function"
    },
    {
      "inputs": [
        {
          "components": [
            {
              "internalType": "uint256",
              "name": "r",
              "type": "uint256"
            },
            {
              "internalType": "uint256",
              "name": "g",
              "type": "uint256"
            },
            {
              "internalType": "uint256",
              "name": "b",
              "type": "uint256"
            }
          ],
          "internalType": "struct Fossil.RGB[]",
          "name": "colors",
          "type": "tuple[]"
        }
      ],
      "name": "createRectsForColors",
      "outputs": [
        {
          "internalType": "string",
          "name": "",
          "type": "string"
        }
      ],
      "stateMutability": "pure",
      "type": "function"
    },
    {
      "inputs": [
        {
          "internalType": "uint256",
          "name": "input",
          "type": "uint256"
        },
        {
          "internalType": "uint256",
          "name": "divisor",
          "type": "uint256"
        },
        {
          "internalType": "uint256",
          "name": "decimalPlaces",
          "type": "uint256"
        }
      ],
      "name": "divideAndFormat",
      "outputs": [
        {
          "internalType": "string",
          "name": "",
          "type": "string"
        }
      ],
      "stateMutability": "view",
      "type": "function"
    },
    {
      "inputs": [
        {
          "internalType": "uint256",
          "name": "seed",
          "type": "uint256"
        }
      ],
      "name": "generateAnalogousColorPalette",
      "outputs": [
        {
          "components": [
            {
              "internalType": "uint256",
              "name": "r",
              "type": "uint256"
            },
            {
              "internalType": "uint256",
              "name": "g",
              "type": "uint256"
            },
            {
              "internalType": "uint256",
              "name": "b",
              "type": "uint256"
            }
          ],
          "internalType": "struct Fossil.RGB[]",
          "name": "",
          "type": "tuple[]"
        }
      ],
      "stateMutability": "view",
      "type": "function"
    },
    {
      "inputs": [
        {
          "internalType": "uint256",
          "name": "tokenId",
          "type": "uint256"
        }
      ],
      "name": "generateComponentTransfer",
      "outputs": [
        {
          "internalType": "string",
          "name": "",
          "type": "string"
        }
      ],
      "stateMutability": "view",
      "type": "function"
    },
    {
      "inputs": [
        {
          "internalType": "uint256",
          "name": "tokenId",
          "type": "uint256"
        },
        {
          "components": [
            {
              "internalType": "uint256",
              "name": "r",
              "type": "uint256"
            },
            {
              "internalType": "uint256",
              "name": "g",
              "type": "uint256"
            },
            {
              "internalType": "uint256",
              "name": "b",
              "type": "uint256"
            }
          ],
          "internalType": "struct Fossil.RGB[]",
          "name": "colors",
          "type": "tuple[]"
        }
      ],
      "name": "generateComponentTransfer",
      "outputs": [
        {
          "internalType": "string",
          "name": "",
          "type": "string"
        }
      ],
      "stateMutability": "view",
      "type": "function"
    },
    {
      "inputs": [
        {
          "internalType": "uint256",
          "name": "tokenId",
          "type": "uint256"
        },
        {
          "internalType": "bool",
          "name": "isFractalNoise",
          "type": "bool"
        }
      ],
      "name": "generateFrequency",
      "outputs": [
        {
          "internalType": "string",
          "name": "",
          "type": "string"
        }
      ],
      "stateMutability": "view",
      "type": "function"
    },
    {
      "inputs": [
        {
          "internalType": "uint256",
          "name": "seed",
          "type": "uint256"
        }
      ],
      "name": "generateGradient",
      "outputs": [
        {
          "internalType": "string",
          "name": "",
          "type": "string"
        }
      ],
      "stateMutability": "view",
      "type": "function"
    },
    {
      "inputs": [
        {
          "internalType": "uint256",
          "name": "seed",
          "type": "uint256"
        }
      ],
      "name": "generateMonochromaticColorPalette",
      "outputs": [
        {
          "components": [
            {
              "internalType": "uint256",
              "name": "r",
              "type": "uint256"
            },
            {
              "internalType": "uint256",
              "name": "g",
              "type": "uint256"
            },
            {
              "internalType": "uint256",
              "name": "b",
              "type": "uint256"
            }
          ],
          "internalType": "struct Fossil.RGB[]",
          "name": "",
          "type": "tuple[]"
        }
      ],
      "stateMutability": "view",
      "type": "function"
    },
    {
      "inputs": [
        {
          "internalType": "uint256",
          "name": "tokenId",
          "type": "uint256"
        }
      ],
      "name": "generateOctaves",
      "outputs": [
        {
          "internalType": "string",
          "name": "",
          "type": "string"
        }
      ],
      "stateMutability": "view",
      "type": "function"
    },
    {
      "inputs": [
        {
          "internalType": "uint256",
          "name": "seed",
          "type": "uint256"
        }
      ],
      "name": "generateRandomColorPalette",
      "outputs": [
        {
          "components": [
            {
              "internalType": "uint256",
              "name": "r",
              "type": "uint256"
            },
            {
              "internalType": "uint256",
              "name": "g",
              "type": "uint256"
            },
            {
              "internalType": "uint256",
              "name": "b",
              "type": "uint256"
            }
          ],
          "internalType": "struct Fossil.RGB[]",
          "name": "",
          "type": "tuple[]"
        }
      ],
      "stateMutability": "view",
      "type": "function"
    },
    {
      "inputs": [
        {
          "internalType": "uint256",
          "name": "seed",
          "type": "uint256"
        }
      ],
      "name": "generateSVG",
      "outputs": [
        {
          "internalType": "string",
          "name": "",
          "type": "string"
        }
      ],
      "stateMutability": "view",
      "type": "function"
    },
    {
      "inputs": [
        {
          "internalType": "uint256",
          "name": "tokenId",
          "type": "uint256"
        },
        {
          "internalType": "bool",
          "name": "isFractalNoise",
          "type": "bool"
        }
      ],
      "name": "generateScale",
      "outputs": [
        {
          "internalType": "string",
          "name": "",
          "type": "string"
        }
      ],
      "stateMutability": "view",
      "type": "function"
    },
    {
      "inputs": [
        {
          "internalType": "uint256",
          "name": "tokenId",
          "type": "uint256"
        },
        {
          "internalType": "bool",
          "name": "isFractalNoise",
          "type": "bool"
        }
      ],
      "name": "generateSpecularLighting",
      "outputs": [
        {
          "internalType": "string",
          "name": "",
          "type": "string"
        }
      ],
      "stateMutability": "view",
      "type": "function"
    },
    {
      "inputs": [
        {
          "internalType": "uint256",
          "name": "seed",
          "type": "uint256"
        }
      ],
      "name": "generateTetradicAnalogousColorPalette",
      "outputs": [
        {
          "components": [
            {
              "internalType": "uint256",
              "name": "r",
              "type": "uint256"
            },
            {
              "internalType": "uint256",
              "name": "g",
              "type": "uint256"
            },
            {
              "internalType": "uint256",
              "name": "b",
              "type": "uint256"
            }
          ],
          "internalType": "struct Fossil.RGB[]",
          "name": "",
          "type": "tuple[]"
        }
      ],
      "stateMutability": "view",
      "type": "function"
    },
    {
      "inputs": [
        {
          "internalType": "uint256",
          "name": "seed",
          "type": "uint256"
        }
      ],
      "name": "generateTetradicColorPalette",
      "outputs": [
        {
          "components": [
            {
              "internalType": "uint256",
              "name": "r",
              "type": "uint256"
            },
            {
              "internalType": "uint256",
              "name": "g",
              "type": "uint256"
            },
            {
              "internalType": "uint256",
              "name": "b",
              "type": "uint256"
            }
          ],
          "internalType": "struct Fossil.RGB[]",
          "name": "",
          "type": "tuple[]"
        }
      ],
      "stateMutability": "view",
      "type": "function"
    },
    {
      "inputs": [
        {
          "components": [
            {
              "internalType": "uint256",
              "name": "hue",
              "type": "uint256"
            },
            {
              "internalType": "uint256",
              "name": "saturation",
              "type": "uint256"
            },
            {
              "internalType": "uint256",
              "name": "lightness",
              "type": "uint256"
            }
          ],
          "internalType": "struct Fossil.HSL",
          "name": "color",
          "type": "tuple"
        }
      ],
      "name": "toColorRGB",
      "outputs": [
        {
          "components": [
            {
              "internalType": "uint256",
              "name": "r",
              "type": "uint256"
            },
            {
              "internalType": "uint256",
              "name": "g",
              "type": "uint256"
            },
            {
              "internalType": "uint256",
              "name": "b",
              "type": "uint256"
            }
          ],
          "internalType": "struct Fossil.RGB",
          "name": "",
          "type": "tuple"
        }
      ],
      "stateMutability": "pure",
      "type": "function"
    }
  ],
  "bytecode": {
    "object": "0x6080806040523461001657612f19908161001c8239f35b600080fdfe6040608081526004908136101561001557600080fd5b60009160e0908335821c918263167feb301461107b5782633664814d14610e6e578263385f81b014610d0357826339b35fd714610ce1578263497d7a1714610c835782635c6b358c14610c5d578263687524a814610b07575081636dcee4ca14610ae65781637486c45114610a345781638df4db1614610735578163919f96501461066a578163a929e68414610593578163aa96a90a14610567578163b7eb3f7514610549578163d284f2f71461050a578163d5c68181146104cd578163e73eeb4014610490578163ed5d846314610280578163ed7ca60e1461014d575063f5773d261461010257600080fd5b346101495760603660031901126101495760609061014761012a61012536611326565b6119f3565b915180926040809180518452602081015160208501520151910152565bf35b5080fd5b82843461027d5761015d3661127a565b15610237579261016f6101a0946117c2565b915b50606482106101a4575061018761018c916115fd565b6115c2565b905b519182916020835260208301906111f9565b0390f35b90600a81106101f5576101b791506115fd565b6101ef602383518093620302e360ec1b60208301526101df81518092602086860191016111d6565b8101036003810184520182611305565b9061018e565b60246102036101ef926115fd565b9284518094630302e30360e41b602083015261022881518092602087860191016111d6565b81010390810184520182611305565b60199083516020810191825260208152610250816112cf565b51902006600f810180911161026a57926101a09391610171565b634e487b7160e01b825260118452602482fd5b80fd5b8383346101495760208060031936011261048c5783359082519360c085018581106001600160401b038211176104795784526005855281815b60a081106104635750506102cc83611740565b92600193848201808311610450576102e39061177c565b6002830180841161043d576102f79061177c565b9087516103038161129e565b83815286810193828552898201978489528a51916103208361129e565b825281019283528981019384528a5190811561042a57610168918204888b5b610353575b6101a08e8e519182918261121e565b8d518110156104255761037a818f61036a886119f3565b6103748383611dc3565b52611dc3565b5083610387838751611407565b0685528d5160001981019081116103ee578114610402576103a8818a611407565b600381018091116103ee578f906103be906117a8565b89526103ca828b611407565b9081018091116103ee57906103e16103e8926117a8565b8c52611d7e565b8b61033f565b8f8b6011602492634e487b7160e01b835252fd5b825160b481018091116103ee5790846103e8920686528651895287518c52611d7e565b610344565b634e487b7160e01b885260128d52602488fd5b634e487b7160e01b855260118a52602485fd5b634e487b7160e01b845260118952602484fd5b61046b61197c565b8282890101520182906102b9565b634e487b7160e01b825260418752602482fd5b8280fd5b82843461027d57602036600319011261027d578235906001600160401b03821161027d57506104c86101a09361018c92369101611356565b612dd2565b82843461027d578160031936011261027d57602435906001600160401b03821161027d57506105056101a09361018c92369101611356565b611e62565b82843461027d57602036600319011261027d578235906001600160401b03821161027d575061012a61054460609461014793369101611356565b6122d8565b505034610149576101a09061055d3661127a565b505061018c61180b565b82843461027d57602036600319011261027d57506105886101a0923561209d565b90519182918261121e565b90503461048c5760209182600319360112610666576105b56101a092356125d5565b93806105c08661147c565b95610611603a855180997f646174613a696d6167652f7376672b786d6c3b6261736536342c0000000000008a830152610601815180928c86860191016111d6565b810103601a81018a520188611305565b8351610646816106388982019463104c13eb60e21b86528a602484015260448301906111f9565b03601f198101835282611305565b51906a636f6e736f6c652e6c6f675afa50519282849384528301906111f9565b8380fd5b8383346101495760603660031901126101495761068636611326565b61068e61197c565b50815161069a8161129e565b60ff815282602082019160ff8352019060ff825282519460ff86018096116107225760608661014787876106e588836106da8a6020860151905190611407565b930151905190611407565b60011c908251946106f58661129e565b60011c855260011c6020850152818401525180926040809180518452602081015160208501520151910152565b634e487b7160e01b815260118752602490fd5b838334610149576020928360031936011261048c5735916001918281519261075c8461129e565b805b6060808210156107735785820152870161075e565b505085879495825b600381106108f55787876101a0886108e660da855183868801519701519684519788927f3c6665436f6d706f6e656e745472616e7366657220726573756c743d2272657389850152653ab63a19111f60d11b878501527f3c666546756e635220747970653d22646973637265746522207461626c655661604685015265363ab2b99e9160d11b9081606686015261081b815180928c606c890191016111d6565b840192631110179f60e11b9384606c8201527f3c666546756e634720747970653d22646973637265746522207461626c655661607082015282609082015261086c825180938d6096850191016111d6565b01908360968301527f3c666546756e634220747970653d22646973637265746522207461626c655661609a83015260ba8201526108b2825180938b60c0850191016111d6565b019060c0820152751e17b332a1b7b6b837b732b73a2a3930b739b332b91f60511b60c48201520360ba810187520185611305565b519282849384528301906111f9565b8551610900816112cf565b858152600360fc1b88820152845b6002811061097257509061096d9161095260228951836109388d83965192818492860191016111d6565b810161203160f01b8d820152036002810184520182611305565b61095c828b61206d565b52610967818a61206d565b50611d7e565b61077b565b9295919798969490610a0c610a129161098b8988611407565b8c89518181019283528181526109a0816112cf565b600a92839151902006918214600014610a1f57610a0691506109c06117ee565b925b8a5193816109d986935180928680870191016111d6565b8201600160fd1b848201526109f88251809360219687850191016111d6565b010387810184520182611305565b97611d7e565b93611d7e565b989791959094969861090e565b610a2e610187610a06936115fd565b926109c2565b83833461014957606036600319011261014957610a5036611326565b610a5861197c565b5080519060ff91820393828511610ac0576020820151830391838311610ad3578401518303928311610ac057606085610147868686825194610a998661129e565b85526020850152818401525180926040809180518452602081015160208501520151910152565b634e487b7160e01b815260118652602490fd5b634e487b7160e01b825260118752602482fd5b82843461027d57602036600319011261027d575061018c6101a092356125d5565b83853461027d576020806003193601126101495784359183519461010086018681106001600160401b03821117610c4a5785526007865282825b828110610c3457505050610b5483611740565b95600193848101809111610c215760146064918751868101918252868152610b7b816112cf565b5190200693865198610b8c8a61129e565b8952880152848701928352610ba0876119f3565b908651908115610c0e57506064049190845b610bc4575b8551806101a0898261121e565b8651821015610c0957610bd78288611dc3565b52610be28187611dc3565b50610bee828451611407565b8352610c02610bfc886119f3565b91611d7e565b9084610bb2565b610bb7565b634e487b7160e01b845260129052602483fd5b634e487b7160e01b835260118252602483fd5b610c3c61197c565b82828a010152018390610b41565b634e487b7160e01b835260418852602483fd5b50505034610149576101a09061018c610c7e610c783661127a565b5061177c565b6115fd565b5082843461027d57602036600319011261027d576001825160208101908535825260208152610cb1816112cf565b519020169260028401809411610cce576101a08361018c866115fd565b634e487b7160e01b825260119052602490fd5b5082843461027d57602036600319011261027d575061018c6101a09235612385565b5082843461027d576020908160031936011261027d578335819282935b606051851015610e0857610d45610d4082610d3b8887611407565b611407565b611762565b610d4f8685611407565b60018101809111610df557610d4083610d6792611407565b610d718786611407565b60028101809111610de257610d4084610d8992611407565b90885192610d968461129e565b83528483015287820152610da986611d8d565b52610db385611d8d565b5060038101809111610dcf57610dc99094611d7e565b93610d20565b634e487b7160e01b845260118752602484fd5b634e487b7160e01b875260118a52602487fd5b634e487b7160e01b865260118952602486fd5b5084518181526060805182840181905291928392838901926080929088905b838210610e345786860387f35b918496508286610e5e60019496988498516040809180518452602081015160208501520151910152565b0196019201869594929391610e27565b50838334610149576020918260031936011261027d57833590610e9082611740565b9060019283810180821161106857610eb190865190888201528781526112cf565b60029081810180911161106857610ed190865190888201528781526112cf565b845192610edd8461129e565b83528583016064815285840196603288528651976101a089018981106001600160401b03821117611055578852600c895281855b610180811061103f5750508685905b610f32575b8851806101a08c8261121e565b895181101561103a57610f44876119f3565b610f4e828c611dc3565b52610f59818b611dc3565b508651601d19810190811161101457610f8c9085518451908c5192610f7d8461129e565b8352868301528b8201526119f3565b888201908183116110275790610fad91610fa6828e611dc3565b528b611dc3565b508651601e810180911161101457610fd09085518451908c5192610f7d8461129e565b85820180921161101457610fe4828c611dc3565b52610fef818b611dc3565b508651605a810180911161101457889161016861100e92068952611d7e565b90610f20565b634e487b7160e01b875260118c52602487fd5b634e487b7160e01b885260118d52602488fd5b610f25565b61104761197c565b82828d010152018290610f11565b634e487b7160e01b865260418b52602486fd5b634e487b7160e01b835260118852602483fd5b8385833461014957606036600319011261014957803590602480356044356110a3828661142a565b9482156111c45782900690604d81116111b257600a0a908181029181830414901517156111a057906110d49161142a565b93600585101561117c575b600a851461114a575b5050506111006110fa6101a0926115fd565b926115fd565b926108e6602182518096865161111e816020998a80870191016111d6565b8201601760f91b8882015261113b825180938a87850191016111d6565b01036001810187520185611305565b8091929450936001840180941161116c575050506111006110fa6101a06110e8565b634e487b7160e01b825260119052fd5b936001810180911161118e57936110df565b50634e487b7160e01b84526011825283fd5b634e487b7160e01b8652601184528286fd5b634e487b7160e01b8752601185528387fd5b634e487b7160e01b8752601285528387fd5b60005b8381106111e95750506000910152565b81810151838201526020016111d9565b90602091611212815180928185528580860191016111d6565b601f01601f1916010190565b6020908160408183019282815285518094520193019160005b828110611245575050505090565b909192938260608261126e60019489516040809180518452602081015160208501520151910152565b01950193929101611237565b6040906003190112611299576004359060243580151581036112995790565b600080fd5b606081019081106001600160401b038211176112b957604052565b634e487b7160e01b600052604160045260246000fd5b604081019081106001600160401b038211176112b957604052565b602081019081106001600160401b038211176112b957604052565b90601f801991011681019081106001600160401b038211176112b957604052565b6060906003190112611299576040519061133f8261129e565b600435825260243560208301526044356040830152565b81601f82011215611299578035906001600160401b0382116112b9576040805193602091611389838660051b0187611305565b8486528286019183606080970286010194818611611299578401925b8584106113b6575050505050505090565b86848303126112995784879184516113cd8161129e565b86358152828701358382015285870135868201528152019301926113a5565b6001600160401b0381116112b957601f01601f191660200190565b9190820180921161141457565b634e487b7160e01b600052601160045260246000fd5b8115611434570490565b634e487b7160e01b600052601260045260246000fd5b90611454826113ec565b6114616040519182611305565b8281528092611472601f19916113ec565b0190602036910137565b8051156115ae5760405161148f8161129e565b604081527f4142434445464748494a4b4c4d4e4f505152535455565758595a61626364656660208201527f6768696a6b6c6d6e6f707172737475767778797a303132333435363738392b2f60408201528151600292838201809211611414576003918290046001600160fe1b038116810361141457611511908594951b61144a565b936020850193829183518401925b83811061155d575050505051068060011461154a5760021461153f575090565b603d90600019015390565b50603d9081600019820153600119015390565b85600491979293949701918251600190603f9082828260121c16880101518453828282600c1c16880101518385015382828260061c168801015188850153168501015187820153019592919061151f565b506040516115bb816112ea565b6000815290565b906115fb6022604051809461181760f11b60208301526115eb81518092602086860191016111d6565b8101036002810185520183611305565b565b806000917a184f03e93ff9f4daa797ed6e38ed64bf6a1f01000000000000000080821015611732575b506d04ee2d6d415b85acef810000000080831015611723575b50662386f26fc1000080831015611714575b506305f5e10080831015611705575b50612710808310156116f6575b5060648210156116e6575b600a809210156116dc575b60019081602161169482870161144a565b95860101905b6116a6575b5050505090565b600019019083906f181899199a1a9b1b9c1cb0b131b232b360811b8282061a8353049182156116d75791908261169a565b61169f565b9160010191611683565b9190606460029104910191611678565b6004919392049101913861166d565b60089193920491019138611660565b60109193920491019138611651565b6020919392049101913861163f565b604093508104915038611626565b61016890604051602081019182526020815261175b816112cf565b5190200690565b60ff90604051602081019182526020815261175b816112cf565b6032906040516020810191825260208152611796816112cf565b51902006603281018091116114145790565b606490604051602081019182526020815261175b816112cf565b603c9060405160208101918252602081526117dc816112cf565b51902006601e81018091116114145790565b604051906117fb826112cf565b60018252603160f81b6020830152565b61189761197960ea60405161181f816112cf565b6002815260208101612d3560f01b81526118376117ee565b906040519586937f3c666553706563756c61724c69676874696e67206c69676874696e672d636f6c60208601527f6f723d22236666666666662220737572666163655363616c653d2200000000006040860152518092605b8601906111d6565b82017f2220726573756c743d227234222073706563756c6172436f6e7374616e743d22605b8201526118d3825180936020607b850191016111d6565b017f222073706563756c61724578706f6e656e743d22312220696e3d227232223e00607b8201527f3c666544697374616e744c6967687420656c65766174696f6e3d22302220617a609a8201526934b6baba341e9118111f60b11b60ba820152701e17b332a234b9ba30b73a2634b3b43a1f60791b60c4820152741e17b332a9b832b1bab630b92634b3b43a34b7339f60591b60d58201520360ca810184520182611305565b90565b604051906119898261129e565b60006040838281528260208201520152565b9190916000838201938412911290801582169115161761141457565b818102929160008212600160ff1b82141661141457818405149015171561141457565b8181039291600013801582851316918412161761141457565b6119fb61197c565b5060008151906127109182810290808204841490151715611b4757610168900490602084015193606485029480860460641490151715611b47576040015193606485029480860460641490151715611b475780611aa05750505081825b60ff91848302948386040361141457818302918383040361141457808302928304036114145782908160405195611a8e8761129e565b04855204602084015204604082015290565b919391611388831215611b5b57808401908112600116611b4757611ac58491846119b7565b05915b8060011b906002820503611b475782611ae0916119da565b90610d0590818601918212818712908015821691151617611b335750611b07908383611b81565b93611b13818484611b81565b92610d0419820191821360011661141457611b2d92611b81565b90611a58565b634e487b7160e01b81526011600452602490fd5b634e487b7160e01b82526011600452602482fd5b8084611b74611b6d611b7b948761199b565b92866119b7565b05906119da565b91611ac8565b9092919260009384811280611c87575b5061271091828213611c70575b6106828212611c39576113888212611c3257611a0a90818312611bc45750929450505050565b84611bce916119da565b90868382039312818412811691841390151617611c1e5790611bef916119b7565b059081600602916006830503611c0a5761197992935061199b565b634e487b7160e01b84526011600452602484fd5b634e487b7160e01b86526011600452602486fd5b9450505050565b83611c46919692966119da565b90600682029180830560061490151715611b3357506119799394611c69916119b7565b059061199b565b9061270f198101908113600116611c1e5790611b9e565b6127108092019182128015821691151617611ca25738611b91565b634e487b7160e01b85526011600452602485fd5b60ff8160081c9116600a810290808204600a14901517156114145760081c906005821015611d6c575b600a8214611d47575b6021611cff611cf9611979936115fd565b936115fd565b926040519381611d198693518092602080870191016111d6565b8201601760f91b6020820152611d3882518093602087850191016111d6565b01036001810184520182611305565b90506000906001810180911115611ce857634e487b7160e01b82526011600452602482fd5b90600181018091116114145790611cdf565b60001981146114145760010190565b606051811015611da05760051b60800190565b634e487b7160e01b600052603260045260246000fd5b805115611da05760200190565b8051821015611da05760209160051b010190565b60216115fb919392936040519481611df98793518092602080870191016111d6565b8201611e0e82518093602080850191016111d6565b01600160fd1b6020820152036001810185520183611305565b906115fb602460405184611e458296518092602080860191016111d6565b8101631110179f60e11b6020820152036004810185520183611305565b906040805192611e718461129e565b602f8452602092838501937f3c6665436f6d706f6e656e745472616e736665722069643d2270616c6574746585526e11103932b9bab63a1e913931ba111f60891b84870152835192611ec28461129e565b602584527f3c666546756e635220747970653d227461626c6522207461626c6556616c756582850152640733d2220360dc1b938486820152928551611f068161129e565b602581527f3c666546756e634720747970653d227461626c6522207461626c6556616c756584820152858782015294865190611f418261129e565b602582527f3c666546756e634220747970653d227461626c6522207461626c6556616c75658583015287820152976000985b83518a1015611fce57611fbf611fc591611fa48a611fb7611faa8f611f98908b611dc3565b519b611fa48d51611cb6565b90611dd7565b9b611fa48b8d0151611cb6565b990151611cb6565b99611d7e565b98959495611f73565b909461197997929950751e17b332a1b7b6b837b732b73a2a3930b739b332b91f60511b9350956120209861200f61200961200960369a611e27565b93611e27565b9351998a97518092888a01906111d6565b8601612034825180938880850191016111d6565b01612047825180938780850191016111d6565b0161205a825180938680850191016111d6565b0191820152036016810184520182611305565b906003811015611da05760051b0190565b6040519061208b826112cf565b60038252621a1cdb60ea1b6020830152565b600180820191828111611414576040805191602092838101908682528481526120c5816112cf565b610168918291519020069060028301808811611414576120e660039161177c565b9301808811611414576032908551878101918252878152612106816112cf565b5190200694601994858701809711611414576121458151976121278961129e565b85895283890196808852838a019682885261214061207e565b612273565b80519860a08a018a81106001600160401b038211176112b9578252600493848b528360005b6080811061225c57505061217d896119f3565b6121868c611db6565b526121908b611db6565b5089805b6121a7575b505050505050505050505090565b8b51811015612257578951605a8101809111612242578290068a526121d46121cf8285611407565b61177c565b88526121e08184611407565b8b810180911161224257604b908551878101918252878152612201816112cf565b5190200689810180911161224257816109678d97969594938f61036a8f6101258f978f98816122389a52835190519061214061207e565b9091929394612194565b601187634e487b7160e01b6000525260246000fd5b612199565b8c828261226761197c565b9201015201849061216a565b90926122c56000949385946040519384926122a760208501976304772b3360e11b89526080602487015260a48601906111f9565b9260448501526064840152608483015203601f198101835282611305565b51906a636f6e736f6c652e6c6f675afa50565b6122e061197c565b506000908180805b835185101561234157612333612326612310612339936123088989611dc3565b515190611407565b93602061231d8989611dc3565b51015190611407565b93604061231d8888611dc3565b94611d7e565b9391906122e8565b612368929194506123576123609185519061142a565b9484519061142a565b92519061142a565b90604051926123768461129e565b83526020830152604082015290565b6040908151605a602091828101908482528381526123a2816112cf565b51902006606092600190818116159081156125c9575b50156125c05760ff60025b6000929116600019810181811192905b8285106124a957505050505092611979926078926124806124147f6e74313432373722206772616469656e745472616e73666f726d3d22726f7461976115fd565b84519788957f3c6c696e6561724772616469656e742069643d226c696e65617247726164696585880152860152620e8ca560eb1b606086015261246081518092856063890191016111d6565b840191631491101f60e11b606384015283519384916067850191016111d6565b01701e17b634b732b0b923b930b234b2b73a1f60791b6067820152036058810184520182611305565b9091929396606490818902918983041489151715611414578561141457610a068a6124d7856125919561142a565b928b871661259a578a61250583516124ee816112cf565b6005815264776869746560d81b83820152956115fd565b948351958361251d88955180928680890191016111d6565b84016d1e39ba37b81037b33339b2ba1e9160911b8482015281519061254a82602e948786850191016111d6565b01906e12911039ba37b816b1b7b637b91e9160891b9082015261257782518093603d9586850191016111d6565b6211179f60e91b910191820152038a810184520182611305565b939291906123d3565b8a61250583516125a9816112cf565b6005815264626c61636b60d81b83820152956115fd565b60ff60036123c3565b600391500615386123b8565b60408051916125e3836112cf565b600c8352602090818401936b6672616374616c4e6f69736560a01b8552612609826117c2565b60648110612cad5761018761261d916115fd565b905b6001855185810190858252868152612636816112cf565b51902016600281018091116114145761264e906115fd565b6126578461177c565b612660906115fd565b6126698561209d565b91612673836122d8565b5061267d83611e62565b9061268784612dd2565b9661269190612385565b9961269a61180b565b956126a486611db6565b516126ae90612d2a565b956126b890611db6565b516126c290612d2a565b978a8c519d8e809e8382017f3c7376672077696474683d2235303022206865696768743d2235303022207669905281017f6577426f783d223020302035303020353030222076657273696f6e3d22312e3190526060017f2220786d6c6e733d22687474703a2f2f7777772e77332e6f72672f323030302f90528d6439bb33911f60d91b6080820152608501651e3232b3399f60d11b90528d815192608b84920192019161276e926111d6565b7f3c66696c7465722069643d22637261636b65642d6c6176612220636f6c6f722d608b918e01918201527f696e746572706f6c6174696f6e2d66696c746572733d2273524742223e00000060ab8201527f3c666554757262756c656e636520626173654672657175656e63793d2200000060c88201528151916127f990839060e58401908f016111d6565b01906711103a3cb8329e9160c11b60e583015251918260ed830161281c926111d6565b016d1110373ab6a7b1ba30bb32b99e9160911b60ed820152815191828a60fb8401920191612849926111d6565b7f2220726573756c743d2272312220696e3d22536f75726365477261706869632260fb92909101918201526210179f60e91b61011b8201527f3c6665446973706c6163656d656e744d617020726573756c743d22723522207861011e8201527f4368616e6e656c53656c6563746f723d22522220696e323d2272312220696e3d61013e8201527f2272312220794368616e6e656c53656c6563746f723d224722207363616c653d61015e820152601160f91b61017e820152825161017f9390919061291b908390868401908c016111d6565b631110179f60e11b91019283018190527f3c6665436f6d706f7369746520726573756c743d22723222206f70657261746f6101838401527f723d22696e2220696e3d22536f75726365477261706869632220696e323d22726101a3840152641a9110179f60d91b6101c38401528451909485936101c892916129a4908390858401908d016111d6565b7f3c6665436f6d706f73697465206b313d22302e3522206b333d223122206b323d9101918201527f222d302e352220696e323d2272322220696e3d22723422206f70657261746f726101e88201527f3d2261726974686d657469632220726573756c743d2272393122206b343d223061020882015261022881018390527f3c6665436f6d706f7369746520696e3d227239312220726573756c743d22723461022c8201527f22206f70657261746f723d2261726974686d6574696322206b323d223022206b61024c8201527f333d22342220696e323d2272393122206b313d223022206b343d222d3022202f61026c820152601f60f91b61028c820152815161028d92909190612abb908390858401908c016111d6565b019081017f3c6665466c6f6f6420726573756c743d22726573756c74312220666c6f6f642d90526631b7b637b91e9160c91b6102ad8201528251906102b4938289868401920191612b0b926111d6565b01918201527f3c6665426c656e64206d6f64653d226e6f726d616c2220696e3d2272637422206102b88201526f34b7191e913932b9bab63a189110179f60811b6102d8820152681e17b334b63a32b91f60b91b6102e8820152661e17b232b3399f60c91b6102f18201527f3c726563742077696474683d2235303022206865696768743d223530302220666102f88201527f696c6c3d2275726c28236c696e6561724772616469656e7431343237372922206103188201527f66696c7465723d2275726c2823637261636b65642d6c6176612922207374796c6103388201527f653d2266696c7465723a75726c2823637261636b65642d6c6176612922202f3e6103588201527f3c726563742077696474683d22353022206865696768743d2235302220783d226103788201526e1811103c9e911811103334b6361e9160891b61039882015282516103a793909190612c6b9083908684019089016111d6565b0191820152815191826103ab94858401920191612c87926111d6565b01908101651e17b9bb339f60d11b905203610391810182526103b1016119799082611305565b600a8110612cea57612cbe906115fd565b612ce4602386518093620302e360ec1b888301526101df815180928a86860191016111d6565b9061261f565b612cf3906115fd565b612ce4602486518093630302e30360e41b88830152612d1a815180928a86860191016111d6565b8101036004810184520182611305565b6119796029612d3983516115fd565b612d536040612d4b60208701516115fd565b9501516115fd565b604051948592630e4cec4560e31b6020850152612d7a8151809260206024880191016111d6565b83019061016160f51b91826024820152612d9e8251809360206026850191016111d6565b01906026820152612db98251809360206028850191016111d6565b01602960f81b6028820152036009810184520182611305565b906040805192612de1846112ea565b60009384815284905b8251821015611c32576032808302838104821484151715612ecf576052612ec99392612e18610bfc936115fd565b93612e2c612e26888a611dc3565b51612d2a565b948951958287935192612e838d85612e4d602097889687808c0191016111d6565b8701927f3c726563742077696474683d22353022206865696768743d2235302220783d22858501528051948592850191016111d6565b016d11103c9e911811103334b6361e9160911b8c820152612eae82518093604e9586850191016111d6565b631110179f60e11b9101918201520390810184520182611305565b90612dea565b634e487b7160e01b88526011600452602488fdfea264697066735822122031a707270ce701a072eba0f5cfd99461347b1afdcad2f8371788be55cab9419364736f6c63430008110033",
    "linkReferences": {}
  },
  "methodIdentifiers": {
    "averageColors((uint256,uint256,uint256)[])": "d284f2f7",
    "averageWithWhite((uint256,uint256,uint256))": "919f9650",
    "complementaryColor((uint256,uint256,uint256))": "7486c451",
    "constructImageURI(uint256)": "a929e684",
    "createRectsForColors((uint256,uint256,uint256)[])": "e73eeb40",
    "divideAndFormat(uint256,uint256,uint256)": "167feb30",
    "generateAnalogousColorPalette(uint256)": "ed5d8463",
    "generateComponentTransfer(uint256)": "8df4db16",
    "generateComponentTransfer(uint256,(uint256,uint256,uint256)[])": "d5c68181",
    "generateFrequency(uint256,bool)": "ed7ca60e",
    "generateGradient(uint256)": "39b35fd7",
    "generateMonochromaticColorPalette(uint256)": "687524a8",
    "generateOctaves(uint256)": "497d7a17",
    "generateRandomColorPalette(uint256)": "385f81b0",
    "generateSVG(uint256)": "6dcee4ca",
    "generateScale(uint256,bool)": "5c6b358c",
    "generateSpecularLighting(uint256,bool)": "b7eb3f75",
    "generateTetradicAnalogousColorPalette(uint256)": "3664814d",
    "generateTetradicColorPalette(uint256)": "aa96a90a",
    "toColorRGB((uint256,uint256,uint256))": "f5773d26"
  },
  "id": 28
}