{
  "abi": [
    {
      "inputs": [
        {
          "components": [
            {
              "internalType": "uint256",
              "name": "r",
              "type": "uint256"
            },
            {
              "internalType": "uint256",
              "name": "g",
              "type": "uint256"
            },
            {
              "internalType": "uint256",
              "name": "b",
              "type": "uint256"
            }
          ],
          "internalType": "struct Fossil.RGB[]",
          "name": "colors",
          "type": "tuple[]"
        }
      ],
      "name": "averageColors",
      "outputs": [
        {
          "components": [
            {
              "internalType": "uint256",
              "name": "r",
              "type": "uint256"
            },
            {
              "internalType": "uint256",
              "name": "g",
              "type": "uint256"
            },
            {
              "internalType": "uint256",
              "name": "b",
              "type": "uint256"
            }
          ],
          "internalType": "struct Fossil.RGB",
          "name": "",
          "type": "tuple"
        }
      ],
      "stateMutability": "pure",
      "type": "function"
    },
    {
      "inputs": [
        {
          "components": [
            {
              "internalType": "uint256",
              "name": "r",
              "type": "uint256"
            },
            {
              "internalType": "uint256",
              "name": "g",
              "type": "uint256"
            },
            {
              "internalType": "uint256",
              "name": "b",
              "type": "uint256"
            }
          ],
          "internalType": "struct Fossil.RGB",
          "name": "color",
          "type": "tuple"
        }
      ],
      "name": "averageWithWhite",
      "outputs": [
        {
          "components": [
            {
              "internalType": "uint256",
              "name": "r",
              "type": "uint256"
            },
            {
              "internalType": "uint256",
              "name": "g",
              "type": "uint256"
            },
            {
              "internalType": "uint256",
              "name": "b",
              "type": "uint256"
            }
          ],
          "internalType": "struct Fossil.RGB",
          "name": "",
          "type": "tuple"
        }
      ],
      "stateMutability": "pure",
      "type": "function"
    },
    {
      "inputs": [
        {
          "components": [
            {
              "internalType": "uint256",
              "name": "r",
              "type": "uint256"
            },
            {
              "internalType": "uint256",
              "name": "g",
              "type": "uint256"
            },
            {
              "internalType": "uint256",
              "name": "b",
              "type": "uint256"
            }
          ],
          "internalType": "struct Fossil.RGB",
          "name": "color",
          "type": "tuple"
        }
      ],
      "name": "complementaryColor",
      "outputs": [
        {
          "components": [
            {
              "internalType": "uint256",
              "name": "r",
              "type": "uint256"
            },
            {
              "internalType": "uint256",
              "name": "g",
              "type": "uint256"
            },
            {
              "internalType": "uint256",
              "name": "b",
              "type": "uint256"
            }
          ],
          "internalType": "struct Fossil.RGB",
          "name": "",
          "type": "tuple"
        }
      ],
      "stateMutability": "pure",
      "type": "function"
    },
    {
      "inputs": [
        {
          "internalType": "uint256",
          "name": "seed",
          "type": "uint256"
        }
      ],
      "name": "constructImageURI",
      "outputs": [
        {
          "internalType": "string",
          "name": "",
          "type": "string"
        }
      ],
      "stateMutability": "view",
      "type": "function"
    },
    {
      "inputs": [
        {
          "components": [
            {
              "internalType": "uint256",
              "name": "r",
              "type": "uint256"
            },
            {
              "internalType": "uint256",
              "name": "g",
              "type": "uint256"
            },
            {
              "internalType": "uint256",
              "name": "b",
              "type": "uint256"
            }
          ],
          "internalType": "struct Fossil.RGB[]",
          "name": "colors",
          "type": "tuple[]"
        }
      ],
      "name": "createRectsForColors",
      "outputs": [
        {
          "internalType": "string",
          "name": "",
          "type": "string"
        }
      ],
      "stateMutability": "pure",
      "type": "function"
    },
    {
      "inputs": [
        {
          "internalType": "uint256",
          "name": "input",
          "type": "uint256"
        },
        {
          "internalType": "uint256",
          "name": "divisor",
          "type": "uint256"
        },
        {
          "internalType": "uint256",
          "name": "decimalPlaces",
          "type": "uint256"
        }
      ],
      "name": "divideAndFormat",
      "outputs": [
        {
          "internalType": "string",
          "name": "",
          "type": "string"
        }
      ],
      "stateMutability": "view",
      "type": "function"
    },
    {
      "inputs": [
        {
          "internalType": "uint256",
          "name": "seed",
          "type": "uint256"
        }
      ],
      "name": "generateAnalogousColorPalette",
      "outputs": [
        {
          "components": [
            {
              "internalType": "uint256",
              "name": "r",
              "type": "uint256"
            },
            {
              "internalType": "uint256",
              "name": "g",
              "type": "uint256"
            },
            {
              "internalType": "uint256",
              "name": "b",
              "type": "uint256"
            }
          ],
          "internalType": "struct Fossil.RGB[]",
          "name": "",
          "type": "tuple[]"
        }
      ],
      "stateMutability": "view",
      "type": "function"
    },
    {
      "inputs": [
        {
          "internalType": "uint256",
          "name": "tokenId",
          "type": "uint256"
        }
      ],
      "name": "generateComponentTransfer",
      "outputs": [
        {
          "internalType": "string",
          "name": "",
          "type": "string"
        }
      ],
      "stateMutability": "view",
      "type": "function"
    },
    {
      "inputs": [
        {
          "internalType": "uint256",
          "name": "tokenId",
          "type": "uint256"
        },
        {
          "components": [
            {
              "internalType": "uint256",
              "name": "r",
              "type": "uint256"
            },
            {
              "internalType": "uint256",
              "name": "g",
              "type": "uint256"
            },
            {
              "internalType": "uint256",
              "name": "b",
              "type": "uint256"
            }
          ],
          "internalType": "struct Fossil.RGB[]",
          "name": "colors",
          "type": "tuple[]"
        }
      ],
      "name": "generateComponentTransfer",
      "outputs": [
        {
          "internalType": "string",
          "name": "",
          "type": "string"
        }
      ],
      "stateMutability": "view",
      "type": "function"
    },
    {
      "inputs": [
        {
          "internalType": "uint256",
          "name": "tokenId",
          "type": "uint256"
        },
        {
          "internalType": "bool",
          "name": "isFractalNoise",
          "type": "bool"
        }
      ],
      "name": "generateFrequency",
      "outputs": [
        {
          "internalType": "uint256",
          "name": "",
          "type": "uint256"
        },
        {
          "internalType": "string",
          "name": "",
          "type": "string"
        }
      ],
      "stateMutability": "view",
      "type": "function"
    },
    {
      "inputs": [
        {
          "internalType": "uint256",
          "name": "seed",
          "type": "uint256"
        }
      ],
      "name": "generateMonochromaticColorPalette",
      "outputs": [
        {
          "components": [
            {
              "internalType": "uint256",
              "name": "r",
              "type": "uint256"
            },
            {
              "internalType": "uint256",
              "name": "g",
              "type": "uint256"
            },
            {
              "internalType": "uint256",
              "name": "b",
              "type": "uint256"
            }
          ],
          "internalType": "struct Fossil.RGB[]",
          "name": "",
          "type": "tuple[]"
        }
      ],
      "stateMutability": "view",
      "type": "function"
    },
    {
      "inputs": [
        {
          "internalType": "uint256",
          "name": "tokenId",
          "type": "uint256"
        },
        {
          "internalType": "bool",
          "name": "isFractalNoise",
          "type": "bool"
        },
        {
          "internalType": "uint256",
          "name": "frequency",
          "type": "uint256"
        }
      ],
      "name": "generateOctaves",
      "outputs": [
        {
          "internalType": "string",
          "name": "",
          "type": "string"
        }
      ],
      "stateMutability": "view",
      "type": "function"
    },
    {
      "inputs": [
        {
          "internalType": "uint256",
          "name": "seed",
          "type": "uint256"
        }
      ],
      "name": "generateRandomColorPalette",
      "outputs": [
        {
          "components": [
            {
              "internalType": "uint256",
              "name": "r",
              "type": "uint256"
            },
            {
              "internalType": "uint256",
              "name": "g",
              "type": "uint256"
            },
            {
              "internalType": "uint256",
              "name": "b",
              "type": "uint256"
            }
          ],
          "internalType": "struct Fossil.RGB[]",
          "name": "",
          "type": "tuple[]"
        }
      ],
      "stateMutability": "view",
      "type": "function"
    },
    {
      "inputs": [
        {
          "internalType": "uint256",
          "name": "seed",
          "type": "uint256"
        }
      ],
      "name": "generateSVG",
      "outputs": [
        {
          "internalType": "string",
          "name": "",
          "type": "string"
        }
      ],
      "stateMutability": "view",
      "type": "function"
    },
    {
      "inputs": [
        {
          "internalType": "uint256",
          "name": "tokenId",
          "type": "uint256"
        },
        {
          "internalType": "bool",
          "name": "isFractalNoise",
          "type": "bool"
        },
        {
          "internalType": "uint256",
          "name": "frequency",
          "type": "uint256"
        }
      ],
      "name": "generateScale",
      "outputs": [
        {
          "internalType": "string",
          "name": "",
          "type": "string"
        }
      ],
      "stateMutability": "view",
      "type": "function"
    },
    {
      "inputs": [
        {
          "internalType": "uint256",
          "name": "tokenId",
          "type": "uint256"
        },
        {
          "internalType": "bool",
          "name": "isFractalNoise",
          "type": "bool"
        }
      ],
      "name": "generateSpecularLighting",
      "outputs": [
        {
          "internalType": "string",
          "name": "",
          "type": "string"
        }
      ],
      "stateMutability": "view",
      "type": "function"
    },
    {
      "inputs": [
        {
          "internalType": "uint256",
          "name": "seed",
          "type": "uint256"
        }
      ],
      "name": "generateTetradicColorPalette",
      "outputs": [
        {
          "components": [
            {
              "internalType": "uint256",
              "name": "r",
              "type": "uint256"
            },
            {
              "internalType": "uint256",
              "name": "g",
              "type": "uint256"
            },
            {
              "internalType": "uint256",
              "name": "b",
              "type": "uint256"
            }
          ],
          "internalType": "struct Fossil.RGB[]",
          "name": "",
          "type": "tuple[]"
        }
      ],
      "stateMutability": "view",
      "type": "function"
    },
    {
      "inputs": [
        {
          "components": [
            {
              "internalType": "uint256",
              "name": "hue",
              "type": "uint256"
            },
            {
              "internalType": "uint256",
              "name": "saturation",
              "type": "uint256"
            },
            {
              "internalType": "uint256",
              "name": "lightness",
              "type": "uint256"
            }
          ],
          "internalType": "struct Fossil.HSL",
          "name": "color",
          "type": "tuple"
        }
      ],
      "name": "toColorRGB",
      "outputs": [
        {
          "components": [
            {
              "internalType": "uint256",
              "name": "r",
              "type": "uint256"
            },
            {
              "internalType": "uint256",
              "name": "g",
              "type": "uint256"
            },
            {
              "internalType": "uint256",
              "name": "b",
              "type": "uint256"
            }
          ],
          "internalType": "struct Fossil.RGB",
          "name": "",
          "type": "tuple"
        }
      ],
      "stateMutability": "pure",
      "type": "function"
    }
  ],
  "bytecode": {
    "object": "0x60808060405234610016576128ea908161001c8239f35b600080fdfe6040608081526004908136101561001557600080fd5b60009160e0908335821c918263167feb3014610ca4578263385f81b014610b4c57826363d265a114610b25578263687524a8146109e1575081636dcee4ca146109c05781637486c451146109965781638df4db1614610697578163919f9650146105cc578163a71a0bfd14610572578163a929e68414610497578163aa96a90a1461046b578163b7eb3f7514610444578163d284f2f714610404578163d5c68181146103c6578163e73eeb4014610375578163ed5d846314610274578163ed7ca60e14610137575063f5773d26146100ec57600080fd5b346101335760603660031901126101335760609061013161011461010f36610f66565b61161b565b915180926040809180518452602081015160208501520151910152565bf35b5080fd5b839150346101335782600319360112610133578035610154610ea3565b1561023357610162906113ea565b915b506064821061019b575061019761018261017d8361123f565b611204565b83519384938452806020850152830190610e22565b0390f35b600a82106101ed57506101976101b08261123f565b6101e8602385518093620302e360ec1b60208301526101d88151809260208686019101610dff565b8101036003810184520182610f44565b610182565b610197906101e860246101ff8561123f565b9286518094630302e30360e41b60208301526102248151809260208786019101610dff565b81010390810184520182610f44565b602d908451602081019182526020815261024c81610f0c565b51902006600f81018091116102615791610164565b634e487b7160e01b835260118252602483fd5b82843461037257602090816003193601126103725761029384356113cf565b918351926102a084610eda565b8352606481840152603284840152815b60605181101561030c576102c38461161b565b6102cc826119b5565b526102d6816119b5565b508351601e81018091116102f957906101686102f4920685526119a6565b6102b0565b634e487b7160e01b845260118752602484fd5b5083518181526060805182840181905291928392838801926080929087905b8382106103385786860387f35b91849650828661036260019496988498516040809180518452602081015160208501520151910152565b019601920186959492939161032b565b80fd5b8284346103725760203660031901126103725782359067ffffffffffffffff821161037257506103ae610197936103b392369101610f96565b6127a3565b9051918291602083526020830190610e22565b8284346103725781600319360112610372576024359067ffffffffffffffff821161037257506103ff610197936103b392369101610f96565b611a8a565b8284346103725760203660031901126103725782359067ffffffffffffffff8211610372575061011461043f60609461013193369101610f96565b611df9565b50503461013357806003193601126101335761019790610462610ea3565b506103b3611433565b828434610372576020366003190112610372575061048c6101979235611ca4565b905191829182610e47565b90503461056e576020918260031936011261056a576104b96101979235611ee7565b93806104c4866110be565b95610515603a855180997f646174613a696d6167652f7376672b786d6c3b6261736536342c0000000000008a830152610505815180928c8686019101610dff565b810103601a81018a520188610f44565b835161054a8161053c8982019463104c13eb60e21b86528a60248401526044830190610e22565b03601f198101835282610f44565b51906a636f6e736f6c652e6c6f675afa5051928284938452830190610e22565b8380fd5b8280fd5b82843461037257600161058436610eb7565b50508351602081019182526020815261059c81610f0c565b5190201692600284018094116105b957610197836103b38661123f565b634e487b7160e01b825260119052602490fd5b838334610133576060366003190112610133576105e836610f66565b6105f06115a4565b5081516105fc81610eda565b60ff815282602082019160ff8352019060ff825282519460ff8601809611610684576060866101318787610647888361063c8a6020860151905190611049565b930151905190611049565b60011c9082519461065786610eda565b60011c855260011c6020850152818401525180926040809180518452602081015160208501520151910152565b634e487b7160e01b815260118752602490fd5b838334610133576020928360031936011261056e573591600191828151926106be84610eda565b805b6060808210156106d5578582015287016106c0565b505085879495825b600381106108575787876101978861084860da855183868801519701519684519788927f3c6665436f6d706f6e656e745472616e7366657220726573756c743d2272657389850152653ab63a19111f60d11b878501527f3c666546756e635220747970653d22646973637265746522207461626c655661604685015265363ab2b99e9160d11b9081606686015261077d815180928c606c89019101610dff565b840192631110179f60e11b9384606c8201527f3c666546756e634720747970653d22646973637265746522207461626c65566160708201528260908201526107ce825180938d609685019101610dff565b01908360968301527f3c666546756e634220747970653d22646973637265746522207461626c655661609a83015260ba820152610814825180938b60c085019101610dff565b019060c0820152751e17b332a1b7b6b837b732b73a2a3930b739b332b91f60511b60c48201520360ba810187520185610f44565b51928284938452830190610e22565b855161086281610f0c565b858152600360fc1b88820152845b600281106108d45750906108cf916108b4602289518361089a8d8396519281849286019101610dff565b810161203160f01b8d820152036002810184520182610f44565b6108be828b611c93565b526108c9818a611c93565b506119a6565b6106dd565b929591979896949061096e610974916108ed8988611049565b8c895181810192835281815261090281610f0c565b600a92839151902006918214600014610981576109689150610922611416565b925b8a51938161093b8693518092868087019101610dff565b8201600160fd1b8482015261095a825180936021968785019101610dff565b010387810184520182610f44565b976119a6565b936119a6565b9897919590949698610870565b61099061017d6109689361123f565b92610924565b505034610133576060366003190112610133576060906101316101146109bb36610f66565b611ea6565b82843461037257602036600319011261037257506103b36101979235611ee7565b8385346103725760208060031936011261013357843591835194610100860186811067ffffffffffffffff821117610b125785526007865282825b828110610afc57505050610a2f836113cf565b956001938481018091116102615760146064918751868101918252868152610a5681610f0c565b5190200693865198610a678a610eda565b8952880152848701928352610a7b8761161b565b908651908115610ae957506064049190845b610a9f575b8551806101978982610e47565b8651821015610ae457610ab282886119eb565b52610abd81876119eb565b50610ac9828451611049565b8352610add610ad78861161b565b916119a6565b9084610a8d565b610a92565b634e487b7160e01b845260129052602483fd5b610b046115a4565b82828a010152018390610a1c565b634e487b7160e01b835260418852602483fd5b5050503461013357610197906103b3610b47610b4036610eb7565b50506113a3565b61123f565b508284346103725760209081600319360112610372578335819282935b606051851015610c3e57610b8e610b8982610b848887611049565b611049565b611382565b610b988685611049565b60018101809111610c2b57610b8983610bb092611049565b610bba8786611049565b60028101809111610c1857610b8984610bd292611049565b90885192610bdf84610eda565b83528483015287820152610bf2866119b5565b52610bfc856119b5565b50600381018091116102f957610c1290946119a6565b93610b69565b634e487b7160e01b875260118a52602487fd5b634e487b7160e01b865260118952602486fd5b5084518181526060805182840181905291928392838901926080929088905b838210610c6a5786860387f35b918496508286610c9460019496988498516040809180518452602081015160208501520151910152565b0196019201869594929391610c5d565b838583346101335760603660031901126101335780359060248035604435610ccc828661106c565b948215610ded5782900690604d8111610ddb57600a0a90818102918183041490151715610dc95790610cfd9161106c565b936005851015610da5575b600a8514610d73575b505050610d29610d236101979261123f565b9261123f565b926108486021825180968651610d47816020998a8087019101610dff565b8201601760f91b88820152610d64825180938a8785019101610dff565b01036001810187520185610f44565b80919294509360018401809411610d9557505050610d29610d23610197610d11565b634e487b7160e01b825260119052fd5b9360018101809111610db75793610d08565b50634e487b7160e01b84526011825283fd5b634e487b7160e01b8652601184528286fd5b634e487b7160e01b8752601185528387fd5b634e487b7160e01b8752601285528387fd5b60005b838110610e125750506000910152565b8181015183820152602001610e02565b90602091610e3b81518092818552858086019101610dff565b601f01601f1916010190565b6020908160408183019282815285518094520193019160005b828110610e6e575050505090565b9091929382606082610e9760019489516040809180518452602081015160208501520151910152565b01950193929101610e60565b602435908115158203610eb257565b600080fd5b6060906003190112610eb257600435906024358015158103610eb2579060443590565b6060810190811067ffffffffffffffff821117610ef657604052565b634e487b7160e01b600052604160045260246000fd5b6040810190811067ffffffffffffffff821117610ef657604052565b6020810190811067ffffffffffffffff821117610ef657604052565b90601f8019910116810190811067ffffffffffffffff821117610ef657604052565b6060906003190112610eb25760405190610f7f82610eda565b600435825260243560208301526044356040830152565b81601f82011215610eb25780359067ffffffffffffffff8211610ef6576040805193602091610fca838660051b0187610f44565b8486528286019183606080970286010194818611610eb2578401925b858410610ff7575050505050505090565b8684830312610eb257848791845161100e81610eda565b8635815282870135838201528587013586820152815201930192610fe6565b67ffffffffffffffff8111610ef657601f01601f191660200190565b9190820180921161105657565b634e487b7160e01b600052601160045260246000fd5b8115611076570490565b634e487b7160e01b600052601260045260246000fd5b906110968261102d565b6110a36040519182610f44565b82815280926110b4601f199161102d565b0190602036910137565b8051156111f0576040516110d181610eda565b604081527f4142434445464748494a4b4c4d4e4f505152535455565758595a61626364656660208201527f6768696a6b6c6d6e6f707172737475767778797a303132333435363738392b2f60408201528151600292838201809211611056576003918290046001600160fe1b038116810361105657611153908594951b61108c565b936020850193829183518401925b83811061119f575050505051068060011461118c57600214611181575090565b603d90600019015390565b50603d9081600019820153600119015390565b85600491979293949701918251600190603f9082828260121c16880101518453828282600c1c16880101518385015382828260061c1688010151888501531685010151878201530195929190611161565b506040516111fd81610f28565b6000815290565b9061123d6022604051809461181760f11b602083015261122d8151809260208686019101610dff565b8101036002810185520183610f44565b565b806000917a184f03e93ff9f4daa797ed6e38ed64bf6a1f01000000000000000080821015611374575b506d04ee2d6d415b85acef810000000080831015611365575b50662386f26fc1000080831015611356575b506305f5e10080831015611347575b5061271080831015611338575b506064821015611328575b600a8092101561131e575b6001908160216112d682870161108c565b95860101905b6112e8575b5050505090565b600019019083906f181899199a1a9b1b9c1cb0b131b232b360811b8282061a835304918215611319579190826112dc565b6112e1565b91600101916112c5565b91906064600291049101916112ba565b600491939204910191386112af565b600891939204910191386112a2565b60109193920491019138611293565b60209193920491019138611281565b604093508104915038611268565b60ff90604051602081019182526020815261139c81610f0c565b5190200690565b60329060405160208101918252602081526113bd81610f0c565b51902006603281018091116110565790565b61016890604051602081019182526020815261139c81610f0c565b603c90604051602081019182526020815261140481610f0c565b51902006601e81018091116110565790565b6040519061142382610f0c565b60018252603160f81b6020830152565b6114bf6115a160ea60405161144781610f0c565b6002815260208101612d3560f01b815261145f611416565b906040519586937f3c666553706563756c61724c69676874696e67206c69676874696e672d636f6c60208601527f6f723d22236666666666662220737572666163655363616c653d2200000000006040860152518092605b860190610dff565b82017f2220726573756c743d227234222073706563756c6172436f6e7374616e743d22605b8201526114fb825180936020607b85019101610dff565b017f222073706563756c61724578706f6e656e743d22312220696e3d227232223e00607b8201527f3c666544697374616e744c6967687420656c65766174696f6e3d22302220617a609a8201526934b6baba341e9118111f60b11b60ba820152701e17b332a234b9ba30b73a2634b3b43a1f60791b60c4820152741e17b332a9b832b1bab630b92634b3b43a34b7339f60591b60d58201520360ca810184520182610f44565b90565b604051906115b182610eda565b60006040838281528260208201520152565b9190916000838201938412911290801582169115161761105657565b818102929160008212600160ff1b82141661105657818405149015171561105657565b8181039291600013801582851316918412161761105657565b6116236115a4565b506000815190612710918281029080820484149015171561176f5761016890049060208401519360648502948086046064149015171561176f57604001519360648502948086046064149015171561176f57806116c85750505081825b60ff918483029483860403611056578183029183830403611056578083029283040361105657829081604051956116b687610eda565b04855204602084015204604082015290565b9193916113888312156117835780840190811260011661176f576116ed8491846115df565b05915b8060011b90600282050361176f578261170891611602565b90610d059081860191821281871290801582169115161761175b575061172f9083836117a9565b9361173b8184846117a9565b92610d0419820191821360011661105657611755926117a9565b90611680565b634e487b7160e01b81526011600452602490fd5b634e487b7160e01b82526011600452602482fd5b808461179c6117956117a394876115c3565b92866115df565b0590611602565b916116f0565b90929192600093848112806118af575b5061271091828213611898575b610682821261186157611388821261185a57611a0a908183126117ec5750929450505050565b846117f691611602565b908683820393128184128116918413901516176118465790611817916115df565b059081600602916006830503611832576115a19293506115c3565b634e487b7160e01b84526011600452602484fd5b634e487b7160e01b86526011600452602486fd5b9450505050565b8361186e91969296611602565b9060068202918083056006149015171561175b57506115a19394611891916115df565b05906115c3565b9061270f19810190811360011661184657906117c6565b61271080920191821280158216911516176118ca57386117b9565b634e487b7160e01b85526011600452602485fd5b60ff8160081c9116600a810290808204600a14901517156110565760081c906005821015611994575b600a821461196f575b60216119276119216115a19361123f565b9361123f565b926040519381611941869351809260208087019101610dff565b8201601760f91b60208201526119608251809360208785019101610dff565b01036001810184520182610f44565b9050600090600181018091111561191057634e487b7160e01b82526011600452602482fd5b90600181018091116110565790611907565b60001981146110565760010190565b6060518110156119c85760051b60800190565b634e487b7160e01b600052603260045260246000fd5b8051156119c85760200190565b80518210156119c85760209160051b010190565b602161123d919392936040519481611a21879351809260208087019101610dff565b8201611a368251809360208085019101610dff565b01600160fd1b6020820152036001810185520183610f44565b9061123d602460405184611a6d829651809260208086019101610dff565b8101631110179f60e11b6020820152036004810185520183610f44565b906040805192611a9984610eda565b602f8452602092838501937f3c6665436f6d706f6e656e745472616e736665722069643d2270616c6574746585526e11103932b9bab63a1e913931ba111f60891b84870152835192611aea84610eda565b602384527f3c666546756e635220747970653d227461626c6522207461626c6556616c75658285015262399e9160e91b938486820152928551611b2c81610eda565b602381527f3c666546756e634720747970653d227461626c6522207461626c6556616c756584820152858782015294865190611b6782610eda565b602382527f3c666546756e634220747970653d227461626c6522207461626c6556616c75658583015287820152976000985b83518a1015611bf457611be5611beb91611bca8a611bdd611bd08f611bbe908b6119eb565b519b611bca8d516118de565b906119ff565b9b611bca8b8d01516118de565b9901516118de565b996119a6565b98959495611b99565b90946115a197929950751e17b332a1b7b6b837b732b73a2a3930b739b332b91f60511b935095611c4698611c35611c2f611c2f60369a611a4f565b93611a4f565b9351998a97518092888a0190610dff565b8601611c5a82518093888085019101610dff565b01611c6d82518093878085019101610dff565b01611c8082518093868085019101610dff565b0191820152036016810184520182610f44565b9060038110156119c85760051b0190565b60409081519060209182810190828252838152611cc081610f0c565b610168918291519020069060019283810180821161105657611ceb9087519087820152868152610f0c565b6002810180911161105657600f908651868101918252868152611d0d81610f0c565b51902006855192611d1d84610eda565b83526064858401528583015284519460a086019086821067ffffffffffffffff831117610ef65752600493848652600090815b60808110611de3575050611d638361161b565b611d6c876119de565b52611d76866119de565b5083805b611d88575b50505050505090565b8651811015611dde578351605a8101809111611dcb579083611dc592068552611db08561161b565b611dba828a6119eb565b526108c981896119eb565b84611d7a565b634e487b7160e01b835260118752602483fd5b611d7f565b8190611ded6115a4565b82828b01015201611d50565b611e016115a4565b506000908180805b8351851015611e6257611e54611e47611e31611e5a93611e2989896119eb565b515190611049565b936020611e3e89896119eb565b51015190611049565b936040611e3e88886119eb565b946119a6565b939190611e09565b611e8992919450611e78611e819185519061106c565b9484519061106c565b92519061106c565b9060405192611e9784610eda565b83526020830152604082015290565b611eae6115a4565b50805160ff90810391818311611056576020810151820390828211611056576040015182039182116110565760405192611e9784610eda565b604090815191611ef683610f0c565b600c8352602090818401906b6672616374616c4e6f69736560a01b8252611f1c846113ea565b6064811061267e5761017d611f309161123f565b935b6001825185810190838252868152611f4981610f0c565b519020166002810180911161105657611f619061123f565b90611f77611f71610b47836113a3565b91611ca4565b90611f8182611df9565b92611f8b83611a8a565b90611f95846127a3565b96611faf611faa611fa4611433565b97611ea6565b6126fb565b948051156119c857890151611fc3906126fb565b9680519b8c9b8c928c84017f3c7376672077696474683d2235303022206865696768743d2235303022207669905283017f6577426f783d223020302035303020353030222076657273696f6e3d22312e319052606083017f2220786d6c6e733d22687474703a2f2f7777772e77332e6f72672f323030302f90526439bb33911f60d91b608084015260858301651e3232b3399f60d11b9052608b83017f3c6c696e6561724772616469656e742069643d226c696e656172477261646965905268373a189a191b9b911f60b91b60ab84015260b483017f3c73746f702073746f702d636f6c6f723d22626c61636b22206f66667365743d9052731118111034b21e9139ba37b8189a191b9991179f60611b60d484015260e883017f3c73746f702073746f702d636f6c6f723d22776869746522206f66667365743d9052731118911034b21e9139ba37b8189a191b9a91179f60611b61010884015261011c8301701e17b634b732b0b923b930b234b2b73a1f60791b905261012d83017f3c66696c7465722069643d22637261636b65642d6c6176612220636f6c6f722d905261014d83017f696e746572706f6c6174696f6e2d66696c746572733d2273524742223e000000905261016a83017f3c666554757262756c656e636520626173654672657175656e63793d220000009052805190818d6101878096019201916121c892610dff565b8c01916711103a3cb8329e9160c11b90830152519061018f92828483016121ee92610dff565b01906d1110373ab6a7b1ba30bb32b99e9160911b9082015281519061019d92828b85840192019161221e92610dff565b7f2220726573756c743d2272312220696e3d22536f7572636547726170686963229101918201526210179f60e91b6101bd8201527f3c6665446973706c6163656d656e744d617020726573756c743d2272352220786101c08201527f4368616e6e656c53656c6563746f723d22522220696e323d2272312220696e3d6101e08201527f2272312220794368616e6e656c53656c6563746f723d224722207363616c653d610200820152601160f91b6102208201528251610221939091906122ec908390868401908c01610dff565b631110179f60e11b91019283018190527f3c6665436f6d706f7369746520726573756c743d22723222206f70657261746f6102258401527f723d22696e2220696e3d22536f75726365477261706869632220696e323d2272610245840152641a9110179f60d91b61026584015284519094859361026a9291612375908390858401908d01610dff565b7f3c6665436f6d706f73697465206b313d22302e3522206b333d223122206b323d9101918201527f222d302e352220696e323d2272322220696e3d22723422206f70657261746f7261028a8201527f3d2261726974686d657469632220726573756c743d2272393122206b343d22306102aa8201526102ca81018390527f3c6665436f6d706f7369746520696e3d227239312220726573756c743d2272346102ce8201527f22206f70657261746f723d2261726974686d6574696322206b323d223022206b6102ee8201527f333d22342220696e323d2272393122206b313d223022206b343d222d3022202f61030e820152601f60f91b61032e820152815161032f9290919061248c908390858401908c01610dff565b019081017f3c6665466c6f6f6420726573756c743d22726573756c74312220666c6f6f642d90526631b7b637b91e9160c91b61034f8201528251906103569382898684019201916124dc92610dff565b01918201527f3c6665426c656e64206d6f64653d226e6f726d616c2220696e3d22726374222061035a8201526f34b7191e913932b9bab63a189110179f60811b61037a820152681e17b334b63a32b91f60b91b61038a820152661e17b232b3399f60c91b6103938201527f3c726563742077696474683d2235303022206865696768743d2235303022206661039a8201527f696c6c3d2275726c28236c696e6561724772616469656e7431343237372922206103ba8201527f66696c7465723d2275726c2823637261636b65642d6c6176612922207374796c6103da8201527f653d2266696c7465723a75726c2823637261636b65642d6c6176612922202f3e6103fa8201527f3c726563742077696474683d22353022206865696768743d2235302220783d2261041a8201526e1811103c9e911811103334b6361e9160891b61043a82015282516104499390919061263c908390868401908901610dff565b01918201528151918261044d9485840192019161265892610dff565b01908101651e17b9bb339f60d11b90520361043381018252610453016115a19082610f44565b600a81106126bb5761268f9061123f565b6126b5602383518093620302e360ec1b888301526101d8815180928a8686019101610dff565b93611f32565b6126c49061123f565b6126b5602483518093630302e30360e41b888301526126eb815180928a8686019101610dff565b8101036004810184520182610f44565b6115a1602961270a835161123f565b612724604061271c602087015161123f565b95015161123f565b604051948592630e4cec4560e31b602085015261274b815180926020602488019101610dff565b83019061016160f51b9182602482015261276f825180936020602685019101610dff565b0190602682015261278a825180936020602885019101610dff565b01602960f81b6028820152036009810184520182610f44565b9060408051926127b284610f28565b60009384815284905b825182101561185a5760328083028381048214841517156128a057605261289a93926127e9610ad79361123f565b936127fd6127f7888a6119eb565b516126fb565b9489519582879351926128548d8561281e602097889687808c019101610dff565b8701927f3c726563742077696474683d22353022206865696768743d2235302220783d2285850152805194859285019101610dff565b016d11103c9e911811103334b6361e9160911b8c82015261287f82518093604e958685019101610dff565b631110179f60e11b9101918201520390810184520182610f44565b906127bb565b634e487b7160e01b88526011600452602488fdfea26469706673582212207092e3d62820b3b698dfb111b16bc92a8a10684ea5952e06987b8139fd5aa01264736f6c63430008110033",
    "linkReferences": {}
  },
  "methodIdentifiers": {
    "averageColors((uint256,uint256,uint256)[])": "d284f2f7",
    "averageWithWhite((uint256,uint256,uint256))": "919f9650",
    "complementaryColor((uint256,uint256,uint256))": "7486c451",
    "constructImageURI(uint256)": "a929e684",
    "createRectsForColors((uint256,uint256,uint256)[])": "e73eeb40",
    "divideAndFormat(uint256,uint256,uint256)": "167feb30",
    "generateAnalogousColorPalette(uint256)": "ed5d8463",
    "generateComponentTransfer(uint256)": "8df4db16",
    "generateComponentTransfer(uint256,(uint256,uint256,uint256)[])": "d5c68181",
    "generateFrequency(uint256,bool)": "ed7ca60e",
    "generateMonochromaticColorPalette(uint256)": "687524a8",
    "generateOctaves(uint256,bool,uint256)": "a71a0bfd",
    "generateRandomColorPalette(uint256)": "385f81b0",
    "generateSVG(uint256)": "6dcee4ca",
    "generateScale(uint256,bool,uint256)": "63d265a1",
    "generateSpecularLighting(uint256,bool)": "b7eb3f75",
    "generateTetradicColorPalette(uint256)": "aa96a90a",
    "toColorRGB((uint256,uint256,uint256))": "f5773d26"
  },
  "id": 28
}