{
  "abi": [
    {
      "inputs": [
        {
          "components": [
            {
              "internalType": "uint256",
              "name": "r",
              "type": "uint256"
            },
            {
              "internalType": "uint256",
              "name": "g",
              "type": "uint256"
            },
            {
              "internalType": "uint256",
              "name": "b",
              "type": "uint256"
            }
          ],
          "internalType": "struct Fossil.RGB[]",
          "name": "colors",
          "type": "tuple[]"
        }
      ],
      "name": "averageColors",
      "outputs": [
        {
          "components": [
            {
              "internalType": "uint256",
              "name": "r",
              "type": "uint256"
            },
            {
              "internalType": "uint256",
              "name": "g",
              "type": "uint256"
            },
            {
              "internalType": "uint256",
              "name": "b",
              "type": "uint256"
            }
          ],
          "internalType": "struct Fossil.RGB",
          "name": "",
          "type": "tuple"
        }
      ],
      "stateMutability": "pure",
      "type": "function"
    },
    {
      "inputs": [
        {
          "components": [
            {
              "internalType": "uint256",
              "name": "r",
              "type": "uint256"
            },
            {
              "internalType": "uint256",
              "name": "g",
              "type": "uint256"
            },
            {
              "internalType": "uint256",
              "name": "b",
              "type": "uint256"
            }
          ],
          "internalType": "struct Fossil.RGB",
          "name": "color",
          "type": "tuple"
        }
      ],
      "name": "averageWithWhite",
      "outputs": [
        {
          "components": [
            {
              "internalType": "uint256",
              "name": "r",
              "type": "uint256"
            },
            {
              "internalType": "uint256",
              "name": "g",
              "type": "uint256"
            },
            {
              "internalType": "uint256",
              "name": "b",
              "type": "uint256"
            }
          ],
          "internalType": "struct Fossil.RGB",
          "name": "",
          "type": "tuple"
        }
      ],
      "stateMutability": "pure",
      "type": "function"
    },
    {
      "inputs": [
        {
          "components": [
            {
              "internalType": "uint256",
              "name": "r",
              "type": "uint256"
            },
            {
              "internalType": "uint256",
              "name": "g",
              "type": "uint256"
            },
            {
              "internalType": "uint256",
              "name": "b",
              "type": "uint256"
            }
          ],
          "internalType": "struct Fossil.RGB",
          "name": "color",
          "type": "tuple"
        }
      ],
      "name": "complementaryColor",
      "outputs": [
        {
          "components": [
            {
              "internalType": "uint256",
              "name": "r",
              "type": "uint256"
            },
            {
              "internalType": "uint256",
              "name": "g",
              "type": "uint256"
            },
            {
              "internalType": "uint256",
              "name": "b",
              "type": "uint256"
            }
          ],
          "internalType": "struct Fossil.RGB",
          "name": "",
          "type": "tuple"
        }
      ],
      "stateMutability": "pure",
      "type": "function"
    },
    {
      "inputs": [
        {
          "internalType": "uint256",
          "name": "seed",
          "type": "uint256"
        }
      ],
      "name": "constructImageURI",
      "outputs": [
        {
          "internalType": "string",
          "name": "",
          "type": "string"
        }
      ],
      "stateMutability": "view",
      "type": "function"
    },
    {
      "inputs": [
        {
          "components": [
            {
              "internalType": "uint256",
              "name": "r",
              "type": "uint256"
            },
            {
              "internalType": "uint256",
              "name": "g",
              "type": "uint256"
            },
            {
              "internalType": "uint256",
              "name": "b",
              "type": "uint256"
            }
          ],
          "internalType": "struct Fossil.RGB[]",
          "name": "colors",
          "type": "tuple[]"
        }
      ],
      "name": "createRectsForColors",
      "outputs": [
        {
          "internalType": "string",
          "name": "",
          "type": "string"
        }
      ],
      "stateMutability": "pure",
      "type": "function"
    },
    {
      "inputs": [
        {
          "internalType": "uint256",
          "name": "input",
          "type": "uint256"
        },
        {
          "internalType": "uint256",
          "name": "divisor",
          "type": "uint256"
        },
        {
          "internalType": "uint256",
          "name": "decimalPlaces",
          "type": "uint256"
        }
      ],
      "name": "divideAndFormat",
      "outputs": [
        {
          "internalType": "string",
          "name": "",
          "type": "string"
        }
      ],
      "stateMutability": "view",
      "type": "function"
    },
    {
      "inputs": [
        {
          "internalType": "uint256",
          "name": "seed",
          "type": "uint256"
        }
      ],
      "name": "generateAnalogousColorPalette",
      "outputs": [
        {
          "components": [
            {
              "internalType": "uint256",
              "name": "r",
              "type": "uint256"
            },
            {
              "internalType": "uint256",
              "name": "g",
              "type": "uint256"
            },
            {
              "internalType": "uint256",
              "name": "b",
              "type": "uint256"
            }
          ],
          "internalType": "struct Fossil.RGB[]",
          "name": "",
          "type": "tuple[]"
        }
      ],
      "stateMutability": "view",
      "type": "function"
    },
    {
      "inputs": [
        {
          "internalType": "uint256",
          "name": "tokenId",
          "type": "uint256"
        }
      ],
      "name": "generateComponentTransfer",
      "outputs": [
        {
          "internalType": "string",
          "name": "",
          "type": "string"
        }
      ],
      "stateMutability": "view",
      "type": "function"
    },
    {
      "inputs": [
        {
          "internalType": "uint256",
          "name": "tokenId",
          "type": "uint256"
        },
        {
          "components": [
            {
              "internalType": "uint256",
              "name": "r",
              "type": "uint256"
            },
            {
              "internalType": "uint256",
              "name": "g",
              "type": "uint256"
            },
            {
              "internalType": "uint256",
              "name": "b",
              "type": "uint256"
            }
          ],
          "internalType": "struct Fossil.RGB[]",
          "name": "colors",
          "type": "tuple[]"
        }
      ],
      "name": "generateComponentTransfer",
      "outputs": [
        {
          "internalType": "string",
          "name": "",
          "type": "string"
        }
      ],
      "stateMutability": "view",
      "type": "function"
    },
    {
      "inputs": [
        {
          "internalType": "uint256",
          "name": "tokenId",
          "type": "uint256"
        },
        {
          "internalType": "bool",
          "name": "isFractalNoise",
          "type": "bool"
        }
      ],
      "name": "generateFrequency",
      "outputs": [
        {
          "internalType": "uint256",
          "name": "",
          "type": "uint256"
        },
        {
          "internalType": "string",
          "name": "",
          "type": "string"
        }
      ],
      "stateMutability": "view",
      "type": "function"
    },
    {
      "inputs": [
        {
          "internalType": "uint256",
          "name": "seed",
          "type": "uint256"
        }
      ],
      "name": "generateGradient",
      "outputs": [
        {
          "internalType": "string",
          "name": "",
          "type": "string"
        }
      ],
      "stateMutability": "view",
      "type": "function"
    },
    {
      "inputs": [
        {
          "internalType": "uint256",
          "name": "seed",
          "type": "uint256"
        }
      ],
      "name": "generateMonochromaticColorPalette",
      "outputs": [
        {
          "components": [
            {
              "internalType": "uint256",
              "name": "r",
              "type": "uint256"
            },
            {
              "internalType": "uint256",
              "name": "g",
              "type": "uint256"
            },
            {
              "internalType": "uint256",
              "name": "b",
              "type": "uint256"
            }
          ],
          "internalType": "struct Fossil.RGB[]",
          "name": "",
          "type": "tuple[]"
        }
      ],
      "stateMutability": "view",
      "type": "function"
    },
    {
      "inputs": [
        {
          "internalType": "uint256",
          "name": "tokenId",
          "type": "uint256"
        },
        {
          "internalType": "bool",
          "name": "isFractalNoise",
          "type": "bool"
        },
        {
          "internalType": "uint256",
          "name": "frequency",
          "type": "uint256"
        }
      ],
      "name": "generateOctaves",
      "outputs": [
        {
          "internalType": "string",
          "name": "",
          "type": "string"
        }
      ],
      "stateMutability": "view",
      "type": "function"
    },
    {
      "inputs": [
        {
          "internalType": "uint256",
          "name": "seed",
          "type": "uint256"
        }
      ],
      "name": "generateRandomColorPalette",
      "outputs": [
        {
          "components": [
            {
              "internalType": "uint256",
              "name": "r",
              "type": "uint256"
            },
            {
              "internalType": "uint256",
              "name": "g",
              "type": "uint256"
            },
            {
              "internalType": "uint256",
              "name": "b",
              "type": "uint256"
            }
          ],
          "internalType": "struct Fossil.RGB[]",
          "name": "",
          "type": "tuple[]"
        }
      ],
      "stateMutability": "view",
      "type": "function"
    },
    {
      "inputs": [
        {
          "internalType": "uint256",
          "name": "seed",
          "type": "uint256"
        }
      ],
      "name": "generateSVG",
      "outputs": [
        {
          "internalType": "string",
          "name": "",
          "type": "string"
        }
      ],
      "stateMutability": "view",
      "type": "function"
    },
    {
      "inputs": [
        {
          "internalType": "uint256",
          "name": "tokenId",
          "type": "uint256"
        },
        {
          "internalType": "bool",
          "name": "isFractalNoise",
          "type": "bool"
        },
        {
          "internalType": "uint256",
          "name": "frequency",
          "type": "uint256"
        }
      ],
      "name": "generateScale",
      "outputs": [
        {
          "internalType": "string",
          "name": "",
          "type": "string"
        }
      ],
      "stateMutability": "view",
      "type": "function"
    },
    {
      "inputs": [
        {
          "internalType": "uint256",
          "name": "tokenId",
          "type": "uint256"
        },
        {
          "internalType": "bool",
          "name": "isFractalNoise",
          "type": "bool"
        }
      ],
      "name": "generateSpecularLighting",
      "outputs": [
        {
          "internalType": "string",
          "name": "",
          "type": "string"
        }
      ],
      "stateMutability": "view",
      "type": "function"
    },
    {
      "inputs": [
        {
          "internalType": "uint256",
          "name": "seed",
          "type": "uint256"
        }
      ],
      "name": "generateTetradicAnalogousColorPalette",
      "outputs": [
        {
          "components": [
            {
              "internalType": "uint256",
              "name": "r",
              "type": "uint256"
            },
            {
              "internalType": "uint256",
              "name": "g",
              "type": "uint256"
            },
            {
              "internalType": "uint256",
              "name": "b",
              "type": "uint256"
            }
          ],
          "internalType": "struct Fossil.RGB[]",
          "name": "",
          "type": "tuple[]"
        }
      ],
      "stateMutability": "view",
      "type": "function"
    },
    {
      "inputs": [
        {
          "internalType": "uint256",
          "name": "seed",
          "type": "uint256"
        }
      ],
      "name": "generateTetradicColorPalette",
      "outputs": [
        {
          "components": [
            {
              "internalType": "uint256",
              "name": "r",
              "type": "uint256"
            },
            {
              "internalType": "uint256",
              "name": "g",
              "type": "uint256"
            },
            {
              "internalType": "uint256",
              "name": "b",
              "type": "uint256"
            }
          ],
          "internalType": "struct Fossil.RGB[]",
          "name": "",
          "type": "tuple[]"
        }
      ],
      "stateMutability": "view",
      "type": "function"
    },
    {
      "inputs": [
        {
          "components": [
            {
              "internalType": "uint256",
              "name": "hue",
              "type": "uint256"
            },
            {
              "internalType": "uint256",
              "name": "saturation",
              "type": "uint256"
            },
            {
              "internalType": "uint256",
              "name": "lightness",
              "type": "uint256"
            }
          ],
          "internalType": "struct Fossil.HSL",
          "name": "color",
          "type": "tuple"
        }
      ],
      "name": "toColorRGB",
      "outputs": [
        {
          "components": [
            {
              "internalType": "uint256",
              "name": "r",
              "type": "uint256"
            },
            {
              "internalType": "uint256",
              "name": "g",
              "type": "uint256"
            },
            {
              "internalType": "uint256",
              "name": "b",
              "type": "uint256"
            }
          ],
          "internalType": "struct Fossil.RGB",
          "name": "",
          "type": "tuple"
        }
      ],
      "stateMutability": "pure",
      "type": "function"
    }
  ],
  "bytecode": {
    "object": "0x6080806040523461001657612d7d908161001c8239f35b600080fdfe6040608081526004908136101561001557600080fd5b60009160e0908335821c918263167feb3014610e485782633664814d14610c3a578263385f81b014610b2957826339b35fd714610b0757826363d265a114610ae0578263687524a81461099c575081636dcee4ca1461097b5781637486c451146109515781638df4db1614610652578163919f965014610587578163a71a0bfd1461052d578163a929e68414610452578163aa96a90a14610426578163b7eb3f75146103ff578163d284f2f7146103bf578163d5c6818114610381578163e73eeb4014610330578163ed5d84631461028a578163ed7ca60e1461014d575063f5773d261461010257600080fd5b346101495760603660031901126101495760609061014761012a6101253661116b565b61184c565b915180926040809180518452602081015160208501520151910152565bf35b5080fd5b83915034610149578260031936011261014957803561016a6110a8565b1561024957610178906115ef565b915b50606482106101b157506101ad61019861019383611444565b611409565b83519384938452806020850152830190610fc6565b0390f35b600a821061020357506101ad6101c682611444565b6101fe602385518093620302e360ec1b60208301526101ee8151809260208686019101610fa3565b8101036003810184520182611149565b610198565b6101ad906101fe602461021585611444565b9286518094630302e30360e41b602083015261023a8151809260208786019101610fa3565b81010390810184520182611149565b602d908451602081019182526020815261026281611111565b51902006600f8101809111610277579161017a565b634e487b7160e01b835260118252602483fd5b82843461032d57602036600319011261032d576102a78335611587565b908251916102b4836110df565b825260646020830152603283830152805b606051811015610321576102d88361184c565b6102e182611be6565b526102eb81611be6565b508251601e810180911161030e579061016861030992068452611bd7565b6102c5565b634e487b7160e01b835260118652602483fd5b8351806101ad81610feb565b80fd5b82843461032d57602036600319011261032d5782359067ffffffffffffffff821161032d57506103696101ad9361036e9236910161119b565b612c36565b9051918291602083526020830190610fc6565b82843461032d578160031936011261032d576024359067ffffffffffffffff821161032d57506103ba6101ad9361036e9236910161119b565b611cbb565b82843461032d57602036600319011261032d5782359067ffffffffffffffff821161032d575061012a6103fa6060946101479336910161119b565b612140565b5050346101495780600319360112610149576101ad9061041d6110a8565b5061036e611664565b82843461032d57602036600319011261032d57506104476101ad9235611ef4565b90519182918261104c565b9050346105295760209182600319360112610525576104746101ad9235612464565b938061047f866112c3565b956104d0603a855180997f646174613a696d6167652f7376672b786d6c3b6261736536342c0000000000008a8301526104c0815180928c8686019101610fa3565b810103601a81018a520188611149565b8351610505816104f78982019463104c13eb60e21b86528a60248401526044830190610fc6565b03601f198101835282611149565b51906a636f6e736f6c652e6c6f675afa5051928284938452830190610fc6565b8380fd5b8280fd5b82843461032d57600161053f366110bc565b50508351602081019182526020815261055781611111565b519020169260028401809411610574576101ad8361036e86611444565b634e487b7160e01b825260119052602490fd5b838334610149576060366003190112610149576105a33661116b565b6105ab6117d5565b5081516105b7816110df565b60ff815282602082019160ff8352019060ff825282519460ff860180961161063f57606086610147878761060288836105f78a602086015190519061124e565b93015190519061124e565b60011c90825194610612866110df565b60011c855260011c6020850152818401525180926040809180518452602081015160208501520151910152565b634e487b7160e01b815260118752602490fd5b838334610149576020928360031936011261052957359160019182815192610679846110df565b805b6060808210156106905785820152870161067b565b505085879495825b600381106108125787876101ad8861080360da855183868801519701519684519788927f3c6665436f6d706f6e656e745472616e7366657220726573756c743d2272657389850152653ab63a19111f60d11b878501527f3c666546756e635220747970653d22646973637265746522207461626c655661604685015265363ab2b99e9160d11b90816066860152610738815180928c606c89019101610fa3565b840192631110179f60e11b9384606c8201527f3c666546756e634720747970653d22646973637265746522207461626c6556616070820152826090820152610789825180938d609685019101610fa3565b01908360968301527f3c666546756e634220747970653d22646973637265746522207461626c655661609a83015260ba8201526107cf825180938b60c085019101610fa3565b019060c0820152751e17b332a1b7b6b837b732b73a2a3930b739b332b91f60511b60c48201520360ba810187520185611149565b51928284938452830190610fc6565b855161081d81611111565b858152600360fc1b88820152845b6002811061088f57509061088a9161086f60228951836108558d8396519281849286019101610fa3565b810161203160f01b8d820152036002810184520182611149565b610879828b611ec4565b52610884818a611ec4565b50611bd7565b610698565b929591979896949061092961092f916108a8898861124e565b8c89518181019283528181526108bd81611111565b600a9283915190200691821460001461093c5761092391506108dd611647565b925b8a5193816108f68693518092868087019101610fa3565b8201600160fd1b84820152610915825180936021968785019101610fa3565b010387810184520182611149565b97611bd7565b93611bd7565b989791959094969861082b565b61094b61019361092393611444565b926108df565b5050346101495760603660031901126101495760609061014761012a6109763661116b565b6121ed565b82843461032d57602036600319011261032d575061036e6101ad9235612464565b83853461032d5760208060031936011261014957843591835194610100860186811067ffffffffffffffff821117610acd5785526007865282825b828110610ab7575050506109ea83611587565b956001938481018091116102775760146064918751868101918252868152610a1181611111565b5190200693865198610a228a6110df565b8952880152848701928352610a368761184c565b908651908115610aa457506064049190845b610a5a575b8551806101ad898261104c565b8651821015610a9f57610a6d8288611c1c565b52610a788187611c1c565b50610a8482845161124e565b8352610a98610a928861184c565b91611bd7565b9084610a48565b610a4d565b634e487b7160e01b845260129052602483fd5b610abf6117d5565b82828a0101520183906109d7565b634e487b7160e01b835260418852602483fd5b50505034610149576101ad9061036e610b02610afb366110bc565b50506115c3565b611444565b5082843461032d57602036600319011261032d575061036e6101ad923561222e565b5082843461032d576020908160031936011261032d578335819282935b606051851015610c2e57610b6b610b6682610b61888761124e565b61124e565b6115a9565b610b75868561124e565b60018101809111610c1b57610b6683610b8d9261124e565b610b97878661124e565b60028101809111610c0857610b6684610baf9261124e565b90885192610bbc846110df565b83528483015287820152610bcf86611be6565b52610bd985611be6565b5060038101809111610bf557610bef9094611bd7565b93610b46565b634e487b7160e01b845260118752602484fd5b634e487b7160e01b875260118a52602487fd5b634e487b7160e01b865260118952602486fd5b8551806101ad81610feb565b50838334610149576020918260031936011261032d57833590610c5c82611587565b90600192838101808211610e3557610c7d9086519088820152878152611111565b600290818101809111610e3557610c9d9086519088820152878152611111565b845192610ca9846110df565b83528583016064815285840196603288528651976101a0890189811067ffffffffffffffff821117610e22578852600c895281855b6101808110610e0c5750508685905b610cff575b8851806101ad8c8261104c565b8951811015610e0757610d118761184c565b610d1b828c611c1c565b52610d26818b611c1c565b508651601d198101908111610de157610d599085518451908c5192610d4a846110df565b8352868301528b82015261184c565b88820190818311610df45790610d7a91610d73828e611c1c565b528b611c1c565b508651601e8101809111610de157610d9d9085518451908c5192610d4a846110df565b858201809211610de157610db1828c611c1c565b52610dbc818b611c1c565b508651605a8101809111610de1578891610168610ddb92068952611bd7565b90610ced565b634e487b7160e01b875260118c52602487fd5b634e487b7160e01b885260118d52602488fd5b610cf2565b610e146117d5565b82828d010152018290610cde565b634e487b7160e01b865260418b52602486fd5b634e487b7160e01b835260118852602483fd5b838583346101495760603660031901126101495780359060248035604435610e708286611271565b948215610f915782900690604d8111610f7f57600a0a90818102918183041490151715610f6d5790610ea191611271565b936005851015610f49575b600a8514610f17575b505050610ecd610ec76101ad92611444565b92611444565b926108036021825180968651610eeb816020998a8087019101610fa3565b8201601760f91b88820152610f08825180938a8785019101610fa3565b01036001810187520185611149565b80919294509360018401809411610f3957505050610ecd610ec76101ad610eb5565b634e487b7160e01b825260119052fd5b9360018101809111610f5b5793610eac565b50634e487b7160e01b84526011825283fd5b634e487b7160e01b8652601184528286fd5b634e487b7160e01b8752601185528387fd5b634e487b7160e01b8752601285528387fd5b60005b838110610fb65750506000910152565b8181015183820152602001610fa6565b90602091610fdf81518092818552858086019101610fa3565b601f01601f1916010190565b6020908181018282526040606092835180935201926080926000905b83821061101657505050505090565b909192939483828261103f6001948a516040809180518452602081015160208501520151910152565b0196019493920190611007565b6020908160408183019282815285518094520193019160005b828110611073575050505090565b909192938260608261109c60019489516040809180518452602081015160208501520151910152565b01950193929101611065565b6024359081151582036110b757565b600080fd5b60609060031901126110b7576004359060243580151581036110b7579060443590565b6060810190811067ffffffffffffffff8211176110fb57604052565b634e487b7160e01b600052604160045260246000fd5b6040810190811067ffffffffffffffff8211176110fb57604052565b6020810190811067ffffffffffffffff8211176110fb57604052565b90601f8019910116810190811067ffffffffffffffff8211176110fb57604052565b60609060031901126110b75760405190611184826110df565b600435825260243560208301526044356040830152565b81601f820112156110b75780359067ffffffffffffffff82116110fb5760408051936020916111cf838660051b0187611149565b84865282860191836060809702860101948186116110b7578401925b8584106111fc575050505050505090565b86848303126110b7578487918451611213816110df565b86358152828701358382015285870135868201528152019301926111eb565b67ffffffffffffffff81116110fb57601f01601f191660200190565b9190820180921161125b57565b634e487b7160e01b600052601160045260246000fd5b811561127b570490565b634e487b7160e01b600052601260045260246000fd5b9061129b82611232565b6112a86040519182611149565b82815280926112b9601f1991611232565b0190602036910137565b8051156113f5576040516112d6816110df565b604081527f4142434445464748494a4b4c4d4e4f505152535455565758595a61626364656660208201527f6768696a6b6c6d6e6f707172737475767778797a303132333435363738392b2f6040820152815160029283820180921161125b576003918290046001600160fe1b038116810361125b57611358908594951b611291565b936020850193829183518401925b8381106113a4575050505051068060011461139157600214611386575090565b603d90600019015390565b50603d9081600019820153600119015390565b85600491979293949701918251600190603f9082828260121c16880101518453828282600c1c16880101518385015382828260061c1688010151888501531685010151878201530195929190611366565b506040516114028161112d565b6000815290565b906114426022604051809461181760f11b60208301526114328151809260208686019101610fa3565b8101036002810185520183611149565b565b806000917a184f03e93ff9f4daa797ed6e38ed64bf6a1f01000000000000000080821015611579575b506d04ee2d6d415b85acef81000000008083101561156a575b50662386f26fc100008083101561155b575b506305f5e1008083101561154c575b506127108083101561153d575b50606482101561152d575b600a80921015611523575b6001908160216114db828701611291565b95860101905b6114ed575b5050505090565b600019019083906f181899199a1a9b1b9c1cb0b131b232b360811b8282061a83530491821561151e579190826114e1565b6114e6565b91600101916114ca565b91906064600291049101916114bf565b600491939204910191386114b4565b600891939204910191386114a7565b60109193920491019138611498565b60209193920491019138611486565b60409350810491503861146d565b6101689060405160208101918252602081526115a281611111565b5190200690565b60ff9060405160208101918252602081526115a281611111565b60329060405160208101918252602081526115dd81611111565b519020066032810180911161125b5790565b603c90604051602081019182526020815261160981611111565b51902006601e810180911161125b5790565b600190604051602081019182526020815261163581611111565b519020166002810180911161125b5790565b6040519061165482611111565b60018252603160f81b6020830152565b6116f06117d260ea60405161167881611111565b6002815260208101612d3560f01b8152611690611647565b906040519586937f3c666553706563756c61724c69676874696e67206c69676874696e672d636f6c60208601527f6f723d22236666666666662220737572666163655363616c653d2200000000006040860152518092605b860190610fa3565b82017f2220726573756c743d227234222073706563756c6172436f6e7374616e743d22605b82015261172c825180936020607b85019101610fa3565b017f222073706563756c61724578706f6e656e743d22312220696e3d227232223e00607b8201527f3c666544697374616e744c6967687420656c65766174696f6e3d22302220617a609a8201526934b6baba341e9118111f60b11b60ba820152701e17b332a234b9ba30b73a2634b3b43a1f60791b60c4820152741e17b332a9b832b1bab630b92634b3b43a34b7339f60591b60d58201520360ca810184520182611149565b90565b604051906117e2826110df565b60006040838281528260208201520152565b9190916000838201938412911290801582169115161761125b57565b818102929160008212600160ff1b82141661125b57818405149015171561125b57565b8181039291600013801582851316918412161761125b57565b6118546117d5565b50600081519061271091828102908082048414901517156119a0576101689004906020840151936064850294808604606414901517156119a05760400151936064850294808604606414901517156119a057806118f95750505081825b60ff91848302948386040361125b57818302918383040361125b578083029283040361125b57829081604051956118e7876110df565b04855204602084015204604082015290565b9193916113888312156119b4578084019081126001166119a05761191e849184611810565b05915b8060011b9060028205036119a0578261193991611833565b90610d059081860191821281871290801582169115161761198c57506119609083836119da565b9361196c8184846119da565b92610d0419820191821360011661125b57611986926119da565b906118b1565b634e487b7160e01b81526011600452602490fd5b634e487b7160e01b82526011600452602482fd5b80846119cd6119c66119d494876117f4565b9286611810565b0590611833565b91611921565b9092919260009384811280611ae0575b5061271091828213611ac9575b6106828212611a92576113888212611a8b57611a0a90818312611a1d5750929450505050565b84611a2791611833565b90868382039312818412811691841390151617611a775790611a4891611810565b059081600602916006830503611a63576117d29293506117f4565b634e487b7160e01b84526011600452602484fd5b634e487b7160e01b86526011600452602486fd5b9450505050565b83611a9f91969296611833565b9060068202918083056006149015171561198c57506117d29394611ac291611810565b05906117f4565b9061270f198101908113600116611a7757906119f7565b6127108092019182128015821691151617611afb57386119ea565b634e487b7160e01b85526011600452602485fd5b60ff8160081c9116600a810290808204600a149015171561125b5760081c906005821015611bc5575b600a8214611ba0575b6021611b58611b526117d293611444565b93611444565b926040519381611b72869351809260208087019101610fa3565b8201601760f91b6020820152611b918251809360208785019101610fa3565b01036001810184520182611149565b90506000906001810180911115611b4157634e487b7160e01b82526011600452602482fd5b906001810180911161125b5790611b38565b600019811461125b5760010190565b606051811015611bf95760051b60800190565b634e487b7160e01b600052603260045260246000fd5b805115611bf95760200190565b8051821015611bf95760209160051b010190565b6021611442919392936040519481611c52879351809260208087019101610fa3565b8201611c678251809360208085019101610fa3565b01600160fd1b6020820152036001810185520183611149565b90611442602460405184611c9e829651809260208086019101610fa3565b8101631110179f60e11b6020820152036004810185520183611149565b906040805192611cca846110df565b602f8452602092838501937f3c6665436f6d706f6e656e745472616e736665722069643d2270616c6574746585526e11103932b9bab63a1e913931ba111f60891b84870152835192611d1b846110df565b602384527f3c666546756e635220747970653d227461626c6522207461626c6556616c75658285015262399e9160e91b938486820152928551611d5d816110df565b602381527f3c666546756e634720747970653d227461626c6522207461626c6556616c756584820152858782015294865190611d98826110df565b602382527f3c666546756e634220747970653d227461626c6522207461626c6556616c75658583015287820152976000985b83518a1015611e2557611e16611e1c91611dfb8a611e0e611e018f611def908b611c1c565b519b611dfb8d51611b0f565b90611c30565b9b611dfb8b8d0151611b0f565b990151611b0f565b99611bd7565b98959495611dca565b90946117d297929950751e17b332a1b7b6b837b732b73a2a3930b739b332b91f60511b935095611e7798611e66611e60611e6060369a611c80565b93611c80565b9351998a97518092888a0190610fa3565b8601611e8b82518093888085019101610fa3565b01611e9e82518093878085019101610fa3565b01611eb182518093868085019101610fa3565b0191820152036016810184520182611149565b906003811015611bf95760051b0190565b60405190611ee282611111565b60038252621a1cdb60ea1b6020830152565b60018082019182811161125b57604080519160209283810190868252848152611f1c81611111565b61016891829151902006906002830180881161125b57611f3d6003916115c3565b930180881161125b576032908551878101918252878152611f5d81611111565b519020069460199485870180971161125b57611f9c815197611f7e896110df565b85895283890196808852838a0196828852611f97611ed5565b6120db565b80519860a08a018a811067ffffffffffffffff8211176110fb578252600493848b528360005b608081106120c4575050611fd58961184c565b611fde8c611c0f565b52611fe88b611c0f565b5089805b611fff575b505050505050505050505090565b8b518110156120bf578951605a81018091116120aa578290068a5261202c612027828561124e565b6115c3565b8852612038818461124e565b8b81018091116120aa57604b90855187810191825287815261205981611111565b519020068981018091116120aa57816108848d97969594938f6120908f6101258f978f98816120a09a528351905190611f97611ed5565b61209a8383611c1c565b52611c1c565b9091929394611fec565b601187634e487b7160e01b6000525260246000fd5b611ff1565b8c82826120cf6117d5565b92010152018490611fc2565b909261212d60009493859460405193849261210f60208501976304772b3360e11b89526080602487015260a4860190610fc6565b9260448501526064840152608483015203601f198101835282611149565b51906a636f6e736f6c652e6c6f675afa50565b6121486117d5565b506000908180805b83518510156121a95761219b61218e6121786121a1936121708989611c1c565b51519061124e565b9360206121858989611c1c565b5101519061124e565b9360406121858888611c1c565b94611bd7565b939190612150565b6121d0929194506121bf6121c891855190611271565b94845190611271565b925190611271565b90604051926121de846110df565b83526020830152604082015290565b6121f56117d5565b50805160ff9081039181831161125b57602081015182039082821161125b5760400151820391821161125b57604051926121de846110df565b6040908151605a6020918281019084825283815261224b81611111565b5190200660609260019081810180911161125b576122689061161b565b60009160001982018281119291905b82851061234d575050505050926117d2926078926123246122b87f6e74313432373722206772616469656e745472616e73666f726d3d22726f746197611444565b84519788957f3c6c696e6561724772616469656e742069643d226c696e65617247726164696585880152860152620e8ca560eb1b60608601526123048151809285606389019101610fa3565b840191631491101f60e11b60638401528351938491606785019101610fa3565b01701e17b634b732b0b923b930b234b2b73a1f60791b6067820152036058810184520182611149565b909192939660649081890291898304148915171561125b578561125b576109238a61237b8561243595611271565b928b871661243e578a6123a9835161239281611111565b6005815264776869746560d81b8382015295611444565b94835195836123c18895518092868089019101610fa3565b84016d1e39ba37b81037b33339b2ba1e9160911b848201528151906123ee82602e94878685019101610fa3565b01906e12911039ba37b816b1b7b637b91e9160891b9082015261241b82518093603d958685019101610fa3565b6211179f60e91b910191820152038a810184520182611149565b93929190612277565b8a6123a9835161244d81611111565b6005815264626c61636b60d81b8382015295611444565b60405161247081611111565b600c8152602090818101926b6672616374616c4e6f69736560a01b8452612496816115ef565b60648110612b10576101936124aa91611444565b6124b6610b028361161b565b6124c2610b02846115c3565b936124cc84611ef4565b946124d686612140565b926124e087611cbb565b906124f36124ed89612c36565b9761222e565b9961250d612508612502611664565b976121ed565b612b8e565b94895115611bf9578a809a015161252390612b8e565b978a6040519d8e9d8e017f3c7376672077696474683d2235303022206865696768743d223530302220766990528d604081017f6577426f783d223020302035303020353030222076657273696f6e3d22312e3190526060017f2220786d6c6e733d22687474703a2f2f7777772e77332e6f72672f323030302f90528d6439bb33911f60d91b6080820152608501651e3232b3399f60d11b90528d815192608b8492019201916125d192610fa3565b7f3c66696c7465722069643d22637261636b65642d6c6176612220636f6c6f722d608b918e01918201527f696e746572706f6c6174696f6e2d66696c746572733d2273524742223e00000060ab8201527f3c666554757262756c656e636520626173654672657175656e63793d2200000060c882015281519161265c90839060e58401908f01610fa3565b01906711103a3cb8329e9160c11b60e583015251918260ed830161267f92610fa3565b016d1110373ab6a7b1ba30bb32b99e9160911b60ed820152815191828a60fb84019201916126ac92610fa3565b7f2220726573756c743d2272312220696e3d22536f75726365477261706869632260fb92909101918201526210179f60e91b61011b8201527f3c6665446973706c6163656d656e744d617020726573756c743d22723522207861011e8201527f4368616e6e656c53656c6563746f723d22522220696e323d2272312220696e3d61013e8201527f2272312220794368616e6e656c53656c6563746f723d224722207363616c653d61015e820152601160f91b61017e820152825161017f9390919061277e908390868401908c01610fa3565b631110179f60e11b91019283018190527f3c6665436f6d706f7369746520726573756c743d22723222206f70657261746f6101838401527f723d22696e2220696e3d22536f75726365477261706869632220696e323d22726101a3840152641a9110179f60d91b6101c38401528451909485936101c89291612807908390858401908d01610fa3565b7f3c6665436f6d706f73697465206b313d22302e3522206b333d223122206b323d9101918201527f222d302e352220696e323d2272322220696e3d22723422206f70657261746f726101e88201527f3d2261726974686d657469632220726573756c743d2272393122206b343d223061020882015261022881018390527f3c6665436f6d706f7369746520696e3d227239312220726573756c743d22723461022c8201527f22206f70657261746f723d2261726974686d6574696322206b323d223022206b61024c8201527f333d22342220696e323d2272393122206b313d223022206b343d222d3022202f61026c820152601f60f91b61028c820152815161028d9290919061291e908390858401908c01610fa3565b019081017f3c6665466c6f6f6420726573756c743d22726573756c74312220666c6f6f642d90526631b7b637b91e9160c91b6102ad8201528251906102b493828986840192019161296e92610fa3565b01918201527f3c6665426c656e64206d6f64653d226e6f726d616c2220696e3d2272637422206102b88201526f34b7191e913932b9bab63a189110179f60811b6102d8820152681e17b334b63a32b91f60b91b6102e8820152661e17b232b3399f60c91b6102f18201527f3c726563742077696474683d2235303022206865696768743d223530302220666102f88201527f696c6c3d2275726c28236c696e6561724772616469656e7431343237372922206103188201527f66696c7465723d2275726c2823637261636b65642d6c6176612922207374796c6103388201527f653d2266696c7465723a75726c2823637261636b65642d6c6176612922202f3e6103588201527f3c726563742077696474683d22353022206865696768743d2235302220783d226103788201526e1811103c9e911811103334b6361e9160891b61039882015282516103a793909190612ace908390868401908901610fa3565b0191820152815191826103ab94858401920191612aea92610fa3565b01908101651e17b9bb339f60d11b905203610391810182526103b1016117d29082611149565b600a8110612b4d57612b2190611444565b612b4860236040518093620302e360ec1b888301526101ee815180928a8686019101610fa3565b6124aa565b612b5690611444565b612b4860246040518093630302e30360e41b88830152612b7e815180928a8686019101610fa3565b8101036004810184520182611149565b6117d26029612b9d8351611444565b612bb76040612baf6020870151611444565b950151611444565b604051948592630e4cec4560e31b6020850152612bde815180926020602488019101610fa3565b83019061016160f51b91826024820152612c02825180936020602685019101610fa3565b01906026820152612c1d825180936020602885019101610fa3565b01602960f81b6028820152036009810184520182611149565b906040805192612c458461112d565b60009384815284905b8251821015611a8b576032808302838104821484151715612d33576052612d2d9392612c7c610a9293611444565b93612c90612c8a888a611c1c565b51612b8e565b948951958287935192612ce78d85612cb1602097889687808c019101610fa3565b8701927f3c726563742077696474683d22353022206865696768743d2235302220783d2285850152805194859285019101610fa3565b016d11103c9e911811103334b6361e9160911b8c820152612d1282518093604e958685019101610fa3565b631110179f60e11b9101918201520390810184520182611149565b90612c4e565b634e487b7160e01b88526011600452602488fdfea2646970667358221220ed9bf46cdd4613f4e605945f48230f1497abdd286f6717d15fe0101a80746f5364736f6c63430008110033",
    "linkReferences": {}
  },
  "methodIdentifiers": {
    "averageColors((uint256,uint256,uint256)[])": "d284f2f7",
    "averageWithWhite((uint256,uint256,uint256))": "919f9650",
    "complementaryColor((uint256,uint256,uint256))": "7486c451",
    "constructImageURI(uint256)": "a929e684",
    "createRectsForColors((uint256,uint256,uint256)[])": "e73eeb40",
    "divideAndFormat(uint256,uint256,uint256)": "167feb30",
    "generateAnalogousColorPalette(uint256)": "ed5d8463",
    "generateComponentTransfer(uint256)": "8df4db16",
    "generateComponentTransfer(uint256,(uint256,uint256,uint256)[])": "d5c68181",
    "generateFrequency(uint256,bool)": "ed7ca60e",
    "generateGradient(uint256)": "39b35fd7",
    "generateMonochromaticColorPalette(uint256)": "687524a8",
    "generateOctaves(uint256,bool,uint256)": "a71a0bfd",
    "generateRandomColorPalette(uint256)": "385f81b0",
    "generateSVG(uint256)": "6dcee4ca",
    "generateScale(uint256,bool,uint256)": "63d265a1",
    "generateSpecularLighting(uint256,bool)": "b7eb3f75",
    "generateTetradicAnalogousColorPalette(uint256)": "3664814d",
    "generateTetradicColorPalette(uint256)": "aa96a90a",
    "toColorRGB((uint256,uint256,uint256))": "f5773d26"
  },
  "id": 28
}