{
  "abi": [
    {
      "inputs": [
        {
          "components": [
            {
              "internalType": "uint256",
              "name": "r",
              "type": "uint256"
            },
            {
              "internalType": "uint256",
              "name": "g",
              "type": "uint256"
            },
            {
              "internalType": "uint256",
              "name": "b",
              "type": "uint256"
            }
          ],
          "internalType": "struct Fossil.RGB",
          "name": "color",
          "type": "tuple"
        }
      ],
      "name": "averageWithWhite",
      "outputs": [
        {
          "components": [
            {
              "internalType": "uint256",
              "name": "r",
              "type": "uint256"
            },
            {
              "internalType": "uint256",
              "name": "g",
              "type": "uint256"
            },
            {
              "internalType": "uint256",
              "name": "b",
              "type": "uint256"
            }
          ],
          "internalType": "struct Fossil.RGB",
          "name": "",
          "type": "tuple"
        }
      ],
      "stateMutability": "pure",
      "type": "function"
    },
    {
      "inputs": [
        {
          "internalType": "uint256",
          "name": "seed",
          "type": "uint256"
        }
      ],
      "name": "constructImageURI",
      "outputs": [
        {
          "internalType": "string",
          "name": "",
          "type": "string"
        }
      ],
      "stateMutability": "view",
      "type": "function"
    },
    {
      "inputs": [
        {
          "internalType": "uint256",
          "name": "input",
          "type": "uint256"
        },
        {
          "internalType": "uint256",
          "name": "divisor",
          "type": "uint256"
        },
        {
          "internalType": "uint256",
          "name": "decimalPlaces",
          "type": "uint256"
        }
      ],
      "name": "divideAndFormat",
      "outputs": [
        {
          "internalType": "string",
          "name": "",
          "type": "string"
        }
      ],
      "stateMutability": "view",
      "type": "function"
    },
    {
      "inputs": [
        {
          "internalType": "uint256",
          "name": "tokenId",
          "type": "uint256"
        },
        {
          "components": [
            {
              "internalType": "uint256",
              "name": "r",
              "type": "uint256"
            },
            {
              "internalType": "uint256",
              "name": "g",
              "type": "uint256"
            },
            {
              "internalType": "uint256",
              "name": "b",
              "type": "uint256"
            }
          ],
          "internalType": "struct Fossil.RGB[5]",
          "name": "colors",
          "type": "tuple[5]"
        }
      ],
      "name": "generateComponentTransfer",
      "outputs": [
        {
          "internalType": "string",
          "name": "",
          "type": "string"
        }
      ],
      "stateMutability": "view",
      "type": "function"
    },
    {
      "inputs": [
        {
          "internalType": "uint256",
          "name": "tokenId",
          "type": "uint256"
        }
      ],
      "name": "generateComponentTransfer",
      "outputs": [
        {
          "internalType": "string",
          "name": "",
          "type": "string"
        }
      ],
      "stateMutability": "view",
      "type": "function"
    },
    {
      "inputs": [
        {
          "internalType": "uint256",
          "name": "tokenId",
          "type": "uint256"
        },
        {
          "internalType": "bool",
          "name": "turbulenceType",
          "type": "bool"
        }
      ],
      "name": "generateFrequency",
      "outputs": [
        {
          "internalType": "uint256",
          "name": "",
          "type": "uint256"
        },
        {
          "internalType": "string",
          "name": "",
          "type": "string"
        }
      ],
      "stateMutability": "view",
      "type": "function"
    },
    {
      "inputs": [
        {
          "internalType": "uint256",
          "name": "tokenId",
          "type": "uint256"
        },
        {
          "internalType": "bool",
          "name": "isFractalNoise",
          "type": "bool"
        },
        {
          "internalType": "uint256",
          "name": "frequency",
          "type": "uint256"
        }
      ],
      "name": "generateOctaves",
      "outputs": [
        {
          "internalType": "string",
          "name": "",
          "type": "string"
        }
      ],
      "stateMutability": "view",
      "type": "function"
    },
    {
      "inputs": [
        {
          "internalType": "uint256",
          "name": "seed",
          "type": "uint256"
        }
      ],
      "name": "generateRandomColorPalette",
      "outputs": [
        {
          "components": [
            {
              "internalType": "uint256",
              "name": "r",
              "type": "uint256"
            },
            {
              "internalType": "uint256",
              "name": "g",
              "type": "uint256"
            },
            {
              "internalType": "uint256",
              "name": "b",
              "type": "uint256"
            }
          ],
          "internalType": "struct Fossil.RGB[5]",
          "name": "",
          "type": "tuple[5]"
        }
      ],
      "stateMutability": "view",
      "type": "function"
    },
    {
      "inputs": [
        {
          "internalType": "uint256",
          "name": "seed",
          "type": "uint256"
        }
      ],
      "name": "generateSVG",
      "outputs": [
        {
          "internalType": "string",
          "name": "",
          "type": "string"
        }
      ],
      "stateMutability": "view",
      "type": "function"
    },
    {
      "inputs": [
        {
          "internalType": "uint256",
          "name": "tokenId",
          "type": "uint256"
        },
        {
          "internalType": "bool",
          "name": "isFractalNoise",
          "type": "bool"
        },
        {
          "internalType": "uint256",
          "name": "frequency",
          "type": "uint256"
        }
      ],
      "name": "generateScale",
      "outputs": [
        {
          "internalType": "string",
          "name": "",
          "type": "string"
        }
      ],
      "stateMutability": "view",
      "type": "function"
    },
    {
      "inputs": [
        {
          "internalType": "uint256",
          "name": "tokenId",
          "type": "uint256"
        },
        {
          "internalType": "bool",
          "name": "isFractalNoise",
          "type": "bool"
        }
      ],
      "name": "generateSpecularLighting",
      "outputs": [
        {
          "internalType": "string",
          "name": "",
          "type": "string"
        }
      ],
      "stateMutability": "view",
      "type": "function"
    },
    {
      "inputs": [
        {
          "internalType": "uint256",
          "name": "seed",
          "type": "uint256"
        }
      ],
      "name": "generateTriadicColors",
      "outputs": [
        {
          "components": [
            {
              "internalType": "uint256",
              "name": "r",
              "type": "uint256"
            },
            {
              "internalType": "uint256",
              "name": "g",
              "type": "uint256"
            },
            {
              "internalType": "uint256",
              "name": "b",
              "type": "uint256"
            }
          ],
          "internalType": "struct Fossil.RGB[5]",
          "name": "",
          "type": "tuple[5]"
        }
      ],
      "stateMutability": "view",
      "type": "function"
    },
    {
      "inputs": [
        {
          "components": [
            {
              "internalType": "uint256",
              "name": "r",
              "type": "uint256"
            },
            {
              "internalType": "uint256",
              "name": "g",
              "type": "uint256"
            },
            {
              "internalType": "uint256",
              "name": "b",
              "type": "uint256"
            }
          ],
          "internalType": "struct Fossil.RGB",
          "name": "color1",
          "type": "tuple"
        },
        {
          "components": [
            {
              "internalType": "uint256",
              "name": "r",
              "type": "uint256"
            },
            {
              "internalType": "uint256",
              "name": "g",
              "type": "uint256"
            },
            {
              "internalType": "uint256",
              "name": "b",
              "type": "uint256"
            }
          ],
          "internalType": "struct Fossil.RGB",
          "name": "color2",
          "type": "tuple"
        },
        {
          "components": [
            {
              "internalType": "uint256",
              "name": "r",
              "type": "uint256"
            },
            {
              "internalType": "uint256",
              "name": "g",
              "type": "uint256"
            },
            {
              "internalType": "uint256",
              "name": "b",
              "type": "uint256"
            }
          ],
          "internalType": "struct Fossil.RGB",
          "name": "color3",
          "type": "tuple"
        },
        {
          "internalType": "uint256",
          "name": "greyControl",
          "type": "uint256"
        }
      ],
      "name": "randomMix",
      "outputs": [
        {
          "components": [
            {
              "internalType": "uint256",
              "name": "r",
              "type": "uint256"
            },
            {
              "internalType": "uint256",
              "name": "g",
              "type": "uint256"
            },
            {
              "internalType": "uint256",
              "name": "b",
              "type": "uint256"
            }
          ],
          "internalType": "struct Fossil.RGB",
          "name": "",
          "type": "tuple"
        }
      ],
      "stateMutability": "view",
      "type": "function"
    }
  ],
  "bytecode": {
    "object": "0x6080806040523461001657612072908161001c8239f35b600080fdfe60406080815260048036101561001457600080fd5b600090813560e01c8063167feb3014610d82578063385f81b014610c65578063547fe360146109d257806363d265a1146109b45780636dcee4ca14610992578063754f4dec146106375780638df4db1614610612578063919f965014610545578063a71a0bfd1461051f578063a929e68414610447578063b7eb3f751461040d578063ddede359146101ed5763ed7ca60e146100af57600080fd5b346101e957826003193601126101e95780356100c9610fbc565b156101a8576100d7906113be565b915b5060648210610110575061010c6100f76100f283611224565b6111e9565b83519384938452806020850152830190610e8b565b0390f35b600a8210610162575061010c61012582611224565b61015d602385518093620302e360ec1b602083015261014d8151809260208686019101610e68565b8101036003810184520182610f65565b6100f7565b61010c9061015d602461017485611224565b9286518094630302e30360e41b60208301526101998151809260208786019101610e68565b81010390810184520182610f65565b602d90845160208101918252602081526101c181610f49565b51902006600f81018091116101d657916100d9565b634e487b7160e01b835260118252602483fd5b5080fd5b5091346101e9576020806003193601126104095783359061020c611a4b565b5061021682611371565b600183018084116103f65761022a90611371565b92600281018091116103f65761023f90611371565b84519061024b82610efb565b82825283820194855285820190815260ff928303948386116103e35780518403958487116103d057825185039485116103d05787519061028a82610efb565b815285810196875287810194855283519160559081840184116103bd5780519180830183116103aa57855181810181116103965781908c51966102cc88610efb565b82610100968780968194088a52088b880152088a85015285519460aa918287018711610396575190828201821161039657519082820182116103965782849182828f519a6103198c610efb565b0889520889870152088884015287519860a08a01908a821067ffffffffffffffff831117610383575061010c9a5088528389528589015286880152606087015251925190519184519361036b85610efb565b84528301528282015260808301525191829182610eb0565b634e487b7160e01b815260418c52602490fd5b50634e487b7160e01b8c5260118d5260248cfd5b634e487b7160e01b8c5260118d5260248cfd5b634e487b7160e01b8b5260118c5260248bfd5b634e487b7160e01b895260118a52602489fd5b634e487b7160e01b885260118952602488fd5b634e487b7160e01b865260118752602486fd5b8280fd5b8284346101e957806003193601126101e95761010c9061042b610fbc565b5061043461143e565b9051918291602083526020830190610e8b565b50829034610409576020918260031936011261051b5761046a61010c9235611a7d565b938061047586611092565b956104c6603a855180997f646174613a696d6167652f7376672b786d6c3b6261736536342c0000000000008a8301526104b6815180928c8686019101610e68565b810103601a81018a520188610f65565b83516104fb816104ed8982019463104c13eb60e21b86528a60248401526044830190610e8b565b03601f198101835282610f65565b51906a636f6e736f6c652e6c6f675afa5051928284938452830190610e8b565b8380fd5b8284346101e95761010c9061043461054061053936610fcb565b5050611392565b611224565b5091346101e95760603660031901126101e95761056136610f87565b6105696115e2565b50815161057581610efb565b60ff815282602082019160ff8352019060ff825282519460ff86018096116105ff576060866105fd87876105c088836105b58a602086015190519061100a565b93015190519061100a565b60011c908251946105d086610efb565b60011c855260011c6020850152818401525180926040809180518452602081015160208501520151910152565bf35b634e487b7160e01b815260118752602490fd5b50919034610634576020366003190112610634575061043461010c923561176c565b80fd5b50829034610409576101403660031901126104095761065536610f87565b9260603660631901126106345782519361066e85610efb565b60643585526020918286019360843585528587019260a4358452606060c319360112610409578651946106a086610efb565b60c435865280860160e43581528887019761010435895261012435946106c46115e2565b5060038b51858101904282528d44908201528d81526106e281610efb565b51902006958661096c578b51858101904282528d44908201528d815261070781610efb565b51902060018201908183116108f7579061072091611367565b905b8c60018903610944578051878101914283524481830152815261074481610efb565b51902060018201908183116109315760029161075f91611367565b985b0361090a578c8051878101914283524481830152815261078081610efb565b519020600182018092116108f7579061079891611367565b975b6107ad896107a88a8561100a565b61100a565b9260ff92838102908082048514901517156101d657846107cc9161102d565b98838102908082048514901517156101d657846107e89161102d565b998381029381850414901517156108e45750508b959493929161080a9161102d565b986108136115e2565b9c8551610820908961104d565b905161082c908a61104d565b6108359161100a565b9051610841908b61104d565b61084a9161100a565b8c528284015161085a908761104d565b9051610866908861104d565b61086f9161100a565b905161087b908961104d565b6108849161100a565b908a015201516108939161104d565b915161089e9161104d565b6108a79161100a565b91516108b29161104d565b6108bb9161100a565b818301525190816108df916040809180518452602081015160208501520151910152565b606090f35b634e487b7160e01b825260119052602490fd5b634e487b7160e01b8a526011845260248afd5b5060ff8c8051878101914283524481830152815261092781610efb565b519020169761079a565b634e487b7160e01b8b526011855260248bfd5b60ff8160029251898101914283524481830152815261096281610efb565b5190201698610761565b60ff8c8051878101914283524481830152815261098881610efb565b5190201690610722565b50919034610634576020366003190112610634575061043461010c9235611a7d565b8284346101e95761010c906104346109cb36610fcb565b5090611404565b505034610634576102003660031901126106345736604312156106345781516109fa81610f2d565b6102048136821161051b576024905b828210610c2757505050825190610a1f82610efb565b602f8252602092838301917f3c6665436f6d706f6e656e745472616e736665722069643d2270616c6574746583526e11103932b9bab63a1e913931ba111f60891b86850152855190610a7082610efb565b602582527f3c666546756e635220747970653d227461626c6522207461626c6556616c756586830152640399e9118160dd1b918288820152908751610ab481610efb565b602581527f3c666546756e634720747970653d227461626c6522207461626c6556616c756588820152838982015292885190610aef82610efb565b602582527f3c666546756e634220747970653d227461626c6522207461626c6556616c7565898301528982015293905b60058210610bd557610b5f8861010c8b610bc660368c8c8c8c610b4d610b47610b478f611720565b92611720565b9287519a8b955180928c880190610e68565b8401610b73825180938c8085019101610e68565b01610b86825180938b8085019101610e68565b01610b99825180938a8085019101610e68565b01751e17b332a1b7b6b837b732b73a2a3930b739b332b91f60511b87820152036016810187520185610f65565b51928284938452830190610e8b565b9093610c1b610c2191610c048b610c138c9798610c04610c0a610bf88d8b6116a9565b519b610c048d51611601565b906116d0565b998b0151611601565b970151611601565b9461169a565b90610b1f565b606082360312610c61578551606091610c3f82610efb565b8335825260209182850135838201528885013589820152815201910190610a09565b8480fd5b5091346101e95760208060031936011261040957833592610c84611a4b565b5080610c8e611a4b565b9481925b60058410610ca75785518061010c8982610eb0565b610cbd610cb8826107a8878661100a565b611371565b610cc7858461100a565b60018101809111610d6f57610cb883610cdf9261100a565b610ce9868561100a565b60028101809111610d5c57610cb884610d019261100a565b90885192610d0e84610efb565b83528783015287820152610d2285896116a9565b52610d2d84886116a9565b5060038101809111610d4957610d43909361169a565b92610c92565b634e487b7160e01b835260118852602483fd5b634e487b7160e01b865260118b52602486fd5b634e487b7160e01b855260118a52602485fd5b50346101e95760603660031901126101e957803591602435604435610db182610dab818861102d565b96611367565b90604d8111610e5557610dd19291610dcc91600a0a9061104d565b61102d565b916005831015610e3d575b848361010c610df3610ded88611224565b92611224565b92610bc66021825180968651610e11816020998a8087019101610e68565b8201601760f91b88820152610e2e825180938a8785019101610e68565b01036001810187520185610f65565b600183018093116108e4575050610df3610ded610ddc565b634e487b7160e01b845260118552602484fd5b60005b838110610e7b5750506000910152565b8181015183820152602001610e6b565b90602091610ea481518092818552858086019101610e68565b601f01601f1916010190565b91906101e08301926000905b60058210610ec957505050565b6020606082610eef60019487516040809180518452602081015160208501520151910152565b01930191019091610ebc565b6060810190811067ffffffffffffffff821117610f1757604052565b634e487b7160e01b600052604160045260246000fd5b60a0810190811067ffffffffffffffff821117610f1757604052565b6040810190811067ffffffffffffffff821117610f1757604052565b90601f8019910116810190811067ffffffffffffffff821117610f1757604052565b6060906003190112610fb75760405190610fa082610efb565b600435825260243560208301526044356040830152565b600080fd5b602435908115158203610fb757565b6060906003190112610fb757600435906024358015158103610fb7579060443590565b67ffffffffffffffff8111610f1757601f01601f191660200190565b9190820180921161101757565b634e487b7160e01b600052601160045260246000fd5b8115611037570490565b634e487b7160e01b600052601260045260246000fd5b8181029291811591840414171561101757565b9061106a82610fee565b6110776040519182610f65565b8281528092611088601f1991610fee565b0190602036910137565b8051156111c4576040516110a581610efb565b604081527f4142434445464748494a4b4c4d4e4f505152535455565758595a61626364656660208201527f6768696a6b6c6d6e6f707172737475767778797a303132333435363738392b2f60408201528151600292838201809211611017576003918290046001600160fe1b038116810361101757611127908594951b611060565b936020850193829183518401925b838110611173575050505051068060011461116057600214611155575090565b603d90600019015390565b50603d9081600019820153600119015390565b85600491979293949701918251600190603f9082828260121c16880101518453828282600c1c16880101518385015382828260061c1688010151888501531685010151878201530195929190611135565b506040516020810181811067ffffffffffffffff821117610f17576040526000815290565b906112226022604051809461181760f11b60208301526112128151809260208686019101610e68565b8101036002810185520183610f65565b565b806000917a184f03e93ff9f4daa797ed6e38ed64bf6a1f01000000000000000080821015611359575b506d04ee2d6d415b85acef81000000008083101561134a575b50662386f26fc100008083101561133b575b506305f5e1008083101561132c575b506127108083101561131d575b50606482101561130d575b600a80921015611303575b6001908160216112bb828701611060565b95860101905b6112cd575b5050505090565b600019019083906f181899199a1a9b1b9c1cb0b131b232b360811b8282061a8353049182156112fe579190826112c1565b6112c6565b91600101916112aa565b919060646002910491019161129f565b60049193920491019138611294565b60089193920491019138611287565b60109193920491019138611278565b60209193920491019138611266565b60409350810491503861124d565b8115611037570690565b60ff90604051602081019182526020815261138b81610f49565b5190200690565b60039060405160208101918252602081526113ac81610f49565b51902016600181018091116110175790565b60829060405160208101918252602081526113d881610f49565b51902006601481018091116110175790565b606490604051602081019182526020815261138b81610f49565b9061143257605061142f91604051602081019182526020815261142681610f49565b51902006611224565b90565b61054061142f916113ea565b6114f261142f60f660405161145281610f49565b600b8152602081016a2d332e313031333131323160a81b815260405161147781610f49565b600a8152611528602082019269322e313337303834323560b01b84526040519788957f3c666553706563756c61724c69676874696e67206c69676874696e672d636f6c60208801527f6f723d22236666666666662220737572666163655363616c653d2200000000006040880152518092605b880190610e68565b8401917f2220726573756c743d227234222073706563756c6172436f6e7374616e743d22605b840152518093607b840190610e68565b017f222073706563756c61724578706f6e656e743d2231352e313937353334353622607b820152681034b71e913919111f60b91b609b8201527f3c666544697374616e744c6967687420656c65766174696f6e3d22333022206160a48201526b3d34b6baba341e911b18111f60a11b60c4820152701e17b332a234b9ba30b73a2634b3b43a1f60791b60d0820152741e17b332a9b832b1bab630b92634b3b43a34b7339f60591b60e18201520360d6810184520182610f65565b604051906115ef82610efb565b60006040838281528260208201520152565b60ff8116600a810290808204600a14901517156110175760081c906005821015611688575b602161164061163a61142f9360081c611224565b93611224565b92604051938161165a869351809260208087019101610e68565b8201601760f91b60208201526116798251809360208785019101610e68565b01036001810184520182610f65565b90600181018091116110175790611626565b60001981146110175760010190565b9060058110156116ba5760051b0190565b634e487b7160e01b600052603260045260246000fd5b60216112229193929360405194816116f2879351809260208087019101610e68565b82016117078251809360208085019101610e68565b01600160fd1b6020820152036001810185520183610f65565b9061122260246040518461173e829651809260208086019101610e68565b8101631110179f60e11b6020820152036004810185520183610f65565b9060038110156116ba5760051b0190565b60018092604080519461177e86610efb565b60005b6060808210156117975787820152602001611781565b5050919493909260005b6003811061190c575050505060d161142f9183519381602082015191015182519586937f3c6665436f6d706f6e656e745472616e7366657220726573756c743d227265736020860152653ab63a19111f861b908501527f3c666546756e635220747970653d227461626c6522207461626c6556616c7565604685015262399e9160e91b9081606686015261183f815180926020606989019101610e68565b840192631110179f60e11b938460698201527f3c666546756e634720747970653d227461626c6522207461626c6556616c7565606d82015282608d820152611891825180936020609085019101610e68565b01908360908301527f3c666546756e634220747970653d227461626c6522207461626c6556616c7565609483015260b48201526118d882518093602060b785019101610e68565b019060b7820152751e17b332a1b7b6b837b732b73a2a3930b739b332b91f60511b60bb8201520360b1810184520182610f65565b845161191781610f49565b828152602090600360fc1b828201529060005b6002811061198f575061196f602261198a949361203160f01b938a51948261195b8794518092858088019101610e68565b830191820152036002810184520182610f65565b611979828961175b565b52611984818861175b565b5061169a565b6117a1565b9591611a2c611a32916119a2858961100a565b8a518581019182528581526119b681610f49565b519020600a90066009198101611a375750611a268a516119d581610f49565b888152603160f81b868201525b8b51836119f882955180928a8086019101610e68565b8101600160fd1b88820152825190611a18826021958b8785019101610e68565b010389810184520182610f65565b9361169a565b9661169a565b61192a565b611a466100f2611a2692611224565b6119e2565b60405190611a5882610f2d565b8160005b60a08110611a68575050565b602090611a736115e2565b8184015201611a5c565b61142f61033360405192611a9084610f49565b600c84526020681e17b334b63a32b91f60b91b818601926b6672616374616c4e6f69736560a01b8452611ac2816113be565b60648110611fbd576100f2611ad691611224565b935b7f3c6665436f6d706f73697465206b313d22302e3338373430393222206b333d22611b0561054084611392565b92611b1b611b15610540836113ea565b9161176c565b93611b2461143e565b93604051809c819a7f3c7376672077696474683d2235303022206865696768743d22353030222076698b8401527f6577426f783d223020302035303020353030222076657273696f6e3d22312e3160408401527f2220786d6c6e733d22687474703a2f2f7777772e77332e6f72672f323030302f60608401526439bb33911f60d91b6080840152651e3232b3399f60d11b60858401527f3c66696c7465722069643d22637261636b65642d6c6176612220636f6c6f722d608b8401527f696e746572706f6c6174696f6e2d66696c746572733d2273524742223e00000060ab8401527f3c6665466c6f6f6420666c6f6f642d636f6c6f723d22726762283135322c313560c88401527f322c313532292220726573756c743d2272313522202f3e00000000000000000060e88401527f3c666554757262756c656e636520626173654672657175656e63793d2200000060ff840152611c8d815180928d61011c8097019101610e68565b8b01916711103a3cb8329e9160c11b908301525190611cb3826101249485840190610e68565b01906d1110373ab6a7b1ba30bb32b99e9160911b90820152815190611ce182610132948b8685019101610e68565b01906f11103932b9bab63a1e9139189110179f60811b908201527f3c6665446973706c6163656d656e744d617020726573756c743d2272352220786101428201527f4368616e6e656c53656c6563746f723d22522220696e323d2272312220696e3d6101628201527f2272312220794368616e6e656c53656c6563746f723d224722207363616c653d610182820152601160f91b6101a2820152815190611d91826101a3948a8685019101610e68565b0190631110179f60e11b908201527f3c6665436f6d706f7369746520726573756c743d22723222206f70657261746f6101a78201527f723d22696e2220696e3d227231352220696e323d22723522202f3e00000000006101c7820152825190611e03826101e295898785019101610e68565b01918201527f3122206b323d222d302e352220696e323d2272322220696e3d22723422206f706102028201527f657261746f723d2261726974686d657469632220726573756c743d22723931226102228201526910359a1e91181110179f60b11b6102428201527f3c6665436f6d706f7369746520696e3d227239312220726573756c743d22723461024c8201527f22206f70657261746f723d2261726974686d6574696322206b323d223222206b61026c8201527f333d22332e393737393433342220696e323d2272393122206b313d223022206b61028c820152711a1e911698171a9b98991b9b991a1110179f60711b6102ac82015281516102be949092611f139184918785019101610e68565b0191820152661e17b232b3399f60c91b6102c78201527f3c726563742077696474683d2235303022206865696768743d223530302220666102ce8201527f696c7465723d2275726c2823637261636b65642d6c6176612922207374796c656102ee8201527f3d2266696c7465723a75726c2823637261636b65642d6c6176612922202f3e0061030e820152651e17b9bb339f60d11b61032d82015203610313810184520182610f65565b600a8110611ffb57611fce90611224565b611ff560236040518093620302e360ec1b8883015261014d815180928a8686019101610e68565b93611ad8565b61200490611224565b611ff560246040518093630302e30360e41b8883015261202c815180928a8686019101610e68565b8101036004810184520182610f6556fea26469706673582212207afed261578a28958b582320221c47409d3d31574402729abf5b923026a7f60564736f6c63430008110033",
    "linkReferences": {}
  },
  "methodIdentifiers": {
    "averageWithWhite((uint256,uint256,uint256))": "919f9650",
    "constructImageURI(uint256)": "a929e684",
    "divideAndFormat(uint256,uint256,uint256)": "167feb30",
    "generateComponentTransfer(uint256)": "8df4db16",
    "generateComponentTransfer(uint256,(uint256,uint256,uint256)[5])": "547fe360",
    "generateFrequency(uint256,bool)": "ed7ca60e",
    "generateOctaves(uint256,bool,uint256)": "a71a0bfd",
    "generateRandomColorPalette(uint256)": "385f81b0",
    "generateSVG(uint256)": "6dcee4ca",
    "generateScale(uint256,bool,uint256)": "63d265a1",
    "generateSpecularLighting(uint256,bool)": "b7eb3f75",
    "generateTriadicColors(uint256)": "ddede359",
    "randomMix((uint256,uint256,uint256),(uint256,uint256,uint256),(uint256,uint256,uint256),uint256)": "754f4dec"
  },
  "id": 28
}