{
  "abi": [
    {
      "inputs": [
        {
          "components": [
            {
              "internalType": "uint256",
              "name": "r",
              "type": "uint256"
            },
            {
              "internalType": "uint256",
              "name": "g",
              "type": "uint256"
            },
            {
              "internalType": "uint256",
              "name": "b",
              "type": "uint256"
            }
          ],
          "internalType": "struct Fossil.RGB",
          "name": "color",
          "type": "tuple"
        }
      ],
      "name": "averageWithWhite",
      "outputs": [
        {
          "components": [
            {
              "internalType": "uint256",
              "name": "r",
              "type": "uint256"
            },
            {
              "internalType": "uint256",
              "name": "g",
              "type": "uint256"
            },
            {
              "internalType": "uint256",
              "name": "b",
              "type": "uint256"
            }
          ],
          "internalType": "struct Fossil.RGB",
          "name": "",
          "type": "tuple"
        }
      ],
      "stateMutability": "pure",
      "type": "function"
    },
    {
      "inputs": [
        {
          "internalType": "uint256",
          "name": "seed",
          "type": "uint256"
        }
      ],
      "name": "constructImageURI",
      "outputs": [
        {
          "internalType": "string",
          "name": "",
          "type": "string"
        }
      ],
      "stateMutability": "view",
      "type": "function"
    },
    {
      "inputs": [
        {
          "internalType": "uint256",
          "name": "input",
          "type": "uint256"
        },
        {
          "internalType": "uint256",
          "name": "divisor",
          "type": "uint256"
        },
        {
          "internalType": "uint256",
          "name": "decimalPlaces",
          "type": "uint256"
        }
      ],
      "name": "divideAndFormat",
      "outputs": [
        {
          "internalType": "string",
          "name": "",
          "type": "string"
        }
      ],
      "stateMutability": "view",
      "type": "function"
    },
    {
      "inputs": [
        {
          "internalType": "uint256",
          "name": "tokenId",
          "type": "uint256"
        },
        {
          "components": [
            {
              "internalType": "uint256",
              "name": "r",
              "type": "uint256"
            },
            {
              "internalType": "uint256",
              "name": "g",
              "type": "uint256"
            },
            {
              "internalType": "uint256",
              "name": "b",
              "type": "uint256"
            }
          ],
          "internalType": "struct Fossil.RGB[5]",
          "name": "colors",
          "type": "tuple[5]"
        }
      ],
      "name": "generateComponentTransfer",
      "outputs": [
        {
          "internalType": "string",
          "name": "",
          "type": "string"
        }
      ],
      "stateMutability": "view",
      "type": "function"
    },
    {
      "inputs": [
        {
          "internalType": "uint256",
          "name": "tokenId",
          "type": "uint256"
        },
        {
          "internalType": "bool",
          "name": "turbulenceType",
          "type": "bool"
        }
      ],
      "name": "generateFrequency",
      "outputs": [
        {
          "internalType": "uint256",
          "name": "",
          "type": "uint256"
        },
        {
          "internalType": "string",
          "name": "",
          "type": "string"
        }
      ],
      "stateMutability": "view",
      "type": "function"
    },
    {
      "inputs": [
        {
          "internalType": "uint256",
          "name": "tokenId",
          "type": "uint256"
        },
        {
          "internalType": "bool",
          "name": "isFractalNoise",
          "type": "bool"
        },
        {
          "internalType": "uint256",
          "name": "frequency",
          "type": "uint256"
        }
      ],
      "name": "generateOctaves",
      "outputs": [
        {
          "internalType": "string",
          "name": "",
          "type": "string"
        }
      ],
      "stateMutability": "view",
      "type": "function"
    },
    {
      "inputs": [
        {
          "internalType": "uint256",
          "name": "seed",
          "type": "uint256"
        }
      ],
      "name": "generateRandomColorPalette",
      "outputs": [
        {
          "components": [
            {
              "internalType": "uint256",
              "name": "r",
              "type": "uint256"
            },
            {
              "internalType": "uint256",
              "name": "g",
              "type": "uint256"
            },
            {
              "internalType": "uint256",
              "name": "b",
              "type": "uint256"
            }
          ],
          "internalType": "struct Fossil.RGB[5]",
          "name": "",
          "type": "tuple[5]"
        }
      ],
      "stateMutability": "view",
      "type": "function"
    },
    {
      "inputs": [
        {
          "internalType": "uint256",
          "name": "seed",
          "type": "uint256"
        }
      ],
      "name": "generateSVG",
      "outputs": [
        {
          "internalType": "string",
          "name": "",
          "type": "string"
        }
      ],
      "stateMutability": "view",
      "type": "function"
    },
    {
      "inputs": [
        {
          "internalType": "uint256",
          "name": "tokenId",
          "type": "uint256"
        },
        {
          "internalType": "bool",
          "name": "isFractalNoise",
          "type": "bool"
        },
        {
          "internalType": "uint256",
          "name": "frequency",
          "type": "uint256"
        }
      ],
      "name": "generateScale",
      "outputs": [
        {
          "internalType": "string",
          "name": "",
          "type": "string"
        }
      ],
      "stateMutability": "view",
      "type": "function"
    },
    {
      "inputs": [
        {
          "internalType": "uint256",
          "name": "tokenId",
          "type": "uint256"
        },
        {
          "internalType": "bool",
          "name": "isFractalNoise",
          "type": "bool"
        }
      ],
      "name": "generateSpecularLighting",
      "outputs": [
        {
          "internalType": "string",
          "name": "",
          "type": "string"
        }
      ],
      "stateMutability": "view",
      "type": "function"
    },
    {
      "inputs": [
        {
          "internalType": "uint256",
          "name": "seed",
          "type": "uint256"
        }
      ],
      "name": "generateTriadicColors",
      "outputs": [
        {
          "components": [
            {
              "internalType": "uint256",
              "name": "r",
              "type": "uint256"
            },
            {
              "internalType": "uint256",
              "name": "g",
              "type": "uint256"
            },
            {
              "internalType": "uint256",
              "name": "b",
              "type": "uint256"
            }
          ],
          "internalType": "struct Fossil.RGB[5]",
          "name": "",
          "type": "tuple[5]"
        }
      ],
      "stateMutability": "view",
      "type": "function"
    },
    {
      "inputs": [
        {
          "components": [
            {
              "internalType": "uint256",
              "name": "r",
              "type": "uint256"
            },
            {
              "internalType": "uint256",
              "name": "g",
              "type": "uint256"
            },
            {
              "internalType": "uint256",
              "name": "b",
              "type": "uint256"
            }
          ],
          "internalType": "struct Fossil.RGB",
          "name": "color1",
          "type": "tuple"
        },
        {
          "components": [
            {
              "internalType": "uint256",
              "name": "r",
              "type": "uint256"
            },
            {
              "internalType": "uint256",
              "name": "g",
              "type": "uint256"
            },
            {
              "internalType": "uint256",
              "name": "b",
              "type": "uint256"
            }
          ],
          "internalType": "struct Fossil.RGB",
          "name": "color2",
          "type": "tuple"
        },
        {
          "components": [
            {
              "internalType": "uint256",
              "name": "r",
              "type": "uint256"
            },
            {
              "internalType": "uint256",
              "name": "g",
              "type": "uint256"
            },
            {
              "internalType": "uint256",
              "name": "b",
              "type": "uint256"
            }
          ],
          "internalType": "struct Fossil.RGB",
          "name": "color3",
          "type": "tuple"
        },
        {
          "internalType": "uint256",
          "name": "greyControl",
          "type": "uint256"
        }
      ],
      "name": "randomMix",
      "outputs": [
        {
          "components": [
            {
              "internalType": "uint256",
              "name": "r",
              "type": "uint256"
            },
            {
              "internalType": "uint256",
              "name": "g",
              "type": "uint256"
            },
            {
              "internalType": "uint256",
              "name": "b",
              "type": "uint256"
            }
          ],
          "internalType": "struct Fossil.RGB",
          "name": "",
          "type": "tuple"
        }
      ],
      "stateMutability": "view",
      "type": "function"
    }
  ],
  "bytecode": {
    "object": "0x608080604052346100165761201d908161001c8239f35b600080fdfe60406080815260048036101561001457600080fd5b600090813560e01c8063167feb3014610988578063385f81b01461086b578063547fe360146107e557806363d265a1146107c75780636dcee4ca146107a5578063754f4dec1461044a578063919f96501461037d578063a71a0bfd14610357578063a929e6841461027b578063b7eb3f7514610241578063ddede359146102115763ed7ca60e146100a457600080fd5b3461020d578260031936011261020d5780356100be610bd1565b156101cc576100cc90610f98565b915b506064821061013457506101306100e482610dfe565b61011b60228551809361181760f11b602083015261010b8151809260208686019101610a7d565b8101036002810184520182610b7a565b83519384938452806020850152830190610aa0565b0390f35b600a8210610186575061013061014982610dfe565b610181602385518093620302e360ec1b60208301526101718151809260208686019101610a7d565b8101036003810184520182610b7a565b61011b565b61013090610181602461019885610dfe565b9286518094630302e30360e41b60208301526101bd8151809260208786019101610a7d565b81010390810184520182610b7a565b602d90845160208101918252602081526101e581610b5e565b51902006600f81018091116101fa57916100ce565b634e487b7160e01b835260118252602483fd5b5080fd5b5091903461023e57602036600319011261023e5750610233610130923561156f565b905191829182610ac5565b80fd5b82843461020d578060031936011261020d576101309061025f610bd1565b50610268611018565b9051918291602083526020830190610aa0565b50829034610353576020918260031936011261034f5761029e61013092356116e6565b93806102a986610ca7565b956102fa603a855180997f646174613a696d6167652f7376672b786d6c3b6261736536342c0000000000008a8301526102ea815180928c8686019101610a7d565b810103601a81018a520188610b7a565b835161032f816103218982019463104c13eb60e21b86528a60248401526044830190610aa0565b03601f198101835282610b7a565b51906a636f6e736f6c652e6c6f675afa5051928284938452830190610aa0565b8380fd5b8280fd5b82843461020d576101309061026861037861037136610be0565b5050610f6c565b610dfe565b50913461020d57606036600319011261020d5761039936610b9c565b6103a16111bc565b5081516103ad81610b10565b60ff815282602082019160ff8352019060ff825282519460ff86018096116104375760608661043587876103f888836103ed8a6020860151905190610c1f565b930151905190610c1f565b60011c9082519461040886610b10565b60011c855260011c6020850152818401525180926040809180518452602081015160208501520151910152565bf35b634e487b7160e01b815260118752602490fd5b50829034610353576101403660031901126103535761046836610b9c565b92606036606319011261023e5782519361048185610b10565b60643585526020918286019360843585528587019260a4358452606060c319360112610353578651946104b386610b10565b60c435865280860160e43581528887019761010435895261012435946104d76111bc565b5060038b51858101904282528d44908201528d81526104f581610b10565b51902006958661077f578b51858101904282528d44908201528d815261051a81610b10565b519020600182019081831161070a579061053391610f41565b905b8c60018903610757578051878101914283524481830152815261055781610b10565b51902060018201908183116107445760029161057291610f41565b985b0361071d578c8051878101914283524481830152815261059381610b10565b5190206001820180921161070a57906105ab91610f41565b975b6105c0896105bb8a85610c1f565b610c1f565b9260ff92838102908082048514901517156101fa57846105df91610c42565b98838102908082048514901517156101fa57846105fb91610c42565b998381029381850414901517156106f75750508b959493929161061d91610c42565b986106266111bc565b9c85516106339089610c62565b905161063f908a610c62565b61064891610c1f565b9051610654908b610c62565b61065d91610c1f565b8c528284015161066d9087610c62565b90516106799088610c62565b61068291610c1f565b905161068e9089610c62565b61069791610c1f565b908a015201516106a691610c62565b91516106b191610c62565b6106ba91610c1f565b91516106c591610c62565b6106ce91610c1f565b818301525190816106f2916040809180518452602081015160208501520151910152565b606090f35b634e487b7160e01b825260119052602490fd5b634e487b7160e01b8a526011845260248afd5b5060ff8c8051878101914283524481830152815261073a81610b10565b51902016976105ad565b634e487b7160e01b8b526011855260248bfd5b60ff8160029251898101914283524481830152815261077581610b10565b5190201698610574565b60ff8c8051878101914283524481830152815261079b81610b10565b5190201690610535565b5091903461023e57602036600319011261023e575061026861013092356116e6565b82843461020d57610130906102686107de36610be0565b5090610fde565b82843461020d5761020036600319011261020d57366043121561020d5780519161080e83610b42565b61020483368211610353576024905b828210610831576101308561026888611337565b60608236031261034f57845160609161084982610b10565b833582526020918285013583820152878501358882015281520191019061081d565b50913461020d576020806003193601126103535783359261088a61153d565b508061089461153d565b9481925b600584106108ad578551806101308982610ac5565b6108c36108be826105bb8786610c1f565b610f4b565b6108cd8584610c1f565b60018101809111610975576108be836108e592610c1f565b6108ef8685610c1f565b60028101809111610962576108be8461090792610c1f565b9088519261091484610b10565b835287830152878201526109288589611283565b526109338488611283565b506003810180911161094f576109499093611274565b92610898565b634e487b7160e01b835260118852602483fd5b634e487b7160e01b865260118b52602486fd5b634e487b7160e01b855260118a52602485fd5b503461020d57606036600319011261020d578035916024356044356109b7826109b18188610c42565b96610f41565b90604d8111610a6a576109d792916109d291600a0a90610c62565b610c42565b916005831015610a52575b84836101306109f96109f388610dfe565b92610dfe565b92610a436021825180968651610a17816020998a8087019101610a7d565b8201601760f91b88820152610a34825180938a8785019101610a7d565b01036001810187520185610b7a565b51928284938452830190610aa0565b600183018093116106f75750506109f96109f36109e2565b634e487b7160e01b845260118552602484fd5b60005b838110610a905750506000910152565b8181015183820152602001610a80565b90602091610ab981518092818552858086019101610a7d565b601f01601f1916010190565b91906101e08301926000905b60058210610ade57505050565b6020606082610b0460019487516040809180518452602081015160208501520151910152565b01930191019091610ad1565b6060810190811067ffffffffffffffff821117610b2c57604052565b634e487b7160e01b600052604160045260246000fd5b60a0810190811067ffffffffffffffff821117610b2c57604052565b6040810190811067ffffffffffffffff821117610b2c57604052565b90601f8019910116810190811067ffffffffffffffff821117610b2c57604052565b6060906003190112610bcc5760405190610bb582610b10565b600435825260243560208301526044356040830152565b600080fd5b602435908115158203610bcc57565b6060906003190112610bcc57600435906024358015158103610bcc579060443590565b67ffffffffffffffff8111610b2c57601f01601f191660200190565b91908201809211610c2c57565b634e487b7160e01b600052601160045260246000fd5b8115610c4c570490565b634e487b7160e01b600052601260045260246000fd5b81810292918115918404141715610c2c57565b90610c7f82610c03565b610c8c6040519182610b7a565b8281528092610c9d601f1991610c03565b0190602036910137565b805115610dd957604051610cba81610b10565b604081527f4142434445464748494a4b4c4d4e4f505152535455565758595a61626364656660208201527f6768696a6b6c6d6e6f707172737475767778797a303132333435363738392b2f60408201528151600292838201809211610c2c576003918290046001600160fe1b0381168103610c2c57610d3c908594951b610c75565b936020850193829183518401925b838110610d885750505050510680600114610d7557600214610d6a575090565b603d90600019015390565b50603d9081600019820153600119015390565b85600491979293949701918251600190603f9082828260121c16880101518453828282600c1c16880101518385015382828260061c1688010151888501531685010151878201530195929190610d4a565b506040516020810181811067ffffffffffffffff821117610b2c576040526000815290565b806000917a184f03e93ff9f4daa797ed6e38ed64bf6a1f01000000000000000080821015610f33575b506d04ee2d6d415b85acef810000000080831015610f24575b50662386f26fc1000080831015610f15575b506305f5e10080831015610f06575b5061271080831015610ef7575b506064821015610ee7575b600a80921015610edd575b600190816021610e95828701610c75565b95860101905b610ea7575b5050505090565b600019019083906f181899199a1a9b1b9c1cb0b131b232b360811b8282061a835304918215610ed857919082610e9b565b610ea0565b9160010191610e84565b9190606460029104910191610e79565b60049193920491019138610e6e565b60089193920491019138610e61565b60109193920491019138610e52565b60209193920491019138610e40565b604093508104915038610e27565b8115610c4c570690565b60ff906040516020810191825260208152610f6581610b5e565b5190200690565b6003906040516020810191825260208152610f8681610b5e565b5190201660018101809111610c2c5790565b6082906040516020810191825260208152610fb281610b5e565b5190200660148101809111610c2c5790565b6064906040516020810191825260208152610f6581610b5e565b9061100c57605061100991604051602081019182526020815261100081610b5e565b51902006610dfe565b90565b61037861100991610fc4565b6110cc61100960f660405161102c81610b5e565b600b8152602081016a2d332e313031333131323160a81b815260405161105181610b5e565b600a8152611102602082019269322e313337303834323560b01b84526040519788957f3c666553706563756c61724c69676874696e67206c69676874696e672d636f6c60208801527f6f723d22236666666666662220737572666163655363616c653d2200000000006040880152518092605b880190610a7d565b8401917f2220726573756c743d227234222073706563756c6172436f6e7374616e743d22605b840152518093607b840190610a7d565b017f222073706563756c61724578706f6e656e743d2231352e313937353334353622607b820152681034b71e913919111f60b91b609b8201527f3c666544697374616e744c6967687420656c65766174696f6e3d22333022206160a48201526b3d34b6baba341e911b18111f60a11b60c4820152701e17b332a234b9ba30b73a2634b3b43a1f60791b60d0820152741e17b332a9b832b1bab630b92634b3b43a34b7339f60591b60e18201520360d6810184520182610b7a565b604051906111c982610b10565b60006040838281528260208201520152565b60ff8116600a810290808204600a1490151715610c2c5760081c906005821015611262575b602161121a6112146110099360081c610dfe565b93610dfe565b926040519381611234869351809260208087019101610a7d565b8201601760f91b60208201526112538251809360208785019101610a7d565b01036001810184520182610b7a565b9060018101809111610c2c5790611200565b6000198114610c2c5760010190565b9060058110156112945760051b0190565b634e487b7160e01b600052603260045260246000fd5b60216112fa9193929360405194816112cc879351809260208087019101610a7d565b82016112e18251809360208085019101610a7d565b01600160fd1b6020820152036001810185520183610b7a565b565b906112fa60246040518461131a829651809260208086019101610a7d565b8101631110179f60e11b6020820152036004810185520183610b7a565b60409081519161134683610b10565b602f83526020918284017f3c6665436f6d706f6e656e745472616e736665722069643d2270616c6574746581526e11103932b9bab63a1e913931ba111f60891b8386015282519061139682610b10565b602582527f3c666546756e635220747970653d227461626c6522207461626c6556616c756585830152640399e9118160dd1b91828582015284516113d981610b10565b602581527f3c666546756e634720747970653d227461626c6522207461626c6556616c75658782015283868201529285519061141482610b10565b602582527f3c666546756e634220747970653d227461626c6522207461626c6556616c75658883015286820152936000905b600582106114eb5750509361149e96936110099693751e17b332a1b7b6b837b732b73a2a3930b739b332b91f60511b9361148d61148761148760369a6112fc565b936112fc565b9351998a97518092888a0190610a7d565b86016114b282518093888085019101610a7d565b016114c582518093878085019101610a7d565b016114d882518093868085019101610a7d565b0191820152036016810184520182610b7a565b90946115316115379161151a8961152961151a9961151a6115208f9a6115118f8c611283565b519d8e516111db565b906112aa565b998c01516111db565b9801516111db565b95611274565b90611446565b6040519061154a82610b42565b8160005b60a0811061155a575050565b6020906115656111bc565b818401520161154e565b61157761153d565b5061158181610f4b565b9060018101808211610c2c5761159690610f4b565b9060028101809111610c2c576115ab90610f4b565b9160408051916115ba83610b10565b80835260209283810194855282810195865260ff91820395828711610c2c578551830395838711610c2c5781518403938411610c2c578451976115fc89610b10565b88528588019687528488019384528251906055908183018311610c2c578051918083018311610c2c5784518181018111610c2c57819089519561163e87610b10565b82610100968780968194088952088b870152088784015284519360aa918286018611610c2c5751908282018211610c2c5751908282018211610c2c5782849182828c519961168b8b610b10565b0888520889860152088583015284519760a0890189811067ffffffffffffffff821117610b2c578652838952868901528488015260608701525193519051928251946116d686610b10565b8552840152820152608082015290565b604051906116f382610b5e565b600c8252602082016b6672616374616c4e6f69736560a01b815261171682610f98565b60648110611e945761172790610dfe565b61174f6022604051809361181760f11b602083015261010b8151809260208686019101610a7d565b905b61175d61037884610f6c565b9061176a61037885610fc4565b9060038501808611610c2c5761177f90611f17565b5060058501808611610c2c5761179490611f17565b9461179e9061156f565b916117a883611337565b916117b1611018565b9184516117bd90611f3f565b9560208601516117cc90611f3f565b9060408701516117db90611f3f565b9360608801516117ea90611f3f565b97608001516117f890611f3f565b996040519c8d809d602082017f3c7376672077696474683d2235303022206865696768743d22353030222076699052604082017f6577426f783d223020302035303020353030222076657273696f6e3d22312e319052606082017f2220786d6c6e733d22687474703a2f2f7777772e77332e6f72672f323030302f90526439bb33911f60d91b608083015260858201651e3232b3399f60d11b9052608b82017f3c66696c7465722069643d22637261636b65642d6c6176612220636f6c6f722d905260ab82017f696e746572706f6c6174696f6e2d66696c746572733d2273524742223e0000009052751e3332a33637b7b210333637b7b216b1b7b637b91e9160511b60c8830152805160de819301916020019161191592610a7d565b8d017011103932b9bab63a1e9139189a9110179f60791b60de82015260ef81017f3c666554757262756c656e636520626173654672657175656e63793d22000000905282519061010c9382858301916020019161197192610a7d565b01916711103a3cb8329e9160c11b908301525190610114928284830161199692610a7d565b01906d1110373ab6a7b1ba30bb32b99e9160911b90820152815190610122928284830191602001916119c792610a7d565b6f11103932b9bab63a1e9139189110179f60811b9101918201527f3c6665446973706c6163656d656e744d617020726573756c743d2272352220786101328201527f4368616e6e656c53656c6563746f723d22522220696e323d2272312220696e3d6101528201527f2272312220794368616e6e656c53656c6563746f723d224722207363616c653d610172820152601160f91b610192820152825161019393909190611a7c90839086840190602001610a7d565b0191631110179f60e11b97889584878096948195015261019781017f3c6665436f6d706f7369746520726573756c743d22723222206f70657261746f90526101b781017f723d22696e2220696e3d227231352220696e323d22723522202f3e000000000090528151906101d292828483019160200191611afb92610a7d565b7f3c6665436f6d706f73697465206b313d22302e3338373430393222206b333d229101918201527f3122206b323d222d302e352220696e323d2272322220696e3d22723422206f706101f28201527f657261746f723d2261726974686d657469632220726573756c743d22723931226102128201526910359a1e91181110179f60b11b6102328201527f3c6665436f6d706f7369746520696e3d227239312220726573756c743d22723461023c8201527f22206f70657261746f723d2261726974686d6574696322206b323d223222206b61025c8201527f333d22332e393737393433342220696e323d2272393122206b313d223022206b61027c820152711a1e911698171a9b98991b9b991a1110179f60711b61029c82015287516102ae98909190611c309083908b840190602001610a7d565b7f3c6665426c656e64206d6f64653d226e6f726d616c2220696e323d22726573759101978801526f363a18911034b71e913931ba1110179f60811b6102ce880152681e17b334b63a32b91f60b91b6102de880152661e17b232b3399f60c91b6102e78801527f3c726563742077696474683d2235303022206865696768743d223530302220666102ee8801527f696c7465723d2275726c2823637261636b65642d6c6176612922207374796c6561030e8801527f3d2266696c7465723a75726c2823637261636b65642d6c6176612922202f3e0061032e8801527f3c726563742077696474683d22353022206865696768743d2235302220783d2261034d88018190526e1811103c9e911811103334b6361e9160891b61036d8901528151909761037c9284929190611d6a90839086840190602001610a7d565b0191820152866103808201526f1a9811103c9e911811103334b6361e9160811b6103a08201528251906103b093828583019160200191611da992610a7d565b0191820152846103b48201527018981811103c9e911811103334b6361e9160791b6103d48201528251906103e593828583019160200191611de992610a7d565b0191820152826103e982015270189a9811103c9e911811103334b6361e9160791b61040982015283519061041a94828683019160200191611e2992610a7d565b019283015261041e8201527019181811103c9e911811103334b6361e9160791b61043e82015282519061044f93828583019160200191611e6892610a7d565b01918201526104538101651e17b9bb339f60d11b90520361043981018252610459016110099082610b7a565b600a8110611ed457611ea590610dfe565b611ece60236040518093620302e360ec1b60208301526101718151809260208686019101610a7d565b90611751565b611edd90610dfe565b611ece60246040518093630302e30360e41b6020830152611f078151809260208686019101610a7d565b8101036004810184520182610b7a565b611f2361100991610f4b565b60405190611f3082610b10565b80825280602083015260408201525b6110096029611f4e8351610dfe565b611f686040611f606020870151610dfe565b950151610dfe565b604051948592630e4cec4560e31b6020850152611f8f815180926020602488019101610a7d565b83019061016160f51b91826024820152611fb3825180936020602685019101610a7d565b01906026820152611fce825180936020602885019101610a7d565b01602960f81b6028820152036009810184520182610b7a56fea2646970667358221220d165bd896c07aec68223168d02b16b75091f6c54fe88c1bcdf4dbdd011bc535364736f6c63430008110033",
    "linkReferences": {}
  },
  "methodIdentifiers": {
    "averageWithWhite((uint256,uint256,uint256))": "919f9650",
    "constructImageURI(uint256)": "a929e684",
    "divideAndFormat(uint256,uint256,uint256)": "167feb30",
    "generateComponentTransfer(uint256,(uint256,uint256,uint256)[5])": "547fe360",
    "generateFrequency(uint256,bool)": "ed7ca60e",
    "generateOctaves(uint256,bool,uint256)": "a71a0bfd",
    "generateRandomColorPalette(uint256)": "385f81b0",
    "generateSVG(uint256)": "6dcee4ca",
    "generateScale(uint256,bool,uint256)": "63d265a1",
    "generateSpecularLighting(uint256,bool)": "b7eb3f75",
    "generateTriadicColors(uint256)": "ddede359",
    "randomMix((uint256,uint256,uint256),(uint256,uint256,uint256),(uint256,uint256,uint256),uint256)": "754f4dec"
  },
  "id": 28
}