{
  "abi": [
    {
      "inputs": [],
      "stateMutability": "nonpayable",
      "type": "constructor"
    },
    {
      "anonymous": false,
      "inputs": [
        {
          "indexed": true,
          "internalType": "address",
          "name": "owner",
          "type": "address"
        },
        {
          "indexed": true,
          "internalType": "address",
          "name": "approved",
          "type": "address"
        },
        {
          "indexed": true,
          "internalType": "uint256",
          "name": "tokenId",
          "type": "uint256"
        }
      ],
      "name": "Approval",
      "type": "event"
    },
    {
      "anonymous": false,
      "inputs": [
        {
          "indexed": true,
          "internalType": "address",
          "name": "owner",
          "type": "address"
        },
        {
          "indexed": true,
          "internalType": "address",
          "name": "operator",
          "type": "address"
        },
        {
          "indexed": false,
          "internalType": "bool",
          "name": "approved",
          "type": "bool"
        }
      ],
      "name": "ApprovalForAll",
      "type": "event"
    },
    {
      "anonymous": false,
      "inputs": [
        {
          "indexed": true,
          "internalType": "address",
          "name": "from",
          "type": "address"
        },
        {
          "indexed": true,
          "internalType": "address",
          "name": "to",
          "type": "address"
        },
        {
          "indexed": true,
          "internalType": "uint256",
          "name": "tokenId",
          "type": "uint256"
        }
      ],
      "name": "Transfer",
      "type": "event"
    },
    {
      "inputs": [],
      "name": "_tokenIds",
      "outputs": [
        {
          "internalType": "uint256",
          "name": "_value",
          "type": "uint256"
        }
      ],
      "stateMutability": "view",
      "type": "function"
    },
    {
      "inputs": [
        {
          "internalType": "address",
          "name": "to",
          "type": "address"
        },
        {
          "internalType": "uint256",
          "name": "tokenId",
          "type": "uint256"
        }
      ],
      "name": "approve",
      "outputs": [],
      "stateMutability": "nonpayable",
      "type": "function"
    },
    {
      "inputs": [
        {
          "internalType": "address",
          "name": "owner",
          "type": "address"
        }
      ],
      "name": "balanceOf",
      "outputs": [
        {
          "internalType": "uint256",
          "name": "",
          "type": "uint256"
        }
      ],
      "stateMutability": "view",
      "type": "function"
    },
    {
      "inputs": [
        {
          "internalType": "uint256",
          "name": "seed",
          "type": "uint256"
        }
      ],
      "name": "constructTokenURI",
      "outputs": [
        {
          "internalType": "string",
          "name": "",
          "type": "string"
        }
      ],
      "stateMutability": "view",
      "type": "function"
    },
    {
      "inputs": [
        {
          "internalType": "uint256",
          "name": "tokenId",
          "type": "uint256"
        }
      ],
      "name": "generateBackgroundColor",
      "outputs": [
        {
          "internalType": "string",
          "name": "",
          "type": "string"
        }
      ],
      "stateMutability": "view",
      "type": "function"
    },
    {
      "inputs": [
        {
          "internalType": "uint256",
          "name": "tokenId",
          "type": "uint256"
        }
      ],
      "name": "generateFilters",
      "outputs": [
        {
          "internalType": "string",
          "name": "",
          "type": "string"
        }
      ],
      "stateMutability": "view",
      "type": "function"
    },
    {
      "inputs": [
        {
          "internalType": "uint256",
          "name": "tokenId",
          "type": "uint256"
        }
      ],
      "name": "generateFrequency",
      "outputs": [
        {
          "internalType": "string",
          "name": "",
          "type": "string"
        }
      ],
      "stateMutability": "view",
      "type": "function"
    },
    {
      "inputs": [
        {
          "internalType": "uint256",
          "name": "tokenId",
          "type": "uint256"
        }
      ],
      "name": "generateLightingColor",
      "outputs": [
        {
          "internalType": "string",
          "name": "",
          "type": "string"
        }
      ],
      "stateMutability": "view",
      "type": "function"
    },
    {
      "inputs": [
        {
          "internalType": "uint256",
          "name": "tokenId",
          "type": "uint256"
        }
      ],
      "name": "generateOctaves",
      "outputs": [
        {
          "internalType": "string",
          "name": "",
          "type": "string"
        }
      ],
      "stateMutability": "view",
      "type": "function"
    },
    {
      "inputs": [
        {
          "internalType": "uint256",
          "name": "tokenId",
          "type": "uint256"
        }
      ],
      "name": "generateScale",
      "outputs": [
        {
          "internalType": "string",
          "name": "",
          "type": "string"
        }
      ],
      "stateMutability": "view",
      "type": "function"
    },
    {
      "inputs": [
        {
          "internalType": "uint256",
          "name": "tokenId",
          "type": "uint256"
        }
      ],
      "name": "generateStyles",
      "outputs": [
        {
          "internalType": "string",
          "name": "",
          "type": "string"
        }
      ],
      "stateMutability": "view",
      "type": "function"
    },
    {
      "inputs": [
        {
          "internalType": "uint256",
          "name": "tokenId",
          "type": "uint256"
        }
      ],
      "name": "generateTurbulenceType",
      "outputs": [
        {
          "internalType": "string",
          "name": "",
          "type": "string"
        }
      ],
      "stateMutability": "view",
      "type": "function"
    },
    {
      "inputs": [
        {
          "internalType": "uint256",
          "name": "tokenId",
          "type": "uint256"
        }
      ],
      "name": "getApproved",
      "outputs": [
        {
          "internalType": "address",
          "name": "",
          "type": "address"
        }
      ],
      "stateMutability": "view",
      "type": "function"
    },
    {
      "inputs": [
        {
          "internalType": "address",
          "name": "owner",
          "type": "address"
        },
        {
          "internalType": "address",
          "name": "operator",
          "type": "address"
        }
      ],
      "name": "isApprovedForAll",
      "outputs": [
        {
          "internalType": "bool",
          "name": "",
          "type": "bool"
        }
      ],
      "stateMutability": "view",
      "type": "function"
    },
    {
      "inputs": [
        {
          "internalType": "address",
          "name": "to",
          "type": "address"
        }
      ],
      "name": "mint",
      "outputs": [],
      "stateMutability": "nonpayable",
      "type": "function"
    },
    {
      "inputs": [],
      "name": "name",
      "outputs": [
        {
          "internalType": "string",
          "name": "",
          "type": "string"
        }
      ],
      "stateMutability": "view",
      "type": "function"
    },
    {
      "inputs": [],
      "name": "nextToken",
      "outputs": [
        {
          "internalType": "string",
          "name": "",
          "type": "string"
        }
      ],
      "stateMutability": "view",
      "type": "function"
    },
    {
      "inputs": [
        {
          "internalType": "uint256",
          "name": "tokenId",
          "type": "uint256"
        }
      ],
      "name": "ownerOf",
      "outputs": [
        {
          "internalType": "address",
          "name": "",
          "type": "address"
        }
      ],
      "stateMutability": "view",
      "type": "function"
    },
    {
      "inputs": [
        {
          "internalType": "uint256",
          "name": "_tokenId",
          "type": "uint256"
        }
      ],
      "name": "render",
      "outputs": [
        {
          "internalType": "string",
          "name": "",
          "type": "string"
        }
      ],
      "stateMutability": "view",
      "type": "function"
    },
    {
      "inputs": [
        {
          "internalType": "address",
          "name": "from",
          "type": "address"
        },
        {
          "internalType": "address",
          "name": "to",
          "type": "address"
        },
        {
          "internalType": "uint256",
          "name": "tokenId",
          "type": "uint256"
        }
      ],
      "name": "safeTransferFrom",
      "outputs": [],
      "stateMutability": "nonpayable",
      "type": "function"
    },
    {
      "inputs": [
        {
          "internalType": "address",
          "name": "from",
          "type": "address"
        },
        {
          "internalType": "address",
          "name": "to",
          "type": "address"
        },
        {
          "internalType": "uint256",
          "name": "tokenId",
          "type": "uint256"
        },
        {
          "internalType": "bytes",
          "name": "data",
          "type": "bytes"
        }
      ],
      "name": "safeTransferFrom",
      "outputs": [],
      "stateMutability": "nonpayable",
      "type": "function"
    },
    {
      "inputs": [
        {
          "internalType": "address",
          "name": "operator",
          "type": "address"
        },
        {
          "internalType": "bool",
          "name": "approved",
          "type": "bool"
        }
      ],
      "name": "setApprovalForAll",
      "outputs": [],
      "stateMutability": "nonpayable",
      "type": "function"
    },
    {
      "inputs": [
        {
          "internalType": "bytes4",
          "name": "interfaceId",
          "type": "bytes4"
        }
      ],
      "name": "supportsInterface",
      "outputs": [
        {
          "internalType": "bool",
          "name": "",
          "type": "bool"
        }
      ],
      "stateMutability": "view",
      "type": "function"
    },
    {
      "inputs": [],
      "name": "symbol",
      "outputs": [
        {
          "internalType": "string",
          "name": "",
          "type": "string"
        }
      ],
      "stateMutability": "view",
      "type": "function"
    },
    {
      "inputs": [
        {
          "internalType": "uint256",
          "name": "tokenId",
          "type": "uint256"
        }
      ],
      "name": "tokenURI",
      "outputs": [
        {
          "internalType": "string",
          "name": "",
          "type": "string"
        }
      ],
      "stateMutability": "view",
      "type": "function"
    },
    {
      "inputs": [
        {
          "internalType": "address",
          "name": "from",
          "type": "address"
        },
        {
          "internalType": "address",
          "name": "to",
          "type": "address"
        },
        {
          "internalType": "uint256",
          "name": "tokenId",
          "type": "uint256"
        }
      ],
      "name": "transferFrom",
      "outputs": [],
      "stateMutability": "nonpayable",
      "type": "function"
    }
  ],
  "bytecode": {
    "object": "0x60806040523480156200001157600080fd5b5060405180604001604052806006815260200165119bdcdcda5b60d21b815250604051806040016040528060068152602001651193d4d4d25360d21b81525081600090816200006191906200011e565b5060016200007082826200011e565b505050620001ea565b634e487b7160e01b600052604160045260246000fd5b600181811c90821680620000a457607f821691505b602082108103620000c557634e487b7160e01b600052602260045260246000fd5b50919050565b601f8211156200011957600081815260208120601f850160051c81016020861015620000f45750805b601f850160051c820191505b81811015620001155782815560010162000100565b5050505b505050565b81516001600160401b038111156200013a576200013a62000079565b62000152816200014b84546200008f565b84620000cb565b602080601f8311600181146200018a5760008415620001715750858301515b600019600386901b1c1916600185901b17855562000115565b600085815260208120601f198616915b82811015620001bb578886015182559484019460019091019084016200019a565b5085821015620001da5787850151600019600388901b60f8161c191681555b5050505050600190811b01905550565b61269e80620001fa6000396000f3fe608060405234801561001057600080fd5b506004361061018e5760003560e01c806383e96763116100de578063aa46a40011610097578063c29bdc6111610071578063c29bdc61146103a9578063c321118c146103bc578063c87b56dd146103cf578063e985e9c5146103e257600080fd5b8063aa46a40014610359578063b88d4fde14610363578063c16527251461037657600080fd5b806383e96763146102c9578063894b4c2e146102f75780639499ac541461030a57806395d89b411461032b57806398bc06f414610333578063a22cb4651461034657600080fd5b8063497d7a171161014b5780636a627842116101255780636a6278421461026f57806370a082311461028257806381c5644e146102a357806381ec55a4146102b657600080fd5b8063497d7a1714610236578063620ba6b8146102495780636352211e1461025c57600080fd5b806301ffc9a71461019357806306fdde03146101bb578063081812fc146101d0578063095ea7b3146101fb57806323b872dd1461021057806342842e0e14610223575b600080fd5b6101a66101a13660046114d5565b6103f5565b60405190151581526020015b60405180910390f35b6101c3610447565b6040516101b29190611542565b6101e36101de366004611555565b6104d9565b6040516001600160a01b0390911681526020016101b2565b61020e61020936600461158a565b610500565b005b61020e61021e3660046115b4565b61061a565b61020e6102313660046115b4565b61064b565b6101c3610244366004611555565b610666565b6101c3610257366004611555565b610689565b6101e361026a366004611555565b6106a0565b61020e61027d3660046115f0565b610700565b6102956102903660046115f0565b610741565b6040519081526020016101b2565b6101c36102b1366004611555565b6107c7565b6101c36102c4366004611555565b6107e6565b6101c36102d7366004611555565b50604080518082019091526005815264626c61636b60d81b602082015290565b6101c3610305366004611555565b61086a565b60408051808201909152600581526466616c736560d81b60208201526101c3565b6101c36108d9565b6101c3610341366004611555565b6108e8565b61020e61035436600461160b565b610968565b6006546102959081565b61020e61037136600461165d565b610973565b6101c3610384366004611555565b5060408051808201909152600a81526974757262756c656e636560b01b602082015290565b6101c36103b7366004611555565b6109ab565b6101c36103ca366004611555565b6109d0565b6101c36103dd366004611555565b6109f5565b6101a66103f0366004611739565b610a68565b60006001600160e01b031982166380ac58cd60e01b148061042657506001600160e01b03198216635b5e139f60e01b145b8061044157506301ffc9a760e01b6001600160e01b03198316145b92915050565b6060600080546104569061176c565b80601f01602080910402602001604051908101604052809291908181526020018280546104829061176c565b80156104cf5780601f106104a4576101008083540402835291602001916104cf565b820191906000526020600020905b8154815290600101906020018083116104b257829003601f168201915b5050505050905090565b60006104e482610a96565b506000908152600460205260409020546001600160a01b031690565b600061050b826106a0565b9050806001600160a01b0316836001600160a01b03160361057d5760405162461bcd60e51b815260206004820152602160248201527f4552433732313a20617070726f76616c20746f2063757272656e74206f776e656044820152603960f91b60648201526084015b60405180910390fd5b336001600160a01b038216148061059957506105998133610a68565b61060b5760405162461bcd60e51b815260206004820152603d60248201527f4552433732313a20617070726f76652063616c6c6572206973206e6f7420746f60448201527f6b656e206f776e6572206f7220617070726f76656420666f7220616c6c0000006064820152608401610574565b6106158383610af8565b505050565b6106243382610b66565b6106405760405162461bcd60e51b8152600401610574906117a6565b610615838383610bc4565b61061583838360405180602001604052806000815250610973565b606060006106776001600585610d35565b905061068281610d94565b9392505050565b606061044161069b6000605085610d35565b610d94565b6000818152600260205260408120546001600160a01b0316806104415760405162461bcd60e51b8152602060048201526018602482015277115490cdcc8c4e881a5b9d985b1a59081d1bdad95b88125160421b6044820152606401610574565b61070e600680546001019055565b600061071960065490565b905061072481610e27565b60008281526007602052604090205561073d8282610e71565b5050565b60006001600160a01b0382166107ab5760405162461bcd60e51b815260206004820152602960248201527f4552433732313a2061646472657373207a65726f206973206e6f7420612076616044820152683634b21037bbb732b960b91b6064820152608401610574565b506001600160a01b031660009081526003602052604090205490565b506040805180820190915260048152636772617960e01b602082015290565b60606107f1826108e8565b60408051808201909152600a81526974757262756c656e636560b01b602082015261081b84610666565b61082485610689565b604080518082019091526005815264626c61636b60d81b602082015260405160200161085495949392919061180f565b6040516020818303038152906040529050919050565b60606000610877836109d0565b905060006108ab6108878361100a565b6040516020016108979190612181565b60405160208183030381529060405261100a565b90506000816040516020016108c0919061222c565b60408051601f1981840301815291905295945050505050565b6060600180546104569061176c565b606060006108f96001603285610d35565b9050606060648210156109355761090f82610d94565b60405160200161091f9190612271565b6040516020818303038152906040529050610682565b600a8210156109575761094782610d94565b60405160200161091f919061229a565b61096082610d94565b949350505050565b61073d33838361115d565b61097d3383610b66565b6109995760405162461bcd60e51b8152600401610574906117a6565b6109a58484848461122b565b50505050565b60606109b6826107c7565b6109bf836107c7565b6040516020016108549291906122c4565b60606109db826107e6565b6109e4836109ab565b60405160200161085492919061237f565b6000818152600260205260409020546060906001600160a01b0316610a505760405162461bcd60e51b81526020600482015260116024820152702737b732bc34b9ba32b73a103a37b5b2b760791b6044820152606401610574565b6000828152600760205260409020546104419061086a565b6001600160a01b03918216600090815260056020908152604080832093909416825291909152205460ff1690565b6000818152600260205260409020546001600160a01b0316610af55760405162461bcd60e51b8152602060048201526018602482015277115490cdcc8c4e881a5b9d985b1a59081d1bdad95b88125160421b6044820152606401610574565b50565b600081815260046020526040902080546001600160a01b0319166001600160a01b0384169081179091558190610b2d826106a0565b6001600160a01b03167f8c5be1e5ebec7d5bd14f71427d1e84f3dd0314c0f7b2291e5b200ac8c7c3b92560405160405180910390a45050565b600080610b72836106a0565b9050806001600160a01b0316846001600160a01b03161480610b995750610b998185610a68565b806109605750836001600160a01b0316610bb2846104d9565b6001600160a01b031614949350505050565b826001600160a01b0316610bd7826106a0565b6001600160a01b031614610bfd5760405162461bcd60e51b8152600401610574906124a6565b6001600160a01b038216610c5f5760405162461bcd60e51b8152602060048201526024808201527f4552433732313a207472616e7366657220746f20746865207a65726f206164646044820152637265737360e01b6064820152608401610574565b610c6c838383600161125e565b826001600160a01b0316610c7f826106a0565b6001600160a01b031614610ca55760405162461bcd60e51b8152600401610574906124a6565b600081815260046020908152604080832080546001600160a01b03199081169091556001600160a01b0387811680865260038552838620805460001901905590871680865283862080546001019055868652600290945282852080549092168417909155905184937fddf252ad1be2c89b69c2b068fc378daa952ba7f163c4a11628f55a4df523b3ef91a4505050565b6000610d418484612501565b610d4c906001612514565b6040805160208101859052908101869052606081018590526080016040516020818303038152906040528051906020012060001c610d8a919061253d565b6109609085612514565b60606000610da1836112e6565b600101905060008167ffffffffffffffff811115610dc157610dc1611647565b6040519080825280601f01601f191660200182016040528015610deb576020820181803683370190505b5090508181016020015b600019016f181899199a1a9b1b9c1cb0b131b232b360811b600a86061a8153600a8504945084610df557509392505050565b60006005610e36600143612501565b610e409190612551565b6040805191406020830152810183905260600160408051601f19818403018152919052805160209091012092915050565b6001600160a01b038216610ec75760405162461bcd60e51b815260206004820181905260248201527f4552433732313a206d696e7420746f20746865207a65726f20616464726573736044820152606401610574565b6000818152600260205260409020546001600160a01b031615610f2c5760405162461bcd60e51b815260206004820152601c60248201527f4552433732313a20746f6b656e20616c7265616479206d696e746564000000006044820152606401610574565b610f3a60008383600161125e565b6000818152600260205260409020546001600160a01b031615610f9f5760405162461bcd60e51b815260206004820152601c60248201527f4552433732313a20746f6b656e20616c7265616479206d696e746564000000006044820152606401610574565b6001600160a01b038216600081815260036020908152604080832080546001019055848352600290915280822080546001600160a01b0319168417905551839291907fddf252ad1be2c89b69c2b068fc378daa952ba7f163c4a11628f55a4df523b3ef908290a45050565b6060815160000361102957505060408051602081019091526000815290565b600060405180606001604052806040815260200161262960409139905060006003845160026110589190612514565b6110629190612551565b61106d906004612565565b67ffffffffffffffff81111561108557611085611647565b6040519080825280601f01601f1916602001820160405280156110af576020820181803683370190505b509050600182016020820185865187015b8082101561111b576003820191508151603f8160121c168501518453600184019350603f81600c1c168501518453600184019350603f8160061c168501518453600184019350603f81168501518453506001830192506110c0565b5050600386510660018114611137576002811461114a57611152565b603d6001830353603d6002830353611152565b603d60018303535b509195945050505050565b816001600160a01b0316836001600160a01b0316036111be5760405162461bcd60e51b815260206004820152601960248201527f4552433732313a20617070726f766520746f2063616c6c6572000000000000006044820152606401610574565b6001600160a01b03838116600081815260056020908152604080832094871680845294825291829020805460ff191686151590811790915591519182527f17307eab39ab6107e8899845ad3d59bd9653f200f220920489ca2b5937696c31910160405180910390a3505050565b611236848484610bc4565b611242848484846113be565b6109a55760405162461bcd60e51b81526004016105749061257c565b60018111156109a5576001600160a01b038416156112a4576001600160a01b0384166000908152600360205260408120805483929061129e908490612501565b90915550505b6001600160a01b038316156109a5576001600160a01b038316600090815260036020526040812080548392906112db908490612514565b909155505050505050565b60008072184f03e93ff9f4daa797ed6e38ed64bf6a1f0160401b83106113255772184f03e93ff9f4daa797ed6e38ed64bf6a1f0160401b830492506040015b6d04ee2d6d415b85acef81000000008310611351576d04ee2d6d415b85acef8100000000830492506020015b662386f26fc10000831061136f57662386f26fc10000830492506010015b6305f5e1008310611387576305f5e100830492506008015b612710831061139b57612710830492506004015b606483106113ad576064830492506002015b600a83106104415760010192915050565b60006001600160a01b0384163b156114b457604051630a85bd0160e11b81526001600160a01b0385169063150b7a02906114029033908990889088906004016125ce565b6020604051808303816000875af192505050801561143d575060408051601f3d908101601f1916820190925261143a9181019061260b565b60015b61149a573d80801561146b576040519150601f19603f3d011682016040523d82523d6000602084013e611470565b606091505b5080516000036114925760405162461bcd60e51b81526004016105749061257c565b805181602001fd5b6001600160e01b031916630a85bd0160e11b149050610960565b506001949350505050565b6001600160e01b031981168114610af557600080fd5b6000602082840312156114e757600080fd5b8135610682816114bf565b60005b8381101561150d5781810151838201526020016114f5565b50506000910152565b6000815180845261152e8160208601602086016114f2565b601f01601f19169290920160200192915050565b6020815260006106826020830184611516565b60006020828403121561156757600080fd5b5035919050565b80356001600160a01b038116811461158557600080fd5b919050565b6000806040838503121561159d57600080fd5b6115a68361156e565b946020939093013593505050565b6000806000606084860312156115c957600080fd5b6115d28461156e565b92506115e06020850161156e565b9150604084013590509250925092565b60006020828403121561160257600080fd5b6106828261156e565b6000806040838503121561161e57600080fd5b6116278361156e565b91506020830135801515811461163c57600080fd5b809150509250929050565b634e487b7160e01b600052604160045260246000fd5b6000806000806080858703121561167357600080fd5b61167c8561156e565b935061168a6020860161156e565b925060408501359150606085013567ffffffffffffffff808211156116ae57600080fd5b818701915087601f8301126116c257600080fd5b8135818111156116d4576116d4611647565b604051601f8201601f19908116603f011681019083821181831017156116fc576116fc611647565b816040528281528a602084870101111561171557600080fd5b82602086016020830137600060208483010152809550505050505092959194509250565b6000806040838503121561174c57600080fd5b6117558361156e565b91506117636020840161156e565b90509250929050565b600181811c9082168061178057607f821691505b6020821081036117a057634e487b7160e01b600052602260045260246000fd5b50919050565b6020808252602d908201527f4552433732313a2063616c6c6572206973206e6f7420746f6b656e206f776e6560408201526c1c881bdc88185c1c1c9bdd9959609a1b606082015260800190565b600081516118058185602086016114f2565b9290920192915050565b7f3c66696c7465722069643d22637261636b65642d6c617661223e00000000000081527f3c6665476175737369616e426c757220726573756c743d22726573756c743022601a8201527f20696e3d22536f75726365477261706869632220737464446576696174696f6e603a8201527f3d22302e35222069643d226665476175737369616e426c757232333336222f3e605a8201526000607a82017f3c666554757262756c656e636520626173654672657175656e63793d22302e0081526118da601f8201896117f3565b6711103a3cb8329e9160c11b815290506118f760088201886117f3565b601160f91b815290507f2220736565643d2234383822206e756d4f6374617665733d22000000000000006001820152611be0611b82611ab4611a3f6119d96119d3611984611948601a89018e6117f3565b7f2220726573756c743d22726573756c7431222069643d22666554757262756c658152693731b29919999c11179f60b11b6020820152602a0190565b7f3c6665446973706c6163656d656e744d617020726573756c743d22726573756c81527f74352220784368616e6e656c53656c6563746f723d225222207363616c653d22602082015260400190565b8a6117f3565b7f2220696e323d22726573756c74312220696e3d22726573756c7431222079436881527f616e6e656c53656c6563746f723d2247222069643d226665446973706c61636560208201526d36b2b73a26b0b819199a1811179f60911b6040820152604e0190565b7f3c6665436f6d706f7369746520726573756c743d22726573756c743222206f7081527f657261746f723d22696e2220696e323d22726573756c74352220696e3d22726560208201527f73756c7430222069643d226665436f6d706f7369746532333432222f3e0000006040820152605d0190565b7f3c666553706563756c61724c69676874696e67206c69676874696e672d636f6c81527f6f723d2234643464346466662220737572666163655363616c653d223222207260208201527f6573756c743d22726573756c7434222073706563756c6172436f6e7374616e7460408201527f3d2232222073706563756c61724578706f6e656e743d2236352220696e3d227260608201527f6573756c7432222069643d22666553706563756c61724c69676874696e6732336080820152631a1b111f60e11b60a082015260a40190565b7f3c666544697374616e744c6967687420656c65766174696f6e3d22363222206181527f7a696d7574683d22323235222069643d22666544697374616e744c6967687432602082015265199a1a11179f60d11b604082015260460190565b741e17b332a9b832b1bab630b92634b3b43a34b7339f60591b81527f3c6665436f6d706f73697465206b313d22322e3522206b333d223122206b323d60158201527f222d302e352220696e323d22726573756c74322220696e3d22726573756c743460358201527f22206f70657261746f723d2261726974686d657469632220726573756c743d2260558201527f726573756c743931222069643d226665436f6d706f7369746532333438222f3e60758201527f3c6665426c656e6420726573756c743d226662536f757263654772617068696360958201527f22206d6f64653d226d756c7469706c792220696e323d22726573756c7439312260b5820152721034b21e913332a13632b73219199a9811179f60691b60d58201527f3c6665436f6c6f724d61747269782076616c7565733d223120302030202d312060e88201527f30203120302031202d312030203120302030202d312030202d32202d302e35206101088201527f302035202d322220696e3d226662536f757263654772617068696322207265736101288201527f756c743d226662536f7572636547726170686963416c706861222069643d22666101488201527232a1b7b637b926b0ba3934bc19199a9911179f60691b6101688201527f3c6665476175737369616e426c757220737464446576696174696f6e3d22382261017b8201527f20696e3d226662536f7572636547726170686963416c7068612220726573756c61019b8201527f743d22726573756c7430222069643d226665476175737369616e426c757232336101bb820152641a9a11179f60d91b6101db8201527f3c66654f66667365742064783d2232222064793d22322220696e3d22726573756101e08201527f6c74302220726573756c743d22726573756c7433222069643d2266654f6666736102008201526832ba19199a9b11179f60b91b6102208201527f3c666553706563756c61724c69676874696e6720696e3d22726573756c7430226102298201527f20726573756c743d22726573756c743122206c69676874696e672d636f6c6f72610249820152611e9160f11b6102698201529050611fd9611f7d611f0861026b8401876117f3565b7f2220737572666163655363616c653d2234222073706563756c6172436f6e737481527f616e743d22302e38222073706563756c61724578706f6e656e743d223135222060208201527f69643d22666553706563756c61724c69676874696e6732333630223e000000006040820152605c0190565b7f3c6665506f696e744c6967687420783d222d353030302220793d222d3130303081527f3022207a3d223230303030222069643d226665506f696e744c696768743233356020820152631c11179f60e11b604082015260440190565b741e17b332a9b832b1bab630b92634b3b43a34b7339f60591b81527f3c6665436f6d706f7369746520696e323d226662536f7572636547726170686960158201527f63416c7068612220696e3d22726573756c74312220726573756c743d2272657360358201527f756c743222206f70657261746f723d22696e222069643d226665436f6d706f7360558201526934ba3299199b1911179f60b11b60758201527f3c6665436f6d706f7369746520696e3d226662536f7572636547726170686963607f8201527f2220726573756c743d22726573756c743422206f70657261746f723d22617269609f8201527f74686d6574696322206b323d223222206b333d22322220696e323d227265737560bf8201527f6c7432222069643d226665436f6d706f7369746532333634222f3e000000000060df8201527f3c6665426c656e64206d6f64653d226461726b656e2220696e323d227265737560fa8201527f6c7434222069643d226665426c656e6432333636222f3e00000000000000000061011a820152681e17b334b63a32b91f60b91b61013182015261013a0198975050505050505050565b717b226e616d65223a2022466f7373696c202360701b815261088b60f21b60128201527f226465736372697074696f6e223a202247656e6572617469766520617274000060148201527f22696d616765223a2022646174613a696d6167652f7376672b786d6c3b626173603282015263194d8d0b60e21b605282015281516000906122138160568501602087016114f2565b61227d60f01b6056939091019283015250605801919050565b7f646174613a6170706c69636174696f6e2f6a736f6e3b6261736536342c00000081526000825161226481601d8501602087016114f2565b91909101601d0192915050565b600360fc1b81526000825161228d8160018501602087016114f2565b9190910160010192915050565b61030360f41b8152600082516122b78160028501602087016114f2565b9190910160020192915050565b661e39ba3cb6329f60c91b81526e0173932b1ba18103d903334b6361d1608d1b6007820152600083516122fe8160168501602088016114f2565b61207d60f01b6016918401918201526e0173932b1ba18903d903334b6361d1608d1b601882015283516123388160278401602088016114f2565b7f3b2066696c7465723a2075726c2823637261636b65642d6c61766129207d000060279290910191820152671e17b9ba3cb6329f60c11b6045820152604d01949350505050565b7f3c73766720786d6c6e733d22687474703a2f2f7777772e77332e6f72672f323081527f30302f737667222077696474683d2235303022206865696768743d22353030226020820152601f60f91b6040820152651e3232b3399f60d11b6041820152600083516123f68160478501602088016114f2565b661e17b232b3399f60c91b604791840191820152835161241d81604e8401602088016114f2565b7f3c7265637420636c6173733d227265637430222077696474683d2235303022209101604e8101919091526d3432b4b3b43a1e911a981811179f60911b606e82018190527f3c7265637420636c6173733d227265637431222077696474683d223530302220607c830152609c820152651e17b9bb339f60d11b60aa82015260b001949350505050565b60208082526025908201527f4552433732313a207472616e736665722066726f6d20696e636f72726563742060408201526437bbb732b960d91b606082015260800190565b634e487b7160e01b600052601160045260246000fd5b81810381811115610441576104416124eb565b80820180821115610441576104416124eb565b634e487b7160e01b600052601260045260246000fd5b60008261254c5761254c612527565b500690565b60008261256057612560612527565b500490565b8082028115828204841417610441576104416124eb565b60208082526032908201527f4552433732313a207472616e7366657220746f206e6f6e20455243373231526560408201527131b2b4bb32b91034b6b83632b6b2b73a32b960711b606082015260800190565b6001600160a01b038581168252841660208201526040810183905260806060820181905260009061260190830184611516565b9695505050505050565b60006020828403121561261d57600080fd5b8151610682816114bf56fe4142434445464748494a4b4c4d4e4f505152535455565758595a6162636465666768696a6b6c6d6e6f707172737475767778797a303132333435363738392b2fa26469706673582212208040c988f3b35c1eb425b605294a7920867b686c53abc6a777a01d1c0f4c5c1764736f6c63430008110033",
    "linkReferences": {}
  },
  "methodIdentifiers": {
    "_tokenIds()": "aa46a400",
    "approve(address,uint256)": "095ea7b3",
    "balanceOf(address)": "70a08231",
    "constructTokenURI(uint256)": "894b4c2e",
    "generateBackgroundColor(uint256)": "81c5644e",
    "generateFilters(uint256)": "81ec55a4",
    "generateFrequency(uint256)": "98bc06f4",
    "generateLightingColor(uint256)": "83e96763",
    "generateOctaves(uint256)": "497d7a17",
    "generateScale(uint256)": "620ba6b8",
    "generateStyles(uint256)": "c29bdc61",
    "generateTurbulenceType(uint256)": "c1652725",
    "getApproved(uint256)": "081812fc",
    "isApprovedForAll(address,address)": "e985e9c5",
    "mint(address)": "6a627842",
    "name()": "06fdde03",
    "nextToken()": "9499ac54",
    "ownerOf(uint256)": "6352211e",
    "render(uint256)": "c321118c",
    "safeTransferFrom(address,address,uint256)": "42842e0e",
    "safeTransferFrom(address,address,uint256,bytes)": "b88d4fde",
    "setApprovalForAll(address,bool)": "a22cb465",
    "supportsInterface(bytes4)": "01ffc9a7",
    "symbol()": "95d89b41",
    "tokenURI(uint256)": "c87b56dd",
    "transferFrom(address,address,uint256)": "23b872dd"
  },
  "id": 28
}