{
  "abi": [
    {
      "inputs": [
        {
          "internalType": "uint256",
          "name": "seed",
          "type": "uint256"
        }
      ],
      "name": "constructImageURI",
      "outputs": [
        {
          "internalType": "string",
          "name": "",
          "type": "string"
        }
      ],
      "stateMutability": "view",
      "type": "function"
    },
    {
      "inputs": [
        {
          "internalType": "uint256",
          "name": "tokenId",
          "type": "uint256"
        }
      ],
      "name": "generateFrequency",
      "outputs": [
        {
          "internalType": "string",
          "name": "",
          "type": "string"
        }
      ],
      "stateMutability": "view",
      "type": "function"
    },
    {
      "inputs": [
        {
          "internalType": "uint256",
          "name": "tokenId",
          "type": "uint256"
        },
        {
          "internalType": "bool",
          "name": "turbulenceType",
          "type": "bool"
        }
      ],
      "name": "generateOctaves",
      "outputs": [
        {
          "internalType": "string",
          "name": "",
          "type": "string"
        }
      ],
      "stateMutability": "view",
      "type": "function"
    },
    {
      "inputs": [
        {
          "internalType": "uint256",
          "name": "seed",
          "type": "uint256"
        }
      ],
      "name": "generateSVG",
      "outputs": [
        {
          "internalType": "string",
          "name": "",
          "type": "string"
        }
      ],
      "stateMutability": "view",
      "type": "function"
    },
    {
      "inputs": [
        {
          "internalType": "uint256",
          "name": "tokenId",
          "type": "uint256"
        },
        {
          "internalType": "bool",
          "name": "turbulenceType",
          "type": "bool"
        }
      ],
      "name": "generateScale",
      "outputs": [
        {
          "internalType": "string",
          "name": "",
          "type": "string"
        }
      ],
      "stateMutability": "view",
      "type": "function"
    }
  ],
  "bytecode": {
    "object": "0x608060405234801561001057600080fd5b506111f0806100206000396000f3fe608060405234801561001057600080fd5b50600436106100575760003560e01c80635c6b358c1461005c5780636dcee4ca1461008557806398bc06f414610098578063a929e684146100ab578063ec851e24146100be575b600080fd5b61006f61006a3660046108bf565b6100d1565b60405161007c9190610944565b60405180910390f35b61006f610093366004610957565b61010e565b61006f6100a6366004610957565b6102c3565b61006f6100b9366004610957565b610345565b61006f6100cc3660046108bf565b6103c5565b606081156100f5576100ee6100e9600a6064866103d3565b610432565b9050610108565b6101056100e960006050866103d3565b90505b92915050565b6060600061011b836104c5565b905061014e6040518060400160405280600f81526020016e3130b1b5b3b937bab73221b7b637b960891b81525082610506565b600061015b600285610986565b15905060008161018d576040518060400160405280600a81526020016974757262756c656e636560b01b8152506101b3565b6040518060400160405280600c81526020016b6672616374616c4e6f69736560a01b8152505b905060006101c0866102c3565b905060006101ce87856100d1565b905060006101dc88866103c5565b905061020e6040518060400160405280600e81526020016d3a3ab9313632b731b2aa3cb8329d60911b81525085610506565b61023a6040518060400160405280600a815260200169333932b8bab2b731bc9d60b11b81525084610506565b6102626040518060400160405280600681526020016539b1b0b6329d60d11b81525083610506565b61028c6040518060400160405280600881526020016737b1ba30bb32b99d60c11b81525082610506565b82848284898a6040516020016102a7969594939291906109b6565b6040516020818303038152906040529650505050505050919050565b606060006102d4601e6063856103d3565b905060606064821015610310576102ea82610432565b6040516020016102fa9190610fee565b604051602081830303815290604052905061033e565b600a8210156103325761032282610432565b6040516020016102fa9190611017565b61033b82610432565b90505b9392505050565b606060006103528361010e565b905061035d8161054f565b600061036882610595565b905060008160405160200161037d9190611041565b60408051601f198184030181528282019091526015825274656e6420636f6e737472756374496d61676555524960581b602083015291506103bd9061054f565b949350505050565b60606101056100e960016003865b60006103df848461109c565b6103ea9060016110af565b6040805160208101859052908101869052606081018590526080016040516020818303038152906040528051906020012060001c6104289190610986565b61033b90856110af565b6060600061043f836106e8565b600101905060008167ffffffffffffffff81111561045f5761045f6110c2565b6040519080825280601f01601f191660200182016040528015610489576020820181803683370190505b5090508181016020015b600019016f181899199a1a9b1b9c1cb0b131b232b360811b600a86061a8153600a850494508461049357509392505050565b60606104e06104d9600062ffffff856103d3565b60036107c0565b6040516020016104f091906110d8565b6040516020818303038152906040529050919050565b61054b828260405160240161051c9291906110f4565b60408051601f198184030181529190526020810180516001600160e01b0316634b5c427760e01b17905261089e565b5050565b610592816040516024016105639190610944565b60408051601f198184030181529190526020810180516001600160e01b031663104c13eb60e21b17905261089e565b50565b606081516000036105b457505060408051602081019091526000815290565b600060405180606001604052806040815260200161117b60409139905060006003845160026105e391906110af565b6105ed9190611122565b6105f8906004611136565b67ffffffffffffffff811115610610576106106110c2565b6040519080825280601f01601f19166020018201604052801561063a576020820181803683370190505b509050600182016020820185865187015b808210156106a6576003820191508151603f8160121c168501518453600184019350603f81600c1c168501518453600184019350603f8160061c168501518453600184019350603f811685015184535060018301925061064b565b50506003865106600181146106c257600281146106d5576106dd565b603d6001830353603d60028303536106dd565b603d60018303535b509195945050505050565b60008072184f03e93ff9f4daa797ed6e38ed64bf6a1f0160401b83106107275772184f03e93ff9f4daa797ed6e38ed64bf6a1f0160401b830492506040015b6d04ee2d6d415b85acef81000000008310610753576d04ee2d6d415b85acef8100000000830492506020015b662386f26fc10000831061077157662386f26fc10000830492506010015b6305f5e1008310610789576305f5e100830492506008015b612710831061079d57612710830492506004015b606483106107af576064830492506002015b600a83106101085760010192915050565b606060006107cf836002611136565b67ffffffffffffffff8111156107e7576107e76110c2565b6040519080825280601f01601f191660200182016040528015610811576020820181803683370190505b5080519091505b8015610896576f181899199a1a9b1b9c1cb0b131b232b360811b85600f16601081106108465761084661114d565b1a60f81b8261085660018461109c565b815181106108665761086661114d565b60200101906001600160f81b031916908160001a90535060049490941c938061088e81611163565b915050610818565b509392505050565b80516a636f6e736f6c652e6c6f67602083016000808483855afa5050505050565b600080604083850312156108d257600080fd5b82359150602083013580151581146108e957600080fd5b809150509250929050565b60005b8381101561090f5781810151838201526020016108f7565b50506000910152565b600081518084526109308160208601602086016108f4565b601f01601f19169290920160200192915050565b6020815260006101056020830184610918565b60006020828403121561096957600080fd5b5035919050565b634e487b7160e01b600052601260045260246000fd5b60008261099557610995610970565b500690565b600081516109ac8185602086016108f4565b9290920192915050565b7f3c7376672077696474683d2235303022206865696768743d223530302220766581527f7273696f6e3d22312e31222076696577426f783d22302030203530302035303060208201527f2220786d6c6e733d22687474703a2f2f7777772e77332e6f72672f323030302f60408201526439bb33911f60d91b6060820152651e3232b3399f60d11b60658201527f3c66696c7465722069643d22637261636b65642d6c617661223e000000000000606b8201527f3c6665466c6f6f6420666c6f6f642d636f6c6f723d226772617922207265737560858201526a363a1e9139189a9110179f60a91b60a58201527f3c666554757262756c656e636520626173654672657175656e63793d22302e0060b08201908152600090610ada60cf84018a61099a565b6711103a3cb8329e9160c11b81529050610af7600882018961099a565b6d1110373ab6a7b1ba30bb32b99e9160911b81529050610b1a600e82018861099a565b6f11103932b9bab63a1e9139189110179f60811b815290507f3c6665446973706c6163656d656e744d617020726573756c743d22723522207860108201527f4368616e6e656c53656c6563746f723d22522220696e323d2272312220696e3d60308201527f2272312220794368616e6e656c53656c6563746f723d224722207363616c653d6050820152601160f91b6070820152610bbb607182018761099a565b7f223e203c2f6665446973706c6163656d656e744d61703e00000000000000000081527f3c6665436f6d706f7369746520726573756c743d22723222206f70657261746f60178201527f723d22696e2220696e3d227231352220696e323d22723522202f3e000000000060378201527f3c666553706563756c61724c69676874696e67206c69676874696e672d636f6c60528201527f6f723d22236666666666662220737572666163655363616c653d222d332e313060728201527f3133313132312220726573756c743d227234222073706563756c6172436f6e7360928201527f74616e743d22322e3133373038343235222073706563756c61724578706f6e6560b28201527f6e743d2231352e31393735333435362220696e3d227232223e203c666544697360d28201527f74616e744c6967687420656c65766174696f6e3d2236302220617a696d75746860f28201527f3d2230223e203c2f666544697374616e744c696768743e203c2f6665537065636101128201526c3ab630b92634b3b43a34b7339f60991b6101328201527f3c6665436f6d706f73697465206b313d22302e3338373430393222206b333d2261013f8201527f3122206b323d222d302e352220696e323d2272322220696e3d22723422206f7061015f8201527f657261746f723d2261726974686d657469632220726573756c743d227239312261017f8201526910359a1e91181110179f60b11b61019f8201527f3c6665436f6d706f7369746520696e3d227239312220726573756c743d2272346101a98201527f22206f70657261746f723d2261726974686d6574696322206b323d223222206b6101c98201527f333d22332e393737393433342220696e323d2272393122206b313d223022206b6101e9820152711a1e911698171a9b98991b9b991a1110179f60711b6102098201527f3c6665466c6f6f6420726573756c743d22726573756c74322220666c6f6f642d61021b8201526631b7b637b91e9160c91b61023b8201529050610eae61024282018661099a565b751110333637b7b216b7b830b1b4ba3c9e91189110179f60511b81527f3c6665436f6d706f7369746520696e323d22726573756c74322220696e3d22726016820152741a111037b832b930ba37b91e9137bb32b91110179f60591b6036820152681e17b334b63a32b91f60b91b604b8201908152661e17b232b3399f60c91b60548301527f3c726563742077696474683d2235303022206865696768743d22353030222066605b8301527f696c7465723d2275726c2823637261636b65642d6c6176612922202f3e000000607b8301527f3c726563742077696474683d22353022206865696768743d2235302220783d226098830152681811103334b6361e9160b91b60b88301529150610fc59060c1018561099a565b631110179f60e11b8152651e17b9bb339f60d11b6004820152600a019998505050505050505050565b600360fc1b81526000825161100a8160018501602087016108f4565b9190910160010192915050565b61030360f41b8152600082516110348160028501602087016108f4565b9190910160020192915050565b7f646174613a696d6167652f7376672b786d6c3b6261736536342c00000000000081526000825161107981601a8501602087016108f4565b91909101601a0192915050565b634e487b7160e01b600052601160045260246000fd5b8181038181111561010857610108611086565b8082018082111561010857610108611086565b634e487b7160e01b600052604160045260246000fd5b602360f81b81526000825161100a8160018501602087016108f4565b6040815260006111076040830185610918565b82810360208401526111198185610918565b95945050505050565b60008261113157611131610970565b500490565b808202811582820484141761010857610108611086565b634e487b7160e01b600052603260045260246000fd5b60008161117257611172611086565b50600019019056fe4142434445464748494a4b4c4d4e4f505152535455565758595a6162636465666768696a6b6c6d6e6f707172737475767778797a303132333435363738392b2fa26469706673582212203a8f15666c0c1e5c0b21256972b962813236b8a82d14f7cb8aad208f6efc7d8c64736f6c63430008110033",
    "linkReferences": {}
  },
  "methodIdentifiers": {
    "constructImageURI(uint256)": "a929e684",
    "generateFrequency(uint256)": "98bc06f4",
    "generateOctaves(uint256,bool)": "ec851e24",
    "generateSVG(uint256)": "6dcee4ca",
    "generateScale(uint256,bool)": "5c6b358c"
  },
  "id": 28
}