{
  "abi": [
    {
      "inputs": [
        {
          "internalType": "uint256",
          "name": "seed",
          "type": "uint256"
        }
      ],
      "name": "constructImageURI",
      "outputs": [
        {
          "internalType": "string",
          "name": "",
          "type": "string"
        }
      ],
      "stateMutability": "view",
      "type": "function"
    },
    {
      "inputs": [
        {
          "internalType": "uint256",
          "name": "random",
          "type": "uint256"
        }
      ],
      "name": "example",
      "outputs": [
        {
          "internalType": "string",
          "name": "",
          "type": "string"
        }
      ],
      "stateMutability": "view",
      "type": "function"
    },
    {
      "inputs": [
        {
          "internalType": "uint256",
          "name": "tokenId",
          "type": "uint256"
        }
      ],
      "name": "generateBackgroundColor",
      "outputs": [
        {
          "internalType": "string",
          "name": "",
          "type": "string"
        }
      ],
      "stateMutability": "view",
      "type": "function"
    },
    {
      "inputs": [
        {
          "internalType": "uint256",
          "name": "tokenId",
          "type": "uint256"
        },
        {
          "internalType": "string",
          "name": "lightingColor",
          "type": "string"
        }
      ],
      "name": "generateFilters",
      "outputs": [
        {
          "internalType": "string",
          "name": "",
          "type": "string"
        }
      ],
      "stateMutability": "view",
      "type": "function"
    },
    {
      "inputs": [
        {
          "internalType": "uint256",
          "name": "tokenId",
          "type": "uint256"
        }
      ],
      "name": "generateFrequency",
      "outputs": [
        {
          "internalType": "string",
          "name": "",
          "type": "string"
        }
      ],
      "stateMutability": "view",
      "type": "function"
    },
    {
      "inputs": [
        {
          "internalType": "uint256",
          "name": "tokenId",
          "type": "uint256"
        }
      ],
      "name": "generateLightingColor",
      "outputs": [
        {
          "internalType": "string",
          "name": "",
          "type": "string"
        }
      ],
      "stateMutability": "view",
      "type": "function"
    },
    {
      "inputs": [
        {
          "internalType": "uint256",
          "name": "tokenId",
          "type": "uint256"
        }
      ],
      "name": "generateOctaves",
      "outputs": [
        {
          "internalType": "string",
          "name": "",
          "type": "string"
        }
      ],
      "stateMutability": "view",
      "type": "function"
    },
    {
      "inputs": [
        {
          "internalType": "uint256",
          "name": "tokenId",
          "type": "uint256"
        }
      ],
      "name": "generateScale",
      "outputs": [
        {
          "internalType": "string",
          "name": "",
          "type": "string"
        }
      ],
      "stateMutability": "view",
      "type": "function"
    },
    {
      "inputs": [
        {
          "internalType": "uint256",
          "name": "tokenId",
          "type": "uint256"
        },
        {
          "internalType": "string",
          "name": "backgroundColor",
          "type": "string"
        },
        {
          "internalType": "string",
          "name": "color",
          "type": "string"
        }
      ],
      "name": "generateStyles",
      "outputs": [
        {
          "internalType": "string",
          "name": "",
          "type": "string"
        }
      ],
      "stateMutability": "view",
      "type": "function"
    },
    {
      "inputs": [
        {
          "internalType": "uint256",
          "name": "tokenId",
          "type": "uint256"
        }
      ],
      "name": "generateTurbulenceType",
      "outputs": [
        {
          "internalType": "string",
          "name": "",
          "type": "string"
        }
      ],
      "stateMutability": "view",
      "type": "function"
    },
    {
      "inputs": [
        {
          "internalType": "uint256",
          "name": "_tokenId",
          "type": "uint256"
        }
      ],
      "name": "render",
      "outputs": [
        {
          "internalType": "string",
          "name": "",
          "type": "string"
        }
      ],
      "stateMutability": "view",
      "type": "function"
    }
  ],
  "bytecode": {
    "object": "0x608060405234801561001057600080fd5b50611771806100206000396000f3fe608060405234801561001057600080fd5b50600436106100a95760003560e01c806383e967631161007157806383e9676314610123578063870794f71461013657806398bc06f414610149578063a929e6841461015c578063c16527251461016f578063c321118c146101a457600080fd5b806307ecf2ae146100ae578063477e4a02146100d7578063497d7a17146100ea578063620ba6b8146100fd57806381c5644e14610110575b600080fd5b6100c16100bc366004610a3a565b6101b7565b6040516100ce9190610acb565b60405180910390f35b6100c16100e5366004610afe565b6101e4565b6100c16100f8366004610afe565b6101f5565b6100c161010b366004610afe565b610218565b6100c161011e366004610afe565b61022f565b6100c1610131366004610afe565b610274565b6100c1610144366004610b17565b610295565b6100c1610157366004610afe565b610301565b6100c161016a366004610afe565b610381565b6100c161017d366004610afe565b5060408051808201909152600c81526b113a3ab9313ab632b731b29160a11b602082015290565b6100c16101b2366004610afe565b610437565b606082826040516020016101cc929190610b7a565b60405160208183030381529060405290509392505050565b60606101ef82610437565b92915050565b6060600061020660016005856104d3565b905061021181610532565b9392505050565b60606101ef61022a60006050856104d3565b610532565b60606000826000604051602001610250929190918252602082015260400190565b6040516020818303038152906040528051906020012060001c9050610211816105c5565b60606000826001604051602001610250929190918252602082015260400190565b60606102a083610301565b60408051808201909152600c81526b113a3ab9313ab632b731b29160a11b60208201526102cc856101f5565b6102d586610218565b856040516020016102ea959493929190610c35565b604051602081830303815290604052905092915050565b6060600061031260016032856104d3565b90506060606482101561034e5761032882610532565b604051602001610338919061130f565b6040516020818303038152906040529050610211565b600a8210156103705761036082610532565b6040516020016103389190611338565b61037982610532565b949350505050565b60606103c16040518060400160405280601781526020017f737461727420636f6e737472756374496d616765555249000000000000000000815250610606565b60006103cc83610437565b90506103d781610606565b60006103e28261064c565b90506000816040516020016103f79190611362565b60408051601f198184030181528282019091526015825274656e6420636f6e737472756374496d61676555524960581b6020830152915061037990610606565b606060006104448361022f565b905060006104518461079f565b9050600061045e85610274565b9050600061046d8685856101b7565b60408051808201909152600381526203530360ec1b602082015290915080806104968986610295565b84848586878c8c8c6040516020016104b89b9a999897969594939291906113a7565b60405160208183030381529060405295505050505050919050565b60006104df8484611637565b6104ea90600161164a565b6040805160208101859052908101869052606081018590526080016040516020818303038152906040528051906020012060001c6105289190611673565b610379908561164a565b6060600061053f836107c0565b600101905060008167ffffffffffffffff81111561055f5761055f610997565b6040519080825280601f01601f191660200182016040528015610589576020820181803683370190505b5090508181016020015b600019016f181899199a1a9b1b9c1cb0b131b232b360811b600a86061a8153600a850494508461059357509392505050565b60606105e06105d9600062ffffff856104d3565b6003610898565b6040516020016105f09190611687565b6040516020818303038152906040529050919050565b6106498160405160240161061a9190610acb565b60408051601f198184030181529190526020810180516001600160e01b031663104c13eb60e21b179052610976565b50565b6060815160000361066b57505060408051602081019091526000815290565b60006040518060600160405280604081526020016116fc604091399050600060038451600261069a919061164a565b6106a491906116a3565b6106af9060046116b7565b67ffffffffffffffff8111156106c7576106c7610997565b6040519080825280601f01601f1916602001820160405280156106f1576020820181803683370190505b509050600182016020820185865187015b8082101561075d576003820191508151603f8160121c168501518453600184019350603f81600c1c168501518453600184019350603f8160061c168501518453600184019350603f8116850151845350600183019250610702565b5050600386510660018114610779576002811461078c57610794565b603d6001830353603d6002830353610794565b603d60018303535b509195945050505050565b60606000826002604051602001610250929190918252602082015260400190565b60008072184f03e93ff9f4daa797ed6e38ed64bf6a1f0160401b83106107ff5772184f03e93ff9f4daa797ed6e38ed64bf6a1f0160401b830492506040015b6d04ee2d6d415b85acef8100000000831061082b576d04ee2d6d415b85acef8100000000830492506020015b662386f26fc10000831061084957662386f26fc10000830492506010015b6305f5e1008310610861576305f5e100830492506008015b612710831061087557612710830492506004015b60648310610887576064830492506002015b600a83106101ef5760010192915050565b606060006108a78360026116b7565b67ffffffffffffffff8111156108bf576108bf610997565b6040519080825280601f01601f1916602001820160405280156108e9576020820181803683370190505b5080519091505b801561096e576f181899199a1a9b1b9c1cb0b131b232b360811b85600f166010811061091e5761091e6116ce565b1a60f81b8261092e600184611637565b8151811061093e5761093e6116ce565b60200101906001600160f81b031916908160001a90535060049490941c9380610966816116e4565b9150506108f0565b509392505050565b80516a636f6e736f6c652e6c6f67602083016000808483855afa5050505050565b634e487b7160e01b600052604160045260246000fd5b600082601f8301126109be57600080fd5b813567ffffffffffffffff808211156109d9576109d9610997565b604051601f8301601f19908116603f01168101908282118183101715610a0157610a01610997565b81604052838152866020858801011115610a1a57600080fd5b836020870160208301376000602085830101528094505050505092915050565b600080600060608486031215610a4f57600080fd5b83359250602084013567ffffffffffffffff80821115610a6e57600080fd5b610a7a878388016109ad565b93506040860135915080821115610a9057600080fd5b50610a9d868287016109ad565b9150509250925092565b60005b83811015610ac2578181015183820152602001610aaa565b50506000910152565b6020815260008251806020840152610aea816040850160208701610aa7565b601f01601f19169190910160400192915050565b600060208284031215610b1057600080fd5b5035919050565b60008060408385031215610b2a57600080fd5b82359150602083013567ffffffffffffffff811115610b4857600080fd5b610b54858286016109ad565b9150509250929050565b60008151610b70818560208601610aa7565b9290920192915050565b661e39ba3cb6329f60c91b81526e0173932b1ba18103d903334b6361d1608d1b600782015260008351610bb4816016850160208801610aa7565b61207d60f01b6016918401918201526e0173932b1ba18903d903334b6361d1608d1b60188201528351610bee816027840160208801610aa7565b7f3b2066696c7465723a2075726c2823637261636b65642d6c61766129207d000060279290910191820152671e17b9ba3cb6329f60c11b6045820152604d01949350505050565b7f3c66696c7465722069643d22637261636b65642d6c617661223e00000000000081527f3c666554757262756c656e636520626173654672657175656e63793d22302e00601a8201526000610c8d6039830188610b5e565b662220747970653d60c81b8152610ca76007820188610b5e565b6c10373ab6a7b1ba30bb32b99e9160991b81529050610de9610de3610d81610d0c610cd5600d86018b610b5e565b7f2220726573756c743d227231222069643d22666554757262756c656e63653233815264199c11179f60d91b602082015260250190565b7f3c6665446973706c6163656d656e744d617020726573756c743d22723522207881527f4368616e6e656c53656c6563746f723d22522220696e323d2272312220696e3d60208201527f2272312220794368616e6e656c53656c6563746f723d2247223e0000000000006040820152605a0190565b7f3c616e696d617465206174747269627574654e616d653d227363616c6522206481527f75723d223130732220726570656174436f756e743d22696e646566696e69746560208201526911103b30b63ab2b99e9160b11b6040820152604a0190565b86610b5e565b661d981d9110179f60c91b8152731e17b332a234b9b83630b1b2b6b2b73a26b0b81f60611b60078201527f3c6665436f6d706f7369746520726573756c743d22723222206f70657261746f601b8201527f723d22696e2220696e323d2272352220696e3d22536f75726365477261706869603b820152633191179f60e11b605b8201527f3c666553706563756c61724c69676874696e67206c69676874696e672d636f6c605f8201527f6f723d2277686974652220737572666163655363616c653d2232222072657375607f8201527f6c743d227234222073706563756c6172436f6e7374616e743d22322220737065609f8201527f63756c61724578706f6e656e743d2236352220696e3d227232223e000000000060bf8201527f3c666544697374616e744c6967687420656c65766174696f6e3d22363022206160da8201526a3d34b6baba341e9118111f60a91b60fa8201527f3c616e696d617465206174747269627574654e616d653d22617a696d757468226101058201527f2076616c7565733d22303b3336303b22206475723d2231307322207265706561610125820152743a21b7bab73a1e9134b73232b334b734ba3291179f60591b610145820152905061015a8101701e17b332a234b9ba30b73a2634b3b43a1f60791b81527f3c2f666553706563756c61724c69676874696e673e3c6665436f6d706f73697460118201527f65206b313d22322e3522206b333d223122206b323d222d302e352220696e323d60318201527f2272322220696e3d22723422206f70657261746f723d2261726974686d6574696051820152703191103932b9bab63a1e91391c9891179f60791b60718201527f3c6665426c656e6420726573756c743d226662536f757263654772617068696360828201527f22206d6f64653d226d756c7469706c792220696e323d22723931222f3e00000060a28201527f3c6665476175737369616e426c757220737464446576696174696f6e3d22322260bf8201527f20696e3d226662536f75726365477261706869632220726573756c743d22536f60df8201526d3ab931b2a3b930b83434b191179f60911b60ff8201527f3c666553706563756c61724c69676874696e6720696e3d22536f75726365477261010d8201527f61706869632220726573756c743d22723122206c69676874696e672d636f6c6f61012d82015262391e9160e91b61014d82015290506112046111c4611175610150840187610b5e565b7f2220737572666163655363616c653d2234222073706563756c6172436f6e737481527f616e743d22302e38222073706563756c61724578706f6e656e743d223135223e602082015260400190565b7f3c6665506f696e744c6967687420783d222d353030302220793d222d3130303081526d1811103d1e91191818181811179f60911b6020820152602e0190565b741e17b332a9b832b1bab630b92634b3b43a34b7339f60591b81527f3c6665436f6d706f7369746520696e323d226662536f7572636547726170686960158201527f632220696e3d2272312220726573756c743d2272323222206f70657261746f726035820152671e9137baba11179f60c11b60558201527f3c6665436f6d706f7369746520696e3d226662536f7572636547726170686963605d8201527f2220726573756c743d22723422206f70657261746f723d2261726974686d6574607d8201527f696322206b323d223222206b333d22322220696e323d22723232222f3e000000609d820152681e17b334b63a32b91f60b91b60ba82015260c30198975050505050505050565b600360fc1b81526000825161132b816001850160208701610aa7565b9190910160010192915050565b61030360f41b815260008251611355816002850160208701610aa7565b9190910160020192915050565b7f646174613a696d6167652f7376672b786d6c3b6261736536342c00000000000081526000825161139a81601a850160208701610aa7565b91909101601a0192915050565b7f3c73766720786d6c6e733d22687474703a2f2f7777772e77332e6f72672f323081526e181817b9bb3391103bb4b23a341e9160891b602082015260006113f1602f83018e610b5e565b6911103432b4b3b43a1e9160b11b815261140e600a82018e610b5e565b61111f60f11b81529050651e3232b3399f60d11b6002820152611434600882018d610b5e565b661e17b232b3399f60c91b81529050611450600782018c610b5e565b7f3c7265637420636c6173733d227265637430222077696474683d22000000000081529050611482601b82018b610b5e565b6911103432b4b3b43a1e9160b11b815290506114a1600a82018a610b5e565b6211179f60e91b815290507f3c7265637420636c6173733d227265637431222077696474683d22000000000060038201526114df601e820189610b5e565b6911103432b4b3b43a1e9160b11b815290506114fe600a820188610b5e565b6211179f60e91b815290506b1e3932b1ba103334b6361e9160a11b600382015261152b600f820187610b5e565b7f222077696474683d22353022206865696768743d2235302220783d2230222f3e815290506b1e3932b1ba103334b6361e9160a11b60208201526115a8611575602c830187610b5e565b7f222077696474683d22353022206865696768743d2235302220783d223530222f8152601f60f91b602082015260210190565b6b1e3932b1ba103334b6361e9160a11b815290506116006115cc600c830186610b5e565b7f222077696474683d22353022206865696768743d2235302220783d2231303022815261179f60f11b602082015260220190565b651e17b9bb339f60d11b81526006019e9d5050505050505050505050505050565b634e487b7160e01b600052601160045260246000fd5b818103818111156101ef576101ef611621565b808201808211156101ef576101ef611621565b634e487b7160e01b600052601260045260246000fd5b6000826116825761168261165d565b500690565b602360f81b81526000825161132b816001850160208701610aa7565b6000826116b2576116b261165d565b500490565b80820281158282048414176101ef576101ef611621565b634e487b7160e01b600052603260045260246000fd5b6000816116f3576116f3611621565b50600019019056fe4142434445464748494a4b4c4d4e4f505152535455565758595a6162636465666768696a6b6c6d6e6f707172737475767778797a303132333435363738392b2fa264697066735822122097f870bdd4c8fced89869dea33dba5ad8ca33710c0f29f1478dd931a5f5a811964736f6c63430008110033",
    "linkReferences": {}
  },
  "methodIdentifiers": {
    "constructImageURI(uint256)": "a929e684",
    "example(uint256)": "477e4a02",
    "generateBackgroundColor(uint256)": "81c5644e",
    "generateFilters(uint256,string)": "870794f7",
    "generateFrequency(uint256)": "98bc06f4",
    "generateLightingColor(uint256)": "83e96763",
    "generateOctaves(uint256)": "497d7a17",
    "generateScale(uint256)": "620ba6b8",
    "generateStyles(uint256,string,string)": "07ecf2ae",
    "generateTurbulenceType(uint256)": "c1652725",
    "render(uint256)": "c321118c"
  },
  "id": 28
}