{
  "abi": [
    {
      "inputs": [],
      "stateMutability": "nonpayable",
      "type": "constructor"
    },
    {
      "anonymous": false,
      "inputs": [
        {
          "indexed": true,
          "internalType": "address",
          "name": "owner",
          "type": "address"
        },
        {
          "indexed": true,
          "internalType": "address",
          "name": "approved",
          "type": "address"
        },
        {
          "indexed": true,
          "internalType": "uint256",
          "name": "tokenId",
          "type": "uint256"
        }
      ],
      "name": "Approval",
      "type": "event"
    },
    {
      "anonymous": false,
      "inputs": [
        {
          "indexed": true,
          "internalType": "address",
          "name": "owner",
          "type": "address"
        },
        {
          "indexed": true,
          "internalType": "address",
          "name": "operator",
          "type": "address"
        },
        {
          "indexed": false,
          "internalType": "bool",
          "name": "approved",
          "type": "bool"
        }
      ],
      "name": "ApprovalForAll",
      "type": "event"
    },
    {
      "anonymous": false,
      "inputs": [
        {
          "indexed": true,
          "internalType": "address",
          "name": "from",
          "type": "address"
        },
        {
          "indexed": true,
          "internalType": "address",
          "name": "to",
          "type": "address"
        },
        {
          "indexed": true,
          "internalType": "uint256",
          "name": "tokenId",
          "type": "uint256"
        }
      ],
      "name": "Transfer",
      "type": "event"
    },
    {
      "inputs": [
        {
          "internalType": "address",
          "name": "to",
          "type": "address"
        },
        {
          "internalType": "uint256",
          "name": "tokenId",
          "type": "uint256"
        }
      ],
      "name": "approve",
      "outputs": [],
      "stateMutability": "nonpayable",
      "type": "function"
    },
    {
      "inputs": [
        {
          "internalType": "address",
          "name": "owner",
          "type": "address"
        }
      ],
      "name": "balanceOf",
      "outputs": [
        {
          "internalType": "uint256",
          "name": "",
          "type": "uint256"
        }
      ],
      "stateMutability": "view",
      "type": "function"
    },
    {
      "inputs": [
        {
          "internalType": "uint256",
          "name": "seed",
          "type": "uint256"
        }
      ],
      "name": "generateSVG",
      "outputs": [
        {
          "internalType": "string",
          "name": "svg",
          "type": "string"
        },
        {
          "internalType": "string",
          "name": "attributes",
          "type": "string"
        }
      ],
      "stateMutability": "pure",
      "type": "function"
    },
    {
      "inputs": [
        {
          "internalType": "uint256",
          "name": "tokenId",
          "type": "uint256"
        }
      ],
      "name": "generateSeed",
      "outputs": [
        {
          "internalType": "uint256",
          "name": "",
          "type": "uint256"
        },
        {
          "internalType": "uint8",
          "name": "",
          "type": "uint8"
        }
      ],
      "stateMutability": "view",
      "type": "function"
    },
    {
      "inputs": [
        {
          "internalType": "uint256",
          "name": "tokenId",
          "type": "uint256"
        }
      ],
      "name": "getApproved",
      "outputs": [
        {
          "internalType": "address",
          "name": "",
          "type": "address"
        }
      ],
      "stateMutability": "view",
      "type": "function"
    },
    {
      "inputs": [],
      "name": "getCurrentVRGDAPrice",
      "outputs": [
        {
          "internalType": "uint256",
          "name": "",
          "type": "uint256"
        }
      ],
      "stateMutability": "view",
      "type": "function"
    },
    {
      "inputs": [
        {
          "internalType": "int256",
          "name": "sold",
          "type": "int256"
        }
      ],
      "name": "getTargetSaleTime",
      "outputs": [
        {
          "internalType": "int256",
          "name": "",
          "type": "int256"
        }
      ],
      "stateMutability": "view",
      "type": "function"
    },
    {
      "inputs": [
        {
          "internalType": "int256",
          "name": "timeSinceStart",
          "type": "int256"
        },
        {
          "internalType": "uint256",
          "name": "sold",
          "type": "uint256"
        }
      ],
      "name": "getVRGDAPrice",
      "outputs": [
        {
          "internalType": "uint256",
          "name": "",
          "type": "uint256"
        }
      ],
      "stateMutability": "view",
      "type": "function"
    },
    {
      "inputs": [
        {
          "internalType": "address",
          "name": "owner",
          "type": "address"
        },
        {
          "internalType": "address",
          "name": "operator",
          "type": "address"
        }
      ],
      "name": "isApprovedForAll",
      "outputs": [
        {
          "internalType": "bool",
          "name": "",
          "type": "bool"
        }
      ],
      "stateMutability": "view",
      "type": "function"
    },
    {
      "inputs": [
        {
          "internalType": "uint256",
          "name": "expectedTokenId",
          "type": "uint256"
        },
        {
          "internalType": "bytes32",
          "name": "expectedParentBlockhash",
          "type": "bytes32"
        }
      ],
      "name": "mint",
      "outputs": [],
      "stateMutability": "payable",
      "type": "function"
    },
    {
      "inputs": [],
      "name": "name",
      "outputs": [
        {
          "internalType": "string",
          "name": "",
          "type": "string"
        }
      ],
      "stateMutability": "view",
      "type": "function"
    },
    {
      "inputs": [],
      "name": "nextToken",
      "outputs": [
        {
          "internalType": "uint256",
          "name": "id",
          "type": "uint256"
        },
        {
          "internalType": "string",
          "name": "uri",
          "type": "string"
        },
        {
          "internalType": "uint256",
          "name": "price",
          "type": "uint256"
        },
        {
          "internalType": "bytes32",
          "name": "hash",
          "type": "bytes32"
        },
        {
          "internalType": "uint8",
          "name": "ttl",
          "type": "uint8"
        }
      ],
      "stateMutability": "view",
      "type": "function"
    },
    {
      "inputs": [
        {
          "internalType": "uint256",
          "name": "tokenId",
          "type": "uint256"
        }
      ],
      "name": "ownerOf",
      "outputs": [
        {
          "internalType": "address",
          "name": "",
          "type": "address"
        }
      ],
      "stateMutability": "view",
      "type": "function"
    },
    {
      "inputs": [
        {
          "internalType": "address",
          "name": "from",
          "type": "address"
        },
        {
          "internalType": "address",
          "name": "to",
          "type": "address"
        },
        {
          "internalType": "uint256",
          "name": "tokenId",
          "type": "uint256"
        }
      ],
      "name": "safeTransferFrom",
      "outputs": [],
      "stateMutability": "nonpayable",
      "type": "function"
    },
    {
      "inputs": [
        {
          "internalType": "address",
          "name": "from",
          "type": "address"
        },
        {
          "internalType": "address",
          "name": "to",
          "type": "address"
        },
        {
          "internalType": "uint256",
          "name": "tokenId",
          "type": "uint256"
        },
        {
          "internalType": "bytes",
          "name": "data",
          "type": "bytes"
        }
      ],
      "name": "safeTransferFrom",
      "outputs": [],
      "stateMutability": "nonpayable",
      "type": "function"
    },
    {
      "inputs": [
        {
          "internalType": "uint256",
          "name": "",
          "type": "uint256"
        }
      ],
      "name": "seeds",
      "outputs": [
        {
          "internalType": "uint256",
          "name": "",
          "type": "uint256"
        }
      ],
      "stateMutability": "view",
      "type": "function"
    },
    {
      "inputs": [
        {
          "internalType": "address",
          "name": "operator",
          "type": "address"
        },
        {
          "internalType": "bool",
          "name": "approved",
          "type": "bool"
        }
      ],
      "name": "setApprovalForAll",
      "outputs": [],
      "stateMutability": "nonpayable",
      "type": "function"
    },
    {
      "inputs": [],
      "name": "startTime",
      "outputs": [
        {
          "internalType": "uint256",
          "name": "",
          "type": "uint256"
        }
      ],
      "stateMutability": "view",
      "type": "function"
    },
    {
      "inputs": [
        {
          "internalType": "bytes4",
          "name": "interfaceId",
          "type": "bytes4"
        }
      ],
      "name": "supportsInterface",
      "outputs": [
        {
          "internalType": "bool",
          "name": "",
          "type": "bool"
        }
      ],
      "stateMutability": "view",
      "type": "function"
    },
    {
      "inputs": [],
      "name": "symbol",
      "outputs": [
        {
          "internalType": "string",
          "name": "",
          "type": "string"
        }
      ],
      "stateMutability": "view",
      "type": "function"
    },
    {
      "inputs": [],
      "name": "targetPrice",
      "outputs": [
        {
          "internalType": "int256",
          "name": "",
          "type": "int256"
        }
      ],
      "stateMutability": "view",
      "type": "function"
    },
    {
      "inputs": [
        {
          "internalType": "uint256",
          "name": "tokenId",
          "type": "uint256"
        }
      ],
      "name": "tokenURI",
      "outputs": [
        {
          "internalType": "string",
          "name": "",
          "type": "string"
        }
      ],
      "stateMutability": "view",
      "type": "function"
    },
    {
      "inputs": [],
      "name": "totalSold",
      "outputs": [
        {
          "internalType": "uint256",
          "name": "",
          "type": "uint256"
        }
      ],
      "stateMutability": "view",
      "type": "function"
    },
    {
      "inputs": [
        {
          "internalType": "address",
          "name": "from",
          "type": "address"
        },
        {
          "internalType": "address",
          "name": "to",
          "type": "address"
        },
        {
          "internalType": "uint256",
          "name": "tokenId",
          "type": "uint256"
        }
      ],
      "name": "transferFrom",
      "outputs": [],
      "stateMutability": "nonpayable",
      "type": "function"
    }
  ],
  "bytecode": {
    "object": "0x6101006040524260e0523480156200001657600080fd5b5066038d7ea4c68000662386f26fc1000068270801d946c940000082826040518060400160405280600a8152602001694d657263757269616c7360b01b815250604051806040016040528060048152602001634d45524360e01b8152508160009081620000849190620003ef565b506001620000938282620003ef565b5050506080829052620000b9620000b382670de0b6b3a7640000620004bb565b62000121565b60a0819052600013620001135760405162461bcd60e51b815260206004820152601b60248201527f4e4f4e5f4e454741544956455f44454341595f434f4e5354414e54000000000060448201526064015b60405180910390fd5b505060c05250620004f19050565b6000808213620001605760405162461bcd60e51b815260206004820152600960248201526815539111519253915160ba1b60448201526064016200010a565b5060606001600160801b03821160071b82811c6001600160401b031060061b1782811c63ffffffff1060051b1782811c61ffff1060041b1782811c60ff10600390811b90911783811c600f1060021b1783811c909110600190811b90911783811c90911017609f81810383019390931b90921c6c465772b2bbbb5f824b15207a3081018102821d6d0388eaa27412d5aca026815d636e018102821d6d0df99ac502031bf953eff472fdcc018102821d6d13cdffb29d51d99322bdff5f2211018102821d6d0a0f742023def783a307a986912e018102821d6d01920d8043ca89b5239253284e42018102821d6c0b7a86d7375468fac667a0a527016c29508e458543d8aa4df2abee7882018202831d6d0139601a2efabe717e604cbb4894018202831d6d02247f7a7b6594320649aa03aba1018202831d6c8c3f38e95a6b1ff2ab1c3b343619018202831d6d02384773bdf1ac5676facced60901901820290921d6cb9a025d814b29c212b8b1a07cd19010260016c0504a838426634cdd8738f543560611b03190105711340daa0d5f769dba1915cef59f0815a550602605f19919091017d0267a36c0c95b3975ab3ee5b203a7614a3f75373f047d803ae7b6687f2b302017d57115e47018c7177eebf7cd370a3356a1b7863008a5ae8028c72b88642840160ae1d90565b634e487b7160e01b600052604160045260246000fd5b600181811c908216806200037557607f821691505b6020821081036200039657634e487b7160e01b600052602260045260246000fd5b50919050565b601f821115620003ea57600081815260208120601f850160051c81016020861015620003c55750805b601f850160051c820191505b81811015620003e657828155600101620003d1565b5050505b505050565b81516001600160401b038111156200040b576200040b6200034a565b62000423816200041c845462000360565b846200039c565b602080601f8311600181146200045b5760008415620004425750858301515b600019600386901b1c1916600185901b178555620003e6565b600085815260208120601f198616915b828110156200048c578886015182559484019460019091019084016200046b565b5085821015620004ab5787850151600019600388901b60f8161c191681555b5050505050600190811b01905550565b8181036000831280158383131683831282161715620004ea57634e487b7160e01b600052601160045260246000fd5b5092915050565b60805160a05160c05160e0516136d5620005406000396000818161034e0152818161090e0152610c13015260006109b901526000610da70152600081816104330152610d8001526136d56000f3fe60806040526004361061014b5760003560e01c806370a08231116100b6578063b88d4fde1161006f578063b88d4fde146103e1578063c87b56dd14610401578063dc38679c14610421578063e985e9c514610455578063f0503e8014610475578063f466d4ab146104a257600080fd5b806370a082311461031c57806378e979251461033c5780639106d7ba146103705780639499ac541461038657806395d89b41146103ac578063a22cb465146103c157600080fd5b8063424611c311610108578063424611c31461023457806342842e0e1461026b5780634718121a1461028b5780636352211e146102ae5780636d9d33b7146102ce5780636dcee4ca146102ee57600080fd5b806301ffc9a71461015057806306fdde0314610185578063081812fc146101a7578063095ea7b3146101df5780631801fbe51461020157806323b872dd14610214575b600080fd5b34801561015c57600080fd5b5061017061016b366004612364565b6104c2565b60405190151581526020015b60405180910390f35b34801561019157600080fd5b5061019a610514565b60405161017c91906123d1565b3480156101b357600080fd5b506101c76101c23660046123e4565b6105a6565b6040516001600160a01b03909116815260200161017c565b3480156101eb57600080fd5b506101ff6101fa366004612419565b6105cd565b005b6101ff61020f366004612443565b6106e7565b34801561022057600080fd5b506101ff61022f366004612465565b61082d565b34801561024057600080fd5b5061025461024f3660046123e4565b61085e565b6040805192835260ff90911660208301520161017c565b34801561027757600080fd5b506101ff610286366004612465565b6108e6565b34801561029757600080fd5b506102a0610901565b60405190815260200161017c565b3480156102ba57600080fd5b506101c76102c93660046123e4565b610955565b3480156102da57600080fd5b506102a06102e93660046123e4565b6109b5565b3480156102fa57600080fd5b5061030e6103093660046123e4565b6109e9565b60405161017c9291906124a1565b34801561032857600080fd5b506102a06103373660046124cf565b610b5f565b34801561034857600080fd5b506102a07f000000000000000000000000000000000000000000000000000000000000000081565b34801561037c57600080fd5b506102a060065481565b34801561039257600080fd5b5061039b610be5565b60405161017c9594939291906124ea565b3480156103b857600080fd5b5061019a610c56565b3480156103cd57600080fd5b506101ff6103dc366004612523565b610c65565b3480156103ed57600080fd5b506101ff6103fc366004612575565b610c74565b34801561040d57600080fd5b5061019a61041c3660046123e4565b610cac565b34801561042d57600080fd5b506102a07f000000000000000000000000000000000000000000000000000000000000000081565b34801561046157600080fd5b50610170610470366004612651565b610d4b565b34801561048157600080fd5b506102a06104903660046123e4565b60076020526000908152604090205481565b3480156104ae57600080fd5b506102a06104bd366004612443565b610d79565b60006001600160e01b031982166380ac58cd60e01b14806104f357506001600160e01b03198216635b5e139f60e01b145b8061050e57506301ffc9a760e01b6001600160e01b03198316145b92915050565b60606000805461052390612684565b80601f016020809104026020016040519081016040528092919081815260200182805461054f90612684565b801561059c5780601f106105715761010080835404028352916020019161059c565b820191906000526020600020905b81548152906001019060200180831161057f57829003601f168201915b5050505050905090565b60006105b182610df7565b506000908152600460205260409020546001600160a01b031690565b60006105d882610955565b9050806001600160a01b0316836001600160a01b03160361064a5760405162461bcd60e51b815260206004820152602160248201527f4552433732313a20617070726f76616c20746f2063757272656e74206f776e656044820152603960f91b60648201526084015b60405180910390fd5b336001600160a01b038216148061066657506106668133610d4b565b6106d85760405162461bcd60e51b815260206004820152603d60248201527f4552433732313a20617070726f76652063616c6c6572206973206e6f7420746f60448201527f6b656e206f776e6572206f7220617070726f76656420666f7220616c6c0000006064820152608401610641565b6106e28383610e59565b505050565b60006106f46001436126d4565b4090508082146107465760405162461bcd60e51b815260206004820152601c60248201527f496e76616c6964206f72206578706972656420626c6f636b68617368000000006044820152606401610641565b60065483146107975760405162461bcd60e51b815260206004820152601b60248201527f496e76616c6964206f72206578706972656420746f6b656e20494400000000006044820152606401610641565b60006107a1610901565b9050803410156107e85760405162461bcd60e51b8152602060048201526012602482015271496e73756666696369656e742066756e647360701b6044820152606401610641565b6107f23385610ec7565b6006805460010190556108083334839003611060565b5060006108148461085e565b5060009485526007602052604090942093909355505050565b61083733826110b1565b6108535760405162461bcd60e51b8152600401610641906126e7565b6106e2838383611110565b60008080600561086f6001436126d4565b610879919061274a565b61088490600561275e565b905060056108936001436126d4565b61089d919061274a565b6108a86001436126d4565b6108b291906126d4565b6040805191406020830152810185905260600160408051601f19818403018152919052805160209091012094909350915050565b6106e283838360405180602001604052806000815250610c74565b60006109506109486109337f0000000000000000000000000000000000000000000000000000000000000000426126d4565b62015180670de0b6b3a7640000919091020490565b600654610d79565b905090565b6000818152600260205260408120546001600160a01b03168061050e5760405162461bcd60e51b8152602060048201526018602482015277115490cdcc8c4e881a5b9d985b1a59081d1bdad95b88125160421b6044820152606401610641565b60007f0000000000000000000000000000000000000000000000000000000000000000670de0b6b3a764000083020561050e565b6060806000806109fd600060028785611281565b925090506060610a0e8287856112f6565b9350905060608080610a20898761138f565b985091945092509050606080610a398b898915896113fe565b995090925090506060610a4c8c8a611603565b995090506060610a5c8d8b611987565b9a5090506060610a6c8e8c611a0d565b9b509050858a15610a9f576040518060400160405280600a81526020016948756520526f7461746560b01b815250610abe565b604051806040016040528060058152602001645363616c6560d81b8152505b8a868a604051602001610ad5959493929190612793565b6040516020818303038152906040529b5087858b600114610b055760405180602001604052806000815250610b26565b8a604051602001610b169190612946565b6040516020818303038152906040525b858585604051602001610b3e96959493929190612a00565b6040516020818303038152906040529c505050505050505050505050915091565b60006001600160a01b038216610bc95760405162461bcd60e51b815260206004820152602960248201527f4552433732313a2061646472657373207a65726f206973206e6f7420612076616044820152683634b21037bbb732b960b91b6064820152608401610641565b506001600160a01b031660009081526003602052604090205490565b60065460606000808080610bf88661085e565b92509050610c068187611a4d565b9450610c3e610c386109337f0000000000000000000000000000000000000000000000000000000000000000426126d4565b87610d79565b9350610c4b6001436126d4565b409250509091929394565b60606001805461052390612684565b610c70338383611af8565b5050565b610c7e33836110b1565b610c9a5760405162461bcd60e51b8152600401610641906126e7565b610ca684848484611bc6565b50505050565b6000818152600260205260409020546060906001600160a01b0316610d2b5760405162461bcd60e51b815260206004820152602f60248201527f4552433732314d657461646174613a2055524920717565727920666f72206e6f60448201526e3732bc34b9ba32b73a103a37b5b2b760891b6064820152608401610641565b600082815260076020526040902054610d448184611a4d565b9392505050565b6001600160a01b03918216600090815260056020908152604080832093909416825291909152205460ff1690565b6000610d447f0000000000000000000000000000000000000000000000000000000000000000610df2610ded7f0000000000000000000000000000000000000000000000000000000000000000610ddc670de0b6b3a764000060018901026109b5565b8803670de0b6b3a764000091020590565b611bf9565b611da2565b6000818152600260205260409020546001600160a01b0316610e565760405162461bcd60e51b8152602060048201526018602482015277115490cdcc8c4e881a5b9d985b1a59081d1bdad95b88125160421b6044820152606401610641565b50565b600081815260046020526040902080546001600160a01b0319166001600160a01b0384169081179091558190610e8e82610955565b6001600160a01b03167f8c5be1e5ebec7d5bd14f71427d1e84f3dd0314c0f7b2291e5b200ac8c7c3b92560405160405180910390a45050565b6001600160a01b038216610f1d5760405162461bcd60e51b815260206004820181905260248201527f4552433732313a206d696e7420746f20746865207a65726f20616464726573736044820152606401610641565b6000818152600260205260409020546001600160a01b031615610f825760405162461bcd60e51b815260206004820152601c60248201527f4552433732313a20746f6b656e20616c7265616479206d696e746564000000006044820152606401610641565b610f90600083836001611dc7565b6000818152600260205260409020546001600160a01b031615610ff55760405162461bcd60e51b815260206004820152601c60248201527f4552433732313a20746f6b656e20616c7265616479206d696e746564000000006044820152606401610641565b6001600160a01b038216600081815260036020908152604080832080546001019055848352600290915280822080546001600160a01b0319168417905551839291907fddf252ad1be2c89b69c2b068fc378daa952ba7f163c4a11628f55a4df523b3ef908290a45050565b600080600080600085875af19050806106e25760405162461bcd60e51b815260206004820152601360248201527211551217d514905394d1915497d19052531151606a1b6044820152606401610641565b6000806110bd83610955565b9050806001600160a01b0316846001600160a01b031614806110e457506110e48185610d4b565b806111085750836001600160a01b03166110fd846105a6565b6001600160a01b0316145b949350505050565b826001600160a01b031661112382610955565b6001600160a01b0316146111495760405162461bcd60e51b815260040161064190612c51565b6001600160a01b0382166111ab5760405162461bcd60e51b8152602060048201526024808201527f4552433732313a207472616e7366657220746f20746865207a65726f206164646044820152637265737360e01b6064820152608401610641565b6111b88383836001611dc7565b826001600160a01b03166111cb82610955565b6001600160a01b0316146111f15760405162461bcd60e51b815260040161064190612c51565b600081815260046020908152604080832080546001600160a01b03199081169091556001600160a01b0387811680865260038552838620805460001901905590871680865283862080546001019055868652600290945282852080549092168417909155905184937fddf252ad1be2c89b69c2b068fc378daa952ba7f163c4a11628f55a4df523b3ef91a4505050565b600080600084846040516020016112a2929190918252602082015260400190565b60408051601f1981840301815291905280516020909101209050836112c681612c96565b94508790506112d581886126d4565b6112df908361274a565b6112e99190612caf565b9793965092945050505050565b6060600080606086600003611346576113136001603c8888611281565b9550915061132082611e4f565b6040516020016113309190612cc2565b6040516020818303038152906040529050611383565b6113546001601e8888611281565b9550915061136182611e4f565b6040516020016113719190612cc2565b60405160208183030381529060405290505b96939550929350505050565b6060806060600060606113a28787611ee2565b9650905060006113b6600160048a84611281565b97509050816113c482611e4f565b6040516020016113d5929190612ce7565b6040516020818303038152906040526113ed82611e4f565b909990985091969550909350505050565b606080600080611412600060978a8a611281565b9750905060006114228989611fc4565b985090506000611436604b60fa8c8c611281565b9950905060006114468b8b611fc4565b9a5090506000808215158515150361146c576114628487612caf565b915084905061148e565b8386111561147e5761146284876126d4565b61148886856126d4565b91508290505b606085156114c55761149f87611e4f565b6040516020016114af9190612da1565b60405160208183030381529060405290506114d1565b6114ce87611e4f565b90505b60608215611508576114e284611e4f565b6040516020016114f29190612da1565b6040516020818303038152906040529050611514565b61151184611e4f565b90505b81818360405160200161152993929190612dca565b60405160208183030381529060405291508c61156457816040516020016115509190612e2d565b604051602081830303815290604052611591565b6040518060400160405280601381526020017201e3332a234b9b83630b1b2b6b2b73a26b0b81606d1b8152505b8d6115ab57604051806020016040528060008152506115ce565b828d6040516020016115be929190612e7e565b6040516020818303038152906040525b6040516020016115df929190612fa0565b60408051601f198184030181529190529f919e50909b505050505050505050505050565b606060006060806060600061161c600060038a8a611281565b9750905061162b60028261274a565b1561164f57604051806040016040528060018152602001603160f81b81525061166a565b604051806040016040528060018152602001600360fc1b8152505b935061167a600060038a8a611281565b9750905061168960028261274a565b156116ad57604051806040016040528060018152602001603160f81b8152506116c8565b604051806040016040528060018152602001603160f81b8152505b92506116d8600060038a8a611281565b975090506116e760028261274a565b1561170b57604051806040016040528060018152602001603160f81b815250611726565b604051806040016040528060018152602001600360fc1b8152505b9150611736600160048a8a611281565b97509050600181900361176457604051806040016040528060018152602001603160f81b81525093506117f3565b8060020361178d57604051806040016040528060018152602001603160f81b81525092506117f3565b806003036117b657604051806040016040528060018152602001603160f81b81525091506117f3565b60405162461bcd60e51b8152602060048201526012602482015271496e76616c6964206b312c206b322c206b3360701b6044820152606401610641565b6060611803600060338b8b611281565b98509150600a82101561183f5761181982611e4f565b6040516020016118299190613019565b60405160208183030381529060405290506118a3565b600a82101580156118505750606482105b1561186e5761185e82611e4f565b6040516020016118299190613044565b60405162461bcd60e51b815260206004820152600a602482015269125b9d985b1a59081acd60b21b6044820152606401610641565b60006118b3600060028c8c611281565b9950905060008190036118e357816040516020016118d19190612da1565b60405160208183030381529060405291505b6118f1600060038c8c611281565b99509250606061190260028561274a565b158061190c575081155b1561193157506040805180820190915260038152621bdd5d60ea1b602082015261194c565b5060408051808201909152600281526134b760f11b60208201525b6000818888888760405160200161196795949392919061306e565b60408051808303601f190181529190529c9a9b5050505050505050505050565b606060008061199a600260048787611281565b9450905060006119ae600a601e8888611281565b9550905060006119c181601e8989611281565b965090506119ce83611e4f565b6119d783611e4f565b6119e083611e4f565b6040516020016119f2939291906131d8565b60408051601f19818403018152919052979596505050505050565b6060600080611a1c8585611fc4565b9450905060608115611a445760405180608001604052806052815260200161360e6052913990505b95939450505050565b6060806060611a5b856109e9565b604051909350909150611a72908390602001613308565b60405160208183030381529060405291506000611acb611a9186611e4f565b611a9a84612022565b611aa385612022565b86604051602001611ab7949392919061334c565b604051602081830303815290604052612022565b905080604051602001611ade9190613498565b604051602081830303815290604052935050505092915050565b816001600160a01b0316836001600160a01b031603611b595760405162461bcd60e51b815260206004820152601960248201527f4552433732313a20617070726f766520746f2063616c6c6572000000000000006044820152606401610641565b6001600160a01b03838116600081815260056020908152604080832094871680845294825291829020805460ff191686151590811790915591519182527f17307eab39ab6107e8899845ad3d59bd9653f200f220920489ca2b5937696c31910160405180910390a3505050565b611bd1848484611110565b611bdd84848484612175565b610ca65760405162461bcd60e51b8152600401610641906134dd565b6000680248ce36a70cb26b3e198213611c1457506000919050565b680755bf798b4a1bf1e58212611c5b5760405162461bcd60e51b815260206004820152600c60248201526b4558505f4f564552464c4f5760a01b6044820152606401610641565b6503782dace9d9604e83901b059150600060606bb17217f7d1cf79abc9e3b39884821b056001605f1b01901d6bb17217f7d1cf79abc9e3b39881029093036c240c330e9fb2d9cbaf0fd5aafb1981018102606090811d6d0277594991cfc85f6e2461837cd9018202811d6d1a521255e34f6a5061b25ef1c9c319018202811d6db1bbb201f443cf962f1a1d3db4a5018202811d6e02c72388d9f74f51a9331fed693f1419018202811d6e05180bb14799ab47a8a8cb2a527d57016d02d16720577bd19bf614176fe9ea6c10fe68e7fd37d0007b713f765084018402831d9081019084016d01d3967ed30fc4f89c02bab5708119010290911d6e0587f503bb6ea29d25fcb740196450019091026d360d7aeea093263ecc6e0ecb291760621b010574029d9dc38563c32e5c2f6dc192ee70ef65f9978af30260c3939093039290921c92915050565b8181028215838205831417611db657600080fd5b670de0b6b3a7640000900592915050565b6001811115610ca6576001600160a01b03841615611e0d576001600160a01b03841660009081526003602052604081208054839290611e079084906126d4565b90915550505b6001600160a01b03831615610ca6576001600160a01b03831660009081526003602052604081208054839290611e44908490612caf565b909155505050505050565b60606000611e5c83612276565b600101905060008167ffffffffffffffff811115611e7c57611e7c61255f565b6040519080825280601f01601f191660200182016040528015611ea6576020820181803683370190505b5090508181016020015b600019016f181899199a1a9b1b9c1cb0b131b232b360811b600a86061a8153600a8504945084611eb057509392505050565b6060600080611ef5601e60fb8787611281565b945090506060600a821015611f3357611f0d82611e4f565b604051602001611f1d919061352f565b6040516020818303038152906040529050611a44565b600a8210158015611f445750606482105b15611f6257611f5282611e4f565b604051602001611f1d919061355c565b60648210611f8357611f7382611e4f565b604051602001611f1d9190613019565b60405162461bcd60e51b8152602060048201526016602482015275496e76616c69642062617365206672657175656e637960501b6044820152606401610641565b60008060008484604051602001611fe5929190918252602082015260400190565b60408051601f19818403018152919052805160209091012090508361200981612c96565b9450612018905060028261274a565b1595939450505050565b6060815160000361204157505060408051602081019091526000815290565b600060405180606001604052806040815260200161366060409139905060006003845160026120709190612caf565b61207a9190613588565b61208590600461359c565b67ffffffffffffffff81111561209d5761209d61255f565b6040519080825280601f01601f1916602001820160405280156120c7576020820181803683370190505b509050600182016020820185865187015b80821015612133576003820191508151603f8160121c168501518453600184019350603f81600c1c168501518453600184019350603f8160061c168501518453600184019350603f81168501518453506001830192506120d8565b505060038651066001811461214f57600281146121625761216a565b603d6001830353603d600283035361216a565b603d60018303535b509195945050505050565b60006001600160a01b0384163b1561226b57604051630a85bd0160e11b81526001600160a01b0385169063150b7a02906121b99033908990889088906004016135b3565b6020604051808303816000875af19250505080156121f4575060408051601f3d908101601f191682019092526121f1918101906135f0565b60015b612251573d808015612222576040519150601f19603f3d011682016040523d82523d6000602084013e612227565b606091505b5080516000036122495760405162461bcd60e51b8152600401610641906134dd565b805181602001fd5b6001600160e01b031916630a85bd0160e11b149050611108565b506001949350505050565b60008072184f03e93ff9f4daa797ed6e38ed64bf6a1f0160401b83106122b55772184f03e93ff9f4daa797ed6e38ed64bf6a1f0160401b830492506040015b6d04ee2d6d415b85acef810000000083106122e1576d04ee2d6d415b85acef8100000000830492506020015b662386f26fc1000083106122ff57662386f26fc10000830492506010015b6305f5e1008310612317576305f5e100830492506008015b612710831061232b57612710830492506004015b6064831061233d576064830492506002015b600a831061050e5760010192915050565b6001600160e01b031981168114610e5657600080fd5b60006020828403121561237657600080fd5b8135610d448161234e565b60005b8381101561239c578181015183820152602001612384565b50506000910152565b600081518084526123bd816020860160208601612381565b601f01601f19169290920160200192915050565b602081526000610d4460208301846123a5565b6000602082840312156123f657600080fd5b5035919050565b80356001600160a01b038116811461241457600080fd5b919050565b6000806040838503121561242c57600080fd5b612435836123fd565b946020939093013593505050565b6000806040838503121561245657600080fd5b50508035926020909101359150565b60008060006060848603121561247a57600080fd5b612483846123fd565b9250612491602085016123fd565b9150604084013590509250925092565b6040815260006124b460408301856123a5565b82810360208401526124c681856123a5565b95945050505050565b6000602082840312156124e157600080fd5b610d44826123fd565b85815260a06020820152600061250360a08301876123a5565b604083019590955250606081019290925260ff1660809091015292915050565b6000806040838503121561253657600080fd5b61253f836123fd565b91506020830135801515811461255457600080fd5b809150509250929050565b634e487b7160e01b600052604160045260246000fd5b6000806000806080858703121561258b57600080fd5b612594856123fd565b93506125a2602086016123fd565b925060408501359150606085013567ffffffffffffffff808211156125c657600080fd5b818701915087601f8301126125da57600080fd5b8135818111156125ec576125ec61255f565b604051601f8201601f19908116603f011681019083821181831017156126145761261461255f565b816040528281528a602084870101111561262d57600080fd5b82602086016020830137600060208483010152809550505050505092959194509250565b6000806040838503121561266457600080fd5b61266d836123fd565b915061267b602084016123fd565b90509250929050565b600181811c9082168061269857607f821691505b6020821081036126b857634e487b7160e01b600052602260045260246000fd5b50919050565b634e487b7160e01b600052601160045260246000fd5b8181038181111561050e5761050e6126be565b6020808252602d908201527f4552433732313a2063616c6c6572206973206e6f7420746f6b656e206f776e6560408201526c1c881bdc88185c1c1c9bdd9959609a1b606082015260800190565b634e487b7160e01b600052601260045260246000fd5b60008261275957612759612734565b500690565b60ff828116828216039081111561050e5761050e6126be565b60008151612789818560208601612381565b9290920192915050565b7f7b202274726169745f74797065223a202242617365204672657175656e637922815260006b1610113b30b63ab2911d101160a11b80602084015287516127e181602c860160208c01612381565b6308881f4b60e21b602c918501918201527f7b202274726169745f74797065223a2022416e696d6174696f6e2054797065226030820152605081019190915286519061283482605c830160208b01612381565b01612848605c82016308881f4b60e21b9052565b7f7b202274726169745f74797065223a2022416e696d6174696f6e20537065656460608201526c111610113b30b63ab2911d101160991b6080820152612892608d82015b87612777565b6308881f4b60e21b815290507f7b202274726169745f74797065223a20225363616c65222c202276616c7565226004820152621d101160e91b60248201526128de602782015b86612777565b6308881f4b60e21b815290507f7b202274726169745f74797065223a20224f637461766573222c202276616c7560048201526432911d101160d91b602482015261292c602982015b85612777565b6222207d60e81b815290505b600301979650505050505050565b7f3c616e696d617465206174747269627574654e616d653d2276616c7565732220815270333937b69e911811103a379e91199b181160791b602082015264323ab91e9160d91b6031820152600082516129a6816036850160208701612381565b7f2220726570656174436f756e743d22696e646566696e6974652220726573756c60369390910192830152507f743d22636f6c6f724d6174726978526573756c74222f3e0000000000000000006056820152606d01919050565b7f3c7376672077696474683d2235303022206865696768743d223530302220766981527f6577426f783d223020302035303020353030222076657273696f6e3d22312e3160208201527f2220786d6c6e733d22687474703a2f2f7777772e77332e6f72672f323030302f60408201526439bb33911f60d91b60608201526e1e3334b63a32b91034b21e9130911f60891b60658201526000612afb61288c612ab3612aad607486018c612777565b8a612777565b7f3c6665436f6c6f724d617472697820747970653d22687565526f7461746522208152753932b9bab63a1e913937ba30ba32a932b9bab63a111f60511b602082015260360190565b6f1e17b332a1b7b637b926b0ba3934bc1f60811b81527f3c6665436f6c6f724d617472697820747970653d226d6174726978222072657360108201527f756c743d22636f6c6f724368616e6e656c526573756c742220000000000000006030820152604981017103b30b63ab2b99e91181018101810181018160751b81529050690181018101810181018160b51b6012820152690181018101810181018160b51b601c8201526a189018101810181018111f60a91b60268201526f1e17b332a1b7b637b926b0ba3934bc1f60811b6031820152612be161292661288c6041840189612777565b681e17b334b63a32b91f60b91b81527f3c726563742077696474683d223130303022206865696768743d223130303022600982015272103334b63a32b91e913ab9361411b09491179f60691b6029820152651e17b9bb339f60d11b603c8201526042019998505050505050505050565b60208082526025908201527f4552433732313a207472616e736665722066726f6d20696e636f72726563742060408201526437bbb732b960d91b606082015260800190565b600060018201612ca857612ca86126be565b5060010190565b8082018082111561050e5761050e6126be565b60008251612cd4818460208701612381565b607360f81b920191825250600101919050565b7f3c666554757262756c656e636520626173654672657175656e63793d22000000815260008351612d1f81601d850160208801612381565b6d1110373ab6a7b1ba30bb32b99e9160911b601d918401918201528351612d4d81602b840160208801612381565b601160f91b602b92909101918201527f20726573756c743d2274757262756c656e6365526573756c74223e203c2f6665602c8201526a2a3ab9313ab632b731b29f60a91b604c820152605701949350505050565b602d60f81b815260008251612dbd816001850160208701612381565b9190910160010192915050565b60008451612ddc818460208901612381565b8083019050603b60f81b8082528551612dfc816001850160208a01612381565b600192019182018190528451612e19816002850160208901612381565b600292019182015260030195945050505050565b7f3c6665446973706c6163656d656e744d6170207363616c653d22000000000000815260008251612e6581601a850160208701612381565b61011160f51b601a939091019283015250601c01919050565b7f3c616e696d617465206174747269627574654e616d653d227363616c652220008152673b30b63ab2b99e9160c11b601f8201528251600090612ec8816027850160208801612381565b7f22206b657954696d65733d22303b20302e353b203122206475723d22000000006027918401918201528351612f05816043840160208801612381565b7f2220726570656174436f756e743d22696e646566696e6974652220726573756c604392909101918201527f743d22646973706c6163656d656e74526573756c74222063616c634d6f64653d60638201527f2273706c696e6522206b657953706c696e65733d22302e33203020302e37203160838201526f1d9018171990181018171b901891179f60811b60a382015260b301949350505050565b60008351612fb2818460208801612381565b7f2220726573756c743d22646973706c6163656d656e74526573756c74223e00009083019081528351612fec81601e840160208801612381565b731e17b332a234b9b83630b1b2b6b2b73a26b0b81f60611b601e9290910191820152603201949350505050565b620302e360ec1b815260008251613037816003850160208701612381565b9190910160030192915050565b61181760f11b815260008251613061816002850160208701612381565b9190910160020192915050565b7f3c6665436f6d706f7369746520696e3d22726f74617465526573756c7422206981527f6e323d22636f6c6f724368616e6e656c526573756c7422206f70657261746f726020820152611e9160f11b6040820152600086516130d7816042850160208b01612381565b7f2220726573756c743d22636f6d706f73697465526573756c7432222f3e0000006042918401918201527f3c6665436f6d706f7369746520696e3d22636f6d706f73697465526573756c74605f8201527f322220696e323d22636f6d706f73697465526573756c743222206f7065726174607f8201527337b91e9130b934ba3436b2ba34b1911035989e9160611b609f82015261317760b3820188612777565b65111035991e9160d11b815290506131926006820187612777565b65111035999e9160d11b815290506131ad6006820186612777565b651110359a1e9160d11b815290506131c86006820185612777565b6211179f60e91b81529050612938565b7f3c6665446966667573654c69676874696e67206c69676874696e672d636f6c6f81527f723d227768697465222064696666757365436f6e7374616e743d22000000000060208201526000845161323681603b850160208901612381565b7f2220726573756c743d2264696666757365526573756c74222073757266616365603b918401918201526629b1b0b6329e9160c91b605b8201528451613283816062840160208901612381565b7f223e3c666544697374616e744c6967687420656c65766174696f6e3d220000006062929091019182015283516132c181607f840160208801612381565b7f223e3c2f666544697374616e744c696768743e3c2f6665446966667573654c69607f92909101918201526633b43a34b7339f60c91b609f82015260a60195945050505050565b6f01130ba3a3934b13aba32b9911d102d960851b81528151600090613334816010850160208701612381565b605d60f81b6010939091019283015250601101919050565b757b20226e616d65223a20224d657263757269616c202360501b8152845160009061337e816016850160208a01612381565b6201116160ed1b60169184019182018190527f226465736372697074696f6e223a20224f6e20636861696e2067656e65726174601983015272034bb329030b93a10383937b532b1ba1711161606d1b60398301527f22696d616765223a2022646174613a696d6167652f7376672b786d6c3b626173604c83015263194d8d0b60e21b606c8301528651613418816070850160208b01612381565b60709201918201527f22616e696d6174696f6e5f75726c223a2022646174613a696d6167652f73766760738201526b0ade1b5b0ed8985cd94d8d0b60a21b609382015261348d6134806128d8613471609f850189612777565b6201116160ed1b815260030190565b607d60f81b815260010190565b979650505050505050565b7f646174613a6170706c69636174696f6e2f6a736f6e3b6261736536342c0000008152600082516134d081601d850160208701612381565b91909101601d0192915050565b60208082526032908201527f4552433732313a207472616e7366657220746f206e6f6e20455243373231526560408201527131b2b4bb32b91034b6b83632b6b2b73a32b960711b606082015260800190565b640302e3030360dc1b81526000825161354f816005850160208701612381565b9190910160050192915050565b630302e30360e41b81526000825161357b816004850160208701612381565b9190910160040192915050565b60008261359757613597612734565b500490565b808202811582820484141761050e5761050e6126be565b6001600160a01b03858116825284166020820152604081018390526080606082018190526000906135e6908301846123a5565b9695505050505050565b60006020828403121561360257600080fd5b8151610d448161234e56fe3c6665436f6c6f724d617472697820747970653d226d6174726978222076616c7565733d222d3120302030203020312030202d3120302030203120302030202d312030203120302030203020312030222f3e4142434445464748494a4b4c4d4e4f505152535455565758595a6162636465666768696a6b6c6d6e6f707172737475767778797a303132333435363738392b2fa264697066735822122032598f3d1307e08a2ce308599d3dfbff35c12bf5b56a924fe6d28d9bdec26c8864736f6c63430008110033",
    "linkReferences": {}
  },
  "methodIdentifiers": {
    "approve(address,uint256)": "095ea7b3",
    "balanceOf(address)": "70a08231",
    "generateSVG(uint256)": "6dcee4ca",
    "generateSeed(uint256)": "424611c3",
    "getApproved(uint256)": "081812fc",
    "getCurrentVRGDAPrice()": "4718121a",
    "getTargetSaleTime(int256)": "6d9d33b7",
    "getVRGDAPrice(int256,uint256)": "f466d4ab",
    "isApprovedForAll(address,address)": "e985e9c5",
    "mint(uint256,bytes32)": "1801fbe5",
    "name()": "06fdde03",
    "nextToken()": "9499ac54",
    "ownerOf(uint256)": "6352211e",
    "safeTransferFrom(address,address,uint256)": "42842e0e",
    "safeTransferFrom(address,address,uint256,bytes)": "b88d4fde",
    "seeds(uint256)": "f0503e80",
    "setApprovalForAll(address,bool)": "a22cb465",
    "startTime()": "78e97925",
    "supportsInterface(bytes4)": "01ffc9a7",
    "symbol()": "95d89b41",
    "targetPrice()": "dc38679c",
    "tokenURI(uint256)": "c87b56dd",
    "totalSold()": "9106d7ba",
    "transferFrom(address,address,uint256)": "23b872dd"
  },
  "id": 32
}