{
  "abi": [
    {
      "inputs": [],
      "stateMutability": "nonpayable",
      "type": "constructor"
    },
    {
      "anonymous": false,
      "inputs": [
        {
          "indexed": true,
          "internalType": "address",
          "name": "owner",
          "type": "address"
        },
        {
          "indexed": true,
          "internalType": "address",
          "name": "approved",
          "type": "address"
        },
        {
          "indexed": true,
          "internalType": "uint256",
          "name": "tokenId",
          "type": "uint256"
        }
      ],
      "name": "Approval",
      "type": "event"
    },
    {
      "anonymous": false,
      "inputs": [
        {
          "indexed": true,
          "internalType": "address",
          "name": "owner",
          "type": "address"
        },
        {
          "indexed": true,
          "internalType": "address",
          "name": "operator",
          "type": "address"
        },
        {
          "indexed": false,
          "internalType": "bool",
          "name": "approved",
          "type": "bool"
        }
      ],
      "name": "ApprovalForAll",
      "type": "event"
    },
    {
      "anonymous": false,
      "inputs": [
        {
          "indexed": true,
          "internalType": "uint256",
          "name": "tokenId",
          "type": "uint256"
        },
        {
          "indexed": true,
          "internalType": "address",
          "name": "owner",
          "type": "address"
        },
        {
          "indexed": false,
          "internalType": "uint256",
          "name": "price",
          "type": "uint256"
        }
      ],
      "name": "TokenMinted",
      "type": "event"
    },
    {
      "anonymous": false,
      "inputs": [
        {
          "indexed": true,
          "internalType": "address",
          "name": "from",
          "type": "address"
        },
        {
          "indexed": true,
          "internalType": "address",
          "name": "to",
          "type": "address"
        },
        {
          "indexed": true,
          "internalType": "uint256",
          "name": "tokenId",
          "type": "uint256"
        }
      ],
      "name": "Transfer",
      "type": "event"
    },
    {
      "inputs": [
        {
          "internalType": "address",
          "name": "to",
          "type": "address"
        },
        {
          "internalType": "uint256",
          "name": "tokenId",
          "type": "uint256"
        }
      ],
      "name": "approve",
      "outputs": [],
      "stateMutability": "nonpayable",
      "type": "function"
    },
    {
      "inputs": [
        {
          "internalType": "address",
          "name": "owner",
          "type": "address"
        }
      ],
      "name": "balanceOf",
      "outputs": [
        {
          "internalType": "uint256",
          "name": "",
          "type": "uint256"
        }
      ],
      "stateMutability": "view",
      "type": "function"
    },
    {
      "inputs": [
        {
          "internalType": "uint256",
          "name": "tokenId",
          "type": "uint256"
        }
      ],
      "name": "generateSeed",
      "outputs": [
        {
          "internalType": "uint256",
          "name": "",
          "type": "uint256"
        }
      ],
      "stateMutability": "view",
      "type": "function"
    },
    {
      "inputs": [
        {
          "internalType": "uint256",
          "name": "tokenId",
          "type": "uint256"
        }
      ],
      "name": "getApproved",
      "outputs": [
        {
          "internalType": "address",
          "name": "",
          "type": "address"
        }
      ],
      "stateMutability": "view",
      "type": "function"
    },
    {
      "inputs": [],
      "name": "getCurrentVRGDAPrice",
      "outputs": [
        {
          "internalType": "uint256",
          "name": "",
          "type": "uint256"
        }
      ],
      "stateMutability": "view",
      "type": "function"
    },
    {
      "inputs": [
        {
          "internalType": "int256",
          "name": "sold",
          "type": "int256"
        }
      ],
      "name": "getTargetSaleTime",
      "outputs": [
        {
          "internalType": "int256",
          "name": "",
          "type": "int256"
        }
      ],
      "stateMutability": "view",
      "type": "function"
    },
    {
      "inputs": [
        {
          "internalType": "int256",
          "name": "timeSinceStart",
          "type": "int256"
        },
        {
          "internalType": "uint256",
          "name": "sold",
          "type": "uint256"
        }
      ],
      "name": "getVRGDAPrice",
      "outputs": [
        {
          "internalType": "uint256",
          "name": "",
          "type": "uint256"
        }
      ],
      "stateMutability": "view",
      "type": "function"
    },
    {
      "inputs": [
        {
          "internalType": "address",
          "name": "owner",
          "type": "address"
        },
        {
          "internalType": "address",
          "name": "operator",
          "type": "address"
        }
      ],
      "name": "isApprovedForAll",
      "outputs": [
        {
          "internalType": "bool",
          "name": "",
          "type": "bool"
        }
      ],
      "stateMutability": "view",
      "type": "function"
    },
    {
      "inputs": [
        {
          "internalType": "uint256",
          "name": "tokenId",
          "type": "uint256"
        },
        {
          "internalType": "bytes32",
          "name": "blockHash",
          "type": "bytes32"
        }
      ],
      "name": "mint",
      "outputs": [],
      "stateMutability": "payable",
      "type": "function"
    },
    {
      "inputs": [],
      "name": "name",
      "outputs": [
        {
          "internalType": "string",
          "name": "",
          "type": "string"
        }
      ],
      "stateMutability": "view",
      "type": "function"
    },
    {
      "inputs": [],
      "name": "nextToken",
      "outputs": [
        {
          "internalType": "uint256",
          "name": "id",
          "type": "uint256"
        },
        {
          "internalType": "string",
          "name": "uri",
          "type": "string"
        },
        {
          "internalType": "uint256",
          "name": "price",
          "type": "uint256"
        },
        {
          "internalType": "bytes32",
          "name": "blockHash",
          "type": "bytes32"
        },
        {
          "internalType": "uint256",
          "name": "ttl",
          "type": "uint256"
        }
      ],
      "stateMutability": "view",
      "type": "function"
    },
    {
      "inputs": [
        {
          "internalType": "uint256",
          "name": "tokenId",
          "type": "uint256"
        }
      ],
      "name": "ownerOf",
      "outputs": [
        {
          "internalType": "address",
          "name": "",
          "type": "address"
        }
      ],
      "stateMutability": "view",
      "type": "function"
    },
    {
      "inputs": [
        {
          "internalType": "address",
          "name": "from",
          "type": "address"
        },
        {
          "internalType": "address",
          "name": "to",
          "type": "address"
        },
        {
          "internalType": "uint256",
          "name": "tokenId",
          "type": "uint256"
        }
      ],
      "name": "safeTransferFrom",
      "outputs": [],
      "stateMutability": "nonpayable",
      "type": "function"
    },
    {
      "inputs": [
        {
          "internalType": "address",
          "name": "from",
          "type": "address"
        },
        {
          "internalType": "address",
          "name": "to",
          "type": "address"
        },
        {
          "internalType": "uint256",
          "name": "tokenId",
          "type": "uint256"
        },
        {
          "internalType": "bytes",
          "name": "data",
          "type": "bytes"
        }
      ],
      "name": "safeTransferFrom",
      "outputs": [],
      "stateMutability": "nonpayable",
      "type": "function"
    },
    {
      "inputs": [
        {
          "internalType": "uint256",
          "name": "",
          "type": "uint256"
        }
      ],
      "name": "seeds",
      "outputs": [
        {
          "internalType": "uint256",
          "name": "",
          "type": "uint256"
        }
      ],
      "stateMutability": "view",
      "type": "function"
    },
    {
      "inputs": [
        {
          "internalType": "address",
          "name": "operator",
          "type": "address"
        },
        {
          "internalType": "bool",
          "name": "approved",
          "type": "bool"
        }
      ],
      "name": "setApprovalForAll",
      "outputs": [],
      "stateMutability": "nonpayable",
      "type": "function"
    },
    {
      "inputs": [],
      "name": "startTime",
      "outputs": [
        {
          "internalType": "uint256",
          "name": "",
          "type": "uint256"
        }
      ],
      "stateMutability": "view",
      "type": "function"
    },
    {
      "inputs": [
        {
          "internalType": "bytes4",
          "name": "interfaceId",
          "type": "bytes4"
        }
      ],
      "name": "supportsInterface",
      "outputs": [
        {
          "internalType": "bool",
          "name": "",
          "type": "bool"
        }
      ],
      "stateMutability": "view",
      "type": "function"
    },
    {
      "inputs": [],
      "name": "symbol",
      "outputs": [
        {
          "internalType": "string",
          "name": "",
          "type": "string"
        }
      ],
      "stateMutability": "view",
      "type": "function"
    },
    {
      "inputs": [],
      "name": "targetPrice",
      "outputs": [
        {
          "internalType": "int256",
          "name": "",
          "type": "int256"
        }
      ],
      "stateMutability": "view",
      "type": "function"
    },
    {
      "inputs": [
        {
          "internalType": "uint256",
          "name": "tokenId",
          "type": "uint256"
        }
      ],
      "name": "tokenURI",
      "outputs": [
        {
          "internalType": "string",
          "name": "",
          "type": "string"
        }
      ],
      "stateMutability": "view",
      "type": "function"
    },
    {
      "inputs": [],
      "name": "totalSold",
      "outputs": [
        {
          "internalType": "uint256",
          "name": "",
          "type": "uint256"
        }
      ],
      "stateMutability": "view",
      "type": "function"
    },
    {
      "inputs": [
        {
          "internalType": "address",
          "name": "from",
          "type": "address"
        },
        {
          "internalType": "address",
          "name": "to",
          "type": "address"
        },
        {
          "internalType": "uint256",
          "name": "tokenId",
          "type": "uint256"
        }
      ],
      "name": "transferFrom",
      "outputs": [],
      "stateMutability": "nonpayable",
      "type": "function"
    }
  ],
  "bytecode": {
    "object": "0x6101006040524260e0523480156200001657600080fd5b5066038d7ea4c6800066b1a2bc2ec50000670de0b6b3a76400008282604051806040016040528060118152602001704d657263757269616c732028546573742960781b815250604051806040016040528060048152602001634d45524360e01b81525081600090816200008a9190620003f9565b506001620000998282620003f9565b5050506080829052620000bf620000b982670de0b6b3a7640000620004c5565b6200012b565b60a0819052600013620001195760405162461bcd60e51b815260206004820152601b60248201527f4e4f4e5f4e454741544956455f44454341595f434f4e5354414e54000000000060448201526064015b60405180910390fd5b505060c05250506001600655620004fb565b60008082136200016a5760405162461bcd60e51b815260206004820152600960248201526815539111519253915160ba1b604482015260640162000110565b5060606001600160801b03821160071b82811c6001600160401b031060061b1782811c63ffffffff1060051b1782811c61ffff1060041b1782811c60ff10600390811b90911783811c600f1060021b1783811c909110600190811b90911783811c90911017609f81810383019390931b90921c6c465772b2bbbb5f824b15207a3081018102821d6d0388eaa27412d5aca026815d636e018102821d6d0df99ac502031bf953eff472fdcc018102821d6d13cdffb29d51d99322bdff5f2211018102821d6d0a0f742023def783a307a986912e018102821d6d01920d8043ca89b5239253284e42018102821d6c0b7a86d7375468fac667a0a527016c29508e458543d8aa4df2abee7882018202831d6d0139601a2efabe717e604cbb4894018202831d6d02247f7a7b6594320649aa03aba1018202831d6c8c3f38e95a6b1ff2ab1c3b343619018202831d6d02384773bdf1ac5676facced60901901820290921d6cb9a025d814b29c212b8b1a07cd19010260016c0504a838426634cdd8738f543560611b03190105711340daa0d5f769dba1915cef59f0815a550602605f19919091017d0267a36c0c95b3975ab3ee5b203a7614a3f75373f047d803ae7b6687f2b302017d57115e47018c7177eebf7cd370a3356a1b7863008a5ae8028c72b88642840160ae1d90565b634e487b7160e01b600052604160045260246000fd5b600181811c908216806200037f57607f821691505b602082108103620003a057634e487b7160e01b600052602260045260246000fd5b50919050565b601f821115620003f457600081815260208120601f850160051c81016020861015620003cf5750805b601f850160051c820191505b81811015620003f057828155600101620003db565b5050505b505050565b81516001600160401b0381111562000415576200041562000354565b6200042d816200042684546200036a565b84620003a6565b602080601f8311600181146200046557600084156200044c5750858301515b600019600386901b1c1916600185901b178555620003f0565b600085815260208120601f198616915b82811015620004965788860151825594840194600190910190840162000475565b5085821015620004b55787850151600019600388901b60f8161c191681555b5050505050600190811b01905550565b8181036000831280158383131683831282161715620004f457634e487b7160e01b600052601160045260246000fd5b5092915050565b60805160a05160c05160e0516134ae6200054a600039600081816102fe015281816108ef0152610a780152600061099a01526000610c2c0152600081816103e30152610c0501526134ae6000f3fe6080604052600436106101405760003560e01c806370a08231116100b6578063b88d4fde1161006f578063b88d4fde14610391578063c87b56dd146103b1578063dc38679c146103d1578063e985e9c514610405578063f0503e8014610425578063f466d4ab1461045257600080fd5b806370a08231146102cc57806378e97925146102ec5780639106d7ba146103205780639499ac541461033657806395d89b411461035c578063a22cb4651461037157600080fd5b806323b872dd1161010857806323b872dd14610209578063424611c31461022957806342842e0e146102575780634718121a146102775780636352211e1461028c5780636d9d33b7146102ac57600080fd5b806301ffc9a71461014557806306fdde031461017a578063081812fc1461019c578063095ea7b3146101d45780631801fbe5146101f6575b600080fd5b34801561015157600080fd5b50610165610160366004612089565b610472565b60405190151581526020015b60405180910390f35b34801561018657600080fd5b5061018f6104c4565b60405161017191906120f6565b3480156101a857600080fd5b506101bc6101b7366004612109565b610556565b6040516001600160a01b039091168152602001610171565b3480156101e057600080fd5b506101f46101ef36600461213e565b61057d565b005b6101f4610204366004612168565b610697565b34801561021557600080fd5b506101f461022436600461218a565b610837565b34801561023557600080fd5b50610249610244366004612109565b610868565b604051908152602001610171565b34801561026357600080fd5b506101f461027236600461218a565b6108c7565b34801561028357600080fd5b506102496108e2565b34801561029857600080fd5b506101bc6102a7366004612109565b610936565b3480156102b857600080fd5b506102496102c7366004612109565b610996565b3480156102d857600080fd5b506102496102e73660046121c6565b6109ca565b3480156102f857600080fd5b506102497f000000000000000000000000000000000000000000000000000000000000000081565b34801561032c57600080fd5b5061024960075481565b34801561034257600080fd5b5061034b610a50565b6040516101719594939291906121e1565b34801561036857600080fd5b5061018f610aff565b34801561037d57600080fd5b506101f461038c366004612217565b610b0e565b34801561039d57600080fd5b506101f46103ac366004612269565b610b19565b3480156103bd57600080fd5b5061018f6103cc366004612109565b610b51565b3480156103dd57600080fd5b506102497f000000000000000000000000000000000000000000000000000000000000000081565b34801561041157600080fd5b50610165610420366004612345565b610bd0565b34801561043157600080fd5b50610249610440366004612109565b60086020526000908152604090205481565b34801561045e57600080fd5b5061024961046d366004612168565b610bfe565b60006001600160e01b031982166380ac58cd60e01b14806104a357506001600160e01b03198216635b5e139f60e01b145b806104be57506301ffc9a760e01b6001600160e01b03198316145b92915050565b6060600080546104d390612378565b80601f01602080910402602001604051908101604052809291908181526020018280546104ff90612378565b801561054c5780601f106105215761010080835404028352916020019161054c565b820191906000526020600020905b81548152906001019060200180831161052f57829003601f168201915b5050505050905090565b600061056182610c7c565b506000908152600460205260409020546001600160a01b031690565b600061058882610936565b9050806001600160a01b0316836001600160a01b0316036105fa5760405162461bcd60e51b815260206004820152602160248201527f4552433732313a20617070726f76616c20746f2063757272656e74206f776e656044820152603960f91b60648201526084015b60405180910390fd5b336001600160a01b038216148061061657506106168133610bd0565b6106885760405162461bcd60e51b815260206004820152603d60248201527f4552433732313a20617070726f76652063616c6c6572206973206e6f7420746f60448201527f6b656e206f776e6572206f7220617070726f76656420666f7220616c6c00000060648201526084016105f1565b6106928383610cde565b505050565b61069f610d4c565b60056106ac6001436123c8565b6106b691906123f1565b6106c16001436123c8565b6106cb91906123c8565b40811461070e5760405162461bcd60e51b8152602060048201526011602482015270092dcecc2d8d2c840c4d8dec6d6d0c2e6d607b1b60448201526064016105f1565b60075482146107525760405162461bcd60e51b815260206004820152601060248201526f125b9d985b1a59081d1bdad95b88125160821b60448201526064016105f1565b600061075c6108e2565b9050803410156107a35760405162461bcd60e51b8152602060048201526012602482015271496e73756666696369656e742066756e647360701b60448201526064016105f1565b6107ad3384610da5565b604051818152339084907f2d03118aa776f7008445f6ca8490a6782ede2db364d741513555ba656ab1879f9060200160405180910390a36001600760008282546107f79190612405565b90915550610806905083610868565b6000848152600860205260409020556108283361082383346123c8565b610f30565b506108336001600655565b5050565b6108413382610f81565b61085d5760405162461bcd60e51b81526004016105f190612418565b610692838383610fe0565b600060056108776001436123c8565b61088191906123f1565b61088c6001436123c8565b61089691906123c8565b6040805191406020830152810183905260600160408051601f19818403018152919052805160209091012092915050565b61069283838360405180602001604052806000815250610b19565b60006109316109296109147f0000000000000000000000000000000000000000000000000000000000000000426123c8565b62015180670de0b6b3a7640000919091020490565b600754610bfe565b905090565b6000818152600260205260408120546001600160a01b0316806104be5760405162461bcd60e51b8152602060048201526018602482015277115490cdcc8c4e881a5b9d985b1a59081d1bdad95b88125160421b60448201526064016105f1565b60007f0000000000000000000000000000000000000000000000000000000000000000670de0b6b3a76400008302056104be565b60006001600160a01b038216610a345760405162461bcd60e51b815260206004820152602960248201527f4552433732313a2061646472657373207a65726f206973206e6f7420612076616044820152683634b21037bbb732b960b91b60648201526084016105f1565b506001600160a01b031660009081526003602052604090205490565b600754606060008080610a6b610a6586610868565b86611144565b9350610aa3610a9d6109147f0000000000000000000000000000000000000000000000000000000000000000426123c8565b86610bfe565b92506005610ab26001436123c8565b610abc91906123f1565b610ac76001436123c8565b610ad191906123c8565b4091506005610ae16001436123c8565b610aeb91906123f1565b610af69060056123c8565b90509091929394565b6060600180546104d390612378565b6108333383836111bb565b610b233383610f81565b610b3f5760405162461bcd60e51b81526004016105f190612418565b610b4b84848484611289565b50505050565b6000818152600260205260409020546060906001600160a01b0316610bb05760405162461bcd60e51b81526020600482015260156024820152742a37b5b2b7103237b2b9903737ba1032bc34b9ba1760591b60448201526064016105f1565b600082815260086020526040902054610bc98184611144565b9392505050565b6001600160a01b03918216600090815260056020908152604080832093909416825291909152205460ff1690565b6000610bc97f0000000000000000000000000000000000000000000000000000000000000000610c77610c727f0000000000000000000000000000000000000000000000000000000000000000610c61670de0b6b3a76400006001890102610996565b8803670de0b6b3a764000091020590565b6112bc565b611465565b6000818152600260205260409020546001600160a01b0316610cdb5760405162461bcd60e51b8152602060048201526018602482015277115490cdcc8c4e881a5b9d985b1a59081d1bdad95b88125160421b60448201526064016105f1565b50565b600081815260046020526040902080546001600160a01b0319166001600160a01b0384169081179091558190610d1382610936565b6001600160a01b03167f8c5be1e5ebec7d5bd14f71427d1e84f3dd0314c0f7b2291e5b200ac8c7c3b92560405160405180910390a45050565b600260065403610d9e5760405162461bcd60e51b815260206004820152601f60248201527f5265656e7472616e637947756172643a207265656e7472616e742063616c6c0060448201526064016105f1565b6002600655565b6001600160a01b038216610dfb5760405162461bcd60e51b815260206004820181905260248201527f4552433732313a206d696e7420746f20746865207a65726f206164647265737360448201526064016105f1565b6000818152600260205260409020546001600160a01b031615610e605760405162461bcd60e51b815260206004820152601c60248201527f4552433732313a20746f6b656e20616c7265616479206d696e7465640000000060448201526064016105f1565b6000818152600260205260409020546001600160a01b031615610ec55760405162461bcd60e51b815260206004820152601c60248201527f4552433732313a20746f6b656e20616c7265616479206d696e7465640000000060448201526064016105f1565b6001600160a01b038216600081815260036020908152604080832080546001019055848352600290915280822080546001600160a01b0319168417905551839291907fddf252ad1be2c89b69c2b068fc378daa952ba7f163c4a11628f55a4df523b3ef908290a45050565b600080600080600085875af19050806106925760405162461bcd60e51b815260206004820152601360248201527211551217d514905394d1915497d19052531151606a1b60448201526064016105f1565b600080610f8d83610936565b9050806001600160a01b0316846001600160a01b03161480610fb45750610fb48185610bd0565b80610fd85750836001600160a01b0316610fcd84610556565b6001600160a01b0316145b949350505050565b826001600160a01b0316610ff382610936565b6001600160a01b0316146110195760405162461bcd60e51b81526004016105f190612465565b6001600160a01b03821661107b5760405162461bcd60e51b8152602060048201526024808201527f4552433732313a207472616e7366657220746f20746865207a65726f206164646044820152637265737360e01b60648201526084016105f1565b826001600160a01b031661108e82610936565b6001600160a01b0316146110b45760405162461bcd60e51b81526004016105f190612465565b600081815260046020908152604080832080546001600160a01b03199081169091556001600160a01b0387811680865260038552838620805460001901905590871680865283862080546001019055868652600290945282852080549092168417909155905184937fddf252ad1be2c89b69c2b068fc378daa952ba7f163c4a11628f55a4df523b3ef91a4505050565b60606000806111528561148a565b9150915061119261116285611551565b61116b846115e4565b8360405160200161117e939291906124aa565b6040516020818303038152906040526115e4565b6040516020016111a291906125cb565b6040516020818303038152906040529250505092915050565b816001600160a01b0316836001600160a01b03160361121c5760405162461bcd60e51b815260206004820152601960248201527f4552433732313a20617070726f766520746f2063616c6c65720000000000000060448201526064016105f1565b6001600160a01b03838116600081815260056020908152604080832094871680845294825291829020805460ff191686151590811790915591519182527f17307eab39ab6107e8899845ad3d59bd9653f200f220920489ca2b5937696c31910160405180910390a3505050565b611294848484610fe0565b6112a084848484611737565b610b4b5760405162461bcd60e51b81526004016105f190612610565b6000680248ce36a70cb26b3e1982136112d757506000919050565b680755bf798b4a1bf1e5821261131e5760405162461bcd60e51b815260206004820152600c60248201526b4558505f4f564552464c4f5760a01b60448201526064016105f1565b6503782dace9d9604e83901b059150600060606bb17217f7d1cf79abc9e3b39884821b056001605f1b01901d6bb17217f7d1cf79abc9e3b39881029093036c240c330e9fb2d9cbaf0fd5aafb1981018102606090811d6d0277594991cfc85f6e2461837cd9018202811d6d1a521255e34f6a5061b25ef1c9c319018202811d6db1bbb201f443cf962f1a1d3db4a5018202811d6e02c72388d9f74f51a9331fed693f1419018202811d6e05180bb14799ab47a8a8cb2a527d57016d02d16720577bd19bf614176fe9ea6c10fe68e7fd37d0007b713f765084018402831d9081019084016d01d3967ed30fc4f89c02bab5708119010290911d6e0587f503bb6ea29d25fcb740196450019091026d360d7aeea093263ecc6e0ecb291760621b010574029d9dc38563c32e5c2f6dc192ee70ef65f9978af30260c3939093039290921c92915050565b818102821583820583141761147957600080fd5b670de0b6b3a7640000900592915050565b60608060006114998482611838565b90935091506060806114ab86846118b7565b945090925090506060806114bf888661192a565b965090925090506060806114d38a88611aa5565b985090925090506060806114e78c8a611b43565b604051909b509193509150611508908c908a90899088908790602001612662565b6040516020818303038152906040529a508987868584604051602001611532959493929190612795565b6040516020818303038152906040529950505050505050505050915091565b6060600061155e83611be9565b600101905060008167ffffffffffffffff81111561157e5761157e612253565b6040519080825280601f01601f1916602001820160405280156115a8576020820181803683370190505b5090508181016020015b600019016f181899199a1a9b1b9c1cb0b131b232b360811b600a86061a8153600a85049450846115b257509392505050565b6060815160000361160357505060408051602081019091526000815290565b600060405180606001604052806040815260200161343960409139905060006003845160026116329190612405565b61163c9190612800565b611647906004612814565b67ffffffffffffffff81111561165f5761165f612253565b6040519080825280601f01601f191660200182016040528015611689576020820181803683370190505b509050600182016020820185865187015b808210156116f5576003820191508151603f8160121c168501518453600184019350603f81600c1c168501518453600184019350603f8160061c168501518453600184019350603f811685015184535060018301925061169a565b505060038651066001811461171157600281146117245761172c565b603d6001830353603d600283035361172c565b603d60018303535b509195945050505050565b60006001600160a01b0384163b1561182d57604051630a85bd0160e11b81526001600160a01b0385169063150b7a029061177b90339089908890889060040161282b565b6020604051808303816000875af19250505080156117b6575060408051601f3d908101601f191682019092526117b391810190612868565b60015b611813573d8080156117e4576040519150601f19603f3d011682016040523d82523d6000602084013e6117e9565b606091505b50805160000361180b5760405162461bcd60e51b81526004016105f190612610565b805181602001fd5b6001600160e01b031916630a85bd0160e11b149050610fd8565b506001949350505050565b6060806060806118488686611cc1565b9650909250905060608061185c8888611db9565b60405190995091935091506118779085908490602001612885565b6040516020818303038152906040529550828160405160200161189b92919061294b565b6040516020818303038152906040529450505050509250929050565b6060806000806118cb600160198888611e87565b9550905060006118da82611551565b9050806040516020016118ed919061297a565b60405160208183030381529060405294508060405160200161190f9190612a53565b60408051808303601f19018152919052949794965050505050565b6060806000806060611940600060338989611e87565b96509150600a82101561197c5761195682611551565b6040516020016119669190612ac3565b60405160208183030381529060405290506119a7565b61198582611551565b6040516020016119959190612aee565b60405160208183030381529060405290505b606060006119b58989611efc565b9850905080156119fc57826040516020016119d09190612b18565b60408051601f1981840301815282820190915260038252621bdd5d60ea1b602083015293509150611a51565b611a068989611efc565b985090508015611a3357604051806040016040528060038152602001621bdd5d60ea1b8152509150611a51565b6040518060400160405280600281526020016134b760f11b81525091505b8183604051602001611a64929190612b41565b60405160208183030381529060405296508282604051602001611a88929190612c2d565b60408051808303601f190181529190529699969850505050505050565b6060806000806060611abb600160048989611e87565b96509150611ac882611551565b90506060611ada6005600b8a8a611e87565b97509250611ae783611551565b90506060611af9600360158b8b611e87565b98509350611b0684611551565b9050828282604051602001611b1d93929190612cdf565b6040516020818303038152906040529650828282604051602001611a8893929190612de2565b606080600080611b538686611efc565b955090508015611b79576040518060800160405280605281526020016133e76052913993505b80611ba1576040518060400160405280600581526020016466616c736560d81b815250611bbf565b604051806040016040528060048152602001637472756560e01b8152505b604051602001611bcf9190612ef8565b60408051808303601f190181529190529396939550505050565b60008072184f03e93ff9f4daa797ed6e38ed64bf6a1f0160401b8310611c285772184f03e93ff9f4daa797ed6e38ed64bf6a1f0160401b830492506040015b6d04ee2d6d415b85acef81000000008310611c54576d04ee2d6d415b85acef8100000000830492506020015b662386f26fc100008310611c7257662386f26fc10000830492506010015b6305f5e1008310611c8a576305f5e100830492506008015b6127108310611c9e57612710830492506004015b60648310611cb0576064830492506002015b600a83106104be5760010192915050565b606080600080611cd6603261015f8888611e87565b9550905060606064821015611d1457611cee82611551565b604051602001611cfe9190612f58565b6040516020818303038152906040529050611d3f565b611d1d82611551565b604051602001611d2d9190612ac3565b60405160208183030381529060405290505b6060611d50600160058a6000611e87565b97509250611d5d83611551565b90506060611d716000620100008b8b611e87565b98509350611d7e84611551565b9050828282604051602001611d9593929190612f84565b60405160208183030381529060405296508282604051602001611a88929190613031565b60608060006060611dca8686611f5a565b955090506000611dde600160518989611e87565b965090506000611ded82611551565b604051602001611dfd91906130ec565b6040516020818303038152906040529050611e1c600360088a8a611e87565b975091506000611e2b83611551565b604051602001611e3b9190612aee565b6040516020818303038152906040529050838183604051602001611e6193929190613111565b6040516020818303038152906040529650838282604051602001611a889392919061325d565b60008060008484604051602001611ea8929190918252602082015260400190565b60408051601f198184030181529190528051602090910120905083611ecc8161336a565b9450879050611edb81886123c8565b611ee590836123f1565b611eef9190612405565b9793965092945050505050565b60008060008484604051602001611f1d929190918252602082015260400190565b60408051601f198184030181529190528051602090910120905083611f418161336a565b9450611f5090506002826123f1565b1595939450505050565b60606000806000611f6f600060c98888611e87565b95509150611f7d8686611efc565b95509050600080611f92603260fb8a8a611e87565b97509150611fa08888611efc565b9750905060008082151585151503611fc657611fbc8487612405565b9150849050611fe8565b83861115611fd857611fbc84876123c8565b611fe286856123c8565b91508290505b6000611ff48787612033565b9050806120018484612033565b8260405160200161201493929190613383565b60408051808303601f190181529190529b999a50505050505050505050565b6060811561206a5761204483611551565b6040516020016120549190612b18565b60405160208183030381529060405290506104be565b610bc983611551565b6001600160e01b031981168114610cdb57600080fd5b60006020828403121561209b57600080fd5b8135610bc981612073565b60005b838110156120c15781810151838201526020016120a9565b50506000910152565b600081518084526120e28160208601602086016120a6565b601f01601f19169290920160200192915050565b602081526000610bc960208301846120ca565b60006020828403121561211b57600080fd5b5035919050565b80356001600160a01b038116811461213957600080fd5b919050565b6000806040838503121561215157600080fd5b61215a83612122565b946020939093013593505050565b6000806040838503121561217b57600080fd5b50508035926020909101359150565b60008060006060848603121561219f57600080fd5b6121a884612122565b92506121b660208501612122565b9150604084013590509250925092565b6000602082840312156121d857600080fd5b610bc982612122565b85815260a0602082015260006121fa60a08301876120ca565b604083019590955250606081019290925260809091015292915050565b6000806040838503121561222a57600080fd5b61223383612122565b91506020830135801515811461224857600080fd5b809150509250929050565b634e487b7160e01b600052604160045260246000fd5b6000806000806080858703121561227f57600080fd5b61228885612122565b935061229660208601612122565b925060408501359150606085013567ffffffffffffffff808211156122ba57600080fd5b818701915087601f8301126122ce57600080fd5b8135818111156122e0576122e0612253565b604051601f8201601f19908116603f0116810190838211818310171561230857612308612253565b816040528281528a602084870101111561232157600080fd5b82602086016020830137600060208483010152809550505050505092959194509250565b6000806040838503121561235857600080fd5b61236183612122565b915061236f60208401612122565b90509250929050565b600181811c9082168061238c57607f821691505b6020821081036123ac57634e487b7160e01b600052602260045260246000fd5b50919050565b634e487b7160e01b600052601160045260246000fd5b818103818111156104be576104be6123b2565b634e487b7160e01b600052601260045260246000fd5b600082612400576124006123db565b500690565b808201808211156104be576104be6123b2565b6020808252602d908201527f4552433732313a2063616c6c6572206973206e6f7420746f6b656e206f776e6560408201526c1c881bdc88185c1c1c9bdd9959609a1b606082015260800190565b60208082526025908201527f4552433732313a207472616e736665722066726f6d20696e636f72726563742060408201526437bbb732b960d91b606082015260800190565b757b20226e616d65223a20224d657263757269616c202360501b815283516000906124dc8160168501602089016120a6565b7f222c20226465736372697074696f6e223a20224d657263757269616c732069736016918401918201527f20616e206f6e2d636861696e2067656e65726174697665206172742070726f6a60368201527f6563742e222c2022696d616765223a2022646174613a696d6167652f7376672b60568201526a1e1b5b0ed8985cd94d8d0b60aa1b607682015284516125798160818401602089016120a6565b7201116101130ba3a3934b13aba32b9911d102d9606d1b6081929091019182015283516125ad8160948401602088016120a6565b63205d207d60e01b6094929091019182015260980195945050505050565b7f646174613a6170706c69636174696f6e2f6a736f6e3b6261736536342c00000081526000825161260381601d8501602087016120a6565b91909101601d0192915050565b60208082526032908201527f4552433732313a207472616e7366657220746f206e6f6e20455243373231526560408201527131b2b4bb32b91034b6b83632b6b2b73a32b960711b606082015260800190565b6000865160206126758285838c016120a6565b8751918401916126888184848c016120a6565b7f3c6665436f6c6f724d617472697820747970653d226d6174726978222072657392019182527f756c743d2263222076616c7565733d2230203020302030203020302030203020818301527f3020302030203020302030203020312030203020302030222f3e0000000000006040830152865161270b81605a85018a85016120a6565b865192019161272081605a8501848a016120a6565b855192019161273581605a85018489016120a6565b7f3c2f66696c7465723e3c726563742077696474683d2233353022206865696768605a9390910192830152507f743d22333530222066696c7465723d2275726c28236129222f3e3c2f7376673e607a820152609a01979650505050505050565b600086516127a7818460208b016120a6565b8651908301906127bb818360208b016120a6565b86519101906127ce818360208a016120a6565b85519101906127e18183602089016120a6565b84519101906127f48183602088016120a6565b01979650505050505050565b60008261280f5761280f6123db565b500490565b80820281158282048414176104be576104be6123b2565b6001600160a01b038581168252841660208201526040810183905260806060820181905260009061285e908301846120ca565b9695505050505050565b60006020828403121561287a57600080fd5b8151610bc981612073565b7f3c7376672077696474683d2233353022206865696768743d223335302220766581527f7273696f6e3d22312e31222076696577426f783d22323520323520333030203360208201527f30302220786d6c6e733d22687474703a2f2f7777772e77332e6f72672f3230306040820152751817b9bb33911f1e3334b63a32b91034b21e9130911f60511b6060820152600083516129288160768501602088016120a6565b83519083019061293f8160768401602088016120a6565b01607601949350505050565b6000835161295d8184602088016120a6565b8351908301906129718183602088016120a6565b01949350505050565b7f3c6665436f6c6f724d617472697820747970653d22687565526f74617465222081527f726573756c743d2262223e3c616e696d617465206174747269627574654e616d60208201527f653d2276616c756573222066726f6d3d22302220746f3d2233363022206475726040820152611e9160f11b606082015260008251612a098160628501602087016120a6565b7f732220726570656174436f756e743d22696e646566696e697465222f3e3c2f6660629390910192830152506c32a1b7b637b926b0ba3934bc1f60991b6082820152608f01919050565b7f7b202274726169745f74797065223a202248756520526f7461746520416e696d81527130ba34b7b7111610113b30b63ab2911d101160711b602082015260008251612aa68160328501602087016120a6565b6503991103e96160d51b6032939091019283015250603801919050565b620302e360ec1b815260008251612ae18160038501602087016120a6565b9190910160030192915050565b61181760f11b815260008251612b0b8160028501602087016120a6565b9190910160020192915050565b602d60f81b815260008251612b348160018501602087016120a6565b9190910160010192915050565b7f3c6665436f6d706f7369746520696e3d22622220696e323d226322206f70657281526530ba37b91e9160d11b602082015260008351612b888160268501602088016120a6565b7f2220726573756c743d2264222f3e3c6665436f6d706f7369746520696e3d22646026918401918201527f2220696e323d226422206f70657261746f723d2261726974686d65746963222060468201527f6b313d223122206b323d223122206b333d223122206b343d220000000000000060668201528351612c1181607f8401602088016120a6565b6211179f60e91b607f9290910191820152608201949350505050565b7f7b202274726169745f74797065223a20224b34222c202276616c7565223a2022815260008351612c658160208501602088016120a6565b80830190507f22207d2c207b202274726169745f74797065223a2022436f6d706f736974652060208201527427b832b930ba37b9111610113b30b63ab2911d101160591b60408201528351612cc18160558401602088016120a6565b64011103e96160dd1b60559290910191820152605a01949350505050565b7f3c6665446966667573654c69676874696e67206c69676874696e672d636f6c6f81527f723d2223666666222064696666757365436f6e7374616e743d22000000000000602082015260008451612d3d81603a8501602089016120a6565b6f111039bab93330b1b2a9b1b0b6329e9160811b603a918401918201528451612d6d81604a8401602089016120a6565b7f223e3c666544697374616e744c6967687420656c65766174696f6e3d22000000604a92909101918201528351612dab8160678401602088016120a6565b7f222f3e3c2f6665446966667573654c69676874696e673e00000000000000000060679290910191820152607e0195945050505050565b7f7b202274726169745f74797065223a20224469666675736520436f6e7374616e81526d3a111610113b30b63ab2911d101160911b602082015260008451612e3181602e8501602089016120a6565b7f22207d2c207b202274726169745f74797065223a202253757266616365205363602e918401918201526f30b632911610113b30b63ab2911d101160811b604e8201528451612e8781605e8401602089016120a6565b7f22207d2c207b202274726169745f74797065223a2022456c65766174696f6e22605e92909101918201526b1610113b30b63ab2911d101160a11b607e8201528351612eda81608a8401602088016120a6565b6308881f4b60e21b608a9290910191820152608e0195945050505050565b7f7b202274726169745f74797065223a2022496e766572746564222c202276616c81526403ab2911d160dd1b602082015260008251612f3e8160258501602087016120a6565b620103e960ed1b6025939091019283015250602801919050565b630302e30360e41b815260008251612f778160048501602087016120a6565b9190910160040192915050565b7f3c666554757262756c656e636520626173654672657175656e63793d22000000815260008451612fbc81601d8501602089016120a6565b6d1110373ab6a7b1ba30bb32b99e9160911b601d918401918201528451612fea81602b8401602089016120a6565b67111039b2b2b21e9160c11b602b929091019182015283516130138160338401602088016120a6565b631110179f60e11b6033929091019182015260370195945050505050565b7f7b202274726169745f74797065223a202242617365204672657175656e63792281526b1610113b30b63ab2911d101160a11b60208201526000835161307e81602c8501602088016120a6565b7f22207d2c207b202274726169745f74797065223a20224f637461766573222c20602c9184019182015269113b30b63ab2911d101160b11b604c82015283516130ce8160568401602088016120a6565b64011103e96160dd1b60569290910191820152605b01949350505050565b600082516130fe8184602087016120a6565b607360f81b920191825250600101919050565b7f3c6665446973706c6163656d656e744d61703e3c616e696d617465206174747281527f69627574654e616d653d227363616c65222076616c7565733d2200000000000060208201526000845161316f81603a8501602089016120a6565b6e0111035b2bcaa34b6b2b99e91181d9608d1b603a91840191820152845161319e8160498401602089016120a6565b691d90189110323ab91e9160b11b6049929091019182015283516131c98160538401602088016120a6565b7f2220726570656174436f756e743d22696e646566696e697465222063616c634d605392909101918201527f6f64653d2273706c696e6522206b657953706c696e65733d22302e332030203060738201527f2e3720313b20302e33203020302e372031222f3e3c2f6665446973706c61636560938201526736b2b73a26b0b81f60c11b60b382015260bb0195945050505050565b7f7b202274726169745f74797065223a20225363616c65222c202276616c7565228152621d101160e91b6020820152600084516132a18160238501602089016120a6565b7f22207d2c207b202274726169745f74797065223a20225363616c6520416e696d6023918401918201527130ba34b7b7111610113b30b63ab2911d101160711b604382015284516132f98160558401602089016120a6565b7f22207d2c207b202274726169745f74797065223a20224b65792054696d65222c605592909101918201526a10113b30b63ab2911d101160a91b6075820152835161334b8160808401602088016120a6565b64011103e96160dd1b6080929091019182015260850195945050505050565b60006001820161337c5761337c6123b2565b5060010190565b600084516133958184602089016120a6565b8083019050603b60f81b80825285516133b5816001850160208a016120a6565b6001920191820181905284516133d28160028501602089016120a6565b60029201918201526003019594505050505056fe3c6665436f6c6f724d617472697820747970653d226d6174726978222076616c7565733d222d3120302030203020312030202d3120302030203120302030202d312030203120302030203020312030222f3e4142434445464748494a4b4c4d4e4f505152535455565758595a6162636465666768696a6b6c6d6e6f707172737475767778797a303132333435363738392b2fa264697066735822122082b44203a6e358e5d30dd04c5a360dda1f34d6f9bf2589334855b51bbbe3f5cf64736f6c63430008130033",
    "linkReferences": {}
  },
  "methodIdentifiers": {
    "approve(address,uint256)": "095ea7b3",
    "balanceOf(address)": "70a08231",
    "generateSeed(uint256)": "424611c3",
    "getApproved(uint256)": "081812fc",
    "getCurrentVRGDAPrice()": "4718121a",
    "getTargetSaleTime(int256)": "6d9d33b7",
    "getVRGDAPrice(int256,uint256)": "f466d4ab",
    "isApprovedForAll(address,address)": "e985e9c5",
    "mint(uint256,bytes32)": "1801fbe5",
    "name()": "06fdde03",
    "nextToken()": "9499ac54",
    "ownerOf(uint256)": "6352211e",
    "safeTransferFrom(address,address,uint256)": "42842e0e",
    "safeTransferFrom(address,address,uint256,bytes)": "b88d4fde",
    "seeds(uint256)": "f0503e80",
    "setApprovalForAll(address,bool)": "a22cb465",
    "startTime()": "78e97925",
    "supportsInterface(bytes4)": "01ffc9a7",
    "symbol()": "95d89b41",
    "targetPrice()": "dc38679c",
    "tokenURI(uint256)": "c87b56dd",
    "totalSold()": "9106d7ba",
    "transferFrom(address,address,uint256)": "23b872dd"
  },
  "id": 34
}