{
  "abi": [
    {
      "inputs": [],
      "stateMutability": "nonpayable",
      "type": "constructor"
    },
    {
      "anonymous": false,
      "inputs": [
        {
          "indexed": true,
          "internalType": "address",
          "name": "owner",
          "type": "address"
        },
        {
          "indexed": true,
          "internalType": "address",
          "name": "approved",
          "type": "address"
        },
        {
          "indexed": true,
          "internalType": "uint256",
          "name": "tokenId",
          "type": "uint256"
        }
      ],
      "name": "Approval",
      "type": "event"
    },
    {
      "anonymous": false,
      "inputs": [
        {
          "indexed": true,
          "internalType": "address",
          "name": "owner",
          "type": "address"
        },
        {
          "indexed": true,
          "internalType": "address",
          "name": "operator",
          "type": "address"
        },
        {
          "indexed": false,
          "internalType": "bool",
          "name": "approved",
          "type": "bool"
        }
      ],
      "name": "ApprovalForAll",
      "type": "event"
    },
    {
      "anonymous": false,
      "inputs": [
        {
          "indexed": true,
          "internalType": "address",
          "name": "from",
          "type": "address"
        },
        {
          "indexed": true,
          "internalType": "address",
          "name": "to",
          "type": "address"
        },
        {
          "indexed": true,
          "internalType": "uint256",
          "name": "tokenId",
          "type": "uint256"
        }
      ],
      "name": "Transfer",
      "type": "event"
    },
    {
      "inputs": [
        {
          "internalType": "address",
          "name": "to",
          "type": "address"
        },
        {
          "internalType": "uint256",
          "name": "tokenId",
          "type": "uint256"
        }
      ],
      "name": "approve",
      "outputs": [],
      "stateMutability": "nonpayable",
      "type": "function"
    },
    {
      "inputs": [
        {
          "internalType": "address",
          "name": "owner",
          "type": "address"
        }
      ],
      "name": "balanceOf",
      "outputs": [
        {
          "internalType": "uint256",
          "name": "",
          "type": "uint256"
        }
      ],
      "stateMutability": "view",
      "type": "function"
    },
    {
      "inputs": [
        {
          "internalType": "string",
          "name": "feTurbulence",
          "type": "string"
        },
        {
          "internalType": "string",
          "name": "staticFeDisplacementMap",
          "type": "string"
        },
        {
          "internalType": "string",
          "name": "animatedFeDisplacementMap",
          "type": "string"
        },
        {
          "internalType": "string",
          "name": "animatedFeColorMatrix",
          "type": "string"
        },
        {
          "internalType": "string",
          "name": "feComposites",
          "type": "string"
        },
        {
          "internalType": "string",
          "name": "feDiffuseLighting",
          "type": "string"
        },
        {
          "internalType": "string",
          "name": "feColorMatrixForInversion",
          "type": "string"
        }
      ],
      "name": "composeSVGsFromParts",
      "outputs": [
        {
          "internalType": "string",
          "name": "svgImage",
          "type": "string"
        },
        {
          "internalType": "string",
          "name": "svgAnimation",
          "type": "string"
        }
      ],
      "stateMutability": "pure",
      "type": "function"
    },
    {
      "inputs": [
        {
          "internalType": "uint256",
          "name": "seed",
          "type": "uint256"
        }
      ],
      "name": "generateSVG",
      "outputs": [
        {
          "internalType": "string",
          "name": "svgImage",
          "type": "string"
        },
        {
          "internalType": "string",
          "name": "svgAnimation",
          "type": "string"
        },
        {
          "internalType": "string",
          "name": "attributes",
          "type": "string"
        }
      ],
      "stateMutability": "pure",
      "type": "function"
    },
    {
      "inputs": [
        {
          "internalType": "uint256",
          "name": "seed",
          "type": "uint256"
        }
      ],
      "name": "generateSVGPartOne",
      "outputs": [
        {
          "internalType": "string",
          "name": "partOne",
          "type": "string"
        },
        {
          "internalType": "string",
          "name": "attributes",
          "type": "string"
        },
        {
          "internalType": "uint256",
          "name": "nonce",
          "type": "uint256"
        }
      ],
      "stateMutability": "pure",
      "type": "function"
    },
    {
      "inputs": [
        {
          "internalType": "uint256",
          "name": "seed",
          "type": "uint256"
        },
        {
          "internalType": "uint256",
          "name": "nonce",
          "type": "uint256"
        },
        {
          "internalType": "string",
          "name": "attributes",
          "type": "string"
        }
      ],
      "name": "generateSVGPartTwo",
      "outputs": [
        {
          "internalType": "string",
          "name": "partTwo",
          "type": "string"
        },
        {
          "internalType": "string",
          "name": "",
          "type": "string"
        },
        {
          "internalType": "uint256",
          "name": "",
          "type": "uint256"
        }
      ],
      "stateMutability": "pure",
      "type": "function"
    },
    {
      "inputs": [
        {
          "internalType": "uint256",
          "name": "tokenId",
          "type": "uint256"
        }
      ],
      "name": "generateSeed",
      "outputs": [
        {
          "internalType": "uint256",
          "name": "",
          "type": "uint256"
        },
        {
          "internalType": "uint8",
          "name": "",
          "type": "uint8"
        }
      ],
      "stateMutability": "view",
      "type": "function"
    },
    {
      "inputs": [
        {
          "internalType": "uint256",
          "name": "tokenId",
          "type": "uint256"
        }
      ],
      "name": "getApproved",
      "outputs": [
        {
          "internalType": "address",
          "name": "",
          "type": "address"
        }
      ],
      "stateMutability": "view",
      "type": "function"
    },
    {
      "inputs": [],
      "name": "getCurrentVRGDAPrice",
      "outputs": [
        {
          "internalType": "uint256",
          "name": "",
          "type": "uint256"
        }
      ],
      "stateMutability": "view",
      "type": "function"
    },
    {
      "inputs": [
        {
          "internalType": "int256",
          "name": "sold",
          "type": "int256"
        }
      ],
      "name": "getTargetSaleTime",
      "outputs": [
        {
          "internalType": "int256",
          "name": "",
          "type": "int256"
        }
      ],
      "stateMutability": "view",
      "type": "function"
    },
    {
      "inputs": [
        {
          "internalType": "int256",
          "name": "timeSinceStart",
          "type": "int256"
        },
        {
          "internalType": "uint256",
          "name": "sold",
          "type": "uint256"
        }
      ],
      "name": "getVRGDAPrice",
      "outputs": [
        {
          "internalType": "uint256",
          "name": "",
          "type": "uint256"
        }
      ],
      "stateMutability": "view",
      "type": "function"
    },
    {
      "inputs": [
        {
          "internalType": "address",
          "name": "owner",
          "type": "address"
        },
        {
          "internalType": "address",
          "name": "operator",
          "type": "address"
        }
      ],
      "name": "isApprovedForAll",
      "outputs": [
        {
          "internalType": "bool",
          "name": "",
          "type": "bool"
        }
      ],
      "stateMutability": "view",
      "type": "function"
    },
    {
      "inputs": [
        {
          "internalType": "uint256",
          "name": "expectedTokenId",
          "type": "uint256"
        },
        {
          "internalType": "bytes32",
          "name": "expectedParentBlockhash",
          "type": "bytes32"
        }
      ],
      "name": "mint",
      "outputs": [],
      "stateMutability": "payable",
      "type": "function"
    },
    {
      "inputs": [],
      "name": "name",
      "outputs": [
        {
          "internalType": "string",
          "name": "",
          "type": "string"
        }
      ],
      "stateMutability": "view",
      "type": "function"
    },
    {
      "inputs": [],
      "name": "nextToken",
      "outputs": [
        {
          "internalType": "uint256",
          "name": "id",
          "type": "uint256"
        },
        {
          "internalType": "string",
          "name": "uri",
          "type": "string"
        },
        {
          "internalType": "uint256",
          "name": "price",
          "type": "uint256"
        },
        {
          "internalType": "bytes32",
          "name": "hash",
          "type": "bytes32"
        },
        {
          "internalType": "uint8",
          "name": "ttl",
          "type": "uint8"
        }
      ],
      "stateMutability": "view",
      "type": "function"
    },
    {
      "inputs": [
        {
          "internalType": "uint256",
          "name": "tokenId",
          "type": "uint256"
        }
      ],
      "name": "ownerOf",
      "outputs": [
        {
          "internalType": "address",
          "name": "",
          "type": "address"
        }
      ],
      "stateMutability": "view",
      "type": "function"
    },
    {
      "inputs": [
        {
          "internalType": "address",
          "name": "from",
          "type": "address"
        },
        {
          "internalType": "address",
          "name": "to",
          "type": "address"
        },
        {
          "internalType": "uint256",
          "name": "tokenId",
          "type": "uint256"
        }
      ],
      "name": "safeTransferFrom",
      "outputs": [],
      "stateMutability": "nonpayable",
      "type": "function"
    },
    {
      "inputs": [
        {
          "internalType": "address",
          "name": "from",
          "type": "address"
        },
        {
          "internalType": "address",
          "name": "to",
          "type": "address"
        },
        {
          "internalType": "uint256",
          "name": "tokenId",
          "type": "uint256"
        },
        {
          "internalType": "bytes",
          "name": "data",
          "type": "bytes"
        }
      ],
      "name": "safeTransferFrom",
      "outputs": [],
      "stateMutability": "nonpayable",
      "type": "function"
    },
    {
      "inputs": [
        {
          "internalType": "uint256",
          "name": "",
          "type": "uint256"
        }
      ],
      "name": "seeds",
      "outputs": [
        {
          "internalType": "uint256",
          "name": "",
          "type": "uint256"
        }
      ],
      "stateMutability": "view",
      "type": "function"
    },
    {
      "inputs": [
        {
          "internalType": "address",
          "name": "operator",
          "type": "address"
        },
        {
          "internalType": "bool",
          "name": "approved",
          "type": "bool"
        }
      ],
      "name": "setApprovalForAll",
      "outputs": [],
      "stateMutability": "nonpayable",
      "type": "function"
    },
    {
      "inputs": [],
      "name": "startTime",
      "outputs": [
        {
          "internalType": "uint256",
          "name": "",
          "type": "uint256"
        }
      ],
      "stateMutability": "view",
      "type": "function"
    },
    {
      "inputs": [
        {
          "internalType": "bytes4",
          "name": "interfaceId",
          "type": "bytes4"
        }
      ],
      "name": "supportsInterface",
      "outputs": [
        {
          "internalType": "bool",
          "name": "",
          "type": "bool"
        }
      ],
      "stateMutability": "view",
      "type": "function"
    },
    {
      "inputs": [],
      "name": "symbol",
      "outputs": [
        {
          "internalType": "string",
          "name": "",
          "type": "string"
        }
      ],
      "stateMutability": "view",
      "type": "function"
    },
    {
      "inputs": [],
      "name": "targetPrice",
      "outputs": [
        {
          "internalType": "int256",
          "name": "",
          "type": "int256"
        }
      ],
      "stateMutability": "view",
      "type": "function"
    },
    {
      "inputs": [
        {
          "internalType": "uint256",
          "name": "tokenId",
          "type": "uint256"
        }
      ],
      "name": "tokenURI",
      "outputs": [
        {
          "internalType": "string",
          "name": "",
          "type": "string"
        }
      ],
      "stateMutability": "view",
      "type": "function"
    },
    {
      "inputs": [],
      "name": "totalSold",
      "outputs": [
        {
          "internalType": "uint256",
          "name": "",
          "type": "uint256"
        }
      ],
      "stateMutability": "view",
      "type": "function"
    },
    {
      "inputs": [
        {
          "internalType": "address",
          "name": "from",
          "type": "address"
        },
        {
          "internalType": "address",
          "name": "to",
          "type": "address"
        },
        {
          "internalType": "uint256",
          "name": "tokenId",
          "type": "uint256"
        }
      ],
      "name": "transferFrom",
      "outputs": [],
      "stateMutability": "nonpayable",
      "type": "function"
    }
  ],
  "bytecode": {
    "object": "0x6101006040524260e0523480156200001657600080fd5b5066038d7ea4c68000662386f26fc1000068270801d946c940000082826040518060400160405280600a8152602001694d657263757269616c7360b01b815250604051806040016040528060048152602001634d45524360e01b8152508160009081620000849190620003ef565b506001620000938282620003ef565b5050506080829052620000b9620000b382670de0b6b3a7640000620004bb565b62000121565b60a0819052600013620001135760405162461bcd60e51b815260206004820152601b60248201527f4e4f4e5f4e454741544956455f44454341595f434f4e5354414e54000000000060448201526064015b60405180910390fd5b505060c05250620004f19050565b6000808213620001605760405162461bcd60e51b815260206004820152600960248201526815539111519253915160ba1b60448201526064016200010a565b5060606001600160801b03821160071b82811c6001600160401b031060061b1782811c63ffffffff1060051b1782811c61ffff1060041b1782811c60ff10600390811b90911783811c600f1060021b1783811c909110600190811b90911783811c90911017609f81810383019390931b90921c6c465772b2bbbb5f824b15207a3081018102821d6d0388eaa27412d5aca026815d636e018102821d6d0df99ac502031bf953eff472fdcc018102821d6d13cdffb29d51d99322bdff5f2211018102821d6d0a0f742023def783a307a986912e018102821d6d01920d8043ca89b5239253284e42018102821d6c0b7a86d7375468fac667a0a527016c29508e458543d8aa4df2abee7882018202831d6d0139601a2efabe717e604cbb4894018202831d6d02247f7a7b6594320649aa03aba1018202831d6c8c3f38e95a6b1ff2ab1c3b343619018202831d6d02384773bdf1ac5676facced60901901820290921d6cb9a025d814b29c212b8b1a07cd19010260016c0504a838426634cdd8738f543560611b03190105711340daa0d5f769dba1915cef59f0815a550602605f19919091017d0267a36c0c95b3975ab3ee5b203a7614a3f75373f047d803ae7b6687f2b302017d57115e47018c7177eebf7cd370a3356a1b7863008a5ae8028c72b88642840160ae1d90565b634e487b7160e01b600052604160045260246000fd5b600181811c908216806200037557607f821691505b6020821081036200039657634e487b7160e01b600052602260045260246000fd5b50919050565b601f821115620003ea57600081815260208120601f850160051c81016020861015620003c55750805b601f850160051c820191505b81811015620003e657828155600101620003d1565b5050505b505050565b81516001600160401b038111156200040b576200040b6200034a565b62000423816200041c845462000360565b846200039c565b602080601f8311600181146200045b5760008415620004425750858301515b600019600386901b1c1916600185901b178555620003e6565b600085815260208120601f198616915b828110156200048c578886015182559484019460019091019084016200046b565b5085821015620004ab5787850151600019600388901b60f8161c191681555b5050505050600190811b01905550565b8181036000831280158383131683831282161715620004ea57634e487b7160e01b600052601160045260246000fd5b5092915050565b60805160a05160c05160e051613b7162000540600039600081816103a0015281816109dd0152610c8101526000610a8801526000610f970152600081816104b40152610f700152613b716000f3fe60806040526004361061019c5760003560e01c806378e97925116100ec578063cbb697d71161008a578063f0503e8011610064578063f0503e80146104f6578063f1af34ce14610523578063f1e26b8214610551578063f466d4ab1461057157600080fd5b8063cbb697d714610473578063dc38679c146104a2578063e985e9c5146104d657600080fd5b806395d89b41116100c657806395d89b41146103fe578063a22cb46514610413578063b88d4fde14610433578063c87b56dd1461045357600080fd5b806378e979251461038e5780639106d7ba146103c25780639499ac54146103d857600080fd5b8063424611c3116101595780636352211e116101335780636352211e146102ff5780636d9d33b71461031f5780636dcee4ca1461033f57806370a082311461036e57600080fd5b8063424611c31461028557806342842e0e146102bc5780634718121a146102dc57600080fd5b806301ffc9a7146101a157806306fdde03146101d6578063081812fc146101f8578063095ea7b3146102305780631801fbe51461025257806323b872dd14610265575b600080fd5b3480156101ad57600080fd5b506101c16101bc3660046124a7565b610591565b60405190151581526020015b60405180910390f35b3480156101e257600080fd5b506101eb6105e3565b6040516101cd9190612514565b34801561020457600080fd5b50610218610213366004612527565b610675565b6040516001600160a01b0390911681526020016101cd565b34801561023c57600080fd5b5061025061024b36600461255c565b61069c565b005b610250610260366004612586565b6107b6565b34801561027157600080fd5b506102506102803660046125a8565b6108fc565b34801561029157600080fd5b506102a56102a0366004612527565b61092d565b6040805192835260ff9091166020830152016101cd565b3480156102c857600080fd5b506102506102d73660046125a8565b6109b5565b3480156102e857600080fd5b506102f16109d0565b6040519081526020016101cd565b34801561030b57600080fd5b5061021861031a366004612527565b610a24565b34801561032b57600080fd5b506102f161033a366004612527565b610a84565b34801561034b57600080fd5b5061035f61035a366004612527565b610ab8565b6040516101cd939291906125e4565b34801561037a57600080fd5b506102f1610389366004612627565b610bcd565b34801561039a57600080fd5b506102f17f000000000000000000000000000000000000000000000000000000000000000081565b3480156103ce57600080fd5b506102f160065481565b3480156103e457600080fd5b506103ed610c53565b6040516101cd959493929190612642565b34801561040a57600080fd5b506101eb610cc4565b34801561041f57600080fd5b5061025061042e36600461267b565b610cd3565b34801561043f57600080fd5b5061025061044e366004612743565b610ce2565b34801561045f57600080fd5b506101eb61046e366004612527565b610d1a565b34801561047f57600080fd5b5061049361048e3660046127df565b610db9565b6040516101cd9392919061282f565b3480156104ae57600080fd5b506102f17f000000000000000000000000000000000000000000000000000000000000000081565b3480156104e257600080fd5b506101c16104f1366004612865565b610e21565b34801561050257600080fd5b506102f1610511366004612527565b60076020526000908152604090205481565b34801561052f57600080fd5b5061054361053e366004612898565b610e4f565b6040516101cd9291906129b3565b34801561055d57600080fd5b5061049361056c366004612527565b610efa565b34801561057d57600080fd5b506102f161058c366004612586565b610f69565b60006001600160e01b031982166380ac58cd60e01b14806105c257506001600160e01b03198216635b5e139f60e01b145b806105dd57506301ffc9a760e01b6001600160e01b03198316145b92915050565b6060600080546105f2906129e1565b80601f016020809104026020016040519081016040528092919081815260200182805461061e906129e1565b801561066b5780601f106106405761010080835404028352916020019161066b565b820191906000526020600020905b81548152906001019060200180831161064e57829003601f168201915b5050505050905090565b600061068082610fe7565b506000908152600460205260409020546001600160a01b031690565b60006106a782610a24565b9050806001600160a01b0316836001600160a01b0316036107195760405162461bcd60e51b815260206004820152602160248201527f4552433732313a20617070726f76616c20746f2063757272656e74206f776e656044820152603960f91b60648201526084015b60405180910390fd5b336001600160a01b038216148061073557506107358133610e21565b6107a75760405162461bcd60e51b815260206004820152603d60248201527f4552433732313a20617070726f76652063616c6c6572206973206e6f7420746f60448201527f6b656e206f776e6572206f7220617070726f76656420666f7220616c6c0000006064820152608401610710565b6107b18383611049565b505050565b60006107c3600143612a31565b4090508082146108155760405162461bcd60e51b815260206004820152601c60248201527f496e76616c6964206f72206578706972656420626c6f636b68617368000000006044820152606401610710565b60065483146108665760405162461bcd60e51b815260206004820152601b60248201527f496e76616c6964206f72206578706972656420746f6b656e20494400000000006044820152606401610710565b60006108706109d0565b9050803410156108b75760405162461bcd60e51b8152602060048201526012602482015271496e73756666696369656e742066756e647360701b6044820152606401610710565b6108c133856110b7565b6006805460010190556108d73334839003611250565b5060006108e38461092d565b5060009485526007602052604090942093909355505050565b61090633826112a1565b6109225760405162461bcd60e51b815260040161071090612a44565b6107b1838383611300565b60008080600561093e600143612a31565b6109489190612aa7565b610953906005612abb565b90506005610962600143612a31565b61096c9190612aa7565b610977600143612a31565b6109819190612a31565b6040805191406020830152810185905260600160408051601f19818403018152919052805160209091012094909350915050565b6107b183838360405180602001604052806000815250610ce2565b6000610a1f610a17610a027f000000000000000000000000000000000000000000000000000000000000000042612a31565b62015180670de0b6b3a7640000919091020490565b600654610f69565b905090565b6000818152600260205260408120546001600160a01b0316806105dd5760405162461bcd60e51b8152602060048201526018602482015277115490cdcc8c4e881a5b9d985b1a59081d1bdad95b88125160421b6044820152606401610710565b60007f0000000000000000000000000000000000000000000000000000000000000000670de0b6b3a76400008302056105dd565b60608060606000606080610acb87610efa565b90955093509150610add878486610db9565b909550935090506000610af46001601e8a87611471565b509050606080606080610b078c896114e6565b9b5091965094509092509050888282610b1f88611595565b604051602001610b329493929190612af0565b60405160208183030381529060405298506000610b4e86611595565b604051602001610b5e9190612c1b565b6040516020818303038152906040529050878588604051602001610b8493929190612d22565b6040516020818303038152906040529b5087848289604051602001610bac9493929190612d8c565b6040516020818303038152906040529a505050505050505050509193909250565b60006001600160a01b038216610c375760405162461bcd60e51b815260206004820152602960248201527f4552433732313a2061646472657373207a65726f206973206e6f7420612076616044820152683634b21037bbb732b960b91b6064820152608401610710565b506001600160a01b031660009081526003602052604090205490565b60065460606000808080610c668661092d565b92509050610c748187611628565b9450610cac610ca6610a027f000000000000000000000000000000000000000000000000000000000000000042612a31565b87610f69565b9350610cb9600143612a31565b409250509091929394565b6060600180546105f2906129e1565b610cde3383836116d7565b5050565b610cec33836112a1565b610d085760405162461bcd60e51b815260040161071090612a44565b610d14848484846117a5565b50505050565b6000818152600260205260409020546060906001600160a01b0316610d995760405162461bcd60e51b815260206004820152602f60248201527f4552433732314d657461646174613a2055524920717565727920666f72206e6f60448201526e3732bc34b9ba32b73a103a37b5b2b760891b6064820152608401610710565b600082815260076020526040902054610db28184611628565b9392505050565b60608060006060610dca87876117d8565b965090506060610dda8888611b5c565b975090506060610dea8989611be2565b604051909950909150610e0590849084908490602001612e0a565b60408051808303601f1901815291905299969850505050505050565b6001600160a01b03918216600090815260056020908152604080832093909416825291909152205460ff1690565b606080600089604051602001610e659190612f6c565b60405160208183030381529060405290506000868686604051602001610e8d93929190612e0a565b6040516020818303038152906040529050818a82604051602001610eb393929190612d22565b604051602081830303815290604052935081898983604051602001610edb9493929190612d8c565b6040516020818303038152906040529250505097509795505050505050565b60608060006060806060610f0e8785611c22565b6040519097509295509093509150610f2a908490602001612f6c565b60405160208183030381529060405295508082604051602001610f4e929190613007565b60405160208183030381529060405294505050509193909250565b6000610db27f0000000000000000000000000000000000000000000000000000000000000000610fe2610fdd7f0000000000000000000000000000000000000000000000000000000000000000610fcc670de0b6b3a76400006001890102610a84565b8803670de0b6b3a764000091020590565b611cb7565b611e60565b6000818152600260205260409020546001600160a01b03166110465760405162461bcd60e51b8152602060048201526018602482015277115490cdcc8c4e881a5b9d985b1a59081d1bdad95b88125160421b6044820152606401610710565b50565b600081815260046020526040902080546001600160a01b0319166001600160a01b038416908117909155819061107e82610a24565b6001600160a01b03167f8c5be1e5ebec7d5bd14f71427d1e84f3dd0314c0f7b2291e5b200ac8c7c3b92560405160405180910390a45050565b6001600160a01b03821661110d5760405162461bcd60e51b815260206004820181905260248201527f4552433732313a206d696e7420746f20746865207a65726f20616464726573736044820152606401610710565b6000818152600260205260409020546001600160a01b0316156111725760405162461bcd60e51b815260206004820152601c60248201527f4552433732313a20746f6b656e20616c7265616479206d696e746564000000006044820152606401610710565b611180600083836001611e85565b6000818152600260205260409020546001600160a01b0316156111e55760405162461bcd60e51b815260206004820152601c60248201527f4552433732313a20746f6b656e20616c7265616479206d696e746564000000006044820152606401610710565b6001600160a01b038216600081815260036020908152604080832080546001019055848352600290915280822080546001600160a01b0319168417905551839291907fddf252ad1be2c89b69c2b068fc378daa952ba7f163c4a11628f55a4df523b3ef908290a45050565b600080600080600085875af19050806107b15760405162461bcd60e51b815260206004820152601360248201527211551217d514905394d1915497d19052531151606a1b6044820152606401610710565b6000806112ad83610a24565b9050806001600160a01b0316846001600160a01b031614806112d457506112d48185610e21565b806112f85750836001600160a01b03166112ed84610675565b6001600160a01b0316145b949350505050565b826001600160a01b031661131382610a24565b6001600160a01b0316146113395760405162461bcd60e51b8152600401610710906130c2565b6001600160a01b03821661139b5760405162461bcd60e51b8152602060048201526024808201527f4552433732313a207472616e7366657220746f20746865207a65726f206164646044820152637265737360e01b6064820152608401610710565b6113a88383836001611e85565b826001600160a01b03166113bb82610a24565b6001600160a01b0316146113e15760405162461bcd60e51b8152600401610710906130c2565b600081815260046020908152604080832080546001600160a01b03199081169091556001600160a01b0387811680865260038552838620805460001901905590871680865283862080546001019055868652600290945282852080549092168417909155905184937fddf252ad1be2c89b69c2b068fc378daa952ba7f163c4a11628f55a4df523b3ef91a4505050565b60008060008484604051602001611492929190918252602082015260400190565b60408051601f1981840301815291905280516020909101209050836114b681613107565b94508790506114c58188612a31565b6114cf9083612aa7565b6114d99190613120565b9793965092945050505050565b606080606080600060606114fa8888611f0d565b9850909650905060006115116001603d8b8b611471565b9850905061151e81611595565b60405160200161152e9190613133565b60405160208183030381529060405293508184604051602001611552929190613158565b60405160208183030381529060405294508660405160200161157491906132d4565b60408051601f19818403018152919052955087925050509295509295909350565b606060006115a283611fe5565b600101905060008167ffffffffffffffff8111156115c2576115c26126b7565b6040519080825280601f01601f1916602001820160405280156115ec576020820181803683370190505b5090508181016020015b600019016f181899199a1a9b1b9c1cb0b131b232b360811b600a86061a8153600a85049450846115f657509392505050565b60608060608061163786610ab8565b604051909550919350915061165090849060200161335d565b604051602081830303815290604052925060006116a961166f87611595565b611678856120bd565b611681856120bd565b8760405160200161169594939291906133a2565b6040516020818303038152906040526120bd565b9050806040516020016116bc91906134f5565b60405160208183030381529060405294505050505092915050565b816001600160a01b0316836001600160a01b0316036117385760405162461bcd60e51b815260206004820152601960248201527f4552433732313a20617070726f766520746f2063616c6c6572000000000000006044820152606401610710565b6001600160a01b03838116600081815260056020908152604080832094871680845294825291829020805460ff191686151590811790915591519182527f17307eab39ab6107e8899845ad3d59bd9653f200f220920489ca2b5937696c31910160405180910390a3505050565b6117b0848484611300565b6117bc84848484612210565b610d145760405162461bcd60e51b81526004016107109061353a565b60606000606080606060006117f1600060038a8a611471565b97509050611800600282612aa7565b1561182457604051806040016040528060018152602001603160f81b81525061183f565b604051806040016040528060018152602001600360fc1b8152505b935061184f600060038a8a611471565b9750905061185e600282612aa7565b1561188257604051806040016040528060018152602001603160f81b81525061189d565b604051806040016040528060018152602001603160f81b8152505b92506118ad600060038a8a611471565b975090506118bc600282612aa7565b156118e057604051806040016040528060018152602001603160f81b8152506118fb565b604051806040016040528060018152602001600360fc1b8152505b915061190b600160048a8a611471565b97509050600181900361193957604051806040016040528060018152602001603160f81b81525093506119c8565b8060020361196257604051806040016040528060018152602001603160f81b81525092506119c8565b8060030361198b57604051806040016040528060018152602001603160f81b81525091506119c8565b60405162461bcd60e51b8152602060048201526012602482015271496e76616c6964206b312c206b322c206b3360701b6044820152606401610710565b60606119d8600060338b8b611471565b98509150600a821015611a14576119ee82611595565b6040516020016119fe919061358c565b6040516020818303038152906040529050611a78565b600a8210158015611a255750606482105b15611a4357611a3382611595565b6040516020016119fe91906135b7565b60405162461bcd60e51b815260206004820152600a602482015269125b9d985b1a59081acd60b21b6044820152606401610710565b6000611a88600060028c8c611471565b995090506000819003611ab85781604051602001611aa691906135e1565b60405160208183030381529060405291505b611ac6600060038c8c611471565b995092506060611ad7600285612aa7565b1580611ae1575081155b15611b0657506040805180820190915260038152621bdd5d60ea1b6020820152611b21565b5060408051808201909152600281526134b760f11b60208201525b60008188888887604051602001611b3c95949392919061360a565b60408051808303601f190181529190529c9a9b5050505050505050505050565b6060600080611b6f600260048787611471565b945090506000611b83600a601e8888611471565b955090506000611b9681601e8989611471565b96509050611ba383611595565b611bac83611595565b611bb583611595565b604051602001611bc79392919061377c565b60408051601f19818403018152919052979596505050505050565b6060600080611bf18585612311565b9450905060608115611c1957604051806080016040528060528152602001613aaa6052913990505b95939450505050565b606080606060006060611c35878761236f565b965090506000611c49600160048a84611471565b975090506000611c6481680100000000000001808b8b611471565b9850905082611c7283611595565b611c7b83611595565b604051602001611c8d939291906138ac565b604051602081830303815290604052611ca583611595565b909a9099509297965091945050505050565b6000680248ce36a70cb26b3e198213611cd257506000919050565b680755bf798b4a1bf1e58212611d195760405162461bcd60e51b815260206004820152600c60248201526b4558505f4f564552464c4f5760a01b6044820152606401610710565b6503782dace9d9604e83901b059150600060606bb17217f7d1cf79abc9e3b39884821b056001605f1b01901d6bb17217f7d1cf79abc9e3b39881029093036c240c330e9fb2d9cbaf0fd5aafb1981018102606090811d6d0277594991cfc85f6e2461837cd9018202811d6d1a521255e34f6a5061b25ef1c9c319018202811d6db1bbb201f443cf962f1a1d3db4a5018202811d6e02c72388d9f74f51a9331fed693f1419018202811d6e05180bb14799ab47a8a8cb2a527d57016d02d16720577bd19bf614176fe9ea6c10fe68e7fd37d0007b713f765084018402831d9081019084016d01d3967ed30fc4f89c02bab5708119010290911d6e0587f503bb6ea29d25fcb740196450019091026d360d7aeea093263ecc6e0ecb291760621b010574029d9dc38563c32e5c2f6dc192ee70ef65f9978af30260c3939093039290921c92915050565b8181028215838205831417611e7457600080fd5b670de0b6b3a7640000900592915050565b6001811115610d14576001600160a01b03841615611ecb576001600160a01b03841660009081526003602052604081208054839290611ec5908490612a31565b90915550505b6001600160a01b03831615610d14576001600160a01b03831660009081526003602052604081208054839290611f02908490613120565b909155505050505050565b6060806000806000806000611f26600060978b8b611471565b98509350611f348989612311565b98509250600080611f49604b60fa8d8d611471565b9a509150611f578b8b612311565b9a50905080151585151503611f7a57611f708287613120565b9350849250611f9c565b81861115611f8c57611f708287612a31565b611f968683612a31565b93508092505b611fa68686612451565b985088611fb38585612451565b8a604051602001611fc693929190613972565b60408051808303601f19018152919052989b989a505050505050505050565b60008072184f03e93ff9f4daa797ed6e38ed64bf6a1f0160401b83106120245772184f03e93ff9f4daa797ed6e38ed64bf6a1f0160401b830492506040015b6d04ee2d6d415b85acef81000000008310612050576d04ee2d6d415b85acef8100000000830492506020015b662386f26fc10000831061206e57662386f26fc10000830492506010015b6305f5e1008310612086576305f5e100830492506008015b612710831061209a57612710830492506004015b606483106120ac576064830492506002015b600a83106105dd5760010192915050565b606081516000036120dc57505060408051602081019091526000815290565b6000604051806060016040528060408152602001613afc604091399050600060038451600261210b9190613120565b61211591906139d5565b6121209060046139e9565b67ffffffffffffffff811115612138576121386126b7565b6040519080825280601f01601f191660200182016040528015612162576020820181803683370190505b509050600182016020820185865187015b808210156121ce576003820191508151603f8160121c168501518453600184019350603f81600c1c168501518453600184019350603f8160061c168501518453600184019350603f8116850151845350600183019250612173565b50506003865106600181146121ea57600281146121fd57612205565b603d6001830353603d6002830353612205565b603d60018303535b509195945050505050565b60006001600160a01b0384163b1561230657604051630a85bd0160e11b81526001600160a01b0385169063150b7a0290612254903390899088908890600401613a00565b6020604051808303816000875af192505050801561228f575060408051601f3d908101601f1916820190925261228c91810190613a33565b60015b6122ec573d8080156122bd576040519150601f19603f3d011682016040523d82523d6000602084013e6122c2565b606091505b5080516000036122e45760405162461bcd60e51b81526004016107109061353a565b805181602001fd5b6001600160e01b031916630a85bd0160e11b1490506112f8565b506001949350505050565b60008060008484604051602001612332929190918252602082015260400190565b60408051601f19818403018152919052805160209091012090508361235681613107565b94506123659050600282612aa7565b1595939450505050565b6060600080612382601e60fb8787611471565b945090506060600a8210156123c05761239a82611595565b6040516020016123aa9190613a50565b6040516020818303038152906040529050611c19565b600a82101580156123d15750606482105b156123ef576123df82611595565b6040516020016123aa9190613a7d565b606482106124105761240082611595565b6040516020016123aa919061358c565b60405162461bcd60e51b8152602060048201526016602482015275496e76616c69642062617365206672657175656e637960501b6044820152606401610710565b606081156124885761246283611595565b60405160200161247291906135e1565b60405160208183030381529060405290506105dd565b610db283611595565b6001600160e01b03198116811461104657600080fd5b6000602082840312156124b957600080fd5b8135610db281612491565b60005b838110156124df5781810151838201526020016124c7565b50506000910152565b600081518084526125008160208601602086016124c4565b601f01601f19169290920160200192915050565b602081526000610db260208301846124e8565b60006020828403121561253957600080fd5b5035919050565b80356001600160a01b038116811461255757600080fd5b919050565b6000806040838503121561256f57600080fd5b61257883612540565b946020939093013593505050565b6000806040838503121561259957600080fd5b50508035926020909101359150565b6000806000606084860312156125bd57600080fd5b6125c684612540565b92506125d460208501612540565b9150604084013590509250925092565b6060815260006125f760608301866124e8565b828103602084015261260981866124e8565b9050828103604084015261261d81856124e8565b9695505050505050565b60006020828403121561263957600080fd5b610db282612540565b85815260a06020820152600061265b60a08301876124e8565b604083019590955250606081019290925260ff1660809091015292915050565b6000806040838503121561268e57600080fd5b61269783612540565b9150602083013580151581146126ac57600080fd5b809150509250929050565b634e487b7160e01b600052604160045260246000fd5b600067ffffffffffffffff808411156126e8576126e86126b7565b604051601f8501601f19908116603f01168101908282118183101715612710576127106126b7565b8160405280935085815286868601111561272957600080fd5b858560208301376000602087830101525050509392505050565b6000806000806080858703121561275957600080fd5b61276285612540565b935061277060208601612540565b925060408501359150606085013567ffffffffffffffff81111561279357600080fd5b8501601f810187136127a457600080fd5b6127b3878235602084016126cd565b91505092959194509250565b600082601f8301126127d057600080fd5b610db2838335602085016126cd565b6000806000606084860312156127f457600080fd5b8335925060208401359150604084013567ffffffffffffffff81111561281957600080fd5b612825868287016127bf565b9150509250925092565b60608152600061284260608301866124e8565b828103602084015261285481866124e8565b915050826040830152949350505050565b6000806040838503121561287857600080fd5b61288183612540565b915061288f60208401612540565b90509250929050565b600080600080600080600060e0888a0312156128b357600080fd5b873567ffffffffffffffff808211156128cb57600080fd5b6128d78b838c016127bf565b985060208a01359150808211156128ed57600080fd5b6128f98b838c016127bf565b975060408a013591508082111561290f57600080fd5b61291b8b838c016127bf565b965060608a013591508082111561293157600080fd5b61293d8b838c016127bf565b955060808a013591508082111561295357600080fd5b61295f8b838c016127bf565b945060a08a013591508082111561297557600080fd5b6129818b838c016127bf565b935060c08a013591508082111561299757600080fd5b506129a48a828b016127bf565b91505092959891949750929550565b6040815260006129c660408301856124e8565b82810360208401526129d881856124e8565b95945050505050565b600181811c908216806129f557607f821691505b602082108103612a1557634e487b7160e01b600052602260045260246000fd5b50919050565b634e487b7160e01b600052601160045260246000fd5b818103818111156105dd576105dd612a1b565b6020808252602d908201527f4552433732313a2063616c6c6572206973206e6f7420746f6b656e206f776e6560408201526c1c881bdc88185c1c1c9bdd9959609a1b606082015260800190565b634e487b7160e01b600052601260045260246000fd5b600082612ab657612ab6612a91565b500690565b60ff82811682821603908111156105dd576105dd612a1b565b60008151612ae68185602086016124c4565b9290920192915050565b60008551612b02818460208a016124c4565b80830190507f7b202274726169745f74797065223a20225363616c65222c202276616c7565228152621d101160e91b60208201528551612b49816023840160208a016124c4565b64011103e96160dd1b6023929091019182018190527f7b202274726169745f74797065223a20225363616c6520416e696d6174696f6e60288301526c111610113b30b63ab2911d101160991b60488301528551612bad816055850160208a016124c4565b60559201918201527f7b202274726169745f74797065223a202248756520526f7461746520416e696d605a8201527130ba34b7b7111610113b30b63ab2911d101160711b607a820152612c03608c820185612ad4565b637322207d60e01b8152600401979650505050505050565b7f3c616e696d617465206174747269627574654e616d653d2276616c75657322208152710333937b69e911811103a379e91199b1811160751b602082015264323ab91e9160d91b603282015260008251612c7c8160378501602087016124c4565b6203991160ed1b60379390910192830152507f726570656174436f756e743d22696e646566696e6974652220726573756c743d603a820152741131b7b637b926b0ba3934bc2932b9bab63a11179f60591b605a820152606f01919050565b7f3c6665436f6c6f724d617472697820747970653d22687565526f7461746522208152753932b9bab63a1e913937ba30ba32a932b9bab63a111f60511b602082015260360190565b60008451612d348184602089016124c4565b845190830190612d488183602089016124c4565b612d53818301612cda565b9150506f1e17b332a1b7b637b926b0ba3934bc1f60811b81528351612d7f8160108401602088016124c4565b0160100195945050505050565b60008551612d9e818460208a016124c4565b855190830190612db2818360208a016124c4565b612dbd818301612cda565b9150508451612dd08183602089016124c4565b6f1e17b332a1b7b637b926b0ba3934bc1f60811b91019081528351612dfc8160108401602088016124c4565b016010019695505050505050565b7f3c6665436f6c6f724d617472697820747970653d226d6174726978222072657381527f756c743d22636f6c6f724368616e6e656c526573756c7422200000000000000060208201527103b30b63ab2b99e91181018101810181018160751b60398201526000690181018101810181018160b51b80604b840152806055840152506a189018101810181018111f60a91b605f8301526f1e17b332a1b7b637b926b0ba3934bc1f60811b606a8301528451612ecb81607a8501602089016124c4565b845190830190612ee281607a8401602089016124c4565b8451910190612ef881607a8401602088016124c4565b01612f11607a8201681e17b334b63a32b91f60b91b9052565b7f3c726563742077696474683d2233353022206865696768743d2233353022206660838201527034b63a32b91e913ab9361411b09491179f60791b60a3820152651e17b9bb339f60d11b60b482015260ba0195945050505050565b7f3c7376672077696474683d2233353022206865696768743d223335302220766581527f7273696f6e3d22312e312220786d6c6e733d22687474703a2f2f7777772e773360208201526e1737b933979918181817b9bb33911f60891b60408201526e1e3334b63a32b91034b21e9130911f60891b604f82015260008251612ffa81605e8501602087016124c4565b91909101605e0192915050565b7f7b202274726169745f74797065223a202242617365204672657175656e63792281526b1610113b30b63ab2911d101160a11b60208201526000835161305481602c8501602088016124c4565b64011103e96160dd1b602c9184019182018190527f7b202274726169745f74797065223a20224f637461766573222c202276616c7560318301526432911d101160d91b605183015284516130af8160568501602089016124c4565b6056920191820152605b01949350505050565b60208082526025908201527f4552433732313a207472616e736665722066726f6d20696e636f72726563742060408201526437bbb732b960d91b606082015260800190565b60006001820161311957613119612a1b565b5060010190565b808201808211156105dd576105dd612a1b565b600082516131458184602087016124c4565b607360f81b920191825250600101919050565b7f3c6665446973706c6163656d656e744d617020726573756c743d22646973706c81526e30b1b2b6b2b73a2932b9bab63a111f60891b60208201527f3c616e696d617465206174747269627574654e616d653d227363616c65222000602f820152673b30b63ab2b99e9160c11b604e820152600083516131df8160568501602088016124c4565b7f22206b657954696d65733d22303b20302e353b203122206475723d2200000000605691840191820152835161321c8160728401602088016124c4565b7f2220726570656174436f756e743d22696e646566696e6974652220726573756c910160728101919091527f743d22646973706c6163656d656e74526573756c74222063616c634d6f64653d60928201527f2273706c696e6522206b657953706c696e65733d22302e33203020302e37203160b28201526f1d9018171990181018171b901891179f60811b60d2820152731e17b332a234b9b83630b1b2b6b2b73a26b0b81f60611b60e282015260f601949350505050565b7f3c6665446973706c6163656d656e744d6170207363616c653d2200000000000081526000825161330c81601a8501602087016124c4565b7f2220726573756c743d22646973706c6163656d656e74526573756c74223e0000601a939091019283015250731e17b332a234b9b83630b1b2b6b2b73a26b0b81f60611b6038820152604c01919050565b6f01130ba3a3934b13aba32b9911d102d960851b815281516000906133898160108501602087016124c4565b61205d60f01b6010939091019283015250601201919050565b757b20226e616d65223a20224d657263757269616c202360501b815284516000906133d4816016850160208a016124c4565b6201116160ed1b60169184019182018190527f226465736372697074696f6e223a20224f6e20636861696e2067656e65726174601983015272034bb329030b93a10383937b532b1ba1711161606d1b60398301527f22696d616765223a2022646174613a696d6167652f7376672b786d6c3b626173604c83015263194d8d0b60e21b606c830152865161346e816070850160208b016124c4565b60709201918201527f22616e696d6174696f6e5f75726c223a2022646174613a696d6167652f73766760738201526b0ade1b5b0ed8985cd94d8d0b60a21b60938201526134ea6134dc6134d66134c7609f850189612ad4565b6201116160ed1b815260030190565b86612ad4565b61207d60f01b815260020190565b979650505050505050565b7f646174613a6170706c69636174696f6e2f6a736f6e3b6261736536342c00000081526000825161352d81601d8501602087016124c4565b91909101601d0192915050565b60208082526032908201527f4552433732313a207472616e7366657220746f206e6f6e20455243373231526560408201527131b2b4bb32b91034b6b83632b6b2b73a32b960711b606082015260800190565b620302e360ec1b8152600082516135aa8160038501602087016124c4565b9190910160030192915050565b61181760f11b8152600082516135d48160028501602087016124c4565b9190910160020192915050565b602d60f81b8152600082516135fd8160018501602087016124c4565b9190910160010192915050565b7f3c6665436f6d706f7369746520696e3d22726f74617465526573756c7422206981527f6e323d22636f6c6f724368616e6e656c526573756c7422206f70657261746f726020820152611e9160f11b604082015260008651613673816042850160208b016124c4565b7f2220726573756c743d22636f6d706f73697465526573756c7432222f3e0000006042918401918201527f3c6665436f6d706f7369746520696e3d22636f6d706f73697465526573756c74605f8201527f322220696e323d22636f6d706f73697465526573756c743222206f7065726174607f8201527337b91e9130b934ba3436b2ba34b1911035989e9160611b609f82015261371360b3820188612ad4565b65111035991e9160d11b8152905061372e6006820187612ad4565b65111035999e9160d11b815290506137496006820186612ad4565b651110359a1e9160d11b815290506137646006820185612ad4565b6211179f60e91b815260030198975050505050505050565b7f3c6665446966667573654c69676874696e67206c69676874696e672d636f6c6f81527f723d227768697465222064696666757365436f6e7374616e743d2200000000006020820152600084516137da81603b8501602089016124c4565b7f2220726573756c743d2264696666757365526573756c74222073757266616365603b918401918201526629b1b0b6329e9160c91b605b82015284516138278160628401602089016124c4565b7f223e3c666544697374616e744c6967687420656c65766174696f6e3d2200000060629290910191820152835161386581607f8401602088016124c4565b7f223e3c2f666544697374616e744c696768743e3c2f6665446966667573654c69607f92909101918201526633b43a34b7339f60c91b609f82015260a60195945050505050565b7f3c666554757262756c656e636520626173654672657175656e63793d220000008152600084516138e481601d8501602089016124c4565b6d1110373ab6a7b1ba30bb32b99e9160911b601d91840191820152845161391281602b8401602089016124c4565b67111039b2b2b21e9160c11b602b9290910191820152835161393b8160338401602088016124c4565b7f2220726573756c743d2274757262756c656e6365526573756c74222f3e2000006033929091019182015260510195945050505050565b600084516139848184602089016124c4565b8083019050603b60f81b80825285516139a4816001850160208a016124c4565b6001920191820181905284516139c18160028501602089016124c4565b600292019182015260030195945050505050565b6000826139e4576139e4612a91565b500490565b80820281158282048414176105dd576105dd612a1b565b6001600160a01b038581168252841660208201526040810183905260806060820181905260009061261d908301846124e8565b600060208284031215613a4557600080fd5b8151610db281612491565b640302e3030360dc1b815260008251613a708160058501602087016124c4565b9190910160050192915050565b630302e30360e41b815260008251613a9c8160048501602087016124c4565b919091016004019291505056fe3c6665436f6c6f724d617472697820747970653d226d6174726978222076616c7565733d222d3120302030203020312030202d3120302030203120302030202d312030203120302030203020312030222f3e4142434445464748494a4b4c4d4e4f505152535455565758595a6162636465666768696a6b6c6d6e6f707172737475767778797a303132333435363738392b2fa2646970667358221220688746bba6200f71d1dfe0ac9c2cd3003394b0eb36970ae576b9087790d0680764736f6c63430008110033",
    "linkReferences": {}
  },
  "methodIdentifiers": {
    "approve(address,uint256)": "095ea7b3",
    "balanceOf(address)": "70a08231",
    "composeSVGsFromParts(string,string,string,string,string,string,string)": "f1af34ce",
    "generateSVG(uint256)": "6dcee4ca",
    "generateSVGPartOne(uint256)": "f1e26b82",
    "generateSVGPartTwo(uint256,uint256,string)": "cbb697d7",
    "generateSeed(uint256)": "424611c3",
    "getApproved(uint256)": "081812fc",
    "getCurrentVRGDAPrice()": "4718121a",
    "getTargetSaleTime(int256)": "6d9d33b7",
    "getVRGDAPrice(int256,uint256)": "f466d4ab",
    "isApprovedForAll(address,address)": "e985e9c5",
    "mint(uint256,bytes32)": "1801fbe5",
    "name()": "06fdde03",
    "nextToken()": "9499ac54",
    "ownerOf(uint256)": "6352211e",
    "safeTransferFrom(address,address,uint256)": "42842e0e",
    "safeTransferFrom(address,address,uint256,bytes)": "b88d4fde",
    "seeds(uint256)": "f0503e80",
    "setApprovalForAll(address,bool)": "a22cb465",
    "startTime()": "78e97925",
    "supportsInterface(bytes4)": "01ffc9a7",
    "symbol()": "95d89b41",
    "targetPrice()": "dc38679c",
    "tokenURI(uint256)": "c87b56dd",
    "totalSold()": "9106d7ba",
    "transferFrom(address,address,uint256)": "23b872dd"
  },
  "id": 32
}