{
  "abi": [
    {
      "inputs": [],
      "stateMutability": "nonpayable",
      "type": "constructor"
    },
    {
      "anonymous": false,
      "inputs": [
        {
          "indexed": true,
          "internalType": "address",
          "name": "owner",
          "type": "address"
        },
        {
          "indexed": true,
          "internalType": "address",
          "name": "approved",
          "type": "address"
        },
        {
          "indexed": true,
          "internalType": "uint256",
          "name": "tokenId",
          "type": "uint256"
        }
      ],
      "name": "Approval",
      "type": "event"
    },
    {
      "anonymous": false,
      "inputs": [
        {
          "indexed": true,
          "internalType": "address",
          "name": "owner",
          "type": "address"
        },
        {
          "indexed": true,
          "internalType": "address",
          "name": "operator",
          "type": "address"
        },
        {
          "indexed": false,
          "internalType": "bool",
          "name": "approved",
          "type": "bool"
        }
      ],
      "name": "ApprovalForAll",
      "type": "event"
    },
    {
      "anonymous": false,
      "inputs": [
        {
          "indexed": true,
          "internalType": "address",
          "name": "from",
          "type": "address"
        },
        {
          "indexed": true,
          "internalType": "address",
          "name": "to",
          "type": "address"
        },
        {
          "indexed": true,
          "internalType": "uint256",
          "name": "tokenId",
          "type": "uint256"
        }
      ],
      "name": "Transfer",
      "type": "event"
    },
    {
      "inputs": [
        {
          "internalType": "address",
          "name": "to",
          "type": "address"
        },
        {
          "internalType": "uint256",
          "name": "tokenId",
          "type": "uint256"
        }
      ],
      "name": "approve",
      "outputs": [],
      "stateMutability": "nonpayable",
      "type": "function"
    },
    {
      "inputs": [
        {
          "internalType": "address",
          "name": "owner",
          "type": "address"
        }
      ],
      "name": "balanceOf",
      "outputs": [
        {
          "internalType": "uint256",
          "name": "",
          "type": "uint256"
        }
      ],
      "stateMutability": "view",
      "type": "function"
    },
    {
      "inputs": [
        {
          "internalType": "uint256",
          "name": "tokenId",
          "type": "uint256"
        }
      ],
      "name": "generateSeed",
      "outputs": [
        {
          "internalType": "uint256",
          "name": "",
          "type": "uint256"
        },
        {
          "internalType": "uint8",
          "name": "",
          "type": "uint8"
        }
      ],
      "stateMutability": "view",
      "type": "function"
    },
    {
      "inputs": [
        {
          "internalType": "uint256",
          "name": "tokenId",
          "type": "uint256"
        }
      ],
      "name": "getApproved",
      "outputs": [
        {
          "internalType": "address",
          "name": "",
          "type": "address"
        }
      ],
      "stateMutability": "view",
      "type": "function"
    },
    {
      "inputs": [],
      "name": "getCurrentVRGDAPrice",
      "outputs": [
        {
          "internalType": "uint256",
          "name": "",
          "type": "uint256"
        }
      ],
      "stateMutability": "view",
      "type": "function"
    },
    {
      "inputs": [
        {
          "internalType": "int256",
          "name": "sold",
          "type": "int256"
        }
      ],
      "name": "getTargetSaleTime",
      "outputs": [
        {
          "internalType": "int256",
          "name": "",
          "type": "int256"
        }
      ],
      "stateMutability": "view",
      "type": "function"
    },
    {
      "inputs": [
        {
          "internalType": "int256",
          "name": "timeSinceStart",
          "type": "int256"
        },
        {
          "internalType": "uint256",
          "name": "sold",
          "type": "uint256"
        }
      ],
      "name": "getVRGDAPrice",
      "outputs": [
        {
          "internalType": "uint256",
          "name": "",
          "type": "uint256"
        }
      ],
      "stateMutability": "view",
      "type": "function"
    },
    {
      "inputs": [
        {
          "internalType": "address",
          "name": "owner",
          "type": "address"
        },
        {
          "internalType": "address",
          "name": "operator",
          "type": "address"
        }
      ],
      "name": "isApprovedForAll",
      "outputs": [
        {
          "internalType": "bool",
          "name": "",
          "type": "bool"
        }
      ],
      "stateMutability": "view",
      "type": "function"
    },
    {
      "inputs": [
        {
          "internalType": "uint256",
          "name": "expectedTokenId",
          "type": "uint256"
        },
        {
          "internalType": "bytes32",
          "name": "expectedParentBlockhash",
          "type": "bytes32"
        }
      ],
      "name": "mint",
      "outputs": [],
      "stateMutability": "payable",
      "type": "function"
    },
    {
      "inputs": [],
      "name": "name",
      "outputs": [
        {
          "internalType": "string",
          "name": "",
          "type": "string"
        }
      ],
      "stateMutability": "view",
      "type": "function"
    },
    {
      "inputs": [],
      "name": "nextToken",
      "outputs": [
        {
          "internalType": "uint256",
          "name": "id",
          "type": "uint256"
        },
        {
          "internalType": "string",
          "name": "uri",
          "type": "string"
        },
        {
          "internalType": "uint256",
          "name": "price",
          "type": "uint256"
        },
        {
          "internalType": "bytes32",
          "name": "hash",
          "type": "bytes32"
        },
        {
          "internalType": "uint8",
          "name": "ttl",
          "type": "uint8"
        }
      ],
      "stateMutability": "view",
      "type": "function"
    },
    {
      "inputs": [
        {
          "internalType": "uint256",
          "name": "tokenId",
          "type": "uint256"
        }
      ],
      "name": "ownerOf",
      "outputs": [
        {
          "internalType": "address",
          "name": "",
          "type": "address"
        }
      ],
      "stateMutability": "view",
      "type": "function"
    },
    {
      "inputs": [
        {
          "internalType": "address",
          "name": "from",
          "type": "address"
        },
        {
          "internalType": "address",
          "name": "to",
          "type": "address"
        },
        {
          "internalType": "uint256",
          "name": "tokenId",
          "type": "uint256"
        }
      ],
      "name": "safeTransferFrom",
      "outputs": [],
      "stateMutability": "nonpayable",
      "type": "function"
    },
    {
      "inputs": [
        {
          "internalType": "address",
          "name": "from",
          "type": "address"
        },
        {
          "internalType": "address",
          "name": "to",
          "type": "address"
        },
        {
          "internalType": "uint256",
          "name": "tokenId",
          "type": "uint256"
        },
        {
          "internalType": "bytes",
          "name": "data",
          "type": "bytes"
        }
      ],
      "name": "safeTransferFrom",
      "outputs": [],
      "stateMutability": "nonpayable",
      "type": "function"
    },
    {
      "inputs": [
        {
          "internalType": "uint256",
          "name": "",
          "type": "uint256"
        }
      ],
      "name": "seeds",
      "outputs": [
        {
          "internalType": "uint256",
          "name": "",
          "type": "uint256"
        }
      ],
      "stateMutability": "view",
      "type": "function"
    },
    {
      "inputs": [
        {
          "internalType": "address",
          "name": "operator",
          "type": "address"
        },
        {
          "internalType": "bool",
          "name": "approved",
          "type": "bool"
        }
      ],
      "name": "setApprovalForAll",
      "outputs": [],
      "stateMutability": "nonpayable",
      "type": "function"
    },
    {
      "inputs": [],
      "name": "startTime",
      "outputs": [
        {
          "internalType": "uint256",
          "name": "",
          "type": "uint256"
        }
      ],
      "stateMutability": "view",
      "type": "function"
    },
    {
      "inputs": [
        {
          "internalType": "bytes4",
          "name": "interfaceId",
          "type": "bytes4"
        }
      ],
      "name": "supportsInterface",
      "outputs": [
        {
          "internalType": "bool",
          "name": "",
          "type": "bool"
        }
      ],
      "stateMutability": "view",
      "type": "function"
    },
    {
      "inputs": [],
      "name": "symbol",
      "outputs": [
        {
          "internalType": "string",
          "name": "",
          "type": "string"
        }
      ],
      "stateMutability": "view",
      "type": "function"
    },
    {
      "inputs": [],
      "name": "targetPrice",
      "outputs": [
        {
          "internalType": "int256",
          "name": "",
          "type": "int256"
        }
      ],
      "stateMutability": "view",
      "type": "function"
    },
    {
      "inputs": [
        {
          "internalType": "uint256",
          "name": "tokenId",
          "type": "uint256"
        }
      ],
      "name": "tokenURI",
      "outputs": [
        {
          "internalType": "string",
          "name": "",
          "type": "string"
        }
      ],
      "stateMutability": "view",
      "type": "function"
    },
    {
      "inputs": [],
      "name": "totalSold",
      "outputs": [
        {
          "internalType": "uint256",
          "name": "",
          "type": "uint256"
        }
      ],
      "stateMutability": "view",
      "type": "function"
    },
    {
      "inputs": [
        {
          "internalType": "address",
          "name": "from",
          "type": "address"
        },
        {
          "internalType": "address",
          "name": "to",
          "type": "address"
        },
        {
          "internalType": "uint256",
          "name": "tokenId",
          "type": "uint256"
        }
      ],
      "name": "transferFrom",
      "outputs": [],
      "stateMutability": "nonpayable",
      "type": "function"
    }
  ],
  "bytecode": {
    "object": "0x6101006040524260e0523480156200001657600080fd5b5066038d7ea4c68000662386f26fc1000068270801d946c940000082826040518060400160405280600a8152602001694d657263757269616c7360b01b815250604051806040016040528060048152602001634d45524360e01b8152508160009081620000849190620003ef565b506001620000938282620003ef565b5050506080829052620000b9620000b382670de0b6b3a7640000620004bb565b62000121565b60a0819052600013620001135760405162461bcd60e51b815260206004820152601b60248201527f4e4f4e5f4e454741544956455f44454341595f434f4e5354414e54000000000060448201526064015b60405180910390fd5b505060c05250620004f19050565b6000808213620001605760405162461bcd60e51b815260206004820152600960248201526815539111519253915160ba1b60448201526064016200010a565b5060606001600160801b03821160071b82811c6001600160401b031060061b1782811c63ffffffff1060051b1782811c61ffff1060041b1782811c60ff10600390811b90911783811c600f1060021b1783811c909110600190811b90911783811c90911017609f81810383019390931b90921c6c465772b2bbbb5f824b15207a3081018102821d6d0388eaa27412d5aca026815d636e018102821d6d0df99ac502031bf953eff472fdcc018102821d6d13cdffb29d51d99322bdff5f2211018102821d6d0a0f742023def783a307a986912e018102821d6d01920d8043ca89b5239253284e42018102821d6c0b7a86d7375468fac667a0a527016c29508e458543d8aa4df2abee7882018202831d6d0139601a2efabe717e604cbb4894018202831d6d02247f7a7b6594320649aa03aba1018202831d6c8c3f38e95a6b1ff2ab1c3b343619018202831d6d02384773bdf1ac5676facced60901901820290921d6cb9a025d814b29c212b8b1a07cd19010260016c0504a838426634cdd8738f543560611b03190105711340daa0d5f769dba1915cef59f0815a550602605f19919091017d0267a36c0c95b3975ab3ee5b203a7614a3f75373f047d803ae7b6687f2b302017d57115e47018c7177eebf7cd370a3356a1b7863008a5ae8028c72b88642840160ae1d90565b634e487b7160e01b600052604160045260246000fd5b600181811c908216806200037557607f821691505b6020821081036200039657634e487b7160e01b600052602260045260246000fd5b50919050565b601f821115620003ea57600081815260208120601f850160051c81016020861015620003c55750805b601f850160051c820191505b81811015620003e657828155600101620003d1565b5050505b505050565b81516001600160401b038111156200040b576200040b6200034a565b62000423816200041c845462000360565b846200039c565b602080601f8311600181146200045b5760008415620004425750858301515b600019600386901b1c1916600185901b178555620003e6565b600085815260208120601f198616915b828110156200048c578886015182559484019460019091019084016200046b565b5085821015620004ab5787850151600019600388901b60f8161c191681555b5050505050600190811b01905550565b8181036000831280158383131683831282161715620004ea57634e487b7160e01b600052601160045260246000fd5b5092915050565b60805160a05160c05160e0516136f26200054060003960008181610315015281816108d50152610a640152600061098001526000610bf80152600081816103fa0152610bd101526136f26000f3fe6080604052600436106101405760003560e01c806370a08231116100b6578063b88d4fde1161006f578063b88d4fde146103a8578063c87b56dd146103c8578063dc38679c146103e8578063e985e9c51461041c578063f0503e801461043c578063f466d4ab1461046957600080fd5b806370a08231146102e357806378e97925146103035780639106d7ba146103375780639499ac541461034d57806395d89b4114610373578063a22cb4651461038857600080fd5b806323b872dd1161010857806323b872dd14610209578063424611c31461022957806342842e0e146102605780634718121a146102805780636352211e146102a35780636d9d33b7146102c357600080fd5b806301ffc9a71461014557806306fdde031461017a578063081812fc1461019c578063095ea7b3146101d45780631801fbe5146101f6575b600080fd5b34801561015157600080fd5b506101656101603660046120d3565b610489565b60405190151581526020015b60405180910390f35b34801561018657600080fd5b5061018f6104db565b6040516101719190612140565b3480156101a857600080fd5b506101bc6101b7366004612153565b61056d565b6040516001600160a01b039091168152602001610171565b3480156101e057600080fd5b506101f46101ef366004612188565b610594565b005b6101f46102043660046121b2565b6106ae565b34801561021557600080fd5b506101f46102243660046121d4565b6107f4565b34801561023557600080fd5b50610249610244366004612153565b610825565b6040805192835260ff909116602083015201610171565b34801561026c57600080fd5b506101f461027b3660046121d4565b6108ad565b34801561028c57600080fd5b506102956108c8565b604051908152602001610171565b3480156102af57600080fd5b506101bc6102be366004612153565b61091c565b3480156102cf57600080fd5b506102956102de366004612153565b61097c565b3480156102ef57600080fd5b506102956102fe366004612210565b6109b0565b34801561030f57600080fd5b506102957f000000000000000000000000000000000000000000000000000000000000000081565b34801561034357600080fd5b5061029560065481565b34801561035957600080fd5b50610362610a36565b60405161017195949392919061222b565b34801561037f57600080fd5b5061018f610aa7565b34801561039457600080fd5b506101f46103a3366004612264565b610ab6565b3480156103b457600080fd5b506101f46103c33660046122b6565b610ac5565b3480156103d457600080fd5b5061018f6103e3366004612153565b610afd565b3480156103f457600080fd5b506102957f000000000000000000000000000000000000000000000000000000000000000081565b34801561042857600080fd5b50610165610437366004612392565b610b9c565b34801561044857600080fd5b50610295610457366004612153565b60076020526000908152604090205481565b34801561047557600080fd5b506102956104843660046121b2565b610bca565b60006001600160e01b031982166380ac58cd60e01b14806104ba57506001600160e01b03198216635b5e139f60e01b145b806104d557506301ffc9a760e01b6001600160e01b03198316145b92915050565b6060600080546104ea906123c5565b80601f0160208091040260200160405190810160405280929190818152602001828054610516906123c5565b80156105635780601f1061053857610100808354040283529160200191610563565b820191906000526020600020905b81548152906001019060200180831161054657829003601f168201915b5050505050905090565b600061057882610c48565b506000908152600460205260409020546001600160a01b031690565b600061059f8261091c565b9050806001600160a01b0316836001600160a01b0316036106115760405162461bcd60e51b815260206004820152602160248201527f4552433732313a20617070726f76616c20746f2063757272656e74206f776e656044820152603960f91b60648201526084015b60405180910390fd5b336001600160a01b038216148061062d575061062d8133610b9c565b61069f5760405162461bcd60e51b815260206004820152603d60248201527f4552433732313a20617070726f76652063616c6c6572206973206e6f7420746f60448201527f6b656e206f776e6572206f7220617070726f76656420666f7220616c6c0000006064820152608401610608565b6106a98383610caa565b505050565b60006106bb600143612415565b40905080821461070d5760405162461bcd60e51b815260206004820152601c60248201527f496e76616c6964206f72206578706972656420626c6f636b68617368000000006044820152606401610608565b600654831461075e5760405162461bcd60e51b815260206004820152601b60248201527f496e76616c6964206f72206578706972656420746f6b656e20494400000000006044820152606401610608565b60006107686108c8565b9050803410156107af5760405162461bcd60e51b8152602060048201526012602482015271496e73756666696369656e742066756e647360701b6044820152606401610608565b6107b93385610d18565b6006805460010190556107cf3334839003610eb1565b5060006107db84610825565b5060009485526007602052604090942093909355505050565b6107fe3382610f02565b61081a5760405162461bcd60e51b815260040161060890612428565b6106a9838383610f61565b600080806005610836600143612415565b610840919061248b565b61084b90600561249f565b9050600561085a600143612415565b610864919061248b565b61086f600143612415565b6108799190612415565b6040805191406020830152810185905260600160408051601f19818403018152919052805160209091012094909350915050565b6106a983838360405180602001604052806000815250610ac5565b600061091761090f6108fa7f000000000000000000000000000000000000000000000000000000000000000042612415565b62015180670de0b6b3a7640000919091020490565b600654610bca565b905090565b6000818152600260205260408120546001600160a01b0316806104d55760405162461bcd60e51b8152602060048201526018602482015277115490cdcc8c4e881a5b9d985b1a59081d1bdad95b88125160421b6044820152606401610608565b60007f0000000000000000000000000000000000000000000000000000000000000000670de0b6b3a76400008302056104d5565b60006001600160a01b038216610a1a5760405162461bcd60e51b815260206004820152602960248201527f4552433732313a2061646472657373207a65726f206973206e6f7420612076616044820152683634b21037bbb732b960b91b6064820152608401610608565b506001600160a01b031660009081526003602052604090205490565b60065460606000808080610a4986610825565b92509050610a5781876110d2565b9450610a8f610a896108fa7f000000000000000000000000000000000000000000000000000000000000000042612415565b87610bca565b9350610a9c600143612415565b409250509091929394565b6060600180546104ea906123c5565b610ac1338383611181565b5050565b610acf3383610f02565b610aeb5760405162461bcd60e51b815260040161060890612428565b610af78484848461124f565b50505050565b6000818152600260205260409020546060906001600160a01b0316610b7c5760405162461bcd60e51b815260206004820152602f60248201527f4552433732314d657461646174613a2055524920717565727920666f72206e6f60448201526e3732bc34b9ba32b73a103a37b5b2b760891b6064820152608401610608565b600082815260076020526040902054610b9581846110d2565b9392505050565b6001600160a01b03918216600090815260056020908152604080832093909416825291909152205460ff1690565b6000610b957f0000000000000000000000000000000000000000000000000000000000000000610c43610c3e7f0000000000000000000000000000000000000000000000000000000000000000610c2d670de0b6b3a7640000600189010261097c565b8803670de0b6b3a764000091020590565b611282565b61142b565b6000818152600260205260409020546001600160a01b0316610ca75760405162461bcd60e51b8152602060048201526018602482015277115490cdcc8c4e881a5b9d985b1a59081d1bdad95b88125160421b6044820152606401610608565b50565b600081815260046020526040902080546001600160a01b0319166001600160a01b0384169081179091558190610cdf8261091c565b6001600160a01b03167f8c5be1e5ebec7d5bd14f71427d1e84f3dd0314c0f7b2291e5b200ac8c7c3b92560405160405180910390a45050565b6001600160a01b038216610d6e5760405162461bcd60e51b815260206004820181905260248201527f4552433732313a206d696e7420746f20746865207a65726f20616464726573736044820152606401610608565b6000818152600260205260409020546001600160a01b031615610dd35760405162461bcd60e51b815260206004820152601c60248201527f4552433732313a20746f6b656e20616c7265616479206d696e746564000000006044820152606401610608565b610de1600083836001611450565b6000818152600260205260409020546001600160a01b031615610e465760405162461bcd60e51b815260206004820152601c60248201527f4552433732313a20746f6b656e20616c7265616479206d696e746564000000006044820152606401610608565b6001600160a01b038216600081815260036020908152604080832080546001019055848352600290915280822080546001600160a01b0319168417905551839291907fddf252ad1be2c89b69c2b068fc378daa952ba7f163c4a11628f55a4df523b3ef908290a45050565b600080600080600085875af19050806106a95760405162461bcd60e51b815260206004820152601360248201527211551217d514905394d1915497d19052531151606a1b6044820152606401610608565b600080610f0e8361091c565b9050806001600160a01b0316846001600160a01b03161480610f355750610f358185610b9c565b80610f595750836001600160a01b0316610f4e8461056d565b6001600160a01b0316145b949350505050565b826001600160a01b0316610f748261091c565b6001600160a01b031614610f9a5760405162461bcd60e51b8152600401610608906124b8565b6001600160a01b038216610ffc5760405162461bcd60e51b8152602060048201526024808201527f4552433732313a207472616e7366657220746f20746865207a65726f206164646044820152637265737360e01b6064820152608401610608565b6110098383836001611450565b826001600160a01b031661101c8261091c565b6001600160a01b0316146110425760405162461bcd60e51b8152600401610608906124b8565b600081815260046020908152604080832080546001600160a01b03199081169091556001600160a01b0387811680865260038552838620805460001901905590871680865283862080546001019055868652600290945282852080549092168417909155905184937fddf252ad1be2c89b69c2b068fc378daa952ba7f163c4a11628f55a4df523b3ef91a4505050565b6060806060806110e1866114d8565b60405190955091935091506110fa908490602001612519565b60405160208183030381529060405292506000611153611119876115ed565b61112285611680565b61112b85611680565b8760405160200161113f949392919061255e565b604051602081830303815290604052611680565b90508060405160200161116691906126b1565b60405160208183030381529060405294505050505092915050565b816001600160a01b0316836001600160a01b0316036111e25760405162461bcd60e51b815260206004820152601960248201527f4552433732313a20617070726f766520746f2063616c6c6572000000000000006044820152606401610608565b6001600160a01b03838116600081815260056020908152604080832094871680845294825291829020805460ff191686151590811790915591519182527f17307eab39ab6107e8899845ad3d59bd9653f200f220920489ca2b5937696c31910160405180910390a3505050565b61125a848484610f61565b611266848484846117d3565b610af75760405162461bcd60e51b8152600401610608906126f6565b6000680248ce36a70cb26b3e19821361129d57506000919050565b680755bf798b4a1bf1e582126112e45760405162461bcd60e51b815260206004820152600c60248201526b4558505f4f564552464c4f5760a01b6044820152606401610608565b6503782dace9d9604e83901b059150600060606bb17217f7d1cf79abc9e3b39884821b056001605f1b01901d6bb17217f7d1cf79abc9e3b39881029093036c240c330e9fb2d9cbaf0fd5aafb1981018102606090811d6d0277594991cfc85f6e2461837cd9018202811d6d1a521255e34f6a5061b25ef1c9c319018202811d6db1bbb201f443cf962f1a1d3db4a5018202811d6e02c72388d9f74f51a9331fed693f1419018202811d6e05180bb14799ab47a8a8cb2a527d57016d02d16720577bd19bf614176fe9ea6c10fe68e7fd37d0007b713f765084018402831d9081019084016d01d3967ed30fc4f89c02bab5708119010290911d6e0587f503bb6ea29d25fcb740196450019091026d360d7aeea093263ecc6e0ecb291760621b010574029d9dc38563c32e5c2f6dc192ee70ef65f9978af30260c3939093039290921c92915050565b818102821583820583141761143f57600080fd5b670de0b6b3a7640000900592915050565b6001811115610af7576001600160a01b03841615611496576001600160a01b03841660009081526003602052604081208054839290611490908490612415565b90915550505b6001600160a01b03831615610af7576001600160a01b038316600090815260036020526040812080548392906114cd908490612748565b909155505050505050565b606080606060006060806114eb876118d4565b909550935091506114fd878486611943565b909550935090506000611514600160198a876119b1565b5090506060806060806115278c89611a26565b9b509196509450909250905088828261153f886115ed565b604051602001611552949392919061275b565b6040516020818303038152906040529850600061156e866115ed565b60405160200161157e9190612888565b60405160208183030381529060405290508785886040516020016115a49392919061298f565b6040516020818303038152906040529b50878482896040516020016115cc94939291906129f9565b6040516020818303038152906040529a505050505050505050509193909250565b606060006115fa83611ad4565b600101905060008167ffffffffffffffff81111561161a5761161a6122a0565b6040519080825280601f01601f191660200182016040528015611644576020820181803683370190505b5090508181016020015b600019016f181899199a1a9b1b9c1cb0b131b232b360811b600a86061a8153600a850494508461164e57509392505050565b6060815160000361169f57505060408051602081019091526000815290565b600060405180606001604052806040815260200161367d60409139905060006003845160026116ce9190612748565b6116d89190612a77565b6116e3906004612a8b565b67ffffffffffffffff8111156116fb576116fb6122a0565b6040519080825280601f01601f191660200182016040528015611725576020820181803683370190505b509050600182016020820185865187015b80821015611791576003820191508151603f8160121c168501518453600184019350603f81600c1c168501518453600184019350603f8160061c168501518453600184019350603f8116850151845350600183019250611736565b50506003865106600181146117ad57600281146117c0576117c8565b603d6001830353603d60028303536117c8565b603d60018303535b509195945050505050565b60006001600160a01b0384163b156118c957604051630a85bd0160e11b81526001600160a01b0385169063150b7a0290611817903390899088908890600401612aa2565b6020604051808303816000875af1925050508015611852575060408051601f3d908101601f1916820190925261184f91810190612adf565b60015b6118af573d808015611880576040519150601f19603f3d011682016040523d82523d6000602084013e611885565b606091505b5080516000036118a75760405162461bcd60e51b8152600401610608906126f6565b805181602001fd5b6001600160e01b031916630a85bd0160e11b149050610f59565b506001949350505050565b606080600060608060606118e88785611bac565b6040519097509295509093509150611904908490602001612afc565b60405160208183030381529060405295508082604051602001611928929190612b97565b60405160208183030381529060405294505050509193909250565b60608060006060611955878787611c3b565b9750955090506060611968888888611dba565b985096509050606061197a8989611e82565b60405190995090915061199590849084908490602001612c52565b60408051808303601f1901815291905299969850505050505050565b600080600084846040516020016119d2929190918252602082015260400190565b60408051601f1981840301815291905280516020909101209050836119f681612db4565b9450879050611a058188612415565b611a0f908361248b565b611a199190612748565b9793965092945050505050565b60608060608060006060611a3a8888611ec2565b9850965090506000611a50600160518b8b6119b1565b98509050611a5d816115ed565b604051602001611a6d9190612dcd565b60405160208183030381529060405293508684604051602001611a91929190612df2565b604051602081830303815290604052945081604051602001611ab39190612f6e565b60408051601f19818403018152919052955087925050509295509295909350565b60008072184f03e93ff9f4daa797ed6e38ed64bf6a1f0160401b8310611b135772184f03e93ff9f4daa797ed6e38ed64bf6a1f0160401b830492506040015b6d04ee2d6d415b85acef81000000008310611b3f576d04ee2d6d415b85acef8100000000830492506020015b662386f26fc100008310611b5d57662386f26fc10000830492506010015b6305f5e1008310611b75576305f5e100830492506008015b6127108310611b8957612710830492506004015b60648310611b9b576064830492506002015b600a83106104d55760010192915050565b606080606060006060611bbf8787611f9a565b965090506000611bd3600160048a846119b1565b975090506000611be881620100008b8b6119b1565b9850905082611bf6836115ed565b611bff836115ed565b604051602001611c1193929190612ff7565b604051602081830303815290604052611c29836115ed565b909a9099509297965091945050505050565b6060806000806060611c51600060338a8a6119b1565b97509150600a821015611c8d57611c67826115ed565b604051602001611c7791906130bd565b6040516020818303038152906040529050611cb8565b611c96826115ed565b604051602001611ca691906130e8565b60405160208183030381529060405290505b6000611cc8600060028b8b6119b1565b985090506000819003611cf85781604051602001611ce69190613112565b60405160208183030381529060405291505b611d06600060038b8b6119b1565b985092506060611d1760028561248b565b1580611d21575081155b15611d4657506040805180820190915260038152621bdd5d60ea1b6020820152611d61565b5060408051808201909152600281526134b760f11b60208201525b878382604051602001611d769392919061313b565b604051602081830303815290604052975060008184604051602001611d9c929190613203565b60408051808303601f190181529190529b989a505050505050505050565b606080600080611dce6001600489896119b1565b965090506000611de26005600b8a8a6119b1565b975090506000611df58160158b8b6119b1565b9850905086611e03846115ed565b611e0c846115ed565b611e15846115ed565b604051602001611e289493929190613349565b6040516020818303038152906040529650611e42836115ed565b611e4b836115ed565b611e54836115ed565b604051602001611e669392919061346b565b60408051601f1981840301815291905299969850505050505050565b6060600080611e91858561201f565b9450905060608115611eb95760405180608001604052806052815260200161362b6052913990505b95939450505050565b6060806000806000806000611edb600060978b8b6119b1565b98509350611ee9898961201f565b98509250600080611efe604b60fa8d8d6119b1565b9a509150611f0c8b8b61201f565b9a50905080151585151503611f2f57611f258287612748565b9350849250611f51565b81861115611f4157611f258287612415565b611f4b8683612415565b93508092505b611f5b868661207d565b985088611f68858561207d565b8a604051602001611f7b9392919061359b565b60408051808303601f19018152919052989b989a505050505050505050565b6060600080611fae603261012d87876119b1565b9450905060606064821015611fec57611fc6826115ed565b604051602001611fd691906135fe565b6040516020818303038152906040529050611eb9565b611ff5826115ed565b60405160200161200591906130bd565b60408051601f198184030181529190529694955050505050565b60008060008484604051602001612040929190918252602082015260400190565b60408051601f19818403018152919052805160209091012090508361206481612db4565b9450612073905060028261248b565b1595939450505050565b606081156120b45761208e836115ed565b60405160200161209e9190613112565b60405160208183030381529060405290506104d5565b610b95836115ed565b6001600160e01b031981168114610ca757600080fd5b6000602082840312156120e557600080fd5b8135610b95816120bd565b60005b8381101561210b5781810151838201526020016120f3565b50506000910152565b6000815180845261212c8160208601602086016120f0565b601f01601f19169290920160200192915050565b602081526000610b956020830184612114565b60006020828403121561216557600080fd5b5035919050565b80356001600160a01b038116811461218357600080fd5b919050565b6000806040838503121561219b57600080fd5b6121a48361216c565b946020939093013593505050565b600080604083850312156121c557600080fd5b50508035926020909101359150565b6000806000606084860312156121e957600080fd5b6121f28461216c565b92506122006020850161216c565b9150604084013590509250925092565b60006020828403121561222257600080fd5b610b958261216c565b85815260a06020820152600061224460a0830187612114565b604083019590955250606081019290925260ff1660809091015292915050565b6000806040838503121561227757600080fd5b6122808361216c565b91506020830135801515811461229557600080fd5b809150509250929050565b634e487b7160e01b600052604160045260246000fd5b600080600080608085870312156122cc57600080fd5b6122d58561216c565b93506122e36020860161216c565b925060408501359150606085013567ffffffffffffffff8082111561230757600080fd5b818701915087601f83011261231b57600080fd5b81358181111561232d5761232d6122a0565b604051601f8201601f19908116603f01168101908382118183101715612355576123556122a0565b816040528281528a602084870101111561236e57600080fd5b82602086016020830137600060208483010152809550505050505092959194509250565b600080604083850312156123a557600080fd5b6123ae8361216c565b91506123bc6020840161216c565b90509250929050565b600181811c908216806123d957607f821691505b6020821081036123f957634e487b7160e01b600052602260045260246000fd5b50919050565b634e487b7160e01b600052601160045260246000fd5b818103818111156104d5576104d56123ff565b6020808252602d908201527f4552433732313a2063616c6c6572206973206e6f7420746f6b656e206f776e6560408201526c1c881bdc88185c1c1c9bdd9959609a1b606082015260800190565b634e487b7160e01b600052601260045260246000fd5b60008261249a5761249a612475565b500690565b60ff82811682821603908111156104d5576104d56123ff565b60208082526025908201527f4552433732313a207472616e736665722066726f6d20696e636f72726563742060408201526437bbb732b960d91b606082015260800190565b6000815161250f8185602086016120f0565b9290920192915050565b6f01130ba3a3934b13aba32b9911d102d960851b815281516000906125458160108501602087016120f0565b61205d60f01b6010939091019283015250601201919050565b757b20226e616d65223a20224d657263757269616c202360501b81528451600090612590816016850160208a016120f0565b6201116160ed1b60169184019182018190527f226465736372697074696f6e223a20224f6e20636861696e2067656e65726174601983015272034bb329030b93a10383937b532b1ba1711161606d1b60398301527f22696d616765223a2022646174613a696d6167652f7376672b786d6c3b626173604c83015263194d8d0b60e21b606c830152865161262a816070850160208b016120f0565b60709201918201527f22616e696d6174696f6e5f75726c223a2022646174613a696d6167652f73766760738201526b0ade1b5b0ed8985cd94d8d0b60a21b60938201526126a6612698612692612683609f8501896124fd565b6201116160ed1b815260030190565b866124fd565b61207d60f01b815260020190565b979650505050505050565b7f646174613a6170706c69636174696f6e2f6a736f6e3b6261736536342c0000008152600082516126e981601d8501602087016120f0565b91909101601d0192915050565b60208082526032908201527f4552433732313a207472616e7366657220746f206e6f6e20455243373231526560408201527131b2b4bb32b91034b6b83632b6b2b73a32b960711b606082015260800190565b808201808211156104d5576104d56123ff565b6000855161276d818460208a016120f0565b80830190507f7b202274726169745f74797065223a20225363616c65222c202276616c7565228152621d101160e91b602082015285516127b4816023840160208a016120f0565b64011103e96160dd1b6023929091019182018190527f7b202274726169745f74797065223a20225363616c6520416e696d6174696f6e60288301526c111610113b30b63ab2911d101160991b60488301528551612818816055850160208a016120f0565b60559201918201527f7b202274726169745f74797065223a202248756520526f7461746520416e696d605a8201527130ba34b7b7111610113b30b63ab2911d101160711b607a82015261286e608c8201856124fd565b637322207d60e01b815290505b6004019695505050505050565b7f3c616e696d617465206174747269627574654e616d653d2276616c75657322208152710333937b69e911811103a379e91199b1811160751b602082015264323ab91e9160d91b6032820152600082516128e98160378501602087016120f0565b6203991160ed1b60379390910192830152507f726570656174436f756e743d22696e646566696e6974652220726573756c743d603a820152741131b7b637b926b0ba3934bc2932b9bab63a11179f60591b605a820152606f01919050565b7f3c6665436f6c6f724d617472697820747970653d22687565526f7461746522208152753932b9bab63a1e913937ba30ba32a932b9bab63a111f60511b602082015260360190565b600084516129a18184602089016120f0565b8451908301906129b58183602089016120f0565b6129c0818301612947565b9150506f1e17b332a1b7b637b926b0ba3934bc1f60811b815283516129ec8160108401602088016120f0565b0160100195945050505050565b60008551612a0b818460208a016120f0565b855190830190612a1f818360208a016120f0565b612a2a818301612947565b9150508451612a3d8183602089016120f0565b6f1e17b332a1b7b637b926b0ba3934bc1f60811b91019081528351612a698160108401602088016120f0565b016010019695505050505050565b600082612a8657612a86612475565b500490565b80820281158282048414176104d5576104d56123ff565b6001600160a01b0385811682528416602082015260408101839052608060608201819052600090612ad590830184612114565b9695505050505050565b600060208284031215612af157600080fd5b8151610b95816120bd565b7f3c7376672077696474683d2233353022206865696768743d223335302220766581527f7273696f6e3d22312e312220786d6c6e733d22687474703a2f2f7777772e773360208201526e1737b933979918181817b9bb33911f60891b60408201526e1e3334b63a32b91034b21e9130911f60891b604f82015260008251612b8a81605e8501602087016120f0565b91909101605e0192915050565b7f7b202274726169745f74797065223a202242617365204672657175656e63792281526b1610113b30b63ab2911d101160a11b602082015260008351612be481602c8501602088016120f0565b64011103e96160dd1b602c9184019182018190527f7b202274726169745f74797065223a20224f637461766573222c202276616c7560318301526432911d101160d91b60518301528451612c3f8160568501602089016120f0565b6056920191820152605b01949350505050565b7f3c6665436f6c6f724d617472697820747970653d226d6174726978222072657381527f756c743d22636f6c6f724368616e6e656c526573756c7422200000000000000060208201527103b30b63ab2b99e91181018101810181018160751b60398201526000690181018101810181018160b51b80604b840152806055840152506a189018101810181018111f60a91b605f8301526f1e17b332a1b7b637b926b0ba3934bc1f60811b606a8301528451612d1381607a8501602089016120f0565b845190830190612d2a81607a8401602089016120f0565b8451910190612d4081607a8401602088016120f0565b01612d59607a8201681e17b334b63a32b91f60b91b9052565b7f3c726563742077696474683d2233353022206865696768743d2233353022206660838201527034b63a32b91e913ab9361411b09491179f60791b60a3820152651e17b9bb339f60d11b60b482015260ba0195945050505050565b600060018201612dc657612dc66123ff565b5060010190565b60008251612ddf8184602087016120f0565b607360f81b920191825250600101919050565b7f3c6665446973706c6163656d656e744d617020726573756c743d22646973706c81526e30b1b2b6b2b73a2932b9bab63a111f60891b60208201527f3c616e696d617465206174747269627574654e616d653d227363616c65222000602f820152673b30b63ab2b99e9160c11b604e82015260008351612e798160568501602088016120f0565b7f22206b657954696d65733d22303b20302e353b203122206475723d22000000006056918401918201528351612eb68160728401602088016120f0565b7f2220726570656174436f756e743d22696e646566696e6974652220726573756c910160728101919091527f743d22646973706c6163656d656e74526573756c74222063616c634d6f64653d60928201527f2273706c696e6522206b657953706c696e65733d22302e33203020302e37203160b28201526f1d9018171990181018171b901891179f60811b60d2820152731e17b332a234b9b83630b1b2b6b2b73a26b0b81f60611b60e282015260f601949350505050565b7f3c6665446973706c6163656d656e744d6170207363616c653d22000000000000815260008251612fa681601a8501602087016120f0565b7f2220726573756c743d22646973706c6163656d656e74526573756c74223e0000601a939091019283015250731e17b332a234b9b83630b1b2b6b2b73a26b0b81f60611b6038820152604c01919050565b7f3c666554757262756c656e636520626173654672657175656e63793d2200000081526000845161302f81601d8501602089016120f0565b6d1110373ab6a7b1ba30bb32b99e9160911b601d91840191820152845161305d81602b8401602089016120f0565b67111039b2b2b21e9160c11b602b929091019182015283516130868160338401602088016120f0565b7f2220726573756c743d2274757262756c656e6365526573756c74222f3e2000006033929091019182015260510195945050505050565b620302e360ec1b8152600082516130db8160038501602087016120f0565b9190910160030192915050565b61181760f11b8152600082516131058160028501602087016120f0565b9190910160020192915050565b602d60f81b81526000825161312e8160018501602087016120f0565b9190910160010192915050565b6000845161314d8184602089016120f0565b80830190507f7b202274726169745f74797065223a20224b34222c202276616c7565223a2022815284516131888160208401602089016120f0565b80820191505064011103e96160dd1b8060208301527f7b202274726169745f74797065223a2022436f6d706f73697465204f7065726160258301526f3a37b9111610113b30b63ab2911d101160811b604583015284516131ef8160558501602089016120f0565b6055920191820152605a0195945050505050565b7f3c6665436f6d706f7369746520696e3d22726f74617465526573756c7422206981527f6e323d22636f6c6f724368616e6e656c526573756c7422206f70657261746f726020820152611e9160f11b60408201526000835161326c8160428501602088016120f0565b7f2220726573756c743d22636f6d706f73697465526573756c7432222f3e0000006042918401918201527f3c6665436f6d706f7369746520696e3d22636f6d706f73697465526573756c74605f8201527f322220696e323d22636f6d706f73697465526573756c743222206f7065726174607f8201527f6f723d2261726974686d6574696322206b313d223122206b323d223122206b33609f820152681e91189110359a1e9160b91b60bf820152835161332d8160c88401602088016120f0565b6211179f60e91b60c8929091019182015260cb01949350505050565b6000855161335b818460208a016120f0565b80830190507f7b202274726169745f74797065223a20224469666675736520436f6e7374616e81526d3a111610113b30b63ab2911d101160911b602082015285516133ad81602e840160208a016120f0565b64011103e96160dd1b602e929091019182018190527f7b202274726169745f74797065223a202253757266616365205363616c65222c60338301526a10113b30b63ab2911d101160a91b6053830152855161340f81605e850160208a016120f0565b605e9201918201527f7b202274726169745f74797065223a2022456c65766174696f6e222c20227661606382015266363ab2911d101160c91b608382015261345a608a8201856124fd565b6308881f4b60e21b8152905061287b565b7f3c6665446966667573654c69676874696e67206c69676874696e672d636f6c6f81527f723d227768697465222064696666757365436f6e7374616e743d2200000000006020820152600084516134c981603b8501602089016120f0565b7f2220726573756c743d2264696666757365526573756c74222073757266616365603b918401918201526629b1b0b6329e9160c91b605b82015284516135168160628401602089016120f0565b7f223e3c666544697374616e744c6967687420656c65766174696f6e3d2200000060629290910191820152835161355481607f8401602088016120f0565b7f223e3c2f666544697374616e744c696768743e3c2f6665446966667573654c69607f92909101918201526633b43a34b7339f60c91b609f82015260a60195945050505050565b600084516135ad8184602089016120f0565b8083019050603b60f81b80825285516135cd816001850160208a016120f0565b6001920191820181905284516135ea8160028501602089016120f0565b600292019182015260030195945050505050565b630302e30360e41b81526000825161361d8160048501602087016120f0565b919091016004019291505056fe3c6665436f6c6f724d617472697820747970653d226d6174726978222076616c7565733d222d3120302030203020312030202d3120302030203120302030202d312030203120302030203020312030222f3e4142434445464748494a4b4c4d4e4f505152535455565758595a6162636465666768696a6b6c6d6e6f707172737475767778797a303132333435363738392b2fa2646970667358221220b9687ad23bd83db93996f9b8dcb782dbde0865df8e9620d25c10e3f30472be3864736f6c63430008110033",
    "linkReferences": {}
  },
  "methodIdentifiers": {
    "approve(address,uint256)": "095ea7b3",
    "balanceOf(address)": "70a08231",
    "generateSeed(uint256)": "424611c3",
    "getApproved(uint256)": "081812fc",
    "getCurrentVRGDAPrice()": "4718121a",
    "getTargetSaleTime(int256)": "6d9d33b7",
    "getVRGDAPrice(int256,uint256)": "f466d4ab",
    "isApprovedForAll(address,address)": "e985e9c5",
    "mint(uint256,bytes32)": "1801fbe5",
    "name()": "06fdde03",
    "nextToken()": "9499ac54",
    "ownerOf(uint256)": "6352211e",
    "safeTransferFrom(address,address,uint256)": "42842e0e",
    "safeTransferFrom(address,address,uint256,bytes)": "b88d4fde",
    "seeds(uint256)": "f0503e80",
    "setApprovalForAll(address,bool)": "a22cb465",
    "startTime()": "78e97925",
    "supportsInterface(bytes4)": "01ffc9a7",
    "symbol()": "95d89b41",
    "targetPrice()": "dc38679c",
    "tokenURI(uint256)": "c87b56dd",
    "totalSold()": "9106d7ba",
    "transferFrom(address,address,uint256)": "23b872dd"
  },
  "id": 32
}