{
  "abi": [
    {
      "inputs": [],
      "stateMutability": "nonpayable",
      "type": "constructor"
    },
    {
      "anonymous": false,
      "inputs": [
        {
          "indexed": true,
          "internalType": "address",
          "name": "owner",
          "type": "address"
        },
        {
          "indexed": true,
          "internalType": "address",
          "name": "approved",
          "type": "address"
        },
        {
          "indexed": true,
          "internalType": "uint256",
          "name": "tokenId",
          "type": "uint256"
        }
      ],
      "name": "Approval",
      "type": "event"
    },
    {
      "anonymous": false,
      "inputs": [
        {
          "indexed": true,
          "internalType": "address",
          "name": "owner",
          "type": "address"
        },
        {
          "indexed": true,
          "internalType": "address",
          "name": "operator",
          "type": "address"
        },
        {
          "indexed": false,
          "internalType": "bool",
          "name": "approved",
          "type": "bool"
        }
      ],
      "name": "ApprovalForAll",
      "type": "event"
    },
    {
      "anonymous": false,
      "inputs": [
        {
          "indexed": true,
          "internalType": "address",
          "name": "from",
          "type": "address"
        },
        {
          "indexed": true,
          "internalType": "address",
          "name": "to",
          "type": "address"
        },
        {
          "indexed": true,
          "internalType": "uint256",
          "name": "tokenId",
          "type": "uint256"
        }
      ],
      "name": "Transfer",
      "type": "event"
    },
    {
      "inputs": [
        {
          "internalType": "address",
          "name": "to",
          "type": "address"
        },
        {
          "internalType": "uint256",
          "name": "tokenId",
          "type": "uint256"
        }
      ],
      "name": "approve",
      "outputs": [],
      "stateMutability": "nonpayable",
      "type": "function"
    },
    {
      "inputs": [
        {
          "internalType": "address",
          "name": "owner",
          "type": "address"
        }
      ],
      "name": "balanceOf",
      "outputs": [
        {
          "internalType": "uint256",
          "name": "",
          "type": "uint256"
        }
      ],
      "stateMutability": "view",
      "type": "function"
    },
    {
      "inputs": [
        {
          "internalType": "uint256",
          "name": "seed",
          "type": "uint256"
        }
      ],
      "name": "generateSVG",
      "outputs": [
        {
          "internalType": "string",
          "name": "svgImage",
          "type": "string"
        },
        {
          "internalType": "string",
          "name": "svgAnimation",
          "type": "string"
        },
        {
          "internalType": "string",
          "name": "attributes",
          "type": "string"
        }
      ],
      "stateMutability": "pure",
      "type": "function"
    },
    {
      "inputs": [
        {
          "internalType": "uint256",
          "name": "seed",
          "type": "uint256"
        }
      ],
      "name": "generateSVGPartOne",
      "outputs": [
        {
          "internalType": "string",
          "name": "partOne",
          "type": "string"
        },
        {
          "internalType": "string",
          "name": "attributes",
          "type": "string"
        },
        {
          "internalType": "uint256",
          "name": "nonce",
          "type": "uint256"
        }
      ],
      "stateMutability": "pure",
      "type": "function"
    },
    {
      "inputs": [
        {
          "internalType": "uint256",
          "name": "seed",
          "type": "uint256"
        },
        {
          "internalType": "uint256",
          "name": "nonce",
          "type": "uint256"
        },
        {
          "internalType": "string",
          "name": "attributes",
          "type": "string"
        }
      ],
      "name": "generateSVGPartTwo",
      "outputs": [
        {
          "internalType": "string",
          "name": "partTwo",
          "type": "string"
        },
        {
          "internalType": "string",
          "name": "",
          "type": "string"
        },
        {
          "internalType": "uint256",
          "name": "",
          "type": "uint256"
        }
      ],
      "stateMutability": "pure",
      "type": "function"
    },
    {
      "inputs": [
        {
          "internalType": "uint256",
          "name": "tokenId",
          "type": "uint256"
        }
      ],
      "name": "generateSeed",
      "outputs": [
        {
          "internalType": "uint256",
          "name": "",
          "type": "uint256"
        },
        {
          "internalType": "uint8",
          "name": "",
          "type": "uint8"
        }
      ],
      "stateMutability": "view",
      "type": "function"
    },
    {
      "inputs": [
        {
          "internalType": "uint256",
          "name": "tokenId",
          "type": "uint256"
        }
      ],
      "name": "getApproved",
      "outputs": [
        {
          "internalType": "address",
          "name": "",
          "type": "address"
        }
      ],
      "stateMutability": "view",
      "type": "function"
    },
    {
      "inputs": [],
      "name": "getCurrentVRGDAPrice",
      "outputs": [
        {
          "internalType": "uint256",
          "name": "",
          "type": "uint256"
        }
      ],
      "stateMutability": "view",
      "type": "function"
    },
    {
      "inputs": [
        {
          "internalType": "int256",
          "name": "sold",
          "type": "int256"
        }
      ],
      "name": "getTargetSaleTime",
      "outputs": [
        {
          "internalType": "int256",
          "name": "",
          "type": "int256"
        }
      ],
      "stateMutability": "view",
      "type": "function"
    },
    {
      "inputs": [
        {
          "internalType": "int256",
          "name": "timeSinceStart",
          "type": "int256"
        },
        {
          "internalType": "uint256",
          "name": "sold",
          "type": "uint256"
        }
      ],
      "name": "getVRGDAPrice",
      "outputs": [
        {
          "internalType": "uint256",
          "name": "",
          "type": "uint256"
        }
      ],
      "stateMutability": "view",
      "type": "function"
    },
    {
      "inputs": [
        {
          "internalType": "address",
          "name": "owner",
          "type": "address"
        },
        {
          "internalType": "address",
          "name": "operator",
          "type": "address"
        }
      ],
      "name": "isApprovedForAll",
      "outputs": [
        {
          "internalType": "bool",
          "name": "",
          "type": "bool"
        }
      ],
      "stateMutability": "view",
      "type": "function"
    },
    {
      "inputs": [
        {
          "internalType": "uint256",
          "name": "expectedTokenId",
          "type": "uint256"
        },
        {
          "internalType": "bytes32",
          "name": "expectedParentBlockhash",
          "type": "bytes32"
        }
      ],
      "name": "mint",
      "outputs": [],
      "stateMutability": "payable",
      "type": "function"
    },
    {
      "inputs": [],
      "name": "name",
      "outputs": [
        {
          "internalType": "string",
          "name": "",
          "type": "string"
        }
      ],
      "stateMutability": "view",
      "type": "function"
    },
    {
      "inputs": [],
      "name": "nextToken",
      "outputs": [
        {
          "internalType": "uint256",
          "name": "id",
          "type": "uint256"
        },
        {
          "internalType": "string",
          "name": "uri",
          "type": "string"
        },
        {
          "internalType": "uint256",
          "name": "price",
          "type": "uint256"
        },
        {
          "internalType": "bytes32",
          "name": "hash",
          "type": "bytes32"
        },
        {
          "internalType": "uint8",
          "name": "ttl",
          "type": "uint8"
        }
      ],
      "stateMutability": "view",
      "type": "function"
    },
    {
      "inputs": [
        {
          "internalType": "uint256",
          "name": "tokenId",
          "type": "uint256"
        }
      ],
      "name": "ownerOf",
      "outputs": [
        {
          "internalType": "address",
          "name": "",
          "type": "address"
        }
      ],
      "stateMutability": "view",
      "type": "function"
    },
    {
      "inputs": [
        {
          "internalType": "address",
          "name": "from",
          "type": "address"
        },
        {
          "internalType": "address",
          "name": "to",
          "type": "address"
        },
        {
          "internalType": "uint256",
          "name": "tokenId",
          "type": "uint256"
        }
      ],
      "name": "safeTransferFrom",
      "outputs": [],
      "stateMutability": "nonpayable",
      "type": "function"
    },
    {
      "inputs": [
        {
          "internalType": "address",
          "name": "from",
          "type": "address"
        },
        {
          "internalType": "address",
          "name": "to",
          "type": "address"
        },
        {
          "internalType": "uint256",
          "name": "tokenId",
          "type": "uint256"
        },
        {
          "internalType": "bytes",
          "name": "data",
          "type": "bytes"
        }
      ],
      "name": "safeTransferFrom",
      "outputs": [],
      "stateMutability": "nonpayable",
      "type": "function"
    },
    {
      "inputs": [
        {
          "internalType": "uint256",
          "name": "",
          "type": "uint256"
        }
      ],
      "name": "seeds",
      "outputs": [
        {
          "internalType": "uint256",
          "name": "",
          "type": "uint256"
        }
      ],
      "stateMutability": "view",
      "type": "function"
    },
    {
      "inputs": [
        {
          "internalType": "address",
          "name": "operator",
          "type": "address"
        },
        {
          "internalType": "bool",
          "name": "approved",
          "type": "bool"
        }
      ],
      "name": "setApprovalForAll",
      "outputs": [],
      "stateMutability": "nonpayable",
      "type": "function"
    },
    {
      "inputs": [],
      "name": "startTime",
      "outputs": [
        {
          "internalType": "uint256",
          "name": "",
          "type": "uint256"
        }
      ],
      "stateMutability": "view",
      "type": "function"
    },
    {
      "inputs": [
        {
          "internalType": "bytes4",
          "name": "interfaceId",
          "type": "bytes4"
        }
      ],
      "name": "supportsInterface",
      "outputs": [
        {
          "internalType": "bool",
          "name": "",
          "type": "bool"
        }
      ],
      "stateMutability": "view",
      "type": "function"
    },
    {
      "inputs": [],
      "name": "symbol",
      "outputs": [
        {
          "internalType": "string",
          "name": "",
          "type": "string"
        }
      ],
      "stateMutability": "view",
      "type": "function"
    },
    {
      "inputs": [],
      "name": "targetPrice",
      "outputs": [
        {
          "internalType": "int256",
          "name": "",
          "type": "int256"
        }
      ],
      "stateMutability": "view",
      "type": "function"
    },
    {
      "inputs": [
        {
          "internalType": "uint256",
          "name": "tokenId",
          "type": "uint256"
        }
      ],
      "name": "tokenURI",
      "outputs": [
        {
          "internalType": "string",
          "name": "",
          "type": "string"
        }
      ],
      "stateMutability": "view",
      "type": "function"
    },
    {
      "inputs": [],
      "name": "totalSold",
      "outputs": [
        {
          "internalType": "uint256",
          "name": "",
          "type": "uint256"
        }
      ],
      "stateMutability": "view",
      "type": "function"
    },
    {
      "inputs": [
        {
          "internalType": "address",
          "name": "from",
          "type": "address"
        },
        {
          "internalType": "address",
          "name": "to",
          "type": "address"
        },
        {
          "internalType": "uint256",
          "name": "tokenId",
          "type": "uint256"
        }
      ],
      "name": "transferFrom",
      "outputs": [],
      "stateMutability": "nonpayable",
      "type": "function"
    }
  ],
  "bytecode": {
    "object": "0x6101006040524260e0523480156200001657600080fd5b5066038d7ea4c68000662386f26fc1000068270801d946c940000082826040518060400160405280600a8152602001694d657263757269616c7360b01b815250604051806040016040528060048152602001634d45524360e01b8152508160009081620000849190620003ef565b506001620000938282620003ef565b5050506080829052620000b9620000b382670de0b6b3a7640000620004bb565b62000121565b60a0819052600013620001135760405162461bcd60e51b815260206004820152601b60248201527f4e4f4e5f4e454741544956455f44454341595f434f4e5354414e54000000000060448201526064015b60405180910390fd5b505060c05250620004f19050565b6000808213620001605760405162461bcd60e51b815260206004820152600960248201526815539111519253915160ba1b60448201526064016200010a565b5060606001600160801b03821160071b82811c6001600160401b031060061b1782811c63ffffffff1060051b1782811c61ffff1060041b1782811c60ff10600390811b90911783811c600f1060021b1783811c909110600190811b90911783811c90911017609f81810383019390931b90921c6c465772b2bbbb5f824b15207a3081018102821d6d0388eaa27412d5aca026815d636e018102821d6d0df99ac502031bf953eff472fdcc018102821d6d13cdffb29d51d99322bdff5f2211018102821d6d0a0f742023def783a307a986912e018102821d6d01920d8043ca89b5239253284e42018102821d6c0b7a86d7375468fac667a0a527016c29508e458543d8aa4df2abee7882018202831d6d0139601a2efabe717e604cbb4894018202831d6d02247f7a7b6594320649aa03aba1018202831d6c8c3f38e95a6b1ff2ab1c3b343619018202831d6d02384773bdf1ac5676facced60901901820290921d6cb9a025d814b29c212b8b1a07cd19010260016c0504a838426634cdd8738f543560611b03190105711340daa0d5f769dba1915cef59f0815a550602605f19919091017d0267a36c0c95b3975ab3ee5b203a7614a3f75373f047d803ae7b6687f2b302017d57115e47018c7177eebf7cd370a3356a1b7863008a5ae8028c72b88642840160ae1d90565b634e487b7160e01b600052604160045260246000fd5b600181811c908216806200037557607f821691505b6020821081036200039657634e487b7160e01b600052602260045260246000fd5b50919050565b601f821115620003ea57600081815260208120601f850160051c81016020861015620003c55750805b601f850160051c820191505b81811015620003e657828155600101620003d1565b5050505b505050565b81516001600160401b038111156200040b576200040b6200034a565b62000423816200041c845462000360565b846200039c565b602080601f8311600181146200045b5760008415620004425750858301515b600019600386901b1c1916600185901b178555620003e6565b600085815260208120601f198616915b828110156200048c578886015182559484019460019091019084016200046b565b5085821015620004ab5787850151600019600388901b60f8161c191681555b5050505050600190811b01905550565b8181036000831280158383131683831282161715620004ea57634e487b7160e01b600052601160045260246000fd5b5092915050565b60805160a05160c05160e051613b6262000540600039600081816103850152818161094f0152610bf3015260006109fa01526000610e640152600081816104990152610e3d0152613b626000f3fe6080604052600436106101815760003560e01c806378e97925116100d1578063c87b56dd1161008a578063e985e9c511610064578063e985e9c5146104bb578063f0503e80146104db578063f1e26b8214610508578063f466d4ab1461052857600080fd5b8063c87b56dd14610438578063cbb697d714610458578063dc38679c1461048757600080fd5b806378e97925146103735780639106d7ba146103a75780639499ac54146103bd57806395d89b41146103e3578063a22cb465146103f8578063b88d4fde1461041857600080fd5b8063424611c31161013e5780636352211e116101185780636352211e146102e45780636d9d33b7146103045780636dcee4ca1461032457806370a082311461035357600080fd5b8063424611c31461026a57806342842e0e146102a15780634718121a146102c157600080fd5b806301ffc9a71461018657806306fdde03146101bb578063081812fc146101dd578063095ea7b3146102155780631801fbe51461023757806323b872dd1461024a575b600080fd5b34801561019257600080fd5b506101a66101a13660046123da565b610548565b60405190151581526020015b60405180910390f35b3480156101c757600080fd5b506101d061059a565b6040516101b29190612447565b3480156101e957600080fd5b506101fd6101f836600461245a565b61062c565b6040516001600160a01b0390911681526020016101b2565b34801561022157600080fd5b5061023561023036600461248f565b610653565b005b6102356102453660046124b9565b61076d565b34801561025657600080fd5b506102356102653660046124db565b6108b3565b34801561027657600080fd5b5061028a61028536600461245a565b6108e4565b6040805192835260ff9091166020830152016101b2565b3480156102ad57600080fd5b506102356102bc3660046124db565b610927565b3480156102cd57600080fd5b506102d6610942565b6040519081526020016101b2565b3480156102f057600080fd5b506101fd6102ff36600461245a565b610996565b34801561031057600080fd5b506102d661031f36600461245a565b6109f6565b34801561033057600080fd5b5061034461033f36600461245a565b610a2a565b6040516101b293929190612517565b34801561035f57600080fd5b506102d661036e36600461255a565b610b3f565b34801561037f57600080fd5b506102d67f000000000000000000000000000000000000000000000000000000000000000081565b3480156103b357600080fd5b506102d660065481565b3480156103c957600080fd5b506103d2610bc5565b6040516101b2959493929190612575565b3480156103ef57600080fd5b506101d0610c36565b34801561040457600080fd5b506102356104133660046125ae565b610c45565b34801561042457600080fd5b50610235610433366004612676565b610c54565b34801561044457600080fd5b506101d061045336600461245a565b610c8c565b34801561046457600080fd5b506104786104733660046126f2565b610d2b565b6040516101b293929190612756565b34801561049357600080fd5b506102d67f000000000000000000000000000000000000000000000000000000000000000081565b3480156104c757600080fd5b506101a66104d636600461278c565b610d99565b3480156104e757600080fd5b506102d66104f636600461245a565b60076020526000908152604090205481565b34801561051457600080fd5b5061047861052336600461245a565b610dc7565b34801561053457600080fd5b506102d66105433660046124b9565b610e36565b60006001600160e01b031982166380ac58cd60e01b148061057957506001600160e01b03198216635b5e139f60e01b145b8061059457506301ffc9a760e01b6001600160e01b03198316145b92915050565b6060600080546105a9906127bf565b80601f01602080910402602001604051908101604052809291908181526020018280546105d5906127bf565b80156106225780601f106105f757610100808354040283529160200191610622565b820191906000526020600020905b81548152906001019060200180831161060557829003601f168201915b5050505050905090565b600061063782610eb4565b506000908152600460205260409020546001600160a01b031690565b600061065e82610996565b9050806001600160a01b0316836001600160a01b0316036106d05760405162461bcd60e51b815260206004820152602160248201527f4552433732313a20617070726f76616c20746f2063757272656e74206f776e656044820152603960f91b60648201526084015b60405180910390fd5b336001600160a01b03821614806106ec57506106ec8133610d99565b61075e5760405162461bcd60e51b815260206004820152603d60248201527f4552433732313a20617070726f76652063616c6c6572206973206e6f7420746f60448201527f6b656e206f776e6572206f7220617070726f76656420666f7220616c6c00000060648201526084016106c7565b6107688383610f16565b505050565b600061077a60014361280f565b4090508082146107cc5760405162461bcd60e51b815260206004820152601c60248201527f496e76616c6964206f72206578706972656420626c6f636b686173680000000060448201526064016106c7565b600654831461081d5760405162461bcd60e51b815260206004820152601b60248201527f496e76616c6964206f72206578706972656420746f6b656e204944000000000060448201526064016106c7565b6000610827610942565b90508034101561086e5760405162461bcd60e51b8152602060048201526012602482015271496e73756666696369656e742066756e647360701b60448201526064016106c7565b6108783385610f84565b60068054600101905561088e333483900361111d565b50600061089a846108e4565b5060009485526007602052604090942093909355505050565b6108bd338261116e565b6108d95760405162461bcd60e51b81526004016106c790612822565b6107688383836111cd565b60008060016108f3814361280f565b6040805191406020830152810185905260600160408051601f19818403018152919052805160209091012094909350915050565b61076883838360405180602001604052806000815250610c54565b60006109916109896109747f00000000000000000000000000000000000000000000000000000000000000004261280f565b62015180670de0b6b3a7640000919091020490565b600654610e36565b905090565b6000818152600260205260408120546001600160a01b0316806105945760405162461bcd60e51b8152602060048201526018602482015277115490cdcc8c4e881a5b9d985b1a59081d1bdad95b88125160421b60448201526064016106c7565b60007f0000000000000000000000000000000000000000000000000000000000000000670de0b6b3a7640000830205610594565b60608060606000606080610a3d87610dc7565b90955093509150610a4f878486610d2b565b909550935090506000610a66600160198a8761133e565b509050606080606080610a798c896113b3565b9b5091965094509092509050888282610a9188611461565b604051602001610aa4949392919061288b565b60405160208183030381529060405298506000610ac086611461565b604051602001610ad091906129b8565b6040516020818303038152906040529050878588604051602001610af693929190612abf565b6040516020818303038152906040529b5087848289604051602001610b1e9493929190612b29565b6040516020818303038152906040529a505050505050505050509193909250565b60006001600160a01b038216610ba95760405162461bcd60e51b815260206004820152602960248201527f4552433732313a2061646472657373207a65726f206973206e6f7420612076616044820152683634b21037bbb732b960b91b60648201526084016106c7565b506001600160a01b031660009081526003602052604090205490565b60065460606000808080610bd8866108e4565b92509050610be681876114f4565b9450610c1e610c186109747f00000000000000000000000000000000000000000000000000000000000000004261280f565b87610e36565b9350610c2b60014361280f565b409250509091929394565b6060600180546105a9906127bf565b610c503383836115a3565b5050565b610c5e338361116e565b610c7a5760405162461bcd60e51b81526004016106c790612822565b610c8684848484611671565b50505050565b6000818152600260205260409020546060906001600160a01b0316610d0b5760405162461bcd60e51b815260206004820152602f60248201527f4552433732314d657461646174613a2055524920717565727920666f72206e6f60448201526e3732bc34b9ba32b73a103a37b5b2b760891b60648201526084016106c7565b600082815260076020526040902054610d2481846114f4565b9392505050565b60608060006060610d3d8787876116a4565b9750955090506060610d50888888611a52565b9850965090506060610d628989611b1a565b604051909950909150610d7d90849084908490602001612ba7565b60408051808303601f1901815291905299969850505050505050565b6001600160a01b03918216600090815260056020908152604080832093909416825291909152205460ff1690565b60608060006060806060610ddb8785611b5a565b6040519097509295509093509150610df7908490602001612d09565b60405160208183030381529060405295508082604051602001610e1b929190612da4565b60405160208183030381529060405294505050509193909250565b6000610d247f0000000000000000000000000000000000000000000000000000000000000000610eaf610eaa7f0000000000000000000000000000000000000000000000000000000000000000610e99670de0b6b3a764000060018901026109f6565b8803670de0b6b3a764000091020590565b611be9565b611d92565b6000818152600260205260409020546001600160a01b0316610f135760405162461bcd60e51b8152602060048201526018602482015277115490cdcc8c4e881a5b9d985b1a59081d1bdad95b88125160421b60448201526064016106c7565b50565b600081815260046020526040902080546001600160a01b0319166001600160a01b0384169081179091558190610f4b82610996565b6001600160a01b03167f8c5be1e5ebec7d5bd14f71427d1e84f3dd0314c0f7b2291e5b200ac8c7c3b92560405160405180910390a45050565b6001600160a01b038216610fda5760405162461bcd60e51b815260206004820181905260248201527f4552433732313a206d696e7420746f20746865207a65726f206164647265737360448201526064016106c7565b6000818152600260205260409020546001600160a01b03161561103f5760405162461bcd60e51b815260206004820152601c60248201527f4552433732313a20746f6b656e20616c7265616479206d696e7465640000000060448201526064016106c7565b61104d600083836001611db7565b6000818152600260205260409020546001600160a01b0316156110b25760405162461bcd60e51b815260206004820152601c60248201527f4552433732313a20746f6b656e20616c7265616479206d696e7465640000000060448201526064016106c7565b6001600160a01b038216600081815260036020908152604080832080546001019055848352600290915280822080546001600160a01b0319168417905551839291907fddf252ad1be2c89b69c2b068fc378daa952ba7f163c4a11628f55a4df523b3ef908290a45050565b600080600080600085875af19050806107685760405162461bcd60e51b815260206004820152601360248201527211551217d514905394d1915497d19052531151606a1b60448201526064016106c7565b60008061117a83610996565b9050806001600160a01b0316846001600160a01b031614806111a157506111a18185610d99565b806111c55750836001600160a01b03166111ba8461062c565b6001600160a01b0316145b949350505050565b826001600160a01b03166111e082610996565b6001600160a01b0316146112065760405162461bcd60e51b81526004016106c790612e5f565b6001600160a01b0382166112685760405162461bcd60e51b8152602060048201526024808201527f4552433732313a207472616e7366657220746f20746865207a65726f206164646044820152637265737360e01b60648201526084016106c7565b6112758383836001611db7565b826001600160a01b031661128882610996565b6001600160a01b0316146112ae5760405162461bcd60e51b81526004016106c790612e5f565b600081815260046020908152604080832080546001600160a01b03199081169091556001600160a01b0387811680865260038552838620805460001901905590871680865283862080546001019055868652600290945282852080549092168417909155905184937fddf252ad1be2c89b69c2b068fc378daa952ba7f163c4a11628f55a4df523b3ef91a4505050565b6000806000848460405160200161135f929190918252602082015260400190565b60408051601f19818403018152919052805160209091012090508361138381612ea4565b9450879050611392818861280f565b61139c9083612ed3565b6113a69190612ee7565b9793965092945050505050565b606080606080600060606113c78888611e3f565b98509650905060006113dd600160518b8b61133e565b985090506113ea81611461565b6040516020016113fa9190612efa565b6040516020818303038152906040529350868460405160200161141e929190612f1f565b604051602081830303815290604052945081604051602001611440919061309b565b60408051601f19818403018152919052955087925050509295509295909350565b6060600061146e83611f17565b600101905060008167ffffffffffffffff81111561148e5761148e6125ea565b6040519080825280601f01601f1916602001820160405280156114b8576020820181803683370190505b5090508181016020015b600019016f181899199a1a9b1b9c1cb0b131b232b360811b600a86061a8153600a85049450846114c257509392505050565b60608060608061150386610a2a565b604051909550919350915061151c908490602001613124565b6040516020818303038152906040529250600061157561153b87611461565b61154485611fef565b61154d85611fef565b876040516020016115619493929190613169565b604051602081830303815290604052611fef565b90508060405160200161158891906132bc565b60405160208183030381529060405294505050505092915050565b816001600160a01b0316836001600160a01b0316036116045760405162461bcd60e51b815260206004820152601960248201527f4552433732313a20617070726f766520746f2063616c6c65720000000000000060448201526064016106c7565b6001600160a01b03838116600081815260056020908152604080832094871680845294825291829020805460ff191686151590811790915591519182527f17307eab39ab6107e8899845ad3d59bd9653f200f220920489ca2b5937696c31910160405180910390a3505050565b61167c8484846111cd565b61168884848484612142565b610c865760405162461bcd60e51b81526004016106c790613301565b6060806000606080606060006116be600060038c8c61133e565b995090506116cd600282612ed3565b156116f157604051806040016040528060018152602001603160f81b81525061170c565b604051806040016040528060018152602001600360fc1b8152505b935061171c600060038c8c61133e565b9950905061172b600282612ed3565b1561174f57604051806040016040528060018152602001603160f81b81525061176a565b604051806040016040528060018152602001603160f81b8152505b925061177a600060038c8c61133e565b99509050611789600282612ed3565b156117ad57604051806040016040528060018152602001603160f81b8152506117c8565b604051806040016040528060018152602001600360fc1b8152505b91506117d8600160048c8c61133e565b99509050600181900361180657604051806040016040528060018152602001603160f81b8152509350611895565b8060020361182f57604051806040016040528060018152602001603160f81b8152509250611895565b8060030361185857604051806040016040528060018152602001603160f81b8152509150611895565b60405162461bcd60e51b8152602060048201526012602482015271496e76616c6964206b312c206b322c206b3360701b60448201526064016106c7565b60606118a5600060338d8d61133e565b9a509150600a8210156118e1576118bb82611461565b6040516020016118cb9190613353565b6040516020818303038152906040529050611945565b600a82101580156118f25750606482105b156119105761190082611461565b6040516020016118cb919061337e565b60405162461bcd60e51b815260206004820152600a602482015269125b9d985b1a59081acd60b21b60448201526064016106c7565b6000611955600060028e8e61133e565b9b5090506000819003611985578160405160200161197391906133a8565b60405160208183030381529060405291505b611993600060038e8e61133e565b9b50925060606119a4600285612ed3565b15806119ae575081155b156119d357506040805180820190915260038152621bdd5d60ea1b60208201526119ee565b5060408051808201909152600281526134b760f11b60208201525b8a878483604051602001611a0594939291906133d1565b6040516020818303038152906040529a5060008188888887604051602001611a319594939291906134d9565b60408051808303601f190181529190529e9b9d505050505050505050505050565b606080600080611a6660026004898961133e565b965090506000611a7a6005600b8a8a61133e565b975090506000611a8d8160198b8b61133e565b9850905086611a9b84611461565b611aa484611461565b611aad84611461565b604051602001611ac0949392919061364b565b6040516020818303038152906040529650611ada83611461565b611ae383611461565b611aec83611461565b604051602001611afe9392919061376d565b60408051601f1981840301815291905299969850505050505050565b6060600080611b298585612243565b9450905060608115611b5157604051806080016040528060528152602001613a9b6052913990505b95939450505050565b606080606060006060611b6d87876122a1565b965090506000611b81600160048a8461133e565b975090506000611b9681620100008b8b61133e565b9850905082611ba483611461565b611bad83611461565b604051602001611bbf9392919061389d565b604051602081830303815290604052611bd783611461565b909a9099509297965091945050505050565b6000680248ce36a70cb26b3e198213611c0457506000919050565b680755bf798b4a1bf1e58212611c4b5760405162461bcd60e51b815260206004820152600c60248201526b4558505f4f564552464c4f5760a01b60448201526064016106c7565b6503782dace9d9604e83901b059150600060606bb17217f7d1cf79abc9e3b39884821b056001605f1b01901d6bb17217f7d1cf79abc9e3b39881029093036c240c330e9fb2d9cbaf0fd5aafb1981018102606090811d6d0277594991cfc85f6e2461837cd9018202811d6d1a521255e34f6a5061b25ef1c9c319018202811d6db1bbb201f443cf962f1a1d3db4a5018202811d6e02c72388d9f74f51a9331fed693f1419018202811d6e05180bb14799ab47a8a8cb2a527d57016d02d16720577bd19bf614176fe9ea6c10fe68e7fd37d0007b713f765084018402831d9081019084016d01d3967ed30fc4f89c02bab5708119010290911d6e0587f503bb6ea29d25fcb740196450019091026d360d7aeea093263ecc6e0ecb291760621b010574029d9dc38563c32e5c2f6dc192ee70ef65f9978af30260c3939093039290921c92915050565b8181028215838205831417611da657600080fd5b670de0b6b3a7640000900592915050565b6001811115610c86576001600160a01b03841615611dfd576001600160a01b03841660009081526003602052604081208054839290611df790849061280f565b90915550505b6001600160a01b03831615610c86576001600160a01b03831660009081526003602052604081208054839290611e34908490612ee7565b909155505050505050565b6060806000806000806000611e58600060978b8b61133e565b98509350611e668989612243565b98509250600080611e7b604b60fa8d8d61133e565b9a509150611e898b8b612243565b9a50905080151585151503611eac57611ea28287612ee7565b9350849250611ece565b81861115611ebe57611ea2828761280f565b611ec8868361280f565b93508092505b611ed88686612384565b985088611ee58585612384565b8a604051602001611ef893929190613963565b60408051808303601f19018152919052989b989a505050505050505050565b60008072184f03e93ff9f4daa797ed6e38ed64bf6a1f0160401b8310611f565772184f03e93ff9f4daa797ed6e38ed64bf6a1f0160401b830492506040015b6d04ee2d6d415b85acef81000000008310611f82576d04ee2d6d415b85acef8100000000830492506020015b662386f26fc100008310611fa057662386f26fc10000830492506010015b6305f5e1008310611fb8576305f5e100830492506008015b6127108310611fcc57612710830492506004015b60648310611fde576064830492506002015b600a83106105945760010192915050565b6060815160000361200e57505060408051602081019091526000815290565b6000604051806060016040528060408152602001613aed604091399050600060038451600261203d9190612ee7565b61204791906139c6565b6120529060046139da565b67ffffffffffffffff81111561206a5761206a6125ea565b6040519080825280601f01601f191660200182016040528015612094576020820181803683370190505b509050600182016020820185865187015b80821015612100576003820191508151603f8160121c168501518453600184019350603f81600c1c168501518453600184019350603f8160061c168501518453600184019350603f81168501518453506001830192506120a5565b505060038651066001811461211c576002811461212f57612137565b603d6001830353603d6002830353612137565b603d60018303535b509195945050505050565b60006001600160a01b0384163b1561223857604051630a85bd0160e11b81526001600160a01b0385169063150b7a02906121869033908990889088906004016139f1565b6020604051808303816000875af19250505080156121c1575060408051601f3d908101601f191682019092526121be91810190613a24565b60015b61221e573d8080156121ef576040519150601f19603f3d011682016040523d82523d6000602084013e6121f4565b606091505b5080516000036122165760405162461bcd60e51b81526004016106c790613301565b805181602001fd5b6001600160e01b031916630a85bd0160e11b1490506111c5565b506001949350505050565b60008060008484604051602001612264929190918252602082015260400190565b60408051601f19818403018152919052805160209091012090508361228881612ea4565b94506122979050600282612ed3565b1595939450505050565b60606000806122b5603261012d878761133e565b945090506060600a8210156122f3576122cd82611461565b6040516020016122dd9190613a41565b6040516020818303038152906040529050611b51565b600a82101580156123045750606482105b156123225761231282611461565b6040516020016122dd9190613a6e565b606482106123435761233382611461565b6040516020016122dd9190613353565b60405162461bcd60e51b8152602060048201526016602482015275496e76616c69642062617365206672657175656e637960501b60448201526064016106c7565b606081156123bb5761239583611461565b6040516020016123a591906133a8565b6040516020818303038152906040529050610594565b610d2483611461565b6001600160e01b031981168114610f1357600080fd5b6000602082840312156123ec57600080fd5b8135610d24816123c4565b60005b838110156124125781810151838201526020016123fa565b50506000910152565b600081518084526124338160208601602086016123f7565b601f01601f19169290920160200192915050565b602081526000610d24602083018461241b565b60006020828403121561246c57600080fd5b5035919050565b80356001600160a01b038116811461248a57600080fd5b919050565b600080604083850312156124a257600080fd5b6124ab83612473565b946020939093013593505050565b600080604083850312156124cc57600080fd5b50508035926020909101359150565b6000806000606084860312156124f057600080fd5b6124f984612473565b925061250760208501612473565b9150604084013590509250925092565b60608152600061252a606083018661241b565b828103602084015261253c818661241b565b90508281036040840152612550818561241b565b9695505050505050565b60006020828403121561256c57600080fd5b610d2482612473565b85815260a06020820152600061258e60a083018761241b565b604083019590955250606081019290925260ff1660809091015292915050565b600080604083850312156125c157600080fd5b6125ca83612473565b9150602083013580151581146125df57600080fd5b809150509250929050565b634e487b7160e01b600052604160045260246000fd5b600067ffffffffffffffff8084111561261b5761261b6125ea565b604051601f8501601f19908116603f01168101908282118183101715612643576126436125ea565b8160405280935085815286868601111561265c57600080fd5b858560208301376000602087830101525050509392505050565b6000806000806080858703121561268c57600080fd5b61269585612473565b93506126a360208601612473565b925060408501359150606085013567ffffffffffffffff8111156126c657600080fd5b8501601f810187136126d757600080fd5b6126e687823560208401612600565b91505092959194509250565b60008060006060848603121561270757600080fd5b8335925060208401359150604084013567ffffffffffffffff81111561272c57600080fd5b8401601f8101861361273d57600080fd5b61274c86823560208401612600565b9150509250925092565b606081526000612769606083018661241b565b828103602084015261277b818661241b565b915050826040830152949350505050565b6000806040838503121561279f57600080fd5b6127a883612473565b91506127b660208401612473565b90509250929050565b600181811c908216806127d357607f821691505b6020821081036127f357634e487b7160e01b600052602260045260246000fd5b50919050565b634e487b7160e01b600052601160045260246000fd5b81810381811115610594576105946127f9565b6020808252602d908201527f4552433732313a2063616c6c6572206973206e6f7420746f6b656e206f776e6560408201526c1c881bdc88185c1c1c9bdd9959609a1b606082015260800190565b600081516128818185602086016123f7565b9290920192915050565b6000855161289d818460208a016123f7565b80830190507f7b202274726169745f74797065223a20225363616c65222c202276616c7565228152621d101160e91b602082015285516128e4816023840160208a016123f7565b64011103e96160dd1b6023929091019182018190527f7b202274726169745f74797065223a20225363616c6520416e696d6174696f6e60288301526c111610113b30b63ab2911d101160991b60488301528551612948816055850160208a016123f7565b60559201918201527f7b202274726169745f74797065223a202248756520526f7461746520416e696d605a8201527130ba34b7b7111610113b30b63ab2911d101160711b607a82015261299e608c82018561286f565b637322207d60e01b815290505b6004019695505050505050565b7f3c616e696d617465206174747269627574654e616d653d2276616c75657322208152710333937b69e911811103a379e91199b1811160751b602082015264323ab91e9160d91b603282015260008251612a198160378501602087016123f7565b6203991160ed1b60379390910192830152507f726570656174436f756e743d22696e646566696e6974652220726573756c743d603a820152741131b7b637b926b0ba3934bc2932b9bab63a11179f60591b605a820152606f01919050565b7f3c6665436f6c6f724d617472697820747970653d22687565526f7461746522208152753932b9bab63a1e913937ba30ba32a932b9bab63a111f60511b602082015260360190565b60008451612ad18184602089016123f7565b845190830190612ae58183602089016123f7565b612af0818301612a77565b9150506f1e17b332a1b7b637b926b0ba3934bc1f60811b81528351612b1c8160108401602088016123f7565b0160100195945050505050565b60008551612b3b818460208a016123f7565b855190830190612b4f818360208a016123f7565b612b5a818301612a77565b9150508451612b6d8183602089016123f7565b6f1e17b332a1b7b637b926b0ba3934bc1f60811b91019081528351612b998160108401602088016123f7565b016010019695505050505050565b7f3c6665436f6c6f724d617472697820747970653d226d6174726978222072657381527f756c743d22636f6c6f724368616e6e656c526573756c7422200000000000000060208201527103b30b63ab2b99e91181018101810181018160751b60398201526000690181018101810181018160b51b80604b840152806055840152506a189018101810181018111f60a91b605f8301526f1e17b332a1b7b637b926b0ba3934bc1f60811b606a8301528451612c6881607a8501602089016123f7565b845190830190612c7f81607a8401602089016123f7565b8451910190612c9581607a8401602088016123f7565b01612cae607a8201681e17b334b63a32b91f60b91b9052565b7f3c726563742077696474683d2233353022206865696768743d2233353022206660838201527034b63a32b91e913ab9361411b09491179f60791b60a3820152651e17b9bb339f60d11b60b482015260ba0195945050505050565b7f3c7376672077696474683d2233353022206865696768743d223335302220766581527f7273696f6e3d22312e312220786d6c6e733d22687474703a2f2f7777772e773360208201526e1737b933979918181817b9bb33911f60891b60408201526e1e3334b63a32b91034b21e9130911f60891b604f82015260008251612d9781605e8501602087016123f7565b91909101605e0192915050565b7f7b202274726169745f74797065223a202242617365204672657175656e63792281526b1610113b30b63ab2911d101160a11b602082015260008351612df181602c8501602088016123f7565b64011103e96160dd1b602c9184019182018190527f7b202274726169745f74797065223a20224f637461766573222c202276616c7560318301526432911d101160d91b60518301528451612e4c8160568501602089016123f7565b6056920191820152605b01949350505050565b60208082526025908201527f4552433732313a207472616e736665722066726f6d20696e636f72726563742060408201526437bbb732b960d91b606082015260800190565b600060018201612eb657612eb66127f9565b5060010190565b634e487b7160e01b600052601260045260246000fd5b600082612ee257612ee2612ebd565b500690565b80820180821115610594576105946127f9565b60008251612f0c8184602087016123f7565b607360f81b920191825250600101919050565b7f3c6665446973706c6163656d656e744d617020726573756c743d22646973706c81526e30b1b2b6b2b73a2932b9bab63a111f60891b60208201527f3c616e696d617465206174747269627574654e616d653d227363616c65222000602f820152673b30b63ab2b99e9160c11b604e82015260008351612fa68160568501602088016123f7565b7f22206b657954696d65733d22303b20302e353b203122206475723d22000000006056918401918201528351612fe38160728401602088016123f7565b7f2220726570656174436f756e743d22696e646566696e6974652220726573756c910160728101919091527f743d22646973706c6163656d656e74526573756c74222063616c634d6f64653d60928201527f2273706c696e6522206b657953706c696e65733d22302e33203020302e37203160b28201526f1d9018171990181018171b901891179f60811b60d2820152731e17b332a234b9b83630b1b2b6b2b73a26b0b81f60611b60e282015260f601949350505050565b7f3c6665446973706c6163656d656e744d6170207363616c653d220000000000008152600082516130d381601a8501602087016123f7565b7f2220726573756c743d22646973706c6163656d656e74526573756c74223e0000601a939091019283015250731e17b332a234b9b83630b1b2b6b2b73a26b0b81f60611b6038820152604c01919050565b6f01130ba3a3934b13aba32b9911d102d960851b815281516000906131508160108501602087016123f7565b61205d60f01b6010939091019283015250601201919050565b757b20226e616d65223a20224d657263757269616c202360501b8152845160009061319b816016850160208a016123f7565b6201116160ed1b60169184019182018190527f226465736372697074696f6e223a20224f6e20636861696e2067656e65726174601983015272034bb329030b93a10383937b532b1ba1711161606d1b60398301527f22696d616765223a2022646174613a696d6167652f7376672b786d6c3b626173604c83015263194d8d0b60e21b606c8301528651613235816070850160208b016123f7565b60709201918201527f22616e696d6174696f6e5f75726c223a2022646174613a696d6167652f73766760738201526b0ade1b5b0ed8985cd94d8d0b60a21b60938201526132b16132a361329d61328e609f85018961286f565b6201116160ed1b815260030190565b8661286f565b61207d60f01b815260020190565b979650505050505050565b7f646174613a6170706c69636174696f6e2f6a736f6e3b6261736536342c0000008152600082516132f481601d8501602087016123f7565b91909101601d0192915050565b60208082526032908201527f4552433732313a207472616e7366657220746f206e6f6e20455243373231526560408201527131b2b4bb32b91034b6b83632b6b2b73a32b960711b606082015260800190565b620302e360ec1b8152600082516133718160038501602087016123f7565b9190910160030192915050565b61181760f11b81526000825161339b8160028501602087016123f7565b9190910160020192915050565b602d60f81b8152600082516133c48160018501602087016123f7565b9190910160010192915050565b6000855160206133e48285838b016123f7565b7f7b202274726169745f74797065223a20224b31222c202276616c7565223a2022918401918252865161341c81838501848b016123f7565b64011103e96160dd1b92018181018390527f7b202274726169745f74797065223a20224b34222c202276616c7565223a20226025820152865190929061346881604586018a86016123f7565b604593019283018190527f7b202274726169745f74797065223a2022436f6d706f73697465204f70657261604a8401526f3a37b9111610113b30b63ab2911d101160811b606a84015285516134c381607a8601858a016123f7565b607a93019283015250607f019695505050505050565b7f3c6665436f6d706f7369746520696e3d22726f74617465526573756c7422206981527f6e323d22636f6c6f724368616e6e656c526573756c7422206f70657261746f726020820152611e9160f11b604082015260008651613542816042850160208b016123f7565b7f2220726573756c743d22636f6d706f73697465526573756c7432222f3e0000006042918401918201527f3c6665436f6d706f7369746520696e3d22636f6d706f73697465526573756c74605f8201527f322220696e323d22636f6d706f73697465526573756c743222206f7065726174607f8201527337b91e9130b934ba3436b2ba34b1911035989e9160611b609f8201526135e260b382018861286f565b65111035991e9160d11b815290506135fd600682018761286f565b65111035999e9160d11b81529050613618600682018661286f565b651110359a1e9160d11b81529050613633600682018561286f565b6211179f60e91b815260030198975050505050505050565b6000855161365d818460208a016123f7565b80830190507f7b202274726169745f74797065223a20224469666675736520436f6e7374616e81526d3a111610113b30b63ab2911d101160911b602082015285516136af81602e840160208a016123f7565b64011103e96160dd1b602e929091019182018190527f7b202274726169745f74797065223a202253757266616365205363616c65222c60338301526a10113b30b63ab2911d101160a91b6053830152855161371181605e850160208a016123f7565b605e9201918201527f7b202274726169745f74797065223a2022456c65766174696f6e222c20227661606382015266363ab2911d101160c91b608382015261375c608a82018561286f565b6308881f4b60e21b815290506129ab565b7f3c6665446966667573654c69676874696e67206c69676874696e672d636f6c6f81527f723d227768697465222064696666757365436f6e7374616e743d2200000000006020820152600084516137cb81603b8501602089016123f7565b7f2220726573756c743d2264696666757365526573756c74222073757266616365603b918401918201526629b1b0b6329e9160c91b605b82015284516138188160628401602089016123f7565b7f223e3c666544697374616e744c6967687420656c65766174696f6e3d2200000060629290910191820152835161385681607f8401602088016123f7565b7f223e3c2f666544697374616e744c696768743e3c2f6665446966667573654c69607f92909101918201526633b43a34b7339f60c91b609f82015260a60195945050505050565b7f3c666554757262756c656e636520626173654672657175656e63793d220000008152600084516138d581601d8501602089016123f7565b6d1110373ab6a7b1ba30bb32b99e9160911b601d91840191820152845161390381602b8401602089016123f7565b67111039b2b2b21e9160c11b602b9290910191820152835161392c8160338401602088016123f7565b7f2220726573756c743d2274757262756c656e6365526573756c74222f3e2000006033929091019182015260510195945050505050565b600084516139758184602089016123f7565b8083019050603b60f81b8082528551613995816001850160208a016123f7565b6001920191820181905284516139b28160028501602089016123f7565b600292019182015260030195945050505050565b6000826139d5576139d5612ebd565b500490565b8082028115828204841417610594576105946127f9565b6001600160a01b03858116825284166020820152604081018390526080606082018190526000906125509083018461241b565b600060208284031215613a3657600080fd5b8151610d24816123c4565b640302e3030360dc1b815260008251613a618160058501602087016123f7565b9190910160050192915050565b630302e30360e41b815260008251613a8d8160048501602087016123f7565b919091016004019291505056fe3c6665436f6c6f724d617472697820747970653d226d6174726978222076616c7565733d222d3120302030203020312030202d3120302030203120302030202d312030203120302030203020312030222f3e4142434445464748494a4b4c4d4e4f505152535455565758595a6162636465666768696a6b6c6d6e6f707172737475767778797a303132333435363738392b2fa264697066735822122060dfe142d139217e1f2d058d599c0255098e088de3b7df233097b376058c171664736f6c63430008110033",
    "linkReferences": {}
  },
  "methodIdentifiers": {
    "approve(address,uint256)": "095ea7b3",
    "balanceOf(address)": "70a08231",
    "generateSVG(uint256)": "6dcee4ca",
    "generateSVGPartOne(uint256)": "f1e26b82",
    "generateSVGPartTwo(uint256,uint256,string)": "cbb697d7",
    "generateSeed(uint256)": "424611c3",
    "getApproved(uint256)": "081812fc",
    "getCurrentVRGDAPrice()": "4718121a",
    "getTargetSaleTime(int256)": "6d9d33b7",
    "getVRGDAPrice(int256,uint256)": "f466d4ab",
    "isApprovedForAll(address,address)": "e985e9c5",
    "mint(uint256,bytes32)": "1801fbe5",
    "name()": "06fdde03",
    "nextToken()": "9499ac54",
    "ownerOf(uint256)": "6352211e",
    "safeTransferFrom(address,address,uint256)": "42842e0e",
    "safeTransferFrom(address,address,uint256,bytes)": "b88d4fde",
    "seeds(uint256)": "f0503e80",
    "setApprovalForAll(address,bool)": "a22cb465",
    "startTime()": "78e97925",
    "supportsInterface(bytes4)": "01ffc9a7",
    "symbol()": "95d89b41",
    "targetPrice()": "dc38679c",
    "tokenURI(uint256)": "c87b56dd",
    "totalSold()": "9106d7ba",
    "transferFrom(address,address,uint256)": "23b872dd"
  },
  "id": 32
}