{
  "abi": [
    {
      "inputs": [],
      "stateMutability": "nonpayable",
      "type": "constructor"
    },
    {
      "anonymous": false,
      "inputs": [
        {
          "indexed": true,
          "internalType": "address",
          "name": "owner",
          "type": "address"
        },
        {
          "indexed": true,
          "internalType": "address",
          "name": "approved",
          "type": "address"
        },
        {
          "indexed": true,
          "internalType": "uint256",
          "name": "tokenId",
          "type": "uint256"
        }
      ],
      "name": "Approval",
      "type": "event"
    },
    {
      "anonymous": false,
      "inputs": [
        {
          "indexed": true,
          "internalType": "address",
          "name": "owner",
          "type": "address"
        },
        {
          "indexed": true,
          "internalType": "address",
          "name": "operator",
          "type": "address"
        },
        {
          "indexed": false,
          "internalType": "bool",
          "name": "approved",
          "type": "bool"
        }
      ],
      "name": "ApprovalForAll",
      "type": "event"
    },
    {
      "anonymous": false,
      "inputs": [
        {
          "indexed": true,
          "internalType": "address",
          "name": "from",
          "type": "address"
        },
        {
          "indexed": true,
          "internalType": "address",
          "name": "to",
          "type": "address"
        },
        {
          "indexed": true,
          "internalType": "uint256",
          "name": "tokenId",
          "type": "uint256"
        }
      ],
      "name": "Transfer",
      "type": "event"
    },
    {
      "inputs": [
        {
          "internalType": "address",
          "name": "to",
          "type": "address"
        },
        {
          "internalType": "uint256",
          "name": "tokenId",
          "type": "uint256"
        }
      ],
      "name": "approve",
      "outputs": [],
      "stateMutability": "nonpayable",
      "type": "function"
    },
    {
      "inputs": [
        {
          "internalType": "address",
          "name": "owner",
          "type": "address"
        }
      ],
      "name": "balanceOf",
      "outputs": [
        {
          "internalType": "uint256",
          "name": "",
          "type": "uint256"
        }
      ],
      "stateMutability": "view",
      "type": "function"
    },
    {
      "inputs": [
        {
          "internalType": "uint256",
          "name": "seed",
          "type": "uint256"
        }
      ],
      "name": "generateSVG",
      "outputs": [
        {
          "internalType": "string",
          "name": "",
          "type": "string"
        }
      ],
      "stateMutability": "pure",
      "type": "function"
    },
    {
      "inputs": [
        {
          "internalType": "uint256",
          "name": "tokenId",
          "type": "uint256"
        }
      ],
      "name": "generateSeed",
      "outputs": [
        {
          "internalType": "uint256",
          "name": "",
          "type": "uint256"
        },
        {
          "internalType": "uint8",
          "name": "",
          "type": "uint8"
        }
      ],
      "stateMutability": "view",
      "type": "function"
    },
    {
      "inputs": [
        {
          "internalType": "uint256",
          "name": "tokenId",
          "type": "uint256"
        }
      ],
      "name": "getApproved",
      "outputs": [
        {
          "internalType": "address",
          "name": "",
          "type": "address"
        }
      ],
      "stateMutability": "view",
      "type": "function"
    },
    {
      "inputs": [],
      "name": "getCurrentVRGDAPrice",
      "outputs": [
        {
          "internalType": "uint256",
          "name": "",
          "type": "uint256"
        }
      ],
      "stateMutability": "view",
      "type": "function"
    },
    {
      "inputs": [
        {
          "internalType": "int256",
          "name": "sold",
          "type": "int256"
        }
      ],
      "name": "getTargetSaleTime",
      "outputs": [
        {
          "internalType": "int256",
          "name": "",
          "type": "int256"
        }
      ],
      "stateMutability": "view",
      "type": "function"
    },
    {
      "inputs": [
        {
          "internalType": "int256",
          "name": "timeSinceStart",
          "type": "int256"
        },
        {
          "internalType": "uint256",
          "name": "sold",
          "type": "uint256"
        }
      ],
      "name": "getVRGDAPrice",
      "outputs": [
        {
          "internalType": "uint256",
          "name": "",
          "type": "uint256"
        }
      ],
      "stateMutability": "view",
      "type": "function"
    },
    {
      "inputs": [
        {
          "internalType": "address",
          "name": "owner",
          "type": "address"
        },
        {
          "internalType": "address",
          "name": "operator",
          "type": "address"
        }
      ],
      "name": "isApprovedForAll",
      "outputs": [
        {
          "internalType": "bool",
          "name": "",
          "type": "bool"
        }
      ],
      "stateMutability": "view",
      "type": "function"
    },
    {
      "inputs": [
        {
          "internalType": "uint256",
          "name": "expectedTokenId",
          "type": "uint256"
        },
        {
          "internalType": "bytes32",
          "name": "expectedParentBlockhash",
          "type": "bytes32"
        }
      ],
      "name": "mint",
      "outputs": [],
      "stateMutability": "payable",
      "type": "function"
    },
    {
      "inputs": [],
      "name": "name",
      "outputs": [
        {
          "internalType": "string",
          "name": "",
          "type": "string"
        }
      ],
      "stateMutability": "view",
      "type": "function"
    },
    {
      "inputs": [],
      "name": "nextToken",
      "outputs": [
        {
          "internalType": "uint256",
          "name": "tokenId",
          "type": "uint256"
        },
        {
          "internalType": "string",
          "name": "svg",
          "type": "string"
        },
        {
          "internalType": "uint256",
          "name": "price",
          "type": "uint256"
        },
        {
          "internalType": "bytes32",
          "name": "hash",
          "type": "bytes32"
        },
        {
          "internalType": "uint8",
          "name": "ttl",
          "type": "uint8"
        }
      ],
      "stateMutability": "view",
      "type": "function"
    },
    {
      "inputs": [
        {
          "internalType": "uint256",
          "name": "tokenId",
          "type": "uint256"
        }
      ],
      "name": "ownerOf",
      "outputs": [
        {
          "internalType": "address",
          "name": "",
          "type": "address"
        }
      ],
      "stateMutability": "view",
      "type": "function"
    },
    {
      "inputs": [
        {
          "internalType": "address",
          "name": "from",
          "type": "address"
        },
        {
          "internalType": "address",
          "name": "to",
          "type": "address"
        },
        {
          "internalType": "uint256",
          "name": "tokenId",
          "type": "uint256"
        }
      ],
      "name": "safeTransferFrom",
      "outputs": [],
      "stateMutability": "nonpayable",
      "type": "function"
    },
    {
      "inputs": [
        {
          "internalType": "address",
          "name": "from",
          "type": "address"
        },
        {
          "internalType": "address",
          "name": "to",
          "type": "address"
        },
        {
          "internalType": "uint256",
          "name": "tokenId",
          "type": "uint256"
        },
        {
          "internalType": "bytes",
          "name": "data",
          "type": "bytes"
        }
      ],
      "name": "safeTransferFrom",
      "outputs": [],
      "stateMutability": "nonpayable",
      "type": "function"
    },
    {
      "inputs": [
        {
          "internalType": "uint256",
          "name": "",
          "type": "uint256"
        }
      ],
      "name": "seeds",
      "outputs": [
        {
          "internalType": "uint256",
          "name": "",
          "type": "uint256"
        }
      ],
      "stateMutability": "view",
      "type": "function"
    },
    {
      "inputs": [
        {
          "internalType": "address",
          "name": "operator",
          "type": "address"
        },
        {
          "internalType": "bool",
          "name": "approved",
          "type": "bool"
        }
      ],
      "name": "setApprovalForAll",
      "outputs": [],
      "stateMutability": "nonpayable",
      "type": "function"
    },
    {
      "inputs": [],
      "name": "startTime",
      "outputs": [
        {
          "internalType": "uint256",
          "name": "",
          "type": "uint256"
        }
      ],
      "stateMutability": "view",
      "type": "function"
    },
    {
      "inputs": [
        {
          "internalType": "bytes4",
          "name": "interfaceId",
          "type": "bytes4"
        }
      ],
      "name": "supportsInterface",
      "outputs": [
        {
          "internalType": "bool",
          "name": "",
          "type": "bool"
        }
      ],
      "stateMutability": "view",
      "type": "function"
    },
    {
      "inputs": [],
      "name": "symbol",
      "outputs": [
        {
          "internalType": "string",
          "name": "",
          "type": "string"
        }
      ],
      "stateMutability": "view",
      "type": "function"
    },
    {
      "inputs": [],
      "name": "targetPrice",
      "outputs": [
        {
          "internalType": "int256",
          "name": "",
          "type": "int256"
        }
      ],
      "stateMutability": "view",
      "type": "function"
    },
    {
      "inputs": [
        {
          "internalType": "uint256",
          "name": "tokenId",
          "type": "uint256"
        }
      ],
      "name": "tokenURI",
      "outputs": [
        {
          "internalType": "string",
          "name": "",
          "type": "string"
        }
      ],
      "stateMutability": "view",
      "type": "function"
    },
    {
      "inputs": [],
      "name": "totalSold",
      "outputs": [
        {
          "internalType": "uint256",
          "name": "",
          "type": "uint256"
        }
      ],
      "stateMutability": "view",
      "type": "function"
    },
    {
      "inputs": [
        {
          "internalType": "address",
          "name": "from",
          "type": "address"
        },
        {
          "internalType": "address",
          "name": "to",
          "type": "address"
        },
        {
          "internalType": "uint256",
          "name": "tokenId",
          "type": "uint256"
        }
      ],
      "name": "transferFrom",
      "outputs": [],
      "stateMutability": "nonpayable",
      "type": "function"
    }
  ],
  "bytecode": {
    "object": "0x6101006040524260e0523480156200001657600080fd5b50662386f26fc100008068029a2241af62c0000082826040518060400160405280600981526020016813595c98dd5c9a585b60ba1b815250604051806040016040528060048152602001634d45524360e01b81525081600090816200007c9190620003e7565b5060016200008b8282620003e7565b5050506080829052620000b1620000ab82670de0b6b3a7640000620004b3565b62000119565b60a08190526000136200010b5760405162461bcd60e51b815260206004820152601b60248201527f4e4f4e5f4e454741544956455f44454341595f434f4e5354414e54000000000060448201526064015b60405180910390fd5b505060c05250620004e99050565b6000808213620001585760405162461bcd60e51b815260206004820152600960248201526815539111519253915160ba1b604482015260640162000102565b5060606001600160801b03821160071b82811c6001600160401b031060061b1782811c63ffffffff1060051b1782811c61ffff1060041b1782811c60ff10600390811b90911783811c600f1060021b1783811c909110600190811b90911783811c90911017609f81810383019390931b90921c6c465772b2bbbb5f824b15207a3081018102821d6d0388eaa27412d5aca026815d636e018102821d6d0df99ac502031bf953eff472fdcc018102821d6d13cdffb29d51d99322bdff5f2211018102821d6d0a0f742023def783a307a986912e018102821d6d01920d8043ca89b5239253284e42018102821d6c0b7a86d7375468fac667a0a527016c29508e458543d8aa4df2abee7882018202831d6d0139601a2efabe717e604cbb4894018202831d6d02247f7a7b6594320649aa03aba1018202831d6c8c3f38e95a6b1ff2ab1c3b343619018202831d6d02384773bdf1ac5676facced60901901820290921d6cb9a025d814b29c212b8b1a07cd19010260016c0504a838426634cdd8738f543560611b03190105711340daa0d5f769dba1915cef59f0815a550602605f19919091017d0267a36c0c95b3975ab3ee5b203a7614a3f75373f047d803ae7b6687f2b302017d57115e47018c7177eebf7cd370a3356a1b7863008a5ae8028c72b88642840160ae1d90565b634e487b7160e01b600052604160045260246000fd5b600181811c908216806200036d57607f821691505b6020821081036200038e57634e487b7160e01b600052602260045260246000fd5b50919050565b601f821115620003e257600081815260208120601f850160051c81016020861015620003bd5750805b601f850160051c820191505b81811015620003de57828155600101620003c9565b5050505b505050565b81516001600160401b0381111562000403576200040362000342565b6200041b8162000414845462000358565b8462000394565b602080601f8311600181146200045357600084156200043a5750858301515b600019600386901b1c1916600185901b178555620003de565b600085815260208120601f198616915b82811015620004845788860151825594840194600190910190840162000463565b5085821015620004a35787850151600019600388901b60f8161c191681555b5050505050600190811b01905550565b8181036000831280158383131683831282161715620004e257634e487b7160e01b600052601160045260246000fd5b5092915050565b60805160a05160c05160e0516131426200053860003960008181610340015281816109000152610b6d015260006109ab01526000610d660152600081816104250152610d3f01526131426000f3fe60806040526004361061014b5760003560e01c806370a08231116100b6578063b88d4fde1161006f578063b88d4fde146103d3578063c87b56dd146103f3578063dc38679c14610413578063e985e9c514610447578063f0503e8014610467578063f466d4ab1461049457600080fd5b806370a082311461030e57806378e979251461032e5780639106d7ba146103625780639499ac541461037857806395d89b411461039e578063a22cb465146103b357600080fd5b8063424611c311610108578063424611c31461023457806342842e0e1461026b5780634718121a1461028b5780636352211e146102ae5780636d9d33b7146102ce5780636dcee4ca146102ee57600080fd5b806301ffc9a71461015057806306fdde0314610185578063081812fc146101a7578063095ea7b3146101df5780631801fbe51461020157806323b872dd14610214575b600080fd5b34801561015c57600080fd5b5061017061016b366004612132565b6104b4565b60405190151581526020015b60405180910390f35b34801561019157600080fd5b5061019a610506565b60405161017c919061219f565b3480156101b357600080fd5b506101c76101c23660046121b2565b610598565b6040516001600160a01b03909116815260200161017c565b3480156101eb57600080fd5b506101ff6101fa3660046121e7565b6105bf565b005b6101ff61020f366004612211565b6106d9565b34801561022057600080fd5b506101ff61022f366004612233565b61081f565b34801561024057600080fd5b5061025461024f3660046121b2565b610850565b6040805192835260ff90911660208301520161017c565b34801561027757600080fd5b506101ff610286366004612233565b6108d8565b34801561029757600080fd5b506102a06108f3565b60405190815260200161017c565b3480156102ba57600080fd5b506101c76102c93660046121b2565b610947565b3480156102da57600080fd5b506102a06102e93660046121b2565b6109a7565b3480156102fa57600080fd5b5061019a6103093660046121b2565b6109db565b34801561031a57600080fd5b506102a061032936600461226f565b610ab9565b34801561033a57600080fd5b506102a07f000000000000000000000000000000000000000000000000000000000000000081565b34801561036e57600080fd5b506102a060065481565b34801561038457600080fd5b5061038d610b3f565b60405161017c95949392919061228a565b3480156103aa57600080fd5b5061019a610bb2565b3480156103bf57600080fd5b506101ff6103ce3660046122c3565b610bc1565b3480156103df57600080fd5b506101ff6103ee366004612315565b610bd0565b3480156103ff57600080fd5b5061019a61040e3660046121b2565b610c08565b34801561041f57600080fd5b506102a07f000000000000000000000000000000000000000000000000000000000000000081565b34801561045357600080fd5b506101706104623660046123f1565b610d0a565b34801561047357600080fd5b506102a06104823660046121b2565b60076020526000908152604090205481565b3480156104a057600080fd5b506102a06104af366004612211565b610d38565b60006001600160e01b031982166380ac58cd60e01b14806104e557506001600160e01b03198216635b5e139f60e01b145b8061050057506301ffc9a760e01b6001600160e01b03198316145b92915050565b60606000805461051590612424565b80601f016020809104026020016040519081016040528092919081815260200182805461054190612424565b801561058e5780601f106105635761010080835404028352916020019161058e565b820191906000526020600020905b81548152906001019060200180831161057157829003601f168201915b5050505050905090565b60006105a382610dbd565b506000908152600460205260409020546001600160a01b031690565b60006105ca82610947565b9050806001600160a01b0316836001600160a01b03160361063c5760405162461bcd60e51b815260206004820152602160248201527f4552433732313a20617070726f76616c20746f2063757272656e74206f776e656044820152603960f91b60648201526084015b60405180910390fd5b336001600160a01b038216148061065857506106588133610d0a565b6106ca5760405162461bcd60e51b815260206004820152603d60248201527f4552433732313a20617070726f76652063616c6c6572206973206e6f7420746f60448201527f6b656e206f776e6572206f7220617070726f76656420666f7220616c6c0000006064820152608401610633565b6106d48383610e1f565b505050565b60006106e6600143612474565b4090508082146107385760405162461bcd60e51b815260206004820152601c60248201527f496e76616c6964206f72206578706972656420626c6f636b68617368000000006044820152606401610633565b60065483146107895760405162461bcd60e51b815260206004820152601b60248201527f496e76616c6964206f72206578706972656420746f6b656e20494400000000006044820152606401610633565b60006107936108f3565b9050803410156107da5760405162461bcd60e51b8152602060048201526012602482015271496e73756666696369656e742066756e647360701b6044820152606401610633565b6107e43385610e8d565b6006805460010190556107fa3334839003611026565b50600061080684610850565b5060009485526007602052604090942093909355505050565b6108293382611077565b6108455760405162461bcd60e51b815260040161063390612487565b6106d48383836110d6565b600080806005610861600143612474565b61086b91906124ea565b6108769060056124fe565b90506005610885600143612474565b61088f91906124ea565b61089a600143612474565b6108a49190612474565b6040805191406020830152810185905260600160408051601f19818403018152919052805160209091012094909350915050565b6106d483838360405180602001604052806000815250610bd0565b600061094261093a6109257f000000000000000000000000000000000000000000000000000000000000000042612474565b62015180670de0b6b3a7640000919091020490565b600654610d38565b905090565b6000818152600260205260408120546001600160a01b0316806105005760405162461bcd60e51b8152602060048201526018602482015277115490cdcc8c4e881a5b9d985b1a59081d1bdad95b88125160421b6044820152606401610633565b60007f0000000000000000000000000000000000000000000000000000000000000000670de0b6b3a7640000830205610500565b606060006003826109ec8584611247565b9350905060606109fc8685611328565b945090506060610a0f8786861586611385565b955090506060610a1f8887611460565b965090506060610a2f89886117e4565b975090506060610a3f8a8961186a565b98509050848460018914610a625760405180602001604052806000815250610a83565b87604051602001610a739190612533565b6040516020818303038152906040525b858585604051602001610a9b969594939291906125ed565b60405160208183030381529060405298505050505050505050919050565b60006001600160a01b038216610b235760405162461bcd60e51b815260206004820152602960248201527f4552433732313a2061646472657373207a65726f206973206e6f7420612076616044820152683634b21037bbb732b960b91b6064820152608401610633565b506001600160a01b031660009081526003602052604090205490565b6006546060600080808080610b5387610850565b91509150610b60826109db565b9550610b98610b926109257f000000000000000000000000000000000000000000000000000000000000000042612474565b88610d38565b9450610ba5600143612474565b4093509150509091929394565b60606001805461051590612424565b610bcc3383836118af565b5050565b610bda3383611077565b610bf65760405162461bcd60e51b815260040161063390612487565b610c028484848461197d565b50505050565b6000818152600260205260409020546060906001600160a01b0316610c875760405162461bcd60e51b815260206004820152602f60248201527f4552433732314d657461646174613a2055524920717565727920666f72206e6f60448201526e3732bc34b9ba32b73a103a37b5b2b760891b6064820152608401610633565b60008281526007602052604081205490610ca0826109db565b90506000610cde610cb0866119b0565b610cb984611a43565b604051602001610cca92919061284a565b604051602081830303815290604052611a43565b905080604051602001610cf1919061291f565b6040516020818303038152906040529350505050919050565b6001600160a01b03918216600090815260056020908152604080832093909416825291909152205460ff1690565b6000610db67f0000000000000000000000000000000000000000000000000000000000000000610db1610dac7f0000000000000000000000000000000000000000000000000000000000000000610d9b670de0b6b3a764000060018901026109a7565b8803670de0b6b3a764000091020590565b611b96565b611d3f565b9392505050565b6000818152600260205260409020546001600160a01b0316610e1c5760405162461bcd60e51b8152602060048201526018602482015277115490cdcc8c4e881a5b9d985b1a59081d1bdad95b88125160421b6044820152606401610633565b50565b600081815260046020526040902080546001600160a01b0319166001600160a01b0384169081179091558190610e5482610947565b6001600160a01b03167f8c5be1e5ebec7d5bd14f71427d1e84f3dd0314c0f7b2291e5b200ac8c7c3b92560405160405180910390a45050565b6001600160a01b038216610ee35760405162461bcd60e51b815260206004820181905260248201527f4552433732313a206d696e7420746f20746865207a65726f20616464726573736044820152606401610633565b6000818152600260205260409020546001600160a01b031615610f485760405162461bcd60e51b815260206004820152601c60248201527f4552433732313a20746f6b656e20616c7265616479206d696e746564000000006044820152606401610633565b610f56600083836001611d64565b6000818152600260205260409020546001600160a01b031615610fbb5760405162461bcd60e51b815260206004820152601c60248201527f4552433732313a20746f6b656e20616c7265616479206d696e746564000000006044820152606401610633565b6001600160a01b038216600081815260036020908152604080832080546001019055848352600290915280822080546001600160a01b0319168417905551839291907fddf252ad1be2c89b69c2b068fc378daa952ba7f163c4a11628f55a4df523b3ef908290a45050565b600080600080600085875af19050806106d45760405162461bcd60e51b815260206004820152601360248201527211551217d514905394d1915497d19052531151606a1b6044820152606401610633565b60008061108383610947565b9050806001600160a01b0316846001600160a01b031614806110aa57506110aa8185610d0a565b806110ce5750836001600160a01b03166110c384610598565b6001600160a01b0316145b949350505050565b826001600160a01b03166110e982610947565b6001600160a01b03161461110f5760405162461bcd60e51b815260040161063390612964565b6001600160a01b0382166111715760405162461bcd60e51b8152602060048201526024808201527f4552433732313a207472616e7366657220746f20746865207a65726f206164646044820152637265737360e01b6064820152608401610633565b61117e8383836001611d64565b826001600160a01b031661119182610947565b6001600160a01b0316146111b75760405162461bcd60e51b815260040161063390612964565b600081815260046020908152604080832080546001600160a01b03199081169091556001600160a01b0387811680865260038552838620805460001901905590871680865283862080546001019055868652600290945282852080549092168417909155905184937fddf252ad1be2c89b69c2b068fc378daa952ba7f163c4a11628f55a4df523b3ef91a4505050565b606060008061125a600060038787611dec565b94509050606060008290036112885750604080518082019091526002815261337360f01b602082015261131f565b816001036112af5750604080518082019091526002815261367360f01b602082015261131f565b816002036112d7575060408051808201909152600381526231327360e81b602082015261131f565b60405162461bcd60e51b815260206004820152601a60248201527f496e76616c696420616e696d6174696f6e206475726174696f6e0000000000006044820152606401610633565b95939450505050565b6060600060606113388585611e61565b94509050600061134c600160048884611dec565b955090508161135a826119b0565b60405160200161136b9291906129a9565b60408051601f198184030181529190529694955050505050565b6060600080611398600160c98989611dec565b965090506060806113a8836119b0565b91506113bd6113b8846064612a63565b6119b0565b905060006113cf600060028c8c611dec565b995090506113de6002826124ea565b6000036113e9579091905b6113f2846119b0565b8861140c5760405180602001604052806000815250611431565b83838960405160200161142193929190612a76565b6040516020818303038152906040525b604051602001611442929190612b6f565b60408051601f198184030181529190529a9899505050505050505050565b6060600060608060606000611479600060038a8a611dec565b975090506114886002826124ea565b156114ac57604051806040016040528060018152602001603160f81b8152506114c7565b604051806040016040528060018152602001600360fc1b8152505b93506114d7600060038a8a611dec565b975090506114e66002826124ea565b1561150a57604051806040016040528060018152602001603160f81b815250611525565b604051806040016040528060018152602001603160f81b8152505b9250611535600060038a8a611dec565b975090506115446002826124ea565b1561156857604051806040016040528060018152602001603160f81b815250611583565b604051806040016040528060018152602001600360fc1b8152505b9150611593600160048a8a611dec565b9750905060018190036115c157604051806040016040528060018152602001603160f81b8152509350611650565b806002036115ea57604051806040016040528060018152602001603160f81b8152509250611650565b8060030361161357604051806040016040528060018152602001603160f81b8152509150611650565b60405162461bcd60e51b8152602060048201526012602482015271496e76616c6964206b312c206b322c206b3360701b6044820152606401610633565b6060611660600060338b8b611dec565b98509150600a82101561169c57611676826119b0565b6040516020016116869190612c11565b6040516020818303038152906040529050611700565b600a82101580156116ad5750606482105b156116cb576116bb826119b0565b6040516020016116869190612c3c565b60405162461bcd60e51b815260206004820152600a602482015269125b9d985b1a59081acd60b21b6044820152606401610633565b6000611710600060028c8c611dec565b995090506000819003611740578160405160200161172e9190612c66565b60405160208183030381529060405291505b61174e600060038c8c611dec565b99509250606061175f6002856124ea565b1580611769575081155b1561178e57506040805180820190915260038152621bdd5d60ea1b60208201526117a9565b5060408051808201909152600281526134b760f11b60208201525b600081888888876040516020016117c4959493929190612c8f565b60408051808303601f190181529190529c9a9b5050505050505050505050565b60606000806117f7600260038787611dec565b94509050600061180b600a601e8888611dec565b95509050600061181e81601e8989611dec565b9650905061182b836119b0565b611834836119b0565b61183d836119b0565b60405160200161184f93929190612e01565b60408051601f19818403018152919052979596505050505050565b606060008061187d600060028787611dec565b945090506060600082900361131f5760405180608001604052806052815260200161307b605291399694955050505050565b816001600160a01b0316836001600160a01b0316036119105760405162461bcd60e51b815260206004820152601960248201527f4552433732313a20617070726f766520746f2063616c6c6572000000000000006044820152606401610633565b6001600160a01b03838116600081815260056020908152604080832094871680845294825291829020805460ff191686151590811790915591519182527f17307eab39ab6107e8899845ad3d59bd9653f200f220920489ca2b5937696c31910160405180910390a3505050565b6119888484846110d6565b61199484848484611f43565b610c025760405162461bcd60e51b815260040161063390612f31565b606060006119bd83612044565b600101905060008167ffffffffffffffff8111156119dd576119dd6122ff565b6040519080825280601f01601f191660200182016040528015611a07576020820181803683370190505b5090508181016020015b600019016f181899199a1a9b1b9c1cb0b131b232b360811b600a86061a8153600a8504945084611a1157509392505050565b60608151600003611a6257505060408051602081019091526000815290565b60006040518060600160405280604081526020016130cd6040913990506000600384516002611a919190612a63565b611a9b9190612f83565b611aa6906004612f97565b67ffffffffffffffff811115611abe57611abe6122ff565b6040519080825280601f01601f191660200182016040528015611ae8576020820181803683370190505b509050600182016020820185865187015b80821015611b54576003820191508151603f8160121c168501518453600184019350603f81600c1c168501518453600184019350603f8160061c168501518453600184019350603f8116850151845350600183019250611af9565b5050600386510660018114611b705760028114611b8357611b8b565b603d6001830353603d6002830353611b8b565b603d60018303535b509195945050505050565b6000680248ce36a70cb26b3e198213611bb157506000919050565b680755bf798b4a1bf1e58212611bf85760405162461bcd60e51b815260206004820152600c60248201526b4558505f4f564552464c4f5760a01b6044820152606401610633565b6503782dace9d9604e83901b059150600060606bb17217f7d1cf79abc9e3b39884821b056001605f1b01901d6bb17217f7d1cf79abc9e3b39881029093036c240c330e9fb2d9cbaf0fd5aafb1981018102606090811d6d0277594991cfc85f6e2461837cd9018202811d6d1a521255e34f6a5061b25ef1c9c319018202811d6db1bbb201f443cf962f1a1d3db4a5018202811d6e02c72388d9f74f51a9331fed693f1419018202811d6e05180bb14799ab47a8a8cb2a527d57016d02d16720577bd19bf614176fe9ea6c10fe68e7fd37d0007b713f765084018402831d9081019084016d01d3967ed30fc4f89c02bab5708119010290911d6e0587f503bb6ea29d25fcb740196450019091026d360d7aeea093263ecc6e0ecb291760621b010574029d9dc38563c32e5c2f6dc192ee70ef65f9978af30260c3939093039290921c92915050565b8181028215838205831417611d5357600080fd5b670de0b6b3a7640000900592915050565b6001811115610c02576001600160a01b03841615611daa576001600160a01b03841660009081526003602052604081208054839290611da4908490612474565b90915550505b6001600160a01b03831615610c02576001600160a01b03831660009081526003602052604081208054839290611de1908490612a63565b909155505050505050565b60008060008484604051602001611e0d929190918252602082015260400190565b60408051601f198184030181529190528051602090910120905083611e3181612fae565b9450879050611e408188612474565b611e4a90836124ea565b611e549190612a63565b9793965092945050505050565b6060600080611e74601e60fb8787611dec565b945090506060600a821015611eb257611e8c826119b0565b604051602001611e9c9190612fc7565b604051602081830303815290604052905061131f565b600a8210158015611ec35750606482105b15611ee157611ed1826119b0565b604051602001611e9c9190612ff4565b60648210611f0257611ef2826119b0565b604051602001611e9c9190612c11565b60405162461bcd60e51b8152602060048201526016602482015275496e76616c69642062617365206672657175656e637960501b6044820152606401610633565b60006001600160a01b0384163b1561203957604051630a85bd0160e11b81526001600160a01b0385169063150b7a0290611f87903390899088908890600401613020565b6020604051808303816000875af1925050508015611fc2575060408051601f3d908101601f19168201909252611fbf9181019061305d565b60015b61201f573d808015611ff0576040519150601f19603f3d011682016040523d82523d6000602084013e611ff5565b606091505b5080516000036120175760405162461bcd60e51b815260040161063390612f31565b805181602001fd5b6001600160e01b031916630a85bd0160e11b1490506110ce565b506001949350505050565b60008072184f03e93ff9f4daa797ed6e38ed64bf6a1f0160401b83106120835772184f03e93ff9f4daa797ed6e38ed64bf6a1f0160401b830492506040015b6d04ee2d6d415b85acef810000000083106120af576d04ee2d6d415b85acef8100000000830492506020015b662386f26fc1000083106120cd57662386f26fc10000830492506010015b6305f5e10083106120e5576305f5e100830492506008015b61271083106120f957612710830492506004015b6064831061210b576064830492506002015b600a83106105005760010192915050565b6001600160e01b031981168114610e1c57600080fd5b60006020828403121561214457600080fd5b8135610db68161211c565b60005b8381101561216a578181015183820152602001612152565b50506000910152565b6000815180845261218b81602086016020860161214f565b601f01601f19169290920160200192915050565b602081526000610db66020830184612173565b6000602082840312156121c457600080fd5b5035919050565b80356001600160a01b03811681146121e257600080fd5b919050565b600080604083850312156121fa57600080fd5b612203836121cb565b946020939093013593505050565b6000806040838503121561222457600080fd5b50508035926020909101359150565b60008060006060848603121561224857600080fd5b612251846121cb565b925061225f602085016121cb565b9150604084013590509250925092565b60006020828403121561228157600080fd5b610db6826121cb565b85815260a0602082015260006122a360a0830187612173565b604083019590955250606081019290925260ff1660809091015292915050565b600080604083850312156122d657600080fd5b6122df836121cb565b9150602083013580151581146122f457600080fd5b809150509250929050565b634e487b7160e01b600052604160045260246000fd5b6000806000806080858703121561232b57600080fd5b612334856121cb565b9350612342602086016121cb565b925060408501359150606085013567ffffffffffffffff8082111561236657600080fd5b818701915087601f83011261237a57600080fd5b81358181111561238c5761238c6122ff565b604051601f8201601f19908116603f011681019083821181831017156123b4576123b46122ff565b816040528281528a60208487010111156123cd57600080fd5b82602086016020830137600060208483010152809550505050505092959194509250565b6000806040838503121561240457600080fd5b61240d836121cb565b915061241b602084016121cb565b90509250929050565b600181811c9082168061243857607f821691505b60208210810361245857634e487b7160e01b600052602260045260246000fd5b50919050565b634e487b7160e01b600052601160045260246000fd5b818103818111156105005761050061245e565b6020808252602d908201527f4552433732313a2063616c6c6572206973206e6f7420746f6b656e206f776e6560408201526c1c881bdc88185c1c1c9bdd9959609a1b606082015260800190565b634e487b7160e01b600052601260045260246000fd5b6000826124f9576124f96124d4565b500690565b60ff82811682821603908111156105005761050061245e565b6000815161252981856020860161214f565b9290920192915050565b7f3c616e696d617465206174747269627574654e616d653d2276616c7565732220815270333937b69e911811103a379e91199b181160791b602082015264323ab91e9160d91b60318201526000825161259381603685016020870161214f565b7f2220726570656174436f756e743d22696e646566696e6974652220726573756c60369390910192830152507f743d22636f6c6f724d6174726978526573756c74222f3e0000000000000000006056820152606d01919050565b7f3c7376672077696474683d2235303022206865696768743d223530302220766981527f6577426f783d223020302035303020353030222076657273696f6e3d22312e3160208201527f2220786d6c6e733d22687474703a2f2f7777772e77332e6f72672f323030302f60408201526439bb33911f60d91b60608201526e1e3334b63a32b91034b21e9130911f60891b606582015260006126ee6126e86126a061269a607486018c612517565b8a612517565b7f3c6665436f6c6f724d617472697820747970653d22687565526f7461746522208152753932b9bab63a1e913937ba30ba32a932b9bab63a111f60511b602082015260360190565b87612517565b6f1e17b332a1b7b637b926b0ba3934bc1f60811b81527f3c6665436f6c6f724d617472697820747970653d226d6174726978222072657360108201527f756c743d22636f6c6f724368616e6e656c526573756c742220000000000000006030820152604981017103b30b63ab2b99e91181018101810181018160751b81529050690181018101810181018160b51b6012820152690181018101810181018160b51b601c8201526a189018101810181018111f60a91b60268201526f1e17b332a1b7b637b926b0ba3934bc1f60811b60318201526127da6127d46126e86041840189612517565b85612517565b681e17b334b63a32b91f60b91b81527f3c726563742077696474683d223130303022206865696768743d223130303022600982015272103334b63a32b91e913ab9361411b09491179f60691b6029820152651e17b9bb339f60d11b603c8201526042019998505050505050505050565b747b226e616d65223a20224d657263757269616c202360581b8152825160009061287b81601585016020880161214f565b7f222c20226465736372697074696f6e223a20224f6e20636861696e2067656e656015918401918201527f726174697665206172742070726f6a6563742e222c2022696d616765223a202260358201527f646174613a696d6167652f7376672b786d6c3b6261736536342c0000000000006055820152835161290481606f84016020880161214f565b61227d60f01b606f9290910191820152607101949350505050565b7f646174613a6170706c69636174696f6e2f6a736f6e3b6261736536342c00000081526000825161295781601d85016020870161214f565b91909101601d0192915050565b60208082526025908201527f4552433732313a207472616e736665722066726f6d20696e636f72726563742060408201526437bbb732b960d91b606082015260800190565b7f3c666554757262756c656e636520626173654672657175656e63793d220000008152600083516129e181601d85016020880161214f565b6d1110373ab6a7b1ba30bb32b99e9160911b601d918401918201528351612a0f81602b84016020880161214f565b601160f91b602b92909101918201527f20726573756c743d2274757262756c656e6365526573756c74223e203c2f6665602c8201526a2a3ab9313ab632b731b29f60a91b604c820152605701949350505050565b808201808211156105005761050061245e565b7f3c616e696d617465206174747269627574654e616d653d227363616c652220668152643937b69e9160d91b602082015260008451612abc81602585016020890161214f565b6511103a379e9160d11b6025918401918201528451612ae281602b84016020890161214f565b601160f91b602b929091019182015264323ab91e9160d91b602c8201528351612b1281603184016020880161214f565b7f2220726570656174436f756e743d22696e646566696e6974652220726573756c603192909101918201527f743d22646973706c6163656d656e74526573756c74222f3e0000000000000000605182015260690195945050505050565b7f3c6665446973706c6163656d656e744d6170207363616c653d22000000000000815260008351612ba781601a85016020880161214f565b7f2220726573756c743d22646973706c6163656d656e74526573756c74223e0000601a918401918201528351612be481603884016020880161214f565b731e17b332a234b9b83630b1b2b6b2b73a26b0b81f60611b60389290910191820152604c01949350505050565b620302e360ec1b815260008251612c2f81600385016020870161214f565b9190910160030192915050565b61181760f11b815260008251612c5981600285016020870161214f565b9190910160020192915050565b602d60f81b815260008251612c8281600185016020870161214f565b9190910160010192915050565b7f3c6665436f6d706f7369746520696e3d22726f74617465526573756c7422206981527f6e323d22636f6c6f724368616e6e656c526573756c7422206f70657261746f726020820152611e9160f11b604082015260008651612cf8816042850160208b0161214f565b7f2220726573756c743d22636f6d706f73697465526573756c7432222f3e0000006042918401918201527f3c6665436f6d706f7369746520696e3d22636f6d706f73697465526573756c74605f8201527f322220696e323d22636f6d706f73697465526573756c743222206f7065726174607f8201527337b91e9130b934ba3436b2ba34b1911035989e9160611b609f820152612d9860b3820188612517565b65111035991e9160d11b81529050612db36006820187612517565b65111035999e9160d11b81529050612dce6006820186612517565b651110359a1e9160d11b81529050612de96006820185612517565b6211179f60e91b815260030198975050505050505050565b7f3c6665446966667573654c69676874696e67206c69676874696e672d636f6c6f81527f723d227768697465222064696666757365436f6e7374616e743d220000000000602082015260008451612e5f81603b85016020890161214f565b7f2220726573756c743d2264696666757365526573756c74222073757266616365603b918401918201526629b1b0b6329e9160c91b605b8201528451612eac81606284016020890161214f565b7f223e3c666544697374616e744c6967687420656c65766174696f6e3d22000000606292909101918201528351612eea81607f84016020880161214f565b7f223e3c2f666544697374616e744c696768743e3c2f6665446966667573654c69607f92909101918201526633b43a34b7339f60c91b609f82015260a60195945050505050565b60208082526032908201527f4552433732313a207472616e7366657220746f206e6f6e20455243373231526560408201527131b2b4bb32b91034b6b83632b6b2b73a32b960711b606082015260800190565b600082612f9257612f926124d4565b500490565b80820281158282048414176105005761050061245e565b600060018201612fc057612fc061245e565b5060010190565b640302e3030360dc1b815260008251612fe781600585016020870161214f565b9190910160050192915050565b630302e30360e41b81526000825161301381600485016020870161214f565b9190910160040192915050565b6001600160a01b038581168252841660208201526040810183905260806060820181905260009061305390830184612173565b9695505050505050565b60006020828403121561306f57600080fd5b8151610db68161211c56fe3c6665436f6c6f724d617472697820747970653d226d6174726978222076616c7565733d222d3120302030203020312030202d3120302030203120302030202d312030203120302030203020312030222f3e4142434445464748494a4b4c4d4e4f505152535455565758595a6162636465666768696a6b6c6d6e6f707172737475767778797a303132333435363738392b2fa26469706673582212209f3189b146704b43d977f62c8233909f7494ca5e0fc03b327dd4679663e9aec564736f6c63430008110033",
    "linkReferences": {}
  },
  "methodIdentifiers": {
    "approve(address,uint256)": "095ea7b3",
    "balanceOf(address)": "70a08231",
    "generateSVG(uint256)": "6dcee4ca",
    "generateSeed(uint256)": "424611c3",
    "getApproved(uint256)": "081812fc",
    "getCurrentVRGDAPrice()": "4718121a",
    "getTargetSaleTime(int256)": "6d9d33b7",
    "getVRGDAPrice(int256,uint256)": "f466d4ab",
    "isApprovedForAll(address,address)": "e985e9c5",
    "mint(uint256,bytes32)": "1801fbe5",
    "name()": "06fdde03",
    "nextToken()": "9499ac54",
    "ownerOf(uint256)": "6352211e",
    "safeTransferFrom(address,address,uint256)": "42842e0e",
    "safeTransferFrom(address,address,uint256,bytes)": "b88d4fde",
    "seeds(uint256)": "f0503e80",
    "setApprovalForAll(address,bool)": "a22cb465",
    "startTime()": "78e97925",
    "supportsInterface(bytes4)": "01ffc9a7",
    "symbol()": "95d89b41",
    "targetPrice()": "dc38679c",
    "tokenURI(uint256)": "c87b56dd",
    "totalSold()": "9106d7ba",
    "transferFrom(address,address,uint256)": "23b872dd"
  },
  "id": 32
}