{
  "abi": [
    {
      "inputs": [],
      "stateMutability": "nonpayable",
      "type": "constructor"
    },
    {
      "inputs": [],
      "name": "InsufficientFunds",
      "type": "error"
    },
    {
      "inputs": [],
      "name": "InvalidBlockHash",
      "type": "error"
    },
    {
      "inputs": [],
      "name": "InvalidTokenId",
      "type": "error"
    },
    {
      "inputs": [],
      "name": "TokenDoesNotExist",
      "type": "error"
    },
    {
      "anonymous": false,
      "inputs": [
        {
          "indexed": true,
          "internalType": "address",
          "name": "owner",
          "type": "address"
        },
        {
          "indexed": true,
          "internalType": "address",
          "name": "approved",
          "type": "address"
        },
        {
          "indexed": true,
          "internalType": "uint256",
          "name": "tokenId",
          "type": "uint256"
        }
      ],
      "name": "Approval",
      "type": "event"
    },
    {
      "anonymous": false,
      "inputs": [
        {
          "indexed": true,
          "internalType": "address",
          "name": "owner",
          "type": "address"
        },
        {
          "indexed": true,
          "internalType": "address",
          "name": "operator",
          "type": "address"
        },
        {
          "indexed": false,
          "internalType": "bool",
          "name": "approved",
          "type": "bool"
        }
      ],
      "name": "ApprovalForAll",
      "type": "event"
    },
    {
      "anonymous": false,
      "inputs": [
        {
          "indexed": true,
          "internalType": "uint256",
          "name": "tokenId",
          "type": "uint256"
        },
        {
          "indexed": true,
          "internalType": "address",
          "name": "owner",
          "type": "address"
        },
        {
          "indexed": false,
          "internalType": "uint256",
          "name": "price",
          "type": "uint256"
        }
      ],
      "name": "TokenMinted",
      "type": "event"
    },
    {
      "anonymous": false,
      "inputs": [
        {
          "indexed": true,
          "internalType": "address",
          "name": "from",
          "type": "address"
        },
        {
          "indexed": true,
          "internalType": "address",
          "name": "to",
          "type": "address"
        },
        {
          "indexed": true,
          "internalType": "uint256",
          "name": "tokenId",
          "type": "uint256"
        }
      ],
      "name": "Transfer",
      "type": "event"
    },
    {
      "inputs": [
        {
          "internalType": "address",
          "name": "to",
          "type": "address"
        },
        {
          "internalType": "uint256",
          "name": "tokenId",
          "type": "uint256"
        }
      ],
      "name": "approve",
      "outputs": [],
      "stateMutability": "nonpayable",
      "type": "function"
    },
    {
      "inputs": [
        {
          "internalType": "address",
          "name": "owner",
          "type": "address"
        }
      ],
      "name": "balanceOf",
      "outputs": [
        {
          "internalType": "uint256",
          "name": "",
          "type": "uint256"
        }
      ],
      "stateMutability": "view",
      "type": "function"
    },
    {
      "inputs": [
        {
          "internalType": "uint256",
          "name": "tokenId",
          "type": "uint256"
        }
      ],
      "name": "getApproved",
      "outputs": [
        {
          "internalType": "address",
          "name": "",
          "type": "address"
        }
      ],
      "stateMutability": "view",
      "type": "function"
    },
    {
      "inputs": [
        {
          "internalType": "int256",
          "name": "sold",
          "type": "int256"
        }
      ],
      "name": "getTargetSaleTime",
      "outputs": [
        {
          "internalType": "int256",
          "name": "",
          "type": "int256"
        }
      ],
      "stateMutability": "view",
      "type": "function"
    },
    {
      "inputs": [
        {
          "internalType": "int256",
          "name": "timeSinceStart",
          "type": "int256"
        },
        {
          "internalType": "uint256",
          "name": "sold",
          "type": "uint256"
        }
      ],
      "name": "getVRGDAPrice",
      "outputs": [
        {
          "internalType": "uint256",
          "name": "",
          "type": "uint256"
        }
      ],
      "stateMutability": "view",
      "type": "function"
    },
    {
      "inputs": [
        {
          "internalType": "address",
          "name": "owner",
          "type": "address"
        },
        {
          "internalType": "address",
          "name": "operator",
          "type": "address"
        }
      ],
      "name": "isApprovedForAll",
      "outputs": [
        {
          "internalType": "bool",
          "name": "",
          "type": "bool"
        }
      ],
      "stateMutability": "view",
      "type": "function"
    },
    {
      "inputs": [
        {
          "internalType": "uint256",
          "name": "tokenId",
          "type": "uint256"
        },
        {
          "internalType": "bytes32",
          "name": "blockHash",
          "type": "bytes32"
        }
      ],
      "name": "mint",
      "outputs": [],
      "stateMutability": "payable",
      "type": "function"
    },
    {
      "inputs": [],
      "name": "name",
      "outputs": [
        {
          "internalType": "string",
          "name": "",
          "type": "string"
        }
      ],
      "stateMutability": "view",
      "type": "function"
    },
    {
      "inputs": [],
      "name": "nextToken",
      "outputs": [
        {
          "internalType": "uint256",
          "name": "id",
          "type": "uint256"
        },
        {
          "internalType": "string",
          "name": "uri",
          "type": "string"
        },
        {
          "internalType": "uint256",
          "name": "price",
          "type": "uint256"
        },
        {
          "internalType": "bytes32",
          "name": "blockHash",
          "type": "bytes32"
        },
        {
          "internalType": "uint256",
          "name": "ttl",
          "type": "uint256"
        }
      ],
      "stateMutability": "view",
      "type": "function"
    },
    {
      "inputs": [
        {
          "internalType": "uint256",
          "name": "tokenId",
          "type": "uint256"
        }
      ],
      "name": "ownerOf",
      "outputs": [
        {
          "internalType": "address",
          "name": "",
          "type": "address"
        }
      ],
      "stateMutability": "view",
      "type": "function"
    },
    {
      "inputs": [
        {
          "internalType": "address",
          "name": "from",
          "type": "address"
        },
        {
          "internalType": "address",
          "name": "to",
          "type": "address"
        },
        {
          "internalType": "uint256",
          "name": "tokenId",
          "type": "uint256"
        }
      ],
      "name": "safeTransferFrom",
      "outputs": [],
      "stateMutability": "nonpayable",
      "type": "function"
    },
    {
      "inputs": [
        {
          "internalType": "address",
          "name": "from",
          "type": "address"
        },
        {
          "internalType": "address",
          "name": "to",
          "type": "address"
        },
        {
          "internalType": "uint256",
          "name": "tokenId",
          "type": "uint256"
        },
        {
          "internalType": "bytes",
          "name": "data",
          "type": "bytes"
        }
      ],
      "name": "safeTransferFrom",
      "outputs": [],
      "stateMutability": "nonpayable",
      "type": "function"
    },
    {
      "inputs": [
        {
          "internalType": "uint256",
          "name": "",
          "type": "uint256"
        }
      ],
      "name": "seeds",
      "outputs": [
        {
          "internalType": "uint256",
          "name": "",
          "type": "uint256"
        }
      ],
      "stateMutability": "view",
      "type": "function"
    },
    {
      "inputs": [
        {
          "internalType": "address",
          "name": "operator",
          "type": "address"
        },
        {
          "internalType": "bool",
          "name": "approved",
          "type": "bool"
        }
      ],
      "name": "setApprovalForAll",
      "outputs": [],
      "stateMutability": "nonpayable",
      "type": "function"
    },
    {
      "inputs": [],
      "name": "startTime",
      "outputs": [
        {
          "internalType": "uint256",
          "name": "",
          "type": "uint256"
        }
      ],
      "stateMutability": "view",
      "type": "function"
    },
    {
      "inputs": [
        {
          "internalType": "bytes4",
          "name": "interfaceId",
          "type": "bytes4"
        }
      ],
      "name": "supportsInterface",
      "outputs": [
        {
          "internalType": "bool",
          "name": "",
          "type": "bool"
        }
      ],
      "stateMutability": "view",
      "type": "function"
    },
    {
      "inputs": [],
      "name": "symbol",
      "outputs": [
        {
          "internalType": "string",
          "name": "",
          "type": "string"
        }
      ],
      "stateMutability": "view",
      "type": "function"
    },
    {
      "inputs": [],
      "name": "targetPrice",
      "outputs": [
        {
          "internalType": "int256",
          "name": "",
          "type": "int256"
        }
      ],
      "stateMutability": "view",
      "type": "function"
    },
    {
      "inputs": [
        {
          "internalType": "uint256",
          "name": "tokenId",
          "type": "uint256"
        }
      ],
      "name": "tokenURI",
      "outputs": [
        {
          "internalType": "string",
          "name": "",
          "type": "string"
        }
      ],
      "stateMutability": "view",
      "type": "function"
    },
    {
      "inputs": [],
      "name": "totalSold",
      "outputs": [
        {
          "internalType": "uint256",
          "name": "",
          "type": "uint256"
        }
      ],
      "stateMutability": "view",
      "type": "function"
    },
    {
      "inputs": [
        {
          "internalType": "address",
          "name": "from",
          "type": "address"
        },
        {
          "internalType": "address",
          "name": "to",
          "type": "address"
        },
        {
          "internalType": "uint256",
          "name": "tokenId",
          "type": "uint256"
        }
      ],
      "name": "transferFrom",
      "outputs": [],
      "stateMutability": "nonpayable",
      "type": "function"
    }
  ],
  "bytecode": {
    "object": "0x6101006040524260e0523480156200001657600080fd5b5066038d7ea4c6800066b1a2bc2ec50000670de0b6b3a764000082826040518060400160405280600a8152602001694d657263757269616c7360b01b815250604051806040016040528060048152602001634d45524360e01b8152508160009081620000839190620003f2565b506001620000928282620003f2565b5050506080829052620000b8620000b282670de0b6b3a7640000620004be565b62000124565b60a0819052600013620001125760405162461bcd60e51b815260206004820152601b60248201527f4e4f4e5f4e454741544956455f44454341595f434f4e5354414e54000000000060448201526064015b60405180910390fd5b505060c05250506001600655620004f4565b6000808213620001635760405162461bcd60e51b815260206004820152600960248201526815539111519253915160ba1b604482015260640162000109565b5060606001600160801b03821160071b82811c6001600160401b031060061b1782811c63ffffffff1060051b1782811c61ffff1060041b1782811c60ff10600390811b90911783811c600f1060021b1783811c909110600190811b90911783811c90911017609f81810383019390931b90921c6c465772b2bbbb5f824b15207a3081018102821d6d0388eaa27412d5aca026815d636e018102821d6d0df99ac502031bf953eff472fdcc018102821d6d13cdffb29d51d99322bdff5f2211018102821d6d0a0f742023def783a307a986912e018102821d6d01920d8043ca89b5239253284e42018102821d6c0b7a86d7375468fac667a0a527016c29508e458543d8aa4df2abee7882018202831d6d0139601a2efabe717e604cbb4894018202831d6d02247f7a7b6594320649aa03aba1018202831d6c8c3f38e95a6b1ff2ab1c3b343619018202831d6d02384773bdf1ac5676facced60901901820290921d6cb9a025d814b29c212b8b1a07cd19010260016c0504a838426634cdd8738f543560611b03190105711340daa0d5f769dba1915cef59f0815a550602605f19919091017d0267a36c0c95b3975ab3ee5b203a7614a3f75373f047d803ae7b6687f2b302017d57115e47018c7177eebf7cd370a3356a1b7863008a5ae8028c72b88642840160ae1d90565b634e487b7160e01b600052604160045260246000fd5b600181811c908216806200037857607f821691505b6020821081036200039957634e487b7160e01b600052602260045260246000fd5b50919050565b601f821115620003ed57600081815260208120601f850160051c81016020861015620003c85750805b601f850160051c820191505b81811015620003e957828155600101620003d4565b5050505b505050565b81516001600160401b038111156200040e576200040e6200034d565b62000426816200041f845462000363565b846200039f565b602080601f8311600181146200045e5760008415620004455750858301515b600019600386901b1c1916600185901b178555620003e9565b600085815260208120601f198616915b828110156200048f578886015182559484019460019091019084016200046e565b5085821015620004ae5787850151600019600388901b60f8161c191681555b5050505050600190811b01905550565b8181036000831280158383131683831282161715620004ed57634e487b7160e01b600052601160045260246000fd5b5092915050565b60805160a05160c05160e05161350662000543600039600081816102b3015281816106d0015261095e0152600061088001526000610ae40152600081816103980152610abd01526135066000f3fe60806040526004361061012a5760003560e01c806378e97925116100ab578063b88d4fde1161006f578063b88d4fde14610346578063c87b56dd14610366578063dc38679c14610386578063e985e9c5146103ba578063f0503e80146103da578063f466d4ab1461040757600080fd5b806378e97925146102a15780639106d7ba146102d55780639499ac54146102eb57806395d89b4114610311578063a22cb4651461032657600080fd5b806323b872dd116100f257806323b872dd146101f357806342842e0e146102135780636352211e146102335780636d9d33b71461025357806370a082311461028157600080fd5b806301ffc9a71461012f57806306fdde0314610164578063081812fc14610186578063095ea7b3146101be5780631801fbe5146101e0575b600080fd5b34801561013b57600080fd5b5061014f61014a36600461201a565b610427565b60405190151581526020015b60405180910390f35b34801561017057600080fd5b50610179610479565b60405161015b9190612087565b34801561019257600080fd5b506101a66101a136600461209a565b61050b565b6040516001600160a01b03909116815260200161015b565b3480156101ca57600080fd5b506101de6101d93660046120cf565b610532565b005b6101de6101ee3660046120f9565b61064c565b3480156101ff57600080fd5b506101de61020e36600461211b565b6107d0565b34801561021f57600080fd5b506101de61022e36600461211b565b610801565b34801561023f57600080fd5b506101a661024e36600461209a565b61081c565b34801561025f57600080fd5b5061027361026e36600461209a565b61087c565b60405190815260200161015b565b34801561028d57600080fd5b5061027361029c366004612157565b6108b0565b3480156102ad57600080fd5b506102737f000000000000000000000000000000000000000000000000000000000000000081565b3480156102e157600080fd5b5061027360075481565b3480156102f757600080fd5b50610300610936565b60405161015b959493929190612172565b34801561031d57600080fd5b506101796109e5565b34801561033257600080fd5b506101de6103413660046121a8565b6109f4565b34801561035257600080fd5b506101de6103613660046121fa565b6109ff565b34801561037257600080fd5b5061017961038136600461209a565b610a37565b34801561039257600080fd5b506102737f000000000000000000000000000000000000000000000000000000000000000081565b3480156103c657600080fd5b5061014f6103d53660046122d6565b610a88565b3480156103e657600080fd5b506102736103f536600461209a565b60086020526000908152604090205481565b34801561041357600080fd5b506102736104223660046120f9565b610ab6565b60006001600160e01b031982166380ac58cd60e01b148061045857506001600160e01b03198216635b5e139f60e01b145b8061047357506301ffc9a760e01b6001600160e01b03198316145b92915050565b60606000805461048890612309565b80601f01602080910402602001604051908101604052809291908181526020018280546104b490612309565b80156105015780601f106104d657610100808354040283529160200191610501565b820191906000526020600020905b8154815290600101906020018083116104e457829003601f168201915b5050505050905090565b600061051682610b3b565b506000908152600460205260409020546001600160a01b031690565b600061053d8261081c565b9050806001600160a01b0316836001600160a01b0316036105af5760405162461bcd60e51b815260206004820152602160248201527f4552433732313a20617070726f76616c20746f2063757272656e74206f776e656044820152603960f91b60648201526084015b60405180910390fd5b336001600160a01b03821614806105cb57506105cb8133610a88565b61063d5760405162461bcd60e51b815260206004820152603d60248201527f4552433732313a20617070726f76652063616c6c6572206973206e6f7420746f60448201527f6b656e206f776e6572206f7220617070726f76656420666f7220616c6c00000060648201526084016105a6565b6106478383610b9d565b505050565b610654610c0b565b6005610661600143612359565b61066b9190612382565b610676600143612359565b6106809190612359565b4081146106a057604051631f03465b60e11b815260040160405180910390fd5b6007548281146106c3576040516307ed98ed60e31b815260040160405180910390fd5b600061071061070a6106f57f000000000000000000000000000000000000000000000000000000000000000042612359565b62015180670de0b6b3a7640000919091020490565b83610ab6565b9050803410156107335760405163356680b760e01b815260040160405180910390fd5b61073d3385610c64565b604051818152339085907f2d03118aa776f7008445f6ca8490a6782ede2db364d741513555ba656ab1879f9060200160405180910390a36001600760008282546107879190612396565b90915550610796905084610def565b600085815260086020526040902055348110156107c0576107c0336107bb8334612359565b610e4e565b50506107cc6001600655565b5050565b6107da3382610e9f565b6107f65760405162461bcd60e51b81526004016105a6906123a9565b610647838383610efe565b610647838383604051806020016040528060008152506109ff565b6000818152600260205260408120546001600160a01b0316806104735760405162461bcd60e51b8152602060048201526018602482015277115490cdcc8c4e881a5b9d985b1a59081d1bdad95b88125160421b60448201526064016105a6565b60007f0000000000000000000000000000000000000000000000000000000000000000670de0b6b3a7640000830205610473565b60006001600160a01b03821661091a5760405162461bcd60e51b815260206004820152602960248201527f4552433732313a2061646472657373207a65726f206973206e6f7420612076616044820152683634b21037bbb732b960b91b60648201526084016105a6565b506001600160a01b031660009081526003602052604090205490565b60075460606000808061095161094b86610def565b86611062565b93506109896109836106f57f000000000000000000000000000000000000000000000000000000000000000042612359565b86610ab6565b92506005610998600143612359565b6109a29190612382565b6109ad600143612359565b6109b79190612359565b40915060056109c7600143612359565b6109d19190612382565b6109dc906005612359565b90509091929394565b60606001805461048890612309565b6107cc3383836110d9565b610a093383610e9f565b610a255760405162461bcd60e51b81526004016105a6906123a9565b610a31848484846111a7565b50505050565b6000818152600260205260409020546060906001600160a01b0316610a6f5760405163677510db60e11b815260040160405180910390fd5b6000828152600860205260409020546104739083611062565b6001600160a01b03918216600090815260056020908152604080832093909416825291909152205460ff1690565b6000610b347f0000000000000000000000000000000000000000000000000000000000000000610b2f610b2a7f0000000000000000000000000000000000000000000000000000000000000000610b19670de0b6b3a7640000600189010261087c565b8803670de0b6b3a764000091020590565b6111da565b611383565b9392505050565b6000818152600260205260409020546001600160a01b0316610b9a5760405162461bcd60e51b8152602060048201526018602482015277115490cdcc8c4e881a5b9d985b1a59081d1bdad95b88125160421b60448201526064016105a6565b50565b600081815260046020526040902080546001600160a01b0319166001600160a01b0384169081179091558190610bd28261081c565b6001600160a01b03167f8c5be1e5ebec7d5bd14f71427d1e84f3dd0314c0f7b2291e5b200ac8c7c3b92560405160405180910390a45050565b600260065403610c5d5760405162461bcd60e51b815260206004820152601f60248201527f5265656e7472616e637947756172643a207265656e7472616e742063616c6c0060448201526064016105a6565b6002600655565b6001600160a01b038216610cba5760405162461bcd60e51b815260206004820181905260248201527f4552433732313a206d696e7420746f20746865207a65726f206164647265737360448201526064016105a6565b6000818152600260205260409020546001600160a01b031615610d1f5760405162461bcd60e51b815260206004820152601c60248201527f4552433732313a20746f6b656e20616c7265616479206d696e7465640000000060448201526064016105a6565b6000818152600260205260409020546001600160a01b031615610d845760405162461bcd60e51b815260206004820152601c60248201527f4552433732313a20746f6b656e20616c7265616479206d696e7465640000000060448201526064016105a6565b6001600160a01b038216600081815260036020908152604080832080546001019055848352600290915280822080546001600160a01b0319168417905551839291907fddf252ad1be2c89b69c2b068fc378daa952ba7f163c4a11628f55a4df523b3ef908290a45050565b60006005610dfe600143612359565b610e089190612382565b610e13600143612359565b610e1d9190612359565b6040805191406020830152810183905260600160408051601f19818403018152919052805160209091012092915050565b600080600080600085875af19050806106475760405162461bcd60e51b815260206004820152601360248201527211551217d514905394d1915497d19052531151606a1b60448201526064016105a6565b600080610eab8361081c565b9050806001600160a01b0316846001600160a01b03161480610ed25750610ed28185610a88565b80610ef65750836001600160a01b0316610eeb8461050b565b6001600160a01b0316145b949350505050565b826001600160a01b0316610f118261081c565b6001600160a01b031614610f375760405162461bcd60e51b81526004016105a6906123f6565b6001600160a01b038216610f995760405162461bcd60e51b8152602060048201526024808201527f4552433732313a207472616e7366657220746f20746865207a65726f206164646044820152637265737360e01b60648201526084016105a6565b826001600160a01b0316610fac8261081c565b6001600160a01b031614610fd25760405162461bcd60e51b81526004016105a6906123f6565b600081815260046020908152604080832080546001600160a01b03199081169091556001600160a01b0387811680865260038552838620805460001901905590871680865283862080546001019055868652600290945282852080549092168417909155905184937fddf252ad1be2c89b69c2b068fc378daa952ba7f163c4a11628f55a4df523b3ef91a4505050565b6060600080611070856113a8565b915091506110b0611080856114ef565b61108984611582565b8360405160200161109c9392919061243b565b604051602081830303815290604052611582565b6040516020016110c09190612548565b6040516020818303038152906040529250505092915050565b816001600160a01b0316836001600160a01b03160361113a5760405162461bcd60e51b815260206004820152601960248201527f4552433732313a20617070726f766520746f2063616c6c65720000000000000060448201526064016105a6565b6001600160a01b03838116600081815260056020908152604080832094871680845294825291829020805460ff191686151590811790915591519182527f17307eab39ab6107e8899845ad3d59bd9653f200f220920489ca2b5937696c31910160405180910390a3505050565b6111b2848484610efe565b6111be848484846116d5565b610a315760405162461bcd60e51b81526004016105a69061258d565b6000680248ce36a70cb26b3e1982136111f557506000919050565b680755bf798b4a1bf1e5821261123c5760405162461bcd60e51b815260206004820152600c60248201526b4558505f4f564552464c4f5760a01b60448201526064016105a6565b6503782dace9d9604e83901b059150600060606bb17217f7d1cf79abc9e3b39884821b056001605f1b01901d6bb17217f7d1cf79abc9e3b39881029093036c240c330e9fb2d9cbaf0fd5aafb1981018102606090811d6d0277594991cfc85f6e2461837cd9018202811d6d1a521255e34f6a5061b25ef1c9c319018202811d6db1bbb201f443cf962f1a1d3db4a5018202811d6e02c72388d9f74f51a9331fed693f1419018202811d6e05180bb14799ab47a8a8cb2a527d57016d02d16720577bd19bf614176fe9ea6c10fe68e7fd37d0007b713f765084018402831d9081019084016d01d3967ed30fc4f89c02bab5708119010290911d6e0587f503bb6ea29d25fcb740196450019091026d360d7aeea093263ecc6e0ecb291760621b010574029d9dc38563c32e5c2f6dc192ee70ef65f9978af30260c3939093039290921c92915050565b818102821583820583141761139757600080fd5b670de0b6b3a7640000900592915050565b60608060006060806113ba86846117d6565b945090925090506060806113ce88866118ea565b60405190975091935091506113e990859084906020016125df565b6040516020818303038152906040529650828160405160200161140d9291906126a5565b60405160208183030381529060405295505050505060608061142f86846119b8565b945090925090506060806114438886611a2b565b965090925090506060806114578a88611b89565b9850909250905060608061146b8c8a611c27565b9a50909250905060608061147f8e8c611ccd565b604051909d5091935091506114a2908e908c908b908a90899088906020016126d4565b6040516020818303038152906040529c508b89888784876040516020016114ce969594939291906127d0565b6040516020818303038152906040529b505050505050505050505050915091565b606060006114fc83611d35565b600101905060008167ffffffffffffffff81111561151c5761151c6121e4565b6040519080825280601f01601f191660200182016040528015611546576020820181803683370190505b5090508181016020015b600019016f181899199a1a9b1b9c1cb0b131b232b360811b600a86061a8153600a850494508461155057509392505050565b606081516000036115a157505060408051602081019091526000815290565b600060405180606001604052806040815260200161349160409139905060006003845160026115d09190612396565b6115da919061284f565b6115e5906004612863565b67ffffffffffffffff8111156115fd576115fd6121e4565b6040519080825280601f01601f191660200182016040528015611627576020820181803683370190505b509050600182016020820185865187015b80821015611693576003820191508151603f8160121c168501518453600184019350603f81600c1c168501518453600184019350603f8160061c168501518453600184019350603f8116850151845350600183019250611638565b50506003865106600181146116af57600281146116c2576116ca565b603d6001830353603d60028303536116ca565b603d60018303535b509195945050505050565b60006001600160a01b0384163b156117cb57604051630a85bd0160e11b81526001600160a01b0385169063150b7a029061171990339089908890889060040161287a565b6020604051808303816000875af1925050508015611754575060408051601f3d908101601f19168201909252611751918101906128b7565b60015b6117b1573d808015611782576040519150601f19603f3d011682016040523d82523d6000602084013e611787565b606091505b5080516000036117a95760405162461bcd60e51b81526004016105a69061258d565b805181602001fd5b6001600160e01b031916630a85bd0160e11b149050610ef6565b506001949350505050565b6060806000806117eb603261012d8888611e0d565b955090506060606482101561182957611803826114ef565b60405160200161181391906128d4565b6040516020818303038152906040529050611854565b611832826114ef565b6040516020016118429190612900565b60405160208183030381529060405290505b6060611864600160068a8a611e0d565b97509250611871836114ef565b905060606118856000620100008b8b611e0d565b98509350611892846114ef565b90508282826040516020016118a99392919061292b565b604051602081830303815290604052965082826040516020016118cd9291906129d8565b60408051808303601f190181529190529699969850505050505050565b606080600060606118fb8686611e82565b95509050600061190f600160518989611e0d565b96509050600061191e826114ef565b60405160200161192e9190612a93565b604051602081830303815290604052905061194d600360088a8a611e0d565b97509150600061195c836114ef565b60405160200161196c9190612ab8565b604051602081830303815290604052905083818360405160200161199293929190612ae2565b60405160208183030381529060405296508382826040516020016118cd93929190612c2e565b6060806000806119cc600160158888611e0d565b9550905060006119db826114ef565b9050806040516020016119ee9190612d3b565b604051602081830303815290604052945080604051602001611a109190612e14565b60408051808303601f19018152919052949794965050505050565b6060806000806060611a41600060338989611e0d565b96509150600a821015611a7d57611a57826114ef565b604051602001611a679190612900565b6040516020818303038152906040529050611aa8565b611a86826114ef565b604051602001611a969190612ab8565b60405160208183030381529060405290505b60606000611ab68989611f5b565b985090508015611afd5782604051602001611ad19190612e84565b60408051601f1981840301815282820190915260038252621bdd5d60ea1b602083015293509150611b52565b611b078989611f5b565b985090508015611b3457604051806040016040528060038152602001621bdd5d60ea1b8152509150611b52565b6040518060400160405280600281526020016134b760f11b81525091505b8183604051602001611b65929190612ead565b604051602081830303815290604052965082826040516020016118cd929190612f99565b6060806000806060611b9f600160048989611e0d565b96509150611bac826114ef565b90506060611bbe6005600b8a8a611e0d565b97509250611bcb836114ef565b90506060611bdd600360158b8b611e0d565b98509350611bea846114ef565b9050828282604051602001611c019392919061304b565b60405160208183030381529060405296508282826040516020016118cd9392919061314e565b606080600080611c378686611f5b565b955090508015611c5d5760405180608001604052806052815260200161343f6052913993505b80611c85576040518060400160405280600581526020016466616c736560d81b815250611ca3565b604051806040016040528060048152602001637472756560e01b8152505b604051602001611cb39190613264565b60408051808303601f190181529190529396939550505050565b606080600080611ce1600060048888611e0d565b95509050611cf081605a612863565b9050611cfb816114ef565b604051602001611d0b91906132c4565b6040516020818303038152906040529350611d25816114ef565b604051602001611cb3919061335f565b60008072184f03e93ff9f4daa797ed6e38ed64bf6a1f0160401b8310611d745772184f03e93ff9f4daa797ed6e38ed64bf6a1f0160401b830492506040015b6d04ee2d6d415b85acef81000000008310611da0576d04ee2d6d415b85acef8100000000830492506020015b662386f26fc100008310611dbe57662386f26fc10000830492506010015b6305f5e1008310611dd6576305f5e100830492506008015b6127108310611dea57612710830492506004015b60648310611dfc576064830492506002015b600a83106104735760010192915050565b60008060008484604051602001611e2e929190918252602082015260400190565b60408051601f198184030181529190528051602090910120905083611e52816133c2565b9450879050611e618188612359565b611e6b9083612382565b611e759190612396565b9793965092945050505050565b60606000806000611e97600060c98888611e0d565b95509150611ea58686611f5b565b95509050600080611eba603260fb8a8a611e0d565b97509150611ec88888611f5b565b9750905060008082151585151503611eee57611ee48487612396565b9150849050611f10565b83861115611f0057611ee48487612359565b611f0a8685612359565b91508290505b6000611f1c8787611fb9565b905080611f298484611fb9565b82604051602001611f3c939291906133db565b60408051808303601f190181529190529b999a50505050505050505050565b60008060008484604051602001611f7c929190918252602082015260400190565b60408051601f198184030181529190528051602090910120905083611fa0816133c2565b9450611faf9050600282612382565b1595939450505050565b6060818015611fc757508215155b15611ffb57611fd5836114ef565b604051602001611fe59190612e84565b6040516020818303038152906040529050610473565b610b34836114ef565b6001600160e01b031981168114610b9a57600080fd5b60006020828403121561202c57600080fd5b8135610b3481612004565b60005b8381101561205257818101518382015260200161203a565b50506000910152565b60008151808452612073816020860160208601612037565b601f01601f19169290920160200192915050565b602081526000610b34602083018461205b565b6000602082840312156120ac57600080fd5b5035919050565b80356001600160a01b03811681146120ca57600080fd5b919050565b600080604083850312156120e257600080fd5b6120eb836120b3565b946020939093013593505050565b6000806040838503121561210c57600080fd5b50508035926020909101359150565b60008060006060848603121561213057600080fd5b612139846120b3565b9250612147602085016120b3565b9150604084013590509250925092565b60006020828403121561216957600080fd5b610b34826120b3565b85815260a06020820152600061218b60a083018761205b565b604083019590955250606081019290925260809091015292915050565b600080604083850312156121bb57600080fd5b6121c4836120b3565b9150602083013580151581146121d957600080fd5b809150509250929050565b634e487b7160e01b600052604160045260246000fd5b6000806000806080858703121561221057600080fd5b612219856120b3565b9350612227602086016120b3565b925060408501359150606085013567ffffffffffffffff8082111561224b57600080fd5b818701915087601f83011261225f57600080fd5b813581811115612271576122716121e4565b604051601f8201601f19908116603f01168101908382118183101715612299576122996121e4565b816040528281528a60208487010111156122b257600080fd5b82602086016020830137600060208483010152809550505050505092959194509250565b600080604083850312156122e957600080fd5b6122f2836120b3565b9150612300602084016120b3565b90509250929050565b600181811c9082168061231d57607f821691505b60208210810361233d57634e487b7160e01b600052602260045260246000fd5b50919050565b634e487b7160e01b600052601160045260246000fd5b8181038181111561047357610473612343565b634e487b7160e01b600052601260045260246000fd5b6000826123915761239161236c565b500690565b8082018082111561047357610473612343565b6020808252602d908201527f4552433732313a2063616c6c6572206973206e6f7420746f6b656e206f776e6560408201526c1c881bdc88185c1c1c9bdd9959609a1b606082015260800190565b60208082526025908201527f4552433732313a207472616e736665722066726f6d20696e636f72726563742060408201526437bbb732b960d91b606082015260800190565b757b20226e616d65223a20224d657263757269616c202360501b8152835160009061246d816016850160208901612037565b7f222c20226465736372697074696f6e223a2022416273747261637420617274206016918401918201527f67656e657261746564206f6e2d636861696e2e222c2022696d616765223a202260368201527f646174613a696d6167652f7376672b786d6c3b6261736536342c000000000000605682015284516124f6816070840160208901612037565b7201116101130ba3a3934b13aba32b9911d102d9606d1b60709290910191820152835161252a816083840160208801612037565b63205d207d60e01b6083929091019182015260870195945050505050565b7f646174613a6170706c69636174696f6e2f6a736f6e3b6261736536342c00000081526000825161258081601d850160208701612037565b91909101601d0192915050565b60208082526032908201527f4552433732313a207472616e7366657220746f206e6f6e20455243373231526560408201527131b2b4bb32b91034b6b83632b6b2b73a32b960711b606082015260800190565b7f3c7376672077696474683d2233353022206865696768743d223335302220766581527f7273696f6e3d22312e31222076696577426f783d22323520323520333030203360208201527f30302220786d6c6e733d22687474703a2f2f7777772e77332e6f72672f3230306040820152751817b9bb33911f1e3334b63a32b91034b21e9130911f60511b606082015260008351612682816076850160208801612037565b835190830190612699816076840160208801612037565b01607601949350505050565b600083516126b7818460208801612037565b8351908301906126cb818360208801612037565b01949350505050565b6000875160206126e78285838d01612037565b8851918401916126fa8184848d01612037565b7f3c6665436f6c6f724d617472697820747970653d226d6174726978222072657392019182527f756c743d2263222076616c7565733d2230203020302030203020302030203020818301527f3020302030203020302030203020312030203020302030222f3e0000000000006040830152875161277d81605a85018b8501612037565b875192019161279281605a8501848b01612037565b86519201916127a781605a8501848a01612037565b85519201916127bc81605a8501848901612037565b91909101605a019998505050505050505050565b6000875160206127e38285838d01612037565b8851918401916127f68184848d01612037565b88519201916128088184848c01612037565b875192019161281a8184848b01612037565b865192019161282c8184848a01612037565b855192019161283e8184848901612037565b919091019998505050505050505050565b60008261285e5761285e61236c565b500490565b808202811582820484141761047357610473612343565b6001600160a01b03858116825284166020820152604081018390526080606082018190526000906128ad9083018461205b565b9695505050505050565b6000602082840312156128c957600080fd5b8151610b3481612004565b630302e30360e41b8152600082516128f3816004850160208701612037565b9190910160040192915050565b620302e360ec1b81526000825161291e816003850160208701612037565b9190910160030192915050565b7f3c666554757262756c656e636520626173654672657175656e63793d2200000081526000845161296381601d850160208901612037565b6d1110373ab6a7b1ba30bb32b99e9160911b601d91840191820152845161299181602b840160208901612037565b67111039b2b2b21e9160c11b602b929091019182015283516129ba816033840160208801612037565b631110179f60e11b6033929091019182015260370195945050505050565b7f7b202274726169745f74797065223a202242617365204672657175656e63792281526b1610113b30b63ab2911d101160a11b602082015260008351612a2581602c850160208801612037565b7f22207d2c207b202274726169745f74797065223a20224f637461766573222c20602c9184019182015269113b30b63ab2911d101160b11b604c8201528351612a75816056840160208801612037565b64011103e96160dd1b60569290910191820152605b01949350505050565b60008251612aa5818460208701612037565b607360f81b920191825250600101919050565b61181760f11b815260008251612ad5816002850160208701612037565b9190910160020192915050565b7f3c6665446973706c6163656d656e744d61703e3c616e696d617465206174747281527f69627574654e616d653d227363616c65222076616c7565733d22000000000000602082015260008451612b4081603a850160208901612037565b6e0111035b2bcaa34b6b2b99e91181d9608d1b603a918401918201528451612b6f816049840160208901612037565b691d90189110323ab91e9160b11b604992909101918201528351612b9a816053840160208801612037565b7f2220726570656174436f756e743d22696e646566696e697465222063616c634d605392909101918201527f6f64653d2273706c696e6522206b657953706c696e65733d22302e332030203060738201527f2e3720313b20302e33203020302e372031222f3e3c2f6665446973706c61636560938201526736b2b73a26b0b81f60c11b60b382015260bb0195945050505050565b7f7b202274726169745f74797065223a20225363616c65222c202276616c7565228152621d101160e91b602082015260008451612c72816023850160208901612037565b7f22207d2c207b202274726169745f74797065223a20225363616c6520416e696d6023918401918201527130ba34b7b7111610113b30b63ab2911d101160711b60438201528451612cca816055840160208901612037565b7f22207d2c207b202274726169745f74797065223a20224b65792054696d65222c605592909101918201526a10113b30b63ab2911d101160a91b60758201528351612d1c816080840160208801612037565b64011103e96160dd1b6080929091019182015260850195945050505050565b7f3c6665436f6c6f724d617472697820747970653d22687565526f74617465222081527f726573756c743d2262223e3c616e696d617465206174747269627574654e616d60208201527f653d2276616c756573222066726f6d3d22302220746f3d2233363022206475726040820152611e9160f11b606082015260008251612dca816062850160208701612037565b7f732220726570656174436f756e743d22696e646566696e697465222f3e3c2f6660629390910192830152506c32a1b7b637b926b0ba3934bc1f60991b6082820152608f01919050565b7f7b202274726169745f74797065223a202248756520526f7461746520416e696d81527130ba34b7b7111610113b30b63ab2911d101160711b602082015260008251612e67816032850160208701612037565b6503991103e96160d51b6032939091019283015250603801919050565b602d60f81b815260008251612ea0816001850160208701612037565b9190910160010192915050565b7f3c6665436f6d706f7369746520696e3d22622220696e323d226322206f70657281526530ba37b91e9160d11b602082015260008351612ef4816026850160208801612037565b7f2220726573756c743d2264222f3e3c6665436f6d706f7369746520696e3d22646026918401918201527f2220696e323d226422206f70657261746f723d2261726974686d65746963222060468201527f6b313d223122206b323d223122206b333d223122206b343d220000000000000060668201528351612f7d81607f840160208801612037565b6211179f60e91b607f9290910191820152608201949350505050565b7f7b202274726169745f74797065223a20224b34222c202276616c7565223a2022815260008351612fd1816020850160208801612037565b80830190507f22207d2c207b202274726169745f74797065223a2022436f6d706f736974652060208201527427b832b930ba37b9111610113b30b63ab2911d101160591b6040820152835161302d816055840160208801612037565b64011103e96160dd1b60559290910191820152605a01949350505050565b7f3c6665446966667573654c69676874696e67206c69676874696e672d636f6c6f81527f723d2223666666222064696666757365436f6e7374616e743d220000000000006020820152600084516130a981603a850160208901612037565b6f111039bab93330b1b2a9b1b0b6329e9160811b603a9184019182015284516130d981604a840160208901612037565b7f223e3c666544697374616e744c6967687420656c65766174696f6e3d22000000604a92909101918201528351613117816067840160208801612037565b7f222f3e3c2f6665446966667573654c69676874696e673e00000000000000000060679290910191820152607e0195945050505050565b7f7b202274726169745f74797065223a20224469666675736520436f6e7374616e81526d3a111610113b30b63ab2911d101160911b60208201526000845161319d81602e850160208901612037565b7f22207d2c207b202274726169745f74797065223a202253757266616365205363602e918401918201526f30b632911610113b30b63ab2911d101160811b604e82015284516131f381605e840160208901612037565b7f22207d2c207b202274726169745f74797065223a2022456c65766174696f6e22605e92909101918201526b1610113b30b63ab2911d101160a11b607e820152835161324681608a840160208801612037565b6308881f4b60e21b608a9290910191820152608e0195945050505050565b7f7b202274726169745f74797065223a2022496e766572746564222c202276616c81526403ab2911d160dd1b6020820152600082516132aa816025850160208701612037565b620103e960ed1b6025939091019283015250602801919050565b7f3c2f66696c7465723e3c726563742077696474683d223335302220686569676881527f743d22333530222066696c7465723d2275726c2823612922207472616e73666f60208201526a0e4da7a44e4dee8c2e8ca560ab1b60408201526000825161333681604b850160208701612037565b7110189b9a90189b9a9491179f1e17b9bb339f60711b604b939091019283015250605d01919050565b7f7b202274726169745f74797065223a2022526f746174696f6e222c202276616c8152653ab2911d101160d11b6020820152600082516133a6816026850160208701612037565b64011103e96160dd1b6026939091019283015250602b01919050565b6000600182016133d4576133d4612343565b5060010190565b600084516133ed818460208901612037565b8083019050603b60f81b808252855161340d816001850160208a01612037565b60019201918201819052845161342a816002850160208901612037565b60029201918201526003019594505050505056fe3c6665436f6c6f724d617472697820747970653d226d6174726978222076616c7565733d222d3120302030203020312030202d3120302030203120302030202d312030203120302030203020312030222f3e4142434445464748494a4b4c4d4e4f505152535455565758595a6162636465666768696a6b6c6d6e6f707172737475767778797a303132333435363738392b2fa2646970667358221220270385d674d1e73626a4e92760a0501ada49abdf5621d3932cecf432b78b404d64736f6c63430008140033",
    "linkReferences": {}
  },
  "methodIdentifiers": {
    "approve(address,uint256)": "095ea7b3",
    "balanceOf(address)": "70a08231",
    "getApproved(uint256)": "081812fc",
    "getTargetSaleTime(int256)": "6d9d33b7",
    "getVRGDAPrice(int256,uint256)": "f466d4ab",
    "isApprovedForAll(address,address)": "e985e9c5",
    "mint(uint256,bytes32)": "1801fbe5",
    "name()": "06fdde03",
    "nextToken()": "9499ac54",
    "ownerOf(uint256)": "6352211e",
    "safeTransferFrom(address,address,uint256)": "42842e0e",
    "safeTransferFrom(address,address,uint256,bytes)": "b88d4fde",
    "seeds(uint256)": "f0503e80",
    "setApprovalForAll(address,bool)": "a22cb465",
    "startTime()": "78e97925",
    "supportsInterface(bytes4)": "01ffc9a7",
    "symbol()": "95d89b41",
    "targetPrice()": "dc38679c",
    "tokenURI(uint256)": "c87b56dd",
    "totalSold()": "9106d7ba",
    "transferFrom(address,address,uint256)": "23b872dd"
  },
  "id": 34
}