{
  "abi": [
    {
      "inputs": [],
      "stateMutability": "nonpayable",
      "type": "constructor"
    },
    {
      "inputs": [],
      "name": "InsufficientFunds",
      "type": "error"
    },
    {
      "inputs": [],
      "name": "InvalidBlockHash",
      "type": "error"
    },
    {
      "inputs": [],
      "name": "InvalidTokenId",
      "type": "error"
    },
    {
      "inputs": [],
      "name": "TokenDoesNotExist",
      "type": "error"
    },
    {
      "anonymous": false,
      "inputs": [
        {
          "indexed": true,
          "internalType": "address",
          "name": "owner",
          "type": "address"
        },
        {
          "indexed": true,
          "internalType": "address",
          "name": "approved",
          "type": "address"
        },
        {
          "indexed": true,
          "internalType": "uint256",
          "name": "tokenId",
          "type": "uint256"
        }
      ],
      "name": "Approval",
      "type": "event"
    },
    {
      "anonymous": false,
      "inputs": [
        {
          "indexed": true,
          "internalType": "address",
          "name": "owner",
          "type": "address"
        },
        {
          "indexed": true,
          "internalType": "address",
          "name": "operator",
          "type": "address"
        },
        {
          "indexed": false,
          "internalType": "bool",
          "name": "approved",
          "type": "bool"
        }
      ],
      "name": "ApprovalForAll",
      "type": "event"
    },
    {
      "anonymous": false,
      "inputs": [
        {
          "indexed": true,
          "internalType": "uint256",
          "name": "tokenId",
          "type": "uint256"
        },
        {
          "indexed": true,
          "internalType": "address",
          "name": "owner",
          "type": "address"
        },
        {
          "indexed": false,
          "internalType": "uint256",
          "name": "price",
          "type": "uint256"
        }
      ],
      "name": "TokenMinted",
      "type": "event"
    },
    {
      "anonymous": false,
      "inputs": [
        {
          "indexed": true,
          "internalType": "address",
          "name": "from",
          "type": "address"
        },
        {
          "indexed": true,
          "internalType": "address",
          "name": "to",
          "type": "address"
        },
        {
          "indexed": true,
          "internalType": "uint256",
          "name": "tokenId",
          "type": "uint256"
        }
      ],
      "name": "Transfer",
      "type": "event"
    },
    {
      "inputs": [
        {
          "internalType": "address",
          "name": "to",
          "type": "address"
        },
        {
          "internalType": "uint256",
          "name": "tokenId",
          "type": "uint256"
        }
      ],
      "name": "approve",
      "outputs": [],
      "stateMutability": "nonpayable",
      "type": "function"
    },
    {
      "inputs": [
        {
          "internalType": "address",
          "name": "owner",
          "type": "address"
        }
      ],
      "name": "balanceOf",
      "outputs": [
        {
          "internalType": "uint256",
          "name": "",
          "type": "uint256"
        }
      ],
      "stateMutability": "view",
      "type": "function"
    },
    {
      "inputs": [
        {
          "internalType": "uint256",
          "name": "tokenId",
          "type": "uint256"
        }
      ],
      "name": "getApproved",
      "outputs": [
        {
          "internalType": "address",
          "name": "",
          "type": "address"
        }
      ],
      "stateMutability": "view",
      "type": "function"
    },
    {
      "inputs": [
        {
          "internalType": "int256",
          "name": "sold",
          "type": "int256"
        }
      ],
      "name": "getTargetSaleTime",
      "outputs": [
        {
          "internalType": "int256",
          "name": "",
          "type": "int256"
        }
      ],
      "stateMutability": "view",
      "type": "function"
    },
    {
      "inputs": [
        {
          "internalType": "int256",
          "name": "timeSinceStart",
          "type": "int256"
        },
        {
          "internalType": "uint256",
          "name": "sold",
          "type": "uint256"
        }
      ],
      "name": "getVRGDAPrice",
      "outputs": [
        {
          "internalType": "uint256",
          "name": "",
          "type": "uint256"
        }
      ],
      "stateMutability": "view",
      "type": "function"
    },
    {
      "inputs": [
        {
          "internalType": "address",
          "name": "owner",
          "type": "address"
        },
        {
          "internalType": "address",
          "name": "operator",
          "type": "address"
        }
      ],
      "name": "isApprovedForAll",
      "outputs": [
        {
          "internalType": "bool",
          "name": "",
          "type": "bool"
        }
      ],
      "stateMutability": "view",
      "type": "function"
    },
    {
      "inputs": [
        {
          "internalType": "uint256",
          "name": "tokenId",
          "type": "uint256"
        },
        {
          "internalType": "bytes32",
          "name": "blockHash",
          "type": "bytes32"
        }
      ],
      "name": "mint",
      "outputs": [],
      "stateMutability": "payable",
      "type": "function"
    },
    {
      "inputs": [],
      "name": "name",
      "outputs": [
        {
          "internalType": "string",
          "name": "",
          "type": "string"
        }
      ],
      "stateMutability": "view",
      "type": "function"
    },
    {
      "inputs": [],
      "name": "nextToken",
      "outputs": [
        {
          "internalType": "uint256",
          "name": "id",
          "type": "uint256"
        },
        {
          "internalType": "string",
          "name": "uri",
          "type": "string"
        },
        {
          "internalType": "uint256",
          "name": "price",
          "type": "uint256"
        },
        {
          "internalType": "bytes32",
          "name": "blockHash",
          "type": "bytes32"
        },
        {
          "internalType": "uint256",
          "name": "ttl",
          "type": "uint256"
        }
      ],
      "stateMutability": "view",
      "type": "function"
    },
    {
      "inputs": [
        {
          "internalType": "uint256",
          "name": "tokenId",
          "type": "uint256"
        }
      ],
      "name": "ownerOf",
      "outputs": [
        {
          "internalType": "address",
          "name": "",
          "type": "address"
        }
      ],
      "stateMutability": "view",
      "type": "function"
    },
    {
      "inputs": [
        {
          "internalType": "address",
          "name": "from",
          "type": "address"
        },
        {
          "internalType": "address",
          "name": "to",
          "type": "address"
        },
        {
          "internalType": "uint256",
          "name": "tokenId",
          "type": "uint256"
        }
      ],
      "name": "safeTransferFrom",
      "outputs": [],
      "stateMutability": "nonpayable",
      "type": "function"
    },
    {
      "inputs": [
        {
          "internalType": "address",
          "name": "from",
          "type": "address"
        },
        {
          "internalType": "address",
          "name": "to",
          "type": "address"
        },
        {
          "internalType": "uint256",
          "name": "tokenId",
          "type": "uint256"
        },
        {
          "internalType": "bytes",
          "name": "data",
          "type": "bytes"
        }
      ],
      "name": "safeTransferFrom",
      "outputs": [],
      "stateMutability": "nonpayable",
      "type": "function"
    },
    {
      "inputs": [
        {
          "internalType": "uint256",
          "name": "",
          "type": "uint256"
        }
      ],
      "name": "seeds",
      "outputs": [
        {
          "internalType": "uint256",
          "name": "",
          "type": "uint256"
        }
      ],
      "stateMutability": "view",
      "type": "function"
    },
    {
      "inputs": [
        {
          "internalType": "address",
          "name": "operator",
          "type": "address"
        },
        {
          "internalType": "bool",
          "name": "approved",
          "type": "bool"
        }
      ],
      "name": "setApprovalForAll",
      "outputs": [],
      "stateMutability": "nonpayable",
      "type": "function"
    },
    {
      "inputs": [],
      "name": "startTime",
      "outputs": [
        {
          "internalType": "uint256",
          "name": "",
          "type": "uint256"
        }
      ],
      "stateMutability": "view",
      "type": "function"
    },
    {
      "inputs": [
        {
          "internalType": "bytes4",
          "name": "interfaceId",
          "type": "bytes4"
        }
      ],
      "name": "supportsInterface",
      "outputs": [
        {
          "internalType": "bool",
          "name": "",
          "type": "bool"
        }
      ],
      "stateMutability": "view",
      "type": "function"
    },
    {
      "inputs": [],
      "name": "symbol",
      "outputs": [
        {
          "internalType": "string",
          "name": "",
          "type": "string"
        }
      ],
      "stateMutability": "view",
      "type": "function"
    },
    {
      "inputs": [],
      "name": "targetPrice",
      "outputs": [
        {
          "internalType": "int256",
          "name": "",
          "type": "int256"
        }
      ],
      "stateMutability": "view",
      "type": "function"
    },
    {
      "inputs": [
        {
          "internalType": "uint256",
          "name": "tokenId",
          "type": "uint256"
        }
      ],
      "name": "tokenURI",
      "outputs": [
        {
          "internalType": "string",
          "name": "",
          "type": "string"
        }
      ],
      "stateMutability": "view",
      "type": "function"
    },
    {
      "inputs": [],
      "name": "totalSold",
      "outputs": [
        {
          "internalType": "uint256",
          "name": "",
          "type": "uint256"
        }
      ],
      "stateMutability": "view",
      "type": "function"
    },
    {
      "inputs": [
        {
          "internalType": "address",
          "name": "from",
          "type": "address"
        },
        {
          "internalType": "address",
          "name": "to",
          "type": "address"
        },
        {
          "internalType": "uint256",
          "name": "tokenId",
          "type": "uint256"
        }
      ],
      "name": "transferFrom",
      "outputs": [],
      "stateMutability": "nonpayable",
      "type": "function"
    }
  ],
  "bytecode": {
    "object": "0x6101006040524260e0523480156200001657600080fd5b5066038d7ea4c6800066b1a2bc2ec500006702c68af0bb14000082826040518060400160405280600a8152602001694d657263757269616c7360b01b815250604051806040016040528060048152602001634d45524360e01b8152508160009081620000839190620003f2565b506001620000928282620003f2565b5050506080829052620000b8620000b282670de0b6b3a7640000620004be565b62000124565b60a0819052600013620001125760405162461bcd60e51b815260206004820152601b60248201527f4e4f4e5f4e454741544956455f44454341595f434f4e5354414e54000000000060448201526064015b60405180910390fd5b505060c05250506001600655620004f4565b6000808213620001635760405162461bcd60e51b815260206004820152600960248201526815539111519253915160ba1b604482015260640162000109565b5060606001600160801b03821160071b82811c6001600160401b031060061b1782811c63ffffffff1060051b1782811c61ffff1060041b1782811c60ff10600390811b90911783811c600f1060021b1783811c909110600190811b90911783811c90911017609f81810383019390931b90921c6c465772b2bbbb5f824b15207a3081018102821d6d0388eaa27412d5aca026815d636e018102821d6d0df99ac502031bf953eff472fdcc018102821d6d13cdffb29d51d99322bdff5f2211018102821d6d0a0f742023def783a307a986912e018102821d6d01920d8043ca89b5239253284e42018102821d6c0b7a86d7375468fac667a0a527016c29508e458543d8aa4df2abee7882018202831d6d0139601a2efabe717e604cbb4894018202831d6d02247f7a7b6594320649aa03aba1018202831d6c8c3f38e95a6b1ff2ab1c3b343619018202831d6d02384773bdf1ac5676facced60901901820290921d6cb9a025d814b29c212b8b1a07cd19010260016c0504a838426634cdd8738f543560611b03190105711340daa0d5f769dba1915cef59f0815a550602605f19919091017d0267a36c0c95b3975ab3ee5b203a7614a3f75373f047d803ae7b6687f2b302017d57115e47018c7177eebf7cd370a3356a1b7863008a5ae8028c72b88642840160ae1d90565b634e487b7160e01b600052604160045260246000fd5b600181811c908216806200037857607f821691505b6020821081036200039957634e487b7160e01b600052602260045260246000fd5b50919050565b601f821115620003ed57600081815260208120601f850160051c81016020861015620003c85750805b601f850160051c820191505b81811015620003e957828155600101620003d4565b5050505b505050565b81516001600160401b038111156200040e576200040e6200034d565b62000426816200041f845462000363565b846200039f565b602080601f8311600181146200045e5760008415620004455750858301515b600019600386901b1c1916600185901b178555620003e9565b600085815260208120601f198616915b828110156200048f578886015182559484019460019091019084016200046e565b5085821015620004ae5787850151600019600388901b60f8161c191681555b5050505050600190811b01905550565b8181036000831280158383131683831282161715620004ed57634e487b7160e01b600052601160045260246000fd5b5092915050565b60805160a05160c05160e0516140996200054360003960008181610300015281816108930152610bd001526000610ac401526000610da40152600081816103e50152610d7d01526140996000f3fe60806040526004361061016a5760003560e01c806378e97925116100cb578063b88d4fde1161007f578063e985e9c511610059578063e985e9c514610407578063f0503e801461045d578063f466d4ab1461048a57600080fd5b8063b88d4fde14610393578063c87b56dd146103b3578063dc38679c146103d357600080fd5b80639499ac54116100b05780639499ac541461033857806395d89b411461035e578063a22cb4651461037357600080fd5b806378e97925146102ee5780639106d7ba1461032257600080fd5b806323b872dd116101225780636352211e116101075780636352211e146102805780636d9d33b7146102a057806370a08231146102ce57600080fd5b806323b872dd1461024057806342842e0e1461026057600080fd5b8063081812fc11610153578063081812fc146101c6578063095ea7b31461020b5780631801fbe51461022d57600080fd5b806301ffc9a71461016f57806306fdde03146101a4575b600080fd5b34801561017b57600080fd5b5061018f61018a366004612910565b6104aa565b60405190151581526020015b60405180910390f35b3480156101b057600080fd5b506101b961058f565b60405161019b919061297d565b3480156101d257600080fd5b506101e66101e1366004612990565b610621565b60405173ffffffffffffffffffffffffffffffffffffffff909116815260200161019b565b34801561021757600080fd5b5061022b6102263660046129d2565b610655565b005b61022b61023b3660046129fc565b6107dd565b34801561024c57600080fd5b5061022b61025b366004612a1e565b6109ac565b34801561026c57600080fd5b5061022b61027b366004612a1e565b610a33565b34801561028c57600080fd5b506101e661029b366004612990565b610a4e565b3480156102ac57600080fd5b506102c06102bb366004612990565b610ac0565b60405190815260200161019b565b3480156102da57600080fd5b506102c06102e9366004612a5a565b610af4565b3480156102fa57600080fd5b506102c07f000000000000000000000000000000000000000000000000000000000000000081565b34801561032e57600080fd5b506102c060075481565b34801561034457600080fd5b5061034d610ba8565b60405161019b959493929190612a75565b34801561036a57600080fd5b506101b9610c57565b34801561037f57600080fd5b5061022b61038e366004612aab565b610c66565b34801561039f57600080fd5b5061022b6103ae366004612b16565b610c71565b3480156103bf57600080fd5b506101b96103ce366004612990565b610cff565b3480156103df57600080fd5b506102c07f000000000000000000000000000000000000000000000000000000000000000081565b34801561041357600080fd5b5061018f610422366004612bf2565b73ffffffffffffffffffffffffffffffffffffffff918216600090815260056020908152604080832093909416825291909152205460ff1690565b34801561046957600080fd5b506102c0610478366004612990565b60086020526000908152604090205481565b34801561049657600080fd5b506102c06104a53660046129fc565b610d76565b60007fffffffff0000000000000000000000000000000000000000000000000000000082167f80ac58cd00000000000000000000000000000000000000000000000000000000148061053d57507fffffffff0000000000000000000000000000000000000000000000000000000082167f5b5e139f00000000000000000000000000000000000000000000000000000000145b8061058957507f01ffc9a7000000000000000000000000000000000000000000000000000000007fffffffff000000000000000000000000000000000000000000000000000000008316145b92915050565b60606000805461059e90612c25565b80601f01602080910402602001604051908101604052809291908181526020018280546105ca90612c25565b80156106175780601f106105ec57610100808354040283529160200191610617565b820191906000526020600020905b8154815290600101906020018083116105fa57829003601f168201915b5050505050905090565b600061062c82610dfb565b5060009081526004602052604090205473ffffffffffffffffffffffffffffffffffffffff1690565b600061066082610a4e565b90508073ffffffffffffffffffffffffffffffffffffffff168373ffffffffffffffffffffffffffffffffffffffff16036107085760405162461bcd60e51b815260206004820152602160248201527f4552433732313a20617070726f76616c20746f2063757272656e74206f776e6560448201527f720000000000000000000000000000000000000000000000000000000000000060648201526084015b60405180910390fd5b3373ffffffffffffffffffffffffffffffffffffffff8216148061075c575073ffffffffffffffffffffffffffffffffffffffff8116600090815260056020908152604080832033845290915290205460ff165b6107ce5760405162461bcd60e51b815260206004820152603d60248201527f4552433732313a20617070726f76652063616c6c6572206973206e6f7420746f60448201527f6b656e206f776e6572206f7220617070726f76656420666f7220616c6c00000060648201526084016106ff565b6107d88383610e6f565b505050565b6107e5610f0f565b60056107f2600143612ca7565b6107fc9190612ce9565b610807600143612ca7565b6108119190612ca7565b40811461084a576040517f3e068cb600000000000000000000000000000000000000000000000000000000815260040160405180910390fd5b600754828114610886576040517f3f6cc76800000000000000000000000000000000000000000000000000000000815260040160405180910390fd5b60006108d36108cd6108b87f000000000000000000000000000000000000000000000000000000000000000042612ca7565b62015180670de0b6b3a7640000919091020490565b83610d76565b90508034101561090f576040517f356680b700000000000000000000000000000000000000000000000000000000815260040160405180910390fd5b6109193385610f68565b604051818152339085907f2d03118aa776f7008445f6ca8490a6782ede2db364d741513555ba656ab1879f9060200160405180910390a36001600760008282546109639190612cfd565b9091555061097290508461113f565b6000858152600860205260409020553481101561099c5761099c336109978334612ca7565b61119e565b50506109a86001600655565b5050565b6109b633826111f9565b610a285760405162461bcd60e51b815260206004820152602d60248201527f4552433732313a2063616c6c6572206973206e6f7420746f6b656e206f776e6560448201527f72206f7220617070726f7665640000000000000000000000000000000000000060648201526084016106ff565b6107d88383836112b9565b6107d883838360405180602001604052806000815250610c71565b60008181526002602052604081205473ffffffffffffffffffffffffffffffffffffffff16806105895760405162461bcd60e51b815260206004820152601860248201527f4552433732313a20696e76616c696420746f6b656e204944000000000000000060448201526064016106ff565b60007f0000000000000000000000000000000000000000000000000000000000000000670de0b6b3a7640000830205610589565b600073ffffffffffffffffffffffffffffffffffffffff8216610b7f5760405162461bcd60e51b815260206004820152602960248201527f4552433732313a2061646472657373207a65726f206973206e6f74206120766160448201527f6c6964206f776e6572000000000000000000000000000000000000000000000060648201526084016106ff565b5073ffffffffffffffffffffffffffffffffffffffff1660009081526003602052604090205490565b600754606060008080610bc3610bbd8661113f565b86611566565b9350610bfb610bf56108b87f000000000000000000000000000000000000000000000000000000000000000042612ca7565b86610d76565b92506005610c0a600143612ca7565b610c149190612ce9565b610c1f600143612ca7565b610c299190612ca7565b4091506005610c39600143612ca7565b610c439190612ce9565b610c4e906005612ca7565b90509091929394565b60606001805461059e90612c25565b6109a83383836115dd565b610c7b33836111f9565b610ced5760405162461bcd60e51b815260206004820152602d60248201527f4552433732313a2063616c6c6572206973206e6f7420746f6b656e206f776e6560448201527f72206f7220617070726f7665640000000000000000000000000000000000000060648201526084016106ff565b610cf9848484846116f0565b50505050565b60008181526002602052604090205460609073ffffffffffffffffffffffffffffffffffffffff16610d5d576040517fceea21b600000000000000000000000000000000000000000000000000000000815260040160405180910390fd5b6000828152600860205260409020546105899083611566565b6000610df47f0000000000000000000000000000000000000000000000000000000000000000610def610dea7f0000000000000000000000000000000000000000000000000000000000000000610dd9670de0b6b3a76400006001890102610ac0565b8803670de0b6b3a764000091020590565b611779565b61199e565b9392505050565b60008181526002602052604090205473ffffffffffffffffffffffffffffffffffffffff16610e6c5760405162461bcd60e51b815260206004820152601860248201527f4552433732313a20696e76616c696420746f6b656e204944000000000000000060448201526064016106ff565b50565b600081815260046020526040902080547fffffffffffffffffffffffff00000000000000000000000000000000000000001673ffffffffffffffffffffffffffffffffffffffff84169081179091558190610ec982610a4e565b73ffffffffffffffffffffffffffffffffffffffff167f8c5be1e5ebec7d5bd14f71427d1e84f3dd0314c0f7b2291e5b200ac8c7c3b92560405160405180910390a45050565b600260065403610f615760405162461bcd60e51b815260206004820152601f60248201527f5265656e7472616e637947756172643a207265656e7472616e742063616c6c0060448201526064016106ff565b6002600655565b73ffffffffffffffffffffffffffffffffffffffff8216610fcb5760405162461bcd60e51b815260206004820181905260248201527f4552433732313a206d696e7420746f20746865207a65726f206164647265737360448201526064016106ff565b60008181526002602052604090205473ffffffffffffffffffffffffffffffffffffffff161561103d5760405162461bcd60e51b815260206004820152601c60248201527f4552433732313a20746f6b656e20616c7265616479206d696e7465640000000060448201526064016106ff565b60008181526002602052604090205473ffffffffffffffffffffffffffffffffffffffff16156110af5760405162461bcd60e51b815260206004820152601c60248201527f4552433732313a20746f6b656e20616c7265616479206d696e7465640000000060448201526064016106ff565b73ffffffffffffffffffffffffffffffffffffffff8216600081815260036020908152604080832080546001019055848352600290915280822080547fffffffffffffffffffffffff0000000000000000000000000000000000000000168417905551839291907fddf252ad1be2c89b69c2b068fc378daa952ba7f163c4a11628f55a4df523b3ef908290a45050565b6000600561114e600143612ca7565b6111589190612ce9565b611163600143612ca7565b61116d9190612ca7565b6040805191406020830152810183905260600160408051601f19818403018152919052805160209091012092915050565b600080600080600085875af19050806107d85760405162461bcd60e51b815260206004820152601360248201527f4554485f5452414e534645525f4641494c45440000000000000000000000000060448201526064016106ff565b60008061120583610a4e565b90508073ffffffffffffffffffffffffffffffffffffffff168473ffffffffffffffffffffffffffffffffffffffff161480611273575073ffffffffffffffffffffffffffffffffffffffff80821660009081526005602090815260408083209388168352929052205460ff165b806112b157508373ffffffffffffffffffffffffffffffffffffffff1661129984610621565b73ffffffffffffffffffffffffffffffffffffffff16145b949350505050565b8273ffffffffffffffffffffffffffffffffffffffff166112d982610a4e565b73ffffffffffffffffffffffffffffffffffffffff16146113625760405162461bcd60e51b815260206004820152602560248201527f4552433732313a207472616e736665722066726f6d20696e636f72726563742060448201527f6f776e657200000000000000000000000000000000000000000000000000000060648201526084016106ff565b73ffffffffffffffffffffffffffffffffffffffff82166113ea5760405162461bcd60e51b8152602060048201526024808201527f4552433732313a207472616e7366657220746f20746865207a65726f2061646460448201527f726573730000000000000000000000000000000000000000000000000000000060648201526084016106ff565b8273ffffffffffffffffffffffffffffffffffffffff1661140a82610a4e565b73ffffffffffffffffffffffffffffffffffffffff16146114935760405162461bcd60e51b815260206004820152602560248201527f4552433732313a207472616e736665722066726f6d20696e636f72726563742060448201527f6f776e657200000000000000000000000000000000000000000000000000000060648201526084016106ff565b600081815260046020908152604080832080547fffffffffffffffffffffffff000000000000000000000000000000000000000090811690915573ffffffffffffffffffffffffffffffffffffffff8781168086526003855283862080547fffffffffffffffffffffffffffffffffffffffffffffffffffffffffffffffff01905590871680865283862080546001019055868652600290945282852080549092168417909155905184937fddf252ad1be2c89b69c2b068fc378daa952ba7f163c4a11628f55a4df523b3ef91a4505050565b6060600080611574856119c3565b915091506115b461158485611af0565b61158d84611bae565b836040516020016115a093929190612d2c565b604051602081830303815290604052611bae565b6040516020016115c49190612e62565b6040516020818303038152906040529250505092915050565b8173ffffffffffffffffffffffffffffffffffffffff168373ffffffffffffffffffffffffffffffffffffffff16036116585760405162461bcd60e51b815260206004820152601960248201527f4552433732313a20617070726f766520746f2063616c6c65720000000000000060448201526064016106ff565b73ffffffffffffffffffffffffffffffffffffffff83811660008181526005602090815260408083209487168084529482529182902080547fffffffffffffffffffffffffffffffffffffffffffffffffffffffffffffff001686151590811790915591519182527f17307eab39ab6107e8899845ad3d59bd9653f200f220920489ca2b5937696c31910160405180910390a3505050565b6116fb8484846112b9565b61170784848484611d01565b610cf95760405162461bcd60e51b815260206004820152603260248201527f4552433732313a207472616e7366657220746f206e6f6e20455243373231526560448201527f63656976657220696d706c656d656e746572000000000000000000000000000060648201526084016106ff565b60007ffffffffffffffffffffffffffffffffffffffffffffffffdb731c958f34d94c182136117aa57506000919050565b680755bf798b4a1bf1e582126118025760405162461bcd60e51b815260206004820152600c60248201527f4558505f4f564552464c4f57000000000000000000000000000000000000000060448201526064016106ff565b6503782dace9d9604e83901b059150600060606bb17217f7d1cf79abc9e3b39884821b056b80000000000000000000000001901d6bb17217f7d1cf79abc9e3b39881029093037fffffffffffffffffffffffffffffffffffffffdbf3ccf1604d263450f02a550481018102606090811d6d0277594991cfc85f6e2461837cd9018202811d7fffffffffffffffffffffffffffffffffffffe5adedaa1cb095af9e4da10e363c018202811d6db1bbb201f443cf962f1a1d3db4a5018202811d7ffffffffffffffffffffffffffffffffffffd38dc772608b0ae56cce01296c0eb018202811d6e05180bb14799ab47a8a8cb2a527d57016d02d16720577bd19bf614176fe9ea6c10fe68e7fd37d0007b713f765084018402831d9081019084017ffffffffffffffffffffffffffffffffffffffe2c69812cf03b0763fd454a8f7e010290911d6e0587f503bb6ea29d25fcb7401964500190910279d835ebba824c98fb31b83b2ca45c000000000000000000000000010574029d9dc38563c32e5c2f6dc192ee70ef65f9978af30260c3939093039290921c92915050565b81810282158382058314176119b257600080fd5b670de0b6b3a7640000900592915050565b60608060006060806119d58684611ebc565b945090925090506060806119e98886611fd0565b6040519097509193509150611a049085908490602001612ea7565b60405160208183030381529060405296508281604051602001611a28929190612ea7565b604051602081830303815290604052955050505050606080611a4a868461209e565b94509092509050606080611a5e8886612111565b96509092509050606080611a728a8861228f565b98509092509050606080611a868c8a612588565b604051909b509193509150611aa7908c908a90899088908790602001612ed6565b6040516020818303038152906040529a508987868584604051602001611ad1959493929190612ed6565b6040516020818303038152906040529950505050505050505050915091565b60606000611afd8361260a565b600101905060008167ffffffffffffffff811115611b1d57611b1d612ae7565b6040519080825280601f01601f191660200182016040528015611b47576020820181803683370190505b5090508181016020015b7fffffffffffffffffffffffffffffffffffffffffffffffffffffffffffffffff017f3031323334353637383961626364656600000000000000000000000000000000600a86061a8153600a8504945084611b5157509392505050565b60608151600003611bcd57505060408051602081019091526000815290565b60006040518060600160405280604081526020016140246040913990506000600384516002611bfc9190612cfd565b611c069190612f41565b611c11906004612f55565b67ffffffffffffffff811115611c2957611c29612ae7565b6040519080825280601f01601f191660200182016040528015611c53576020820181803683370190505b509050600182016020820185865187015b80821015611cbf576003820191508151603f8160121c168501518453600184019350603f81600c1c168501518453600184019350603f8160061c168501518453600184019350603f8116850151845350600183019250611c64565b5050600386510660018114611cdb5760028114611cee57611cf6565b603d6001830353603d6002830353611cf6565b603d60018303535b509195945050505050565b600073ffffffffffffffffffffffffffffffffffffffff84163b15611eb1576040517f150b7a0200000000000000000000000000000000000000000000000000000000815273ffffffffffffffffffffffffffffffffffffffff85169063150b7a0290611d78903390899088908890600401612f6c565b6020604051808303816000875af1925050508015611db3575060408051601f3d908101601f19168201909252611db091810190612fb5565b60015b611e66573d808015611de1576040519150601f19603f3d011682016040523d82523d6000602084013e611de6565b606091505b508051600003611e5e5760405162461bcd60e51b815260206004820152603260248201527f4552433732313a207472616e7366657220746f206e6f6e20455243373231526560448201527f63656976657220696d706c656d656e746572000000000000000000000000000060648201526084016106ff565b805181602001fd5b7fffffffff00000000000000000000000000000000000000000000000000000000167f150b7a02000000000000000000000000000000000000000000000000000000001490506112b1565b506001949350505050565b606080600080611ed1603261012d88886126ec565b9550905060606064821015611f0f57611ee982611af0565b604051602001611ef99190612fd2565b6040516020818303038152906040529050611f3a565b611f1882611af0565b604051602001611f289190613017565b60405160208183030381529060405290505b6060611f4a600160068a8a6126ec565b97509250611f5783611af0565b90506060611f6b6000620100008b8b6126ec565b98509350611f7884611af0565b9050828282604051602001611f8f9392919061305c565b60405160208183030381529060405296508282604051602001611fb39291906131e0565b60408051808303601f190181529190529699969850505050505050565b60608060006060611fe18686612761565b955090506000611ff56001603d89896126ec565b96509050600061200482611af0565b60405160200161201491906132d7565b6040516020818303038152906040529050612033600460078a8a6126ec565b97509150600061204283611af0565b6040516020016120529190613318565b60405160208183030381529060405290508381836040516020016120789392919061335d565b6040516020818303038152906040529650838282604051602001611fb3939291906134df565b6060806000806120b26001601588886126ec565b9550905060006120c182611af0565b9050806040516020016120d4919061363b565b6040516020818303038152906040529450806040516020016120f691906137b1565b60408051808303601f19018152919052949794965050505050565b6060806000806121256000604c88886126ec565b955090506060600a8210156121635761213d82611af0565b60405160200161214d9190613017565b604051602081830303815290604052905061218e565b61216c82611af0565b60405160200161217c9190613318565b60405160208183030381529060405290505b600061219a8888612839565b975090508080156121aa57508215155b156121d257816040516020016121c09190613843565b60405160208183030381529060405291505b60606121de8989612839565b985091508115612222575060408051808201909152600381527f6f757400000000000000000000000000000000000000000000000000000000006020820152612258565b5060408051808201909152600281527f696e00000000000000000000000000000000000000000000000000000000000060208201525b808360405160200161226b929190613888565b60405160208183030381529060405296508281604051602001611fb39291906139a5565b606080600080606080606060006122a68a8a612839565b995090508015612327576122be601e605b8c8c6126ec565b995094506122cb85611af0565b93506122db600160338c8c6126ec565b995094506122e885611af0565b92506040518060400160405280600181526020017f31000000000000000000000000000000000000000000000000000000000000008152509150612482565b60006123338b8b612839565b9a509050801561240d576040518060400160405280600181526020017f310000000000000000000000000000000000000000000000000000000000000081525094506040518060400160405280600181526020017f310000000000000000000000000000000000000000000000000000000000000081525093506123bb6001601e8d8d6126ec565b9a5095506123c886611af0565b92506123d8600060648d8d6126ec565b9a509550826123e687611af0565b6040516020016123f7929190613a77565b6040516020818303038152906040529250612480565b61241b6000601f8d8d6126ec565b9a50955061242886611af0565b94506124386001601f8d8d6126ec565b9a50955061244586611af0565b93506040518060400160405280600181526020017f310000000000000000000000000000000000000000000000000000000000000081525092505b505b8183858361249f57604051806020016040528060008152506124b9565b604051806080016040528060528152602001613fd2605291395b6040516020016124cc9493929190613acf565b604051602081830303815290604052975081838583612520576040518060400160405280600581526020017f66616c7365000000000000000000000000000000000000000000000000000000815250612557565b6040518060400160405280600481526020017f74727565000000000000000000000000000000000000000000000000000000008152505b60405160200161256a9493929190613bf4565b60408051808303601f19018152919052979a97995050505050505050565b60608060008061259c6000600288886126ec565b955090506125ab81605a612f55565b90506125b681611af0565b6040516020016125c69190613dd0565b60405160208183030381529060405293506125e081611af0565b6040516020016125f09190613e88565b60408051808303601f190181529190529396939550505050565b6000807a184f03e93ff9f4daa797ed6e38ed64bf6a1f0100000000000000008310612653577a184f03e93ff9f4daa797ed6e38ed64bf6a1f010000000000000000830492506040015b6d04ee2d6d415b85acef8100000000831061267f576d04ee2d6d415b85acef8100000000830492506020015b662386f26fc10000831061269d57662386f26fc10000830492506010015b6305f5e10083106126b5576305f5e100830492506008015b61271083106126c957612710830492506004015b606483106126db576064830492506002015b600a83106105895760010192915050565b6000806000848460405160200161270d929190918252602082015260400190565b60408051601f19818403018152919052805160209091012090508361273181613f1a565b94508790506127408188612ca7565b61274a9083612ce9565b6127549190612cfd565b9793965092945050505050565b606060008060006127766000609788886126ec565b955091506127848686612839565b955090506000806127988160978a8a6126ec565b975091506127a68888612839565b97509050600080821515851515036127cc576127c28487612cfd565b91508490506127ee565b838611156127de576127c28487612ca7565b6127e88685612ca7565b91508290505b60006127fa8787612897565b9050806128078484612897565b8260405160200161281a93929190613f52565b60408051808303601f190181529190529b999a50505050505050505050565b6000806000848460405160200161285a929190918252602082015260400190565b60408051601f19818403018152919052805160209091012090508361287e81613f1a565b945061288d9050600282612ce9565b1595939450505050565b60608180156128a557508215155b156128d9576128b383611af0565b6040516020016128c39190613843565b6040516020818303038152906040529050610589565b610df483611af0565b7fffffffff0000000000000000000000000000000000000000000000000000000081168114610e6c57600080fd5b60006020828403121561292257600080fd5b8135610df4816128e2565b60005b83811015612948578181015183820152602001612930565b50506000910152565b6000815180845261296981602086016020860161292d565b601f01601f19169290920160200192915050565b602081526000610df46020830184612951565b6000602082840312156129a257600080fd5b5035919050565b803573ffffffffffffffffffffffffffffffffffffffff811681146129cd57600080fd5b919050565b600080604083850312156129e557600080fd5b6129ee836129a9565b946020939093013593505050565b60008060408385031215612a0f57600080fd5b50508035926020909101359150565b600080600060608486031215612a3357600080fd5b612a3c846129a9565b9250612a4a602085016129a9565b9150604084013590509250925092565b600060208284031215612a6c57600080fd5b610df4826129a9565b85815260a060208201526000612a8e60a0830187612951565b604083019590955250606081019290925260809091015292915050565b60008060408385031215612abe57600080fd5b612ac7836129a9565b915060208301358015158114612adc57600080fd5b809150509250929050565b7f4e487b7100000000000000000000000000000000000000000000000000000000600052604160045260246000fd5b60008060008060808587031215612b2c57600080fd5b612b35856129a9565b9350612b43602086016129a9565b925060408501359150606085013567ffffffffffffffff80821115612b6757600080fd5b818701915087601f830112612b7b57600080fd5b813581811115612b8d57612b8d612ae7565b604051601f8201601f19908116603f01168101908382118183101715612bb557612bb5612ae7565b816040528281528a6020848701011115612bce57600080fd5b82602086016020830137600060208483010152809550505050505092959194509250565b60008060408385031215612c0557600080fd5b612c0e836129a9565b9150612c1c602084016129a9565b90509250929050565b600181811c90821680612c3957607f821691505b602082108103612c72577f4e487b7100000000000000000000000000000000000000000000000000000000600052602260045260246000fd5b50919050565b7f4e487b7100000000000000000000000000000000000000000000000000000000600052601160045260246000fd5b8181038181111561058957610589612c78565b7f4e487b7100000000000000000000000000000000000000000000000000000000600052601260045260246000fd5b600082612cf857612cf8612cba565b500690565b8082018082111561058957610589612c78565b60008151612d2281856020860161292d565b9290920192915050565b7f7b20226e616d65223a20224d657263757269616c202300000000000000000000815260008451612d6481601685016020890161292d565b7f222c20226465736372697074696f6e223a20224162737472616374206f6e2d636016918401918201527f6861696e2067656e6572617469766520617274222c2022696d616765223a202260368201527f646174613a696d6167652f7376672b786d6c3b6261736536342c00000000000060568201528451612ded81607084016020890161292d565b7f222c202261747472696275746573223a205b2000000000000000000000000000607092909101918201528351612e2b81608384016020880161292d565b7f205d207d000000000000000000000000000000000000000000000000000000006083929091019182015260870195945050505050565b7f646174613a6170706c69636174696f6e2f6a736f6e3b6261736536342c000000815260008251612e9a81601d85016020870161292d565b91909101601d0192915050565b60008351612eb981846020880161292d565b835190830190612ecd81836020880161292d565b01949350505050565b60008651612ee8818460208b0161292d565b865190830190612efc818360208b0161292d565b8651910190612f0f818360208a0161292d565b8551910190612f2281836020890161292d565b8451910190612f3581836020880161292d565b01979650505050505050565b600082612f5057612f50612cba565b500490565b808202811582820484141761058957610589612c78565b600073ffffffffffffffffffffffffffffffffffffffff808716835280861660208401525083604083015260806060830152612fab6080830184612951565b9695505050505050565b600060208284031215612fc757600080fd5b8151610df4816128e2565b7f302e30300000000000000000000000000000000000000000000000000000000081526000825161300a81600485016020870161292d565b9190910160040192915050565b7f302e30000000000000000000000000000000000000000000000000000000000081526000825161304f81600385016020870161292d565b9190910160030192915050565b7f3c7376672077696474683d2233353022206865696768743d223335302220766581527f7273696f6e3d22312e31222076696577426f783d22302030203335302033353060208201527f2220786d6c6e733d22687474703a2f2f7777772e77332e6f72672f323030302f60408201527f737667223e3c66696c7465722069643d2261223e3c666554757262756c656e6360608201527f6520626173654672657175656e63793d2200000000000000000000000000000060808201526000845161312c81609185016020890161292d565b7f22206e756d4f6374617665733d22000000000000000000000000000000000000609191840191820152845161316981609f84016020890161292d565b7f2220736565643d22000000000000000000000000000000000000000000000000609f929091019182015283516131a78160a784016020880161292d565b016131d460a782017f22202f3e000000000000000000000000000000000000000000000000000000009052565b60ab0195945050505050565b7f7b202274726169745f74797065223a202242617365204672657175656e63792281527f2c202276616c7565223a2022000000000000000000000000000000000000000060208201526000835161323e81602c85016020880161292d565b7f22207d2c207b202274726169745f74797065223a20224f637461766573222c20602c918401918201527f2276616c7565223a202200000000000000000000000000000000000000000000604c82015283516132a181605684016020880161292d565b7f22207d2c2000000000000000000000000000000000000000000000000000000060569290910191820152605b01949350505050565b600082516132e981846020870161292d565b7f7300000000000000000000000000000000000000000000000000000000000000920191825250600101919050565b7f302e00000000000000000000000000000000000000000000000000000000000081526000825161335081600285016020870161292d565b9190910160020192915050565b7f3c6665446973706c6163656d656e744d61703e3c616e696d617465206174747281527f69627574654e616d653d227363616c65222076616c7565733d220000000000006020820152600084516133bb81603a85016020890161292d565b7f22206b657954696d65733d22303b200000000000000000000000000000000000603a9184019182015284516133f881604984016020890161292d565b7f3b203122206475723d220000000000000000000000000000000000000000000060499290910191820152835161343681605384016020880161292d565b7f2220726570656174436f756e743d22696e646566696e697465222063616c634d605392909101918201527f6f64653d2273706c696e6522206b657953706c696e65733d22302e332030203060738201527f2e3720313b20302e33203020302e372031222f3e3c2f6665446973706c61636560938201527f6d656e744d61703e00000000000000000000000000000000000000000000000060b382015260bb0195945050505050565b7f7b202274726169745f74797065223a20225363616c65222c202276616c75652281527f3a2022000000000000000000000000000000000000000000000000000000000060208201526000845161353d81602385016020890161292d565b7f22207d2c207b202274726169745f74797065223a20225363616c6520416e696d6023918401918201527f6174696f6e222c202276616c7565223a20220000000000000000000000000000604382015284516135a081605584016020890161292d565b7f22207d2c207b202274726169745f74797065223a20224b65792054696d65222c605592909101918201527f202276616c7565223a20220000000000000000000000000000000000000000006075820152835161360481608084016020880161292d565b7f22207d2c200000000000000000000000000000000000000000000000000000006080929091019182015260850195945050505050565b7f3c6665436f6c6f724d617472697820747970653d22687565526f74617465222081527f726573756c743d2262223e3c616e696d617465206174747269627574654e616d60208201527f653d2276616c756573222066726f6d3d22302220746f3d22333630222064757260408201527f3d220000000000000000000000000000000000000000000000000000000000006060820152600082516136e581606285016020870161292d565b7f732220726570656174436f756e743d22696e646566696e697465222f3e3c2f6660629390910192830152507f65436f6c6f724d61747269783e3c6665436f6c6f724d6174726978207479706560828201527f3d226d61747269782220726573756c743d2263222076616c7565733d2230203060a28201527f203020302030203020302030203020302030203020302030203020312030203060c28201527f20302030222f3e0000000000000000000000000000000000000000000000000060e282015260e901919050565b7f7b202274726169745f74797065223a202248756520526f7461746520416e696d81527f6174696f6e222c202276616c7565223a2022000000000000000000000000000060208201526000825161380f81603285016020870161292d565b7f7322207d2c2000000000000000000000000000000000000000000000000000006032939091019283015250603801919050565b7f2d0000000000000000000000000000000000000000000000000000000000000081526000825161387b81600185016020870161292d565b9190910160010192915050565b7f3c6665436f6d706f7369746520696e3d22622220696e323d226322206f70657281527f61746f723d2200000000000000000000000000000000000000000000000000006020820152600083516138e681602685016020880161292d565b7f2220726573756c743d2264222f3e3c6665436f6d706f7369746520696e3d22646026918401918201527f2220696e323d226422206f70657261746f723d2261726974686d65746963222060468201527f6b313d223122206b323d223122206b333d223122206b343d22000000000000006066820152835161396f81607f84016020880161292d565b7f222f3e0000000000000000000000000000000000000000000000000000000000607f9290910191820152608201949350505050565b7f7b202274726169745f74797065223a20224b34222c202276616c7565223a20228152600083516139dd81602085016020880161292d565b80830190507f22207d2c207b202274726169745f74797065223a2022436f6d706f736974652060208201527f4f70657261746f72222c202276616c7565223a2022000000000000000000000060408201528351613a4181605584016020880161292d565b7f22207d2c2000000000000000000000000000000000000000000000000000000060559290910191820152605a01949350505050565b60008351613a8981846020880161292d565b7f2e000000000000000000000000000000000000000000000000000000000000009083019081528351613ac381600184016020880161292d565b01600101949350505050565b7f3c6665446966667573654c69676874696e67206c69676874696e672d636f6c6f81527f723d2223666666222064696666757365436f6e7374616e743d22000000000000602082015260008551613b2d81603a850160208a0161292d565b7f2220737572666163655363616c653d2200000000000000000000000000000000603a918401918201528551613b6a81604a840160208a0161292d565b7f223e3c666544697374616e744c6967687420656c65766174696f6e3d22000000604a92909101918201528451613ba881606784016020890161292d565b7f222f3e3c2f6665446966667573654c69676874696e673e000000000000000000606792909101918201528351613be681607e84016020880161292d565b01607e019695505050505050565b7f7b202274726169745f74797065223a20224469666675736520436f6e7374616e81527f74222c202276616c7565223a2022000000000000000000000000000000000000602082015260008551613c5281602e850160208a0161292d565b7f22207d2c207b202274726169745f74797065223a202253757266616365205363602e918401918201527f616c65222c202276616c7565223a202200000000000000000000000000000000604e8201528551613cb581605e840160208a0161292d565b7f22207d2c207b202274726169745f74797065223a2022456c65766174696f6e22605e92909101918201527f2c202276616c7565223a20220000000000000000000000000000000000000000607e8201528451613d1981608a84016020890161292d565b01613d46608a82017f22207d2c200000000000000000000000000000000000000000000000000000009052565b7f7b202274726169745f74797065223a2022496e766572746564222c202276616c608f8201527f7565223a2000000000000000000000000000000000000000000000000000000060af820152613d9f60b4820185612d10565b7f207d2c20000000000000000000000000000000000000000000000000000000008152600401979650505050505050565b7f3c2f66696c7465723e3c726563742077696474683d223335302220686569676881527f743d22333530222066696c7465723d2275726c2823612922207472616e73666f60208201527f726d3d22726f7461746528000000000000000000000000000000000000000000604082015260008251613e5481604b85016020870161292d565b7f203137352031373529222f3e3c2f7376673e0000000000000000000000000000604b939091019283015250605d01919050565b7f7b202274726169745f74797065223a2022526f746174696f6e222c202276616c81527f7565223a20220000000000000000000000000000000000000000000000000000602082015260008251613ee681602685016020870161292d565b7f22207d20000000000000000000000000000000000000000000000000000000006026939091019283015250602a01919050565b60007fffffffffffffffffffffffffffffffffffffffffffffffffffffffffffffffff8203613f4b57613f4b612c78565b5060010190565b60008451613f6481846020890161292d565b80830190507f3b000000000000000000000000000000000000000000000000000000000000008082528551613fa0816001850160208a0161292d565b600192019182018190528451613fbd81600285016020890161292d565b60029201918201526003019594505050505056fe3c6665436f6c6f724d617472697820747970653d226d6174726978222076616c7565733d222d3120302030203020312030202d3120302030203120302030202d312030203120302030203020312030222f3e4142434445464748494a4b4c4d4e4f505152535455565758595a6162636465666768696a6b6c6d6e6f707172737475767778797a303132333435363738392b2fa26469706673582212202854ef9fd436bc4717717a2223cb5764a25984bbc6d071f7219fbbdd3a84d6f964736f6c63430008140033",
    "linkReferences": {}
  },
  "methodIdentifiers": {
    "approve(address,uint256)": "095ea7b3",
    "balanceOf(address)": "70a08231",
    "getApproved(uint256)": "081812fc",
    "getTargetSaleTime(int256)": "6d9d33b7",
    "getVRGDAPrice(int256,uint256)": "f466d4ab",
    "isApprovedForAll(address,address)": "e985e9c5",
    "mint(uint256,bytes32)": "1801fbe5",
    "name()": "06fdde03",
    "nextToken()": "9499ac54",
    "ownerOf(uint256)": "6352211e",
    "safeTransferFrom(address,address,uint256)": "42842e0e",
    "safeTransferFrom(address,address,uint256,bytes)": "b88d4fde",
    "seeds(uint256)": "f0503e80",
    "setApprovalForAll(address,bool)": "a22cb465",
    "startTime()": "78e97925",
    "supportsInterface(bytes4)": "01ffc9a7",
    "symbol()": "95d89b41",
    "targetPrice()": "dc38679c",
    "tokenURI(uint256)": "c87b56dd",
    "totalSold()": "9106d7ba",
    "transferFrom(address,address,uint256)": "23b872dd"
  },
  "id": 34
}