{
  "abi": [
    {
      "inputs": [],
      "stateMutability": "nonpayable",
      "type": "constructor"
    },
    {
      "anonymous": false,
      "inputs": [
        {
          "indexed": true,
          "internalType": "address",
          "name": "owner",
          "type": "address"
        },
        {
          "indexed": true,
          "internalType": "address",
          "name": "approved",
          "type": "address"
        },
        {
          "indexed": true,
          "internalType": "uint256",
          "name": "tokenId",
          "type": "uint256"
        }
      ],
      "name": "Approval",
      "type": "event"
    },
    {
      "anonymous": false,
      "inputs": [
        {
          "indexed": true,
          "internalType": "address",
          "name": "owner",
          "type": "address"
        },
        {
          "indexed": true,
          "internalType": "address",
          "name": "operator",
          "type": "address"
        },
        {
          "indexed": false,
          "internalType": "bool",
          "name": "approved",
          "type": "bool"
        }
      ],
      "name": "ApprovalForAll",
      "type": "event"
    },
    {
      "anonymous": false,
      "inputs": [
        {
          "indexed": true,
          "internalType": "address",
          "name": "from",
          "type": "address"
        },
        {
          "indexed": true,
          "internalType": "address",
          "name": "to",
          "type": "address"
        },
        {
          "indexed": true,
          "internalType": "uint256",
          "name": "tokenId",
          "type": "uint256"
        }
      ],
      "name": "Transfer",
      "type": "event"
    },
    {
      "inputs": [
        {
          "internalType": "address",
          "name": "to",
          "type": "address"
        },
        {
          "internalType": "uint256",
          "name": "tokenId",
          "type": "uint256"
        }
      ],
      "name": "approve",
      "outputs": [],
      "stateMutability": "nonpayable",
      "type": "function"
    },
    {
      "inputs": [
        {
          "internalType": "address",
          "name": "owner",
          "type": "address"
        }
      ],
      "name": "balanceOf",
      "outputs": [
        {
          "internalType": "uint256",
          "name": "",
          "type": "uint256"
        }
      ],
      "stateMutability": "view",
      "type": "function"
    },
    {
      "inputs": [
        {
          "internalType": "string",
          "name": "feTurbulence",
          "type": "string"
        },
        {
          "internalType": "string",
          "name": "staticFeDisplacementMap",
          "type": "string"
        },
        {
          "internalType": "string",
          "name": "animatedFeDisplacementMap",
          "type": "string"
        },
        {
          "internalType": "string",
          "name": "animatedFeColorMatrix",
          "type": "string"
        },
        {
          "internalType": "string",
          "name": "feComposites",
          "type": "string"
        },
        {
          "internalType": "string",
          "name": "feDiffuseLighting",
          "type": "string"
        },
        {
          "internalType": "string",
          "name": "feColorMatrixForInversion",
          "type": "string"
        }
      ],
      "name": "composeSVGsFromParts",
      "outputs": [
        {
          "internalType": "string",
          "name": "svgImage",
          "type": "string"
        },
        {
          "internalType": "string",
          "name": "svgAnimated",
          "type": "string"
        }
      ],
      "stateMutability": "pure",
      "type": "function"
    },
    {
      "inputs": [
        {
          "internalType": "uint256",
          "name": "seed",
          "type": "uint256"
        }
      ],
      "name": "generateSVG",
      "outputs": [
        {
          "internalType": "string",
          "name": "svgImage",
          "type": "string"
        },
        {
          "internalType": "string",
          "name": "svgAnimation",
          "type": "string"
        },
        {
          "internalType": "string",
          "name": "attributes",
          "type": "string"
        }
      ],
      "stateMutability": "pure",
      "type": "function"
    },
    {
      "inputs": [
        {
          "internalType": "uint256",
          "name": "tokenId",
          "type": "uint256"
        }
      ],
      "name": "generateSeed",
      "outputs": [
        {
          "internalType": "uint256",
          "name": "",
          "type": "uint256"
        },
        {
          "internalType": "uint8",
          "name": "",
          "type": "uint8"
        }
      ],
      "stateMutability": "view",
      "type": "function"
    },
    {
      "inputs": [
        {
          "internalType": "uint256",
          "name": "tokenId",
          "type": "uint256"
        }
      ],
      "name": "getApproved",
      "outputs": [
        {
          "internalType": "address",
          "name": "",
          "type": "address"
        }
      ],
      "stateMutability": "view",
      "type": "function"
    },
    {
      "inputs": [],
      "name": "getCurrentVRGDAPrice",
      "outputs": [
        {
          "internalType": "uint256",
          "name": "",
          "type": "uint256"
        }
      ],
      "stateMutability": "view",
      "type": "function"
    },
    {
      "inputs": [
        {
          "internalType": "int256",
          "name": "sold",
          "type": "int256"
        }
      ],
      "name": "getTargetSaleTime",
      "outputs": [
        {
          "internalType": "int256",
          "name": "",
          "type": "int256"
        }
      ],
      "stateMutability": "view",
      "type": "function"
    },
    {
      "inputs": [
        {
          "internalType": "int256",
          "name": "timeSinceStart",
          "type": "int256"
        },
        {
          "internalType": "uint256",
          "name": "sold",
          "type": "uint256"
        }
      ],
      "name": "getVRGDAPrice",
      "outputs": [
        {
          "internalType": "uint256",
          "name": "",
          "type": "uint256"
        }
      ],
      "stateMutability": "view",
      "type": "function"
    },
    {
      "inputs": [
        {
          "internalType": "address",
          "name": "owner",
          "type": "address"
        },
        {
          "internalType": "address",
          "name": "operator",
          "type": "address"
        }
      ],
      "name": "isApprovedForAll",
      "outputs": [
        {
          "internalType": "bool",
          "name": "",
          "type": "bool"
        }
      ],
      "stateMutability": "view",
      "type": "function"
    },
    {
      "inputs": [
        {
          "internalType": "uint256",
          "name": "expectedTokenId",
          "type": "uint256"
        },
        {
          "internalType": "bytes32",
          "name": "expectedParentBlockhash",
          "type": "bytes32"
        }
      ],
      "name": "mint",
      "outputs": [],
      "stateMutability": "payable",
      "type": "function"
    },
    {
      "inputs": [],
      "name": "name",
      "outputs": [
        {
          "internalType": "string",
          "name": "",
          "type": "string"
        }
      ],
      "stateMutability": "view",
      "type": "function"
    },
    {
      "inputs": [],
      "name": "nextToken",
      "outputs": [
        {
          "internalType": "uint256",
          "name": "id",
          "type": "uint256"
        },
        {
          "internalType": "string",
          "name": "uri",
          "type": "string"
        },
        {
          "internalType": "uint256",
          "name": "price",
          "type": "uint256"
        },
        {
          "internalType": "bytes32",
          "name": "hash",
          "type": "bytes32"
        },
        {
          "internalType": "uint8",
          "name": "ttl",
          "type": "uint8"
        }
      ],
      "stateMutability": "view",
      "type": "function"
    },
    {
      "inputs": [
        {
          "internalType": "uint256",
          "name": "tokenId",
          "type": "uint256"
        }
      ],
      "name": "ownerOf",
      "outputs": [
        {
          "internalType": "address",
          "name": "",
          "type": "address"
        }
      ],
      "stateMutability": "view",
      "type": "function"
    },
    {
      "inputs": [
        {
          "internalType": "address",
          "name": "from",
          "type": "address"
        },
        {
          "internalType": "address",
          "name": "to",
          "type": "address"
        },
        {
          "internalType": "uint256",
          "name": "tokenId",
          "type": "uint256"
        }
      ],
      "name": "safeTransferFrom",
      "outputs": [],
      "stateMutability": "nonpayable",
      "type": "function"
    },
    {
      "inputs": [
        {
          "internalType": "address",
          "name": "from",
          "type": "address"
        },
        {
          "internalType": "address",
          "name": "to",
          "type": "address"
        },
        {
          "internalType": "uint256",
          "name": "tokenId",
          "type": "uint256"
        },
        {
          "internalType": "bytes",
          "name": "data",
          "type": "bytes"
        }
      ],
      "name": "safeTransferFrom",
      "outputs": [],
      "stateMutability": "nonpayable",
      "type": "function"
    },
    {
      "inputs": [
        {
          "internalType": "uint256",
          "name": "",
          "type": "uint256"
        }
      ],
      "name": "seeds",
      "outputs": [
        {
          "internalType": "uint256",
          "name": "",
          "type": "uint256"
        }
      ],
      "stateMutability": "view",
      "type": "function"
    },
    {
      "inputs": [
        {
          "internalType": "address",
          "name": "operator",
          "type": "address"
        },
        {
          "internalType": "bool",
          "name": "approved",
          "type": "bool"
        }
      ],
      "name": "setApprovalForAll",
      "outputs": [],
      "stateMutability": "nonpayable",
      "type": "function"
    },
    {
      "inputs": [],
      "name": "startTime",
      "outputs": [
        {
          "internalType": "uint256",
          "name": "",
          "type": "uint256"
        }
      ],
      "stateMutability": "view",
      "type": "function"
    },
    {
      "inputs": [
        {
          "internalType": "bytes4",
          "name": "interfaceId",
          "type": "bytes4"
        }
      ],
      "name": "supportsInterface",
      "outputs": [
        {
          "internalType": "bool",
          "name": "",
          "type": "bool"
        }
      ],
      "stateMutability": "view",
      "type": "function"
    },
    {
      "inputs": [],
      "name": "symbol",
      "outputs": [
        {
          "internalType": "string",
          "name": "",
          "type": "string"
        }
      ],
      "stateMutability": "view",
      "type": "function"
    },
    {
      "inputs": [],
      "name": "targetPrice",
      "outputs": [
        {
          "internalType": "int256",
          "name": "",
          "type": "int256"
        }
      ],
      "stateMutability": "view",
      "type": "function"
    },
    {
      "inputs": [
        {
          "internalType": "uint256",
          "name": "tokenId",
          "type": "uint256"
        }
      ],
      "name": "tokenURI",
      "outputs": [
        {
          "internalType": "string",
          "name": "",
          "type": "string"
        }
      ],
      "stateMutability": "view",
      "type": "function"
    },
    {
      "inputs": [],
      "name": "totalSold",
      "outputs": [
        {
          "internalType": "uint256",
          "name": "",
          "type": "uint256"
        }
      ],
      "stateMutability": "view",
      "type": "function"
    },
    {
      "inputs": [
        {
          "internalType": "address",
          "name": "from",
          "type": "address"
        },
        {
          "internalType": "address",
          "name": "to",
          "type": "address"
        },
        {
          "internalType": "uint256",
          "name": "tokenId",
          "type": "uint256"
        }
      ],
      "name": "transferFrom",
      "outputs": [],
      "stateMutability": "nonpayable",
      "type": "function"
    }
  ],
  "bytecode": {
    "object": "0x6101003462000547576040906001600160401b03908083018281118282101762000531578352600a8152602090694d657263757269616c7360b01b828201528351908482018281108582111762000531578552600493848352634d45524360e01b8484015281518181116200051c576000938454916001948584811c9416801562000511575b88851014620004fe578190601f94858111620004ab575b508890858311600114620004475788926200043b575b5050600019600383901b1c191690851b1785555b8051928311620004285783548481811c911680156200041d575b878210146200040a5790818385949311620003b5575b50869183116001146200035157859262000345575b5050600019600383901b1c191690821b1790555b66038d7ea4c68000608052787bc09ae187cc1ad2e57cc9d314166b83c39200000000000000606090811d6d0388eaa27412d5aca026815d636e016c01b7a5f826f460000000000000908102821d6d0df99ac502031bf953eff472fdcc018102821d6d13cdffb29d51d99322bdff5f2211018102821d6d0a0f742023def783a307a986912e018102821d6d01920d8043ca89b5239253284e42018102821d6c0b7a86d7375468fac667a0a527017849e6f795ecfbde44f7f2f220fb38688593cd00000000000000831d6d0139601a2efabe717e604cbb4894018202831d6d02247f7a7b6594320649aa03aba1018202831d6c8c3f38e95a6b1ff2ab1c3b343619018202831d6d02384773bdf1ac5676facced60901901820290921d6cb9a025d814b29c212b8b1a07cd19010260016c0504a838426634cdd8738f543560611b03190105711340daa0d5f769dba1915cef59f0815a5506027d01e94056d01683682d41f65837cfdb919746acc130075085ab63191fd15a190160ae1d60a0819052121562000305578268270801d946c940000060c0524260e0525161319690816200054d82396080518181816103070152611028015260a0518161108f015260c05181818161085b0152611068015260e05181818161066d0152818161072501526117810152f35b606492519162461bcd60e51b8352820152601b60248201527f4e4f4e5f4e454741544956455f44454341595f434f4e5354414e5400000000006044820152fd5b0151905038806200010b565b8486528686208594509190601f198416875b898282106200039e575050841162000384575b505050811b0190556200011f565b015160001960f88460031b161c1916905538808062000376565b838501518655889790950194938401930162000363565b909192508486528686208380860160051c82019289871062000400575b91869588929594930160051c01915b828110620003f1575050620000f6565b888155869550879101620003e1565b92508192620003d2565b634e487b7160e01b865260228852602486fd5b90607f1690620000e0565b634e487b7160e01b855260418752602485fd5b015190503880620000b2565b8880528989208894509190601f1984168a5b8c8282106200049457505084116200047a575b505050811b018555620000c6565b015160001960f88460031b161c191690553880806200046c565b8385015186558b9790950194938401930162000459565b9091508780528888208580850160051c8201928b8610620004f4575b918991869594930160051c01915b828110620004e55750506200009c565b8a8155859450899101620004d5565b92508192620004c7565b634e487b7160e01b875260228952602487fd5b93607f169362000085565b604186634e487b7160e01b6000525260246000fd5b634e487b7160e01b600052604160045260246000fd5b600080fdfe608060408181526004918236101561001657600080fd5b600090813560e01c90816301ffc9a714610e0b5750806306fdde0314610d41578063081812fc14610d22578063095ea7b314610bb45780631801fbe51461095257806323b872dd14610928578063424611c3146108f857806342842e0e146108cf5780634718121a146108b25780636352211e146108825780636d9d33b7146108365780636dcee4ca146107dd57806370a082311461074857806378e979251461070d5780639106d7ba146106ee5780639499ac541461062c57806395d89b4114610517578063a22cb4651461044b578063b88d4fde146103e7578063c87b56dd1461032a578063dc38679c146102ef578063e985e9c51461029d578063f0503e8014610275578063f1af34ce146101625763f466d4ab1461013757600080fd5b3461015f578160031936011261015f57506101586020926024359035611022565b9051908152f35b80fd5b503461015f5760e036600319011261015f5767ffffffffffffffff8335818111610271576101939036908601611004565b9360243582811161026d576101ab9036908301611004565b604435838111610269576101c29036908401611004565b90606435848111610265576101da9036908501611004565b92608435858111610261576101f29036908301611004565b9460a43581811161025d5761020a9036908401611004565b9660c43591821161015f57509161022f61025999969492610235989694369101611004565b9561184b565b61024b8394929451948486958652850190610e9a565b908382036020850152610e9a565b0390f35b8780fd5b8680fd5b8580fd5b8480fd5b8380fd5b8280fd5b5091346102715760203660031901126102715760209282913581526007845220549051908152f35b5090346102eb57806003193601126102eb5760ff816020936102bd610ebf565b6102c5610eda565b6001600160a01b0391821683526005875283832091168252855220549151911615158152f35b5080fd5b5090346102eb57816003193601126102eb57602090517f00000000000000000000000000000000000000000000000000000000000000008152f35b5082903461015f57602036600319011261015f5781356000818152600260205260409020549092906001600160a01b03161561038c576102598461037985828682815260076020522054612d0b565b9051918291602083526020830190610e9a565b608490602085519162461bcd60e51b8352820152602f60248201527f4552433732314d657461646174613a2055524920717565727920666f72206e6f60448201526e3732bc34b9ba32b73a103a37b5b2b760891b6064820152fd5b5082346102eb5760803660031901126102eb57610402610ebf565b61040a610eda565b9060643567ffffffffffffffff81116102695736602382011215610269576104489381602461043e93369301359101610fcd565b91604435916111d9565b80f35b50919034610271578060031936011261027157610466610ebf565b9060243591821515809303610269576001600160a01b0316923384146104d55750338452600560205280842083855260205280842060ff1981541660ff8416179055519081527f17307eab39ab6107e8899845ad3d59bd9653f200f220920489ca2b5937696c3160203392a380f35b6020606492519162461bcd60e51b8352820152601960248201527f4552433732313a20617070726f766520746f2063616c6c6572000000000000006044820152fd5b503461015f578060031936011261015f578151918160019283549384811c91818616958615610622575b602096878510811461060f578899509688969785829a5291826000146105e857505060011461058d575b505050610259929161057e910385610f8f565b51928284938452830190610e9a565b91908693508083527fb10e2d527612073b26eecdfd717e6a320cf44b4afac2b0732d9fcbe2b7fa0cf65b8284106105d0575050508201018161057e61025961056b565b8054848a0186015288955087949093019281016105b7565b60ff19168782015293151560051b8601909301935084925061057e9150610259905061056b565b634e487b7160e01b835260228a52602483fd5b92607f1692610541565b5090346102eb57816003193601126102eb57600654908161065661064f826117b1565b9290612d0b565b936106998462015180670de0b6b3a76400006106927f000000000000000000000000000000000000000000000000000000000000000042611573565b0204611022565b6000194301914383116106db57509060ff92916106c78551978897885260a0602089015260a0880190610e9a565b948601524060608501521660808301520390f35b634e487b7160e01b815260118852602490fd5b5090346102eb57816003193601126102eb576020906006549051908152f35b5090346102eb57816003193601126102eb57602090517f00000000000000000000000000000000000000000000000000000000000000008152f35b5082346102eb5760203660031901126102eb576001600160a01b0361076b610ebf565b169081156107885760208480858581526003845220549051908152f35b608490602085519162461bcd60e51b8352820152602960248201527f4552433732313a2061646472657373207a65726f206973206e6f7420612076616044820152683634b21037bbb732b960b91b6064820152fd5b5082903461015f57602036600319011261015f5761081b610829610259856108058635611b4b565b9194908351968796606088526060880190610e9a565b908682036020880152610e9a565b9184830390850152610e9a565b5091903461027157602036600319011261027157602092505190670de0b6b3a76400007f0000000000000000000000000000000000000000000000000000000000000000913502058152f35b503461015f57602036600319011261015f57506108a160209235611116565b90516001600160a01b039091168152f35b5090346102eb57816003193601126102eb5760209061015861176c565b5090346102eb57610448906108e336610ef0565b919251926108f084610f25565b8584526111d9565b5082903461015f57602036600319011261015f575061091960ff91356117b1565b83519182529091166020820152f35b503461015f5761044861093a36610ef0565b9161094d6109488433611274565b611177565b61133c565b50919080600319360112610271578135916000194301438111610ba15760249040813503610b60576006548403610b1f5761098b61176c565b803410610ae8573315610aa75785808080936109c56109bf8a600052600260205260018060a01b0360406000205416151590565b15611720565b6000898152600260205260409020546109e8906001600160a01b031615156109bf565b3382526003602052878220600181540190558882526002602052878220336bffffffffffffffffffffffff60a01b8254161790558833837fddf252ad1be2c89b69c2b068fc378daa952ba7f163c4a11628f55a4df523b3ef8180a46001600654016006553403335af115610a70575050610a61826117b1565b50918352600760205282205580f35b6013906020606494519362461bcd60e51b85528401528201527211551217d514905394d1915497d19052531151606a1b6044820152fd5b5060209081606494519362461bcd60e51b85528401528201527f4552433732313a206d696e7420746f20746865207a65726f20616464726573736044820152fd5b506012906020606494519362461bcd60e51b855284015282015271496e73756666696369656e742066756e647360701b6044820152fd5b601b906020606494519362461bcd60e51b85528401528201527f496e76616c6964206f72206578706972656420746f6b656e20494400000000006044820152fd5b601c906020606494519362461bcd60e51b85528401528201527f496e76616c6964206f72206578706972656420626c6f636b68617368000000006044820152fd5b634e487b7160e01b855260118252602485fd5b509134610271578160031936011261027157610bce610ebf565b6024359290916001600160a01b0391908280610be987611116565b16941693808514610cd557803314908115610cb6575b5015610c4e57848652602052842080546001600160a01b03191683179055610c2683611116565b167f8c5be1e5ebec7d5bd14f71427d1e84f3dd0314c0f7b2291e5b200ac8c7c3b9258480a480f35b6020608492519162461bcd60e51b8352820152603d60248201527f4552433732313a20617070726f76652063616c6c6572206973206e6f7420746f60448201527f6b656e206f776e6572206f7220617070726f76656420666f7220616c6c0000006064820152fd5b90508652600560205281862033875260205260ff828720541638610bff565b506020608492519162461bcd60e51b8352820152602160248201527f4552433732313a20617070726f76616c20746f2063757272656e74206f776e656044820152603960f91b6064820152fd5b503461015f57602036600319011261015f57506108a160209235611139565b503461015f578060031936011261015f5781519181825492600184811c91818616958615610e01575b602096878510811461060f578899509688969785829a5291826000146105e8575050600114610da657505050610259929161057e910385610f8f565b91908693508280527f290decd9548b62a8d60345a988386fc84ba6bc95484008f6362f93160ef3e5635b828410610de9575050508201018161057e61025961056b565b8054848a018601528895508794909301928101610dd0565b92607f1692610d6a565b90508334610271576020366003190112610271573563ffffffff60e01b811680910361027157602092506380ac58cd60e01b8114908115610e66575b8115610e55575b5015158152f35b6301ffc9a760e01b14905083610e4e565b635b5e139f60e01b81149150610e47565b60005b838110610e8a5750506000910152565b8181015183820152602001610e7a565b90602091610eb381518092818552858086019101610e77565b601f01601f1916010190565b600435906001600160a01b0382168203610ed557565b600080fd5b602435906001600160a01b0382168203610ed557565b6060906003190112610ed5576001600160a01b03906004358281168103610ed557916024359081168103610ed5579060443590565b6020810190811067ffffffffffffffff821117610f4157604052565b634e487b7160e01b600052604160045260246000fd5b6060810190811067ffffffffffffffff821117610f4157604052565b6040810190811067ffffffffffffffff821117610f4157604052565b90601f8019910116810190811067ffffffffffffffff821117610f4157604052565b67ffffffffffffffff8111610f4157601f01601f191660200190565b929192610fd982610fb1565b91610fe76040519384610f8f565b829481845281830111610ed5578281602093846000960137010152565b9080601f83011215610ed55781602061101f93359101610fcd565b90565b906110b57f000000000000000000000000000000000000000000000000000000000000000091670de0b6b3a76400009384916ec097ce7bc90715b34b9f100000000060017f00000000000000000000000000000000000000000000000000000000000000009201020590037f00000000000000000000000000000000000000000000000000000000000000000205611596565b90818102918183051490151715610ed5570590565b156110d157565b60405162461bcd60e51b815260206004820152601860248201527f4552433732313a20696e76616c696420746f6b656e20494400000000000000006044820152606490fd5b6000908152600260205260409020546001600160a01b031661101f8115156110ca565b60008181526002602052604090205461115c906001600160a01b031615156110ca565b6000908152600460205260409020546001600160a01b031690565b1561117e57565b60405162461bcd60e51b815260206004820152602d60248201527f4552433732313a2063616c6c6572206973206e6f7420746f6b656e206f776e6560448201526c1c881bdc88185c1c1c9bdd9959609a1b6064820152608490fd5b906111fd9392916111ed6109488433611274565b6111f883838361133c565b611452565b1561120457565b60405162461bcd60e51b81528061121d60048201611221565b0390fd5b60809060208152603260208201527f4552433732313a207472616e7366657220746f206e6f6e20455243373231526560408201527131b2b4bb32b91034b6b83632b6b2b73a32b960711b60608201520190565b906001600160a01b03808061128884611116565b169316918383149384156112bb575b5083156112a5575b50505090565b6112b191929350611139565b161438808061129f565b909350600052600560205260406000208260005260205260ff604060002054169238611297565b156112e957565b60405162461bcd60e51b815260206004820152602560248201527f4552433732313a207472616e736665722066726f6d20696e636f72726563742060448201526437bbb732b960d91b6064820152608490fd5b906113649161134a84611116565b6001600160a01b03939184169284929091831684146112e2565b1691821561140157816113819161137a86611116565b16146112e2565b7fddf252ad1be2c89b69c2b068fc378daa952ba7f163c4a11628f55a4df523b3ef60008481526004602052604081206bffffffffffffffffffffffff60a01b9081815416905583825260036020526040822060001981540190558482526040822060018154019055858252600260205284604083209182541617905580a4565b60405162461bcd60e51b8152602060048201526024808201527f4552433732313a207472616e7366657220746f20746865207a65726f206164646044820152637265737360e01b6064820152608490fd5b9293600093909291803b15611568579484916114ac9660405180948193630a85bd0160e11b9788845233600485015260018060a01b0380921660248501526044840152608060648401528260209b8c976084830190610e9a565b0393165af1849181611528575b50611517575050503d60001461150f573d6114d381610fb1565b906114e16040519283610f8f565b81528091833d92013e5b8051918261150c5760405162461bcd60e51b81528061121d60048201611221565b01fd5b5060606114eb565b6001600160e01b0319161492509050565b9091508581813d8311611561575b6115408183610f8f565b8101031261026957516001600160e01b0319811681036102695790386114b9565b503d611536565b505050915050600190565b9190820391821161158057565b634e487b7160e01b600052601160045260246000fd5b680248ce36a70cb26b3e1981131561171a57680755bf798b4a1bf1e58112156116e6576503782dace9d990604e1b0574029d9dc38563c32e5c2f6dc192ee70ef65f9978af36bb17217f7d1cf79abc9e3b398916060906001605f1b8482841b0501821d9384029003806c10fe68e7fd37d0007b713f7650810102821d906e0587f503bb6ea29d25fcb7401964506e05180bb14799ab47a8a8cb2a527d57826e02c72388d9f74f51a9331fed693f1419816db1bbb201f443cf962f1a1d3db4a5816d1a521255e34f6a5061b25ef1c9c319816d0277594991cfc85f6e2461837cd9816c240c330e9fb2d9cbaf0fd5aafb198101028d1d01028b1d0102891d0102871d0102851d01936d360d7aeea093263ecc6e0ecb291760621b936d02d16720577bd19bf614176fe9ea810190846d01d3967ed30fc4f89c02bab570811991010102901d01020105029060c3031c90565b60405162461bcd60e51b815260206004820152600c60248201526b4558505f4f564552464c4f5760a01b6044820152606490fd5b50600090565b1561172757565b60405162461bcd60e51b815260206004820152601c60248201527f4552433732313a20746f6b656e20616c7265616479206d696e746564000000006044820152606490fd5b61101f62015180670de0b6b3a76400006117a67f000000000000000000000000000000000000000000000000000000000000000042611573565b020460065490611022565b9060001943019143831161158057600583069260ff84166005039360ff8511611580576117dd91611573565b409060405190602082019283526040820152604081526117fc81610f57565b5190209190565b7f3c6665436f6c6f724d617472697820747970653d22687565526f7461746522208152753932b9bab63a1e913937ba30ba32a932b9bab63a111f60511b602082015260360190565b9695949193909460409485519460208092878281019c7f3c7376672077696474683d2233353022206865696768743d22333530222076658e528a82017f7273696f6e3d22312e312220786d6c6e733d22687474703a2f2f7777772e773390526e1737b933979918181817b9bb33911f60891b60608301526e1e3334b63a32b91034b21e9130911f60891b606f8301528051908185607e85019201916118ef92610e77565b810103605e81018952607e016119059089610f8f565b88518095838201987f3c6665436f6c6f724d617472697820747970653d226d617472697822207265738a528b83017f756c743d22636f6c6f724368616e6e656c526573756c7422200000000000000090527103b30b63ab2b99e91181018101810181018160751b6059840152690181018101810181018160b51b80606b85015260758401526a189018101810181018111f60a91b607f8401526f1e17b332a1b7b637b926b0ba3934bc1f60811b9889608a8501528051908187609a87019201916119ce92610e77565b83018151918287609a84019201916119e592610e77565b018151918286609a84019201916119fb92610e77565b01609a8101681e17b334b63a32b91f60b91b905260a381017f3c726563742077696474683d2233353022206865696768743d2233353022206690527034b63a32b91e913ab9361411b09491179f60791b60c382015260d48101651e17b9bb339f60d11b90520360ba8101865260da01611a749086610f8f565b8b828a519b8c928b519081848601611a8b92610e77565b83018151918284808401920191611aa192610e77565b0101611aac90611803565b878152865190611ac082601083018c610e77565b010398600f19998a81018c52601001611ad9908c610f8f565b519b8c98519081848b01611aec92610e77565b88018151918284808401920191611b0292610e77565b0101611b0d90611803565b818192519384910191611b1f92610e77565b0191825251918260108301611b3392610e77565b01039081018452601001611b479084610f8f565b9190565b60dd60405160208101908382526000604082015260408152611b6c81610f57565b51902006601e810180911161158057600a811015612b3957611b8d90612bc8565b611bc860256040518093640302e3030360dc1b6020830152611bb88151809260208686019101610e77565b8101036005810184520182610f8f565b600360405160208101908482526000604082015260408152611be981610f57565b51902006916001830180931161158057611ce4611c0584612bc8565b93611cdf6071611c178560061c612bc8565b966040519788917f3c666554757262756c656e636520626173654672657175656e63793d2200000060208401528851611c5781603d860160208d01610e77565b83016d1110373ab6a7b1ba30bb32b99e9160911b603d820152611c84825180936020604b85019101610e77565b0167111039b2b2b21e9160c11b604b820152611caa825180936020605385019101610e77565b017f2220726573756c743d2274757262756c656e6365526573756c74222f3e2000006053820152036051810188520186610f8f565b612bc8565b609760405160208101908482526001604082015260408152611d0581610f57565b5190200693600160405160208101908582526002604082015260408152611d2b81610f57565b51902016159460af60405160208101908682526003604082015260408152611d5281610f57565b51902006604b81019081811161158057600160405160208101908882526004604082015260408152611d8381610f57565b5190201615888103612afb5750604b91508201019081811161158057611dae611db492978092613140565b96613140565b93603c60405160208101908682526005604082015260408152611dd681610f57565b519020066001810180911161158057611dee90612bc8565b94611e26602160405188611e0c829a51809260208086019101610e77565b8101607360f81b6020820152036001810189520187610f8f565b611e97602360405180938a8051611e44816020860160208501610e77565b830191603b60f81b92836020820152611e67825180936020602185019101610e77565b01826021820152611e82825180936020602285019101610e77565b01906022820152036003810184520182610f8f565b61202761011660405180937f3c6665446973706c6163656d656e744d617020726573756c743d22646973706c60208301526e30b1b2b6b2b73a2932b9bab63a111f60891b60408301527f3c616e696d617465206174747269627574654e616d653d227363616c65222000604f830152673b30b63ab2b99e9160c11b606e830152611f2b815180926020607686019101610e77565b81017f22206b657954696d65733d22303b20302e353b203122206475723d22000000006076820152895190611f68828c6020609285019101610e77565b7f2220726570656174436f756e743d22696e646566696e6974652220726573756c910160928101919091527f743d22646973706c6163656d656e74526573756c74222063616c634d6f64653d60b28201527f2273706c696e6522206b657953706c696e65733d22302e33203020302e37203160d28201526f1d9018171990181018171b901891179f60811b60f2820152731e17b332a234b9b83630b1b2b6b2b73a26b0b81f60611b61010282015260f691900390810184520182610f8f565b6040517f3c6665446973706c6163656d656e744d6170207363616c653d2200000000000060208201526120bd606c828a5161206a818d6020603a86019101610e77565b81017f2220726573756c743d22646973706c6163656d656e74526573756c74223e0000603a820152731e17b332a234b9b83630b1b2b6b2b73a26b0b81f60611b605882015203604c810184520182610f8f565b60016003604051602081019089825260066040820152604081526120e081610f57565b5190200616612aee576120f16130af565b936001600360405160208101908a8252600760408201526040815261211581610f57565b5190200616612ae157612126613092565b946001600360405160208101908b8252600860408201526040815261214a81610f57565b5190200616612ad45761215b6130af565b90600360405160208101908b8252600960408201526040815261217d81610f57565b519020066001810181116115805780612a6257505061219a613092565b955b603360405160208101908b8252600a6040820152604081526121bd81610f57565b51902006600a8110156129d95790612404926121e26121dd60e894612bc8565b6130cc565b905b8b60016040516020810190838252600b60408201526040815261220681610f57565b519020161590816129c2575b600360019160405160208101918252600c60408201526040815261223581610f57565b5190200616159081156129ba575b50156129995760405161225581610f73565b60038152621bdd5d60ea1b6020820152925b6040519a8b947f3c6665436f6d706f7369746520696e3d22726f74617465526573756c7422206960208701527f6e323d22636f6c6f724368616e6e656c526573756c7422206f70657261746f726040870152611e9160f11b60608701526122d881518092602060628a019101610e77565b85017f2220726573756c743d22636f6d706f73697465526573756c7432222f3e00000060628201527f3c6665436f6d706f7369746520696e3d22636f6d706f73697465526573756c74607f8201527f322220696e323d22636f6d706f73697465526573756c743222206f7065726174609f8201527337b91e9130b934ba3436b2ba34b1911035989e9160611b60bf82015261237d82518093602060d385019101610e77565b0165111035991e9160d11b60d38201526123a182518093602060d985019101610e77565b0165111035999e9160d11b60d98201526123c582518093602060df85019101610e77565b01651110359a1e9160d11b60df8201526123e982518093602060e585019101610e77565b016211179f60e91b60e58201520360c8810188520186610f8f565b60016040516020810190898252600d60408201526040815261242581610f57565b519020169560028701871161158057601460405160208101908a8252600e60408201526040815261245581610f57565b51902006600a810181116115805760c66125e2916124b0601e6124a9600a6124a28f60029060405160208101918252600f60408201526040815261249881610f57565b5190209f01612bc8565b9401612bc8565b9b06612bc8565b6040519a8b927f3c6665446966667573654c69676874696e67206c69676874696e672d636f6c6f60208501527f723d227768697465222064696666757365436f6e7374616e743d2200000000006040850152612516815180926020605b88019101610e77565b83017f2220726573756c743d2264696666757365526573756c74222073757266616365605b8201526629b1b0b6329e9160c91b607b820152612562825180936020608285019101610e77565b017f223e3c666544697374616e744c6967687420656c65766174696f6e3d22000000608282015261259d825180936020609f85019101610e77565b017f223e3c2f666544697374616e744c696768743e3c2f6665446966667573654c69609f8201526633b43a34b7339f60c91b60bf8201520360a681018a520188610f8f565b6040516020810190898252601060408201526040815261260181610f57565b51902060609860119160011615612901575b90612640601d92604051602081019182528360408201526040815261263781610f57565b51902091613083565b50069460018601809611611580576128fa996128f592610101926127356126668a612bc8565b99611cdf608f604051809d7f3c616e696d617465206174747269627574654e616d653d2276616c75657322206020830152710333937b69e911811103a379e91199b1811160751b604083015264323ab91e9160d91b60528301526126d4815180926020605786019101610e77565b81016203991160ed1b60578201527f726570656174436f756e743d22696e646566696e6974652220726573756c743d605a820152741131b7b637b926b0ba3934bc2932b9bab63a11179f60591b607a820152038d606f82019052018c610f8f565b9d6040519e8f947f7b202274726169745f74797065223a202242617365204672657175656e63792260208701526b1610113b30b63ab2911d101160a11b9384604088015261278d815180926020604c8b019101610e77565b86016308881f4b60e21b9485604c8301527f7b202274726169745f74797065223a2022416e696d6174696f6e2054797065226050830152607082015284607c8201527f7b202274726169745f74797065223a2022416e696d6174696f6e20537065656460808201526c111610113b30b63ab2911d101160991b60a082015261281f82518093602060ad85019101610e77565b01600160fd1b60ad82015261283e82518093602060ae85019101610e77565b018260ae8201527f7b202274726169745f74797065223a20225363616c65222c202276616c75652260b2820152621d101160e91b60d282015261288b82518093602060d585019101610e77565b019060d58201527f7b202274726169745f74797065223a20224f637461766573222c202276616c7560d98201526432911d101160d91b60f98201526128da82518093602060fe85019101610e77565b016222207d60e81b60fe8201520360e181018c52018a610f8f565b61184b565b9290929190565b9890604051608081019080821067ffffffffffffffff831117610f41576040918252605281527f3c6665436f6c6f724d617472697820747970653d226d6174726978222076616c60208201527f7565733d222d3120302030203020312030202d3120302030203120302030202d918101919091527118901810189018101810181018901811179f60711b928101929092529098612613565b6040516129a581610f73565b600281526134b760f11b602082015292612267565b905038612243565b9260036129d0600192613108565b94915050612212565b906064821015612a3057612404926129f260e893612bc8565b612a2a6022604051809361181760f11b6020830152612a1a8151809260208686019101610e77565b8101036002810184520182610f8f565b906121e4565b60405162461bcd60e51b815260206004820152600a602482015269125b9d985b1a59081acd60b21b6044820152606490fd5b90969060018101600203612a7f575050612a7a613092565b61219c565b909150600101600303612a9a57612a94613092565b9061219c565b60405162461bcd60e51b8152602060048201526012602482015271496e76616c6964206b312c206b322c206b3360701b6044820152606490fd5b612adc613092565b61215b565b612ae9613092565b612126565b612af6613092565b6120f1565b905081831115612b1f575090611dae612b17611db49383611573565b978092613140565b96611dae90612b3284611db49594611573565b9892613140565b6064811015612b8a57612b4b90612bc8565b612b8560246040518093630302e30360e41b6020830152612b758151809260208686019101610e77565b8101036004810184520182610f8f565b611bc8565b6121dd612b8591612bc8565b90612ba082610fb1565b612bad6040519182610f8f565b8281528092612bbe601f1991610fb1565b0190602036910137565b806000917a184f03e93ff9f4daa797ed6e38ed64bf6a1f01000000000000000080821015612cfd575b506d04ee2d6d415b85acef810000000080831015612cee575b50662386f26fc1000080831015612cdf575b506305f5e10080831015612cd0575b5061271080831015612cc1575b506064821015612cb1575b600a80921015612ca7575b600190816021612c5f828701612b96565b95860101905b612c71575b5050505090565b600019019083906f181899199a1a9b1b9c1cb0b131b232b360811b8282061a835304918215612ca257919082612c65565b612c6a565b9160010191612c4e565b9190606460029104910191612c43565b60049193920491019138612c38565b60089193920491019138612c2b565b60109193920491019138612c1c565b60209193920491019138612c0a565b604093508104915038612bf1565b603d612d8b612ef3612f2d94612eee60c4612d2861101f97611b4b565b90612ed4612d97612d916040519a8b99611cdf603260209e8f99612d6f8b83019b6f01130ba3a3934b13aba32b9911d102d960851b8d528251928391603086019101610e77565b810161205d60f01b6030820152038d601282019052018c610f8f565b95612f3d565b92612f3d565b96604051978895757b20226e616d65223a20224d657263757269616c202360501b8c880152612dd08c825192839160368b019101610e77565b8601936201116160ed1b948560368201527f226465736372697074696f6e223a20224f6e20636861696e2067656e65726174603982015272034bb329030b93a10383937b532b1ba1711161606d1b60598201527f22696d616765223a2022646174613a696d6167652f7376672b786d6c3b626173606c82015263194d8d0b60e21b608c820152612e6a8d8351938491609085019101610e77565b018460908201527f22616e696d6174696f6e5f75726c223a2022646174613a696d6167652f73766760938201526b0ade1b5b0ed8985cd94d8d0b60a21b60b3820152612ec08c835193849160bf85019101610e77565b019260bf84015251809360c2840190610e77565b0161207d60f01b60c28201520360a4810184520182610f8f565b612f3d565b60405194827f646174613a6170706c69636174696f6e2f6a736f6e3b6261736536342c000000879485015282519283918686019101610e77565b810103601d810184520182610f8f565b80511561306f57604051612f5081610f57565b604081527f4142434445464748494a4b4c4d4e4f505152535455565758595a61626364656660208201527f6768696a6b6c6d6e6f707172737475767778797a303132333435363738392b2f60408201528151600292838201809211611580576003918290046001600160fe1b038116810361158057612fd2908594951b612b96565b936020850193829183518401925b83811061301e575050505051068060011461300b57600214613000575090565b603d90600019015390565b50603d9081600019820153600119015390565b85600491979293949701918251600190603f9082828260121c16880101518453828282600c1c16880101518385015382828260061c1688010151888501531685010151878201530195929190612fe0565b5060405161307c81610f25565b6000815290565b60001981146115805760010190565b6040519061309f82610f73565b60018252603160f81b6020830152565b604051906130bc82610f73565b60018252600360fc1b6020830152565b9061310660236040518094620302e360ec1b60208301526130f68151809260208686019101610e77565b8101036003810185520183610f8f565b565b9061310660216040518094602d60f81b60208301526131308151809260208686019101610e77565b8101036001810185520183610f8f565b90156131575761315261101f91612bc8565b613108565b61101f90612bc856fea2646970667358221220c6a34ad68b97d831feb04ced9fc4aeea76ee5d7e4992f5e70309a20c3e57856964736f6c63430008110033",
    "linkReferences": {}
  },
  "methodIdentifiers": {
    "approve(address,uint256)": "095ea7b3",
    "balanceOf(address)": "70a08231",
    "composeSVGsFromParts(string,string,string,string,string,string,string)": "f1af34ce",
    "generateSVG(uint256)": "6dcee4ca",
    "generateSeed(uint256)": "424611c3",
    "getApproved(uint256)": "081812fc",
    "getCurrentVRGDAPrice()": "4718121a",
    "getTargetSaleTime(int256)": "6d9d33b7",
    "getVRGDAPrice(int256,uint256)": "f466d4ab",
    "isApprovedForAll(address,address)": "e985e9c5",
    "mint(uint256,bytes32)": "1801fbe5",
    "name()": "06fdde03",
    "nextToken()": "9499ac54",
    "ownerOf(uint256)": "6352211e",
    "safeTransferFrom(address,address,uint256)": "42842e0e",
    "safeTransferFrom(address,address,uint256,bytes)": "b88d4fde",
    "seeds(uint256)": "f0503e80",
    "setApprovalForAll(address,bool)": "a22cb465",
    "startTime()": "78e97925",
    "supportsInterface(bytes4)": "01ffc9a7",
    "symbol()": "95d89b41",
    "targetPrice()": "dc38679c",
    "tokenURI(uint256)": "c87b56dd",
    "totalSold()": "9106d7ba",
    "transferFrom(address,address,uint256)": "23b872dd"
  },
  "id": 32
}